{
  "address": "0x664AF8a1734f0726D47407F980d68f434e00cc49",
  "abi": [
    {
      "inputs": [
        {
          "internalType": "address",
          "name": "_owner",
          "type": "address"
        },
        {
          "internalType": "contract IInputBox",
          "name": "_inputBox",
          "type": "address"
        },
        {
          "internalType": "contract IHistory",
          "name": "_history",
          "type": "address"
        }
      ],
      "stateMutability": "nonpayable",
      "type": "constructor"
    },
    {
      "anonymous": false,
      "inputs": [
        {
          "indexed": false,
          "internalType": "address",
          "name": "owner",
          "type": "address"
        },
        {
          "indexed": false,
          "internalType": "contract IInputBox",
          "name": "inputBox",
          "type": "address"
        },
        {
          "indexed": false,
          "internalType": "contract IHistory",
          "name": "history",
          "type": "address"
        }
      ],
      "name": "ConsensusCreated",
      "type": "event"
    },
    {
      "anonymous": false,
      "inputs": [
        {
          "indexed": false,
          "internalType": "contract IHistory",
          "name": "history",
          "type": "address"
        }
      ],
      "name": "NewHistory",
      "type": "event"
    },
    {
      "anonymous": false,
      "inputs": [
        {
          "indexed": true,
          "internalType": "address",
          "name": "previousOwner",
          "type": "address"
        },
        {
          "indexed": true,
          "internalType": "address",
          "name": "newOwner",
          "type": "address"
        }
      ],
      "name": "OwnershipTransferred",
      "type": "event"
    },
    {
      "inputs": [
        {
          "internalType": "address",
          "name": "_dapp",
          "type": "address"
        },
        {
          "internalType": "bytes",
          "name": "_proofContext",
          "type": "bytes"
        }
      ],
      "name": "getClaim",
      "outputs": [
        {
          "internalType": "bytes32",
          "name": "",
          "type": "bytes32"
        },
        {
          "internalType": "uint256",
          "name": "",
          "type": "uint256"
        },
        {
          "internalType": "uint256",
          "name": "",
          "type": "uint256"
        }
      ],
      "stateMutability": "view",
      "type": "function"
    },
    {
      "inputs": [],
      "name": "getHistory",
      "outputs": [
        {
          "internalType": "contract IHistory",
          "name": "",
          "type": "address"
        }
      ],
      "stateMutability": "view",
      "type": "function"
    },
    {
      "inputs": [
        {
          "internalType": "address",
          "name": "_consensus",
          "type": "address"
        }
      ],
      "name": "migrateHistoryToConsensus",
      "outputs": [],
      "stateMutability": "nonpayable",
      "type": "function"
    },
    {
      "inputs": [],
      "name": "owner",
      "outputs": [
        {
          "internalType": "address",
          "name": "",
          "type": "address"
        }
      ],
      "stateMutability": "view",
      "type": "function"
    },
    {
      "inputs": [],
      "name": "renounceOwnership",
      "outputs": [],
      "stateMutability": "nonpayable",
      "type": "function"
    },
    {
      "inputs": [
        {
          "internalType": "contract IHistory",
          "name": "_history",
          "type": "address"
        }
      ],
      "name": "setHistory",
      "outputs": [],
      "stateMutability": "nonpayable",
      "type": "function"
    },
    {
      "inputs": [
        {
          "internalType": "bytes",
          "name": "_claimData",
          "type": "bytes"
        }
      ],
      "name": "submitClaim",
      "outputs": [],
      "stateMutability": "nonpayable",
      "type": "function"
    },
    {
      "inputs": [
        {
          "internalType": "address",
          "name": "newOwner",
          "type": "address"
        }
      ],
      "name": "transferOwnership",
      "outputs": [],
      "stateMutability": "nonpayable",
      "type": "function"
    },
    {
      "inputs": [
        {
          "internalType": "contract IERC20",
          "name": "_token",
          "type": "address"
        },
        {
          "internalType": "address",
          "name": "_recipient",
          "type": "address"
        },
        {
          "internalType": "uint256",
          "name": "_amount",
          "type": "uint256"
        }
      ],
      "name": "withdrawERC20Tokens",
      "outputs": [],
      "stateMutability": "nonpayable",
      "type": "function"
    }
  ],
  "transactionHash": "0x8768f3bc072d6d8fd133ccdfdca07fb2128494c838a443cd2683406caed78fb2",
  "args": [
    "0x18930e8a66a1DbE21D00581216789AAB7460Afd0",
    "0xDA5fbE19afC6e8cf32aAb6Df0A1154EF507Ee238",
    "0xB82891259423911774FA11a4Be7F1bac0DCf095D"
  ],
  "numDeployments": 2,
  "solcInputHash": "0c9e5477ee1b2c079e9836e191b9e01f",
  "bytecode": "0x608060405234801561001057600080fd5b506040516109d83803806109d883398101604081905261002f916101f8565b610038336100b9565b336001600160a01b038416146100515761005183610109565b600180546001600160a01b0319166001600160a01b0383811691821790925560408051868416815292851660208401528201527f25b0664e0a40f3e96d12428b372e2f2166432a8e6ac723e7911e81a588061c739060600160405180910390a1505050610245565b600080546001600160a01b038381166001600160a01b0319831681178455604051919092169283917f8be0079c531659141344cd1fd0a4f28419497f9722a3daafe3b4186f6b6457e09190a35050565b610111610187565b6001600160a01b03811661017b5760405162461bcd60e51b815260206004820152602660248201527f4f776e61626c653a206e6577206f776e657220697320746865207a65726f206160448201526564647265737360d01b60648201526084015b60405180910390fd5b610184816100b9565b50565b6000546001600160a01b031633146101e15760405162461bcd60e51b815260206004820181905260248201527f4f776e61626c653a2063616c6c6572206973206e6f7420746865206f776e65726044820152606401610172565b565b6001600160a01b038116811461018457600080fd5b60008060006060848603121561020d57600080fd5b8351610218816101e3565b6020850151909350610229816101e3565b604085015190925061023a816101e3565b809150509250925092565b610784806102546000396000f3fe608060405234801561001057600080fd5b50600436106100935760003560e01c8063aa15efc811610066578063aa15efc8146100f2578063bcdd1e1314610103578063d79a824014610116578063ddfdfbb014610144578063f2fde38b1461015757600080fd5b8063159c5ea114610098578063715018a6146100ad5780638da5cb5b146100b55780639368a3d3146100df575b600080fd5b6100ab6100a6366004610546565b61016a565b005b6100ab6101c6565b6000546001600160a01b03165b6040516001600160a01b0390911681526020015b60405180910390f35b6100ab6100ed366004610546565b6101da565b6001546001600160a01b03166100c2565b6100ab61011136600461056a565b610244565b6101296101243660046105f4565b610315565b604080519384526020840192909252908201526060016100d6565b6100ab610152366004610649565b61039e565b6100ab610165366004610546565b61040e565b610172610487565b600180546001600160a01b0319166001600160a01b0383169081179091556040519081527f2bcd43869347a1d42f97ac6042f3d129817abd05a6125f9750fe3724e321d23e9060200160405180910390a150565b6101ce610487565b6101d860006104e1565b565b6101e2610487565b60015460405163fc41168360e01b81526001600160a01b0383811660048301529091169063fc41168390602401600060405180830381600087803b15801561022957600080fd5b505af115801561023d573d6000803e3d6000fd5b5050505050565b61024c610487565b60405163a9059cbb60e01b81526001600160a01b0383811660048301526024820183905284169063a9059cbb906044016020604051808303816000875af115801561029b573d6000803e3d6000fd5b505050506040513d601f19601f820116820180604052508101906102bf919061068b565b6103105760405162461bcd60e51b815260206004820152601c60248201527f417574686f726974793a207769746864726177616c206661696c65640000000060448201526064015b60405180910390fd5b505050565b60015460405163035e6a0960e61b8152600091829182916001600160a01b03169063d79a82409061034e908990899089906004016106d6565b606060405180830381865afa15801561036b573d6000803e3d6000fd5b505050506040513d601f19601f8201168201806040525081019061038f9190610704565b92509250925093509350939050565b6103a6610487565b600154604051630ddfdfbb60e41b81526001600160a01b039091169063ddfdfbb0906103d89085908590600401610732565b600060405180830381600087803b1580156103f257600080fd5b505af1158015610406573d6000803e3d6000fd5b505050505050565b610416610487565b6001600160a01b03811661047b5760405162461bcd60e51b815260206004820152602660248201527f4f776e61626c653a206e6577206f776e657220697320746865207a65726f206160448201526564647265737360d01b6064820152608401610307565b610484816104e1565b50565b6000546001600160a01b031633146101d85760405162461bcd60e51b815260206004820181905260248201527f4f776e61626c653a2063616c6c6572206973206e6f7420746865206f776e65726044820152606401610307565b600080546001600160a01b038381166001600160a01b0319831681178455604051919092169283917f8be0079c531659141344cd1fd0a4f28419497f9722a3daafe3b4186f6b6457e09190a35050565b6001600160a01b038116811461048457600080fd5b60006020828403121561055857600080fd5b813561056381610531565b9392505050565b60008060006060848603121561057f57600080fd5b833561058a81610531565b9250602084013561059a81610531565b929592945050506040919091013590565b60008083601f8401126105bd57600080fd5b50813567ffffffffffffffff8111156105d557600080fd5b6020830191508360208285010111156105ed57600080fd5b9250929050565b60008060006040848603121561060957600080fd5b833561061481610531565b9250602084013567ffffffffffffffff81111561063057600080fd5b61063c868287016105ab565b9497909650939450505050565b6000806020838503121561065c57600080fd5b823567ffffffffffffffff81111561067357600080fd5b61067f858286016105ab565b90969095509350505050565b60006020828403121561069d57600080fd5b8151801515811461056357600080fd5b81835281816020850137506000828201602090810191909152601f909101601f19169091010190565b6001600160a01b03841681526040602082018190526000906106fb90830184866106ad565b95945050505050565b60008060006060848603121561071957600080fd5b8351925060208401519150604084015190509250925092565b6020815260006107466020830184866106ad565b94935050505056fea2646970667358221220656d257d7377ee828600cb642cce8ef984c3e2434693a1831cccf775b661929864736f6c634300080d0033",
  "devdoc": {
    "kind": "dev",
    "methods": {
      "getClaim(address,bytes)": {
        "details": "The encoding of _proofContext might vary depending on the history implementation",
        "params": {
          "_dapp": "The DApp",
          "_proofContext": "Data for retrieving the desired claim"
        },
        "returns": {
          "_0": "The epoch hash contained in the claim",
          "_1": "The index of the first input in the input box for which the epoch hash is valid",
          "_2": "The index of the last input in the input box for which the epoch hash is valid"
        }
      },
      "getHistory()": {
        "returns": {
          "_0": "The current history"
        }
      },
      "migrateHistoryToConsensus(address)": {
        "details": "Should have access control",
        "params": {
          "_consensus": "The new consensus"
        }
      },
      "owner()": {
        "details": "Returns the address of the current owner."
      },
      "renounceOwnership()": {
        "details": "Leaves the contract without owner. It will not be possible to call `onlyOwner` functions anymore. Can only be called by the current owner. NOTE: Renouncing ownership will leave the contract without an owner, thereby removing any functionality that is only available to the owner."
      },
      "setHistory(address)": {
        "details": "Should have access control",
        "params": {
          "_history": "The new history"
        }
      },
      "submitClaim(bytes)": {
        "details": "Will fail if history has migrated to another consensus"
      },
      "transferOwnership(address)": {
        "details": "Transfers ownership of the contract to a new account (`newOwner`). Can only be called by the current owner."
      },
      "withdrawERC20Tokens(address,address,uint256)": {
        "params": {
          "_amount": "The transfer amount",
          "_recipient": "The recipient address",
          "_token": "The ERC-20 token"
        }
      }
    },
    "version": 1
  },
  "userdoc": {
    "events": {
      "ConsensusCreated(address,address,address)": {
        "notice": "A consensus was created"
      },
      "NewHistory(address)": {
        "notice": "A new history is used"
      }
    },
    "kind": "user",
    "methods": {
      "getClaim(address,bytes)": {
        "notice": "Get the epoch hash for a given DApp from a claim"
      },
      "getHistory()": {
        "notice": "Get the current history"
      },
      "migrateHistoryToConsensus(address)": {
        "notice": "Migrate the current history to a new consensus"
      },
      "setHistory(address)": {
        "notice": "Point the consensus to a new history"
      },
      "withdrawERC20Tokens(address,address,uint256)": {
        "notice": "Transfer ERC-20 tokens from consensus contract to a recipient"
      }
    },
    "version": 1
  },
  "storageLayout": {
    "storage": [
      {
        "astId": 1155,
        "contract": "contracts/consensus/authority/Authority.sol:Authority",
        "label": "_owner",
        "offset": 0,
        "slot": "0",
        "type": "t_address"
      },
      {
        "astId": 1896,
        "contract": "contracts/consensus/authority/Authority.sol:Authority",
        "label": "history",
        "offset": 0,
        "slot": "1",
        "type": "t_contract(IHistory)2764"
      }
    ],
    "types": {
      "t_address": {
        "encoding": "inplace",
        "label": "address",
        "numberOfBytes": "20"
      },
      "t_contract(IHistory)2764": {
        "encoding": "inplace",
        "label": "contract IHistory",
        "numberOfBytes": "20"
      }
    }
  }
}