{
  "address": "0xc7B997bAa864991214b45Fc933DE1421465930BE",
  "abi": [
    {
      "anonymous": false,
      "inputs": [
        {
          "indexed": false,
          "internalType": "address",
          "name": "ERC20",
          "type": "address"
        },
        {
          "indexed": false,
          "internalType": "address",
          "name": "sender",
          "type": "address"
        },
        {
          "indexed": false,
          "internalType": "uint256",
          "name": "amount",
          "type": "uint256"
        },
        {
          "indexed": false,
          "internalType": "bytes",
          "name": "data",
          "type": "bytes"
        }
      ],
      "name": "ERC20Deposited",
      "type": "event"
    },
    {
      "anonymous": false,
      "inputs": [
        {
          "indexed": false,
          "internalType": "address",
          "name": "ERC20",
          "type": "address"
        },
        {
          "indexed": false,
          "internalType": "address payable",
          "name": "receiver",
          "type": "address"
        },
        {
          "indexed": false,
          "internalType": "uint256",
          "name": "amount",
          "type": "uint256"
        }
      ],
      "name": "ERC20Withdrawn",
      "type": "event"
    },
    {
      "inputs": [
        {
          "internalType": "address",
          "name": "_ERC20",
          "type": "address"
        },
        {
          "internalType": "uint256",
          "name": "_amount",
          "type": "uint256"
        },
        {
          "internalType": "bytes",
          "name": "_data",
          "type": "bytes"
        }
      ],
      "name": "erc20Deposit",
      "outputs": [
        {
          "internalType": "bytes32",
          "name": "",
          "type": "bytes32"
        }
      ],
      "stateMutability": "nonpayable",
      "type": "function"
    },
    {
      "inputs": [
        {
          "internalType": "bytes",
          "name": "_data",
          "type": "bytes"
        }
      ],
      "name": "erc20Withdrawal",
      "outputs": [
        {
          "internalType": "bool",
          "name": "",
          "type": "bool"
        }
      ],
      "stateMutability": "nonpayable",
      "type": "function"
    }
  ],
  "transactionHash": "0xd03bae7ac4655e6f48656724cac3033cc76fa15fdc7cf00b103ef5f5ac136b44",
  "args": [],
  "numDeployments": 7,
  "solcInputHash": "1e82b8d1090fdbb2e05fd41a30b7236f",
  "bytecode": "0x608060405234801561001057600080fd5b506109fb806100206000396000f3fe608060405234801561001057600080fd5b50600436106100365760003560e01c8063a2b097ae1461003b578063cb1061a614610063575b600080fd5b61004e61004936600461071b565b610084565b60405190151581526020015b60405180910390f35b610076610071366004610775565b6101f1565b60405190815260200161005a565b60003330146100c85760405162461bcd60e51b815260206004820152600b60248201526a37b7363c9034ba39b2b63360a91b60448201526064015b60405180910390fd5b600080806100d8858701876107d1565b60405163a9059cbb60e01b81526001600160a01b038084166004830152602482018390529396509194509250849182169063a9059cbb906044016020604051808303816000875af1158015610131573d6000803e3d6000fd5b505050506040513d601f19601f820116820180604052508101906101559190610812565b6101995760405162461bcd60e51b8152602060048201526015602482015274115490cc8c081d1c985b9cd9995c8819985a5b1959605a1b60448201526064016100bf565b604080516001600160a01b038087168252851660208201529081018390527fbfed55bdcd242e3dd0f60ddd7d1e87c67f61c34cd9527b3e6455d841b10253629060600160405180910390a15060019695505050505050565b6000807f943d5d24442f02461445e15c5d7d4a4ef0acb0d32c5d6f6af37a6882249912ff6040516323b872dd60e01b81523360048201523060248201526044810187905290915086906001600160a01b038216906323b872dd906064016020604051808303816000875af115801561026d573d6000803e3d6000fd5b505050506040513d601f19601f820116820180604052508101906102919190610812565b6102dd5760405162461bcd60e51b815260206004820152601960248201527f4552433230207472616e7366657246726f6d206661696c65640000000000000060448201526064016100bf565b60007f59da2a984e165ae4487c99e5d1dca7e04c8a99301be6bc092932cb5d7f034378338989898960405160200161031a9695949392919061085d565b60405160208183030381529060405290507f29e6a9ed1b00933e0de5679ea9bc6ad323969a70b69b627425b46ac0431c7b018833898989604051610362959493929190610897565b60405180910390a16103748382610380565b98975050505050505050565b600061038d838330610394565b9392505050565b600283015482516000917fd32d7f90491bee81172a406b65f3270d810392fe53bb0379dde8bdd4e624189c91111561040e5760405162461bcd60e51b815260206004820152601860248201527f696e707574206c656e3a205b302c647269766553697a655d000000000000000060448201526064016100bf565b61041781610539565b156104255761042585610611565b6000856003015460001461043c578560010161043e565b855b9050600061044b83610630565b8254604080516001600160a01b03891660208083019190915243828401524260608301526080820185905260a08083018590528351808403909101815260c0830184528051908201208b518c83012060e084018290526101008085018290528551808603909101815261012090940190945282519282019290922060018086018955600089815292909220909401849055865494955090939192916104f091906108ec565b847fa15a0da5519c084484141aaa73e525cee96062f5decc97e070f0c4da27738bc78a428d60405161052493929190610903565b60405180910390a39998505050505050505050565b60018101546000908190600160801b900463ffffffff1660028111156105615761056161096f565b600184015490915063ffffffff6801000000000000000082048116911660008360028111156105925761059261096f565b1480156105a757506105a48183610985565b42115b15610606576001858101805463ffffffff60801b1916600160801b1790556040517fed606d544c2202d032d2626c390923e6f260ca5d89625bba0cfe70d2bdda4e8f916105f39161099d565b60405180910390a1506001949350505050565b506000949350505050565b600381015415610622576000610625565b60015b60ff16600390910155565b7f0635ad75fae4d4e8d896461a635d23700076a1c3fd8da26276f18cb1c09ea5675460018201546000917f0635ad75fae4d4e8d896461a635d23700076a1c3fd8da26276f18cb1c09ea566918390600160801b900463ffffffff16600281111561069c5761069c61096f565b905060008160028111156106b2576106b261096f565b146106c7576106c2826001610985565b6106c9565b815b95945050505050565b60008083601f8401126106e457600080fd5b50813567ffffffffffffffff8111156106fc57600080fd5b60208301915083602082850101111561071457600080fd5b9250929050565b6000806020838503121561072e57600080fd5b823567ffffffffffffffff81111561074557600080fd5b610751858286016106d2565b90969095509350505050565b6001600160a01b038116811461077257600080fd5b50565b6000806000806060858703121561078b57600080fd5b84356107968161075d565b935060208501359250604085013567ffffffffffffffff8111156107b957600080fd5b6107c5878288016106d2565b95989497509550505050565b6000806000606084860312156107e657600080fd5b83356107f18161075d565b925060208401356108018161075d565b929592945050506040919091013590565b60006020828403121561082457600080fd5b8151801515811461038d57600080fd5b81835281816020850137506000828201602090810191909152601f909101601f19169091010190565b8681526001600160a01b038681166020830152851660408201526060810184905260a0608082018190526000906103749083018486610834565b6001600160a01b03868116825285166020820152604081018490526080606082018190526000906108cb9083018486610834565b979650505050505050565b634e487b7160e01b600052601160045260246000fd5b6000828210156108fe576108fe6108d6565b500390565b60018060a01b038416815260006020848184015260606040840152835180606085015260005b8181101561094557858101830151858201608001528201610929565b81811115610957576000608083870101525b50601f01601f19169290920160800195945050505050565b634e487b7160e01b600052602160045260246000fd5b60008219821115610998576109986108d6565b500190565b60208101600383106109bf57634e487b7160e01b600052602160045260246000fd5b9190529056fea26469706673582212203cdc9bf3f2ade7fe232c0529777125f9b9d3cff2d14635a93ef05cf123aedd7864736f6c634300080d0033",
  "devdoc": {
    "kind": "dev",
    "methods": {
      "erc20Deposit(address,uint256,bytes)": {
        "params": {
          "_ERC20": "address of the ERC20 token contract",
          "_amount": "amount of the ERC20 token to be deposited",
          "_data": "information to be interpreted by L2"
        },
        "returns": {
          "_0": "hash of input generated by deposit"
        }
      },
      "erc20Withdrawal(bytes)": {
        "details": "can only be called by the Rollups contract",
        "params": {
          "_data": "data with withdrawal information"
        }
      }
    },
    "version": 1
  },
  "userdoc": {
    "events": {
      "ERC20Deposited(address,address,uint256,bytes)": {
        "notice": "emitted on ERC20 deposited"
      },
      "ERC20Withdrawn(address,address,uint256)": {
        "notice": "emitted on ERC20 withdrawal"
      }
    },
    "kind": "user",
    "methods": {
      "erc20Deposit(address,uint256,bytes)": {
        "notice": "deposit an amount of a generic ERC20 in the portal and create tokens in L2"
      },
      "erc20Withdrawal(bytes)": {
        "notice": "withdraw an amount of a generic ERC20 from the portal"
      }
    },
    "version": 1
  },
  "storageLayout": {
    "storage": [],
    "types": null
  }
}