{
  "address": "0xAccC223E89A37e2cA71Eb0cEf04C990a678c7f04",
  "abi": [
    {
      "anonymous": false,
      "inputs": [
        {
          "indexed": true,
          "internalType": "address",
          "name": "dapp",
          "type": "address"
        },
        {
          "indexed": true,
          "internalType": "uint256",
          "name": "inboxInputIndex",
          "type": "uint256"
        },
        {
          "indexed": false,
          "internalType": "address",
          "name": "sender",
          "type": "address"
        },
        {
          "indexed": false,
          "internalType": "bytes",
          "name": "input",
          "type": "bytes"
        }
      ],
      "name": "InputAdded",
      "type": "event"
    },
    {
      "inputs": [
        {
          "internalType": "address",
          "name": "_dapp",
          "type": "address"
        },
        {
          "internalType": "bytes",
          "name": "_input",
          "type": "bytes"
        }
      ],
      "name": "addInput",
      "outputs": [
        {
          "internalType": "bytes32",
          "name": "",
          "type": "bytes32"
        }
      ],
      "stateMutability": "nonpayable",
      "type": "function"
    },
    {
      "inputs": [
        {
          "internalType": "address",
          "name": "_dapp",
          "type": "address"
        },
        {
          "internalType": "uint256",
          "name": "_index",
          "type": "uint256"
        }
      ],
      "name": "getInputHash",
      "outputs": [
        {
          "internalType": "bytes32",
          "name": "",
          "type": "bytes32"
        }
      ],
      "stateMutability": "view",
      "type": "function"
    },
    {
      "inputs": [
        {
          "internalType": "address",
          "name": "_dapp",
          "type": "address"
        }
      ],
      "name": "getNumberOfInputs",
      "outputs": [
        {
          "internalType": "uint256",
          "name": "",
          "type": "uint256"
        }
      ],
      "stateMutability": "view",
      "type": "function"
    }
  ],
  "transactionHash": "0x9e09c8dbbb623fe118ae4fffdae43ba91d9274a8d00d72c820d2aa5a6135ac6b",
  "args": [],
  "numDeployments": 3,
  "solcInputHash": "af212e0e8f765400ccc29518052524f5",
  "bytecode": "0x608060405234801561001057600080fd5b506103f2806100206000396000f3fe608060405234801561001057600080fd5b50600436106100415760003560e01c80631789cd631461004657806361a93c871461006b578063677087c914610094575b600080fd5b610059610054366004610287565b6100a7565b60405190815260200160405180910390f35b61005961007936600461030a565b6001600160a01b031660009081526020819052604090205490565b6100596100a236600461032c565b61013b565b6001600160a01b03831660009081526020819052604081208054826100d0334342898987610178565b83546001810185556000858152602090200181905560405190915082906001600160a01b038916907f6aaa400068bf4ca337265e2a1e1e841f66b8597fd5b452fdc52a44bed28a0784906101299033908b908b90610356565b60405180910390a39695505050505050565b6001600160a01b038216600090815260208190526040812080548390811061016557610165610396565b9060005260206000200154905092915050565b600063020000008311156101d25760405162461bcd60e51b815260206004820152601860248201527f696e707574206c656e3a205b302c647269766553697a655d0000000000000000604482015260640160405180910390fd5b604080516001600160a01b03891660208201529081018790526060810186905260006080820181905260a082018490529060c001604051602081830303815290604052805190602001209050600085856040516102309291906103ac565b604080519182900382206020808401959095528282015280518083038201815260609092019052805192019190912098975050505050505050565b80356001600160a01b038116811461028257600080fd5b919050565b60008060006040848603121561029c57600080fd5b6102a58461026b565b9250602084013567ffffffffffffffff808211156102c257600080fd5b818601915086601f8301126102d657600080fd5b8135818111156102e557600080fd5b8760208285010111156102f757600080fd5b6020830194508093505050509250925092565b60006020828403121561031c57600080fd5b6103258261026b565b9392505050565b6000806040838503121561033f57600080fd5b6103488361026b565b946020939093013593505050565b6001600160a01b03841681526040602082018190528101829052818360608301376000818301606090810191909152601f909201601f1916010192915050565b634e487b7160e01b600052603260045260246000fd5b818382376000910190815291905056fea2646970667358221220873f7a6a62ad7505427e31cd988516392e2dd4dab24348e170da986eb69e9b7164736f6c634300080d0033",
  "devdoc": {
    "kind": "dev",
    "methods": {
      "addInput(address,bytes)": {
        "params": {
          "_dapp": "The address of the DApp",
          "_input": "The contents of the input"
        },
        "returns": {
          "_0": "The hash of the input plus some extra metadata"
        }
      },
      "getInputHash(address,uint256)": {
        "params": {
          "_dapp": "The address of the DApp",
          "_index": "The index of the input in the DApp's input box"
        },
        "returns": {
          "_0": "The hash of the input at the provided index in the DApp's input box"
        }
      },
      "getNumberOfInputs(address)": {
        "params": {
          "_dapp": "The address of the DApp"
        },
        "returns": {
          "_0": "Number of inputs in the DApp's input box"
        }
      }
    },
    "version": 1
  },
  "userdoc": {
    "events": {
      "InputAdded(address,uint256,address,bytes)": {
        "notice": "Emitted when an input is added to a DApp's input box"
      }
    },
    "kind": "user",
    "methods": {
      "addInput(address,bytes)": {
        "notice": "Add an input to a DApp's input box"
      },
      "getInputHash(address,uint256)": {
        "notice": "Get the hash of an input in a DApp's input box"
      },
      "getNumberOfInputs(address)": {
        "notice": "Get the number of inputs in a DApp's input box"
      }
    },
    "version": 1
  },
  "storageLayout": {
    "storage": [
      {
        "astId": 3014,
        "contract": "contracts/inputs/InputBox.sol:InputBox",
        "label": "inputBoxes",
        "offset": 0,
        "slot": "0",
        "type": "t_mapping(t_address,t_array(t_bytes32)dyn_storage)"
      }
    ],
    "types": {
      "t_address": {
        "encoding": "inplace",
        "label": "address",
        "numberOfBytes": "20"
      },
      "t_array(t_bytes32)dyn_storage": {
        "base": "t_bytes32",
        "encoding": "dynamic_array",
        "label": "bytes32[]",
        "numberOfBytes": "32"
      },
      "t_bytes32": {
        "encoding": "inplace",
        "label": "bytes32",
        "numberOfBytes": "32"
      },
      "t_mapping(t_address,t_array(t_bytes32)dyn_storage)": {
        "encoding": "mapping",
        "key": "t_address",
        "label": "mapping(address => bytes32[])",
        "numberOfBytes": "32",
        "value": "t_array(t_bytes32)dyn_storage"
      }
    }
  }
}