{
  "address": "0x22baF2A180B24E0eee1C06a02776A0964dAfDc20",
  "abi": [
    {
      "anonymous": false,
      "inputs": [
        {
          "indexed": false,
          "internalType": "enum Result",
          "name": "result",
          "type": "uint8"
        },
        {
          "indexed": false,
          "internalType": "bytes32[2]",
          "name": "claims",
          "type": "bytes32[2]"
        },
        {
          "indexed": false,
          "internalType": "address payable[2]",
          "name": "validators",
          "type": "address[2]"
        }
      ],
      "name": "ClaimReceived",
      "type": "event"
    },
    {
      "anonymous": false,
      "inputs": [
        {
          "indexed": false,
          "internalType": "enum Result",
          "name": "result",
          "type": "uint8"
        },
        {
          "indexed": false,
          "internalType": "bytes32[2]",
          "name": "claims",
          "type": "bytes32[2]"
        },
        {
          "indexed": false,
          "internalType": "address payable[2]",
          "name": "validators",
          "type": "address[2]"
        }
      ],
      "name": "DisputeEnded",
      "type": "event"
    },
    {
      "anonymous": false,
      "inputs": [
        {
          "indexed": false,
          "internalType": "bytes32",
          "name": "claim",
          "type": "bytes32"
        }
      ],
      "name": "NewEpoch",
      "type": "event"
    },
    {
      "inputs": [],
      "name": "getAgreementMask",
      "outputs": [
        {
          "internalType": "uint256",
          "name": "",
          "type": "uint256"
        }
      ],
      "stateMutability": "view",
      "type": "function"
    },
    {
      "inputs": [],
      "name": "getConsensusGoalMask",
      "outputs": [
        {
          "internalType": "uint256",
          "name": "",
          "type": "uint256"
        }
      ],
      "stateMutability": "view",
      "type": "function"
    },
    {
      "inputs": [],
      "name": "getCurrentClaim",
      "outputs": [
        {
          "internalType": "bytes32",
          "name": "",
          "type": "bytes32"
        }
      ],
      "stateMutability": "view",
      "type": "function"
    },
    {
      "inputs": [],
      "name": "getMaxNumValidators",
      "outputs": [
        {
          "internalType": "uint256",
          "name": "",
          "type": "uint256"
        }
      ],
      "stateMutability": "view",
      "type": "function"
    },
    {
      "inputs": [
        {
          "internalType": "address payable",
          "name": "_sender",
          "type": "address"
        }
      ],
      "name": "getNumberOfClaimsByAddress",
      "outputs": [
        {
          "internalType": "uint256",
          "name": "",
          "type": "uint256"
        }
      ],
      "stateMutability": "view",
      "type": "function"
    },
    {
      "inputs": [
        {
          "internalType": "uint256",
          "name": "_index",
          "type": "uint256"
        }
      ],
      "name": "getNumberOfClaimsByIndex",
      "outputs": [
        {
          "internalType": "uint256",
          "name": "",
          "type": "uint256"
        }
      ],
      "stateMutability": "view",
      "type": "function"
    },
    {
      "inputs": [
        {
          "internalType": "address",
          "name": "_sender",
          "type": "address"
        }
      ],
      "name": "getValidatorIndex",
      "outputs": [
        {
          "internalType": "uint256",
          "name": "",
          "type": "uint256"
        }
      ],
      "stateMutability": "view",
      "type": "function"
    }
  ],
  "transactionHash": "0x055147a11fe64ab66c022f37aafa8c11d2ae8ba5e743e0b9c918233d2ca73782",
  "args": [],
  "numDeployments": 2,
  "solcInputHash": "a2b3a8408e24625b8f869ed6c9ef20a3",
  "bytecode": "0x608060405234801561001057600080fd5b50610589806100206000396000f3fe608060405234801561001057600080fd5b506004361061007d5760003560e01c80638219fda41161005b5780638219fda4146100c2578063cc8a2451146100d7578063d2992f54146100ea578063f6023815146100f257600080fd5b8063101494ce146100825780631fcc449e1461009c57806355564a70146100af575b600080fd5b61008a6100fa565b60405190815260200160405180910390f35b61008a6100aa3660046104a7565b6101aa565b61008a6100bd3660046104a7565b6101cc565b6000805160206105348339815191525461008a565b61008a6100e53660046104c4565b6101e7565b61008a610202565b61008a61023c565b7f8ab37fef2b2e34c4b62ff9948ee661cdcf34e209d7c20f4d1f6e83085e93b1ff54604051623ea57d60ea1b815260048101919091526000906000805160206105348339815191529073dfE71bbad0ce232131dcc9e42e131ADD57ff39989063fa95f400906024015b602060405180830381865af4158015610180573d6000803e3d6000fd5b505050506040513d601f19601f820116820180604052508101906101a491906104dd565b91505090565b60006000805160206105348339815191526101c581846102aa565b9392505050565b60006000805160206105348339815191526101c58184610394565b60006000805160206105348339815191526101c58184610406565b7f8ab37fef2b2e34c4b62ff9948ee661cdcf34e209d7c20f4d1f6e83085e93b1fe54600090600080516020610534833981519152906101a4565b7f8ab37fef2b2e34c4b62ff9948ee661cdcf34e209d7c20f4d1f6e83085e93b1ff54604051636a02b7ff60e11b815260048101919091526000906000805160206105348339815191529073dfE71bbad0ce232131dcc9e42e131ADD57ff39989063d4056ffe90602401610163565b60006001600160a01b0382166102f35760405162461bcd60e51b815260206004820152600960248201526806164647265737320360bc1b60448201526064015b60405180910390fd5b60005b600184015481101561034f57836001018181548110610317576103176104f6565b6000918252602090912001546001600160a01b039081169084160361033d57905061038e565b806103478161050c565b9150506102f6565b5060405162461bcd60e51b81526020600482015260136024820152721d985b1a59185d1bdc881b9bdd08199bdd5b99606a1b60448201526064016102ea565b92915050565b6000805b60018401548110156103fc578360010181815481106103b9576103b96104f6565b6000918252602090912001546001600160a01b03908116908416036103ea576103e28482610406565b91505061038e565b806103f48161050c565b915050610398565b5060009392505050565b6003820154604051632a31763d60e21b815260009173dfE71bbad0ce232131dcc9e42e131ADD57ff39989163a8c5d8f49161044e918690600401918252602082015260400190565b602060405180830381865af415801561046b573d6000803e3d6000fd5b505050506040513d601f19601f820116820180604052508101906101c591906104dd565b6001600160a01b03811681146104a457600080fd5b50565b6000602082840312156104b957600080fd5b81356101c58161048f565b6000602082840312156104d657600080fd5b5035919050565b6000602082840312156104ef57600080fd5b5051919050565b634e487b7160e01b600052603260045260246000fd5b60006001820161052c57634e487b7160e01b600052601160045260246000fd5b506001019056fe8ab37fef2b2e34c4b62ff9948ee661cdcf34e209d7c20f4d1f6e83085e93b1fca26469706673582212200426aa1327b37778789d0d6bd333785119170f268c687c2ccf32475fc971bea064736f6c634300080d0033",
  "deployedBytecode": "0x608060405234801561001057600080fd5b506004361061007d5760003560e01c80638219fda41161005b5780638219fda4146100c2578063cc8a2451146100d7578063d2992f54146100ea578063f6023815146100f257600080fd5b8063101494ce146100825780631fcc449e1461009c57806355564a70146100af575b600080fd5b61008a6100fa565b60405190815260200160405180910390f35b61008a6100aa3660046104a7565b6101aa565b61008a6100bd3660046104a7565b6101cc565b6000805160206105348339815191525461008a565b61008a6100e53660046104c4565b6101e7565b61008a610202565b61008a61023c565b7f8ab37fef2b2e34c4b62ff9948ee661cdcf34e209d7c20f4d1f6e83085e93b1ff54604051623ea57d60ea1b815260048101919091526000906000805160206105348339815191529073__$cf2fb72623b6ba225c3cfc459aec70b905$__9063fa95f400906024015b602060405180830381865af4158015610180573d6000803e3d6000fd5b505050506040513d601f19601f820116820180604052508101906101a491906104dd565b91505090565b60006000805160206105348339815191526101c581846102aa565b9392505050565b60006000805160206105348339815191526101c58184610394565b60006000805160206105348339815191526101c58184610406565b7f8ab37fef2b2e34c4b62ff9948ee661cdcf34e209d7c20f4d1f6e83085e93b1fe54600090600080516020610534833981519152906101a4565b7f8ab37fef2b2e34c4b62ff9948ee661cdcf34e209d7c20f4d1f6e83085e93b1ff54604051636a02b7ff60e11b815260048101919091526000906000805160206105348339815191529073__$cf2fb72623b6ba225c3cfc459aec70b905$__9063d4056ffe90602401610163565b60006001600160a01b0382166102f35760405162461bcd60e51b815260206004820152600960248201526806164647265737320360bc1b60448201526064015b60405180910390fd5b60005b600184015481101561034f57836001018181548110610317576103176104f6565b6000918252602090912001546001600160a01b039081169084160361033d57905061038e565b806103478161050c565b9150506102f6565b5060405162461bcd60e51b81526020600482015260136024820152721d985b1a59185d1bdc881b9bdd08199bdd5b99606a1b60448201526064016102ea565b92915050565b6000805b60018401548110156103fc578360010181815481106103b9576103b96104f6565b6000918252602090912001546001600160a01b03908116908416036103ea576103e28482610406565b91505061038e565b806103f48161050c565b915050610398565b5060009392505050565b6003820154604051632a31763d60e21b815260009173__$cf2fb72623b6ba225c3cfc459aec70b905$__9163a8c5d8f49161044e918690600401918252602082015260400190565b602060405180830381865af415801561046b573d6000803e3d6000fd5b505050506040513d601f19601f820116820180604052508101906101c591906104dd565b6001600160a01b03811681146104a457600080fd5b50565b6000602082840312156104b957600080fd5b81356101c58161048f565b6000602082840312156104d657600080fd5b5035919050565b6000602082840312156104ef57600080fd5b5051919050565b634e487b7160e01b600052603260045260246000fd5b60006001820161052c57634e487b7160e01b600052601160045260246000fd5b506001019056fe8ab37fef2b2e34c4b62ff9948ee661cdcf34e209d7c20f4d1f6e83085e93b1fca26469706673582212200426aa1327b37778789d0d6bd333785119170f268c687c2ccf32475fc971bea064736f6c634300080d0033",
  "libraries": {
    "LibClaimsMask": "0xdfE71bbad0ce232131dcc9e42e131ADD57ff3998"
  },
  "devdoc": {
    "kind": "dev",
    "methods": {
      "getAgreementMask()": {
        "returns": {
          "_0": "current state of agreement mask"
        }
      },
      "getConsensusGoalMask()": {
        "returns": {
          "_0": "current consensus goal mask"
        }
      },
      "getCurrentClaim()": {
        "returns": {
          "_0": "current claim"
        }
      },
      "getMaxNumValidators()": {
        "returns": {
          "_0": "the maximum number of validators"
        }
      },
      "getNumberOfClaimsByAddress(address)": {
        "params": {
          "_sender": "validator address"
        },
        "returns": {
          "_0": "#claims"
        }
      },
      "getNumberOfClaimsByIndex(uint256)": {
        "params": {
          "_index": "the index in validator set"
        },
        "returns": {
          "_0": "#claims"
        }
      },
      "getValidatorIndex(address)": {
        "params": {
          "_sender": "validator address"
        },
        "returns": {
          "_0": "validator index or revert"
        }
      }
    },
    "version": 1
  },
  "userdoc": {
    "events": {
      "ClaimReceived(uint8,bytes32[2],address[2])": {
        "notice": "emitted on Claim received"
      },
      "DisputeEnded(uint8,bytes32[2],address[2])": {
        "notice": "emitted on Dispute end"
      },
      "NewEpoch(bytes32)": {
        "notice": "emitted on new Epoch"
      }
    },
    "kind": "user",
    "methods": {
      "getAgreementMask()": {
        "notice": "get agreement mask"
      },
      "getConsensusGoalMask()": {
        "notice": "get consensus goal mask"
      },
      "getCurrentClaim()": {
        "notice": "get current claim"
      },
      "getMaxNumValidators()": {
        "notice": "get the maximum number of validators defined in validator manager"
      },
      "getNumberOfClaimsByAddress(address)": {
        "notice": "get number of claims the sender has made"
      },
      "getNumberOfClaimsByIndex(uint256)": {
        "notice": "get number of claims by the index in the validator set"
      },
      "getValidatorIndex(address)": {
        "notice": "find the validator and return the index or revert"
      }
    },
    "version": 1
  },
  "storageLayout": {
    "storage": [],
    "types": null
  }
}