{
  "address": "0xE273B361c08D55f6F823140518d6640E3B496869",
  "abi": [
    {
      "inputs": [
        {
          "internalType": "contract IInputBox",
          "name": "_inputBox",
          "type": "address"
        }
      ],
      "stateMutability": "nonpayable",
      "type": "constructor"
    },
    {
      "inputs": [],
      "name": "getInputBox",
      "outputs": [
        {
          "internalType": "contract IInputBox",
          "name": "",
          "type": "address"
        }
      ],
      "stateMutability": "view",
      "type": "function"
    },
    {
      "inputs": [
        {
          "internalType": "address",
          "name": "_dapp",
          "type": "address"
        }
      ],
      "name": "relayDAppAddress",
      "outputs": [],
      "stateMutability": "nonpayable",
      "type": "function"
    }
  ],
  "transactionHash": "0x05f19ccf54aacfa779b8d1cd1a6811148ef59206903fbba5cf0ab1931dc0e4db",
  "args": [
    "0xAccC223E89A37e2cA71Eb0cEf04C990a678c7f04"
  ],
  "numDeployments": 1,
  "solcInputHash": "af212e0e8f765400ccc29518052524f5",
  "bytecode": "0x60a060405234801561001057600080fd5b506040516102c33803806102c383398101604081905261002f91610040565b6001600160a01b0316608052610070565b60006020828403121561005257600080fd5b81516001600160a01b038116811461006957600080fd5b9392505050565b60805161023361009060003960008181603c015260c801526102336000f3fe608060405234801561001057600080fd5b50600436106100355760003560e01c8062aace9a1461003a5780633016f49e14610077575b600080fd5b7f00000000000000000000000000000000000000000000000000000000000000006040516001600160a01b03909116815260200160405180910390f35b61008a61008536600461014f565b61008c565b005b60408051606083901b6bffffffffffffffffffffffff19166020820152815180820360140181526034820192839052631789cd6360e01b9092527f00000000000000000000000000000000000000000000000000000000000000006001600160a01b031690631789cd6390610107908590859060380161017f565b6020604051808303816000875af1158015610126573d6000803e3d6000fd5b505050506040513d601f19601f8201168201806040525081019061014a91906101e4565b505050565b60006020828403121561016157600080fd5b81356001600160a01b038116811461017857600080fd5b9392505050565b60018060a01b038316815260006020604081840152835180604085015260005b818110156101bb5785810183015185820160600152820161019f565b818111156101cd576000606083870101525b50601f01601f191692909201606001949350505050565b6000602082840312156101f657600080fd5b505191905056fea2646970667358221220cc216c2a129c63b79f93c469ebf35a6a9d999f6b556f6f296f802aed27d9324d64736f6c634300080d0033",
  "devdoc": {
    "kind": "dev",
    "methods": {
      "getInputBox()": {
        "returns": {
          "_0": "the input box"
        }
      },
      "relayDAppAddress(address)": {
        "params": {
          "_dapp": "the DApp's address"
        }
      }
    },
    "version": 1
  },
  "userdoc": {
    "kind": "user",
    "methods": {
      "getInputBox()": {
        "notice": "Get the input box used by this relay"
      },
      "relayDAppAddress(address)": {
        "notice": "Add an input to a DApp's input box with its address"
      }
    },
    "version": 1
  },
  "storageLayout": {
    "storage": [],
    "types": null
  }
}