{
  "address": "0x8Bbc0e6daB541DF0A9f0bDdA5D41B3B08B081d55",
  "abi": [
    {
      "inputs": [
        {
          "internalType": "contract IInputBox",
          "name": "_inputBox",
          "type": "address"
        }
      ],
      "stateMutability": "nonpayable",
      "type": "constructor"
    },
    {
      "inputs": [],
      "name": "getInputBox",
      "outputs": [
        {
          "internalType": "contract IInputBox",
          "name": "",
          "type": "address"
        }
      ],
      "stateMutability": "view",
      "type": "function"
    },
    {
      "inputs": [
        {
          "internalType": "address",
          "name": "_dapp",
          "type": "address"
        }
      ],
      "name": "relayDAppAddress",
      "outputs": [],
      "stateMutability": "nonpayable",
      "type": "function"
    }
  ],
  "transactionHash": "0x7b04cad1f8e1c6d84e8bea7a1c4838a647339bfaba591584fd5045ce8360f8d7",
  "args": [
    "0x5a723220579C0DCb8C9253E6b4c62e572E379945"
  ],
  "numDeployments": 3,
  "solcInputHash": "ccf852a6f03ad282136085842817ac99",
  "bytecode": "0x60a060405234801561001057600080fd5b506040516102bc3803806102bc83398101604081905261002f91610040565b6001600160a01b0316608052610070565b60006020828403121561005257600080fd5b81516001600160a01b038116811461006957600080fd5b9392505050565b60805161022c61009060003960008181603c015260c8015261022c6000f3fe608060405234801561001057600080fd5b50600436106100355760003560e01c8062aace9a1461003a5780633016f49e14610077575b600080fd5b7f00000000000000000000000000000000000000000000000000000000000000006040516001600160a01b03909116815260200160405180910390f35b61008a61008536600461014f565b61008c565b005b60408051606083901b6bffffffffffffffffffffffff19166020820152815180820360140181526034820192839052631789cd6360e01b9092527f00000000000000000000000000000000000000000000000000000000000000006001600160a01b031690631789cd6390610107908590859060380161017f565b6020604051808303816000875af1158015610126573d6000803e3d6000fd5b505050506040513d601f19601f8201168201806040525081019061014a91906101dd565b505050565b60006020828403121561016157600080fd5b81356001600160a01b038116811461017857600080fd5b9392505050565b60018060a01b038316815260006020604081840152835180604085015260005b818110156101bb5785810183015185820160600152820161019f565b506000606082860101526060601f19601f830116850101925050509392505050565b6000602082840312156101ef57600080fd5b505191905056fea2646970667358221220116a276422bbafa94b50fec58f993e99de2767671d4a5ca3b41746daf04850b064736f6c63430008130033",
  "devdoc": {
    "kind": "dev",
    "methods": {
      "constructor": {
        "params": {
          "_inputBox": "The input box used by the relay"
        }
      },
      "getInputBox()": {
        "returns": {
          "_0": "The input box"
        }
      },
      "relayDAppAddress(address)": {
        "params": {
          "_dapp": "The address of the DApp"
        }
      }
    },
    "title": "DApp Address Relay",
    "version": 1
  },
  "userdoc": {
    "kind": "user",
    "methods": {
      "constructor": {
        "notice": "Constructs the relay."
      },
      "getInputBox()": {
        "notice": "Get the input box used by this relay."
      },
      "relayDAppAddress(address)": {
        "notice": "Add an input to a DApp's input box with its address."
      }
    },
    "notice": "This contract allows anyone to inform the off-chain machine of the address of the DApp contract in a trustless and permissionless way.",
    "version": 1
  },
  "storageLayout": {
    "storage": [],
    "types": null
  }
}