{
  "address": "0x9C21AEb2093C32DDbC53eEF24B873BDCd1aDa1DB",
  "abi": [
    {
      "inputs": [
        {
          "internalType": "contract IInputBox",
          "name": "_inputBox",
          "type": "address"
        }
      ],
      "stateMutability": "nonpayable",
      "type": "constructor"
    },
    {
      "inputs": [
        {
          "internalType": "contract IERC20",
          "name": "_token",
          "type": "address"
        },
        {
          "internalType": "address",
          "name": "_dapp",
          "type": "address"
        },
        {
          "internalType": "uint256",
          "name": "_amount",
          "type": "uint256"
        },
        {
          "internalType": "bytes",
          "name": "_execLayerData",
          "type": "bytes"
        }
      ],
      "name": "depositERC20Tokens",
      "outputs": [],
      "stateMutability": "nonpayable",
      "type": "function"
    },
    {
      "inputs": [],
      "name": "getInputBox",
      "outputs": [
        {
          "internalType": "contract IInputBox",
          "name": "",
          "type": "address"
        }
      ],
      "stateMutability": "view",
      "type": "function"
    }
  ],
  "transactionHash": "0x6f4d0122519a715ce7d996c86f9e0a164b46de1d9437932a2624816437110aee",
  "args": [
    "0x59b22D57D4f067708AB0c00552767405926dc768"
  ],
  "numDeployments": 7,
  "solcInputHash": "d2696284402b6703b2d41170c93ef3b7",
  "bytecode": "0x60a060405234801561001057600080fd5b5060405161045f38038061045f83398101604081905261002f91610040565b6001600160a01b0316608052610070565b60006020828403121561005257600080fd5b81516001600160a01b038116811461006957600080fd5b9392505050565b6080516103ce61009160003960008181603c015261013501526103ce6000f3fe608060405234801561001057600080fd5b50600436106100355760003560e01c8062aace9a1461003a57806395854b8114610077575b600080fd5b7f00000000000000000000000000000000000000000000000000000000000000006040516001600160a01b03909116815260200160405180910390f35b61008a610085366004610209565b61008c565b005b6040516323b872dd60e01b81523360048201526001600160a01b03858116602483015260448201859052600091908716906323b872dd906064016020604051808303816000875af11580156100e5573d6000803e3d6000fd5b505050506040513d601f19601f8201168201806040525081019061010991906102a8565b9050600061011b8288338888886101b9565b604051631789cd6360e01b81529091506001600160a01b037f00000000000000000000000000000000000000000000000000000000000000001690631789cd639061016c90899085906004016102d1565b6020604051808303816000875af115801561018b573d6000803e3d6000fd5b505050506040513d601f19601f820116820180604052508101906101af919061032f565b5050505050505050565b60608686868686866040516020016101d696959493929190610348565b60405160208183030381529060405290509695505050505050565b6001600160a01b038116811461020657600080fd5b50565b60008060008060006080868803121561022157600080fd5b853561022c816101f1565b9450602086013561023c816101f1565b935060408601359250606086013567ffffffffffffffff8082111561026057600080fd5b818801915088601f83011261027457600080fd5b81358181111561028357600080fd5b89602082850101111561029557600080fd5b9699959850939650602001949392505050565b6000602082840312156102ba57600080fd5b815180151581146102ca57600080fd5b9392505050565b60018060a01b038316815260006020604081840152835180604085015260005b8181101561030d578581018301518582016060015282016102f1565b506000606082860101526060601f19601f830116850101925050509392505050565b60006020828403121561034157600080fd5b5051919050565b86151560f81b815260006bffffffffffffffffffffffff19808860601b166001840152808760601b166015840152508460298301528284604984013750600091016049019081529594505050505056fea26469706673582212205635c4a24e9e9f5e128a69b633d53f24838d8833b76e4fca1f3bf3b490e380c664736f6c63430008130033",
  "devdoc": {
    "kind": "dev",
    "methods": {
      "constructor": {
        "params": {
          "_inputBox": "The input box used by the portal"
        }
      },
      "depositERC20Tokens(address,address,uint256,bytes)": {
        "params": {
          "_amount": "The amount of tokens to be transferred",
          "_dapp": "The address of the DApp",
          "_execLayerData": "Additional data to be interpreted by the execution layer",
          "_token": "The ERC-20 token contract"
        }
      },
      "getInputBox()": {
        "returns": {
          "_0": "The input box"
        }
      }
    },
    "title": "ERC-20 Portal",
    "version": 1
  },
  "userdoc": {
    "kind": "user",
    "methods": {
      "constructor": {
        "notice": "Constructs the portal."
      },
      "depositERC20Tokens(address,address,uint256,bytes)": {
        "notice": "Transfer ERC-20 tokens to a DApp and add an input to the DApp's input box to signal such operation. The caller must allow the portal to withdraw at least `_amount` tokens from their account beforehand, by calling the `approve` function in the token contract."
      },
      "getInputBox()": {
        "notice": "Get the input box used by this input relay."
      }
    },
    "notice": "This contract allows anyone to perform transfers of ERC-20 tokens to a DApp while informing the off-chain machine.",
    "version": 1
  },
  "storageLayout": {
    "storage": [],
    "types": null
  }
}