{
  "address": "0xA89A3216F46F66486C9B794C1e28d3c44D59591e",
  "abi": [
    {
      "inputs": [
        {
          "internalType": "contract IInputBox",
          "name": "_inputBox",
          "type": "address"
        }
      ],
      "stateMutability": "nonpayable",
      "type": "constructor"
    },
    {
      "inputs": [
        {
          "internalType": "address",
          "name": "_dapp",
          "type": "address"
        },
        {
          "internalType": "bytes",
          "name": "_execLayerData",
          "type": "bytes"
        }
      ],
      "name": "depositEther",
      "outputs": [],
      "stateMutability": "payable",
      "type": "function"
    },
    {
      "inputs": [],
      "name": "getInputBox",
      "outputs": [
        {
          "internalType": "contract IInputBox",
          "name": "",
          "type": "address"
        }
      ],
      "stateMutability": "view",
      "type": "function"
    }
  ],
  "transactionHash": "0x1dd0e38ff0a30ac3a7414e27ec08ad92fbe8d2c470afaf6ed5e9c515dc9b3182",
  "args": [
    "0x5a723220579C0DCb8C9253E6b4c62e572E379945"
  ],
  "numDeployments": 6,
  "solcInputHash": "ccf852a6f03ad282136085842817ac99",
  "bytecode": "0x60a060405234801561001057600080fd5b5060405161041138038061041183398101604081905261002f91610040565b6001600160a01b0316608052610070565b60006020828403121561005257600080fd5b81516001600160a01b038116811461006957600080fd5b9392505050565b60805161038061009160003960008181603c015261015b01526103806000f3fe6080604052600436106100285760003560e01c8062aace9a1461002d578063938c054f14610077575b600080fd5b34801561003957600080fd5b507f00000000000000000000000000000000000000000000000000000000000000006040516001600160a01b03909116815260200160405180910390f35b61008a61008536600461020f565b61008c565b005b6000836001600160a01b03163460405160006040518083038185875af1925050503d80600081146100d9576040519150601f19603f3d011682016040523d82523d6000602084013e6100de565b606091505b50509050806101335760405162461bcd60e51b815260206004820152601c60248201527f4574686572506f7274616c3a207472616e73666572206661696c656400000000604482015260640160405180910390fd5b6000610141333486866101dd565b604051631789cd6360e01b81529091506001600160a01b037f00000000000000000000000000000000000000000000000000000000000000001690631789cd639061019290889085906004016102a0565b6020604051808303816000875af11580156101b1573d6000803e3d6000fd5b505050506040513d601f19601f820116820180604052508101906101d591906102fe565b505050505050565b6060848484846040516020016101f69493929190610317565b6040516020818303038152906040529050949350505050565b60008060006040848603121561022457600080fd5b83356001600160a01b038116811461023b57600080fd5b9250602084013567ffffffffffffffff8082111561025857600080fd5b818601915086601f83011261026c57600080fd5b81358181111561027b57600080fd5b87602082850101111561028d57600080fd5b6020830194508093505050509250925092565b60018060a01b038316815260006020604081840152835180604085015260005b818110156102dc578581018301518582016060015282016102c0565b506000606082860101526060601f19601f830116850101925050509392505050565b60006020828403121561031057600080fd5b5051919050565b6bffffffffffffffffffffffff198560601b1681528360148201528183603483013760009101603401908152939250505056fea26469706673582212201a9c3b3cc643135d14abad471214d58107b280f6f9d4a4dc5c17f9f566bc42e964736f6c63430008130033",
  "devdoc": {
    "kind": "dev",
    "methods": {
      "constructor": {
        "params": {
          "_inputBox": "The input box used by the portal"
        }
      },
      "depositEther(address,bytes)": {
        "params": {
          "_dapp": "The address of the DApp",
          "_execLayerData": "Additional data to be interpreted by the execution layer"
        }
      },
      "getInputBox()": {
        "returns": {
          "_0": "The input box"
        }
      }
    },
    "title": "Ether Portal",
    "version": 1
  },
  "userdoc": {
    "kind": "user",
    "methods": {
      "constructor": {
        "notice": "Constructs the portal."
      },
      "depositEther(address,bytes)": {
        "notice": "Transfer Ether to a DApp and add an input to the DApp's input box to signal such operation. All the value sent through this function is forwarded to the DApp."
      },
      "getInputBox()": {
        "notice": "Get the input box used by this portal."
      }
    },
    "notice": "This contract allows anyone to perform transfers of Ether to a DApp while informing the off-chain machine.",
    "version": 1
  },
  "storageLayout": {
    "storage": [],
    "types": null
  }
}