{
  "contractName": "CartesiDAppFactory",
  "sourceName": "contracts/CartesiDAppFactory.sol",
  "abi": [
    {
      "inputs": [
        {
          "components": [
            {
              "internalType": "contract IDiamondCut",
              "name": "diamondCutFacet",
              "type": "address"
            },
            {
              "internalType": "contract DiamondInit",
              "name": "diamondInit",
              "type": "address"
            },
            {
              "internalType": "contract IBank",
              "name": "feeManagerBank",
              "type": "address"
            },
            {
              "components": [
                {
                  "internalType": "address",
                  "name": "facetAddress",
                  "type": "address"
                },
                {
                  "internalType": "enum IDiamondCut.FacetCutAction",
                  "name": "action",
                  "type": "uint8"
                },
                {
                  "internalType": "bytes4[]",
                  "name": "functionSelectors",
                  "type": "bytes4[]"
                }
              ],
              "internalType": "struct IDiamondCut.FacetCut[]",
              "name": "diamondCut",
              "type": "tuple[]"
            }
          ],
          "internalType": "struct CartesiDAppFactory.FactoryConfig",
          "name": "_fConfig",
          "type": "tuple"
        }
      ],
      "stateMutability": "nonpayable",
      "type": "constructor"
    },
    {
      "anonymous": false,
      "inputs": [
        {
          "indexed": true,
          "internalType": "contract CartesiDApp",
          "name": "application",
          "type": "address"
        },
        {
          "components": [
            {
              "internalType": "address",
              "name": "diamondOwner",
              "type": "address"
            },
            {
              "internalType": "bytes32",
              "name": "templateHash",
              "type": "bytes32"
            },
            {
              "internalType": "uint256",
              "name": "inputDuration",
              "type": "uint256"
            },
            {
              "internalType": "uint256",
              "name": "challengePeriod",
              "type": "uint256"
            },
            {
              "internalType": "uint256",
              "name": "inputLog2Size",
              "type": "uint256"
            },
            {
              "internalType": "uint256",
              "name": "feePerClaim",
              "type": "uint256"
            },
            {
              "internalType": "address",
              "name": "feeManagerOwner",
              "type": "address"
            },
            {
              "internalType": "address payable[]",
              "name": "validators",
              "type": "address[]"
            }
          ],
          "indexed": false,
          "internalType": "struct ICartesiDAppFactory.AppConfig",
          "name": "config",
          "type": "tuple"
        }
      ],
      "name": "ApplicationCreated",
      "type": "event"
    },
    {
      "inputs": [
        {
          "internalType": "uint256",
          "name": "",
          "type": "uint256"
        }
      ],
      "name": "diamondCut",
      "outputs": [
        {
          "internalType": "address",
          "name": "facetAddress",
          "type": "address"
        },
        {
          "internalType": "enum IDiamondCut.FacetCutAction",
          "name": "action",
          "type": "uint8"
        }
      ],
      "stateMutability": "view",
      "type": "function"
    },
    {
      "inputs": [],
      "name": "diamondCutFacet",
      "outputs": [
        {
          "internalType": "contract IDiamondCut",
          "name": "",
          "type": "address"
        }
      ],
      "stateMutability": "view",
      "type": "function"
    },
    {
      "inputs": [],
      "name": "diamondInit",
      "outputs": [
        {
          "internalType": "contract DiamondInit",
          "name": "",
          "type": "address"
        }
      ],
      "stateMutability": "view",
      "type": "function"
    },
    {
      "inputs": [],
      "name": "feeManagerBank",
      "outputs": [
        {
          "internalType": "contract IBank",
          "name": "",
          "type": "address"
        }
      ],
      "stateMutability": "view",
      "type": "function"
    },
    {
      "inputs": [
        {
          "components": [
            {
              "internalType": "address",
              "name": "diamondOwner",
              "type": "address"
            },
            {
              "internalType": "bytes32",
              "name": "templateHash",
              "type": "bytes32"
            },
            {
              "internalType": "uint256",
              "name": "inputDuration",
              "type": "uint256"
            },
            {
              "internalType": "uint256",
              "name": "challengePeriod",
              "type": "uint256"
            },
            {
              "internalType": "uint256",
              "name": "inputLog2Size",
              "type": "uint256"
            },
            {
              "internalType": "uint256",
              "name": "feePerClaim",
              "type": "uint256"
            },
            {
              "internalType": "address",
              "name": "feeManagerOwner",
              "type": "address"
            },
            {
              "internalType": "address payable[]",
              "name": "validators",
              "type": "address[]"
            }
          ],
          "internalType": "struct ICartesiDAppFactory.AppConfig",
          "name": "_appConfig",
          "type": "tuple"
        }
      ],
      "name": "newApplication",
      "outputs": [
        {
          "internalType": "contract CartesiDApp",
          "name": "",
          "type": "address"
        }
      ],
      "stateMutability": "nonpayable",
      "type": "function"
    }
  ],
  "bytecode": "0x60e06040523480156200001157600080fd5b5060405162003159380380620031598339810160408190526200003491620002d9565b80516001600160a01b039081166080526020820151811660a05260408201511660c05260005b8160600151518110156200012f57600082606001518281518110620000835762000083620004e0565b60209081029190910181015182546001810184556000938452928290208151600294850290910180546001600160a01b039092166001600160a01b0319831681178255938301519294909384926001600160a81b0319161790600160a01b908490811115620000f657620000f6620004f6565b0217905550604082015180516200011891600184019160209091019062000137565b5050508062000127906200050c565b90506200005a565b505062000534565b82805482825590600052602060002090600701600890048101928215620001d85791602002820160005b83821115620001a457835183826101000a81548163ffffffff021916908360e01c0217905550926020019260040160208160030104928301926001030262000161565b8015620001d65782816101000a81549063ffffffff0219169055600401602081600301049283019260010302620001a4565b505b50620001e6929150620001ea565b5090565b5b80821115620001e65760008155600101620001eb565b634e487b7160e01b600052604160045260246000fd5b604051608081016001600160401b03811182821017156200023c576200023c62000201565b60405290565b604051606081016001600160401b03811182821017156200023c576200023c62000201565b604051601f8201601f191681016001600160401b038111828210171562000292576200029262000201565b604052919050565b6001600160a01b0381168114620002b057600080fd5b50565b60006001600160401b03821115620002cf57620002cf62000201565b5060051b60200190565b60006020808385031215620002ed57600080fd5b82516001600160401b03808211156200030557600080fd5b90840190608082870312156200031a57600080fd5b6200032462000217565b825162000331816200029a565b81528284015162000342816200029a565b81850152604083015162000356816200029a565b60408201526060830151828111156200036e57600080fd5b80840193505086601f8401126200038457600080fd5b82516200039b6200039582620002b3565b62000267565b81815260059190911b84018501908581019089831115620003bb57600080fd5b8686015b83811015620004cd57805186811115620003d857600080fd5b87016060818d03601f19011215620003ef57600080fd5b620003f962000242565b8982015162000408816200029a565b81526040820151600381106200041d57600080fd5b818b01526060820151888111156200043457600080fd5b8083019250508c603f8301126200044a57600080fd5b898201516200045d6200039582620002b3565b81815260059190911b8301604001908b8101908f8311156200047e57600080fd5b6040850194505b82851015620004b75784516001600160e01b031981168114620004a757600080fd5b8252938c0193908c019062000485565b60408401525050845250918701918701620003bf565b5060608401525090979650505050505050565b634e487b7160e01b600052603260045260246000fd5b634e487b7160e01b600052602160045260246000fd5b6000600182016200052d57634e487b7160e01b600052601160045260246000fd5b5060010190565b60805160a05160c051612be2620005776000396000818160f1015261022201526000818161011901526102ce01526000818160c9015261017c0152612be26000f3fe60806040523480156200001157600080fd5b50600436106200005e5760003560e01c806304c01cc7146200006357806394a28f321462000093578063a051e9b314620000c3578063aa9a6e9114620000eb578063e6ee1d4f1462000113575b600080fd5b6200007a6200007436600462000456565b6200013b565b6040516200008a92919062000493565b60405180910390f35b620000aa620000a4366004620004b9565b62000176565b6040516001600160a01b0390911681526020016200008a565b620000aa7f000000000000000000000000000000000000000000000000000000000000000081565b620000aa7f000000000000000000000000000000000000000000000000000000000000000081565b620000aa7f000000000000000000000000000000000000000000000000000000000000000081565b600081815481106200014c57600080fd5b60009182526020909120600290910201546001600160a01b0381169150600160a01b900460ff1682565b600080307f0000000000000000000000000000000000000000000000000000000000000000604051620001a99062000448565b6001600160a01b03928316815291166020820152604001604051809103906000f080158015620001dd573d6000803e3d6000fd5b5090506000604051806101000160405280856020013581526020018560400135815260200185606001358152602001856080013581526020018560a0013581526020017f00000000000000000000000000000000000000000000000000000000000000006001600160a01b031681526020018560c001602081019062000264919062000523565b6001600160a01b031681526020016200028160e087018762000543565b8080602002602001604051908101604052809392919081815260200183836020028082843760009201829052509390945250506040519293506001600160a01b03851692631f931c1c92507f00000000000000000000000000000000000000000000000000000000000000009063af52770160e01b9062000307908790602401620005dd565b60408051601f198184030181529181526020820180516001600160e01b03166001600160e01b03199485161790525160e086901b909216825262000350939291600401620006b8565b600060405180830381600087803b1580156200036b57600080fd5b505af115801562000380573d6000803e3d6000fd5b5050506001600160a01b038316905063f2fde38b620003a3602087018762000523565b6040516001600160e01b031960e084901b1681526001600160a01b039091166004820152602401600060405180830381600087803b158015620003e557600080fd5b505af1158015620003fa573d6000803e3d6000fd5b50505050816001600160a01b03167f43883daeb0f23afe0fbb9658d1d4c08379520e9654a30f7ea3a9fb3a8f5195bb8560405162000439919062000a2b565b60405180910390a25092915050565b6120df8062000ace83390190565b6000602082840312156200046957600080fd5b5035919050565b600381106200048f57634e487b7160e01b600052602160045260246000fd5b9052565b6001600160a01b038316815260408101620004b2602083018462000470565b9392505050565b600060208284031215620004cc57600080fd5b813567ffffffffffffffff811115620004e457600080fd5b82016101008185031215620004b257600080fd5b6001600160a01b03811681146200050e57600080fd5b50565b80356200051e81620004f8565b919050565b6000602082840312156200053657600080fd5b8135620004b281620004f8565b6000808335601e198436030181126200055b57600080fd5b83018035915067ffffffffffffffff8211156200057757600080fd5b6020019150600581901b36038213156200059057600080fd5b9250929050565b600081518084526020808501945080840160005b83811015620005d25781516001600160a01b031687529582019590820190600101620005ab565b509495945050505050565b6020815281516020820152602082015160408201526040820151606082015260608201516080820152608082015160a0820152600060a083015160018060a01b0380821660c08501528060c08601511660e0850152505060e08301516101008081850152506200065261012084018262000597565b949350505050565b6001600160e01b0319169052565b6000815180845260005b81811015620006905760208185018101518683018201520162000672565b81811115620006a3576000602083870101525b50601f01601f19169290920160200192915050565b60608152600060608201855480825260808401915060808160051b8501018760005260208060002060005b848110156200096d57878403607f1901865281546001600160a01b038116855260608501906200071d85870160a083901c60ff1662000470565b506060604086015260018381018054808452600091825260208083209401905b80600784011015620008055784546200075a838260e01b6200065a565b6001600160e01b031962000777848b0160c084901b83166200065a565b6200078b60408501828460a01b166200065a565b6200079f60608501828460801b166200065a565b620007b360808501828460601b166200065a565b620007c760a08501828460401b166200065a565b620007da60c0850182848d1b166200065a565b620007eb60e085018284166200065a565b50506101008201915083850194506008830192506200073d565b93549380831015620008295762000820828660e01b6200065a565b91830191908701905b8083101562000855576200084c8260c087901b6001600160e01b0319166200065a565b91830191908701905b808310156200088157620008788260a087901b6001600160e01b0319166200065a565b91830191908701905b80831015620008ad57620008a482608087901b6001600160e01b0319166200065a565b91830191908701905b80831015620008d957620008d082606087901b6001600160e01b0319166200065a565b91830191908701905b808310156200090557620008fc82604087901b6001600160e01b0319166200065a565b91830191908701905b808310156200092f576200092682868a1b6001600160e01b0319166200065a565b91830191908701905b8083101562000953576200094e826001600160e01b031987166200065a565b908701905b5098860198965050506002929092019150600101620006e3565b50506001600160a01b03881690860152848103604086015262000991818762000668565b98975050505050505050565b6000808335601e19843603018112620009b557600080fd5b830160208101925035905067ffffffffffffffff811115620009d657600080fd5b8060051b36038313156200059057600080fd5b8183526000602080850194508260005b85811015620005d257813562000a0f81620004f8565b6001600160a01b031687529582019590820190600101620009f9565b602081526000823562000a3e81620004f8565b60018060a01b038116602084015250602083013560408301526040830135606083015260608301356080830152608083013560a083015260a083013560c083015262000a8d60c0840162000511565b6001600160a01b03811660e08401525062000aac60e08401846200099d565b6101008481015262000ac461012085018284620009e9565b9594505050505056fe6080604052604051620020df380380620020df833981016040819052620000269162000ddc565b6200003c826200015660201b620000b01760201c565b604080516001808252818301909252600091816020015b60408051606080820183526000808352602083015291810191909152815260200190600190039081620000535750506040805160018082528183019092529192506000919060208083019080368337019050509050631f931c1c60e01b81600081518110620000c657620000c662000e14565b6001600160e01b031990921660209283029190910182015260408051606081019091526001600160a01b038516815290810160008152602001828152508260008151811062000119576200011962000e14565b60200260200101819052506200014c82600060405180602001604052806000815250620001da60201b620001331760201c565b5050505062001067565b7fc8fcad8db84d3cc18b4c41d551ea0ee66dd599cde068d998e57d5e09332c132080546001600160a01b031981166001600160a01b038481169182179093556040516000805160206200204b833981519152939092169182907f8be0079c531659141344cd1fd0a4f28419497f9722a3daafe3b4186f6b6457e090600090a3505050565b7fc8fcad8db84d3cc18b4c41d551ea0ee66dd599cde068d998e57d5e09332c131e546000805160206200204b8339815191529061ffff811690819060009060071615620002395750600381901c60009081526001840160205260409020545b60005b8751811015620002d557620002bb83838a848151811062000261576200026162000e14565b6020026020010151600001518b858151811062000282576200028262000e14565b6020026020010151602001518c8681518110620002a357620002a362000e14565b6020026020010151604001516200036760201b60201c565b909350915080620002cc8162000e56565b9150506200023c565b50828214620002f25760028401805461ffff191661ffff84161790555b60078216156200031557600382901c600090815260018501602052604090208190555b7f8faa70878671ccd212d20771b795c50af8fd3ff6cf27f4bde57e5d4de0aeb6738787876040516200034a9392919062000ecf565b60405180910390a16200035e868662000b76565b50505050505050565b600080806000805160206200204b83398151915290506000845111620003e85760405162461bcd60e51b815260206004820152602b60248201527f4c69624469616d6f6e644375743a204e6f2073656c6563746f727320696e206660448201526a1858d95d081d1bc818dd5d60aa1b60648201526084015b60405180910390fd5b6000856002811115620003ff57620003ff62000e2a565b0362000585576200042a866040518060600160405280602481526020016200206b6024913962000d9b565b60005b84518110156200057e5760008582815181106200044e576200044e62000e14565b6020908102919091018101516001600160e01b03198116600090815291859052604090912054909150606081901c15620004f15760405162461bcd60e51b815260206004820152603560248201527f4c69624469616d6f6e644375743a2043616e2774206164642066756e6374696f60448201527f6e207468617420616c72656164792065786973747300000000000000000000006064820152608401620003df565b6001600160e01b031980831660008181526020879052604090206001600160601b031960608d901b168e17905560e060058e901b811692831c199c909c1690821c179a819003620005565760038c901c600090815260018601602052604081209b909b555b8b620005628162000e56565b9c50505050508080620005759062000e56565b9150506200042d565b5062000b6a565b60018560028111156200059c576200059c62000e2a565b03620007b557620005c786604051806060016040528060288152602001620020b76028913962000d9b565b60005b84518110156200057e576000858281518110620005eb57620005eb62000e14565b6020908102919091018101516001600160e01b03198116600090815291859052604090912054909150606081901c308103620006825760405162461bcd60e51b815260206004820152602f60248201527f4c69624469616d6f6e644375743a2043616e2774207265706c61636520696d6d60448201526e3aba30b1363290333ab731ba34b7b760891b6064820152608401620003df565b896001600160a01b0316816001600160a01b031603620006fa5760405162461bcd60e51b815260206004820152603860248201526000805160206200202b83398151915260448201527f6374696f6e20776974682073616d652066756e6374696f6e00000000000000006064820152608401620003df565b6001600160a01b038116620007675760405162461bcd60e51b815260206004820152603860248201526000805160206200202b83398151915260448201527f6374696f6e207468617420646f65736e277420657869737400000000000000006064820152608401620003df565b506001600160e01b031990911660009081526020849052604090206001600160601b03919091166001600160601b031960608a901b1617905580620007ac8162000e56565b915050620005ca565b6002856002811115620007cc57620007cc62000e2a565b0362000b11576001600160a01b03861615620008515760405162461bcd60e51b815260206004820152603660248201527f4c69624469616d6f6e644375743a2052656d6f7665206661636574206164647260448201527f657373206d7573742062652061646472657373283029000000000000000000006064820152608401620003df565b600388901c6007891660005b865181101562000aec5760008a90036200089e57826200087d8162000fd6565b60008181526001870160205260409020549b50935060079250620008ae9050565b81620008aa8162000fd6565b9250505b6000806000808a8581518110620008c957620008c962000e14565b6020908102919091018101516001600160e01b031981166000908152918a9052604090912054909150606081901c6200096b5760405162461bcd60e51b815260206004820152603760248201527f4c69624469616d6f6e644375743a2043616e27742072656d6f76652066756e6360448201527f74696f6e207468617420646f65736e27742065786973740000000000000000006064820152608401620003df565b30606082901c03620009d75760405162461bcd60e51b815260206004820152602e60248201527f4c69624469616d6f6e644375743a2043616e27742072656d6f766520696d6d7560448201526d3a30b1363290333ab731ba34b7b760911b6064820152608401620003df565b600587901b8f901b94506001600160e01b03198086169083161462000a29576001600160e01b03198516600090815260208a90526040902080546001600160601b0319166001600160601b0383161790555b6001600160e01b031991909116600090815260208990526040812055600381901c611fff16925060051b60e016905085821462000a90576000828152600188016020526040902080546001600160e01b031980841c19909116908516831c17905562000ab4565b80836001600160e01b031916901c816001600160e01b031960001b901c198e16179c505b8460000362000ad357600086815260018801602052604081208190559c505b505050808062000ae39062000e56565b9150506200085d565b508062000afb83600862000ff0565b62000b07919062001012565b9950505062000b6a565b60405162461bcd60e51b815260206004820152602760248201527f4c69624469616d6f6e644375743a20496e636f727265637420466163657443756044820152663a20b1ba34b7b760c91b6064820152608401620003df565b50959694955050505050565b6001600160a01b03821662000c005780511562000bfc5760405162461bcd60e51b815260206004820152603c60248201527f4c69624469616d6f6e644375743a205f696e697420697320616464726573732860448201527f3029206275745f63616c6c64617461206973206e6f7420656d707479000000006064820152608401620003df565b5050565b600081511162000c795760405162461bcd60e51b815260206004820152603d60248201527f4c69624469616d6f6e644375743a205f63616c6c6461746120697320656d707460448201527f7920627574205f696e6974206973206e6f7420616464726573732830290000006064820152608401620003df565b6001600160a01b038216301462000caf5762000caf826040518060600160405280602881526020016200208f6028913962000d9b565b600080836001600160a01b03168360405162000ccc91906200102d565b600060405180830381855af49150503d806000811462000d09576040519150601f19603f3d011682016040523d82523d6000602084013e62000d0e565b606091505b50915091508162000d955780511562000d3d578060405162461bcd60e51b8152600401620003df91906200104b565b60405162461bcd60e51b815260206004820152602660248201527f4c69624469616d6f6e644375743a205f696e69742066756e6374696f6e2072656044820152651d995c9d195960d21b6064820152608401620003df565b50505050565b813b818162000d955760405162461bcd60e51b8152600401620003df91906200104b565b80516001600160a01b038116811462000dd757600080fd5b919050565b6000806040838503121562000df057600080fd5b62000dfb8362000dbf565b915062000e0b6020840162000dbf565b90509250929050565b634e487b7160e01b600052603260045260246000fd5b634e487b7160e01b600052602160045260246000fd5b634e487b7160e01b600052601160045260246000fd5b60006001820162000e6b5762000e6b62000e40565b5060010190565b60005b8381101562000e8f57818101518382015260200162000e75565b8381111562000d955750506000910152565b6000815180845262000ebb81602086016020860162000e72565b601f01601f19169290920160200192915050565b60006060808301818452808751808352608092508286019150828160051b8701016020808b0160005b8481101562000fa457898403607f19018652815180516001600160a01b0316855283810151898601906003811062000f4057634e487b7160e01b600052602160045260246000fd5b868601526040918201519186018a905281519081905290840190600090898701905b8083101562000f8e5783516001600160e01b031916825292860192600192909201919086019062000f62565b5097850197955050509082019060010162000ef8565b50506001600160a01b038a1690880152868103604088015262000fc8818962000ea1565b9a9950505050505050505050565b60008162000fe85762000fe862000e40565b506000190190565b60008160001904831182151516156200100d576200100d62000e40565b500290565b6000821982111562001028576200102862000e40565b500190565b600082516200104181846020870162000e72565b9190910192915050565b60208152600062001060602083018462000ea1565b9392505050565b610fb480620010776000396000f3fe60806040523661000b57005b600080356001600160e01b0319168152600080516020610eeb8339815191526020819052604090912054819060601c8061008c5760405162461bcd60e51b815260206004820181905260248201527f4469616d6f6e643a2046756e6374696f6e20646f6573206e6f7420657869737460448201526064015b60405180910390fd5b3660008037600080366000845af43d6000803e8080156100ab573d6000f35b3d6000fd5b7fc8fcad8db84d3cc18b4c41d551ea0ee66dd599cde068d998e57d5e09332c132080546001600160a01b031981166001600160a01b03848116918217909355604051600080516020610eeb833981519152939092169182907f8be0079c531659141344cd1fd0a4f28419497f9722a3daafe3b4186f6b6457e090600090a3505050565b7fc8fcad8db84d3cc18b4c41d551ea0ee66dd599cde068d998e57d5e09332c131e54600080516020610eeb8339815191529061ffff8116908190600090600716156101905750600381901c60009081526001840160205260409020545b60005b87518110156102175761020083838a84815181106101b3576101b3610cb3565b6020026020010151600001518b85815181106101d1576101d1610cb3565b6020026020010151602001518c86815181106101ef576101ef610cb3565b6020026020010151604001516102a3565b90935091508061020f81610cdf565b915050610193565b508282146102335760028401805461ffff191661ffff84161790555b600782161561025557600382901c600090815260018501602052604090208190555b7f8faa70878671ccd212d20771b795c50af8fd3ff6cf27f4bde57e5d4de0aeb67387878760405161028893929190610d66565b60405180910390a161029a8686610a7f565b50505050505050565b60008080600080516020610eeb8339815191529050600084511161031d5760405162461bcd60e51b815260206004820152602b60248201527f4c69624469616d6f6e644375743a204e6f2073656c6563746f727320696e206660448201526a1858d95d081d1bc818dd5d60aa1b6064820152608401610083565b600085600281111561033157610331610cf8565b0361049e5761035886604051806060016040528060248152602001610f0b60249139610c92565b60005b845181101561049857600085828151811061037857610378610cb3565b6020908102919091018101516001600160e01b03198116600090815291859052604090912054909150606081901c156104115760405162461bcd60e51b815260206004820152603560248201527f4c69624469616d6f6e644375743a2043616e2774206164642066756e6374696f6044820152746e207468617420616c72656164792065786973747360581b6064820152608401610083565b6001600160e01b031980831660008181526020879052604090206001600160601b031960608d901b168e17905560e060058e901b811692831c199c909c1690821c179a8190036104755760038c901c600090815260018601602052604081209b909b555b8b61047f81610cdf565b9c5050505050808061049090610cdf565b91505061035b565b50610a73565b60018560028111156104b2576104b2610cf8565b036106e1576104d986604051806060016040528060288152602001610f5760289139610c92565b60005b84518110156104985760008582815181106104f9576104f9610cb3565b6020908102919091018101516001600160e01b03198116600090815291859052604090912054909150606081901c30810361058e5760405162461bcd60e51b815260206004820152602f60248201527f4c69624469616d6f6e644375743a2043616e2774207265706c61636520696d6d60448201526e3aba30b1363290333ab731ba34b7b760891b6064820152608401610083565b896001600160a01b0316816001600160a01b0316036106155760405162461bcd60e51b815260206004820152603860248201527f4c69624469616d6f6e644375743a2043616e2774207265706c6163652066756e60448201527f6374696f6e20776974682073616d652066756e6374696f6e00000000000000006064820152608401610083565b6001600160a01b0381166106915760405162461bcd60e51b815260206004820152603860248201527f4c69624469616d6f6e644375743a2043616e2774207265706c6163652066756e60448201527f6374696f6e207468617420646f65736e277420657869737400000000000000006064820152608401610083565b506001600160e01b031990911660009081526020849052604090206bffffffffffffffffffffffff919091166001600160601b031960608a901b16179055806106d981610cdf565b9150506104dc565b60028560028111156106f5576106f5610cf8565b03610a1b576001600160a01b038616156107705760405162461bcd60e51b815260206004820152603660248201527f4c69624469616d6f6e644375743a2052656d6f76652066616365742061646472604482015275657373206d757374206265206164647265737328302960501b6064820152608401610083565b600388901c6007891660005b86518110156109fb5760008a90036107b8578261079881610e66565b60008181526001870160205260409020549b509350600792506107c69050565b816107c281610e66565b9250505b6000806000808a85815181106107de576107de610cb3565b6020908102919091018101516001600160e01b031981166000908152918a9052604090912054909150606081901c61087e5760405162461bcd60e51b815260206004820152603760248201527f4c69624469616d6f6e644375743a2043616e27742072656d6f76652066756e6360448201527f74696f6e207468617420646f65736e27742065786973740000000000000000006064820152608401610083565b30606082901c036108e85760405162461bcd60e51b815260206004820152602e60248201527f4c69624469616d6f6e644375743a2043616e27742072656d6f766520696d6d7560448201526d3a30b1363290333ab731ba34b7b760911b6064820152608401610083565b600587901b8f901b94506001600160e01b03198086169083161461093e576001600160e01b03198516600090815260208a90526040902080546001600160601b0319166bffffffffffffffffffffffff83161790555b6001600160e01b031991909116600090815260208990526040812055600381901c611fff16925060051b60e01690508582146109a3576000828152600188016020526040902080546001600160e01b031980841c19909116908516831c1790556109c7565b80836001600160e01b031916901c816001600160e01b031960001b901c198e16179c505b846000036109e557600086815260018801602052604081208190559c505b50505080806109f390610cdf565b91505061077c565b5080610a08836008610e7d565b610a129190610e9c565b99505050610a73565b60405162461bcd60e51b815260206004820152602760248201527f4c69624469616d6f6e644375743a20496e636f727265637420466163657443756044820152663a20b1ba34b7b760c91b6064820152608401610083565b50959694955050505050565b6001600160a01b038216610b0657805115610b025760405162461bcd60e51b815260206004820152603c60248201527f4c69624469616d6f6e644375743a205f696e697420697320616464726573732860448201527f3029206275745f63616c6c64617461206973206e6f7420656d707479000000006064820152608401610083565b5050565b6000815111610b7d5760405162461bcd60e51b815260206004820152603d60248201527f4c69624469616d6f6e644375743a205f63616c6c6461746120697320656d707460448201527f7920627574205f696e6974206973206e6f7420616464726573732830290000006064820152608401610083565b6001600160a01b0382163014610baf57610baf82604051806060016040528060288152602001610f2f60289139610c92565b600080836001600160a01b031683604051610bca9190610eb4565b600060405180830381855af49150503d8060008114610c05576040519150601f19603f3d011682016040523d82523d6000602084013e610c0a565b606091505b509150915081610c8c57805115610c35578060405162461bcd60e51b81526004016100839190610ed0565b60405162461bcd60e51b815260206004820152602660248201527f4c69624469616d6f6e644375743a205f696e69742066756e6374696f6e2072656044820152651d995c9d195960d21b6064820152608401610083565b50505050565b813b8181610c8c5760405162461bcd60e51b81526004016100839190610ed0565b634e487b7160e01b600052603260045260246000fd5b634e487b7160e01b600052601160045260246000fd5b600060018201610cf157610cf1610cc9565b5060010190565b634e487b7160e01b600052602160045260246000fd5b60005b83811015610d29578181015183820152602001610d11565b83811115610c8c5750506000910152565b60008151808452610d52816020860160208601610d0e565b601f01601f19169290920160200192915050565b60006060808301818452808751808352608092508286019150828160051b8701016020808b0160005b84811015610e3657898403607f19018652815180516001600160a01b03168552838101518986019060038110610dd557634e487b7160e01b600052602160045260246000fd5b868601526040918201519186018a905281519081905290840190600090898701905b80831015610e215783516001600160e01b0319168252928601926001929092019190860190610df7565b50978501979550505090820190600101610d8f565b50506001600160a01b038a16908801528681036040880152610e588189610d3a565b9a9950505050505050505050565b600081610e7557610e75610cc9565b506000190190565b6000816000190483118215151615610e9757610e97610cc9565b500290565b60008219821115610eaf57610eaf610cc9565b500190565b60008251610ec6818460208701610d0e565b9190910192915050565b602081526000610ee36020830184610d3a565b939250505056fec8fcad8db84d3cc18b4c41d551ea0ee66dd599cde068d998e57d5e09332c131c4c69624469616d6f6e644375743a2041646420666163657420686173206e6f20636f64654c69624469616d6f6e644375743a205f696e6974206164647265737320686173206e6f20636f64654c69624469616d6f6e644375743a205265706c61636520666163657420686173206e6f20636f6465a26469706673582212204e6b6e58423be59a39c21641051d6bd7ed7f64b27b6fdcbcf32291c98ddd811464736f6c634300080d00334c69624469616d6f6e644375743a2043616e2774207265706c6163652066756ec8fcad8db84d3cc18b4c41d551ea0ee66dd599cde068d998e57d5e09332c131c4c69624469616d6f6e644375743a2041646420666163657420686173206e6f20636f64654c69624469616d6f6e644375743a205f696e6974206164647265737320686173206e6f20636f64654c69624469616d6f6e644375743a205265706c61636520666163657420686173206e6f20636f6465a26469706673582212206582e6eb1b5ac507a590cc3c4019891dc93e8454b52db639c2641e00c333f32764736f6c634300080d0033",
  "linkReferences": {},
  "deployedLinkReferences": {},
  "devdoc": {
    "kind": "dev",
    "methods": {
      "newApplication((address,bytes32,uint256,uint256,uint256,uint256,address,address[]))": {
        "params": {
          "_appConfig": "application configurations"
        },
        "returns": {
          "_0": "application address"
        }
      }
    },
    "version": 1
  },
  "evm": {
    "bytecode": {
      "linkReferences": {},
      "opcodes": "PUSH1 0xE0 PUSH1 0x40 MSTORE CALLVALUE DUP1 ISZERO PUSH3 0x11 JUMPI PUSH1 0x0 DUP1 REVERT JUMPDEST POP PUSH1 0x40 MLOAD PUSH3 0x3159 CODESIZE SUB DUP1 PUSH3 0x3159 DUP4 CODECOPY DUP2 ADD PUSH1 0x40 DUP2 SWAP1 MSTORE PUSH3 0x34 SWAP2 PUSH3 0x2D9 JUMP JUMPDEST DUP1 MLOAD PUSH1 0x1 PUSH1 0x1 PUSH1 0xA0 SHL SUB SWAP1 DUP2 AND PUSH1 0x80 MSTORE PUSH1 0x20 DUP3 ADD MLOAD DUP2 AND PUSH1 0xA0 MSTORE PUSH1 0x40 DUP3 ADD MLOAD AND PUSH1 0xC0 MSTORE PUSH1 0x0 JUMPDEST DUP2 PUSH1 0x60 ADD MLOAD MLOAD DUP2 LT ISZERO PUSH3 0x12F JUMPI PUSH1 0x0 DUP3 PUSH1 0x60 ADD MLOAD DUP3 DUP2 MLOAD DUP2 LT PUSH3 0x83 JUMPI PUSH3 0x83 PUSH3 0x4E0 JUMP JUMPDEST PUSH1 0x20 SWAP1 DUP2 MUL SWAP2 SWAP1 SWAP2 ADD DUP2 ADD MLOAD DUP3 SLOAD PUSH1 0x1 DUP2 ADD DUP5 SSTORE PUSH1 0x0 SWAP4 DUP5 MSTORE SWAP3 DUP3 SWAP1 KECCAK256 DUP2 MLOAD PUSH1 0x2 SWAP5 DUP6 MUL SWAP1 SWAP2 ADD DUP1 SLOAD PUSH1 0x1 PUSH1 0x1 PUSH1 0xA0 SHL SUB SWAP1 SWAP3 AND PUSH1 0x1 PUSH1 0x1 PUSH1 0xA0 SHL SUB NOT DUP4 AND DUP2 OR DUP3 SSTORE SWAP4 DUP4 ADD MLOAD SWAP3 SWAP5 SWAP1 SWAP4 DUP5 SWAP3 PUSH1 0x1 PUSH1 0x1 PUSH1 0xA8 SHL SUB NOT AND OR SWAP1 PUSH1 0x1 PUSH1 0xA0 SHL SWAP1 DUP5 SWAP1 DUP2 GT ISZERO PUSH3 0xF6 JUMPI PUSH3 0xF6 PUSH3 0x4F6 JUMP JUMPDEST MUL OR SWAP1 SSTORE POP PUSH1 0x40 DUP3 ADD MLOAD DUP1 MLOAD PUSH3 0x118 SWAP2 PUSH1 0x1 DUP5 ADD SWAP2 PUSH1 0x20 SWAP1 SWAP2 ADD SWAP1 PUSH3 0x137 JUMP JUMPDEST POP POP POP DUP1 PUSH3 0x127 SWAP1 PUSH3 0x50C JUMP JUMPDEST SWAP1 POP PUSH3 0x5A JUMP JUMPDEST POP POP PUSH3 0x534 JUMP JUMPDEST DUP3 DUP1 SLOAD DUP3 DUP3 SSTORE SWAP1 PUSH1 0x0 MSTORE PUSH1 0x20 PUSH1 0x0 KECCAK256 SWAP1 PUSH1 0x7 ADD PUSH1 0x8 SWAP1 DIV DUP2 ADD SWAP3 DUP3 ISZERO PUSH3 0x1D8 JUMPI SWAP2 PUSH1 0x20 MUL DUP3 ADD PUSH1 0x0 JUMPDEST DUP4 DUP3 GT ISZERO PUSH3 0x1A4 JUMPI DUP4 MLOAD DUP4 DUP3 PUSH2 0x100 EXP DUP2 SLOAD DUP2 PUSH4 0xFFFFFFFF MUL NOT AND SWAP1 DUP4 PUSH1 0xE0 SHR MUL OR SWAP1 SSTORE POP SWAP3 PUSH1 0x20 ADD SWAP3 PUSH1 0x4 ADD PUSH1 0x20 DUP2 PUSH1 0x3 ADD DIV SWAP3 DUP4 ADD SWAP3 PUSH1 0x1 SUB MUL PUSH3 0x161 JUMP JUMPDEST DUP1 ISZERO PUSH3 0x1D6 JUMPI DUP3 DUP2 PUSH2 0x100 EXP DUP2 SLOAD SWAP1 PUSH4 0xFFFFFFFF MUL NOT AND SWAP1 SSTORE PUSH1 0x4 ADD PUSH1 0x20 DUP2 PUSH1 0x3 ADD DIV SWAP3 DUP4 ADD SWAP3 PUSH1 0x1 SUB MUL PUSH3 0x1A4 JUMP JUMPDEST POP JUMPDEST POP PUSH3 0x1E6 SWAP3 SWAP2 POP PUSH3 0x1EA JUMP JUMPDEST POP SWAP1 JUMP JUMPDEST JUMPDEST DUP1 DUP3 GT ISZERO PUSH3 0x1E6 JUMPI PUSH1 0x0 DUP2 SSTORE PUSH1 0x1 ADD PUSH3 0x1EB JUMP JUMPDEST PUSH4 0x4E487B71 PUSH1 0xE0 SHL PUSH1 0x0 MSTORE PUSH1 0x41 PUSH1 0x4 MSTORE PUSH1 0x24 PUSH1 0x0 REVERT JUMPDEST PUSH1 0x40 MLOAD PUSH1 0x80 DUP2 ADD PUSH1 0x1 PUSH1 0x1 PUSH1 0x40 SHL SUB DUP2 GT DUP3 DUP3 LT OR ISZERO PUSH3 0x23C JUMPI PUSH3 0x23C PUSH3 0x201 JUMP JUMPDEST PUSH1 0x40 MSTORE SWAP1 JUMP JUMPDEST PUSH1 0x40 MLOAD PUSH1 0x60 DUP2 ADD PUSH1 0x1 PUSH1 0x1 PUSH1 0x40 SHL SUB DUP2 GT DUP3 DUP3 LT OR ISZERO PUSH3 0x23C JUMPI PUSH3 0x23C PUSH3 0x201 JUMP JUMPDEST PUSH1 0x40 MLOAD PUSH1 0x1F DUP3 ADD PUSH1 0x1F NOT AND DUP2 ADD PUSH1 0x1 PUSH1 0x1 PUSH1 0x40 SHL SUB DUP2 GT DUP3 DUP3 LT OR ISZERO PUSH3 0x292 JUMPI PUSH3 0x292 PUSH3 0x201 JUMP JUMPDEST PUSH1 0x40 MSTORE SWAP2 SWAP1 POP JUMP JUMPDEST PUSH1 0x1 PUSH1 0x1 PUSH1 0xA0 SHL SUB DUP2 AND DUP2 EQ PUSH3 0x2B0 JUMPI PUSH1 0x0 DUP1 REVERT JUMPDEST POP JUMP JUMPDEST PUSH1 0x0 PUSH1 0x1 PUSH1 0x1 PUSH1 0x40 SHL SUB DUP3 GT ISZERO PUSH3 0x2CF JUMPI PUSH3 0x2CF PUSH3 0x201 JUMP JUMPDEST POP PUSH1 0x5 SHL PUSH1 0x20 ADD SWAP1 JUMP JUMPDEST PUSH1 0x0 PUSH1 0x20 DUP1 DUP4 DUP6 SUB SLT ISZERO PUSH3 0x2ED JUMPI PUSH1 0x0 DUP1 REVERT JUMPDEST DUP3 MLOAD PUSH1 0x1 PUSH1 0x1 PUSH1 0x40 SHL SUB DUP1 DUP3 GT ISZERO PUSH3 0x305 JUMPI PUSH1 0x0 DUP1 REVERT JUMPDEST SWAP1 DUP5 ADD SWAP1 PUSH1 0x80 DUP3 DUP8 SUB SLT ISZERO PUSH3 0x31A JUMPI PUSH1 0x0 DUP1 REVERT JUMPDEST PUSH3 0x324 PUSH3 0x217 JUMP JUMPDEST DUP3 MLOAD PUSH3 0x331 DUP2 PUSH3 0x29A JUMP JUMPDEST DUP2 MSTORE DUP3 DUP5 ADD MLOAD PUSH3 0x342 DUP2 PUSH3 0x29A JUMP JUMPDEST DUP2 DUP6 ADD MSTORE PUSH1 0x40 DUP4 ADD MLOAD PUSH3 0x356 DUP2 PUSH3 0x29A JUMP JUMPDEST PUSH1 0x40 DUP3 ADD MSTORE PUSH1 0x60 DUP4 ADD MLOAD DUP3 DUP2 GT ISZERO PUSH3 0x36E JUMPI PUSH1 0x0 DUP1 REVERT JUMPDEST DUP1 DUP5 ADD SWAP4 POP POP DUP7 PUSH1 0x1F DUP5 ADD SLT PUSH3 0x384 JUMPI PUSH1 0x0 DUP1 REVERT JUMPDEST DUP3 MLOAD PUSH3 0x39B PUSH3 0x395 DUP3 PUSH3 0x2B3 JUMP JUMPDEST PUSH3 0x267 JUMP JUMPDEST DUP2 DUP2 MSTORE PUSH1 0x5 SWAP2 SWAP1 SWAP2 SHL DUP5 ADD DUP6 ADD SWAP1 DUP6 DUP2 ADD SWAP1 DUP10 DUP4 GT ISZERO PUSH3 0x3BB JUMPI PUSH1 0x0 DUP1 REVERT JUMPDEST DUP7 DUP7 ADD JUMPDEST DUP4 DUP2 LT ISZERO PUSH3 0x4CD JUMPI DUP1 MLOAD DUP7 DUP2 GT ISZERO PUSH3 0x3D8 JUMPI PUSH1 0x0 DUP1 REVERT JUMPDEST DUP8 ADD PUSH1 0x60 DUP2 DUP14 SUB PUSH1 0x1F NOT ADD SLT ISZERO PUSH3 0x3EF JUMPI PUSH1 0x0 DUP1 REVERT JUMPDEST PUSH3 0x3F9 PUSH3 0x242 JUMP JUMPDEST DUP10 DUP3 ADD MLOAD PUSH3 0x408 DUP2 PUSH3 0x29A JUMP JUMPDEST DUP2 MSTORE PUSH1 0x40 DUP3 ADD MLOAD PUSH1 0x3 DUP2 LT PUSH3 0x41D JUMPI PUSH1 0x0 DUP1 REVERT JUMPDEST DUP2 DUP12 ADD MSTORE PUSH1 0x60 DUP3 ADD MLOAD DUP9 DUP2 GT ISZERO PUSH3 0x434 JUMPI PUSH1 0x0 DUP1 REVERT JUMPDEST DUP1 DUP4 ADD SWAP3 POP POP DUP13 PUSH1 0x3F DUP4 ADD SLT PUSH3 0x44A JUMPI PUSH1 0x0 DUP1 REVERT JUMPDEST DUP10 DUP3 ADD MLOAD PUSH3 0x45D PUSH3 0x395 DUP3 PUSH3 0x2B3 JUMP JUMPDEST DUP2 DUP2 MSTORE PUSH1 0x5 SWAP2 SWAP1 SWAP2 SHL DUP4 ADD PUSH1 0x40 ADD SWAP1 DUP12 DUP2 ADD SWAP1 DUP16 DUP4 GT ISZERO PUSH3 0x47E JUMPI PUSH1 0x0 DUP1 REVERT JUMPDEST PUSH1 0x40 DUP6 ADD SWAP5 POP JUMPDEST DUP3 DUP6 LT ISZERO PUSH3 0x4B7 JUMPI DUP5 MLOAD PUSH1 0x1 PUSH1 0x1 PUSH1 0xE0 SHL SUB NOT DUP2 AND DUP2 EQ PUSH3 0x4A7 JUMPI PUSH1 0x0 DUP1 REVERT JUMPDEST DUP3 MSTORE SWAP4 DUP13 ADD SWAP4 SWAP1 DUP13 ADD SWAP1 PUSH3 0x485 JUMP JUMPDEST PUSH1 0x40 DUP5 ADD MSTORE POP POP DUP5 MSTORE POP SWAP2 DUP8 ADD SWAP2 DUP8 ADD PUSH3 0x3BF JUMP JUMPDEST POP PUSH1 0x60 DUP5 ADD MSTORE POP SWAP1 SWAP8 SWAP7 POP POP POP POP POP POP POP JUMP JUMPDEST PUSH4 0x4E487B71 PUSH1 0xE0 SHL PUSH1 0x0 MSTORE PUSH1 0x32 PUSH1 0x4 MSTORE PUSH1 0x24 PUSH1 0x0 REVERT JUMPDEST PUSH4 0x4E487B71 PUSH1 0xE0 SHL PUSH1 0x0 MSTORE PUSH1 0x21 PUSH1 0x4 MSTORE PUSH1 0x24 PUSH1 0x0 REVERT JUMPDEST PUSH1 0x0 PUSH1 0x1 DUP3 ADD PUSH3 0x52D JUMPI PUSH4 0x4E487B71 PUSH1 0xE0 SHL PUSH1 0x0 MSTORE PUSH1 0x11 PUSH1 0x4 MSTORE PUSH1 0x24 PUSH1 0x0 REVERT JUMPDEST POP PUSH1 0x1 ADD SWAP1 JUMP JUMPDEST PUSH1 0x80 MLOAD PUSH1 0xA0 MLOAD PUSH1 0xC0 MLOAD PUSH2 0x2BE2 PUSH3 0x577 PUSH1 0x0 CODECOPY PUSH1 0x0 DUP2 DUP2 PUSH1 0xF1 ADD MSTORE PUSH2 0x222 ADD MSTORE PUSH1 0x0 DUP2 DUP2 PUSH2 0x119 ADD MSTORE PUSH2 0x2CE ADD MSTORE PUSH1 0x0 DUP2 DUP2 PUSH1 0xC9 ADD MSTORE PUSH2 0x17C ADD MSTORE PUSH2 0x2BE2 PUSH1 0x0 RETURN INVALID PUSH1 0x80 PUSH1 0x40 MSTORE CALLVALUE DUP1 ISZERO PUSH3 0x11 JUMPI PUSH1 0x0 DUP1 REVERT JUMPDEST POP PUSH1 0x4 CALLDATASIZE LT PUSH3 0x5E JUMPI PUSH1 0x0 CALLDATALOAD PUSH1 0xE0 SHR DUP1 PUSH4 0x4C01CC7 EQ PUSH3 0x63 JUMPI DUP1 PUSH4 0x94A28F32 EQ PUSH3 0x93 JUMPI DUP1 PUSH4 0xA051E9B3 EQ PUSH3 0xC3 JUMPI DUP1 PUSH4 0xAA9A6E91 EQ PUSH3 0xEB JUMPI DUP1 PUSH4 0xE6EE1D4F EQ PUSH3 0x113 JUMPI JUMPDEST PUSH1 0x0 DUP1 REVERT JUMPDEST PUSH3 0x7A PUSH3 0x74 CALLDATASIZE PUSH1 0x4 PUSH3 0x456 JUMP JUMPDEST PUSH3 0x13B JUMP JUMPDEST PUSH1 0x40 MLOAD PUSH3 0x8A SWAP3 SWAP2 SWAP1 PUSH3 0x493 JUMP JUMPDEST PUSH1 0x40 MLOAD DUP1 SWAP2 SUB SWAP1 RETURN JUMPDEST PUSH3 0xAA PUSH3 0xA4 CALLDATASIZE PUSH1 0x4 PUSH3 0x4B9 JUMP JUMPDEST PUSH3 0x176 JUMP JUMPDEST PUSH1 0x40 MLOAD PUSH1 0x1 PUSH1 0x1 PUSH1 0xA0 SHL SUB SWAP1 SWAP2 AND DUP2 MSTORE PUSH1 0x20 ADD PUSH3 0x8A JUMP JUMPDEST PUSH3 0xAA PUSH32 0x0 DUP2 JUMP JUMPDEST PUSH3 0xAA PUSH32 0x0 DUP2 JUMP JUMPDEST PUSH3 0xAA PUSH32 0x0 DUP2 JUMP JUMPDEST PUSH1 0x0 DUP2 DUP2 SLOAD DUP2 LT PUSH3 0x14C JUMPI PUSH1 0x0 DUP1 REVERT JUMPDEST PUSH1 0x0 SWAP2 DUP3 MSTORE PUSH1 0x20 SWAP1 SWAP2 KECCAK256 PUSH1 0x2 SWAP1 SWAP2 MUL ADD SLOAD PUSH1 0x1 PUSH1 0x1 PUSH1 0xA0 SHL SUB DUP2 AND SWAP2 POP PUSH1 0x1 PUSH1 0xA0 SHL SWAP1 DIV PUSH1 0xFF AND DUP3 JUMP JUMPDEST PUSH1 0x0 DUP1 ADDRESS PUSH32 0x0 PUSH1 0x40 MLOAD PUSH3 0x1A9 SWAP1 PUSH3 0x448 JUMP JUMPDEST PUSH1 0x1 PUSH1 0x1 PUSH1 0xA0 SHL SUB SWAP3 DUP4 AND DUP2 MSTORE SWAP2 AND PUSH1 0x20 DUP3 ADD MSTORE PUSH1 0x40 ADD PUSH1 0x40 MLOAD DUP1 SWAP2 SUB SWAP1 PUSH1 0x0 CREATE DUP1 ISZERO DUP1 ISZERO PUSH3 0x1DD JUMPI RETURNDATASIZE PUSH1 0x0 DUP1 RETURNDATACOPY RETURNDATASIZE PUSH1 0x0 REVERT JUMPDEST POP SWAP1 POP PUSH1 0x0 PUSH1 0x40 MLOAD DUP1 PUSH2 0x100 ADD PUSH1 0x40 MSTORE DUP1 DUP6 PUSH1 0x20 ADD CALLDATALOAD DUP2 MSTORE PUSH1 0x20 ADD DUP6 PUSH1 0x40 ADD CALLDATALOAD DUP2 MSTORE PUSH1 0x20 ADD DUP6 PUSH1 0x60 ADD CALLDATALOAD DUP2 MSTORE PUSH1 0x20 ADD DUP6 PUSH1 0x80 ADD CALLDATALOAD DUP2 MSTORE PUSH1 0x20 ADD DUP6 PUSH1 0xA0 ADD CALLDATALOAD DUP2 MSTORE PUSH1 0x20 ADD PUSH32 0x0 PUSH1 0x1 PUSH1 0x1 PUSH1 0xA0 SHL SUB AND DUP2 MSTORE PUSH1 0x20 ADD DUP6 PUSH1 0xC0 ADD PUSH1 0x20 DUP2 ADD SWAP1 PUSH3 0x264 SWAP2 SWAP1 PUSH3 0x523 JUMP JUMPDEST PUSH1 0x1 PUSH1 0x1 PUSH1 0xA0 SHL SUB AND DUP2 MSTORE PUSH1 0x20 ADD PUSH3 0x281 PUSH1 0xE0 DUP8 ADD DUP8 PUSH3 0x543 JUMP JUMPDEST DUP1 DUP1 PUSH1 0x20 MUL PUSH1 0x20 ADD PUSH1 0x40 MLOAD SWAP1 DUP2 ADD PUSH1 0x40 MSTORE DUP1 SWAP4 SWAP3 SWAP2 SWAP1 DUP2 DUP2 MSTORE PUSH1 0x20 ADD DUP4 DUP4 PUSH1 0x20 MUL DUP1 DUP3 DUP5 CALLDATACOPY PUSH1 0x0 SWAP3 ADD DUP3 SWAP1 MSTORE POP SWAP4 SWAP1 SWAP5 MSTORE POP POP PUSH1 0x40 MLOAD SWAP3 SWAP4 POP PUSH1 0x1 PUSH1 0x1 PUSH1 0xA0 SHL SUB DUP6 AND SWAP3 PUSH4 0x1F931C1C SWAP3 POP PUSH32 0x0 SWAP1 PUSH4 0xAF527701 PUSH1 0xE0 SHL SWAP1 PUSH3 0x307 SWAP1 DUP8 SWAP1 PUSH1 0x24 ADD PUSH3 0x5DD JUMP JUMPDEST PUSH1 0x40 DUP1 MLOAD PUSH1 0x1F NOT DUP2 DUP5 SUB ADD DUP2 MSTORE SWAP2 DUP2 MSTORE PUSH1 0x20 DUP3 ADD DUP1 MLOAD PUSH1 0x1 PUSH1 0x1 PUSH1 0xE0 SHL SUB AND PUSH1 0x1 PUSH1 0x1 PUSH1 0xE0 SHL SUB NOT SWAP5 DUP6 AND OR SWAP1 MSTORE MLOAD PUSH1 0xE0 DUP7 SWAP1 SHL SWAP1 SWAP3 AND DUP3 MSTORE PUSH3 0x350 SWAP4 SWAP3 SWAP2 PUSH1 0x4 ADD PUSH3 0x6B8 JUMP JUMPDEST PUSH1 0x0 PUSH1 0x40 MLOAD DUP1 DUP4 SUB DUP2 PUSH1 0x0 DUP8 DUP1 EXTCODESIZE ISZERO DUP1 ISZERO PUSH3 0x36B JUMPI PUSH1 0x0 DUP1 REVERT JUMPDEST POP GAS CALL ISZERO DUP1 ISZERO PUSH3 0x380 JUMPI RETURNDATASIZE PUSH1 0x0 DUP1 RETURNDATACOPY RETURNDATASIZE PUSH1 0x0 REVERT JUMPDEST POP POP POP PUSH1 0x1 PUSH1 0x1 PUSH1 0xA0 SHL SUB DUP4 AND SWAP1 POP PUSH4 0xF2FDE38B PUSH3 0x3A3 PUSH1 0x20 DUP8 ADD DUP8 PUSH3 0x523 JUMP JUMPDEST PUSH1 0x40 MLOAD PUSH1 0x1 PUSH1 0x1 PUSH1 0xE0 SHL SUB NOT PUSH1 0xE0 DUP5 SWAP1 SHL AND DUP2 MSTORE PUSH1 0x1 PUSH1 0x1 PUSH1 0xA0 SHL SUB SWAP1 SWAP2 AND PUSH1 0x4 DUP3 ADD MSTORE PUSH1 0x24 ADD PUSH1 0x0 PUSH1 0x40 MLOAD DUP1 DUP4 SUB DUP2 PUSH1 0x0 DUP8 DUP1 EXTCODESIZE ISZERO DUP1 ISZERO PUSH3 0x3E5 JUMPI PUSH1 0x0 DUP1 REVERT JUMPDEST POP GAS CALL ISZERO DUP1 ISZERO PUSH3 0x3FA JUMPI RETURNDATASIZE PUSH1 0x0 DUP1 RETURNDATACOPY RETURNDATASIZE PUSH1 0x0 REVERT JUMPDEST POP POP POP POP DUP2 PUSH1 0x1 PUSH1 0x1 PUSH1 0xA0 SHL SUB AND PUSH32 0x43883DAEB0F23AFE0FBB9658D1D4C08379520E9654A30F7EA3A9FB3A8F5195BB DUP6 PUSH1 0x40 MLOAD PUSH3 0x439 SWAP2 SWAP1 PUSH3 0xA2B JUMP JUMPDEST PUSH1 0x40 MLOAD DUP1 SWAP2 SUB SWAP1 LOG2 POP SWAP3 SWAP2 POP POP JUMP JUMPDEST PUSH2 0x20DF DUP1 PUSH3 0xACE DUP4 CODECOPY ADD SWAP1 JUMP JUMPDEST PUSH1 0x0 PUSH1 0x20 DUP3 DUP5 SUB SLT ISZERO PUSH3 0x469 JUMPI PUSH1 0x0 DUP1 REVERT JUMPDEST POP CALLDATALOAD SWAP2 SWAP1 POP JUMP JUMPDEST PUSH1 0x3 DUP2 LT PUSH3 0x48F JUMPI PUSH4 0x4E487B71 PUSH1 0xE0 SHL PUSH1 0x0 MSTORE PUSH1 0x21 PUSH1 0x4 MSTORE PUSH1 0x24 PUSH1 0x0 REVERT JUMPDEST SWAP1 MSTORE JUMP JUMPDEST PUSH1 0x1 PUSH1 0x1 PUSH1 0xA0 SHL SUB DUP4 AND DUP2 MSTORE PUSH1 0x40 DUP2 ADD PUSH3 0x4B2 PUSH1 0x20 DUP4 ADD DUP5 PUSH3 0x470 JUMP JUMPDEST SWAP4 SWAP3 POP POP POP JUMP JUMPDEST PUSH1 0x0 PUSH1 0x20 DUP3 DUP5 SUB SLT ISZERO PUSH3 0x4CC JUMPI PUSH1 0x0 DUP1 REVERT JUMPDEST DUP2 CALLDATALOAD PUSH8 0xFFFFFFFFFFFFFFFF DUP2 GT ISZERO PUSH3 0x4E4 JUMPI PUSH1 0x0 DUP1 REVERT JUMPDEST DUP3 ADD PUSH2 0x100 DUP2 DUP6 SUB SLT ISZERO PUSH3 0x4B2 JUMPI PUSH1 0x0 DUP1 REVERT JUMPDEST PUSH1 0x1 PUSH1 0x1 PUSH1 0xA0 SHL SUB DUP2 AND DUP2 EQ PUSH3 0x50E JUMPI PUSH1 0x0 DUP1 REVERT JUMPDEST POP JUMP JUMPDEST DUP1 CALLDATALOAD PUSH3 0x51E DUP2 PUSH3 0x4F8 JUMP JUMPDEST SWAP2 SWAP1 POP JUMP JUMPDEST PUSH1 0x0 PUSH1 0x20 DUP3 DUP5 SUB SLT ISZERO PUSH3 0x536 JUMPI PUSH1 0x0 DUP1 REVERT JUMPDEST DUP2 CALLDATALOAD PUSH3 0x4B2 DUP2 PUSH3 0x4F8 JUMP JUMPDEST PUSH1 0x0 DUP1 DUP4 CALLDATALOAD PUSH1 0x1E NOT DUP5 CALLDATASIZE SUB ADD DUP2 SLT PUSH3 0x55B JUMPI PUSH1 0x0 DUP1 REVERT JUMPDEST DUP4 ADD DUP1 CALLDATALOAD SWAP2 POP PUSH8 0xFFFFFFFFFFFFFFFF DUP3 GT ISZERO PUSH3 0x577 JUMPI PUSH1 0x0 DUP1 REVERT JUMPDEST PUSH1 0x20 ADD SWAP2 POP PUSH1 0x5 DUP2 SWAP1 SHL CALLDATASIZE SUB DUP3 SGT ISZERO PUSH3 0x590 JUMPI PUSH1 0x0 DUP1 REVERT JUMPDEST SWAP3 POP SWAP3 SWAP1 POP JUMP JUMPDEST PUSH1 0x0 DUP2 MLOAD DUP1 DUP5 MSTORE PUSH1 0x20 DUP1 DUP6 ADD SWAP5 POP DUP1 DUP5 ADD PUSH1 0x0 JUMPDEST DUP4 DUP2 LT ISZERO PUSH3 0x5D2 JUMPI DUP2 MLOAD PUSH1 0x1 PUSH1 0x1 PUSH1 0xA0 SHL SUB AND DUP8 MSTORE SWAP6 DUP3 ADD SWAP6 SWAP1 DUP3 ADD SWAP1 PUSH1 0x1 ADD PUSH3 0x5AB JUMP JUMPDEST POP SWAP5 SWAP6 SWAP5 POP POP POP POP POP JUMP JUMPDEST PUSH1 0x20 DUP2 MSTORE DUP2 MLOAD PUSH1 0x20 DUP3 ADD MSTORE PUSH1 0x20 DUP3 ADD MLOAD PUSH1 0x40 DUP3 ADD MSTORE PUSH1 0x40 DUP3 ADD MLOAD PUSH1 0x60 DUP3 ADD MSTORE PUSH1 0x60 DUP3 ADD MLOAD PUSH1 0x80 DUP3 ADD MSTORE PUSH1 0x80 DUP3 ADD MLOAD PUSH1 0xA0 DUP3 ADD MSTORE PUSH1 0x0 PUSH1 0xA0 DUP4 ADD MLOAD PUSH1 0x1 DUP1 PUSH1 0xA0 SHL SUB DUP1 DUP3 AND PUSH1 0xC0 DUP6 ADD MSTORE DUP1 PUSH1 0xC0 DUP7 ADD MLOAD AND PUSH1 0xE0 DUP6 ADD MSTORE POP POP PUSH1 0xE0 DUP4 ADD MLOAD PUSH2 0x100 DUP1 DUP2 DUP6 ADD MSTORE POP PUSH3 0x652 PUSH2 0x120 DUP5 ADD DUP3 PUSH3 0x597 JUMP JUMPDEST SWAP5 SWAP4 POP POP POP POP JUMP JUMPDEST PUSH1 0x1 PUSH1 0x1 PUSH1 0xE0 SHL SUB NOT AND SWAP1 MSTORE JUMP JUMPDEST PUSH1 0x0 DUP2 MLOAD DUP1 DUP5 MSTORE PUSH1 0x0 JUMPDEST DUP2 DUP2 LT ISZERO PUSH3 0x690 JUMPI PUSH1 0x20 DUP2 DUP6 ADD DUP2 ADD MLOAD DUP7 DUP4 ADD DUP3 ADD MSTORE ADD PUSH3 0x672 JUMP JUMPDEST DUP2 DUP2 GT ISZERO PUSH3 0x6A3 JUMPI PUSH1 0x0 PUSH1 0x20 DUP4 DUP8 ADD ADD MSTORE JUMPDEST POP PUSH1 0x1F ADD PUSH1 0x1F NOT AND SWAP3 SWAP1 SWAP3 ADD PUSH1 0x20 ADD SWAP3 SWAP2 POP POP JUMP JUMPDEST PUSH1 0x60 DUP2 MSTORE PUSH1 0x0 PUSH1 0x60 DUP3 ADD DUP6 SLOAD DUP1 DUP3 MSTORE PUSH1 0x80 DUP5 ADD SWAP2 POP PUSH1 0x80 DUP2 PUSH1 0x5 SHL DUP6 ADD ADD DUP8 PUSH1 0x0 MSTORE PUSH1 0x20 DUP1 PUSH1 0x0 KECCAK256 PUSH1 0x0 JUMPDEST DUP5 DUP2 LT ISZERO PUSH3 0x96D JUMPI DUP8 DUP5 SUB PUSH1 0x7F NOT ADD DUP7 MSTORE DUP2 SLOAD PUSH1 0x1 PUSH1 0x1 PUSH1 0xA0 SHL SUB DUP2 AND DUP6 MSTORE PUSH1 0x60 DUP6 ADD SWAP1 PUSH3 0x71D DUP6 DUP8 ADD PUSH1 0xA0 DUP4 SWAP1 SHR PUSH1 0xFF AND PUSH3 0x470 JUMP JUMPDEST POP PUSH1 0x60 PUSH1 0x40 DUP7 ADD MSTORE PUSH1 0x1 DUP4 DUP2 ADD DUP1 SLOAD DUP1 DUP5 MSTORE PUSH1 0x0 SWAP2 DUP3 MSTORE PUSH1 0x20 DUP1 DUP4 KECCAK256 SWAP5 ADD SWAP1 JUMPDEST DUP1 PUSH1 0x7 DUP5 ADD LT ISZERO PUSH3 0x805 JUMPI DUP5 SLOAD PUSH3 0x75A DUP4 DUP3 PUSH1 0xE0 SHL PUSH3 0x65A JUMP JUMPDEST PUSH1 0x1 PUSH1 0x1 PUSH1 0xE0 SHL SUB NOT PUSH3 0x777 DUP5 DUP12 ADD PUSH1 0xC0 DUP5 SWAP1 SHL DUP4 AND PUSH3 0x65A JUMP JUMPDEST PUSH3 0x78B PUSH1 0x40 DUP6 ADD DUP3 DUP5 PUSH1 0xA0 SHL AND PUSH3 0x65A JUMP JUMPDEST PUSH3 0x79F PUSH1 0x60 DUP6 ADD DUP3 DUP5 PUSH1 0x80 SHL AND PUSH3 0x65A JUMP JUMPDEST PUSH3 0x7B3 PUSH1 0x80 DUP6 ADD DUP3 DUP5 PUSH1 0x60 SHL AND PUSH3 0x65A JUMP JUMPDEST PUSH3 0x7C7 PUSH1 0xA0 DUP6 ADD DUP3 DUP5 PUSH1 0x40 SHL AND PUSH3 0x65A JUMP JUMPDEST PUSH3 0x7DA PUSH1 0xC0 DUP6 ADD DUP3 DUP5 DUP14 SHL AND PUSH3 0x65A JUMP JUMPDEST PUSH3 0x7EB PUSH1 0xE0 DUP6 ADD DUP3 DUP5 AND PUSH3 0x65A JUMP JUMPDEST POP POP PUSH2 0x100 DUP3 ADD SWAP2 POP DUP4 DUP6 ADD SWAP5 POP PUSH1 0x8 DUP4 ADD SWAP3 POP PUSH3 0x73D JUMP JUMPDEST SWAP4 SLOAD SWAP4 DUP1 DUP4 LT ISZERO PUSH3 0x829 JUMPI PUSH3 0x820 DUP3 DUP7 PUSH1 0xE0 SHL PUSH3 0x65A JUMP JUMPDEST SWAP2 DUP4 ADD SWAP2 SWAP1 DUP8 ADD SWAP1 JUMPDEST DUP1 DUP4 LT ISZERO PUSH3 0x855 JUMPI PUSH3 0x84C DUP3 PUSH1 0xC0 DUP8 SWAP1 SHL PUSH1 0x1 PUSH1 0x1 PUSH1 0xE0 SHL SUB NOT AND PUSH3 0x65A JUMP JUMPDEST SWAP2 DUP4 ADD SWAP2 SWAP1 DUP8 ADD SWAP1 JUMPDEST DUP1 DUP4 LT ISZERO PUSH3 0x881 JUMPI PUSH3 0x878 DUP3 PUSH1 0xA0 DUP8 SWAP1 SHL PUSH1 0x1 PUSH1 0x1 PUSH1 0xE0 SHL SUB NOT AND PUSH3 0x65A JUMP JUMPDEST SWAP2 DUP4 ADD SWAP2 SWAP1 DUP8 ADD SWAP1 JUMPDEST DUP1 DUP4 LT ISZERO PUSH3 0x8AD JUMPI PUSH3 0x8A4 DUP3 PUSH1 0x80 DUP8 SWAP1 SHL PUSH1 0x1 PUSH1 0x1 PUSH1 0xE0 SHL SUB NOT AND PUSH3 0x65A JUMP JUMPDEST SWAP2 DUP4 ADD SWAP2 SWAP1 DUP8 ADD SWAP1 JUMPDEST DUP1 DUP4 LT ISZERO PUSH3 0x8D9 JUMPI PUSH3 0x8D0 DUP3 PUSH1 0x60 DUP8 SWAP1 SHL PUSH1 0x1 PUSH1 0x1 PUSH1 0xE0 SHL SUB NOT AND PUSH3 0x65A JUMP JUMPDEST SWAP2 DUP4 ADD SWAP2 SWAP1 DUP8 ADD SWAP1 JUMPDEST DUP1 DUP4 LT ISZERO PUSH3 0x905 JUMPI PUSH3 0x8FC DUP3 PUSH1 0x40 DUP8 SWAP1 SHL PUSH1 0x1 PUSH1 0x1 PUSH1 0xE0 SHL SUB NOT AND PUSH3 0x65A JUMP JUMPDEST SWAP2 DUP4 ADD SWAP2 SWAP1 DUP8 ADD SWAP1 JUMPDEST DUP1 DUP4 LT ISZERO PUSH3 0x92F JUMPI PUSH3 0x926 DUP3 DUP7 DUP11 SHL PUSH1 0x1 PUSH1 0x1 PUSH1 0xE0 SHL SUB NOT AND PUSH3 0x65A JUMP JUMPDEST SWAP2 DUP4 ADD SWAP2 SWAP1 DUP8 ADD SWAP1 JUMPDEST DUP1 DUP4 LT ISZERO PUSH3 0x953 JUMPI PUSH3 0x94E DUP3 PUSH1 0x1 PUSH1 0x1 PUSH1 0xE0 SHL SUB NOT DUP8 AND PUSH3 0x65A JUMP JUMPDEST SWAP1 DUP8 ADD SWAP1 JUMPDEST POP SWAP9 DUP7 ADD SWAP9 SWAP7 POP POP POP PUSH1 0x2 SWAP3 SWAP1 SWAP3 ADD SWAP2 POP PUSH1 0x1 ADD PUSH3 0x6E3 JUMP JUMPDEST POP POP PUSH1 0x1 PUSH1 0x1 PUSH1 0xA0 SHL SUB DUP9 AND SWAP1 DUP7 ADD MSTORE DUP5 DUP2 SUB PUSH1 0x40 DUP7 ADD MSTORE PUSH3 0x991 DUP2 DUP8 PUSH3 0x668 JUMP JUMPDEST SWAP9 SWAP8 POP POP POP POP POP POP POP POP JUMP JUMPDEST PUSH1 0x0 DUP1 DUP4 CALLDATALOAD PUSH1 0x1E NOT DUP5 CALLDATASIZE SUB ADD DUP2 SLT PUSH3 0x9B5 JUMPI PUSH1 0x0 DUP1 REVERT JUMPDEST DUP4 ADD PUSH1 0x20 DUP2 ADD SWAP3 POP CALLDATALOAD SWAP1 POP PUSH8 0xFFFFFFFFFFFFFFFF DUP2 GT ISZERO PUSH3 0x9D6 JUMPI PUSH1 0x0 DUP1 REVERT JUMPDEST DUP1 PUSH1 0x5 SHL CALLDATASIZE SUB DUP4 SGT ISZERO PUSH3 0x590 JUMPI PUSH1 0x0 DUP1 REVERT JUMPDEST DUP2 DUP4 MSTORE PUSH1 0x0 PUSH1 0x20 DUP1 DUP6 ADD SWAP5 POP DUP3 PUSH1 0x0 JUMPDEST DUP6 DUP2 LT ISZERO PUSH3 0x5D2 JUMPI DUP2 CALLDATALOAD PUSH3 0xA0F DUP2 PUSH3 0x4F8 JUMP JUMPDEST PUSH1 0x1 PUSH1 0x1 PUSH1 0xA0 SHL SUB AND DUP8 MSTORE SWAP6 DUP3 ADD SWAP6 SWAP1 DUP3 ADD SWAP1 PUSH1 0x1 ADD PUSH3 0x9F9 JUMP JUMPDEST PUSH1 0x20 DUP2 MSTORE PUSH1 0x0 DUP3 CALLDATALOAD PUSH3 0xA3E DUP2 PUSH3 0x4F8 JUMP JUMPDEST PUSH1 0x1 DUP1 PUSH1 0xA0 SHL SUB DUP2 AND PUSH1 0x20 DUP5 ADD MSTORE POP PUSH1 0x20 DUP4 ADD CALLDATALOAD PUSH1 0x40 DUP4 ADD MSTORE PUSH1 0x40 DUP4 ADD CALLDATALOAD PUSH1 0x60 DUP4 ADD MSTORE PUSH1 0x60 DUP4 ADD CALLDATALOAD PUSH1 0x80 DUP4 ADD MSTORE PUSH1 0x80 DUP4 ADD CALLDATALOAD PUSH1 0xA0 DUP4 ADD MSTORE PUSH1 0xA0 DUP4 ADD CALLDATALOAD PUSH1 0xC0 DUP4 ADD MSTORE PUSH3 0xA8D PUSH1 0xC0 DUP5 ADD PUSH3 0x511 JUMP JUMPDEST PUSH1 0x1 PUSH1 0x1 PUSH1 0xA0 SHL SUB DUP2 AND PUSH1 0xE0 DUP5 ADD MSTORE POP PUSH3 0xAAC PUSH1 0xE0 DUP5 ADD DUP5 PUSH3 0x99D JUMP JUMPDEST PUSH2 0x100 DUP5 DUP2 ADD MSTORE PUSH3 0xAC4 PUSH2 0x120 DUP6 ADD DUP3 DUP5 PUSH3 0x9E9 JUMP JUMPDEST SWAP6 SWAP5 POP POP POP POP POP JUMP INVALID PUSH1 0x80 PUSH1 0x40 MSTORE PUSH1 0x40 MLOAD PUSH3 0x20DF CODESIZE SUB DUP1 PUSH3 0x20DF DUP4 CODECOPY DUP2 ADD PUSH1 0x40 DUP2 SWAP1 MSTORE PUSH3 0x26 SWAP2 PUSH3 0xDDC JUMP JUMPDEST PUSH3 0x3C DUP3 PUSH3 0x156 PUSH1 0x20 SHL PUSH3 0xB0 OR PUSH1 0x20 SHR JUMP JUMPDEST PUSH1 0x40 DUP1 MLOAD PUSH1 0x1 DUP1 DUP3 MSTORE DUP2 DUP4 ADD SWAP1 SWAP3 MSTORE PUSH1 0x0 SWAP2 DUP2 PUSH1 0x20 ADD JUMPDEST PUSH1 0x40 DUP1 MLOAD PUSH1 0x60 DUP1 DUP3 ADD DUP4 MSTORE PUSH1 0x0 DUP1 DUP4 MSTORE PUSH1 0x20 DUP4 ADD MSTORE SWAP2 DUP2 ADD SWAP2 SWAP1 SWAP2 MSTORE DUP2 MSTORE PUSH1 0x20 ADD SWAP1 PUSH1 0x1 SWAP1 SUB SWAP1 DUP2 PUSH3 0x53 JUMPI POP POP PUSH1 0x40 DUP1 MLOAD PUSH1 0x1 DUP1 DUP3 MSTORE DUP2 DUP4 ADD SWAP1 SWAP3 MSTORE SWAP2 SWAP3 POP PUSH1 0x0 SWAP2 SWAP1 PUSH1 0x20 DUP1 DUP4 ADD SWAP1 DUP1 CALLDATASIZE DUP4 CALLDATACOPY ADD SWAP1 POP POP SWAP1 POP PUSH4 0x1F931C1C PUSH1 0xE0 SHL DUP2 PUSH1 0x0 DUP2 MLOAD DUP2 LT PUSH3 0xC6 JUMPI PUSH3 0xC6 PUSH3 0xE14 JUMP JUMPDEST PUSH1 0x1 PUSH1 0x1 PUSH1 0xE0 SHL SUB NOT SWAP1 SWAP3 AND PUSH1 0x20 SWAP3 DUP4 MUL SWAP2 SWAP1 SWAP2 ADD DUP3 ADD MSTORE PUSH1 0x40 DUP1 MLOAD PUSH1 0x60 DUP2 ADD SWAP1 SWAP2 MSTORE PUSH1 0x1 PUSH1 0x1 PUSH1 0xA0 SHL SUB DUP6 AND DUP2 MSTORE SWAP1 DUP2 ADD PUSH1 0x0 DUP2 MSTORE PUSH1 0x20 ADD DUP3 DUP2 MSTORE POP DUP3 PUSH1 0x0 DUP2 MLOAD DUP2 LT PUSH3 0x119 JUMPI PUSH3 0x119 PUSH3 0xE14 JUMP JUMPDEST PUSH1 0x20 MUL PUSH1 0x20 ADD ADD DUP2 SWAP1 MSTORE POP PUSH3 0x14C DUP3 PUSH1 0x0 PUSH1 0x40 MLOAD DUP1 PUSH1 0x20 ADD PUSH1 0x40 MSTORE DUP1 PUSH1 0x0 DUP2 MSTORE POP PUSH3 0x1DA PUSH1 0x20 SHL PUSH3 0x133 OR PUSH1 0x20 SHR JUMP JUMPDEST POP POP POP POP PUSH3 0x1067 JUMP JUMPDEST PUSH32 0xC8FCAD8DB84D3CC18B4C41D551EA0EE66DD599CDE068D998E57D5E09332C1320 DUP1 SLOAD PUSH1 0x1 PUSH1 0x1 PUSH1 0xA0 SHL SUB NOT DUP2 AND PUSH1 0x1 PUSH1 0x1 PUSH1 0xA0 SHL SUB DUP5 DUP2 AND SWAP2 DUP3 OR SWAP1 SWAP4 SSTORE PUSH1 0x40 MLOAD PUSH1 0x0 DUP1 MLOAD PUSH1 0x20 PUSH3 0x204B DUP4 CODECOPY DUP2 MLOAD SWAP2 MSTORE SWAP4 SWAP1 SWAP3 AND SWAP2 DUP3 SWAP1 PUSH32 0x8BE0079C531659141344CD1FD0A4F28419497F9722A3DAAFE3B4186F6B6457E0 SWAP1 PUSH1 0x0 SWAP1 LOG3 POP POP POP JUMP JUMPDEST PUSH32 0xC8FCAD8DB84D3CC18B4C41D551EA0EE66DD599CDE068D998E57D5E09332C131E SLOAD PUSH1 0x0 DUP1 MLOAD PUSH1 0x20 PUSH3 0x204B DUP4 CODECOPY DUP2 MLOAD SWAP2 MSTORE SWAP1 PUSH2 0xFFFF DUP2 AND SWAP1 DUP2 SWAP1 PUSH1 0x0 SWAP1 PUSH1 0x7 AND ISZERO PUSH3 0x239 JUMPI POP PUSH1 0x3 DUP2 SWAP1 SHR PUSH1 0x0 SWAP1 DUP2 MSTORE PUSH1 0x1 DUP5 ADD PUSH1 0x20 MSTORE PUSH1 0x40 SWAP1 KECCAK256 SLOAD JUMPDEST PUSH1 0x0 JUMPDEST DUP8 MLOAD DUP2 LT ISZERO PUSH3 0x2D5 JUMPI PUSH3 0x2BB DUP4 DUP4 DUP11 DUP5 DUP2 MLOAD DUP2 LT PUSH3 0x261 JUMPI PUSH3 0x261 PUSH3 0xE14 JUMP JUMPDEST PUSH1 0x20 MUL PUSH1 0x20 ADD ADD MLOAD PUSH1 0x0 ADD MLOAD DUP12 DUP6 DUP2 MLOAD DUP2 LT PUSH3 0x282 JUMPI PUSH3 0x282 PUSH3 0xE14 JUMP JUMPDEST PUSH1 0x20 MUL PUSH1 0x20 ADD ADD MLOAD PUSH1 0x20 ADD MLOAD DUP13 DUP7 DUP2 MLOAD DUP2 LT PUSH3 0x2A3 JUMPI PUSH3 0x2A3 PUSH3 0xE14 JUMP JUMPDEST PUSH1 0x20 MUL PUSH1 0x20 ADD ADD MLOAD PUSH1 0x40 ADD MLOAD PUSH3 0x367 PUSH1 0x20 SHL PUSH1 0x20 SHR JUMP JUMPDEST SWAP1 SWAP4 POP SWAP2 POP DUP1 PUSH3 0x2CC DUP2 PUSH3 0xE56 JUMP JUMPDEST SWAP2 POP POP PUSH3 0x23C JUMP JUMPDEST POP DUP3 DUP3 EQ PUSH3 0x2F2 JUMPI PUSH1 0x2 DUP5 ADD DUP1 SLOAD PUSH2 0xFFFF NOT AND PUSH2 0xFFFF DUP5 AND OR SWAP1 SSTORE JUMPDEST PUSH1 0x7 DUP3 AND ISZERO PUSH3 0x315 JUMPI PUSH1 0x3 DUP3 SWAP1 SHR PUSH1 0x0 SWAP1 DUP2 MSTORE PUSH1 0x1 DUP6 ADD PUSH1 0x20 MSTORE PUSH1 0x40 SWAP1 KECCAK256 DUP2 SWAP1 SSTORE JUMPDEST PUSH32 0x8FAA70878671CCD212D20771B795C50AF8FD3FF6CF27F4BDE57E5D4DE0AEB673 DUP8 DUP8 DUP8 PUSH1 0x40 MLOAD PUSH3 0x34A SWAP4 SWAP3 SWAP2 SWAP1 PUSH3 0xECF JUMP JUMPDEST PUSH1 0x40 MLOAD DUP1 SWAP2 SUB SWAP1 LOG1 PUSH3 0x35E DUP7 DUP7 PUSH3 0xB76 JUMP JUMPDEST POP POP POP POP POP POP POP JUMP JUMPDEST PUSH1 0x0 DUP1 DUP1 PUSH1 0x0 DUP1 MLOAD PUSH1 0x20 PUSH3 0x204B DUP4 CODECOPY DUP2 MLOAD SWAP2 MSTORE SWAP1 POP PUSH1 0x0 DUP5 MLOAD GT PUSH3 0x3E8 JUMPI PUSH1 0x40 MLOAD PUSH3 0x461BCD PUSH1 0xE5 SHL DUP2 MSTORE PUSH1 0x20 PUSH1 0x4 DUP3 ADD MSTORE PUSH1 0x2B PUSH1 0x24 DUP3 ADD MSTORE PUSH32 0x4C69624469616D6F6E644375743A204E6F2073656C6563746F727320696E2066 PUSH1 0x44 DUP3 ADD MSTORE PUSH11 0x1858D95D081D1BC818DD5D PUSH1 0xAA SHL PUSH1 0x64 DUP3 ADD MSTORE PUSH1 0x84 ADD JUMPDEST PUSH1 0x40 MLOAD DUP1 SWAP2 SUB SWAP1 REVERT JUMPDEST PUSH1 0x0 DUP6 PUSH1 0x2 DUP2 GT ISZERO PUSH3 0x3FF JUMPI PUSH3 0x3FF PUSH3 0xE2A JUMP JUMPDEST SUB PUSH3 0x585 JUMPI PUSH3 0x42A DUP7 PUSH1 0x40 MLOAD DUP1 PUSH1 0x60 ADD PUSH1 0x40 MSTORE DUP1 PUSH1 0x24 DUP2 MSTORE PUSH1 0x20 ADD PUSH3 0x206B PUSH1 0x24 SWAP2 CODECOPY PUSH3 0xD9B JUMP JUMPDEST PUSH1 0x0 JUMPDEST DUP5 MLOAD DUP2 LT ISZERO PUSH3 0x57E JUMPI PUSH1 0x0 DUP6 DUP3 DUP2 MLOAD DUP2 LT PUSH3 0x44E JUMPI PUSH3 0x44E PUSH3 0xE14 JUMP JUMPDEST PUSH1 0x20 SWAP1 DUP2 MUL SWAP2 SWAP1 SWAP2 ADD DUP2 ADD MLOAD PUSH1 0x1 PUSH1 0x1 PUSH1 0xE0 SHL SUB NOT DUP2 AND PUSH1 0x0 SWAP1 DUP2 MSTORE SWAP2 DUP6 SWAP1 MSTORE PUSH1 0x40 SWAP1 SWAP2 KECCAK256 SLOAD SWAP1 SWAP2 POP PUSH1 0x60 DUP2 SWAP1 SHR ISZERO PUSH3 0x4F1 JUMPI PUSH1 0x40 MLOAD PUSH3 0x461BCD PUSH1 0xE5 SHL DUP2 MSTORE PUSH1 0x20 PUSH1 0x4 DUP3 ADD MSTORE PUSH1 0x35 PUSH1 0x24 DUP3 ADD MSTORE PUSH32 0x4C69624469616D6F6E644375743A2043616E2774206164642066756E6374696F PUSH1 0x44 DUP3 ADD MSTORE PUSH32 0x6E207468617420616C7265616479206578697374730000000000000000000000 PUSH1 0x64 DUP3 ADD MSTORE PUSH1 0x84 ADD PUSH3 0x3DF JUMP JUMPDEST PUSH1 0x1 PUSH1 0x1 PUSH1 0xE0 SHL SUB NOT DUP1 DUP4 AND PUSH1 0x0 DUP2 DUP2 MSTORE PUSH1 0x20 DUP8 SWAP1 MSTORE PUSH1 0x40 SWAP1 KECCAK256 PUSH1 0x1 PUSH1 0x1 PUSH1 0x60 SHL SUB NOT PUSH1 0x60 DUP14 SWAP1 SHL AND DUP15 OR SWAP1 SSTORE PUSH1 0xE0 PUSH1 0x5 DUP15 SWAP1 SHL DUP2 AND SWAP3 DUP4 SHR NOT SWAP13 SWAP1 SWAP13 AND SWAP1 DUP3 SHR OR SWAP11 DUP2 SWAP1 SUB PUSH3 0x556 JUMPI PUSH1 0x3 DUP13 SWAP1 SHR PUSH1 0x0 SWAP1 DUP2 MSTORE PUSH1 0x1 DUP7 ADD PUSH1 0x20 MSTORE PUSH1 0x40 DUP2 KECCAK256 SWAP12 SWAP1 SWAP12 SSTORE JUMPDEST DUP12 PUSH3 0x562 DUP2 PUSH3 0xE56 JUMP JUMPDEST SWAP13 POP POP POP POP POP DUP1 DUP1 PUSH3 0x575 SWAP1 PUSH3 0xE56 JUMP JUMPDEST SWAP2 POP POP PUSH3 0x42D JUMP JUMPDEST POP PUSH3 0xB6A JUMP JUMPDEST PUSH1 0x1 DUP6 PUSH1 0x2 DUP2 GT ISZERO PUSH3 0x59C JUMPI PUSH3 0x59C PUSH3 0xE2A JUMP JUMPDEST SUB PUSH3 0x7B5 JUMPI PUSH3 0x5C7 DUP7 PUSH1 0x40 MLOAD DUP1 PUSH1 0x60 ADD PUSH1 0x40 MSTORE DUP1 PUSH1 0x28 DUP2 MSTORE PUSH1 0x20 ADD PUSH3 0x20B7 PUSH1 0x28 SWAP2 CODECOPY PUSH3 0xD9B JUMP JUMPDEST PUSH1 0x0 JUMPDEST DUP5 MLOAD DUP2 LT ISZERO PUSH3 0x57E JUMPI PUSH1 0x0 DUP6 DUP3 DUP2 MLOAD DUP2 LT PUSH3 0x5EB JUMPI PUSH3 0x5EB PUSH3 0xE14 JUMP JUMPDEST PUSH1 0x20 SWAP1 DUP2 MUL SWAP2 SWAP1 SWAP2 ADD DUP2 ADD MLOAD PUSH1 0x1 PUSH1 0x1 PUSH1 0xE0 SHL SUB NOT DUP2 AND PUSH1 0x0 SWAP1 DUP2 MSTORE SWAP2 DUP6 SWAP1 MSTORE PUSH1 0x40 SWAP1 SWAP2 KECCAK256 SLOAD SWAP1 SWAP2 POP PUSH1 0x60 DUP2 SWAP1 SHR ADDRESS DUP2 SUB PUSH3 0x682 JUMPI PUSH1 0x40 MLOAD PUSH3 0x461BCD PUSH1 0xE5 SHL DUP2 MSTORE PUSH1 0x20 PUSH1 0x4 DUP3 ADD MSTORE PUSH1 0x2F PUSH1 0x24 DUP3 ADD MSTORE PUSH32 0x4C69624469616D6F6E644375743A2043616E2774207265706C61636520696D6D PUSH1 0x44 DUP3 ADD MSTORE PUSH15 0x3ABA30B1363290333AB731BA34B7B7 PUSH1 0x89 SHL PUSH1 0x64 DUP3 ADD MSTORE PUSH1 0x84 ADD PUSH3 0x3DF JUMP JUMPDEST DUP10 PUSH1 0x1 PUSH1 0x1 PUSH1 0xA0 SHL SUB AND DUP2 PUSH1 0x1 PUSH1 0x1 PUSH1 0xA0 SHL SUB AND SUB PUSH3 0x6FA JUMPI PUSH1 0x40 MLOAD PUSH3 0x461BCD PUSH1 0xE5 SHL DUP2 MSTORE PUSH1 0x20 PUSH1 0x4 DUP3 ADD MSTORE PUSH1 0x38 PUSH1 0x24 DUP3 ADD MSTORE PUSH1 0x0 DUP1 MLOAD PUSH1 0x20 PUSH3 0x202B DUP4 CODECOPY DUP2 MLOAD SWAP2 MSTORE PUSH1 0x44 DUP3 ADD MSTORE PUSH32 0x6374696F6E20776974682073616D652066756E6374696F6E0000000000000000 PUSH1 0x64 DUP3 ADD MSTORE PUSH1 0x84 ADD PUSH3 0x3DF JUMP JUMPDEST PUSH1 0x1 PUSH1 0x1 PUSH1 0xA0 SHL SUB DUP2 AND PUSH3 0x767 JUMPI PUSH1 0x40 MLOAD PUSH3 0x461BCD PUSH1 0xE5 SHL DUP2 MSTORE PUSH1 0x20 PUSH1 0x4 DUP3 ADD MSTORE PUSH1 0x38 PUSH1 0x24 DUP3 ADD MSTORE PUSH1 0x0 DUP1 MLOAD PUSH1 0x20 PUSH3 0x202B DUP4 CODECOPY DUP2 MLOAD SWAP2 MSTORE PUSH1 0x44 DUP3 ADD MSTORE PUSH32 0x6374696F6E207468617420646F65736E27742065786973740000000000000000 PUSH1 0x64 DUP3 ADD MSTORE PUSH1 0x84 ADD PUSH3 0x3DF JUMP JUMPDEST POP PUSH1 0x1 PUSH1 0x1 PUSH1 0xE0 SHL SUB NOT SWAP1 SWAP2 AND PUSH1 0x0 SWAP1 DUP2 MSTORE PUSH1 0x20 DUP5 SWAP1 MSTORE PUSH1 0x40 SWAP1 KECCAK256 PUSH1 0x1 PUSH1 0x1 PUSH1 0x60 SHL SUB SWAP2 SWAP1 SWAP2 AND PUSH1 0x1 PUSH1 0x1 PUSH1 0x60 SHL SUB NOT PUSH1 0x60 DUP11 SWAP1 SHL AND OR SWAP1 SSTORE DUP1 PUSH3 0x7AC DUP2 PUSH3 0xE56 JUMP JUMPDEST SWAP2 POP POP PUSH3 0x5CA JUMP JUMPDEST PUSH1 0x2 DUP6 PUSH1 0x2 DUP2 GT ISZERO PUSH3 0x7CC JUMPI PUSH3 0x7CC PUSH3 0xE2A JUMP JUMPDEST SUB PUSH3 0xB11 JUMPI PUSH1 0x1 PUSH1 0x1 PUSH1 0xA0 SHL SUB DUP7 AND ISZERO PUSH3 0x851 JUMPI PUSH1 0x40 MLOAD PUSH3 0x461BCD PUSH1 0xE5 SHL DUP2 MSTORE PUSH1 0x20 PUSH1 0x4 DUP3 ADD MSTORE PUSH1 0x36 PUSH1 0x24 DUP3 ADD MSTORE PUSH32 0x4C69624469616D6F6E644375743A2052656D6F76652066616365742061646472 PUSH1 0x44 DUP3 ADD MSTORE PUSH32 0x657373206D757374206265206164647265737328302900000000000000000000 PUSH1 0x64 DUP3 ADD MSTORE PUSH1 0x84 ADD PUSH3 0x3DF JUMP JUMPDEST PUSH1 0x3 DUP9 SWAP1 SHR PUSH1 0x7 DUP10 AND PUSH1 0x0 JUMPDEST DUP7 MLOAD DUP2 LT ISZERO PUSH3 0xAEC JUMPI PUSH1 0x0 DUP11 SWAP1 SUB PUSH3 0x89E JUMPI DUP3 PUSH3 0x87D DUP2 PUSH3 0xFD6 JUMP JUMPDEST PUSH1 0x0 DUP2 DUP2 MSTORE PUSH1 0x1 DUP8 ADD PUSH1 0x20 MSTORE PUSH1 0x40 SWAP1 KECCAK256 SLOAD SWAP12 POP SWAP4 POP PUSH1 0x7 SWAP3 POP PUSH3 0x8AE SWAP1 POP JUMP JUMPDEST DUP2 PUSH3 0x8AA DUP2 PUSH3 0xFD6 JUMP JUMPDEST SWAP3 POP POP JUMPDEST PUSH1 0x0 DUP1 PUSH1 0x0 DUP1 DUP11 DUP6 DUP2 MLOAD DUP2 LT PUSH3 0x8C9 JUMPI PUSH3 0x8C9 PUSH3 0xE14 JUMP JUMPDEST PUSH1 0x20 SWAP1 DUP2 MUL SWAP2 SWAP1 SWAP2 ADD DUP2 ADD MLOAD PUSH1 0x1 PUSH1 0x1 PUSH1 0xE0 SHL SUB NOT DUP2 AND PUSH1 0x0 SWAP1 DUP2 MSTORE SWAP2 DUP11 SWAP1 MSTORE PUSH1 0x40 SWAP1 SWAP2 KECCAK256 SLOAD SWAP1 SWAP2 POP PUSH1 0x60 DUP2 SWAP1 SHR PUSH3 0x96B JUMPI PUSH1 0x40 MLOAD PUSH3 0x461BCD PUSH1 0xE5 SHL DUP2 MSTORE PUSH1 0x20 PUSH1 0x4 DUP3 ADD MSTORE PUSH1 0x37 PUSH1 0x24 DUP3 ADD MSTORE PUSH32 0x4C69624469616D6F6E644375743A2043616E27742072656D6F76652066756E63 PUSH1 0x44 DUP3 ADD MSTORE PUSH32 0x74696F6E207468617420646F65736E2774206578697374000000000000000000 PUSH1 0x64 DUP3 ADD MSTORE PUSH1 0x84 ADD PUSH3 0x3DF JUMP JUMPDEST ADDRESS PUSH1 0x60 DUP3 SWAP1 SHR SUB PUSH3 0x9D7 JUMPI PUSH1 0x40 MLOAD PUSH3 0x461BCD PUSH1 0xE5 SHL DUP2 MSTORE PUSH1 0x20 PUSH1 0x4 DUP3 ADD MSTORE PUSH1 0x2E PUSH1 0x24 DUP3 ADD MSTORE PUSH32 0x4C69624469616D6F6E644375743A2043616E27742072656D6F766520696D6D75 PUSH1 0x44 DUP3 ADD MSTORE PUSH14 0x3A30B1363290333AB731BA34B7B7 PUSH1 0x91 SHL PUSH1 0x64 DUP3 ADD MSTORE PUSH1 0x84 ADD PUSH3 0x3DF JUMP JUMPDEST PUSH1 0x5 DUP8 SWAP1 SHL DUP16 SWAP1 SHL SWAP5 POP PUSH1 0x1 PUSH1 0x1 PUSH1 0xE0 SHL SUB NOT DUP1 DUP7 AND SWAP1 DUP4 AND EQ PUSH3 0xA29 JUMPI PUSH1 0x1 PUSH1 0x1 PUSH1 0xE0 SHL SUB NOT DUP6 AND PUSH1 0x0 SWAP1 DUP2 MSTORE PUSH1 0x20 DUP11 SWAP1 MSTORE PUSH1 0x40 SWAP1 KECCAK256 DUP1 SLOAD PUSH1 0x1 PUSH1 0x1 PUSH1 0x60 SHL SUB NOT AND PUSH1 0x1 PUSH1 0x1 PUSH1 0x60 SHL SUB DUP4 AND OR SWAP1 SSTORE JUMPDEST PUSH1 0x1 PUSH1 0x1 PUSH1 0xE0 SHL SUB NOT SWAP2 SWAP1 SWAP2 AND PUSH1 0x0 SWAP1 DUP2 MSTORE PUSH1 0x20 DUP10 SWAP1 MSTORE PUSH1 0x40 DUP2 KECCAK256 SSTORE PUSH1 0x3 DUP2 SWAP1 SHR PUSH2 0x1FFF AND SWAP3 POP PUSH1 0x5 SHL PUSH1 0xE0 AND SWAP1 POP DUP6 DUP3 EQ PUSH3 0xA90 JUMPI PUSH1 0x0 DUP3 DUP2 MSTORE PUSH1 0x1 DUP9 ADD PUSH1 0x20 MSTORE PUSH1 0x40 SWAP1 KECCAK256 DUP1 SLOAD PUSH1 0x1 PUSH1 0x1 PUSH1 0xE0 SHL SUB NOT DUP1 DUP5 SHR NOT SWAP1 SWAP2 AND SWAP1 DUP6 AND DUP4 SHR OR SWAP1 SSTORE PUSH3 0xAB4 JUMP JUMPDEST DUP1 DUP4 PUSH1 0x1 PUSH1 0x1 PUSH1 0xE0 SHL SUB NOT AND SWAP1 SHR DUP2 PUSH1 0x1 PUSH1 0x1 PUSH1 0xE0 SHL SUB NOT PUSH1 0x0 SHL SWAP1 SHR NOT DUP15 AND OR SWAP13 POP JUMPDEST DUP5 PUSH1 0x0 SUB PUSH3 0xAD3 JUMPI PUSH1 0x0 DUP7 DUP2 MSTORE PUSH1 0x1 DUP9 ADD PUSH1 0x20 MSTORE PUSH1 0x40 DUP2 KECCAK256 DUP2 SWAP1 SSTORE SWAP13 POP JUMPDEST POP POP POP DUP1 DUP1 PUSH3 0xAE3 SWAP1 PUSH3 0xE56 JUMP JUMPDEST SWAP2 POP POP PUSH3 0x85D JUMP JUMPDEST POP DUP1 PUSH3 0xAFB DUP4 PUSH1 0x8 PUSH3 0xFF0 JUMP JUMPDEST PUSH3 0xB07 SWAP2 SWAP1 PUSH3 0x1012 JUMP JUMPDEST SWAP10 POP POP POP PUSH3 0xB6A JUMP JUMPDEST PUSH1 0x40 MLOAD PUSH3 0x461BCD PUSH1 0xE5 SHL DUP2 MSTORE PUSH1 0x20 PUSH1 0x4 DUP3 ADD MSTORE PUSH1 0x27 PUSH1 0x24 DUP3 ADD MSTORE PUSH32 0x4C69624469616D6F6E644375743A20496E636F72726563742046616365744375 PUSH1 0x44 DUP3 ADD MSTORE PUSH7 0x3A20B1BA34B7B7 PUSH1 0xC9 SHL PUSH1 0x64 DUP3 ADD MSTORE PUSH1 0x84 ADD PUSH3 0x3DF JUMP JUMPDEST POP SWAP6 SWAP7 SWAP5 SWAP6 POP POP POP POP POP JUMP JUMPDEST PUSH1 0x1 PUSH1 0x1 PUSH1 0xA0 SHL SUB DUP3 AND PUSH3 0xC00 JUMPI DUP1 MLOAD ISZERO PUSH3 0xBFC JUMPI PUSH1 0x40 MLOAD PUSH3 0x461BCD PUSH1 0xE5 SHL DUP2 MSTORE PUSH1 0x20 PUSH1 0x4 DUP3 ADD MSTORE PUSH1 0x3C PUSH1 0x24 DUP3 ADD MSTORE PUSH32 0x4C69624469616D6F6E644375743A205F696E6974206973206164647265737328 PUSH1 0x44 DUP3 ADD MSTORE PUSH32 0x3029206275745F63616C6C64617461206973206E6F7420656D70747900000000 PUSH1 0x64 DUP3 ADD MSTORE PUSH1 0x84 ADD PUSH3 0x3DF JUMP JUMPDEST POP POP JUMP JUMPDEST PUSH1 0x0 DUP2 MLOAD GT PUSH3 0xC79 JUMPI PUSH1 0x40 MLOAD PUSH3 0x461BCD PUSH1 0xE5 SHL DUP2 MSTORE PUSH1 0x20 PUSH1 0x4 DUP3 ADD MSTORE PUSH1 0x3D PUSH1 0x24 DUP3 ADD MSTORE PUSH32 0x4C69624469616D6F6E644375743A205F63616C6C6461746120697320656D7074 PUSH1 0x44 DUP3 ADD MSTORE PUSH32 0x7920627574205F696E6974206973206E6F742061646472657373283029000000 PUSH1 0x64 DUP3 ADD MSTORE PUSH1 0x84 ADD PUSH3 0x3DF JUMP JUMPDEST PUSH1 0x1 PUSH1 0x1 PUSH1 0xA0 SHL SUB DUP3 AND ADDRESS EQ PUSH3 0xCAF JUMPI PUSH3 0xCAF DUP3 PUSH1 0x40 MLOAD DUP1 PUSH1 0x60 ADD PUSH1 0x40 MSTORE DUP1 PUSH1 0x28 DUP2 MSTORE PUSH1 0x20 ADD PUSH3 0x208F PUSH1 0x28 SWAP2 CODECOPY PUSH3 0xD9B JUMP JUMPDEST PUSH1 0x0 DUP1 DUP4 PUSH1 0x1 PUSH1 0x1 PUSH1 0xA0 SHL SUB AND DUP4 PUSH1 0x40 MLOAD PUSH3 0xCCC SWAP2 SWAP1 PUSH3 0x102D JUMP JUMPDEST PUSH1 0x0 PUSH1 0x40 MLOAD DUP1 DUP4 SUB DUP2 DUP6 GAS DELEGATECALL SWAP2 POP POP RETURNDATASIZE DUP1 PUSH1 0x0 DUP2 EQ PUSH3 0xD09 JUMPI PUSH1 0x40 MLOAD SWAP2 POP PUSH1 0x1F NOT PUSH1 0x3F RETURNDATASIZE ADD AND DUP3 ADD PUSH1 0x40 MSTORE RETURNDATASIZE DUP3 MSTORE RETURNDATASIZE PUSH1 0x0 PUSH1 0x20 DUP5 ADD RETURNDATACOPY PUSH3 0xD0E JUMP JUMPDEST PUSH1 0x60 SWAP2 POP JUMPDEST POP SWAP2 POP SWAP2 POP DUP2 PUSH3 0xD95 JUMPI DUP1 MLOAD ISZERO PUSH3 0xD3D JUMPI DUP1 PUSH1 0x40 MLOAD PUSH3 0x461BCD PUSH1 0xE5 SHL DUP2 MSTORE PUSH1 0x4 ADD PUSH3 0x3DF SWAP2 SWAP1 PUSH3 0x104B JUMP JUMPDEST PUSH1 0x40 MLOAD PUSH3 0x461BCD PUSH1 0xE5 SHL DUP2 MSTORE PUSH1 0x20 PUSH1 0x4 DUP3 ADD MSTORE PUSH1 0x26 PUSH1 0x24 DUP3 ADD MSTORE PUSH32 0x4C69624469616D6F6E644375743A205F696E69742066756E6374696F6E207265 PUSH1 0x44 DUP3 ADD MSTORE PUSH6 0x1D995C9D1959 PUSH1 0xD2 SHL PUSH1 0x64 DUP3 ADD MSTORE PUSH1 0x84 ADD PUSH3 0x3DF JUMP JUMPDEST POP POP POP POP JUMP JUMPDEST DUP2 EXTCODESIZE DUP2 DUP2 PUSH3 0xD95 JUMPI PUSH1 0x40 MLOAD PUSH3 0x461BCD PUSH1 0xE5 SHL DUP2 MSTORE PUSH1 0x4 ADD PUSH3 0x3DF SWAP2 SWAP1 PUSH3 0x104B JUMP JUMPDEST DUP1 MLOAD PUSH1 0x1 PUSH1 0x1 PUSH1 0xA0 SHL SUB DUP2 AND DUP2 EQ PUSH3 0xDD7 JUMPI PUSH1 0x0 DUP1 REVERT JUMPDEST SWAP2 SWAP1 POP JUMP JUMPDEST PUSH1 0x0 DUP1 PUSH1 0x40 DUP4 DUP6 SUB SLT ISZERO PUSH3 0xDF0 JUMPI PUSH1 0x0 DUP1 REVERT JUMPDEST PUSH3 0xDFB DUP4 PUSH3 0xDBF JUMP JUMPDEST SWAP2 POP PUSH3 0xE0B PUSH1 0x20 DUP5 ADD PUSH3 0xDBF JUMP JUMPDEST SWAP1 POP SWAP3 POP SWAP3 SWAP1 POP JUMP JUMPDEST PUSH4 0x4E487B71 PUSH1 0xE0 SHL PUSH1 0x0 MSTORE PUSH1 0x32 PUSH1 0x4 MSTORE PUSH1 0x24 PUSH1 0x0 REVERT JUMPDEST PUSH4 0x4E487B71 PUSH1 0xE0 SHL PUSH1 0x0 MSTORE PUSH1 0x21 PUSH1 0x4 MSTORE PUSH1 0x24 PUSH1 0x0 REVERT JUMPDEST PUSH4 0x4E487B71 PUSH1 0xE0 SHL PUSH1 0x0 MSTORE PUSH1 0x11 PUSH1 0x4 MSTORE PUSH1 0x24 PUSH1 0x0 REVERT JUMPDEST PUSH1 0x0 PUSH1 0x1 DUP3 ADD PUSH3 0xE6B JUMPI PUSH3 0xE6B PUSH3 0xE40 JUMP JUMPDEST POP PUSH1 0x1 ADD SWAP1 JUMP JUMPDEST PUSH1 0x0 JUMPDEST DUP4 DUP2 LT ISZERO PUSH3 0xE8F JUMPI DUP2 DUP2 ADD MLOAD DUP4 DUP3 ADD MSTORE PUSH1 0x20 ADD PUSH3 0xE75 JUMP JUMPDEST DUP4 DUP2 GT ISZERO PUSH3 0xD95 JUMPI POP POP PUSH1 0x0 SWAP2 ADD MSTORE JUMP JUMPDEST PUSH1 0x0 DUP2 MLOAD DUP1 DUP5 MSTORE PUSH3 0xEBB DUP2 PUSH1 0x20 DUP7 ADD PUSH1 0x20 DUP7 ADD PUSH3 0xE72 JUMP JUMPDEST PUSH1 0x1F ADD PUSH1 0x1F NOT AND SWAP3 SWAP1 SWAP3 ADD PUSH1 0x20 ADD SWAP3 SWAP2 POP POP JUMP JUMPDEST PUSH1 0x0 PUSH1 0x60 DUP1 DUP4 ADD DUP2 DUP5 MSTORE DUP1 DUP8 MLOAD DUP1 DUP4 MSTORE PUSH1 0x80 SWAP3 POP DUP3 DUP7 ADD SWAP2 POP DUP3 DUP2 PUSH1 0x5 SHL DUP8 ADD ADD PUSH1 0x20 DUP1 DUP12 ADD PUSH1 0x0 JUMPDEST DUP5 DUP2 LT ISZERO PUSH3 0xFA4 JUMPI DUP10 DUP5 SUB PUSH1 0x7F NOT ADD DUP7 MSTORE DUP2 MLOAD DUP1 MLOAD PUSH1 0x1 PUSH1 0x1 PUSH1 0xA0 SHL SUB AND DUP6 MSTORE DUP4 DUP2 ADD MLOAD DUP10 DUP7 ADD SWAP1 PUSH1 0x3 DUP2 LT PUSH3 0xF40 JUMPI PUSH4 0x4E487B71 PUSH1 0xE0 SHL PUSH1 0x0 MSTORE PUSH1 0x21 PUSH1 0x4 MSTORE PUSH1 0x24 PUSH1 0x0 REVERT JUMPDEST DUP7 DUP7 ADD MSTORE PUSH1 0x40 SWAP2 DUP3 ADD MLOAD SWAP2 DUP7 ADD DUP11 SWAP1 MSTORE DUP2 MLOAD SWAP1 DUP2 SWAP1 MSTORE SWAP1 DUP5 ADD SWAP1 PUSH1 0x0 SWAP1 DUP10 DUP8 ADD SWAP1 JUMPDEST DUP1 DUP4 LT ISZERO PUSH3 0xF8E JUMPI DUP4 MLOAD PUSH1 0x1 PUSH1 0x1 PUSH1 0xE0 SHL SUB NOT AND DUP3 MSTORE SWAP3 DUP7 ADD SWAP3 PUSH1 0x1 SWAP3 SWAP1 SWAP3 ADD SWAP2 SWAP1 DUP7 ADD SWAP1 PUSH3 0xF62 JUMP JUMPDEST POP SWAP8 DUP6 ADD SWAP8 SWAP6 POP POP POP SWAP1 DUP3 ADD SWAP1 PUSH1 0x1 ADD PUSH3 0xEF8 JUMP JUMPDEST POP POP PUSH1 0x1 PUSH1 0x1 PUSH1 0xA0 SHL SUB DUP11 AND SWAP1 DUP9 ADD MSTORE DUP7 DUP2 SUB PUSH1 0x40 DUP9 ADD MSTORE PUSH3 0xFC8 DUP2 DUP10 PUSH3 0xEA1 JUMP JUMPDEST SWAP11 SWAP10 POP POP POP POP POP POP POP POP POP POP JUMP JUMPDEST PUSH1 0x0 DUP2 PUSH3 0xFE8 JUMPI PUSH3 0xFE8 PUSH3 0xE40 JUMP JUMPDEST POP PUSH1 0x0 NOT ADD SWAP1 JUMP JUMPDEST PUSH1 0x0 DUP2 PUSH1 0x0 NOT DIV DUP4 GT DUP3 ISZERO ISZERO AND ISZERO PUSH3 0x100D JUMPI PUSH3 0x100D PUSH3 0xE40 JUMP JUMPDEST POP MUL SWAP1 JUMP JUMPDEST PUSH1 0x0 DUP3 NOT DUP3 GT ISZERO PUSH3 0x1028 JUMPI PUSH3 0x1028 PUSH3 0xE40 JUMP JUMPDEST POP ADD SWAP1 JUMP JUMPDEST PUSH1 0x0 DUP3 MLOAD PUSH3 0x1041 DUP2 DUP5 PUSH1 0x20 DUP8 ADD PUSH3 0xE72 JUMP JUMPDEST SWAP2 SWAP1 SWAP2 ADD SWAP3 SWAP2 POP POP JUMP JUMPDEST PUSH1 0x20 DUP2 MSTORE PUSH1 0x0 PUSH3 0x1060 PUSH1 0x20 DUP4 ADD DUP5 PUSH3 0xEA1 JUMP JUMPDEST SWAP4 SWAP3 POP POP POP JUMP JUMPDEST PUSH2 0xFB4 DUP1 PUSH3 0x1077 PUSH1 0x0 CODECOPY PUSH1 0x0 RETURN INVALID PUSH1 0x80 PUSH1 0x40 MSTORE CALLDATASIZE PUSH2 0xB JUMPI STOP JUMPDEST PUSH1 0x0 DUP1 CALLDATALOAD PUSH1 0x1 PUSH1 0x1 PUSH1 0xE0 SHL SUB NOT AND DUP2 MSTORE PUSH1 0x0 DUP1 MLOAD PUSH1 0x20 PUSH2 0xEEB DUP4 CODECOPY DUP2 MLOAD SWAP2 MSTORE PUSH1 0x20 DUP2 SWAP1 MSTORE PUSH1 0x40 SWAP1 SWAP2 KECCAK256 SLOAD DUP2 SWAP1 PUSH1 0x60 SHR DUP1 PUSH2 0x8C JUMPI PUSH1 0x40 MLOAD PUSH3 0x461BCD PUSH1 0xE5 SHL DUP2 MSTORE PUSH1 0x20 PUSH1 0x4 DUP3 ADD DUP2 SWAP1 MSTORE PUSH1 0x24 DUP3 ADD MSTORE PUSH32 0x4469616D6F6E643A2046756E6374696F6E20646F6573206E6F74206578697374 PUSH1 0x44 DUP3 ADD MSTORE PUSH1 0x64 ADD JUMPDEST PUSH1 0x40 MLOAD DUP1 SWAP2 SUB SWAP1 REVERT JUMPDEST CALLDATASIZE PUSH1 0x0 DUP1 CALLDATACOPY PUSH1 0x0 DUP1 CALLDATASIZE PUSH1 0x0 DUP5 GAS DELEGATECALL RETURNDATASIZE PUSH1 0x0 DUP1 RETURNDATACOPY DUP1 DUP1 ISZERO PUSH2 0xAB JUMPI RETURNDATASIZE PUSH1 0x0 RETURN JUMPDEST RETURNDATASIZE PUSH1 0x0 REVERT JUMPDEST PUSH32 0xC8FCAD8DB84D3CC18B4C41D551EA0EE66DD599CDE068D998E57D5E09332C1320 DUP1 SLOAD PUSH1 0x1 PUSH1 0x1 PUSH1 0xA0 SHL SUB NOT DUP2 AND PUSH1 0x1 PUSH1 0x1 PUSH1 0xA0 SHL SUB DUP5 DUP2 AND SWAP2 DUP3 OR SWAP1 SWAP4 SSTORE PUSH1 0x40 MLOAD PUSH1 0x0 DUP1 MLOAD PUSH1 0x20 PUSH2 0xEEB DUP4 CODECOPY DUP2 MLOAD SWAP2 MSTORE SWAP4 SWAP1 SWAP3 AND SWAP2 DUP3 SWAP1 PUSH32 0x8BE0079C531659141344CD1FD0A4F28419497F9722A3DAAFE3B4186F6B6457E0 SWAP1 PUSH1 0x0 SWAP1 LOG3 POP POP POP JUMP JUMPDEST PUSH32 0xC8FCAD8DB84D3CC18B4C41D551EA0EE66DD599CDE068D998E57D5E09332C131E SLOAD PUSH1 0x0 DUP1 MLOAD PUSH1 0x20 PUSH2 0xEEB DUP4 CODECOPY DUP2 MLOAD SWAP2 MSTORE SWAP1 PUSH2 0xFFFF DUP2 AND SWAP1 DUP2 SWAP1 PUSH1 0x0 SWAP1 PUSH1 0x7 AND ISZERO PUSH2 0x190 JUMPI POP PUSH1 0x3 DUP2 SWAP1 SHR PUSH1 0x0 SWAP1 DUP2 MSTORE PUSH1 0x1 DUP5 ADD PUSH1 0x20 MSTORE PUSH1 0x40 SWAP1 KECCAK256 SLOAD JUMPDEST PUSH1 0x0 JUMPDEST DUP8 MLOAD DUP2 LT ISZERO PUSH2 0x217 JUMPI PUSH2 0x200 DUP4 DUP4 DUP11 DUP5 DUP2 MLOAD DUP2 LT PUSH2 0x1B3 JUMPI PUSH2 0x1B3 PUSH2 0xCB3 JUMP JUMPDEST PUSH1 0x20 MUL PUSH1 0x20 ADD ADD MLOAD PUSH1 0x0 ADD MLOAD DUP12 DUP6 DUP2 MLOAD DUP2 LT PUSH2 0x1D1 JUMPI PUSH2 0x1D1 PUSH2 0xCB3 JUMP JUMPDEST PUSH1 0x20 MUL PUSH1 0x20 ADD ADD MLOAD PUSH1 0x20 ADD MLOAD DUP13 DUP7 DUP2 MLOAD DUP2 LT PUSH2 0x1EF JUMPI PUSH2 0x1EF PUSH2 0xCB3 JUMP JUMPDEST PUSH1 0x20 MUL PUSH1 0x20 ADD ADD MLOAD PUSH1 0x40 ADD MLOAD PUSH2 0x2A3 JUMP JUMPDEST SWAP1 SWAP4 POP SWAP2 POP DUP1 PUSH2 0x20F DUP2 PUSH2 0xCDF JUMP JUMPDEST SWAP2 POP POP PUSH2 0x193 JUMP JUMPDEST POP DUP3 DUP3 EQ PUSH2 0x233 JUMPI PUSH1 0x2 DUP5 ADD DUP1 SLOAD PUSH2 0xFFFF NOT AND PUSH2 0xFFFF DUP5 AND OR SWAP1 SSTORE JUMPDEST PUSH1 0x7 DUP3 AND ISZERO PUSH2 0x255 JUMPI PUSH1 0x3 DUP3 SWAP1 SHR PUSH1 0x0 SWAP1 DUP2 MSTORE PUSH1 0x1 DUP6 ADD PUSH1 0x20 MSTORE PUSH1 0x40 SWAP1 KECCAK256 DUP2 SWAP1 SSTORE JUMPDEST PUSH32 0x8FAA70878671CCD212D20771B795C50AF8FD3FF6CF27F4BDE57E5D4DE0AEB673 DUP8 DUP8 DUP8 PUSH1 0x40 MLOAD PUSH2 0x288 SWAP4 SWAP3 SWAP2 SWAP1 PUSH2 0xD66 JUMP JUMPDEST PUSH1 0x40 MLOAD DUP1 SWAP2 SUB SWAP1 LOG1 PUSH2 0x29A DUP7 DUP7 PUSH2 0xA7F JUMP JUMPDEST POP POP POP POP POP POP POP JUMP JUMPDEST PUSH1 0x0 DUP1 DUP1 PUSH1 0x0 DUP1 MLOAD PUSH1 0x20 PUSH2 0xEEB DUP4 CODECOPY DUP2 MLOAD SWAP2 MSTORE SWAP1 POP PUSH1 0x0 DUP5 MLOAD GT PUSH2 0x31D JUMPI PUSH1 0x40 MLOAD PUSH3 0x461BCD PUSH1 0xE5 SHL DUP2 MSTORE PUSH1 0x20 PUSH1 0x4 DUP3 ADD MSTORE PUSH1 0x2B PUSH1 0x24 DUP3 ADD MSTORE PUSH32 0x4C69624469616D6F6E644375743A204E6F2073656C6563746F727320696E2066 PUSH1 0x44 DUP3 ADD MSTORE PUSH11 0x1858D95D081D1BC818DD5D PUSH1 0xAA SHL PUSH1 0x64 DUP3 ADD MSTORE PUSH1 0x84 ADD PUSH2 0x83 JUMP JUMPDEST PUSH1 0x0 DUP6 PUSH1 0x2 DUP2 GT ISZERO PUSH2 0x331 JUMPI PUSH2 0x331 PUSH2 0xCF8 JUMP JUMPDEST SUB PUSH2 0x49E JUMPI PUSH2 0x358 DUP7 PUSH1 0x40 MLOAD DUP1 PUSH1 0x60 ADD PUSH1 0x40 MSTORE DUP1 PUSH1 0x24 DUP2 MSTORE PUSH1 0x20 ADD PUSH2 0xF0B PUSH1 0x24 SWAP2 CODECOPY PUSH2 0xC92 JUMP JUMPDEST PUSH1 0x0 JUMPDEST DUP5 MLOAD DUP2 LT ISZERO PUSH2 0x498 JUMPI PUSH1 0x0 DUP6 DUP3 DUP2 MLOAD DUP2 LT PUSH2 0x378 JUMPI PUSH2 0x378 PUSH2 0xCB3 JUMP JUMPDEST PUSH1 0x20 SWAP1 DUP2 MUL SWAP2 SWAP1 SWAP2 ADD DUP2 ADD MLOAD PUSH1 0x1 PUSH1 0x1 PUSH1 0xE0 SHL SUB NOT DUP2 AND PUSH1 0x0 SWAP1 DUP2 MSTORE SWAP2 DUP6 SWAP1 MSTORE PUSH1 0x40 SWAP1 SWAP2 KECCAK256 SLOAD SWAP1 SWAP2 POP PUSH1 0x60 DUP2 SWAP1 SHR ISZERO PUSH2 0x411 JUMPI PUSH1 0x40 MLOAD PUSH3 0x461BCD PUSH1 0xE5 SHL DUP2 MSTORE PUSH1 0x20 PUSH1 0x4 DUP3 ADD MSTORE PUSH1 0x35 PUSH1 0x24 DUP3 ADD MSTORE PUSH32 0x4C69624469616D6F6E644375743A2043616E2774206164642066756E6374696F PUSH1 0x44 DUP3 ADD MSTORE PUSH21 0x6E207468617420616C726561647920657869737473 PUSH1 0x58 SHL PUSH1 0x64 DUP3 ADD MSTORE PUSH1 0x84 ADD PUSH2 0x83 JUMP JUMPDEST PUSH1 0x1 PUSH1 0x1 PUSH1 0xE0 SHL SUB NOT DUP1 DUP4 AND PUSH1 0x0 DUP2 DUP2 MSTORE PUSH1 0x20 DUP8 SWAP1 MSTORE PUSH1 0x40 SWAP1 KECCAK256 PUSH1 0x1 PUSH1 0x1 PUSH1 0x60 SHL SUB NOT PUSH1 0x60 DUP14 SWAP1 SHL AND DUP15 OR SWAP1 SSTORE PUSH1 0xE0 PUSH1 0x5 DUP15 SWAP1 SHL DUP2 AND SWAP3 DUP4 SHR NOT SWAP13 SWAP1 SWAP13 AND SWAP1 DUP3 SHR OR SWAP11 DUP2 SWAP1 SUB PUSH2 0x475 JUMPI PUSH1 0x3 DUP13 SWAP1 SHR PUSH1 0x0 SWAP1 DUP2 MSTORE PUSH1 0x1 DUP7 ADD PUSH1 0x20 MSTORE PUSH1 0x40 DUP2 KECCAK256 SWAP12 SWAP1 SWAP12 SSTORE JUMPDEST DUP12 PUSH2 0x47F DUP2 PUSH2 0xCDF JUMP JUMPDEST SWAP13 POP POP POP POP POP DUP1 DUP1 PUSH2 0x490 SWAP1 PUSH2 0xCDF JUMP JUMPDEST SWAP2 POP POP PUSH2 0x35B JUMP JUMPDEST POP PUSH2 0xA73 JUMP JUMPDEST PUSH1 0x1 DUP6 PUSH1 0x2 DUP2 GT ISZERO PUSH2 0x4B2 JUMPI PUSH2 0x4B2 PUSH2 0xCF8 JUMP JUMPDEST SUB PUSH2 0x6E1 JUMPI PUSH2 0x4D9 DUP7 PUSH1 0x40 MLOAD DUP1 PUSH1 0x60 ADD PUSH1 0x40 MSTORE DUP1 PUSH1 0x28 DUP2 MSTORE PUSH1 0x20 ADD PUSH2 0xF57 PUSH1 0x28 SWAP2 CODECOPY PUSH2 0xC92 JUMP JUMPDEST PUSH1 0x0 JUMPDEST DUP5 MLOAD DUP2 LT ISZERO PUSH2 0x498 JUMPI PUSH1 0x0 DUP6 DUP3 DUP2 MLOAD DUP2 LT PUSH2 0x4F9 JUMPI PUSH2 0x4F9 PUSH2 0xCB3 JUMP JUMPDEST PUSH1 0x20 SWAP1 DUP2 MUL SWAP2 SWAP1 SWAP2 ADD DUP2 ADD MLOAD PUSH1 0x1 PUSH1 0x1 PUSH1 0xE0 SHL SUB NOT DUP2 AND PUSH1 0x0 SWAP1 DUP2 MSTORE SWAP2 DUP6 SWAP1 MSTORE PUSH1 0x40 SWAP1 SWAP2 KECCAK256 SLOAD SWAP1 SWAP2 POP PUSH1 0x60 DUP2 SWAP1 SHR ADDRESS DUP2 SUB PUSH2 0x58E JUMPI PUSH1 0x40 MLOAD PUSH3 0x461BCD PUSH1 0xE5 SHL DUP2 MSTORE PUSH1 0x20 PUSH1 0x4 DUP3 ADD MSTORE PUSH1 0x2F PUSH1 0x24 DUP3 ADD MSTORE PUSH32 0x4C69624469616D6F6E644375743A2043616E2774207265706C61636520696D6D PUSH1 0x44 DUP3 ADD MSTORE PUSH15 0x3ABA30B1363290333AB731BA34B7B7 PUSH1 0x89 SHL PUSH1 0x64 DUP3 ADD MSTORE PUSH1 0x84 ADD PUSH2 0x83 JUMP JUMPDEST DUP10 PUSH1 0x1 PUSH1 0x1 PUSH1 0xA0 SHL SUB AND DUP2 PUSH1 0x1 PUSH1 0x1 PUSH1 0xA0 SHL SUB AND SUB PUSH2 0x615 JUMPI PUSH1 0x40 MLOAD PUSH3 0x461BCD PUSH1 0xE5 SHL DUP2 MSTORE PUSH1 0x20 PUSH1 0x4 DUP3 ADD MSTORE PUSH1 0x38 PUSH1 0x24 DUP3 ADD MSTORE PUSH32 0x4C69624469616D6F6E644375743A2043616E2774207265706C6163652066756E PUSH1 0x44 DUP3 ADD MSTORE PUSH32 0x6374696F6E20776974682073616D652066756E6374696F6E0000000000000000 PUSH1 0x64 DUP3 ADD MSTORE PUSH1 0x84 ADD PUSH2 0x83 JUMP JUMPDEST PUSH1 0x1 PUSH1 0x1 PUSH1 0xA0 SHL SUB DUP2 AND PUSH2 0x691 JUMPI PUSH1 0x40 MLOAD PUSH3 0x461BCD PUSH1 0xE5 SHL DUP2 MSTORE PUSH1 0x20 PUSH1 0x4 DUP3 ADD MSTORE PUSH1 0x38 PUSH1 0x24 DUP3 ADD MSTORE PUSH32 0x4C69624469616D6F6E644375743A2043616E2774207265706C6163652066756E PUSH1 0x44 DUP3 ADD MSTORE PUSH32 0x6374696F6E207468617420646F65736E27742065786973740000000000000000 PUSH1 0x64 DUP3 ADD MSTORE PUSH1 0x84 ADD PUSH2 0x83 JUMP JUMPDEST POP PUSH1 0x1 PUSH1 0x1 PUSH1 0xE0 SHL SUB NOT SWAP1 SWAP2 AND PUSH1 0x0 SWAP1 DUP2 MSTORE PUSH1 0x20 DUP5 SWAP1 MSTORE PUSH1 0x40 SWAP1 KECCAK256 PUSH12 0xFFFFFFFFFFFFFFFFFFFFFFFF SWAP2 SWAP1 SWAP2 AND PUSH1 0x1 PUSH1 0x1 PUSH1 0x60 SHL SUB NOT PUSH1 0x60 DUP11 SWAP1 SHL AND OR SWAP1 SSTORE DUP1 PUSH2 0x6D9 DUP2 PUSH2 0xCDF JUMP JUMPDEST SWAP2 POP POP PUSH2 0x4DC JUMP JUMPDEST PUSH1 0x2 DUP6 PUSH1 0x2 DUP2 GT ISZERO PUSH2 0x6F5 JUMPI PUSH2 0x6F5 PUSH2 0xCF8 JUMP JUMPDEST SUB PUSH2 0xA1B JUMPI PUSH1 0x1 PUSH1 0x1 PUSH1 0xA0 SHL SUB DUP7 AND ISZERO PUSH2 0x770 JUMPI PUSH1 0x40 MLOAD PUSH3 0x461BCD PUSH1 0xE5 SHL DUP2 MSTORE PUSH1 0x20 PUSH1 0x4 DUP3 ADD MSTORE PUSH1 0x36 PUSH1 0x24 DUP3 ADD MSTORE PUSH32 0x4C69624469616D6F6E644375743A2052656D6F76652066616365742061646472 PUSH1 0x44 DUP3 ADD MSTORE PUSH22 0x657373206D7573742062652061646472657373283029 PUSH1 0x50 SHL PUSH1 0x64 DUP3 ADD MSTORE PUSH1 0x84 ADD PUSH2 0x83 JUMP JUMPDEST PUSH1 0x3 DUP9 SWAP1 SHR PUSH1 0x7 DUP10 AND PUSH1 0x0 JUMPDEST DUP7 MLOAD DUP2 LT ISZERO PUSH2 0x9FB JUMPI PUSH1 0x0 DUP11 SWAP1 SUB PUSH2 0x7B8 JUMPI DUP3 PUSH2 0x798 DUP2 PUSH2 0xE66 JUMP JUMPDEST PUSH1 0x0 DUP2 DUP2 MSTORE PUSH1 0x1 DUP8 ADD PUSH1 0x20 MSTORE PUSH1 0x40 SWAP1 KECCAK256 SLOAD SWAP12 POP SWAP4 POP PUSH1 0x7 SWAP3 POP PUSH2 0x7C6 SWAP1 POP JUMP JUMPDEST DUP2 PUSH2 0x7C2 DUP2 PUSH2 0xE66 JUMP JUMPDEST SWAP3 POP POP JUMPDEST PUSH1 0x0 DUP1 PUSH1 0x0 DUP1 DUP11 DUP6 DUP2 MLOAD DUP2 LT PUSH2 0x7DE JUMPI PUSH2 0x7DE PUSH2 0xCB3 JUMP JUMPDEST PUSH1 0x20 SWAP1 DUP2 MUL SWAP2 SWAP1 SWAP2 ADD DUP2 ADD MLOAD PUSH1 0x1 PUSH1 0x1 PUSH1 0xE0 SHL SUB NOT DUP2 AND PUSH1 0x0 SWAP1 DUP2 MSTORE SWAP2 DUP11 SWAP1 MSTORE PUSH1 0x40 SWAP1 SWAP2 KECCAK256 SLOAD SWAP1 SWAP2 POP PUSH1 0x60 DUP2 SWAP1 SHR PUSH2 0x87E JUMPI PUSH1 0x40 MLOAD PUSH3 0x461BCD PUSH1 0xE5 SHL DUP2 MSTORE PUSH1 0x20 PUSH1 0x4 DUP3 ADD MSTORE PUSH1 0x37 PUSH1 0x24 DUP3 ADD MSTORE PUSH32 0x4C69624469616D6F6E644375743A2043616E27742072656D6F76652066756E63 PUSH1 0x44 DUP3 ADD MSTORE PUSH32 0x74696F6E207468617420646F65736E2774206578697374000000000000000000 PUSH1 0x64 DUP3 ADD MSTORE PUSH1 0x84 ADD PUSH2 0x83 JUMP JUMPDEST ADDRESS PUSH1 0x60 DUP3 SWAP1 SHR SUB PUSH2 0x8E8 JUMPI PUSH1 0x40 MLOAD PUSH3 0x461BCD PUSH1 0xE5 SHL DUP2 MSTORE PUSH1 0x20 PUSH1 0x4 DUP3 ADD MSTORE PUSH1 0x2E PUSH1 0x24 DUP3 ADD MSTORE PUSH32 0x4C69624469616D6F6E644375743A2043616E27742072656D6F766520696D6D75 PUSH1 0x44 DUP3 ADD MSTORE PUSH14 0x3A30B1363290333AB731BA34B7B7 PUSH1 0x91 SHL PUSH1 0x64 DUP3 ADD MSTORE PUSH1 0x84 ADD PUSH2 0x83 JUMP JUMPDEST PUSH1 0x5 DUP8 SWAP1 SHL DUP16 SWAP1 SHL SWAP5 POP PUSH1 0x1 PUSH1 0x1 PUSH1 0xE0 SHL SUB NOT DUP1 DUP7 AND SWAP1 DUP4 AND EQ PUSH2 0x93E JUMPI PUSH1 0x1 PUSH1 0x1 PUSH1 0xE0 SHL SUB NOT DUP6 AND PUSH1 0x0 SWAP1 DUP2 MSTORE PUSH1 0x20 DUP11 SWAP1 MSTORE PUSH1 0x40 SWAP1 KECCAK256 DUP1 SLOAD PUSH1 0x1 PUSH1 0x1 PUSH1 0x60 SHL SUB NOT AND PUSH12 0xFFFFFFFFFFFFFFFFFFFFFFFF DUP4 AND OR SWAP1 SSTORE JUMPDEST PUSH1 0x1 PUSH1 0x1 PUSH1 0xE0 SHL SUB NOT SWAP2 SWAP1 SWAP2 AND PUSH1 0x0 SWAP1 DUP2 MSTORE PUSH1 0x20 DUP10 SWAP1 MSTORE PUSH1 0x40 DUP2 KECCAK256 SSTORE PUSH1 0x3 DUP2 SWAP1 SHR PUSH2 0x1FFF AND SWAP3 POP PUSH1 0x5 SHL PUSH1 0xE0 AND SWAP1 POP DUP6 DUP3 EQ PUSH2 0x9A3 JUMPI PUSH1 0x0 DUP3 DUP2 MSTORE PUSH1 0x1 DUP9 ADD PUSH1 0x20 MSTORE PUSH1 0x40 SWAP1 KECCAK256 DUP1 SLOAD PUSH1 0x1 PUSH1 0x1 PUSH1 0xE0 SHL SUB NOT DUP1 DUP5 SHR NOT SWAP1 SWAP2 AND SWAP1 DUP6 AND DUP4 SHR OR SWAP1 SSTORE PUSH2 0x9C7 JUMP JUMPDEST DUP1 DUP4 PUSH1 0x1 PUSH1 0x1 PUSH1 0xE0 SHL SUB NOT AND SWAP1 SHR DUP2 PUSH1 0x1 PUSH1 0x1 PUSH1 0xE0 SHL SUB NOT PUSH1 0x0 SHL SWAP1 SHR NOT DUP15 AND OR SWAP13 POP JUMPDEST DUP5 PUSH1 0x0 SUB PUSH2 0x9E5 JUMPI PUSH1 0x0 DUP7 DUP2 MSTORE PUSH1 0x1 DUP9 ADD PUSH1 0x20 MSTORE PUSH1 0x40 DUP2 KECCAK256 DUP2 SWAP1 SSTORE SWAP13 POP JUMPDEST POP POP POP DUP1 DUP1 PUSH2 0x9F3 SWAP1 PUSH2 0xCDF JUMP JUMPDEST SWAP2 POP POP PUSH2 0x77C JUMP JUMPDEST POP DUP1 PUSH2 0xA08 DUP4 PUSH1 0x8 PUSH2 0xE7D JUMP JUMPDEST PUSH2 0xA12 SWAP2 SWAP1 PUSH2 0xE9C JUMP JUMPDEST SWAP10 POP POP POP PUSH2 0xA73 JUMP JUMPDEST PUSH1 0x40 MLOAD PUSH3 0x461BCD PUSH1 0xE5 SHL DUP2 MSTORE PUSH1 0x20 PUSH1 0x4 DUP3 ADD MSTORE PUSH1 0x27 PUSH1 0x24 DUP3 ADD MSTORE PUSH32 0x4C69624469616D6F6E644375743A20496E636F72726563742046616365744375 PUSH1 0x44 DUP3 ADD MSTORE PUSH7 0x3A20B1BA34B7B7 PUSH1 0xC9 SHL PUSH1 0x64 DUP3 ADD MSTORE PUSH1 0x84 ADD PUSH2 0x83 JUMP JUMPDEST POP SWAP6 SWAP7 SWAP5 SWAP6 POP POP POP POP POP JUMP JUMPDEST PUSH1 0x1 PUSH1 0x1 PUSH1 0xA0 SHL SUB DUP3 AND PUSH2 0xB06 JUMPI DUP1 MLOAD ISZERO PUSH2 0xB02 JUMPI PUSH1 0x40 MLOAD PUSH3 0x461BCD PUSH1 0xE5 SHL DUP2 MSTORE PUSH1 0x20 PUSH1 0x4 DUP3 ADD MSTORE PUSH1 0x3C PUSH1 0x24 DUP3 ADD MSTORE PUSH32 0x4C69624469616D6F6E644375743A205F696E6974206973206164647265737328 PUSH1 0x44 DUP3 ADD MSTORE PUSH32 0x3029206275745F63616C6C64617461206973206E6F7420656D70747900000000 PUSH1 0x64 DUP3 ADD MSTORE PUSH1 0x84 ADD PUSH2 0x83 JUMP JUMPDEST POP POP JUMP JUMPDEST PUSH1 0x0 DUP2 MLOAD GT PUSH2 0xB7D JUMPI PUSH1 0x40 MLOAD PUSH3 0x461BCD PUSH1 0xE5 SHL DUP2 MSTORE PUSH1 0x20 PUSH1 0x4 DUP3 ADD MSTORE PUSH1 0x3D PUSH1 0x24 DUP3 ADD MSTORE PUSH32 0x4C69624469616D6F6E644375743A205F63616C6C6461746120697320656D7074 PUSH1 0x44 DUP3 ADD MSTORE PUSH32 0x7920627574205F696E6974206973206E6F742061646472657373283029000000 PUSH1 0x64 DUP3 ADD MSTORE PUSH1 0x84 ADD PUSH2 0x83 JUMP JUMPDEST PUSH1 0x1 PUSH1 0x1 PUSH1 0xA0 SHL SUB DUP3 AND ADDRESS EQ PUSH2 0xBAF JUMPI PUSH2 0xBAF DUP3 PUSH1 0x40 MLOAD DUP1 PUSH1 0x60 ADD PUSH1 0x40 MSTORE DUP1 PUSH1 0x28 DUP2 MSTORE PUSH1 0x20 ADD PUSH2 0xF2F PUSH1 0x28 SWAP2 CODECOPY PUSH2 0xC92 JUMP JUMPDEST PUSH1 0x0 DUP1 DUP4 PUSH1 0x1 PUSH1 0x1 PUSH1 0xA0 SHL SUB AND DUP4 PUSH1 0x40 MLOAD PUSH2 0xBCA SWAP2 SWAP1 PUSH2 0xEB4 JUMP JUMPDEST PUSH1 0x0 PUSH1 0x40 MLOAD DUP1 DUP4 SUB DUP2 DUP6 GAS DELEGATECALL SWAP2 POP POP RETURNDATASIZE DUP1 PUSH1 0x0 DUP2 EQ PUSH2 0xC05 JUMPI PUSH1 0x40 MLOAD SWAP2 POP PUSH1 0x1F NOT PUSH1 0x3F RETURNDATASIZE ADD AND DUP3 ADD PUSH1 0x40 MSTORE RETURNDATASIZE DUP3 MSTORE RETURNDATASIZE PUSH1 0x0 PUSH1 0x20 DUP5 ADD RETURNDATACOPY PUSH2 0xC0A JUMP JUMPDEST PUSH1 0x60 SWAP2 POP JUMPDEST POP SWAP2 POP SWAP2 POP DUP2 PUSH2 0xC8C JUMPI DUP1 MLOAD ISZERO PUSH2 0xC35 JUMPI DUP1 PUSH1 0x40 MLOAD PUSH3 0x461BCD PUSH1 0xE5 SHL DUP2 MSTORE PUSH1 0x4 ADD PUSH2 0x83 SWAP2 SWAP1 PUSH2 0xED0 JUMP JUMPDEST PUSH1 0x40 MLOAD PUSH3 0x461BCD PUSH1 0xE5 SHL DUP2 MSTORE PUSH1 0x20 PUSH1 0x4 DUP3 ADD MSTORE PUSH1 0x26 PUSH1 0x24 DUP3 ADD MSTORE PUSH32 0x4C69624469616D6F6E644375743A205F696E69742066756E6374696F6E207265 PUSH1 0x44 DUP3 ADD MSTORE PUSH6 0x1D995C9D1959 PUSH1 0xD2 SHL PUSH1 0x64 DUP3 ADD MSTORE PUSH1 0x84 ADD PUSH2 0x83 JUMP JUMPDEST POP POP POP POP JUMP JUMPDEST DUP2 EXTCODESIZE DUP2 DUP2 PUSH2 0xC8C JUMPI PUSH1 0x40 MLOAD PUSH3 0x461BCD PUSH1 0xE5 SHL DUP2 MSTORE PUSH1 0x4 ADD PUSH2 0x83 SWAP2 SWAP1 PUSH2 0xED0 JUMP JUMPDEST PUSH4 0x4E487B71 PUSH1 0xE0 SHL PUSH1 0x0 MSTORE PUSH1 0x32 PUSH1 0x4 MSTORE PUSH1 0x24 PUSH1 0x0 REVERT JUMPDEST PUSH4 0x4E487B71 PUSH1 0xE0 SHL PUSH1 0x0 MSTORE PUSH1 0x11 PUSH1 0x4 MSTORE PUSH1 0x24 PUSH1 0x0 REVERT JUMPDEST PUSH1 0x0 PUSH1 0x1 DUP3 ADD PUSH2 0xCF1 JUMPI PUSH2 0xCF1 PUSH2 0xCC9 JUMP JUMPDEST POP PUSH1 0x1 ADD SWAP1 JUMP JUMPDEST PUSH4 0x4E487B71 PUSH1 0xE0 SHL PUSH1 0x0 MSTORE PUSH1 0x21 PUSH1 0x4 MSTORE PUSH1 0x24 PUSH1 0x0 REVERT JUMPDEST PUSH1 0x0 JUMPDEST DUP4 DUP2 LT ISZERO PUSH2 0xD29 JUMPI DUP2 DUP2 ADD MLOAD DUP4 DUP3 ADD MSTORE PUSH1 0x20 ADD PUSH2 0xD11 JUMP JUMPDEST DUP4 DUP2 GT ISZERO PUSH2 0xC8C JUMPI POP POP PUSH1 0x0 SWAP2 ADD MSTORE JUMP JUMPDEST PUSH1 0x0 DUP2 MLOAD DUP1 DUP5 MSTORE PUSH2 0xD52 DUP2 PUSH1 0x20 DUP7 ADD PUSH1 0x20 DUP7 ADD PUSH2 0xD0E JUMP JUMPDEST PUSH1 0x1F ADD PUSH1 0x1F NOT AND SWAP3 SWAP1 SWAP3 ADD PUSH1 0x20 ADD SWAP3 SWAP2 POP POP JUMP JUMPDEST PUSH1 0x0 PUSH1 0x60 DUP1 DUP4 ADD DUP2 DUP5 MSTORE DUP1 DUP8 MLOAD DUP1 DUP4 MSTORE PUSH1 0x80 SWAP3 POP DUP3 DUP7 ADD SWAP2 POP DUP3 DUP2 PUSH1 0x5 SHL DUP8 ADD ADD PUSH1 0x20 DUP1 DUP12 ADD PUSH1 0x0 JUMPDEST DUP5 DUP2 LT ISZERO PUSH2 0xE36 JUMPI DUP10 DUP5 SUB PUSH1 0x7F NOT ADD DUP7 MSTORE DUP2 MLOAD DUP1 MLOAD PUSH1 0x1 PUSH1 0x1 PUSH1 0xA0 SHL SUB AND DUP6 MSTORE DUP4 DUP2 ADD MLOAD DUP10 DUP7 ADD SWAP1 PUSH1 0x3 DUP2 LT PUSH2 0xDD5 JUMPI PUSH4 0x4E487B71 PUSH1 0xE0 SHL PUSH1 0x0 MSTORE PUSH1 0x21 PUSH1 0x4 MSTORE PUSH1 0x24 PUSH1 0x0 REVERT JUMPDEST DUP7 DUP7 ADD MSTORE PUSH1 0x40 SWAP2 DUP3 ADD MLOAD SWAP2 DUP7 ADD DUP11 SWAP1 MSTORE DUP2 MLOAD SWAP1 DUP2 SWAP1 MSTORE SWAP1 DUP5 ADD SWAP1 PUSH1 0x0 SWAP1 DUP10 DUP8 ADD SWAP1 JUMPDEST DUP1 DUP4 LT ISZERO PUSH2 0xE21 JUMPI DUP4 MLOAD PUSH1 0x1 PUSH1 0x1 PUSH1 0xE0 SHL SUB NOT AND DUP3 MSTORE SWAP3 DUP7 ADD SWAP3 PUSH1 0x1 SWAP3 SWAP1 SWAP3 ADD SWAP2 SWAP1 DUP7 ADD SWAP1 PUSH2 0xDF7 JUMP JUMPDEST POP SWAP8 DUP6 ADD SWAP8 SWAP6 POP POP POP SWAP1 DUP3 ADD SWAP1 PUSH1 0x1 ADD PUSH2 0xD8F JUMP JUMPDEST POP POP PUSH1 0x1 PUSH1 0x1 PUSH1 0xA0 SHL SUB DUP11 AND SWAP1 DUP9 ADD MSTORE DUP7 DUP2 SUB PUSH1 0x40 DUP9 ADD MSTORE PUSH2 0xE58 DUP2 DUP10 PUSH2 0xD3A JUMP JUMPDEST SWAP11 SWAP10 POP POP POP POP POP POP POP POP POP POP JUMP JUMPDEST PUSH1 0x0 DUP2 PUSH2 0xE75 JUMPI PUSH2 0xE75 PUSH2 0xCC9 JUMP JUMPDEST POP PUSH1 0x0 NOT ADD SWAP1 JUMP JUMPDEST PUSH1 0x0 DUP2 PUSH1 0x0 NOT DIV DUP4 GT DUP3 ISZERO ISZERO AND ISZERO PUSH2 0xE97 JUMPI PUSH2 0xE97 PUSH2 0xCC9 JUMP JUMPDEST POP MUL SWAP1 JUMP JUMPDEST PUSH1 0x0 DUP3 NOT DUP3 GT ISZERO PUSH2 0xEAF JUMPI PUSH2 0xEAF PUSH2 0xCC9 JUMP JUMPDEST POP ADD SWAP1 JUMP JUMPDEST PUSH1 0x0 DUP3 MLOAD PUSH2 0xEC6 DUP2 DUP5 PUSH1 0x20 DUP8 ADD PUSH2 0xD0E JUMP JUMPDEST SWAP2 SWAP1 SWAP2 ADD SWAP3 SWAP2 POP POP JUMP JUMPDEST PUSH1 0x20 DUP2 MSTORE PUSH1 0x0 PUSH2 0xEE3 PUSH1 0x20 DUP4 ADD DUP5 PUSH2 0xD3A JUMP JUMPDEST SWAP4 SWAP3 POP POP POP JUMP INVALID 0xC8 0xFC 0xAD DUP14 0xB8 0x4D EXTCODECOPY 0xC1 DUP12 0x4C COINBASE 0xD5 MLOAD 0xEA 0xE 0xE6 PUSH14 0xD599CDE068D998E57D5E09332C13 SHR 0x4C PUSH10 0x624469616D6F6E644375 PUSH21 0x3A2041646420666163657420686173206E6F20636F PUSH5 0x654C696244 PUSH10 0x616D6F6E644375743A20 0x5F PUSH10 0x6E697420616464726573 PUSH20 0x20686173206E6F20636F64654C69624469616D6F PUSH15 0x644375743A205265706C6163652066 PUSH2 0x6365 PUSH21 0x20686173206E6F20636F6465A26469706673582212 KECCAK256 0x4E PUSH12 0x6E58423BE59A39C21641051D PUSH12 0xD7ED7F64B27B6FDCBCF32291 0xC9 DUP14 0xDD DUP2 EQ PUSH5 0x736F6C6343 STOP ADDMOD 0xD STOP CALLER 0x4C PUSH10 0x624469616D6F6E644375 PUSH21 0x3A2043616E2774207265706C6163652066756EC8FC 0xAD DUP14 0xB8 0x4D EXTCODECOPY 0xC1 DUP12 0x4C COINBASE 0xD5 MLOAD 0xEA 0xE 0xE6 PUSH14 0xD599CDE068D998E57D5E09332C13 SHR 0x4C PUSH10 0x624469616D6F6E644375 PUSH21 0x3A2041646420666163657420686173206E6F20636F PUSH5 0x654C696244 PUSH10 0x616D6F6E644375743A20 0x5F PUSH10 0x6E697420616464726573 PUSH20 0x20686173206E6F20636F64654C69624469616D6F PUSH15 0x644375743A205265706C6163652066 PUSH2 0x6365 PUSH21 0x20686173206E6F20636F6465A26469706673582212 KECCAK256 PUSH6 0x82E6EB1B5AC5 SMOD 0xA5 SWAP1 0xCC EXTCODECOPY BLOCKHASH NOT DUP10 SAR 0xC9 RETURNDATACOPY DUP5 SLOAD 0xB5 0x2D 0xB6 CODECOPY 0xC2 PUSH5 0x1E00C333F3 0x27 PUSH5 0x736F6C6343 STOP ADDMOD 0xD STOP CALLER "
    },
    "gasEstimates": {
      "creation": {
        "codeDepositCost": "2246800",
        "executionCost": "infinite",
        "totalCost": "infinite"
      },
      "external": {
        "diamondCut(uint256)": "4733",
        "diamondCutFacet()": "infinite",
        "diamondInit()": "infinite",
        "feeManagerBank()": "infinite",
        "newApplication((address,bytes32,uint256,uint256,uint256,uint256,address,address[]))": "infinite"
      }
    },
    "methodIdentifiers": {
      "diamondCut(uint256)": "04c01cc7",
      "diamondCutFacet()": "a051e9b3",
      "diamondInit()": "e6ee1d4f",
      "feeManagerBank()": "aa9a6e91",
      "newApplication((address,bytes32,uint256,uint256,uint256,uint256,address,address[]))": "94a28f32"
    }
  },
  "storageLayout": {
    "storage": [
      {
        "astId": 2312,
        "contract": "contracts/CartesiDAppFactory.sol:CartesiDAppFactory",
        "label": "diamondCut",
        "offset": 0,
        "slot": "0",
        "type": "t_array(t_struct(FacetCut)5404_storage)dyn_storage"
      }
    ],
    "types": {
      "t_address": {
        "encoding": "inplace",
        "label": "address",
        "numberOfBytes": "20"
      },
      "t_array(t_bytes4)dyn_storage": {
        "base": "t_bytes4",
        "encoding": "dynamic_array",
        "label": "bytes4[]",
        "numberOfBytes": "32"
      },
      "t_array(t_struct(FacetCut)5404_storage)dyn_storage": {
        "base": "t_struct(FacetCut)5404_storage",
        "encoding": "dynamic_array",
        "label": "struct IDiamondCut.FacetCut[]",
        "numberOfBytes": "32"
      },
      "t_bytes4": {
        "encoding": "inplace",
        "label": "bytes4",
        "numberOfBytes": "4"
      },
      "t_enum(FacetCutAction)5395": {
        "encoding": "inplace",
        "label": "enum IDiamondCut.FacetCutAction",
        "numberOfBytes": "1"
      },
      "t_struct(FacetCut)5404_storage": {
        "encoding": "inplace",
        "label": "struct IDiamondCut.FacetCut",
        "members": [
          {
            "astId": 5397,
            "contract": "contracts/CartesiDAppFactory.sol:CartesiDAppFactory",
            "label": "facetAddress",
            "offset": 0,
            "slot": "0",
            "type": "t_address"
          },
          {
            "astId": 5400,
            "contract": "contracts/CartesiDAppFactory.sol:CartesiDAppFactory",
            "label": "action",
            "offset": 20,
            "slot": "0",
            "type": "t_enum(FacetCutAction)5395"
          },
          {
            "astId": 5403,
            "contract": "contracts/CartesiDAppFactory.sol:CartesiDAppFactory",
            "label": "functionSelectors",
            "offset": 0,
            "slot": "1",
            "type": "t_array(t_bytes4)dyn_storage"
          }
        ],
        "numberOfBytes": "64"
      }
    }
  },
  "userdoc": {
    "events": {
      "ApplicationCreated(address,(address,bytes32,uint256,uint256,uint256,uint256,address,address[]))": {
        "notice": "Event emitted when a new application is deployed"
      }
    },
    "kind": "user",
    "methods": {
      "newApplication((address,bytes32,uint256,uint256,uint256,uint256,address,address[]))": {
        "notice": "Deploy a new application"
      }
    },
    "version": 1
  }
}