{
  "contractName": "CartesiMath",
  "sourceName": "@cartesi/util/contracts/CartesiMath.sol",
  "abi": [
    {
      "inputs": [
        {
          "internalType": "uint256",
          "name": "_num",
          "type": "uint256"
        }
      ],
      "name": "clz",
      "outputs": [
        {
          "internalType": "uint256",
          "name": "",
          "type": "uint256"
        }
      ],
      "stateMutability": "pure",
      "type": "function"
    },
    {
      "inputs": [
        {
          "internalType": "uint256",
          "name": "_num",
          "type": "uint256"
        }
      ],
      "name": "ctz",
      "outputs": [
        {
          "internalType": "uint256",
          "name": "",
          "type": "uint256"
        }
      ],
      "stateMutability": "pure",
      "type": "function"
    },
    {
      "inputs": [
        {
          "internalType": "uint256",
          "name": "_num",
          "type": "uint256"
        }
      ],
      "name": "getLog2Floor",
      "outputs": [
        {
          "internalType": "uint8",
          "name": "",
          "type": "uint8"
        }
      ],
      "stateMutability": "pure",
      "type": "function"
    },
    {
      "inputs": [
        {
          "internalType": "uint256",
          "name": "_num",
          "type": "uint256"
        }
      ],
      "name": "getLog2TableTimes1M",
      "outputs": [
        {
          "internalType": "uint256",
          "name": "",
          "type": "uint256"
        }
      ],
      "stateMutability": "pure",
      "type": "function"
    },
    {
      "inputs": [
        {
          "internalType": "uint256",
          "name": "_num",
          "type": "uint256"
        }
      ],
      "name": "isPowerOf2",
      "outputs": [
        {
          "internalType": "bool",
          "name": "",
          "type": "bool"
        }
      ],
      "stateMutability": "pure",
      "type": "function"
    },
    {
      "inputs": [
        {
          "internalType": "uint256",
          "name": "_num",
          "type": "uint256"
        }
      ],
      "name": "log2ApproxTimes1M",
      "outputs": [
        {
          "internalType": "uint256",
          "name": "",
          "type": "uint256"
        }
      ],
      "stateMutability": "pure",
      "type": "function"
    }
  ],
  "bytecode": "0x6107f961003a600b82828239805160001a60731461002d57634e487b7160e01b600052600060045260246000fd5b30600052607381538281f3fe730000000000000000000000000000000000000000301460806040526004361061006c5760003560e01c806306c8e54b14610071578063296e7af81461009b57806330244f7a146100bc57806332ef283b146100cf578063d82ae4b1146100e2578063e3581b6814610105575b600080fd5b61008461007f366004610568565b610118565b60405160ff90911681526020015b60405180910390f35b6100ae6100a9366004610568565b610189565b604051908152602001610092565b6100ae6100ca366004610568565b6102b5565b6100ae6100dd366004610568565b6103f5565b6100f56100f0366004610568565b6104a6565b6040519015158152602001610092565b6100ae610113366004610568565b6104cc565b60008160000361016f5760405162461bcd60e51b815260206004820152601860248201527f6c6f67206f66207a65726f20697320756e646566696e6564000000000000000060448201526064015b60405180910390fd5b610178826102b5565b6101839060ff610597565b92915050565b60008160000361019c5750610100919050565b6000826fffffffffffffffffffffffffffffffff166000036101cd576101c38160806105ae565b9050608083901c92505b8267ffffffffffffffff166000036101f4576101ea8160406105ae565b9050604083901c92505b8263ffffffff166000036102175761020d8160206105ae565b9050602083901c92505b8261ffff166000036102385761022e8160106105ae565b9050601083901c92505b8260ff166000036102585761024e8160086105ae565b9050600883901c92505b82600f166000036102785761026e8160046105ae565b9050600483901c92505b826003166000036102985761028e8160026105ae565b9050600283901c92505b82600116600003610183576102ae8160016105ae565b9392505050565b6000816000036102c85750610100919050565b6000826fffffffffffffffffffffffffffffffff19166000036102fa576102f08160806105ae565b9050608083901b92505b826001600160c01b031916600003610321576103178160406105ae565b9050604083901b92505b826001600160e01b0319166000036103485761033e8160206105ae565b9050602083901b92505b826001600160f01b03191660000361036f576103658160106105ae565b9050601083901b92505b826001600160f81b0319166000036103965761038c8160086105ae565b9050600883901b92505b82600f60fc1b166000036103b9576103af8160046105ae565b9050600483901b92505b82600360fe1b166000036103dc576103d28160026105ae565b9050600283901b92505b82600160ff1b16600003610183576102ae8160016105ae565b600080805b60038160ff16101561049c576000604051806101a001604052806101808152602001610644610180913960ff8316610433600188610597565b61043e9060036105c6565b61044891906105ae565b81518110610458576104586105e5565b01602001516001600160f81b03191690506104748260086105fb565b60ff16816001600160e81b031916901c8317925050808061049490610624565b9150506103fa565b5060e81c92915050565b6000816000036104b857506000919050565b6104c3600183610597565b90911615919050565b60008082116105155760405162461bcd60e51b81526020600482015260156024820152744e756d6265722063616e6e6f74206265207a65726f60581b6044820152606401610166565b6000826001036105285750600092915050565b608083111561054857600192831c9261054190826105ae565b9050610528565b610551836103f5565b61055e620f4240836105c6565b6102ae91906105ae565b60006020828403121561057a57600080fd5b5035919050565b634e487b7160e01b600052601160045260246000fd5b6000828210156105a9576105a9610581565b500390565b600082198211156105c1576105c1610581565b500190565b60008160001904831182151516156105e0576105e0610581565b500290565b634e487b7160e01b600052603260045260246000fd5b600060ff821660ff84168160ff048111821515161561061c5761061c610581565b029392505050565b600060ff821660ff810361063a5761063a610581565b6001019291505056fe0000000f4240182f421e8480236e082771822ad63a2dc6c0305e8532b04834c96736b3c23876d73a187a3b9d4a3d09003e5ea63fa0c540d17741f28843057d440ba745062945f60246dc1047b917488dc7495aba4a207c4adf8a4b98544c4b404cf8aa4da0e64e44434ee3054f7d6d5013b750a61a5134c851bff05247bd52cc58534de753cc8d54486954c19c55384255ac75561e50568de956fb575766b057d00758376f589cfa5900ba5962bc59c3135a21ca5a7ef15ada945b34bf5b8d805be4df5c3aea5c8fa95ce3265d356c5d86835dd6735e25455e73005ebfad5f0b525f55f75f9fa25fe85a60302460770860bd0a61023061467f6189fd61ccae620e98624fbf62902762cfd5630ecd634d12638aa963c7966403dc643f7f647a8264b4e864eeb56527ec6560906598a365d029660724663d9766738566a8f066ddda6712476746386779af67acaf67df3a6811526842fa68743268a4fc68d55c6905536934e169640a6992cf69c13169ef326a1cd46a4a186a76ff6aa38c6acfc0a26469706673582212206efe15c4f1b5a57d5a1d8aae7c7b0cdb2ef25484bda5b7bb837279f6851c7dd264736f6c634300080d0033",
  "linkReferences": {},
  "deployedLinkReferences": {},
  "devdoc": {
    "kind": "dev",
    "methods": {
      "clz(uint256)": {
        "details": "this a binary search implementation",
        "params": {
          "_num": "number you want the clz of"
        }
      },
      "ctz(uint256)": {
        "details": "this a binary search implementation",
        "params": {
          "_num": "number you want the ctz of"
        }
      },
      "getLog2Floor(uint256)": {
        "params": {
          "_num": "number to take floor(log2) of"
        },
        "returns": {
          "_0": "floor(log2) of _num"
        }
      },
      "getLog2TableTimes1M(uint256)": {
        "params": {
          "_num": "number to take log2 of"
        },
        "returns": {
          "_0": "result after table look-up"
        }
      },
      "isPowerOf2(uint256)": {
        "params": {
          "_num": "number to check"
        },
        "returns": {
          "_0": "true if number is power of 2, false if not"
        }
      },
      "log2ApproxTimes1M(uint256)": {
        "params": {
          "_num": "number to take log2 * 1M of"
        },
        "returns": {
          "_0": "approximate log2 times 1M"
        }
      }
    },
    "version": 1
  },
  "evm": {
    "bytecode": {
      "linkReferences": {},
      "opcodes": "PUSH2 0x7F9 PUSH2 0x3A PUSH1 0xB DUP3 DUP3 DUP3 CODECOPY DUP1 MLOAD PUSH1 0x0 BYTE PUSH1 0x73 EQ PUSH2 0x2D JUMPI PUSH4 0x4E487B71 PUSH1 0xE0 SHL PUSH1 0x0 MSTORE PUSH1 0x0 PUSH1 0x4 MSTORE PUSH1 0x24 PUSH1 0x0 REVERT JUMPDEST ADDRESS PUSH1 0x0 MSTORE PUSH1 0x73 DUP2 MSTORE8 DUP3 DUP2 RETURN INVALID PUSH20 0x0 ADDRESS EQ PUSH1 0x80 PUSH1 0x40 MSTORE PUSH1 0x4 CALLDATASIZE LT PUSH2 0x6C JUMPI PUSH1 0x0 CALLDATALOAD PUSH1 0xE0 SHR DUP1 PUSH4 0x6C8E54B EQ PUSH2 0x71 JUMPI DUP1 PUSH4 0x296E7AF8 EQ PUSH2 0x9B JUMPI DUP1 PUSH4 0x30244F7A EQ PUSH2 0xBC JUMPI DUP1 PUSH4 0x32EF283B EQ PUSH2 0xCF JUMPI DUP1 PUSH4 0xD82AE4B1 EQ PUSH2 0xE2 JUMPI DUP1 PUSH4 0xE3581B68 EQ PUSH2 0x105 JUMPI JUMPDEST PUSH1 0x0 DUP1 REVERT JUMPDEST PUSH2 0x84 PUSH2 0x7F CALLDATASIZE PUSH1 0x4 PUSH2 0x568 JUMP JUMPDEST PUSH2 0x118 JUMP JUMPDEST PUSH1 0x40 MLOAD PUSH1 0xFF SWAP1 SWAP2 AND DUP2 MSTORE PUSH1 0x20 ADD JUMPDEST PUSH1 0x40 MLOAD DUP1 SWAP2 SUB SWAP1 RETURN JUMPDEST PUSH2 0xAE PUSH2 0xA9 CALLDATASIZE PUSH1 0x4 PUSH2 0x568 JUMP JUMPDEST PUSH2 0x189 JUMP JUMPDEST PUSH1 0x40 MLOAD SWAP1 DUP2 MSTORE PUSH1 0x20 ADD PUSH2 0x92 JUMP JUMPDEST PUSH2 0xAE PUSH2 0xCA CALLDATASIZE PUSH1 0x4 PUSH2 0x568 JUMP JUMPDEST PUSH2 0x2B5 JUMP JUMPDEST PUSH2 0xAE PUSH2 0xDD CALLDATASIZE PUSH1 0x4 PUSH2 0x568 JUMP JUMPDEST PUSH2 0x3F5 JUMP JUMPDEST PUSH2 0xF5 PUSH2 0xF0 CALLDATASIZE PUSH1 0x4 PUSH2 0x568 JUMP JUMPDEST PUSH2 0x4A6 JUMP JUMPDEST PUSH1 0x40 MLOAD SWAP1 ISZERO ISZERO DUP2 MSTORE PUSH1 0x20 ADD PUSH2 0x92 JUMP JUMPDEST PUSH2 0xAE PUSH2 0x113 CALLDATASIZE PUSH1 0x4 PUSH2 0x568 JUMP JUMPDEST PUSH2 0x4CC JUMP JUMPDEST PUSH1 0x0 DUP2 PUSH1 0x0 SUB PUSH2 0x16F JUMPI PUSH1 0x40 MLOAD PUSH3 0x461BCD PUSH1 0xE5 SHL DUP2 MSTORE PUSH1 0x20 PUSH1 0x4 DUP3 ADD MSTORE PUSH1 0x18 PUSH1 0x24 DUP3 ADD MSTORE PUSH32 0x6C6F67206F66207A65726F20697320756E646566696E65640000000000000000 PUSH1 0x44 DUP3 ADD MSTORE PUSH1 0x64 ADD JUMPDEST PUSH1 0x40 MLOAD DUP1 SWAP2 SUB SWAP1 REVERT JUMPDEST PUSH2 0x178 DUP3 PUSH2 0x2B5 JUMP JUMPDEST PUSH2 0x183 SWAP1 PUSH1 0xFF PUSH2 0x597 JUMP JUMPDEST SWAP3 SWAP2 POP POP JUMP JUMPDEST PUSH1 0x0 DUP2 PUSH1 0x0 SUB PUSH2 0x19C JUMPI POP PUSH2 0x100 SWAP2 SWAP1 POP JUMP JUMPDEST PUSH1 0x0 DUP3 PUSH16 0xFFFFFFFFFFFFFFFFFFFFFFFFFFFFFFFF AND PUSH1 0x0 SUB PUSH2 0x1CD JUMPI PUSH2 0x1C3 DUP2 PUSH1 0x80 PUSH2 0x5AE JUMP JUMPDEST SWAP1 POP PUSH1 0x80 DUP4 SWAP1 SHR SWAP3 POP JUMPDEST DUP3 PUSH8 0xFFFFFFFFFFFFFFFF AND PUSH1 0x0 SUB PUSH2 0x1F4 JUMPI PUSH2 0x1EA DUP2 PUSH1 0x40 PUSH2 0x5AE JUMP JUMPDEST SWAP1 POP PUSH1 0x40 DUP4 SWAP1 SHR SWAP3 POP JUMPDEST DUP3 PUSH4 0xFFFFFFFF AND PUSH1 0x0 SUB PUSH2 0x217 JUMPI PUSH2 0x20D DUP2 PUSH1 0x20 PUSH2 0x5AE JUMP JUMPDEST SWAP1 POP PUSH1 0x20 DUP4 SWAP1 SHR SWAP3 POP JUMPDEST DUP3 PUSH2 0xFFFF AND PUSH1 0x0 SUB PUSH2 0x238 JUMPI PUSH2 0x22E DUP2 PUSH1 0x10 PUSH2 0x5AE JUMP JUMPDEST SWAP1 POP PUSH1 0x10 DUP4 SWAP1 SHR SWAP3 POP JUMPDEST DUP3 PUSH1 0xFF AND PUSH1 0x0 SUB PUSH2 0x258 JUMPI PUSH2 0x24E DUP2 PUSH1 0x8 PUSH2 0x5AE JUMP JUMPDEST SWAP1 POP PUSH1 0x8 DUP4 SWAP1 SHR SWAP3 POP JUMPDEST DUP3 PUSH1 0xF AND PUSH1 0x0 SUB PUSH2 0x278 JUMPI PUSH2 0x26E DUP2 PUSH1 0x4 PUSH2 0x5AE JUMP JUMPDEST SWAP1 POP PUSH1 0x4 DUP4 SWAP1 SHR SWAP3 POP JUMPDEST DUP3 PUSH1 0x3 AND PUSH1 0x0 SUB PUSH2 0x298 JUMPI PUSH2 0x28E DUP2 PUSH1 0x2 PUSH2 0x5AE JUMP JUMPDEST SWAP1 POP PUSH1 0x2 DUP4 SWAP1 SHR SWAP3 POP JUMPDEST DUP3 PUSH1 0x1 AND PUSH1 0x0 SUB PUSH2 0x183 JUMPI PUSH2 0x2AE DUP2 PUSH1 0x1 PUSH2 0x5AE JUMP JUMPDEST SWAP4 SWAP3 POP POP POP JUMP JUMPDEST PUSH1 0x0 DUP2 PUSH1 0x0 SUB PUSH2 0x2C8 JUMPI POP PUSH2 0x100 SWAP2 SWAP1 POP JUMP JUMPDEST PUSH1 0x0 DUP3 PUSH16 0xFFFFFFFFFFFFFFFFFFFFFFFFFFFFFFFF NOT AND PUSH1 0x0 SUB PUSH2 0x2FA JUMPI PUSH2 0x2F0 DUP2 PUSH1 0x80 PUSH2 0x5AE JUMP JUMPDEST SWAP1 POP PUSH1 0x80 DUP4 SWAP1 SHL SWAP3 POP JUMPDEST DUP3 PUSH1 0x1 PUSH1 0x1 PUSH1 0xC0 SHL SUB NOT AND PUSH1 0x0 SUB PUSH2 0x321 JUMPI PUSH2 0x317 DUP2 PUSH1 0x40 PUSH2 0x5AE JUMP JUMPDEST SWAP1 POP PUSH1 0x40 DUP4 SWAP1 SHL SWAP3 POP JUMPDEST DUP3 PUSH1 0x1 PUSH1 0x1 PUSH1 0xE0 SHL SUB NOT AND PUSH1 0x0 SUB PUSH2 0x348 JUMPI PUSH2 0x33E DUP2 PUSH1 0x20 PUSH2 0x5AE JUMP JUMPDEST SWAP1 POP PUSH1 0x20 DUP4 SWAP1 SHL SWAP3 POP JUMPDEST DUP3 PUSH1 0x1 PUSH1 0x1 PUSH1 0xF0 SHL SUB NOT AND PUSH1 0x0 SUB PUSH2 0x36F JUMPI PUSH2 0x365 DUP2 PUSH1 0x10 PUSH2 0x5AE JUMP JUMPDEST SWAP1 POP PUSH1 0x10 DUP4 SWAP1 SHL SWAP3 POP JUMPDEST DUP3 PUSH1 0x1 PUSH1 0x1 PUSH1 0xF8 SHL SUB NOT AND PUSH1 0x0 SUB PUSH2 0x396 JUMPI PUSH2 0x38C DUP2 PUSH1 0x8 PUSH2 0x5AE JUMP JUMPDEST SWAP1 POP PUSH1 0x8 DUP4 SWAP1 SHL SWAP3 POP JUMPDEST DUP3 PUSH1 0xF PUSH1 0xFC SHL AND PUSH1 0x0 SUB PUSH2 0x3B9 JUMPI PUSH2 0x3AF DUP2 PUSH1 0x4 PUSH2 0x5AE JUMP JUMPDEST SWAP1 POP PUSH1 0x4 DUP4 SWAP1 SHL SWAP3 POP JUMPDEST DUP3 PUSH1 0x3 PUSH1 0xFE SHL AND PUSH1 0x0 SUB PUSH2 0x3DC JUMPI PUSH2 0x3D2 DUP2 PUSH1 0x2 PUSH2 0x5AE JUMP JUMPDEST SWAP1 POP PUSH1 0x2 DUP4 SWAP1 SHL SWAP3 POP JUMPDEST DUP3 PUSH1 0x1 PUSH1 0xFF SHL AND PUSH1 0x0 SUB PUSH2 0x183 JUMPI PUSH2 0x2AE DUP2 PUSH1 0x1 PUSH2 0x5AE JUMP JUMPDEST PUSH1 0x0 DUP1 DUP1 JUMPDEST PUSH1 0x3 DUP2 PUSH1 0xFF AND LT ISZERO PUSH2 0x49C JUMPI PUSH1 0x0 PUSH1 0x40 MLOAD DUP1 PUSH2 0x1A0 ADD PUSH1 0x40 MSTORE DUP1 PUSH2 0x180 DUP2 MSTORE PUSH1 0x20 ADD PUSH2 0x644 PUSH2 0x180 SWAP2 CODECOPY PUSH1 0xFF DUP4 AND PUSH2 0x433 PUSH1 0x1 DUP9 PUSH2 0x597 JUMP JUMPDEST PUSH2 0x43E SWAP1 PUSH1 0x3 PUSH2 0x5C6 JUMP JUMPDEST PUSH2 0x448 SWAP2 SWAP1 PUSH2 0x5AE JUMP JUMPDEST DUP2 MLOAD DUP2 LT PUSH2 0x458 JUMPI PUSH2 0x458 PUSH2 0x5E5 JUMP JUMPDEST ADD PUSH1 0x20 ADD MLOAD PUSH1 0x1 PUSH1 0x1 PUSH1 0xF8 SHL SUB NOT AND SWAP1 POP PUSH2 0x474 DUP3 PUSH1 0x8 PUSH2 0x5FB JUMP JUMPDEST PUSH1 0xFF AND DUP2 PUSH1 0x1 PUSH1 0x1 PUSH1 0xE8 SHL SUB NOT AND SWAP1 SHR DUP4 OR SWAP3 POP POP DUP1 DUP1 PUSH2 0x494 SWAP1 PUSH2 0x624 JUMP JUMPDEST SWAP2 POP POP PUSH2 0x3FA JUMP JUMPDEST POP PUSH1 0xE8 SHR SWAP3 SWAP2 POP POP JUMP JUMPDEST PUSH1 0x0 DUP2 PUSH1 0x0 SUB PUSH2 0x4B8 JUMPI POP PUSH1 0x0 SWAP2 SWAP1 POP JUMP JUMPDEST PUSH2 0x4C3 PUSH1 0x1 DUP4 PUSH2 0x597 JUMP JUMPDEST SWAP1 SWAP2 AND ISZERO SWAP2 SWAP1 POP JUMP JUMPDEST PUSH1 0x0 DUP1 DUP3 GT PUSH2 0x515 JUMPI PUSH1 0x40 MLOAD PUSH3 0x461BCD PUSH1 0xE5 SHL DUP2 MSTORE PUSH1 0x20 PUSH1 0x4 DUP3 ADD MSTORE PUSH1 0x15 PUSH1 0x24 DUP3 ADD MSTORE PUSH21 0x4E756D6265722063616E6E6F74206265207A65726F PUSH1 0x58 SHL PUSH1 0x44 DUP3 ADD MSTORE PUSH1 0x64 ADD PUSH2 0x166 JUMP JUMPDEST PUSH1 0x0 DUP3 PUSH1 0x1 SUB PUSH2 0x528 JUMPI POP PUSH1 0x0 SWAP3 SWAP2 POP POP JUMP JUMPDEST PUSH1 0x80 DUP4 GT ISZERO PUSH2 0x548 JUMPI PUSH1 0x1 SWAP3 DUP4 SHR SWAP3 PUSH2 0x541 SWAP1 DUP3 PUSH2 0x5AE JUMP JUMPDEST SWAP1 POP PUSH2 0x528 JUMP JUMPDEST PUSH2 0x551 DUP4 PUSH2 0x3F5 JUMP JUMPDEST PUSH2 0x55E PUSH3 0xF4240 DUP4 PUSH2 0x5C6 JUMP JUMPDEST PUSH2 0x2AE SWAP2 SWAP1 PUSH2 0x5AE JUMP JUMPDEST PUSH1 0x0 PUSH1 0x20 DUP3 DUP5 SUB SLT ISZERO PUSH2 0x57A JUMPI PUSH1 0x0 DUP1 REVERT JUMPDEST POP CALLDATALOAD SWAP2 SWAP1 POP JUMP JUMPDEST PUSH4 0x4E487B71 PUSH1 0xE0 SHL PUSH1 0x0 MSTORE PUSH1 0x11 PUSH1 0x4 MSTORE PUSH1 0x24 PUSH1 0x0 REVERT JUMPDEST PUSH1 0x0 DUP3 DUP3 LT ISZERO PUSH2 0x5A9 JUMPI PUSH2 0x5A9 PUSH2 0x581 JUMP JUMPDEST POP SUB SWAP1 JUMP JUMPDEST PUSH1 0x0 DUP3 NOT DUP3 GT ISZERO PUSH2 0x5C1 JUMPI PUSH2 0x5C1 PUSH2 0x581 JUMP JUMPDEST POP ADD SWAP1 JUMP JUMPDEST PUSH1 0x0 DUP2 PUSH1 0x0 NOT DIV DUP4 GT DUP3 ISZERO ISZERO AND ISZERO PUSH2 0x5E0 JUMPI PUSH2 0x5E0 PUSH2 0x581 JUMP JUMPDEST POP MUL SWAP1 JUMP JUMPDEST PUSH4 0x4E487B71 PUSH1 0xE0 SHL PUSH1 0x0 MSTORE PUSH1 0x32 PUSH1 0x4 MSTORE PUSH1 0x24 PUSH1 0x0 REVERT JUMPDEST PUSH1 0x0 PUSH1 0xFF DUP3 AND PUSH1 0xFF DUP5 AND DUP2 PUSH1 0xFF DIV DUP2 GT DUP3 ISZERO ISZERO AND ISZERO PUSH2 0x61C JUMPI PUSH2 0x61C PUSH2 0x581 JUMP JUMPDEST MUL SWAP4 SWAP3 POP POP POP JUMP JUMPDEST PUSH1 0x0 PUSH1 0xFF DUP3 AND PUSH1 0xFF DUP2 SUB PUSH2 0x63A JUMPI PUSH2 0x63A PUSH2 0x581 JUMP JUMPDEST PUSH1 0x1 ADD SWAP3 SWAP2 POP POP JUMP INVALID STOP STOP STOP 0xF TIMESTAMP BLOCKHASH XOR 0x2F TIMESTAMP 0x1E DUP5 DUP1 0x23 PUSH15 0x82771822AD63A2DC6C0305E8532B0 BASEFEE CALLVALUE 0xC9 PUSH8 0x36B3C23876D73A18 PUSH27 0x3B9D4A3D09003E5EA63FA0C540D17741F28843057D440BA7450629 GASLIMIT 0xF6 MUL CHAINID 0xDC LT SELFBALANCE 0xB9 OR BASEFEE DUP14 0xC7 0x49 GAS 0xBA 0x4A KECCAK256 PUSH29 0x4ADF8A4B98544C4B404CF8AA4DA0E64E44434EE3054F7D6D5013B750A6 BYTE MLOAD CALLVALUE 0xC8 MLOAD 0xBF CREATE MSTORE SELFBALANCE 0xBD MSTORE 0xCC PC MSTORE8 0x4D 0xE7 MSTORE8 0xCC DUP14 SLOAD BASEFEE PUSH10 0x54C19C55384255AC7556 0x1E POP JUMP DUP14 0xE9 JUMP 0xFB JUMPI JUMPI PUSH7 0xB057D00758376F PC SWAP13 STATICCALL MSIZE STOP 0xBA MSIZE PUSH3 0xBC59C3 SGT GAS 0x21 0xCA GAS PUSH31 0xF15ADA945B34BF5B8D805BE4DF5C3AEA5C8FA95CE3265D356C5D86835DD673 0x5E 0x25 GASLIMIT 0x5E PUSH20 0x5EBFAD5F0B525F55F75F9FA25FE85A60302460 PUSH24 0x860BD0A61023061467F6189FD61CCAE620E98624FBF6290 0x27 PUSH3 0xCFD563 0xE 0xCD PUSH4 0x4D12638A 0xA9 PUSH4 0xC7966403 0xDC PUSH5 0x3F7F647A82 PUSH5 0xB4E864EEB5 PUSH6 0x27EC65609065 SWAP9 LOG3 PUSH6 0xD02966072466 RETURNDATASIZE SWAP8 PUSH7 0x738566A8F066DD 0xDA PUSH8 0x12476746386779AF PUSH8 0xACAF67DF3A681152 PUSH9 0x42FA68743268A4FC68 0xD5 0x5C PUSH10 0x5536934E169640A6992 0xCF PUSH10 0xC13169EF326A1CD46A4A XOR PUSH11 0x76FF6AA38C6ACFC0A26469 PUSH17 0x6673582212206EFE15C4F1B5A57D5A1D8A 0xAE PUSH29 0x7B0CDB2EF25484BDA5B7BB837279F6851C7DD264736F6C634300080D00 CALLER "
    },
    "gasEstimates": {
      "creation": {
        "codeDepositCost": "408200",
        "executionCost": "477",
        "totalCost": "408677"
      },
      "external": {
        "clz(uint256)": "infinite",
        "ctz(uint256)": "infinite",
        "getLog2Floor(uint256)": "infinite",
        "getLog2TableTimes1M(uint256)": "infinite",
        "isPowerOf2(uint256)": "447",
        "log2ApproxTimes1M(uint256)": "infinite"
      }
    },
    "methodIdentifiers": {
      "clz(uint256)": "30244f7a",
      "ctz(uint256)": "296e7af8",
      "getLog2Floor(uint256)": "06c8e54b",
      "getLog2TableTimes1M(uint256)": "32ef283b",
      "isPowerOf2(uint256)": "d82ae4b1",
      "log2ApproxTimes1M(uint256)": "e3581b68"
    }
  },
  "storageLayout": {
    "storage": [],
    "types": null
  },
  "userdoc": {
    "kind": "user",
    "methods": {
      "clz(uint256)": {
        "notice": "count leading zeros"
      },
      "ctz(uint256)": {
        "notice": "count trailing zeros"
      },
      "getLog2Floor(uint256)": {
        "notice": "get floor of log2 of number"
      },
      "getLog2TableTimes1M(uint256)": {
        "notice": "navigates log2tableTimes1M"
      },
      "isPowerOf2(uint256)": {
        "notice": "checks if a number is Power of 2"
      },
      "log2ApproxTimes1M(uint256)": {
        "notice": "Approximates log2 * 1M"
      }
    },
    "version": 1
  }
}