{
  "contractName": "DebugFacet",
  "sourceName": "contracts/facets/DebugFacet.sol",
  "abi": [
    {
      "anonymous": false,
      "inputs": [
        {
          "indexed": false,
          "internalType": "enum Result",
          "name": "result",
          "type": "uint8"
        },
        {
          "indexed": false,
          "internalType": "bytes32[2]",
          "name": "claims",
          "type": "bytes32[2]"
        },
        {
          "indexed": false,
          "internalType": "address payable[2]",
          "name": "validators",
          "type": "address[2]"
        }
      ],
      "name": "ClaimReceived",
      "type": "event"
    },
    {
      "anonymous": false,
      "inputs": [
        {
          "indexed": false,
          "internalType": "enum Result",
          "name": "result",
          "type": "uint8"
        },
        {
          "indexed": false,
          "internalType": "bytes32[2]",
          "name": "claims",
          "type": "bytes32[2]"
        },
        {
          "indexed": false,
          "internalType": "address payable[2]",
          "name": "validators",
          "type": "address[2]"
        }
      ],
      "name": "DisputeEnded",
      "type": "event"
    },
    {
      "anonymous": false,
      "inputs": [
        {
          "indexed": false,
          "internalType": "bytes32",
          "name": "claim",
          "type": "bytes32"
        }
      ],
      "name": "NewEpoch",
      "type": "event"
    },
    {
      "inputs": [
        {
          "internalType": "bytes",
          "name": "_data",
          "type": "bytes"
        }
      ],
      "name": "_erc20Withdrawal",
      "outputs": [
        {
          "internalType": "bool",
          "name": "",
          "type": "bool"
        }
      ],
      "stateMutability": "nonpayable",
      "type": "function"
    },
    {
      "inputs": [
        {
          "internalType": "bytes",
          "name": "_data",
          "type": "bytes"
        }
      ],
      "name": "_erc721Withdrawal",
      "outputs": [
        {
          "internalType": "bool",
          "name": "",
          "type": "bool"
        }
      ],
      "stateMutability": "nonpayable",
      "type": "function"
    },
    {
      "inputs": [
        {
          "internalType": "bytes",
          "name": "_data",
          "type": "bytes"
        }
      ],
      "name": "_etherWithdrawal",
      "outputs": [
        {
          "internalType": "bool",
          "name": "",
          "type": "bool"
        }
      ],
      "stateMutability": "nonpayable",
      "type": "function"
    },
    {
      "inputs": [],
      "name": "_getFeePerClaim",
      "outputs": [
        {
          "internalType": "uint256",
          "name": "",
          "type": "uint256"
        }
      ],
      "stateMutability": "view",
      "type": "function"
    },
    {
      "inputs": [],
      "name": "_getInputDriveSize",
      "outputs": [
        {
          "internalType": "uint256",
          "name": "",
          "type": "uint256"
        }
      ],
      "stateMutability": "view",
      "type": "function"
    },
    {
      "inputs": [],
      "name": "_getValidators",
      "outputs": [
        {
          "internalType": "address payable[]",
          "name": "",
          "type": "address[]"
        }
      ],
      "stateMutability": "view",
      "type": "function"
    },
    {
      "inputs": [
        {
          "internalType": "address payable",
          "name": "_sender",
          "type": "address"
        },
        {
          "internalType": "bytes32",
          "name": "_claim",
          "type": "bytes32"
        }
      ],
      "name": "_onClaim",
      "outputs": [
        {
          "internalType": "enum Result",
          "name": "",
          "type": "uint8"
        },
        {
          "internalType": "bytes32[2]",
          "name": "",
          "type": "bytes32[2]"
        },
        {
          "internalType": "address payable[2]",
          "name": "",
          "type": "address[2]"
        }
      ],
      "stateMutability": "nonpayable",
      "type": "function"
    },
    {
      "inputs": [
        {
          "internalType": "address payable",
          "name": "_winner",
          "type": "address"
        },
        {
          "internalType": "address payable",
          "name": "_loser",
          "type": "address"
        },
        {
          "internalType": "bytes32",
          "name": "_winningClaim",
          "type": "bytes32"
        }
      ],
      "name": "_onDisputeEnd",
      "outputs": [
        {
          "internalType": "enum Result",
          "name": "",
          "type": "uint8"
        },
        {
          "internalType": "bytes32[2]",
          "name": "",
          "type": "bytes32[2]"
        },
        {
          "internalType": "address payable[2]",
          "name": "",
          "type": "address[2]"
        }
      ],
      "stateMutability": "nonpayable",
      "type": "function"
    },
    {
      "inputs": [
        {
          "internalType": "bytes32",
          "name": "epochHash",
          "type": "bytes32"
        }
      ],
      "name": "_onNewEpochOutput",
      "outputs": [],
      "stateMutability": "nonpayable",
      "type": "function"
    },
    {
      "inputs": [],
      "name": "_onNewEpochVM",
      "outputs": [
        {
          "internalType": "bytes32",
          "name": "",
          "type": "bytes32"
        }
      ],
      "stateMutability": "nonpayable",
      "type": "function"
    },
    {
      "inputs": [
        {
          "internalType": "enum Phase",
          "name": "_phase",
          "type": "uint8"
        }
      ],
      "name": "_setCurrentPhase",
      "outputs": [],
      "stateMutability": "nonpayable",
      "type": "function"
    },
    {
      "inputs": [
        {
          "internalType": "uint256",
          "name": "_validatorIndex",
          "type": "uint256"
        },
        {
          "internalType": "uint256",
          "name": "_value",
          "type": "uint256"
        }
      ],
      "name": "_setNumClaims",
      "outputs": [],
      "stateMutability": "nonpayable",
      "type": "function"
    }
  ],
  "bytecode": "0x608060405234801561001057600080fd5b506112cf806100206000396000f3fe608060405234801561001057600080fd5b50600436106100b45760003560e01c806398f69b161161007157806398f69b16146101895780639d45ceca146101eb578063bcb3571a146101f3578063d446e01014610206578063da048e3614610219578063f8a7ea5d1461022c57600080fd5b80631487d4a9146100b957806315afd588146100d75780633672682c146101085780633ea30fed1461012a57806357414ee81461014d57806383089f4114610162575b600080fd5b6100c161023f565b6040516100ce9190610f27565b60405180910390f35b7f844e22529543d6e722c6477171dd50ffe5b412198b92cd9aeea62bbfabe4cc74545b6040519081526020016100ce565b61011b610116366004610f90565b6102b2565b6040516100ce93929190610fd0565b61013d610138366004611058565b6102ec565b60405190151581526020016100ce565b61016061015b3660046110ca565b610363565b005b7f943d5d24442f02461445e15c5d7d4a4ef0acb0d32c5d6f6af37a688224991301546100fa565b6101606101973660046110f2565b7f0635ad75fae4d4e8d896461a635d23700076a1c3fd8da26276f18cb1c09ea56780546001810182556000919091527f5a37c7635ca526c8f76c52ec540210850576205b63dbb3612d47df2b54d6918a0155565b6100fa6103bc565b61013d610201366004611058565b6103dc565b61013d610214366004611058565b610406565b61016061022736600461110b565b610430565b61011b61023a36600461112d565b610477565b6060600060008051602061127a833981519152600181018054604080516020808402820181019092528281529394508301828280156102a757602002820191906000526020600020905b81546001600160a01b03168152600190910190602001808311610289575b505050505091505090565b60006102bc610f09565b6102c4610f09565b60008051602061127a8339815191526102de8187876104b5565b935093509350509250925092565b6040516351584bd760e11b81526000903090819063a2b097ae906103169087908790600401611169565b6020604051808303816000875af1158015610335573d6000803e3d6000fd5b505050506040513d601f19601f820116820180604052508101906103599190611198565b9150505b92915050565b7fd32d7f90491bee81172a406b65f3270d810392fe53bb0379dde8bdd4e624189c81600281111561039657610396610fba565b8160010160106101000a81548163ffffffff021916908363ffffffff1602179055505050565b600060008051602061127a8339815191526103d6816106c6565b91505090565b604051631d255ae560e21b8152600090309081906374956b94906103169087908790600401611169565b6040516315e55ce560e01b8152600090309081906315e55ce5906103169087908790600401611169565b7f8ab37fef2b2e34c4b62ff9948ee661cdcf34e209d7c20f4d1f6e83085e93b1ff5460008051602061127a8339815191529061046d908484610723565b6003909101555050565b6000610481610f09565b610489610f09565b60008051602061127a8339815191526104a4818888886107d7565b935093509350505b93509350939050565b60006104bf610f09565b6104c7610f09565b836105075760405162461bcd60e51b815260206004820152600b60248201526a656d70747920636c61696d60a81b60448201526064015b60405180910390fd5b610511868661098b565b6105525760405162461bcd60e51b81526020600482015260126024820152711cd95b99195c881b9bdd08185b1b1bddd95960721b60448201526064016104fe565b600061055e8787610a38565b600388015490915060f81c811c600116156105cb5760405162461bcd60e51b815260206004820152602760248201527f73656e6465722068616420636c61696d656420696e20746869732065706f6368604482015266206265666f726560c81b60648201526084016104fe565b86546105d5578487555b8654851461063557610629600260405180604001604052808a60000154815260200188815250604051806040016040528061060f8c610b17565b6001600160a01b0390811682528b16602090910152610bd1565b935093509350506104ac565b61063f8787610c2a565b61064887610c55565b61068c576040805180820182528681526000602080830182905283518085019094526001600160a01b038a168452830181905261068792909190610bd1565b6104a4565b6040805180820182528681526000602080830182905283518085019094526001600160a01b038a1684528301526104a49160019190610bd1565b60006106d182610c77565b81546000835560038301546001600160f81b031660038401556040518181527fddc860800a99149017c480ec51523bf4143b7215e78956ae5c31e5c568f5383a9060200160405180910390a192915050565b6000600883106107455760405162461bcd60e51b81526004016104fe906111ba565b610754600163400000006111fc565b8211156107995760405162461bcd60e51b8152602060048201526013602482015272436c61696d734d61736b204f766572666c6f7760681b60448201526064016104fe565b60006107a684601e611213565b6107b5600163400000006111fc565b901b1990508481166107c885601e611213565b9390931b909217949350505050565b60006107e1610f09565b6107e9610f09565b6107f38786610cd1565b8654840361088d5761080487610c55565b610848576040805180820182528581526000602080830182905283518085019094526001600160a01b038a168452830181905261084392909190610d7f565b610882565b6040805180820182528581526000602080830182905283518085019094526001600160a01b038a1684528301526108829160019190610d7f565b925092509250610981565b600387015460f81c156108e657610882600260405180604001604052808a6000015481526020018781525060405180604001604052806108cc8c610b17565b6001600160a01b0390811682528b16602090910152610d7f565b8387556108f38787610c2a565b6108fc87610c55565b610940576040805180820182528581526000602080830182905283518085019094526001600160a01b038a168452830181905261093b92909190610d7f565b61097a565b6040805180820182528581526000602080830182905283518085019094526001600160a01b038a16845283015261097a9160019190610d7f565b9250925092505b9450945094915050565b60006001600160a01b0382166109cf5760405162461bcd60e51b815260206004820152600960248201526806164647265737320360bc1b60448201526064016104fe565b60005b6001840154811015610a2e578360010181815481106109f3576109f3611232565b6000918252602090912001546001600160a01b0390811690841603610a1c57600191505061035d565b80610a2681611248565b9150506109d2565b5060009392505050565b60006001600160a01b038216610a7c5760405162461bcd60e51b815260206004820152600960248201526806164647265737320360bc1b60448201526064016104fe565b60005b6001840154811015610ad857836001018181548110610aa057610aa0611232565b6000918252602090912001546001600160a01b0390811690841603610ac657905061035d565b80610ad081611248565b915050610a7f565b5060405162461bcd60e51b81526020600482015260136024820152721d985b1a59185d1bdc881b9bdd08199bdd5b99606a1b60448201526064016104fe565b600080610b28836003015460f81c90565b905060005b6001840154811015610b88576001811b821615610b7657836001018181548110610b5957610b59611232565b6000918252602090912001546001600160a01b0316949350505050565b80610b8081611248565b915050610b2d565b5060405162461bcd60e51b815260206004820152601c60248201527f4167726565696e672076616c696461746f72206e6f7420666f756e640000000060448201526064016104fe565b6000610bdb610f09565b610be3610f09565b7f495383aed97965c56495cdbadedfe9667a1b028c54d3fc4b5335895146e02b70868686604051610c1693929190610fd0565b60405180910390a150939492935090919050565b6000610c368383610a38565b6003840154909150610c489082610dc4565b8360030181905550505050565b600381015460009060f081901c60ff16610c6f8260f81c90565b149392505050565b6000610c87826003015460f81c90565b905060005b6001830154811015610ccc576001811b821615610cba576003830154610cb490826001610e02565b60038401555b80610cc481611248565b915050610c8c565b505050565b60005b6001830154811015610ccc57826001018181548110610cf557610cf5611232565b6000918252602090912001546001600160a01b0390811690831603610d6d576000836001018281548110610d2b57610d2b611232565b600091825260209091200180546001600160a01b0319166001600160a01b03929092169190911790556003830154610d639082610e55565b6003840155505050565b80610d7781611248565b915050610cd4565b6000610d89610f09565b610d91610f09565b7f09201c193a07cae1df95ae692cc698685574c942a04514c48a4c3249f38594ff868686604051610c1693929190610fd0565b600060088210610de65760405162461bcd60e51b81526004016104fe906111ba565b6000610df38360f8611261565b6001901b841791505092915050565b600060088310610e245760405162461bcd60e51b81526004016104fe906111ba565b6000610e308585610ebb565b90506000610e3e8483611261565b9050610e4b868683610723565b9695505050505050565b600060088210610e775760405162461bcd60e51b81526004016104fe906111ba565b826000610e858460f8611261565b6001901b19918216919050610e9b8460f0611261565b6001901b19918216919050610eb282856000610723565b95945050505050565b600060088210610edd5760405162461bcd60e51b81526004016104fe906111ba565b6000610eee600163400000006111fc565b905080610efc84601e611213565b85901c1691505092915050565b60405180604001604052806002906020820280368337509192915050565b6020808252825182820181905260009190848201906040850190845b81811015610f685783516001600160a01b031683529284019291840191600101610f43565b50909695505050505050565b80356001600160a01b0381168114610f8b57600080fd5b919050565b60008060408385031215610fa357600080fd5b610fac83610f74565b946020939093013593505050565b634e487b7160e01b600052602160045260246000fd5b60a0810160038510610ff257634e487b7160e01b600052602160045260246000fd5b84825260208083018560005b600281101561101b57815183529183019190830190600101610ffe565b505050606083018460005b600281101561104c5781516001600160a01b031683529183019190830190600101611026565b50505050949350505050565b6000806020838503121561106b57600080fd5b823567ffffffffffffffff8082111561108357600080fd5b818501915085601f83011261109757600080fd5b8135818111156110a657600080fd5b8660208285010111156110b857600080fd5b60209290920196919550909350505050565b6000602082840312156110dc57600080fd5b8135600381106110eb57600080fd5b9392505050565b60006020828403121561110457600080fd5b5035919050565b6000806040838503121561111e57600080fd5b50508035926020909101359150565b60008060006060848603121561114257600080fd5b61114b84610f74565b925061115960208501610f74565b9150604084013590509250925092565b60208152816020820152818360408301376000818301604090810191909152601f909201601f19160101919050565b6000602082840312156111aa57600080fd5b815180151581146110eb57600080fd5b602080825260129082015271696e646578206f7574206f662072616e676560701b604082015260600190565b634e487b7160e01b600052601160045260246000fd5b60008282101561120e5761120e6111e6565b500390565b600081600019048311821515161561122d5761122d6111e6565b500290565b634e487b7160e01b600052603260045260246000fd5b60006001820161125a5761125a6111e6565b5060010190565b60008219821115611274576112746111e6565b50019056fe8ab37fef2b2e34c4b62ff9948ee661cdcf34e209d7c20f4d1f6e83085e93b1fca2646970667358221220f970c206e39dd0787084491ca4a6eb62634948e2d21e1c0a4c297d176212378f64736f6c634300080d0033",
  "linkReferences": {},
  "deployedLinkReferences": {},
  "devdoc": {
    "kind": "dev",
    "methods": {
      "_onDisputeEnd(address,address,bytes32)": {
        "params": {
          "_loser": "address of dispute loser",
          "_winner": "address of dispute winner",
          "_winningClaim": "the winning claim"
        },
        "returns": {
          "_0": "result of dispute being finished"
        }
      },
      "_onNewEpochVM()": {
        "returns": {
          "_0": "current claim"
        }
      }
    },
    "version": 1
  },
  "evm": {
    "bytecode": {
      "linkReferences": {},
      "opcodes": "PUSH1 0x80 PUSH1 0x40 MSTORE CALLVALUE DUP1 ISZERO PUSH2 0x10 JUMPI PUSH1 0x0 DUP1 REVERT JUMPDEST POP PUSH2 0x12CF DUP1 PUSH2 0x20 PUSH1 0x0 CODECOPY PUSH1 0x0 RETURN INVALID PUSH1 0x80 PUSH1 0x40 MSTORE CALLVALUE DUP1 ISZERO PUSH2 0x10 JUMPI PUSH1 0x0 DUP1 REVERT JUMPDEST POP PUSH1 0x4 CALLDATASIZE LT PUSH2 0xB4 JUMPI PUSH1 0x0 CALLDATALOAD PUSH1 0xE0 SHR DUP1 PUSH4 0x98F69B16 GT PUSH2 0x71 JUMPI DUP1 PUSH4 0x98F69B16 EQ PUSH2 0x189 JUMPI DUP1 PUSH4 0x9D45CECA EQ PUSH2 0x1EB JUMPI DUP1 PUSH4 0xBCB3571A EQ PUSH2 0x1F3 JUMPI DUP1 PUSH4 0xD446E010 EQ PUSH2 0x206 JUMPI DUP1 PUSH4 0xDA048E36 EQ PUSH2 0x219 JUMPI DUP1 PUSH4 0xF8A7EA5D EQ PUSH2 0x22C JUMPI PUSH1 0x0 DUP1 REVERT JUMPDEST DUP1 PUSH4 0x1487D4A9 EQ PUSH2 0xB9 JUMPI DUP1 PUSH4 0x15AFD588 EQ PUSH2 0xD7 JUMPI DUP1 PUSH4 0x3672682C EQ PUSH2 0x108 JUMPI DUP1 PUSH4 0x3EA30FED EQ PUSH2 0x12A JUMPI DUP1 PUSH4 0x57414EE8 EQ PUSH2 0x14D JUMPI DUP1 PUSH4 0x83089F41 EQ PUSH2 0x162 JUMPI JUMPDEST PUSH1 0x0 DUP1 REVERT JUMPDEST PUSH2 0xC1 PUSH2 0x23F JUMP JUMPDEST PUSH1 0x40 MLOAD PUSH2 0xCE SWAP2 SWAP1 PUSH2 0xF27 JUMP JUMPDEST PUSH1 0x40 MLOAD DUP1 SWAP2 SUB SWAP1 RETURN JUMPDEST PUSH32 0x844E22529543D6E722C6477171DD50FFE5B412198B92CD9AEEA62BBFABE4CC74 SLOAD JUMPDEST PUSH1 0x40 MLOAD SWAP1 DUP2 MSTORE PUSH1 0x20 ADD PUSH2 0xCE JUMP JUMPDEST PUSH2 0x11B PUSH2 0x116 CALLDATASIZE PUSH1 0x4 PUSH2 0xF90 JUMP JUMPDEST PUSH2 0x2B2 JUMP JUMPDEST PUSH1 0x40 MLOAD PUSH2 0xCE SWAP4 SWAP3 SWAP2 SWAP1 PUSH2 0xFD0 JUMP JUMPDEST PUSH2 0x13D PUSH2 0x138 CALLDATASIZE PUSH1 0x4 PUSH2 0x1058 JUMP JUMPDEST PUSH2 0x2EC JUMP JUMPDEST PUSH1 0x40 MLOAD SWAP1 ISZERO ISZERO DUP2 MSTORE PUSH1 0x20 ADD PUSH2 0xCE JUMP JUMPDEST PUSH2 0x160 PUSH2 0x15B CALLDATASIZE PUSH1 0x4 PUSH2 0x10CA JUMP JUMPDEST PUSH2 0x363 JUMP JUMPDEST STOP JUMPDEST PUSH32 0x943D5D24442F02461445E15C5D7D4A4EF0ACB0D32C5D6F6AF37A688224991301 SLOAD PUSH2 0xFA JUMP JUMPDEST PUSH2 0x160 PUSH2 0x197 CALLDATASIZE PUSH1 0x4 PUSH2 0x10F2 JUMP JUMPDEST PUSH32 0x635AD75FAE4D4E8D896461A635D23700076A1C3FD8DA26276F18CB1C09EA567 DUP1 SLOAD PUSH1 0x1 DUP2 ADD DUP3 SSTORE PUSH1 0x0 SWAP2 SWAP1 SWAP2 MSTORE PUSH32 0x5A37C7635CA526C8F76C52EC540210850576205B63DBB3612D47DF2B54D6918A ADD SSTORE JUMP JUMPDEST PUSH2 0xFA PUSH2 0x3BC JUMP JUMPDEST PUSH2 0x13D PUSH2 0x201 CALLDATASIZE PUSH1 0x4 PUSH2 0x1058 JUMP JUMPDEST PUSH2 0x3DC JUMP JUMPDEST PUSH2 0x13D PUSH2 0x214 CALLDATASIZE PUSH1 0x4 PUSH2 0x1058 JUMP JUMPDEST PUSH2 0x406 JUMP JUMPDEST PUSH2 0x160 PUSH2 0x227 CALLDATASIZE PUSH1 0x4 PUSH2 0x110B JUMP JUMPDEST PUSH2 0x430 JUMP JUMPDEST PUSH2 0x11B PUSH2 0x23A CALLDATASIZE PUSH1 0x4 PUSH2 0x112D JUMP JUMPDEST PUSH2 0x477 JUMP JUMPDEST PUSH1 0x60 PUSH1 0x0 PUSH1 0x0 DUP1 MLOAD PUSH1 0x20 PUSH2 0x127A DUP4 CODECOPY DUP2 MLOAD SWAP2 MSTORE PUSH1 0x1 DUP2 ADD DUP1 SLOAD PUSH1 0x40 DUP1 MLOAD PUSH1 0x20 DUP1 DUP5 MUL DUP3 ADD DUP2 ADD SWAP1 SWAP3 MSTORE DUP3 DUP2 MSTORE SWAP4 SWAP5 POP DUP4 ADD DUP3 DUP3 DUP1 ISZERO PUSH2 0x2A7 JUMPI PUSH1 0x20 MUL DUP3 ADD SWAP2 SWAP1 PUSH1 0x0 MSTORE PUSH1 0x20 PUSH1 0x0 KECCAK256 SWAP1 JUMPDEST DUP2 SLOAD PUSH1 0x1 PUSH1 0x1 PUSH1 0xA0 SHL SUB AND DUP2 MSTORE PUSH1 0x1 SWAP1 SWAP2 ADD SWAP1 PUSH1 0x20 ADD DUP1 DUP4 GT PUSH2 0x289 JUMPI JUMPDEST POP POP POP POP POP SWAP2 POP POP SWAP1 JUMP JUMPDEST PUSH1 0x0 PUSH2 0x2BC PUSH2 0xF09 JUMP JUMPDEST PUSH2 0x2C4 PUSH2 0xF09 JUMP JUMPDEST PUSH1 0x0 DUP1 MLOAD PUSH1 0x20 PUSH2 0x127A DUP4 CODECOPY DUP2 MLOAD SWAP2 MSTORE PUSH2 0x2DE DUP2 DUP8 DUP8 PUSH2 0x4B5 JUMP JUMPDEST SWAP4 POP SWAP4 POP SWAP4 POP POP SWAP3 POP SWAP3 POP SWAP3 JUMP JUMPDEST PUSH1 0x40 MLOAD PUSH4 0x51584BD7 PUSH1 0xE1 SHL DUP2 MSTORE PUSH1 0x0 SWAP1 ADDRESS SWAP1 DUP2 SWAP1 PUSH4 0xA2B097AE SWAP1 PUSH2 0x316 SWAP1 DUP8 SWAP1 DUP8 SWAP1 PUSH1 0x4 ADD PUSH2 0x1169 JUMP JUMPDEST PUSH1 0x20 PUSH1 0x40 MLOAD DUP1 DUP4 SUB DUP2 PUSH1 0x0 DUP8 GAS CALL ISZERO DUP1 ISZERO PUSH2 0x335 JUMPI RETURNDATASIZE PUSH1 0x0 DUP1 RETURNDATACOPY RETURNDATASIZE PUSH1 0x0 REVERT JUMPDEST POP POP POP POP PUSH1 0x40 MLOAD RETURNDATASIZE PUSH1 0x1F NOT PUSH1 0x1F DUP3 ADD AND DUP3 ADD DUP1 PUSH1 0x40 MSTORE POP DUP2 ADD SWAP1 PUSH2 0x359 SWAP2 SWAP1 PUSH2 0x1198 JUMP JUMPDEST SWAP2 POP POP JUMPDEST SWAP3 SWAP2 POP POP JUMP JUMPDEST PUSH32 0xD32D7F90491BEE81172A406B65F3270D810392FE53BB0379DDE8BDD4E624189C DUP2 PUSH1 0x2 DUP2 GT ISZERO PUSH2 0x396 JUMPI PUSH2 0x396 PUSH2 0xFBA JUMP JUMPDEST DUP2 PUSH1 0x1 ADD PUSH1 0x10 PUSH2 0x100 EXP DUP2 SLOAD DUP2 PUSH4 0xFFFFFFFF MUL NOT AND SWAP1 DUP4 PUSH4 0xFFFFFFFF AND MUL OR SWAP1 SSTORE POP POP POP JUMP JUMPDEST PUSH1 0x0 PUSH1 0x0 DUP1 MLOAD PUSH1 0x20 PUSH2 0x127A DUP4 CODECOPY DUP2 MLOAD SWAP2 MSTORE PUSH2 0x3D6 DUP2 PUSH2 0x6C6 JUMP JUMPDEST SWAP2 POP POP SWAP1 JUMP JUMPDEST PUSH1 0x40 MLOAD PUSH4 0x1D255AE5 PUSH1 0xE2 SHL DUP2 MSTORE PUSH1 0x0 SWAP1 ADDRESS SWAP1 DUP2 SWAP1 PUSH4 0x74956B94 SWAP1 PUSH2 0x316 SWAP1 DUP8 SWAP1 DUP8 SWAP1 PUSH1 0x4 ADD PUSH2 0x1169 JUMP JUMPDEST PUSH1 0x40 MLOAD PUSH4 0x15E55CE5 PUSH1 0xE0 SHL DUP2 MSTORE PUSH1 0x0 SWAP1 ADDRESS SWAP1 DUP2 SWAP1 PUSH4 0x15E55CE5 SWAP1 PUSH2 0x316 SWAP1 DUP8 SWAP1 DUP8 SWAP1 PUSH1 0x4 ADD PUSH2 0x1169 JUMP JUMPDEST PUSH32 0x8AB37FEF2B2E34C4B62FF9948EE661CDCF34E209D7C20F4D1F6E83085E93B1FF SLOAD PUSH1 0x0 DUP1 MLOAD PUSH1 0x20 PUSH2 0x127A DUP4 CODECOPY DUP2 MLOAD SWAP2 MSTORE SWAP1 PUSH2 0x46D SWAP1 DUP5 DUP5 PUSH2 0x723 JUMP JUMPDEST PUSH1 0x3 SWAP1 SWAP2 ADD SSTORE POP POP JUMP JUMPDEST PUSH1 0x0 PUSH2 0x481 PUSH2 0xF09 JUMP JUMPDEST PUSH2 0x489 PUSH2 0xF09 JUMP JUMPDEST PUSH1 0x0 DUP1 MLOAD PUSH1 0x20 PUSH2 0x127A DUP4 CODECOPY DUP2 MLOAD SWAP2 MSTORE PUSH2 0x4A4 DUP2 DUP9 DUP9 DUP9 PUSH2 0x7D7 JUMP JUMPDEST SWAP4 POP SWAP4 POP SWAP4 POP POP JUMPDEST SWAP4 POP SWAP4 POP SWAP4 SWAP1 POP JUMP JUMPDEST PUSH1 0x0 PUSH2 0x4BF PUSH2 0xF09 JUMP JUMPDEST PUSH2 0x4C7 PUSH2 0xF09 JUMP JUMPDEST DUP4 PUSH2 0x507 JUMPI PUSH1 0x40 MLOAD PUSH3 0x461BCD PUSH1 0xE5 SHL DUP2 MSTORE PUSH1 0x20 PUSH1 0x4 DUP3 ADD MSTORE PUSH1 0xB PUSH1 0x24 DUP3 ADD MSTORE PUSH11 0x656D70747920636C61696D PUSH1 0xA8 SHL PUSH1 0x44 DUP3 ADD MSTORE PUSH1 0x64 ADD JUMPDEST PUSH1 0x40 MLOAD DUP1 SWAP2 SUB SWAP1 REVERT JUMPDEST PUSH2 0x511 DUP7 DUP7 PUSH2 0x98B JUMP JUMPDEST PUSH2 0x552 JUMPI PUSH1 0x40 MLOAD PUSH3 0x461BCD PUSH1 0xE5 SHL DUP2 MSTORE PUSH1 0x20 PUSH1 0x4 DUP3 ADD MSTORE PUSH1 0x12 PUSH1 0x24 DUP3 ADD MSTORE PUSH18 0x1CD95B99195C881B9BDD08185B1B1BDDD959 PUSH1 0x72 SHL PUSH1 0x44 DUP3 ADD MSTORE PUSH1 0x64 ADD PUSH2 0x4FE JUMP JUMPDEST PUSH1 0x0 PUSH2 0x55E DUP8 DUP8 PUSH2 0xA38 JUMP JUMPDEST PUSH1 0x3 DUP9 ADD SLOAD SWAP1 SWAP2 POP PUSH1 0xF8 SHR DUP2 SHR PUSH1 0x1 AND ISZERO PUSH2 0x5CB JUMPI PUSH1 0x40 MLOAD PUSH3 0x461BCD PUSH1 0xE5 SHL DUP2 MSTORE PUSH1 0x20 PUSH1 0x4 DUP3 ADD MSTORE PUSH1 0x27 PUSH1 0x24 DUP3 ADD MSTORE PUSH32 0x73656E6465722068616420636C61696D656420696E20746869732065706F6368 PUSH1 0x44 DUP3 ADD MSTORE PUSH7 0x206265666F7265 PUSH1 0xC8 SHL PUSH1 0x64 DUP3 ADD MSTORE PUSH1 0x84 ADD PUSH2 0x4FE JUMP JUMPDEST DUP7 SLOAD PUSH2 0x5D5 JUMPI DUP5 DUP8 SSTORE JUMPDEST DUP7 SLOAD DUP6 EQ PUSH2 0x635 JUMPI PUSH2 0x629 PUSH1 0x2 PUSH1 0x40 MLOAD DUP1 PUSH1 0x40 ADD PUSH1 0x40 MSTORE DUP1 DUP11 PUSH1 0x0 ADD SLOAD DUP2 MSTORE PUSH1 0x20 ADD DUP9 DUP2 MSTORE POP PUSH1 0x40 MLOAD DUP1 PUSH1 0x40 ADD PUSH1 0x40 MSTORE DUP1 PUSH2 0x60F DUP13 PUSH2 0xB17 JUMP JUMPDEST PUSH1 0x1 PUSH1 0x1 PUSH1 0xA0 SHL SUB SWAP1 DUP2 AND DUP3 MSTORE DUP12 AND PUSH1 0x20 SWAP1 SWAP2 ADD MSTORE PUSH2 0xBD1 JUMP JUMPDEST SWAP4 POP SWAP4 POP SWAP4 POP POP PUSH2 0x4AC JUMP JUMPDEST PUSH2 0x63F DUP8 DUP8 PUSH2 0xC2A JUMP JUMPDEST PUSH2 0x648 DUP8 PUSH2 0xC55 JUMP JUMPDEST PUSH2 0x68C JUMPI PUSH1 0x40 DUP1 MLOAD DUP1 DUP3 ADD DUP3 MSTORE DUP7 DUP2 MSTORE PUSH1 0x0 PUSH1 0x20 DUP1 DUP4 ADD DUP3 SWAP1 MSTORE DUP4 MLOAD DUP1 DUP6 ADD SWAP1 SWAP5 MSTORE PUSH1 0x1 PUSH1 0x1 PUSH1 0xA0 SHL SUB DUP11 AND DUP5 MSTORE DUP4 ADD DUP2 SWAP1 MSTORE PUSH2 0x687 SWAP3 SWAP1 SWAP2 SWAP1 PUSH2 0xBD1 JUMP JUMPDEST PUSH2 0x4A4 JUMP JUMPDEST PUSH1 0x40 DUP1 MLOAD DUP1 DUP3 ADD DUP3 MSTORE DUP7 DUP2 MSTORE PUSH1 0x0 PUSH1 0x20 DUP1 DUP4 ADD DUP3 SWAP1 MSTORE DUP4 MLOAD DUP1 DUP6 ADD SWAP1 SWAP5 MSTORE PUSH1 0x1 PUSH1 0x1 PUSH1 0xA0 SHL SUB DUP11 AND DUP5 MSTORE DUP4 ADD MSTORE PUSH2 0x4A4 SWAP2 PUSH1 0x1 SWAP2 SWAP1 PUSH2 0xBD1 JUMP JUMPDEST PUSH1 0x0 PUSH2 0x6D1 DUP3 PUSH2 0xC77 JUMP JUMPDEST DUP2 SLOAD PUSH1 0x0 DUP4 SSTORE PUSH1 0x3 DUP4 ADD SLOAD PUSH1 0x1 PUSH1 0x1 PUSH1 0xF8 SHL SUB AND PUSH1 0x3 DUP5 ADD SSTORE PUSH1 0x40 MLOAD DUP2 DUP2 MSTORE PUSH32 0xDDC860800A99149017C480EC51523BF4143B7215E78956AE5C31E5C568F5383A SWAP1 PUSH1 0x20 ADD PUSH1 0x40 MLOAD DUP1 SWAP2 SUB SWAP1 LOG1 SWAP3 SWAP2 POP POP JUMP JUMPDEST PUSH1 0x0 PUSH1 0x8 DUP4 LT PUSH2 0x745 JUMPI PUSH1 0x40 MLOAD PUSH3 0x461BCD PUSH1 0xE5 SHL DUP2 MSTORE PUSH1 0x4 ADD PUSH2 0x4FE SWAP1 PUSH2 0x11BA JUMP JUMPDEST PUSH2 0x754 PUSH1 0x1 PUSH4 0x40000000 PUSH2 0x11FC JUMP JUMPDEST DUP3 GT ISZERO PUSH2 0x799 JUMPI PUSH1 0x40 MLOAD PUSH3 0x461BCD PUSH1 0xE5 SHL DUP2 MSTORE PUSH1 0x20 PUSH1 0x4 DUP3 ADD MSTORE PUSH1 0x13 PUSH1 0x24 DUP3 ADD MSTORE PUSH19 0x436C61696D734D61736B204F766572666C6F77 PUSH1 0x68 SHL PUSH1 0x44 DUP3 ADD MSTORE PUSH1 0x64 ADD PUSH2 0x4FE JUMP JUMPDEST PUSH1 0x0 PUSH2 0x7A6 DUP5 PUSH1 0x1E PUSH2 0x1213 JUMP JUMPDEST PUSH2 0x7B5 PUSH1 0x1 PUSH4 0x40000000 PUSH2 0x11FC JUMP JUMPDEST SWAP1 SHL NOT SWAP1 POP DUP5 DUP2 AND PUSH2 0x7C8 DUP6 PUSH1 0x1E PUSH2 0x1213 JUMP JUMPDEST SWAP4 SWAP1 SWAP4 SHL SWAP1 SWAP3 OR SWAP5 SWAP4 POP POP POP POP JUMP JUMPDEST PUSH1 0x0 PUSH2 0x7E1 PUSH2 0xF09 JUMP JUMPDEST PUSH2 0x7E9 PUSH2 0xF09 JUMP JUMPDEST PUSH2 0x7F3 DUP8 DUP7 PUSH2 0xCD1 JUMP JUMPDEST DUP7 SLOAD DUP5 SUB PUSH2 0x88D JUMPI PUSH2 0x804 DUP8 PUSH2 0xC55 JUMP JUMPDEST PUSH2 0x848 JUMPI PUSH1 0x40 DUP1 MLOAD DUP1 DUP3 ADD DUP3 MSTORE DUP6 DUP2 MSTORE PUSH1 0x0 PUSH1 0x20 DUP1 DUP4 ADD DUP3 SWAP1 MSTORE DUP4 MLOAD DUP1 DUP6 ADD SWAP1 SWAP5 MSTORE PUSH1 0x1 PUSH1 0x1 PUSH1 0xA0 SHL SUB DUP11 AND DUP5 MSTORE DUP4 ADD DUP2 SWAP1 MSTORE PUSH2 0x843 SWAP3 SWAP1 SWAP2 SWAP1 PUSH2 0xD7F JUMP JUMPDEST PUSH2 0x882 JUMP JUMPDEST PUSH1 0x40 DUP1 MLOAD DUP1 DUP3 ADD DUP3 MSTORE DUP6 DUP2 MSTORE PUSH1 0x0 PUSH1 0x20 DUP1 DUP4 ADD DUP3 SWAP1 MSTORE DUP4 MLOAD DUP1 DUP6 ADD SWAP1 SWAP5 MSTORE PUSH1 0x1 PUSH1 0x1 PUSH1 0xA0 SHL SUB DUP11 AND DUP5 MSTORE DUP4 ADD MSTORE PUSH2 0x882 SWAP2 PUSH1 0x1 SWAP2 SWAP1 PUSH2 0xD7F JUMP JUMPDEST SWAP3 POP SWAP3 POP SWAP3 POP PUSH2 0x981 JUMP JUMPDEST PUSH1 0x3 DUP8 ADD SLOAD PUSH1 0xF8 SHR ISZERO PUSH2 0x8E6 JUMPI PUSH2 0x882 PUSH1 0x2 PUSH1 0x40 MLOAD DUP1 PUSH1 0x40 ADD PUSH1 0x40 MSTORE DUP1 DUP11 PUSH1 0x0 ADD SLOAD DUP2 MSTORE PUSH1 0x20 ADD DUP8 DUP2 MSTORE POP PUSH1 0x40 MLOAD DUP1 PUSH1 0x40 ADD PUSH1 0x40 MSTORE DUP1 PUSH2 0x8CC DUP13 PUSH2 0xB17 JUMP JUMPDEST PUSH1 0x1 PUSH1 0x1 PUSH1 0xA0 SHL SUB SWAP1 DUP2 AND DUP3 MSTORE DUP12 AND PUSH1 0x20 SWAP1 SWAP2 ADD MSTORE PUSH2 0xD7F JUMP JUMPDEST DUP4 DUP8 SSTORE PUSH2 0x8F3 DUP8 DUP8 PUSH2 0xC2A JUMP JUMPDEST PUSH2 0x8FC DUP8 PUSH2 0xC55 JUMP JUMPDEST PUSH2 0x940 JUMPI PUSH1 0x40 DUP1 MLOAD DUP1 DUP3 ADD DUP3 MSTORE DUP6 DUP2 MSTORE PUSH1 0x0 PUSH1 0x20 DUP1 DUP4 ADD DUP3 SWAP1 MSTORE DUP4 MLOAD DUP1 DUP6 ADD SWAP1 SWAP5 MSTORE PUSH1 0x1 PUSH1 0x1 PUSH1 0xA0 SHL SUB DUP11 AND DUP5 MSTORE DUP4 ADD DUP2 SWAP1 MSTORE PUSH2 0x93B SWAP3 SWAP1 SWAP2 SWAP1 PUSH2 0xD7F JUMP JUMPDEST PUSH2 0x97A JUMP JUMPDEST PUSH1 0x40 DUP1 MLOAD DUP1 DUP3 ADD DUP3 MSTORE DUP6 DUP2 MSTORE PUSH1 0x0 PUSH1 0x20 DUP1 DUP4 ADD DUP3 SWAP1 MSTORE DUP4 MLOAD DUP1 DUP6 ADD SWAP1 SWAP5 MSTORE PUSH1 0x1 PUSH1 0x1 PUSH1 0xA0 SHL SUB DUP11 AND DUP5 MSTORE DUP4 ADD MSTORE PUSH2 0x97A SWAP2 PUSH1 0x1 SWAP2 SWAP1 PUSH2 0xD7F JUMP JUMPDEST SWAP3 POP SWAP3 POP SWAP3 POP JUMPDEST SWAP5 POP SWAP5 POP SWAP5 SWAP2 POP POP JUMP JUMPDEST PUSH1 0x0 PUSH1 0x1 PUSH1 0x1 PUSH1 0xA0 SHL SUB DUP3 AND PUSH2 0x9CF JUMPI PUSH1 0x40 MLOAD PUSH3 0x461BCD PUSH1 0xE5 SHL DUP2 MSTORE PUSH1 0x20 PUSH1 0x4 DUP3 ADD MSTORE PUSH1 0x9 PUSH1 0x24 DUP3 ADD MSTORE PUSH9 0x61646472657373203 PUSH1 0xBC SHL PUSH1 0x44 DUP3 ADD MSTORE PUSH1 0x64 ADD PUSH2 0x4FE JUMP JUMPDEST PUSH1 0x0 JUMPDEST PUSH1 0x1 DUP5 ADD SLOAD DUP2 LT ISZERO PUSH2 0xA2E JUMPI DUP4 PUSH1 0x1 ADD DUP2 DUP2 SLOAD DUP2 LT PUSH2 0x9F3 JUMPI PUSH2 0x9F3 PUSH2 0x1232 JUMP JUMPDEST PUSH1 0x0 SWAP2 DUP3 MSTORE PUSH1 0x20 SWAP1 SWAP2 KECCAK256 ADD SLOAD PUSH1 0x1 PUSH1 0x1 PUSH1 0xA0 SHL SUB SWAP1 DUP2 AND SWAP1 DUP5 AND SUB PUSH2 0xA1C JUMPI PUSH1 0x1 SWAP2 POP POP PUSH2 0x35D JUMP JUMPDEST DUP1 PUSH2 0xA26 DUP2 PUSH2 0x1248 JUMP JUMPDEST SWAP2 POP POP PUSH2 0x9D2 JUMP JUMPDEST POP PUSH1 0x0 SWAP4 SWAP3 POP POP POP JUMP JUMPDEST PUSH1 0x0 PUSH1 0x1 PUSH1 0x1 PUSH1 0xA0 SHL SUB DUP3 AND PUSH2 0xA7C JUMPI PUSH1 0x40 MLOAD PUSH3 0x461BCD PUSH1 0xE5 SHL DUP2 MSTORE PUSH1 0x20 PUSH1 0x4 DUP3 ADD MSTORE PUSH1 0x9 PUSH1 0x24 DUP3 ADD MSTORE PUSH9 0x61646472657373203 PUSH1 0xBC SHL PUSH1 0x44 DUP3 ADD MSTORE PUSH1 0x64 ADD PUSH2 0x4FE JUMP JUMPDEST PUSH1 0x0 JUMPDEST PUSH1 0x1 DUP5 ADD SLOAD DUP2 LT ISZERO PUSH2 0xAD8 JUMPI DUP4 PUSH1 0x1 ADD DUP2 DUP2 SLOAD DUP2 LT PUSH2 0xAA0 JUMPI PUSH2 0xAA0 PUSH2 0x1232 JUMP JUMPDEST PUSH1 0x0 SWAP2 DUP3 MSTORE PUSH1 0x20 SWAP1 SWAP2 KECCAK256 ADD SLOAD PUSH1 0x1 PUSH1 0x1 PUSH1 0xA0 SHL SUB SWAP1 DUP2 AND SWAP1 DUP5 AND SUB PUSH2 0xAC6 JUMPI SWAP1 POP PUSH2 0x35D JUMP JUMPDEST DUP1 PUSH2 0xAD0 DUP2 PUSH2 0x1248 JUMP JUMPDEST SWAP2 POP POP PUSH2 0xA7F JUMP JUMPDEST POP PUSH1 0x40 MLOAD PUSH3 0x461BCD PUSH1 0xE5 SHL DUP2 MSTORE PUSH1 0x20 PUSH1 0x4 DUP3 ADD MSTORE PUSH1 0x13 PUSH1 0x24 DUP3 ADD MSTORE PUSH19 0x1D985B1A59185D1BDC881B9BDD08199BDD5B99 PUSH1 0x6A SHL PUSH1 0x44 DUP3 ADD MSTORE PUSH1 0x64 ADD PUSH2 0x4FE JUMP JUMPDEST PUSH1 0x0 DUP1 PUSH2 0xB28 DUP4 PUSH1 0x3 ADD SLOAD PUSH1 0xF8 SHR SWAP1 JUMP JUMPDEST SWAP1 POP PUSH1 0x0 JUMPDEST PUSH1 0x1 DUP5 ADD SLOAD DUP2 LT ISZERO PUSH2 0xB88 JUMPI PUSH1 0x1 DUP2 SHL DUP3 AND ISZERO PUSH2 0xB76 JUMPI DUP4 PUSH1 0x1 ADD DUP2 DUP2 SLOAD DUP2 LT PUSH2 0xB59 JUMPI PUSH2 0xB59 PUSH2 0x1232 JUMP JUMPDEST PUSH1 0x0 SWAP2 DUP3 MSTORE PUSH1 0x20 SWAP1 SWAP2 KECCAK256 ADD SLOAD PUSH1 0x1 PUSH1 0x1 PUSH1 0xA0 SHL SUB AND SWAP5 SWAP4 POP POP POP POP JUMP JUMPDEST DUP1 PUSH2 0xB80 DUP2 PUSH2 0x1248 JUMP JUMPDEST SWAP2 POP POP PUSH2 0xB2D JUMP JUMPDEST POP PUSH1 0x40 MLOAD PUSH3 0x461BCD PUSH1 0xE5 SHL DUP2 MSTORE PUSH1 0x20 PUSH1 0x4 DUP3 ADD MSTORE PUSH1 0x1C PUSH1 0x24 DUP3 ADD MSTORE PUSH32 0x4167726565696E672076616C696461746F72206E6F7420666F756E6400000000 PUSH1 0x44 DUP3 ADD MSTORE PUSH1 0x64 ADD PUSH2 0x4FE JUMP JUMPDEST PUSH1 0x0 PUSH2 0xBDB PUSH2 0xF09 JUMP JUMPDEST PUSH2 0xBE3 PUSH2 0xF09 JUMP JUMPDEST PUSH32 0x495383AED97965C56495CDBADEDFE9667A1B028C54D3FC4B5335895146E02B70 DUP7 DUP7 DUP7 PUSH1 0x40 MLOAD PUSH2 0xC16 SWAP4 SWAP3 SWAP2 SWAP1 PUSH2 0xFD0 JUMP JUMPDEST PUSH1 0x40 MLOAD DUP1 SWAP2 SUB SWAP1 LOG1 POP SWAP4 SWAP5 SWAP3 SWAP4 POP SWAP1 SWAP2 SWAP1 POP JUMP JUMPDEST PUSH1 0x0 PUSH2 0xC36 DUP4 DUP4 PUSH2 0xA38 JUMP JUMPDEST PUSH1 0x3 DUP5 ADD SLOAD SWAP1 SWAP2 POP PUSH2 0xC48 SWAP1 DUP3 PUSH2 0xDC4 JUMP JUMPDEST DUP4 PUSH1 0x3 ADD DUP2 SWAP1 SSTORE POP POP POP POP JUMP JUMPDEST PUSH1 0x3 DUP2 ADD SLOAD PUSH1 0x0 SWAP1 PUSH1 0xF0 DUP2 SWAP1 SHR PUSH1 0xFF AND PUSH2 0xC6F DUP3 PUSH1 0xF8 SHR SWAP1 JUMP JUMPDEST EQ SWAP4 SWAP3 POP POP POP JUMP JUMPDEST PUSH1 0x0 PUSH2 0xC87 DUP3 PUSH1 0x3 ADD SLOAD PUSH1 0xF8 SHR SWAP1 JUMP JUMPDEST SWAP1 POP PUSH1 0x0 JUMPDEST PUSH1 0x1 DUP4 ADD SLOAD DUP2 LT ISZERO PUSH2 0xCCC JUMPI PUSH1 0x1 DUP2 SHL DUP3 AND ISZERO PUSH2 0xCBA JUMPI PUSH1 0x3 DUP4 ADD SLOAD PUSH2 0xCB4 SWAP1 DUP3 PUSH1 0x1 PUSH2 0xE02 JUMP JUMPDEST PUSH1 0x3 DUP5 ADD SSTORE JUMPDEST DUP1 PUSH2 0xCC4 DUP2 PUSH2 0x1248 JUMP JUMPDEST SWAP2 POP POP PUSH2 0xC8C JUMP JUMPDEST POP POP POP JUMP JUMPDEST PUSH1 0x0 JUMPDEST PUSH1 0x1 DUP4 ADD SLOAD DUP2 LT ISZERO PUSH2 0xCCC JUMPI DUP3 PUSH1 0x1 ADD DUP2 DUP2 SLOAD DUP2 LT PUSH2 0xCF5 JUMPI PUSH2 0xCF5 PUSH2 0x1232 JUMP JUMPDEST PUSH1 0x0 SWAP2 DUP3 MSTORE PUSH1 0x20 SWAP1 SWAP2 KECCAK256 ADD SLOAD PUSH1 0x1 PUSH1 0x1 PUSH1 0xA0 SHL SUB SWAP1 DUP2 AND SWAP1 DUP4 AND SUB PUSH2 0xD6D JUMPI PUSH1 0x0 DUP4 PUSH1 0x1 ADD DUP3 DUP2 SLOAD DUP2 LT PUSH2 0xD2B JUMPI PUSH2 0xD2B PUSH2 0x1232 JUMP JUMPDEST PUSH1 0x0 SWAP2 DUP3 MSTORE PUSH1 0x20 SWAP1 SWAP2 KECCAK256 ADD DUP1 SLOAD PUSH1 0x1 PUSH1 0x1 PUSH1 0xA0 SHL SUB NOT AND PUSH1 0x1 PUSH1 0x1 PUSH1 0xA0 SHL SUB SWAP3 SWAP1 SWAP3 AND SWAP2 SWAP1 SWAP2 OR SWAP1 SSTORE PUSH1 0x3 DUP4 ADD SLOAD PUSH2 0xD63 SWAP1 DUP3 PUSH2 0xE55 JUMP JUMPDEST PUSH1 0x3 DUP5 ADD SSTORE POP POP POP JUMP JUMPDEST DUP1 PUSH2 0xD77 DUP2 PUSH2 0x1248 JUMP JUMPDEST SWAP2 POP POP PUSH2 0xCD4 JUMP JUMPDEST PUSH1 0x0 PUSH2 0xD89 PUSH2 0xF09 JUMP JUMPDEST PUSH2 0xD91 PUSH2 0xF09 JUMP JUMPDEST PUSH32 0x9201C193A07CAE1DF95AE692CC698685574C942A04514C48A4C3249F38594FF DUP7 DUP7 DUP7 PUSH1 0x40 MLOAD PUSH2 0xC16 SWAP4 SWAP3 SWAP2 SWAP1 PUSH2 0xFD0 JUMP JUMPDEST PUSH1 0x0 PUSH1 0x8 DUP3 LT PUSH2 0xDE6 JUMPI PUSH1 0x40 MLOAD PUSH3 0x461BCD PUSH1 0xE5 SHL DUP2 MSTORE PUSH1 0x4 ADD PUSH2 0x4FE SWAP1 PUSH2 0x11BA JUMP JUMPDEST PUSH1 0x0 PUSH2 0xDF3 DUP4 PUSH1 0xF8 PUSH2 0x1261 JUMP JUMPDEST PUSH1 0x1 SWAP1 SHL DUP5 OR SWAP2 POP POP SWAP3 SWAP2 POP POP JUMP JUMPDEST PUSH1 0x0 PUSH1 0x8 DUP4 LT PUSH2 0xE24 JUMPI PUSH1 0x40 MLOAD PUSH3 0x461BCD PUSH1 0xE5 SHL DUP2 MSTORE PUSH1 0x4 ADD PUSH2 0x4FE SWAP1 PUSH2 0x11BA JUMP JUMPDEST PUSH1 0x0 PUSH2 0xE30 DUP6 DUP6 PUSH2 0xEBB JUMP JUMPDEST SWAP1 POP PUSH1 0x0 PUSH2 0xE3E DUP5 DUP4 PUSH2 0x1261 JUMP JUMPDEST SWAP1 POP PUSH2 0xE4B DUP7 DUP7 DUP4 PUSH2 0x723 JUMP JUMPDEST SWAP7 SWAP6 POP POP POP POP POP POP JUMP JUMPDEST PUSH1 0x0 PUSH1 0x8 DUP3 LT PUSH2 0xE77 JUMPI PUSH1 0x40 MLOAD PUSH3 0x461BCD PUSH1 0xE5 SHL DUP2 MSTORE PUSH1 0x4 ADD PUSH2 0x4FE SWAP1 PUSH2 0x11BA JUMP JUMPDEST DUP3 PUSH1 0x0 PUSH2 0xE85 DUP5 PUSH1 0xF8 PUSH2 0x1261 JUMP JUMPDEST PUSH1 0x1 SWAP1 SHL NOT SWAP2 DUP3 AND SWAP2 SWAP1 POP PUSH2 0xE9B DUP5 PUSH1 0xF0 PUSH2 0x1261 JUMP JUMPDEST PUSH1 0x1 SWAP1 SHL NOT SWAP2 DUP3 AND SWAP2 SWAP1 POP PUSH2 0xEB2 DUP3 DUP6 PUSH1 0x0 PUSH2 0x723 JUMP JUMPDEST SWAP6 SWAP5 POP POP POP POP POP JUMP JUMPDEST PUSH1 0x0 PUSH1 0x8 DUP3 LT PUSH2 0xEDD JUMPI PUSH1 0x40 MLOAD PUSH3 0x461BCD PUSH1 0xE5 SHL DUP2 MSTORE PUSH1 0x4 ADD PUSH2 0x4FE SWAP1 PUSH2 0x11BA JUMP JUMPDEST PUSH1 0x0 PUSH2 0xEEE PUSH1 0x1 PUSH4 0x40000000 PUSH2 0x11FC JUMP JUMPDEST SWAP1 POP DUP1 PUSH2 0xEFC DUP5 PUSH1 0x1E PUSH2 0x1213 JUMP JUMPDEST DUP6 SWAP1 SHR AND SWAP2 POP POP SWAP3 SWAP2 POP POP JUMP JUMPDEST PUSH1 0x40 MLOAD DUP1 PUSH1 0x40 ADD PUSH1 0x40 MSTORE DUP1 PUSH1 0x2 SWAP1 PUSH1 0x20 DUP3 MUL DUP1 CALLDATASIZE DUP4 CALLDATACOPY POP SWAP2 SWAP3 SWAP2 POP POP JUMP JUMPDEST PUSH1 0x20 DUP1 DUP3 MSTORE DUP3 MLOAD DUP3 DUP3 ADD DUP2 SWAP1 MSTORE PUSH1 0x0 SWAP2 SWAP1 DUP5 DUP3 ADD SWAP1 PUSH1 0x40 DUP6 ADD SWAP1 DUP5 JUMPDEST DUP2 DUP2 LT ISZERO PUSH2 0xF68 JUMPI DUP4 MLOAD PUSH1 0x1 PUSH1 0x1 PUSH1 0xA0 SHL SUB AND DUP4 MSTORE SWAP3 DUP5 ADD SWAP3 SWAP2 DUP5 ADD SWAP2 PUSH1 0x1 ADD PUSH2 0xF43 JUMP JUMPDEST POP SWAP1 SWAP7 SWAP6 POP POP POP POP POP POP JUMP JUMPDEST DUP1 CALLDATALOAD PUSH1 0x1 PUSH1 0x1 PUSH1 0xA0 SHL SUB DUP2 AND DUP2 EQ PUSH2 0xF8B JUMPI PUSH1 0x0 DUP1 REVERT JUMPDEST SWAP2 SWAP1 POP JUMP JUMPDEST PUSH1 0x0 DUP1 PUSH1 0x40 DUP4 DUP6 SUB SLT ISZERO PUSH2 0xFA3 JUMPI PUSH1 0x0 DUP1 REVERT JUMPDEST PUSH2 0xFAC DUP4 PUSH2 0xF74 JUMP JUMPDEST SWAP5 PUSH1 0x20 SWAP4 SWAP1 SWAP4 ADD CALLDATALOAD SWAP4 POP POP POP JUMP JUMPDEST PUSH4 0x4E487B71 PUSH1 0xE0 SHL PUSH1 0x0 MSTORE PUSH1 0x21 PUSH1 0x4 MSTORE PUSH1 0x24 PUSH1 0x0 REVERT JUMPDEST PUSH1 0xA0 DUP2 ADD PUSH1 0x3 DUP6 LT PUSH2 0xFF2 JUMPI PUSH4 0x4E487B71 PUSH1 0xE0 SHL PUSH1 0x0 MSTORE PUSH1 0x21 PUSH1 0x4 MSTORE PUSH1 0x24 PUSH1 0x0 REVERT JUMPDEST DUP5 DUP3 MSTORE PUSH1 0x20 DUP1 DUP4 ADD DUP6 PUSH1 0x0 JUMPDEST PUSH1 0x2 DUP2 LT ISZERO PUSH2 0x101B JUMPI DUP2 MLOAD DUP4 MSTORE SWAP2 DUP4 ADD SWAP2 SWAP1 DUP4 ADD SWAP1 PUSH1 0x1 ADD PUSH2 0xFFE JUMP JUMPDEST POP POP POP PUSH1 0x60 DUP4 ADD DUP5 PUSH1 0x0 JUMPDEST PUSH1 0x2 DUP2 LT ISZERO PUSH2 0x104C JUMPI DUP2 MLOAD PUSH1 0x1 PUSH1 0x1 PUSH1 0xA0 SHL SUB AND DUP4 MSTORE SWAP2 DUP4 ADD SWAP2 SWAP1 DUP4 ADD SWAP1 PUSH1 0x1 ADD PUSH2 0x1026 JUMP JUMPDEST POP POP POP POP SWAP5 SWAP4 POP POP POP POP JUMP JUMPDEST PUSH1 0x0 DUP1 PUSH1 0x20 DUP4 DUP6 SUB SLT ISZERO PUSH2 0x106B JUMPI PUSH1 0x0 DUP1 REVERT JUMPDEST DUP3 CALLDATALOAD PUSH8 0xFFFFFFFFFFFFFFFF DUP1 DUP3 GT ISZERO PUSH2 0x1083 JUMPI PUSH1 0x0 DUP1 REVERT JUMPDEST DUP2 DUP6 ADD SWAP2 POP DUP6 PUSH1 0x1F DUP4 ADD SLT PUSH2 0x1097 JUMPI PUSH1 0x0 DUP1 REVERT JUMPDEST DUP2 CALLDATALOAD DUP2 DUP2 GT ISZERO PUSH2 0x10A6 JUMPI PUSH1 0x0 DUP1 REVERT JUMPDEST DUP7 PUSH1 0x20 DUP3 DUP6 ADD ADD GT ISZERO PUSH2 0x10B8 JUMPI PUSH1 0x0 DUP1 REVERT JUMPDEST PUSH1 0x20 SWAP3 SWAP1 SWAP3 ADD SWAP7 SWAP2 SWAP6 POP SWAP1 SWAP4 POP POP POP POP JUMP JUMPDEST PUSH1 0x0 PUSH1 0x20 DUP3 DUP5 SUB SLT ISZERO PUSH2 0x10DC JUMPI PUSH1 0x0 DUP1 REVERT JUMPDEST DUP2 CALLDATALOAD PUSH1 0x3 DUP2 LT PUSH2 0x10EB JUMPI PUSH1 0x0 DUP1 REVERT JUMPDEST SWAP4 SWAP3 POP POP POP JUMP JUMPDEST PUSH1 0x0 PUSH1 0x20 DUP3 DUP5 SUB SLT ISZERO PUSH2 0x1104 JUMPI PUSH1 0x0 DUP1 REVERT JUMPDEST POP CALLDATALOAD SWAP2 SWAP1 POP JUMP JUMPDEST PUSH1 0x0 DUP1 PUSH1 0x40 DUP4 DUP6 SUB SLT ISZERO PUSH2 0x111E JUMPI PUSH1 0x0 DUP1 REVERT JUMPDEST POP POP DUP1 CALLDATALOAD SWAP3 PUSH1 0x20 SWAP1 SWAP2 ADD CALLDATALOAD SWAP2 POP JUMP JUMPDEST PUSH1 0x0 DUP1 PUSH1 0x0 PUSH1 0x60 DUP5 DUP7 SUB SLT ISZERO PUSH2 0x1142 JUMPI PUSH1 0x0 DUP1 REVERT JUMPDEST PUSH2 0x114B DUP5 PUSH2 0xF74 JUMP JUMPDEST SWAP3 POP PUSH2 0x1159 PUSH1 0x20 DUP6 ADD PUSH2 0xF74 JUMP JUMPDEST SWAP2 POP PUSH1 0x40 DUP5 ADD CALLDATALOAD SWAP1 POP SWAP3 POP SWAP3 POP SWAP3 JUMP JUMPDEST PUSH1 0x20 DUP2 MSTORE DUP2 PUSH1 0x20 DUP3 ADD MSTORE DUP2 DUP4 PUSH1 0x40 DUP4 ADD CALLDATACOPY PUSH1 0x0 DUP2 DUP4 ADD PUSH1 0x40 SWAP1 DUP2 ADD SWAP2 SWAP1 SWAP2 MSTORE PUSH1 0x1F SWAP1 SWAP3 ADD PUSH1 0x1F NOT AND ADD ADD SWAP2 SWAP1 POP JUMP JUMPDEST PUSH1 0x0 PUSH1 0x20 DUP3 DUP5 SUB SLT ISZERO PUSH2 0x11AA JUMPI PUSH1 0x0 DUP1 REVERT JUMPDEST DUP2 MLOAD DUP1 ISZERO ISZERO DUP2 EQ PUSH2 0x10EB JUMPI PUSH1 0x0 DUP1 REVERT JUMPDEST PUSH1 0x20 DUP1 DUP3 MSTORE PUSH1 0x12 SWAP1 DUP3 ADD MSTORE PUSH18 0x696E646578206F7574206F662072616E6765 PUSH1 0x70 SHL PUSH1 0x40 DUP3 ADD MSTORE PUSH1 0x60 ADD SWAP1 JUMP JUMPDEST PUSH4 0x4E487B71 PUSH1 0xE0 SHL PUSH1 0x0 MSTORE PUSH1 0x11 PUSH1 0x4 MSTORE PUSH1 0x24 PUSH1 0x0 REVERT JUMPDEST PUSH1 0x0 DUP3 DUP3 LT ISZERO PUSH2 0x120E JUMPI PUSH2 0x120E PUSH2 0x11E6 JUMP JUMPDEST POP SUB SWAP1 JUMP JUMPDEST PUSH1 0x0 DUP2 PUSH1 0x0 NOT DIV DUP4 GT DUP3 ISZERO ISZERO AND ISZERO PUSH2 0x122D JUMPI PUSH2 0x122D PUSH2 0x11E6 JUMP JUMPDEST POP MUL SWAP1 JUMP JUMPDEST PUSH4 0x4E487B71 PUSH1 0xE0 SHL PUSH1 0x0 MSTORE PUSH1 0x32 PUSH1 0x4 MSTORE PUSH1 0x24 PUSH1 0x0 REVERT JUMPDEST PUSH1 0x0 PUSH1 0x1 DUP3 ADD PUSH2 0x125A JUMPI PUSH2 0x125A PUSH2 0x11E6 JUMP JUMPDEST POP PUSH1 0x1 ADD SWAP1 JUMP JUMPDEST PUSH1 0x0 DUP3 NOT DUP3 GT ISZERO PUSH2 0x1274 JUMPI PUSH2 0x1274 PUSH2 0x11E6 JUMP JUMPDEST POP ADD SWAP1 JUMP INVALID DUP11 0xB3 PUSH32 0xEF2B2E34C4B62FF9948EE661CDCF34E209D7C20F4D1F6E83085E93B1FCA26469 PUSH17 0x667358221220F970C206E39DD078708449 SHR LOG4 0xA6 0xEB PUSH3 0x634948 0xE2 0xD2 0x1E SHR EXP 0x4C 0x29 PUSH30 0x176212378F64736F6C634300080D00330000000000000000000000000000 "
    },
    "gasEstimates": {
      "creation": {
        "codeDepositCost": "963000",
        "executionCost": "1001",
        "totalCost": "964001"
      },
      "external": {
        "_erc20Withdrawal(bytes)": "infinite",
        "_erc721Withdrawal(bytes)": "infinite",
        "_etherWithdrawal(bytes)": "infinite",
        "_getFeePerClaim()": "2304",
        "_getInputDriveSize()": "2403",
        "_getValidators()": "infinite",
        "_onClaim(address,bytes32)": "infinite",
        "_onDisputeEnd(address,address,bytes32)": "infinite",
        "_onNewEpochOutput(bytes32)": "46548",
        "_onNewEpochVM()": "infinite",
        "_setCurrentPhase(uint8)": "24694",
        "_setNumClaims(uint256,uint256)": "infinite"
      }
    },
    "methodIdentifiers": {
      "_erc20Withdrawal(bytes)": "3ea30fed",
      "_erc721Withdrawal(bytes)": "d446e010",
      "_etherWithdrawal(bytes)": "bcb3571a",
      "_getFeePerClaim()": "15afd588",
      "_getInputDriveSize()": "83089f41",
      "_getValidators()": "1487d4a9",
      "_onClaim(address,bytes32)": "3672682c",
      "_onDisputeEnd(address,address,bytes32)": "f8a7ea5d",
      "_onNewEpochOutput(bytes32)": "98f69b16",
      "_onNewEpochVM()": "9d45ceca",
      "_setCurrentPhase(uint8)": "57414ee8",
      "_setNumClaims(uint256,uint256)": "da048e36"
    }
  },
  "storageLayout": {
    "storage": [],
    "types": null
  },
  "userdoc": {
    "events": {
      "ClaimReceived(uint8,bytes32[2],address[2])": {
        "notice": "emitted on Claim received"
      },
      "DisputeEnded(uint8,bytes32[2],address[2])": {
        "notice": "emitted on Dispute end"
      },
      "NewEpoch(bytes32)": {
        "notice": "emitted on new Epoch"
      }
    },
    "kind": "user",
    "methods": {
      "_onDisputeEnd(address,address,bytes32)": {
        "notice": "called when a dispute ends in rollups"
      },
      "_onNewEpochVM()": {
        "notice": "called when a new epoch starts"
      }
    },
    "version": 1
  }
}