{
  "contractName": "DebugFacet",
  "sourceName": "contracts/facets/DebugFacet.sol",
  "abi": [
    {
      "anonymous": false,
      "inputs": [
        {
          "indexed": false,
          "internalType": "enum Result",
          "name": "result",
          "type": "uint8"
        },
        {
          "indexed": false,
          "internalType": "bytes32[2]",
          "name": "claims",
          "type": "bytes32[2]"
        },
        {
          "indexed": false,
          "internalType": "address payable[2]",
          "name": "validators",
          "type": "address[2]"
        }
      ],
      "name": "ClaimReceived",
      "type": "event"
    },
    {
      "anonymous": false,
      "inputs": [
        {
          "indexed": false,
          "internalType": "enum Result",
          "name": "result",
          "type": "uint8"
        },
        {
          "indexed": false,
          "internalType": "bytes32[2]",
          "name": "claims",
          "type": "bytes32[2]"
        },
        {
          "indexed": false,
          "internalType": "address payable[2]",
          "name": "validators",
          "type": "address[2]"
        }
      ],
      "name": "DisputeEnded",
      "type": "event"
    },
    {
      "anonymous": false,
      "inputs": [
        {
          "indexed": false,
          "internalType": "bytes32",
          "name": "claim",
          "type": "bytes32"
        }
      ],
      "name": "NewEpoch",
      "type": "event"
    },
    {
      "inputs": [
        {
          "internalType": "bytes",
          "name": "_data",
          "type": "bytes"
        }
      ],
      "name": "_erc20Withdrawal",
      "outputs": [
        {
          "internalType": "bool",
          "name": "",
          "type": "bool"
        }
      ],
      "stateMutability": "nonpayable",
      "type": "function"
    },
    {
      "inputs": [
        {
          "internalType": "bytes",
          "name": "_data",
          "type": "bytes"
        }
      ],
      "name": "_erc721Withdrawal",
      "outputs": [
        {
          "internalType": "bool",
          "name": "",
          "type": "bool"
        }
      ],
      "stateMutability": "nonpayable",
      "type": "function"
    },
    {
      "inputs": [
        {
          "internalType": "bytes",
          "name": "_data",
          "type": "bytes"
        }
      ],
      "name": "_etherWithdrawal",
      "outputs": [
        {
          "internalType": "bool",
          "name": "",
          "type": "bool"
        }
      ],
      "stateMutability": "nonpayable",
      "type": "function"
    },
    {
      "inputs": [],
      "name": "_getFeePerClaim",
      "outputs": [
        {
          "internalType": "uint256",
          "name": "",
          "type": "uint256"
        }
      ],
      "stateMutability": "view",
      "type": "function"
    },
    {
      "inputs": [],
      "name": "_getInputDriveSize",
      "outputs": [
        {
          "internalType": "uint256",
          "name": "",
          "type": "uint256"
        }
      ],
      "stateMutability": "view",
      "type": "function"
    },
    {
      "inputs": [],
      "name": "_getValidators",
      "outputs": [
        {
          "internalType": "address payable[]",
          "name": "",
          "type": "address[]"
        }
      ],
      "stateMutability": "view",
      "type": "function"
    },
    {
      "inputs": [
        {
          "internalType": "address payable",
          "name": "_sender",
          "type": "address"
        },
        {
          "internalType": "bytes32",
          "name": "_claim",
          "type": "bytes32"
        }
      ],
      "name": "_onClaim",
      "outputs": [
        {
          "internalType": "enum Result",
          "name": "",
          "type": "uint8"
        },
        {
          "internalType": "bytes32[2]",
          "name": "",
          "type": "bytes32[2]"
        },
        {
          "internalType": "address payable[2]",
          "name": "",
          "type": "address[2]"
        }
      ],
      "stateMutability": "nonpayable",
      "type": "function"
    },
    {
      "inputs": [
        {
          "internalType": "address payable",
          "name": "_winner",
          "type": "address"
        },
        {
          "internalType": "address payable",
          "name": "_loser",
          "type": "address"
        },
        {
          "internalType": "bytes32",
          "name": "_winningClaim",
          "type": "bytes32"
        }
      ],
      "name": "_onDisputeEnd",
      "outputs": [
        {
          "internalType": "enum Result",
          "name": "",
          "type": "uint8"
        },
        {
          "internalType": "bytes32[2]",
          "name": "",
          "type": "bytes32[2]"
        },
        {
          "internalType": "address payable[2]",
          "name": "",
          "type": "address[2]"
        }
      ],
      "stateMutability": "nonpayable",
      "type": "function"
    },
    {
      "inputs": [
        {
          "internalType": "bytes32",
          "name": "epochHash",
          "type": "bytes32"
        }
      ],
      "name": "_onNewEpochOutput",
      "outputs": [],
      "stateMutability": "nonpayable",
      "type": "function"
    },
    {
      "inputs": [],
      "name": "_onNewEpochVM",
      "outputs": [
        {
          "internalType": "bytes32",
          "name": "",
          "type": "bytes32"
        }
      ],
      "stateMutability": "nonpayable",
      "type": "function"
    },
    {
      "inputs": [
        {
          "internalType": "enum Phase",
          "name": "_phase",
          "type": "uint8"
        }
      ],
      "name": "_setCurrentPhase",
      "outputs": [],
      "stateMutability": "nonpayable",
      "type": "function"
    },
    {
      "inputs": [
        {
          "internalType": "uint256",
          "name": "_validatorIndex",
          "type": "uint256"
        },
        {
          "internalType": "uint256",
          "name": "_value",
          "type": "uint256"
        }
      ],
      "name": "_setNumClaims",
      "outputs": [],
      "stateMutability": "nonpayable",
      "type": "function"
    }
  ],
  "bytecode": "0x608060405234801561001057600080fd5b50611536806100206000396000f3fe608060405234801561001057600080fd5b50600436106100b45760003560e01c806398f69b161161007157806398f69b16146101895780639d45ceca146101eb578063bcb3571a146101f3578063d446e01014610206578063da048e3614610219578063f8a7ea5d1461022c57600080fd5b80631487d4a9146100b957806315afd588146100d75780633672682c146101085780633ea30fed1461012a57806357414ee81461014d57806383089f4114610162575b600080fd5b6100c161023f565b6040516100ce91906111f7565b60405180910390f35b7f844e22529543d6e722c6477171dd50ffe5b412198b92cd9aeea62bbfabe4cc74545b6040519081526020016100ce565b61011b610116366004611260565b6102b2565b6040516100ce939291906112a0565b61013d610138366004611328565b6102ec565b60405190151581526020016100ce565b61016061015b36600461139a565b610363565b005b7f943d5d24442f02461445e15c5d7d4a4ef0acb0d32c5d6f6af37a688224991301546100fa565b6101606101973660046113c2565b7f0635ad75fae4d4e8d896461a635d23700076a1c3fd8da26276f18cb1c09ea56780546001810182556000919091527f5a37c7635ca526c8f76c52ec540210850576205b63dbb3612d47df2b54d6918a0155565b6100fa6103bc565b61013d610201366004611328565b6103dc565b61013d610214366004611328565b610406565b6101606102273660046113db565b610430565b61011b61023a3660046113fd565b6104d6565b606060006000805160206114e1833981519152600181018054604080516020808402820181019092528281529394508301828280156102a757602002820191906000526020600020905b81546001600160a01b03168152600190910190602001808311610289575b505050505091505090565b60006102bc6111d9565b6102c46111d9565b6000805160206114e18339815191526102de818787610514565b935093509350509250925092565b6040516351584bd760e11b81526000903090819063a2b097ae906103169087908790600401611439565b6020604051808303816000875af1158015610335573d6000803e3d6000fd5b505050506040513d601f19601f820116820180604052508101906103599190611468565b9150505b92915050565b7fd32d7f90491bee81172a406b65f3270d810392fe53bb0379dde8bdd4e624189c8160028111156103965761039661128a565b8160010160106101000a81548163ffffffff021916908363ffffffff1602179055505050565b60006000805160206114e18339815191526103d68161079e565b91505090565b604051631d255ae560e21b8152600090309081906374956b94906103169087908790600401611439565b6040516315e55ce560e01b8152600090309081906315e55ce5906103169087908790600401611439565b60006000805160206114e183398151915260038101546040516301bcff6560e71b81526004810191909152602481018590526044810184905290915073__$cf2fb72623b6ba225c3cfc459aec70b905$__9063de7fb28090606401602060405180830381865af41580156104a8573d6000803e3d6000fd5b505050506040513d601f19601f820116820180604052508101906104cc919061148a565b6003909101555050565b60006104e06111d9565b6104e86111d9565b6000805160206114e183398151915261050381888888610867565b935093509350505b93509350939050565b600061051e6111d9565b6105266111d9565b836105665760405162461bcd60e51b815260206004820152600b60248201526a656d70747920636c61696d60a81b60448201526064015b60405180910390fd5b6105708686610a8c565b6105b15760405162461bcd60e51b81526020600482015260126024820152711cd95b99195c881b9bdd08185b1b1bddd95960721b604482015260640161055d565b60006105bd8787610b39565b600388015460405163cb9f881360e01b815291925073__$cf2fb72623b6ba225c3cfc459aec70b905$__9163cb9f881391610605918590600401918252602082015260400190565b602060405180830381865af4158015610622573d6000803e3d6000fd5b505050506040513d601f19601f820116820180604052508101906106469190611468565b156106a35760405162461bcd60e51b815260206004820152602760248201527f73656e6465722068616420636c61696d656420696e20746869732065706f6368604482015266206265666f726560c81b606482015260840161055d565b86546106ad578487555b8654851461070d57610701600260405180604001604052808a6000015481526020018881525060405180604001604052806106e78c610c18565b6001600160a01b0390811682528b16602090910152610d3f565b9350935093505061050b565b6107178787610d98565b61072087610e3a565b610764576040805180820182528681526000602080830182905283518085019094526001600160a01b038a168452830181905261075f92909190610d3f565b610503565b6040805180820182528681526000602080830182905283518085019094526001600160a01b038a1684528301526105039160019190610d3f565b60006107a982610f32565b81546000835560038301546040516367bdc85360e11b8152600481019190915273__$cf2fb72623b6ba225c3cfc459aec70b905$__9063cf7b90a690602401602060405180830381865af4158015610805573d6000803e3d6000fd5b505050506040513d601f19601f82011682018060405250810190610829919061148a565b60038401556040518181527fddc860800a99149017c480ec51523bf4143b7215e78956ae5c31e5c568f5383a9060200160405180910390a192915050565b60006108716111d9565b6108796111d9565b6108838786611074565b8654840361091d5761089487610e3a565b6108d8576040805180820182528581526000602080830182905283518085019094526001600160a01b038a16845283018190526108d392909190611194565b610912565b6040805180820182528581526000602080830182905283518085019094526001600160a01b038a1684528301526109129160019190611194565b925092509250610a82565b6003870154604051623ea57d60ea1b8152600481019190915273__$cf2fb72623b6ba225c3cfc459aec70b905$__9063fa95f40090602401602060405180830381865af4158015610972573d6000803e3d6000fd5b505050506040513d601f19601f82011682018060405250810190610996919061148a565b156109e757610912600260405180604001604052808a6000015481526020018781525060405180604001604052806109cd8c610c18565b6001600160a01b0390811682528b16602090910152611194565b8387556109f48787610d98565b6109fd87610e3a565b610a41576040805180820182528581526000602080830182905283518085019094526001600160a01b038a1684528301819052610a3c92909190611194565b610a7b565b6040805180820182528581526000602080830182905283518085019094526001600160a01b038a168452830152610a7b9160019190611194565b9250925092505b9450945094915050565b60006001600160a01b038216610ad05760405162461bcd60e51b815260206004820152600960248201526806164647265737320360bc1b604482015260640161055d565b60005b6001840154811015610b2f57836001018181548110610af457610af46114a3565b6000918252602090912001546001600160a01b0390811690841603610b1d57600191505061035d565b80610b27816114b9565b915050610ad3565b5060009392505050565b60006001600160a01b038216610b7d5760405162461bcd60e51b815260206004820152600960248201526806164647265737320360bc1b604482015260640161055d565b60005b6001840154811015610bd957836001018181548110610ba157610ba16114a3565b6000918252602090912001546001600160a01b0390811690841603610bc757905061035d565b80610bd1816114b9565b915050610b80565b5060405162461bcd60e51b81526020600482015260136024820152721d985b1a59185d1bdc881b9bdd08199bdd5b99606a1b604482015260640161055d565b6003810154604051623ea57d60ea1b81526004810191909152600090819073__$cf2fb72623b6ba225c3cfc459aec70b905$__9063fa95f40090602401602060405180830381865af4158015610c72573d6000803e3d6000fd5b505050506040513d601f19601f82011682018060405250810190610c96919061148a565b905060005b6001840154811015610cf6576001811b821615610ce457836001018181548110610cc757610cc76114a3565b6000918252602090912001546001600160a01b0316949350505050565b80610cee816114b9565b915050610c9b565b5060405162461bcd60e51b815260206004820152601c60248201527f4167726565696e672076616c696461746f72206e6f7420666f756e6400000000604482015260640161055d565b6000610d496111d9565b610d516111d9565b7f495383aed97965c56495cdbadedfe9667a1b028c54d3fc4b5335895146e02b70868686604051610d84939291906112a0565b60405180910390a150939492935090919050565b6000610da48383610b39565b600384015460405163335c20d760e21b815291925073__$cf2fb72623b6ba225c3cfc459aec70b905$__9163cd70835c91610dec918590600401918252602082015260400190565b602060405180830381865af4158015610e09573d6000803e3d6000fd5b505050506040513d601f19601f82011682018060405250810190610e2d919061148a565b8360030181905550505050565b6003810154604051636a02b7ff60e11b8152600481018290526000919073__$cf2fb72623b6ba225c3cfc459aec70b905$__9063d4056ffe90602401602060405180830381865af4158015610e93573d6000803e3d6000fd5b505050506040513d601f19601f82011682018060405250810190610eb7919061148a565b604051623ea57d60ea1b81526004810183905273__$cf2fb72623b6ba225c3cfc459aec70b905$__9063fa95f40090602401602060405180830381865af4158015610f06573d6000803e3d6000fd5b505050506040513d601f19601f82011682018060405250810190610f2a919061148a565b149392505050565b6003810154604051623ea57d60ea1b815260009173__$cf2fb72623b6ba225c3cfc459aec70b905$__9163fa95f40091610f729160040190815260200190565b602060405180830381865af4158015610f8f573d6000803e3d6000fd5b505050506040513d601f19601f82011682018060405250810190610fb3919061148a565b905060005b600183015481101561106f576001811b82161561105d5760038301546040516314bc74ad60e21b81526004810191909152602481018290526001604482015273__$cf2fb72623b6ba225c3cfc459aec70b905$__906352f1d2b490606401602060405180830381865af4158015611033573d6000803e3d6000fd5b505050506040513d601f19601f82011682018060405250810190611057919061148a565b60038401555b80611067816114b9565b915050610fb8565b505050565b60005b600183015481101561106f57826001018181548110611098576110986114a3565b6000918252602090912001546001600160a01b03908116908316036111825760008360010182815481106110ce576110ce6114a3565b600091825260209091200180546001600160a01b0319166001600160a01b03929092169190911790556003830154604051632b099ae360e21b815260048101919091526024810182905273__$cf2fb72623b6ba225c3cfc459aec70b905$__9063ac266b8c90604401602060405180830381865af4158015611154573d6000803e3d6000fd5b505050506040513d601f19601f82011682018060405250810190611178919061148a565b6003840155505050565b8061118c816114b9565b915050611077565b600061119e6111d9565b6111a66111d9565b7f09201c193a07cae1df95ae692cc698685574c942a04514c48a4c3249f38594ff868686604051610d84939291906112a0565b60405180604001604052806002906020820280368337509192915050565b6020808252825182820181905260009190848201906040850190845b818110156112385783516001600160a01b031683529284019291840191600101611213565b50909695505050505050565b80356001600160a01b038116811461125b57600080fd5b919050565b6000806040838503121561127357600080fd5b61127c83611244565b946020939093013593505050565b634e487b7160e01b600052602160045260246000fd5b60a08101600385106112c257634e487b7160e01b600052602160045260246000fd5b84825260208083018560005b60028110156112eb578151835291830191908301906001016112ce565b505050606083018460005b600281101561131c5781516001600160a01b0316835291830191908301906001016112f6565b50505050949350505050565b6000806020838503121561133b57600080fd5b823567ffffffffffffffff8082111561135357600080fd5b818501915085601f83011261136757600080fd5b81358181111561137657600080fd5b86602082850101111561138857600080fd5b60209290920196919550909350505050565b6000602082840312156113ac57600080fd5b8135600381106113bb57600080fd5b9392505050565b6000602082840312156113d457600080fd5b5035919050565b600080604083850312156113ee57600080fd5b50508035926020909101359150565b60008060006060848603121561141257600080fd5b61141b84611244565b925061142960208501611244565b9150604084013590509250925092565b60208152816020820152818360408301376000818301604090810191909152601f909201601f19160101919050565b60006020828403121561147a57600080fd5b815180151581146113bb57600080fd5b60006020828403121561149c57600080fd5b5051919050565b634e487b7160e01b600052603260045260246000fd5b6000600182016114d957634e487b7160e01b600052601160045260246000fd5b506001019056fe8ab37fef2b2e34c4b62ff9948ee661cdcf34e209d7c20f4d1f6e83085e93b1fca2646970667358221220ae25d1b706b19196e3e4d366113729dfe7f03bc5ad9f13fb04c166be41a7e5d064736f6c634300080d0033",
  "linkReferences": {
    "contracts/libraries/LibClaimsMask.sol": {
      "LibClaimsMask": [
        {
          "length": 20,
          "start": 1166
        },
        {
          "length": 20,
          "start": 1524
        },
        {
          "length": 20,
          "start": 2027
        },
        {
          "length": 20,
          "start": 2392
        },
        {
          "length": 20,
          "start": 3160
        },
        {
          "length": 20,
          "start": 3547
        },
        {
          "length": 20,
          "start": 3705
        },
        {
          "length": 20,
          "start": 3820
        },
        {
          "length": 20,
          "start": 3944
        },
        {
          "length": 20,
          "start": 4121
        },
        {
          "length": 20,
          "start": 4410
        }
      ]
    }
  },
  "deployedLinkReferences": {
    "contracts/libraries/LibClaimsMask.sol": {
      "LibClaimsMask": [
        {
          "length": 20,
          "start": 1134
        },
        {
          "length": 20,
          "start": 1492
        },
        {
          "length": 20,
          "start": 1995
        },
        {
          "length": 20,
          "start": 2360
        },
        {
          "length": 20,
          "start": 3128
        },
        {
          "length": 20,
          "start": 3515
        },
        {
          "length": 20,
          "start": 3673
        },
        {
          "length": 20,
          "start": 3788
        },
        {
          "length": 20,
          "start": 3912
        },
        {
          "length": 20,
          "start": 4089
        },
        {
          "length": 20,
          "start": 4378
        }
      ]
    }
  },
  "devdoc": {
    "kind": "dev",
    "methods": {
      "_onDisputeEnd(address,address,bytes32)": {
        "params": {
          "_loser": "address of dispute loser",
          "_winner": "address of dispute winner",
          "_winningClaim": "the winning claim"
        },
        "returns": {
          "_0": "result of dispute being finished"
        }
      },
      "_onNewEpochVM()": {
        "returns": {
          "_0": "current claim"
        }
      }
    },
    "version": 1
  },
  "evm": {
    "bytecode": {
      "linkReferences": {
        "contracts/libraries/LibClaimsMask.sol": {
          "LibClaimsMask": [
            {
              "length": 20,
              "start": 1166
            },
            {
              "length": 20,
              "start": 1524
            },
            {
              "length": 20,
              "start": 2027
            },
            {
              "length": 20,
              "start": 2392
            },
            {
              "length": 20,
              "start": 3160
            },
            {
              "length": 20,
              "start": 3547
            },
            {
              "length": 20,
              "start": 3705
            },
            {
              "length": 20,
              "start": 3820
            },
            {
              "length": 20,
              "start": 3944
            },
            {
              "length": 20,
              "start": 4121
            },
            {
              "length": 20,
              "start": 4410
            }
          ]
        }
      },
      "opcodes": "PUSH1 0x80 PUSH1 0x40 MSTORE CALLVALUE DUP1 ISZERO PUSH2 0x10 JUMPI PUSH1 0x0 DUP1 REVERT JUMPDEST POP PUSH2 0x1536 DUP1 PUSH2 0x20 PUSH1 0x0 CODECOPY PUSH1 0x0 RETURN INVALID PUSH1 0x80 PUSH1 0x40 MSTORE CALLVALUE DUP1 ISZERO PUSH2 0x10 JUMPI PUSH1 0x0 DUP1 REVERT JUMPDEST POP PUSH1 0x4 CALLDATASIZE LT PUSH2 0xB4 JUMPI PUSH1 0x0 CALLDATALOAD PUSH1 0xE0 SHR DUP1 PUSH4 0x98F69B16 GT PUSH2 0x71 JUMPI DUP1 PUSH4 0x98F69B16 EQ PUSH2 0x189 JUMPI DUP1 PUSH4 0x9D45CECA EQ PUSH2 0x1EB JUMPI DUP1 PUSH4 0xBCB3571A EQ PUSH2 0x1F3 JUMPI DUP1 PUSH4 0xD446E010 EQ PUSH2 0x206 JUMPI DUP1 PUSH4 0xDA048E36 EQ PUSH2 0x219 JUMPI DUP1 PUSH4 0xF8A7EA5D EQ PUSH2 0x22C JUMPI PUSH1 0x0 DUP1 REVERT JUMPDEST DUP1 PUSH4 0x1487D4A9 EQ PUSH2 0xB9 JUMPI DUP1 PUSH4 0x15AFD588 EQ PUSH2 0xD7 JUMPI DUP1 PUSH4 0x3672682C EQ PUSH2 0x108 JUMPI DUP1 PUSH4 0x3EA30FED EQ PUSH2 0x12A JUMPI DUP1 PUSH4 0x57414EE8 EQ PUSH2 0x14D JUMPI DUP1 PUSH4 0x83089F41 EQ PUSH2 0x162 JUMPI JUMPDEST PUSH1 0x0 DUP1 REVERT JUMPDEST PUSH2 0xC1 PUSH2 0x23F JUMP JUMPDEST PUSH1 0x40 MLOAD PUSH2 0xCE SWAP2 SWAP1 PUSH2 0x11F7 JUMP JUMPDEST PUSH1 0x40 MLOAD DUP1 SWAP2 SUB SWAP1 RETURN JUMPDEST PUSH32 0x844E22529543D6E722C6477171DD50FFE5B412198B92CD9AEEA62BBFABE4CC74 SLOAD JUMPDEST PUSH1 0x40 MLOAD SWAP1 DUP2 MSTORE PUSH1 0x20 ADD PUSH2 0xCE JUMP JUMPDEST PUSH2 0x11B PUSH2 0x116 CALLDATASIZE PUSH1 0x4 PUSH2 0x1260 JUMP JUMPDEST PUSH2 0x2B2 JUMP JUMPDEST PUSH1 0x40 MLOAD PUSH2 0xCE SWAP4 SWAP3 SWAP2 SWAP1 PUSH2 0x12A0 JUMP JUMPDEST PUSH2 0x13D PUSH2 0x138 CALLDATASIZE PUSH1 0x4 PUSH2 0x1328 JUMP JUMPDEST PUSH2 0x2EC JUMP JUMPDEST PUSH1 0x40 MLOAD SWAP1 ISZERO ISZERO DUP2 MSTORE PUSH1 0x20 ADD PUSH2 0xCE JUMP JUMPDEST PUSH2 0x160 PUSH2 0x15B CALLDATASIZE PUSH1 0x4 PUSH2 0x139A JUMP JUMPDEST PUSH2 0x363 JUMP JUMPDEST STOP JUMPDEST PUSH32 0x943D5D24442F02461445E15C5D7D4A4EF0ACB0D32C5D6F6AF37A688224991301 SLOAD PUSH2 0xFA JUMP JUMPDEST PUSH2 0x160 PUSH2 0x197 CALLDATASIZE PUSH1 0x4 PUSH2 0x13C2 JUMP JUMPDEST PUSH32 0x635AD75FAE4D4E8D896461A635D23700076A1C3FD8DA26276F18CB1C09EA567 DUP1 SLOAD PUSH1 0x1 DUP2 ADD DUP3 SSTORE PUSH1 0x0 SWAP2 SWAP1 SWAP2 MSTORE PUSH32 0x5A37C7635CA526C8F76C52EC540210850576205B63DBB3612D47DF2B54D6918A ADD SSTORE JUMP JUMPDEST PUSH2 0xFA PUSH2 0x3BC JUMP JUMPDEST PUSH2 0x13D PUSH2 0x201 CALLDATASIZE PUSH1 0x4 PUSH2 0x1328 JUMP JUMPDEST PUSH2 0x3DC JUMP JUMPDEST PUSH2 0x13D PUSH2 0x214 CALLDATASIZE PUSH1 0x4 PUSH2 0x1328 JUMP JUMPDEST PUSH2 0x406 JUMP JUMPDEST PUSH2 0x160 PUSH2 0x227 CALLDATASIZE PUSH1 0x4 PUSH2 0x13DB JUMP JUMPDEST PUSH2 0x430 JUMP JUMPDEST PUSH2 0x11B PUSH2 0x23A CALLDATASIZE PUSH1 0x4 PUSH2 0x13FD JUMP JUMPDEST PUSH2 0x4D6 JUMP JUMPDEST PUSH1 0x60 PUSH1 0x0 PUSH1 0x0 DUP1 MLOAD PUSH1 0x20 PUSH2 0x14E1 DUP4 CODECOPY DUP2 MLOAD SWAP2 MSTORE PUSH1 0x1 DUP2 ADD DUP1 SLOAD PUSH1 0x40 DUP1 MLOAD PUSH1 0x20 DUP1 DUP5 MUL DUP3 ADD DUP2 ADD SWAP1 SWAP3 MSTORE DUP3 DUP2 MSTORE SWAP4 SWAP5 POP DUP4 ADD DUP3 DUP3 DUP1 ISZERO PUSH2 0x2A7 JUMPI PUSH1 0x20 MUL DUP3 ADD SWAP2 SWAP1 PUSH1 0x0 MSTORE PUSH1 0x20 PUSH1 0x0 KECCAK256 SWAP1 JUMPDEST DUP2 SLOAD PUSH1 0x1 PUSH1 0x1 PUSH1 0xA0 SHL SUB AND DUP2 MSTORE PUSH1 0x1 SWAP1 SWAP2 ADD SWAP1 PUSH1 0x20 ADD DUP1 DUP4 GT PUSH2 0x289 JUMPI JUMPDEST POP POP POP POP POP SWAP2 POP POP SWAP1 JUMP JUMPDEST PUSH1 0x0 PUSH2 0x2BC PUSH2 0x11D9 JUMP JUMPDEST PUSH2 0x2C4 PUSH2 0x11D9 JUMP JUMPDEST PUSH1 0x0 DUP1 MLOAD PUSH1 0x20 PUSH2 0x14E1 DUP4 CODECOPY DUP2 MLOAD SWAP2 MSTORE PUSH2 0x2DE DUP2 DUP8 DUP8 PUSH2 0x514 JUMP JUMPDEST SWAP4 POP SWAP4 POP SWAP4 POP POP SWAP3 POP SWAP3 POP SWAP3 JUMP JUMPDEST PUSH1 0x40 MLOAD PUSH4 0x51584BD7 PUSH1 0xE1 SHL DUP2 MSTORE PUSH1 0x0 SWAP1 ADDRESS SWAP1 DUP2 SWAP1 PUSH4 0xA2B097AE SWAP1 PUSH2 0x316 SWAP1 DUP8 SWAP1 DUP8 SWAP1 PUSH1 0x4 ADD PUSH2 0x1439 JUMP JUMPDEST PUSH1 0x20 PUSH1 0x40 MLOAD DUP1 DUP4 SUB DUP2 PUSH1 0x0 DUP8 GAS CALL ISZERO DUP1 ISZERO PUSH2 0x335 JUMPI RETURNDATASIZE PUSH1 0x0 DUP1 RETURNDATACOPY RETURNDATASIZE PUSH1 0x0 REVERT JUMPDEST POP POP POP POP PUSH1 0x40 MLOAD RETURNDATASIZE PUSH1 0x1F NOT PUSH1 0x1F DUP3 ADD AND DUP3 ADD DUP1 PUSH1 0x40 MSTORE POP DUP2 ADD SWAP1 PUSH2 0x359 SWAP2 SWAP1 PUSH2 0x1468 JUMP JUMPDEST SWAP2 POP POP JUMPDEST SWAP3 SWAP2 POP POP JUMP JUMPDEST PUSH32 0xD32D7F90491BEE81172A406B65F3270D810392FE53BB0379DDE8BDD4E624189C DUP2 PUSH1 0x2 DUP2 GT ISZERO PUSH2 0x396 JUMPI PUSH2 0x396 PUSH2 0x128A JUMP JUMPDEST DUP2 PUSH1 0x1 ADD PUSH1 0x10 PUSH2 0x100 EXP DUP2 SLOAD DUP2 PUSH4 0xFFFFFFFF MUL NOT AND SWAP1 DUP4 PUSH4 0xFFFFFFFF AND MUL OR SWAP1 SSTORE POP POP POP JUMP JUMPDEST PUSH1 0x0 PUSH1 0x0 DUP1 MLOAD PUSH1 0x20 PUSH2 0x14E1 DUP4 CODECOPY DUP2 MLOAD SWAP2 MSTORE PUSH2 0x3D6 DUP2 PUSH2 0x79E JUMP JUMPDEST SWAP2 POP POP SWAP1 JUMP JUMPDEST PUSH1 0x40 MLOAD PUSH4 0x1D255AE5 PUSH1 0xE2 SHL DUP2 MSTORE PUSH1 0x0 SWAP1 ADDRESS SWAP1 DUP2 SWAP1 PUSH4 0x74956B94 SWAP1 PUSH2 0x316 SWAP1 DUP8 SWAP1 DUP8 SWAP1 PUSH1 0x4 ADD PUSH2 0x1439 JUMP JUMPDEST PUSH1 0x40 MLOAD PUSH4 0x15E55CE5 PUSH1 0xE0 SHL DUP2 MSTORE PUSH1 0x0 SWAP1 ADDRESS SWAP1 DUP2 SWAP1 PUSH4 0x15E55CE5 SWAP1 PUSH2 0x316 SWAP1 DUP8 SWAP1 DUP8 SWAP1 PUSH1 0x4 ADD PUSH2 0x1439 JUMP JUMPDEST PUSH1 0x0 PUSH1 0x0 DUP1 MLOAD PUSH1 0x20 PUSH2 0x14E1 DUP4 CODECOPY DUP2 MLOAD SWAP2 MSTORE PUSH1 0x3 DUP2 ADD SLOAD PUSH1 0x40 MLOAD PUSH4 0x1BCFF65 PUSH1 0xE7 SHL DUP2 MSTORE PUSH1 0x4 DUP2 ADD SWAP2 SWAP1 SWAP2 MSTORE PUSH1 0x24 DUP2 ADD DUP6 SWAP1 MSTORE PUSH1 0x44 DUP2 ADD DUP5 SWAP1 MSTORE SWAP1 SWAP2 POP PUSH20 0x0 SWAP1 PUSH4 0xDE7FB280 SWAP1 PUSH1 0x64 ADD PUSH1 0x20 PUSH1 0x40 MLOAD DUP1 DUP4 SUB DUP2 DUP7 GAS DELEGATECALL ISZERO DUP1 ISZERO PUSH2 0x4A8 JUMPI RETURNDATASIZE PUSH1 0x0 DUP1 RETURNDATACOPY RETURNDATASIZE PUSH1 0x0 REVERT JUMPDEST POP POP POP POP PUSH1 0x40 MLOAD RETURNDATASIZE PUSH1 0x1F NOT PUSH1 0x1F DUP3 ADD AND DUP3 ADD DUP1 PUSH1 0x40 MSTORE POP DUP2 ADD SWAP1 PUSH2 0x4CC SWAP2 SWAP1 PUSH2 0x148A JUMP JUMPDEST PUSH1 0x3 SWAP1 SWAP2 ADD SSTORE POP POP JUMP JUMPDEST PUSH1 0x0 PUSH2 0x4E0 PUSH2 0x11D9 JUMP JUMPDEST PUSH2 0x4E8 PUSH2 0x11D9 JUMP JUMPDEST PUSH1 0x0 DUP1 MLOAD PUSH1 0x20 PUSH2 0x14E1 DUP4 CODECOPY DUP2 MLOAD SWAP2 MSTORE PUSH2 0x503 DUP2 DUP9 DUP9 DUP9 PUSH2 0x867 JUMP JUMPDEST SWAP4 POP SWAP4 POP SWAP4 POP POP JUMPDEST SWAP4 POP SWAP4 POP SWAP4 SWAP1 POP JUMP JUMPDEST PUSH1 0x0 PUSH2 0x51E PUSH2 0x11D9 JUMP JUMPDEST PUSH2 0x526 PUSH2 0x11D9 JUMP JUMPDEST DUP4 PUSH2 0x566 JUMPI PUSH1 0x40 MLOAD PUSH3 0x461BCD PUSH1 0xE5 SHL DUP2 MSTORE PUSH1 0x20 PUSH1 0x4 DUP3 ADD MSTORE PUSH1 0xB PUSH1 0x24 DUP3 ADD MSTORE PUSH11 0x656D70747920636C61696D PUSH1 0xA8 SHL PUSH1 0x44 DUP3 ADD MSTORE PUSH1 0x64 ADD JUMPDEST PUSH1 0x40 MLOAD DUP1 SWAP2 SUB SWAP1 REVERT JUMPDEST PUSH2 0x570 DUP7 DUP7 PUSH2 0xA8C JUMP JUMPDEST PUSH2 0x5B1 JUMPI PUSH1 0x40 MLOAD PUSH3 0x461BCD PUSH1 0xE5 SHL DUP2 MSTORE PUSH1 0x20 PUSH1 0x4 DUP3 ADD MSTORE PUSH1 0x12 PUSH1 0x24 DUP3 ADD MSTORE PUSH18 0x1CD95B99195C881B9BDD08185B1B1BDDD959 PUSH1 0x72 SHL PUSH1 0x44 DUP3 ADD MSTORE PUSH1 0x64 ADD PUSH2 0x55D JUMP JUMPDEST PUSH1 0x0 PUSH2 0x5BD DUP8 DUP8 PUSH2 0xB39 JUMP JUMPDEST PUSH1 0x3 DUP9 ADD SLOAD PUSH1 0x40 MLOAD PUSH4 0xCB9F8813 PUSH1 0xE0 SHL DUP2 MSTORE SWAP2 SWAP3 POP PUSH20 0x0 SWAP2 PUSH4 0xCB9F8813 SWAP2 PUSH2 0x605 SWAP2 DUP6 SWAP1 PUSH1 0x4 ADD SWAP2 DUP3 MSTORE PUSH1 0x20 DUP3 ADD MSTORE PUSH1 0x40 ADD SWAP1 JUMP JUMPDEST PUSH1 0x20 PUSH1 0x40 MLOAD DUP1 DUP4 SUB DUP2 DUP7 GAS DELEGATECALL ISZERO DUP1 ISZERO PUSH2 0x622 JUMPI RETURNDATASIZE PUSH1 0x0 DUP1 RETURNDATACOPY RETURNDATASIZE PUSH1 0x0 REVERT JUMPDEST POP POP POP POP PUSH1 0x40 MLOAD RETURNDATASIZE PUSH1 0x1F NOT PUSH1 0x1F DUP3 ADD AND DUP3 ADD DUP1 PUSH1 0x40 MSTORE POP DUP2 ADD SWAP1 PUSH2 0x646 SWAP2 SWAP1 PUSH2 0x1468 JUMP JUMPDEST ISZERO PUSH2 0x6A3 JUMPI PUSH1 0x40 MLOAD PUSH3 0x461BCD PUSH1 0xE5 SHL DUP2 MSTORE PUSH1 0x20 PUSH1 0x4 DUP3 ADD MSTORE PUSH1 0x27 PUSH1 0x24 DUP3 ADD MSTORE PUSH32 0x73656E6465722068616420636C61696D656420696E20746869732065706F6368 PUSH1 0x44 DUP3 ADD MSTORE PUSH7 0x206265666F7265 PUSH1 0xC8 SHL PUSH1 0x64 DUP3 ADD MSTORE PUSH1 0x84 ADD PUSH2 0x55D JUMP JUMPDEST DUP7 SLOAD PUSH2 0x6AD JUMPI DUP5 DUP8 SSTORE JUMPDEST DUP7 SLOAD DUP6 EQ PUSH2 0x70D JUMPI PUSH2 0x701 PUSH1 0x2 PUSH1 0x40 MLOAD DUP1 PUSH1 0x40 ADD PUSH1 0x40 MSTORE DUP1 DUP11 PUSH1 0x0 ADD SLOAD DUP2 MSTORE PUSH1 0x20 ADD DUP9 DUP2 MSTORE POP PUSH1 0x40 MLOAD DUP1 PUSH1 0x40 ADD PUSH1 0x40 MSTORE DUP1 PUSH2 0x6E7 DUP13 PUSH2 0xC18 JUMP JUMPDEST PUSH1 0x1 PUSH1 0x1 PUSH1 0xA0 SHL SUB SWAP1 DUP2 AND DUP3 MSTORE DUP12 AND PUSH1 0x20 SWAP1 SWAP2 ADD MSTORE PUSH2 0xD3F JUMP JUMPDEST SWAP4 POP SWAP4 POP SWAP4 POP POP PUSH2 0x50B JUMP JUMPDEST PUSH2 0x717 DUP8 DUP8 PUSH2 0xD98 JUMP JUMPDEST PUSH2 0x720 DUP8 PUSH2 0xE3A JUMP JUMPDEST PUSH2 0x764 JUMPI PUSH1 0x40 DUP1 MLOAD DUP1 DUP3 ADD DUP3 MSTORE DUP7 DUP2 MSTORE PUSH1 0x0 PUSH1 0x20 DUP1 DUP4 ADD DUP3 SWAP1 MSTORE DUP4 MLOAD DUP1 DUP6 ADD SWAP1 SWAP5 MSTORE PUSH1 0x1 PUSH1 0x1 PUSH1 0xA0 SHL SUB DUP11 AND DUP5 MSTORE DUP4 ADD DUP2 SWAP1 MSTORE PUSH2 0x75F SWAP3 SWAP1 SWAP2 SWAP1 PUSH2 0xD3F JUMP JUMPDEST PUSH2 0x503 JUMP JUMPDEST PUSH1 0x40 DUP1 MLOAD DUP1 DUP3 ADD DUP3 MSTORE DUP7 DUP2 MSTORE PUSH1 0x0 PUSH1 0x20 DUP1 DUP4 ADD DUP3 SWAP1 MSTORE DUP4 MLOAD DUP1 DUP6 ADD SWAP1 SWAP5 MSTORE PUSH1 0x1 PUSH1 0x1 PUSH1 0xA0 SHL SUB DUP11 AND DUP5 MSTORE DUP4 ADD MSTORE PUSH2 0x503 SWAP2 PUSH1 0x1 SWAP2 SWAP1 PUSH2 0xD3F JUMP JUMPDEST PUSH1 0x0 PUSH2 0x7A9 DUP3 PUSH2 0xF32 JUMP JUMPDEST DUP2 SLOAD PUSH1 0x0 DUP4 SSTORE PUSH1 0x3 DUP4 ADD SLOAD PUSH1 0x40 MLOAD PUSH4 0x67BDC853 PUSH1 0xE1 SHL DUP2 MSTORE PUSH1 0x4 DUP2 ADD SWAP2 SWAP1 SWAP2 MSTORE PUSH20 0x0 SWAP1 PUSH4 0xCF7B90A6 SWAP1 PUSH1 0x24 ADD PUSH1 0x20 PUSH1 0x40 MLOAD DUP1 DUP4 SUB DUP2 DUP7 GAS DELEGATECALL ISZERO DUP1 ISZERO PUSH2 0x805 JUMPI RETURNDATASIZE PUSH1 0x0 DUP1 RETURNDATACOPY RETURNDATASIZE PUSH1 0x0 REVERT JUMPDEST POP POP POP POP PUSH1 0x40 MLOAD RETURNDATASIZE PUSH1 0x1F NOT PUSH1 0x1F DUP3 ADD AND DUP3 ADD DUP1 PUSH1 0x40 MSTORE POP DUP2 ADD SWAP1 PUSH2 0x829 SWAP2 SWAP1 PUSH2 0x148A JUMP JUMPDEST PUSH1 0x3 DUP5 ADD SSTORE PUSH1 0x40 MLOAD DUP2 DUP2 MSTORE PUSH32 0xDDC860800A99149017C480EC51523BF4143B7215E78956AE5C31E5C568F5383A SWAP1 PUSH1 0x20 ADD PUSH1 0x40 MLOAD DUP1 SWAP2 SUB SWAP1 LOG1 SWAP3 SWAP2 POP POP JUMP JUMPDEST PUSH1 0x0 PUSH2 0x871 PUSH2 0x11D9 JUMP JUMPDEST PUSH2 0x879 PUSH2 0x11D9 JUMP JUMPDEST PUSH2 0x883 DUP8 DUP7 PUSH2 0x1074 JUMP JUMPDEST DUP7 SLOAD DUP5 SUB PUSH2 0x91D JUMPI PUSH2 0x894 DUP8 PUSH2 0xE3A JUMP JUMPDEST PUSH2 0x8D8 JUMPI PUSH1 0x40 DUP1 MLOAD DUP1 DUP3 ADD DUP3 MSTORE DUP6 DUP2 MSTORE PUSH1 0x0 PUSH1 0x20 DUP1 DUP4 ADD DUP3 SWAP1 MSTORE DUP4 MLOAD DUP1 DUP6 ADD SWAP1 SWAP5 MSTORE PUSH1 0x1 PUSH1 0x1 PUSH1 0xA0 SHL SUB DUP11 AND DUP5 MSTORE DUP4 ADD DUP2 SWAP1 MSTORE PUSH2 0x8D3 SWAP3 SWAP1 SWAP2 SWAP1 PUSH2 0x1194 JUMP JUMPDEST PUSH2 0x912 JUMP JUMPDEST PUSH1 0x40 DUP1 MLOAD DUP1 DUP3 ADD DUP3 MSTORE DUP6 DUP2 MSTORE PUSH1 0x0 PUSH1 0x20 DUP1 DUP4 ADD DUP3 SWAP1 MSTORE DUP4 MLOAD DUP1 DUP6 ADD SWAP1 SWAP5 MSTORE PUSH1 0x1 PUSH1 0x1 PUSH1 0xA0 SHL SUB DUP11 AND DUP5 MSTORE DUP4 ADD MSTORE PUSH2 0x912 SWAP2 PUSH1 0x1 SWAP2 SWAP1 PUSH2 0x1194 JUMP JUMPDEST SWAP3 POP SWAP3 POP SWAP3 POP PUSH2 0xA82 JUMP JUMPDEST PUSH1 0x3 DUP8 ADD SLOAD PUSH1 0x40 MLOAD PUSH3 0x3EA57D PUSH1 0xEA SHL DUP2 MSTORE PUSH1 0x4 DUP2 ADD SWAP2 SWAP1 SWAP2 MSTORE PUSH20 0x0 SWAP1 PUSH4 0xFA95F400 SWAP1 PUSH1 0x24 ADD PUSH1 0x20 PUSH1 0x40 MLOAD DUP1 DUP4 SUB DUP2 DUP7 GAS DELEGATECALL ISZERO DUP1 ISZERO PUSH2 0x972 JUMPI RETURNDATASIZE PUSH1 0x0 DUP1 RETURNDATACOPY RETURNDATASIZE PUSH1 0x0 REVERT JUMPDEST POP POP POP POP PUSH1 0x40 MLOAD RETURNDATASIZE PUSH1 0x1F NOT PUSH1 0x1F DUP3 ADD AND DUP3 ADD DUP1 PUSH1 0x40 MSTORE POP DUP2 ADD SWAP1 PUSH2 0x996 SWAP2 SWAP1 PUSH2 0x148A JUMP JUMPDEST ISZERO PUSH2 0x9E7 JUMPI PUSH2 0x912 PUSH1 0x2 PUSH1 0x40 MLOAD DUP1 PUSH1 0x40 ADD PUSH1 0x40 MSTORE DUP1 DUP11 PUSH1 0x0 ADD SLOAD DUP2 MSTORE PUSH1 0x20 ADD DUP8 DUP2 MSTORE POP PUSH1 0x40 MLOAD DUP1 PUSH1 0x40 ADD PUSH1 0x40 MSTORE DUP1 PUSH2 0x9CD DUP13 PUSH2 0xC18 JUMP JUMPDEST PUSH1 0x1 PUSH1 0x1 PUSH1 0xA0 SHL SUB SWAP1 DUP2 AND DUP3 MSTORE DUP12 AND PUSH1 0x20 SWAP1 SWAP2 ADD MSTORE PUSH2 0x1194 JUMP JUMPDEST DUP4 DUP8 SSTORE PUSH2 0x9F4 DUP8 DUP8 PUSH2 0xD98 JUMP JUMPDEST PUSH2 0x9FD DUP8 PUSH2 0xE3A JUMP JUMPDEST PUSH2 0xA41 JUMPI PUSH1 0x40 DUP1 MLOAD DUP1 DUP3 ADD DUP3 MSTORE DUP6 DUP2 MSTORE PUSH1 0x0 PUSH1 0x20 DUP1 DUP4 ADD DUP3 SWAP1 MSTORE DUP4 MLOAD DUP1 DUP6 ADD SWAP1 SWAP5 MSTORE PUSH1 0x1 PUSH1 0x1 PUSH1 0xA0 SHL SUB DUP11 AND DUP5 MSTORE DUP4 ADD DUP2 SWAP1 MSTORE PUSH2 0xA3C SWAP3 SWAP1 SWAP2 SWAP1 PUSH2 0x1194 JUMP JUMPDEST PUSH2 0xA7B JUMP JUMPDEST PUSH1 0x40 DUP1 MLOAD DUP1 DUP3 ADD DUP3 MSTORE DUP6 DUP2 MSTORE PUSH1 0x0 PUSH1 0x20 DUP1 DUP4 ADD DUP3 SWAP1 MSTORE DUP4 MLOAD DUP1 DUP6 ADD SWAP1 SWAP5 MSTORE PUSH1 0x1 PUSH1 0x1 PUSH1 0xA0 SHL SUB DUP11 AND DUP5 MSTORE DUP4 ADD MSTORE PUSH2 0xA7B SWAP2 PUSH1 0x1 SWAP2 SWAP1 PUSH2 0x1194 JUMP JUMPDEST SWAP3 POP SWAP3 POP SWAP3 POP JUMPDEST SWAP5 POP SWAP5 POP SWAP5 SWAP2 POP POP JUMP JUMPDEST PUSH1 0x0 PUSH1 0x1 PUSH1 0x1 PUSH1 0xA0 SHL SUB DUP3 AND PUSH2 0xAD0 JUMPI PUSH1 0x40 MLOAD PUSH3 0x461BCD PUSH1 0xE5 SHL DUP2 MSTORE PUSH1 0x20 PUSH1 0x4 DUP3 ADD MSTORE PUSH1 0x9 PUSH1 0x24 DUP3 ADD MSTORE PUSH9 0x61646472657373203 PUSH1 0xBC SHL PUSH1 0x44 DUP3 ADD MSTORE PUSH1 0x64 ADD PUSH2 0x55D JUMP JUMPDEST PUSH1 0x0 JUMPDEST PUSH1 0x1 DUP5 ADD SLOAD DUP2 LT ISZERO PUSH2 0xB2F JUMPI DUP4 PUSH1 0x1 ADD DUP2 DUP2 SLOAD DUP2 LT PUSH2 0xAF4 JUMPI PUSH2 0xAF4 PUSH2 0x14A3 JUMP JUMPDEST PUSH1 0x0 SWAP2 DUP3 MSTORE PUSH1 0x20 SWAP1 SWAP2 KECCAK256 ADD SLOAD PUSH1 0x1 PUSH1 0x1 PUSH1 0xA0 SHL SUB SWAP1 DUP2 AND SWAP1 DUP5 AND SUB PUSH2 0xB1D JUMPI PUSH1 0x1 SWAP2 POP POP PUSH2 0x35D JUMP JUMPDEST DUP1 PUSH2 0xB27 DUP2 PUSH2 0x14B9 JUMP JUMPDEST SWAP2 POP POP PUSH2 0xAD3 JUMP JUMPDEST POP PUSH1 0x0 SWAP4 SWAP3 POP POP POP JUMP JUMPDEST PUSH1 0x0 PUSH1 0x1 PUSH1 0x1 PUSH1 0xA0 SHL SUB DUP3 AND PUSH2 0xB7D JUMPI PUSH1 0x40 MLOAD PUSH3 0x461BCD PUSH1 0xE5 SHL DUP2 MSTORE PUSH1 0x20 PUSH1 0x4 DUP3 ADD MSTORE PUSH1 0x9 PUSH1 0x24 DUP3 ADD MSTORE PUSH9 0x61646472657373203 PUSH1 0xBC SHL PUSH1 0x44 DUP3 ADD MSTORE PUSH1 0x64 ADD PUSH2 0x55D JUMP JUMPDEST PUSH1 0x0 JUMPDEST PUSH1 0x1 DUP5 ADD SLOAD DUP2 LT ISZERO PUSH2 0xBD9 JUMPI DUP4 PUSH1 0x1 ADD DUP2 DUP2 SLOAD DUP2 LT PUSH2 0xBA1 JUMPI PUSH2 0xBA1 PUSH2 0x14A3 JUMP JUMPDEST PUSH1 0x0 SWAP2 DUP3 MSTORE PUSH1 0x20 SWAP1 SWAP2 KECCAK256 ADD SLOAD PUSH1 0x1 PUSH1 0x1 PUSH1 0xA0 SHL SUB SWAP1 DUP2 AND SWAP1 DUP5 AND SUB PUSH2 0xBC7 JUMPI SWAP1 POP PUSH2 0x35D JUMP JUMPDEST DUP1 PUSH2 0xBD1 DUP2 PUSH2 0x14B9 JUMP JUMPDEST SWAP2 POP POP PUSH2 0xB80 JUMP JUMPDEST POP PUSH1 0x40 MLOAD PUSH3 0x461BCD PUSH1 0xE5 SHL DUP2 MSTORE PUSH1 0x20 PUSH1 0x4 DUP3 ADD MSTORE PUSH1 0x13 PUSH1 0x24 DUP3 ADD MSTORE PUSH19 0x1D985B1A59185D1BDC881B9BDD08199BDD5B99 PUSH1 0x6A SHL PUSH1 0x44 DUP3 ADD MSTORE PUSH1 0x64 ADD PUSH2 0x55D JUMP JUMPDEST PUSH1 0x3 DUP2 ADD SLOAD PUSH1 0x40 MLOAD PUSH3 0x3EA57D PUSH1 0xEA SHL DUP2 MSTORE PUSH1 0x4 DUP2 ADD SWAP2 SWAP1 SWAP2 MSTORE PUSH1 0x0 SWAP1 DUP2 SWAP1 PUSH20 0x0 SWAP1 PUSH4 0xFA95F400 SWAP1 PUSH1 0x24 ADD PUSH1 0x20 PUSH1 0x40 MLOAD DUP1 DUP4 SUB DUP2 DUP7 GAS DELEGATECALL ISZERO DUP1 ISZERO PUSH2 0xC72 JUMPI RETURNDATASIZE PUSH1 0x0 DUP1 RETURNDATACOPY RETURNDATASIZE PUSH1 0x0 REVERT JUMPDEST POP POP POP POP PUSH1 0x40 MLOAD RETURNDATASIZE PUSH1 0x1F NOT PUSH1 0x1F DUP3 ADD AND DUP3 ADD DUP1 PUSH1 0x40 MSTORE POP DUP2 ADD SWAP1 PUSH2 0xC96 SWAP2 SWAP1 PUSH2 0x148A JUMP JUMPDEST SWAP1 POP PUSH1 0x0 JUMPDEST PUSH1 0x1 DUP5 ADD SLOAD DUP2 LT ISZERO PUSH2 0xCF6 JUMPI PUSH1 0x1 DUP2 SHL DUP3 AND ISZERO PUSH2 0xCE4 JUMPI DUP4 PUSH1 0x1 ADD DUP2 DUP2 SLOAD DUP2 LT PUSH2 0xCC7 JUMPI PUSH2 0xCC7 PUSH2 0x14A3 JUMP JUMPDEST PUSH1 0x0 SWAP2 DUP3 MSTORE PUSH1 0x20 SWAP1 SWAP2 KECCAK256 ADD SLOAD PUSH1 0x1 PUSH1 0x1 PUSH1 0xA0 SHL SUB AND SWAP5 SWAP4 POP POP POP POP JUMP JUMPDEST DUP1 PUSH2 0xCEE DUP2 PUSH2 0x14B9 JUMP JUMPDEST SWAP2 POP POP PUSH2 0xC9B JUMP JUMPDEST POP PUSH1 0x40 MLOAD PUSH3 0x461BCD PUSH1 0xE5 SHL DUP2 MSTORE PUSH1 0x20 PUSH1 0x4 DUP3 ADD MSTORE PUSH1 0x1C PUSH1 0x24 DUP3 ADD MSTORE PUSH32 0x4167726565696E672076616C696461746F72206E6F7420666F756E6400000000 PUSH1 0x44 DUP3 ADD MSTORE PUSH1 0x64 ADD PUSH2 0x55D JUMP JUMPDEST PUSH1 0x0 PUSH2 0xD49 PUSH2 0x11D9 JUMP JUMPDEST PUSH2 0xD51 PUSH2 0x11D9 JUMP JUMPDEST PUSH32 0x495383AED97965C56495CDBADEDFE9667A1B028C54D3FC4B5335895146E02B70 DUP7 DUP7 DUP7 PUSH1 0x40 MLOAD PUSH2 0xD84 SWAP4 SWAP3 SWAP2 SWAP1 PUSH2 0x12A0 JUMP JUMPDEST PUSH1 0x40 MLOAD DUP1 SWAP2 SUB SWAP1 LOG1 POP SWAP4 SWAP5 SWAP3 SWAP4 POP SWAP1 SWAP2 SWAP1 POP JUMP JUMPDEST PUSH1 0x0 PUSH2 0xDA4 DUP4 DUP4 PUSH2 0xB39 JUMP JUMPDEST PUSH1 0x3 DUP5 ADD SLOAD PUSH1 0x40 MLOAD PUSH4 0x335C20D7 PUSH1 0xE2 SHL DUP2 MSTORE SWAP2 SWAP3 POP PUSH20 0x0 SWAP2 PUSH4 0xCD70835C SWAP2 PUSH2 0xDEC SWAP2 DUP6 SWAP1 PUSH1 0x4 ADD SWAP2 DUP3 MSTORE PUSH1 0x20 DUP3 ADD MSTORE PUSH1 0x40 ADD SWAP1 JUMP JUMPDEST PUSH1 0x20 PUSH1 0x40 MLOAD DUP1 DUP4 SUB DUP2 DUP7 GAS DELEGATECALL ISZERO DUP1 ISZERO PUSH2 0xE09 JUMPI RETURNDATASIZE PUSH1 0x0 DUP1 RETURNDATACOPY RETURNDATASIZE PUSH1 0x0 REVERT JUMPDEST POP POP POP POP PUSH1 0x40 MLOAD RETURNDATASIZE PUSH1 0x1F NOT PUSH1 0x1F DUP3 ADD AND DUP3 ADD DUP1 PUSH1 0x40 MSTORE POP DUP2 ADD SWAP1 PUSH2 0xE2D SWAP2 SWAP1 PUSH2 0x148A JUMP JUMPDEST DUP4 PUSH1 0x3 ADD DUP2 SWAP1 SSTORE POP POP POP POP JUMP JUMPDEST PUSH1 0x3 DUP2 ADD SLOAD PUSH1 0x40 MLOAD PUSH4 0x6A02B7FF PUSH1 0xE1 SHL DUP2 MSTORE PUSH1 0x4 DUP2 ADD DUP3 SWAP1 MSTORE PUSH1 0x0 SWAP2 SWAP1 PUSH20 0x0 SWAP1 PUSH4 0xD4056FFE SWAP1 PUSH1 0x24 ADD PUSH1 0x20 PUSH1 0x40 MLOAD DUP1 DUP4 SUB DUP2 DUP7 GAS DELEGATECALL ISZERO DUP1 ISZERO PUSH2 0xE93 JUMPI RETURNDATASIZE PUSH1 0x0 DUP1 RETURNDATACOPY RETURNDATASIZE PUSH1 0x0 REVERT JUMPDEST POP POP POP POP PUSH1 0x40 MLOAD RETURNDATASIZE PUSH1 0x1F NOT PUSH1 0x1F DUP3 ADD AND DUP3 ADD DUP1 PUSH1 0x40 MSTORE POP DUP2 ADD SWAP1 PUSH2 0xEB7 SWAP2 SWAP1 PUSH2 0x148A JUMP JUMPDEST PUSH1 0x40 MLOAD PUSH3 0x3EA57D PUSH1 0xEA SHL DUP2 MSTORE PUSH1 0x4 DUP2 ADD DUP4 SWAP1 MSTORE PUSH20 0x0 SWAP1 PUSH4 0xFA95F400 SWAP1 PUSH1 0x24 ADD PUSH1 0x20 PUSH1 0x40 MLOAD DUP1 DUP4 SUB DUP2 DUP7 GAS DELEGATECALL ISZERO DUP1 ISZERO PUSH2 0xF06 JUMPI RETURNDATASIZE PUSH1 0x0 DUP1 RETURNDATACOPY RETURNDATASIZE PUSH1 0x0 REVERT JUMPDEST POP POP POP POP PUSH1 0x40 MLOAD RETURNDATASIZE PUSH1 0x1F NOT PUSH1 0x1F DUP3 ADD AND DUP3 ADD DUP1 PUSH1 0x40 MSTORE POP DUP2 ADD SWAP1 PUSH2 0xF2A SWAP2 SWAP1 PUSH2 0x148A JUMP JUMPDEST EQ SWAP4 SWAP3 POP POP POP JUMP JUMPDEST PUSH1 0x3 DUP2 ADD SLOAD PUSH1 0x40 MLOAD PUSH3 0x3EA57D PUSH1 0xEA SHL DUP2 MSTORE PUSH1 0x0 SWAP2 PUSH20 0x0 SWAP2 PUSH4 0xFA95F400 SWAP2 PUSH2 0xF72 SWAP2 PUSH1 0x4 ADD SWAP1 DUP2 MSTORE PUSH1 0x20 ADD SWAP1 JUMP JUMPDEST PUSH1 0x20 PUSH1 0x40 MLOAD DUP1 DUP4 SUB DUP2 DUP7 GAS DELEGATECALL ISZERO DUP1 ISZERO PUSH2 0xF8F JUMPI RETURNDATASIZE PUSH1 0x0 DUP1 RETURNDATACOPY RETURNDATASIZE PUSH1 0x0 REVERT JUMPDEST POP POP POP POP PUSH1 0x40 MLOAD RETURNDATASIZE PUSH1 0x1F NOT PUSH1 0x1F DUP3 ADD AND DUP3 ADD DUP1 PUSH1 0x40 MSTORE POP DUP2 ADD SWAP1 PUSH2 0xFB3 SWAP2 SWAP1 PUSH2 0x148A JUMP JUMPDEST SWAP1 POP PUSH1 0x0 JUMPDEST PUSH1 0x1 DUP4 ADD SLOAD DUP2 LT ISZERO PUSH2 0x106F JUMPI PUSH1 0x1 DUP2 SHL DUP3 AND ISZERO PUSH2 0x105D JUMPI PUSH1 0x3 DUP4 ADD SLOAD PUSH1 0x40 MLOAD PUSH4 0x14BC74AD PUSH1 0xE2 SHL DUP2 MSTORE PUSH1 0x4 DUP2 ADD SWAP2 SWAP1 SWAP2 MSTORE PUSH1 0x24 DUP2 ADD DUP3 SWAP1 MSTORE PUSH1 0x1 PUSH1 0x44 DUP3 ADD MSTORE PUSH20 0x0 SWAP1 PUSH4 0x52F1D2B4 SWAP1 PUSH1 0x64 ADD PUSH1 0x20 PUSH1 0x40 MLOAD DUP1 DUP4 SUB DUP2 DUP7 GAS DELEGATECALL ISZERO DUP1 ISZERO PUSH2 0x1033 JUMPI RETURNDATASIZE PUSH1 0x0 DUP1 RETURNDATACOPY RETURNDATASIZE PUSH1 0x0 REVERT JUMPDEST POP POP POP POP PUSH1 0x40 MLOAD RETURNDATASIZE PUSH1 0x1F NOT PUSH1 0x1F DUP3 ADD AND DUP3 ADD DUP1 PUSH1 0x40 MSTORE POP DUP2 ADD SWAP1 PUSH2 0x1057 SWAP2 SWAP1 PUSH2 0x148A JUMP JUMPDEST PUSH1 0x3 DUP5 ADD SSTORE JUMPDEST DUP1 PUSH2 0x1067 DUP2 PUSH2 0x14B9 JUMP JUMPDEST SWAP2 POP POP PUSH2 0xFB8 JUMP JUMPDEST POP POP POP JUMP JUMPDEST PUSH1 0x0 JUMPDEST PUSH1 0x1 DUP4 ADD SLOAD DUP2 LT ISZERO PUSH2 0x106F JUMPI DUP3 PUSH1 0x1 ADD DUP2 DUP2 SLOAD DUP2 LT PUSH2 0x1098 JUMPI PUSH2 0x1098 PUSH2 0x14A3 JUMP JUMPDEST PUSH1 0x0 SWAP2 DUP3 MSTORE PUSH1 0x20 SWAP1 SWAP2 KECCAK256 ADD SLOAD PUSH1 0x1 PUSH1 0x1 PUSH1 0xA0 SHL SUB SWAP1 DUP2 AND SWAP1 DUP4 AND SUB PUSH2 0x1182 JUMPI PUSH1 0x0 DUP4 PUSH1 0x1 ADD DUP3 DUP2 SLOAD DUP2 LT PUSH2 0x10CE JUMPI PUSH2 0x10CE PUSH2 0x14A3 JUMP JUMPDEST PUSH1 0x0 SWAP2 DUP3 MSTORE PUSH1 0x20 SWAP1 SWAP2 KECCAK256 ADD DUP1 SLOAD PUSH1 0x1 PUSH1 0x1 PUSH1 0xA0 SHL SUB NOT AND PUSH1 0x1 PUSH1 0x1 PUSH1 0xA0 SHL SUB SWAP3 SWAP1 SWAP3 AND SWAP2 SWAP1 SWAP2 OR SWAP1 SSTORE PUSH1 0x3 DUP4 ADD SLOAD PUSH1 0x40 MLOAD PUSH4 0x2B099AE3 PUSH1 0xE2 SHL DUP2 MSTORE PUSH1 0x4 DUP2 ADD SWAP2 SWAP1 SWAP2 MSTORE PUSH1 0x24 DUP2 ADD DUP3 SWAP1 MSTORE PUSH20 0x0 SWAP1 PUSH4 0xAC266B8C SWAP1 PUSH1 0x44 ADD PUSH1 0x20 PUSH1 0x40 MLOAD DUP1 DUP4 SUB DUP2 DUP7 GAS DELEGATECALL ISZERO DUP1 ISZERO PUSH2 0x1154 JUMPI RETURNDATASIZE PUSH1 0x0 DUP1 RETURNDATACOPY RETURNDATASIZE PUSH1 0x0 REVERT JUMPDEST POP POP POP POP PUSH1 0x40 MLOAD RETURNDATASIZE PUSH1 0x1F NOT PUSH1 0x1F DUP3 ADD AND DUP3 ADD DUP1 PUSH1 0x40 MSTORE POP DUP2 ADD SWAP1 PUSH2 0x1178 SWAP2 SWAP1 PUSH2 0x148A JUMP JUMPDEST PUSH1 0x3 DUP5 ADD SSTORE POP POP POP JUMP JUMPDEST DUP1 PUSH2 0x118C DUP2 PUSH2 0x14B9 JUMP JUMPDEST SWAP2 POP POP PUSH2 0x1077 JUMP JUMPDEST PUSH1 0x0 PUSH2 0x119E PUSH2 0x11D9 JUMP JUMPDEST PUSH2 0x11A6 PUSH2 0x11D9 JUMP JUMPDEST PUSH32 0x9201C193A07CAE1DF95AE692CC698685574C942A04514C48A4C3249F38594FF DUP7 DUP7 DUP7 PUSH1 0x40 MLOAD PUSH2 0xD84 SWAP4 SWAP3 SWAP2 SWAP1 PUSH2 0x12A0 JUMP JUMPDEST PUSH1 0x40 MLOAD DUP1 PUSH1 0x40 ADD PUSH1 0x40 MSTORE DUP1 PUSH1 0x2 SWAP1 PUSH1 0x20 DUP3 MUL DUP1 CALLDATASIZE DUP4 CALLDATACOPY POP SWAP2 SWAP3 SWAP2 POP POP JUMP JUMPDEST PUSH1 0x20 DUP1 DUP3 MSTORE DUP3 MLOAD DUP3 DUP3 ADD DUP2 SWAP1 MSTORE PUSH1 0x0 SWAP2 SWAP1 DUP5 DUP3 ADD SWAP1 PUSH1 0x40 DUP6 ADD SWAP1 DUP5 JUMPDEST DUP2 DUP2 LT ISZERO PUSH2 0x1238 JUMPI DUP4 MLOAD PUSH1 0x1 PUSH1 0x1 PUSH1 0xA0 SHL SUB AND DUP4 MSTORE SWAP3 DUP5 ADD SWAP3 SWAP2 DUP5 ADD SWAP2 PUSH1 0x1 ADD PUSH2 0x1213 JUMP JUMPDEST POP SWAP1 SWAP7 SWAP6 POP POP POP POP POP POP JUMP JUMPDEST DUP1 CALLDATALOAD PUSH1 0x1 PUSH1 0x1 PUSH1 0xA0 SHL SUB DUP2 AND DUP2 EQ PUSH2 0x125B JUMPI PUSH1 0x0 DUP1 REVERT JUMPDEST SWAP2 SWAP1 POP JUMP JUMPDEST PUSH1 0x0 DUP1 PUSH1 0x40 DUP4 DUP6 SUB SLT ISZERO PUSH2 0x1273 JUMPI PUSH1 0x0 DUP1 REVERT JUMPDEST PUSH2 0x127C DUP4 PUSH2 0x1244 JUMP JUMPDEST SWAP5 PUSH1 0x20 SWAP4 SWAP1 SWAP4 ADD CALLDATALOAD SWAP4 POP POP POP JUMP JUMPDEST PUSH4 0x4E487B71 PUSH1 0xE0 SHL PUSH1 0x0 MSTORE PUSH1 0x21 PUSH1 0x4 MSTORE PUSH1 0x24 PUSH1 0x0 REVERT JUMPDEST PUSH1 0xA0 DUP2 ADD PUSH1 0x3 DUP6 LT PUSH2 0x12C2 JUMPI PUSH4 0x4E487B71 PUSH1 0xE0 SHL PUSH1 0x0 MSTORE PUSH1 0x21 PUSH1 0x4 MSTORE PUSH1 0x24 PUSH1 0x0 REVERT JUMPDEST DUP5 DUP3 MSTORE PUSH1 0x20 DUP1 DUP4 ADD DUP6 PUSH1 0x0 JUMPDEST PUSH1 0x2 DUP2 LT ISZERO PUSH2 0x12EB JUMPI DUP2 MLOAD DUP4 MSTORE SWAP2 DUP4 ADD SWAP2 SWAP1 DUP4 ADD SWAP1 PUSH1 0x1 ADD PUSH2 0x12CE JUMP JUMPDEST POP POP POP PUSH1 0x60 DUP4 ADD DUP5 PUSH1 0x0 JUMPDEST PUSH1 0x2 DUP2 LT ISZERO PUSH2 0x131C JUMPI DUP2 MLOAD PUSH1 0x1 PUSH1 0x1 PUSH1 0xA0 SHL SUB AND DUP4 MSTORE SWAP2 DUP4 ADD SWAP2 SWAP1 DUP4 ADD SWAP1 PUSH1 0x1 ADD PUSH2 0x12F6 JUMP JUMPDEST POP POP POP POP SWAP5 SWAP4 POP POP POP POP JUMP JUMPDEST PUSH1 0x0 DUP1 PUSH1 0x20 DUP4 DUP6 SUB SLT ISZERO PUSH2 0x133B JUMPI PUSH1 0x0 DUP1 REVERT JUMPDEST DUP3 CALLDATALOAD PUSH8 0xFFFFFFFFFFFFFFFF DUP1 DUP3 GT ISZERO PUSH2 0x1353 JUMPI PUSH1 0x0 DUP1 REVERT JUMPDEST DUP2 DUP6 ADD SWAP2 POP DUP6 PUSH1 0x1F DUP4 ADD SLT PUSH2 0x1367 JUMPI PUSH1 0x0 DUP1 REVERT JUMPDEST DUP2 CALLDATALOAD DUP2 DUP2 GT ISZERO PUSH2 0x1376 JUMPI PUSH1 0x0 DUP1 REVERT JUMPDEST DUP7 PUSH1 0x20 DUP3 DUP6 ADD ADD GT ISZERO PUSH2 0x1388 JUMPI PUSH1 0x0 DUP1 REVERT JUMPDEST PUSH1 0x20 SWAP3 SWAP1 SWAP3 ADD SWAP7 SWAP2 SWAP6 POP SWAP1 SWAP4 POP POP POP POP JUMP JUMPDEST PUSH1 0x0 PUSH1 0x20 DUP3 DUP5 SUB SLT ISZERO PUSH2 0x13AC JUMPI PUSH1 0x0 DUP1 REVERT JUMPDEST DUP2 CALLDATALOAD PUSH1 0x3 DUP2 LT PUSH2 0x13BB JUMPI PUSH1 0x0 DUP1 REVERT JUMPDEST SWAP4 SWAP3 POP POP POP JUMP JUMPDEST PUSH1 0x0 PUSH1 0x20 DUP3 DUP5 SUB SLT ISZERO PUSH2 0x13D4 JUMPI PUSH1 0x0 DUP1 REVERT JUMPDEST POP CALLDATALOAD SWAP2 SWAP1 POP JUMP JUMPDEST PUSH1 0x0 DUP1 PUSH1 0x40 DUP4 DUP6 SUB SLT ISZERO PUSH2 0x13EE JUMPI PUSH1 0x0 DUP1 REVERT JUMPDEST POP POP DUP1 CALLDATALOAD SWAP3 PUSH1 0x20 SWAP1 SWAP2 ADD CALLDATALOAD SWAP2 POP JUMP JUMPDEST PUSH1 0x0 DUP1 PUSH1 0x0 PUSH1 0x60 DUP5 DUP7 SUB SLT ISZERO PUSH2 0x1412 JUMPI PUSH1 0x0 DUP1 REVERT JUMPDEST PUSH2 0x141B DUP5 PUSH2 0x1244 JUMP JUMPDEST SWAP3 POP PUSH2 0x1429 PUSH1 0x20 DUP6 ADD PUSH2 0x1244 JUMP JUMPDEST SWAP2 POP PUSH1 0x40 DUP5 ADD CALLDATALOAD SWAP1 POP SWAP3 POP SWAP3 POP SWAP3 JUMP JUMPDEST PUSH1 0x20 DUP2 MSTORE DUP2 PUSH1 0x20 DUP3 ADD MSTORE DUP2 DUP4 PUSH1 0x40 DUP4 ADD CALLDATACOPY PUSH1 0x0 DUP2 DUP4 ADD PUSH1 0x40 SWAP1 DUP2 ADD SWAP2 SWAP1 SWAP2 MSTORE PUSH1 0x1F SWAP1 SWAP3 ADD PUSH1 0x1F NOT AND ADD ADD SWAP2 SWAP1 POP JUMP JUMPDEST PUSH1 0x0 PUSH1 0x20 DUP3 DUP5 SUB SLT ISZERO PUSH2 0x147A JUMPI PUSH1 0x0 DUP1 REVERT JUMPDEST DUP2 MLOAD DUP1 ISZERO ISZERO DUP2 EQ PUSH2 0x13BB JUMPI PUSH1 0x0 DUP1 REVERT JUMPDEST PUSH1 0x0 PUSH1 0x20 DUP3 DUP5 SUB SLT ISZERO PUSH2 0x149C JUMPI PUSH1 0x0 DUP1 REVERT JUMPDEST POP MLOAD SWAP2 SWAP1 POP JUMP JUMPDEST PUSH4 0x4E487B71 PUSH1 0xE0 SHL PUSH1 0x0 MSTORE PUSH1 0x32 PUSH1 0x4 MSTORE PUSH1 0x24 PUSH1 0x0 REVERT JUMPDEST PUSH1 0x0 PUSH1 0x1 DUP3 ADD PUSH2 0x14D9 JUMPI PUSH4 0x4E487B71 PUSH1 0xE0 SHL PUSH1 0x0 MSTORE PUSH1 0x11 PUSH1 0x4 MSTORE PUSH1 0x24 PUSH1 0x0 REVERT JUMPDEST POP PUSH1 0x1 ADD SWAP1 JUMP INVALID DUP11 0xB3 PUSH32 0xEF2B2E34C4B62FF9948EE661CDCF34E209D7C20F4D1F6E83085E93B1FCA26469 PUSH17 0x667358221220AE25D1B706B19196E3E4D3 PUSH7 0x113729DFE7F03B 0xC5 0xAD SWAP16 SGT 0xFB DIV 0xC1 PUSH7 0xBE41A7E5D06473 PUSH16 0x6C634300080D00330000000000000000 "
    },
    "gasEstimates": {
      "creation": {
        "codeDepositCost": "1086000",
        "executionCost": "1127",
        "totalCost": "1087127"
      },
      "external": {
        "_erc20Withdrawal(bytes)": "infinite",
        "_erc721Withdrawal(bytes)": "infinite",
        "_etherWithdrawal(bytes)": "infinite",
        "_getFeePerClaim()": "2304",
        "_getInputDriveSize()": "2403",
        "_getValidators()": "infinite",
        "_onClaim(address,bytes32)": "infinite",
        "_onDisputeEnd(address,address,bytes32)": "infinite",
        "_onNewEpochOutput(bytes32)": "46548",
        "_onNewEpochVM()": "infinite",
        "_setCurrentPhase(uint8)": "24694",
        "_setNumClaims(uint256,uint256)": "infinite"
      }
    },
    "methodIdentifiers": {
      "_erc20Withdrawal(bytes)": "3ea30fed",
      "_erc721Withdrawal(bytes)": "d446e010",
      "_etherWithdrawal(bytes)": "bcb3571a",
      "_getFeePerClaim()": "15afd588",
      "_getInputDriveSize()": "83089f41",
      "_getValidators()": "1487d4a9",
      "_onClaim(address,bytes32)": "3672682c",
      "_onDisputeEnd(address,address,bytes32)": "f8a7ea5d",
      "_onNewEpochOutput(bytes32)": "98f69b16",
      "_onNewEpochVM()": "9d45ceca",
      "_setCurrentPhase(uint8)": "57414ee8",
      "_setNumClaims(uint256,uint256)": "da048e36"
    }
  },
  "storageLayout": {
    "storage": [],
    "types": null
  },
  "userdoc": {
    "events": {
      "ClaimReceived(uint8,bytes32[2],address[2])": {
        "notice": "emitted on Claim received"
      },
      "DisputeEnded(uint8,bytes32[2],address[2])": {
        "notice": "emitted on Dispute end"
      },
      "NewEpoch(bytes32)": {
        "notice": "emitted on new Epoch"
      }
    },
    "kind": "user",
    "methods": {
      "_onDisputeEnd(address,address,bytes32)": {
        "notice": "called when a dispute ends in rollups"
      },
      "_onNewEpochVM()": {
        "notice": "called when a new epoch starts"
      }
    },
    "version": 1
  }
}