{
  "contractName": "DiamondInit",
  "sourceName": "contracts/upgrade_initializers/DiamondInit.sol",
  "abi": [
    {
      "anonymous": false,
      "inputs": [
        {
          "indexed": false,
          "internalType": "uint256",
          "name": "feePerClaim",
          "type": "uint256"
        },
        {
          "indexed": false,
          "internalType": "address",
          "name": "feeManagerBank",
          "type": "address"
        },
        {
          "indexed": false,
          "internalType": "address",
          "name": "feeManagerOwner",
          "type": "address"
        }
      ],
      "name": "FeeManagerInitialized",
      "type": "event"
    },
    {
      "anonymous": false,
      "inputs": [
        {
          "indexed": false,
          "internalType": "uint256",
          "name": "inputDuration",
          "type": "uint256"
        },
        {
          "indexed": false,
          "internalType": "uint256",
          "name": "challengePeriod",
          "type": "uint256"
        }
      ],
      "name": "RollupsInitialized",
      "type": "event"
    },
    {
      "inputs": [
        {
          "internalType": "bytes32",
          "name": "_templateHash",
          "type": "bytes32"
        },
        {
          "internalType": "uint256",
          "name": "_inputDuration",
          "type": "uint256"
        },
        {
          "internalType": "uint256",
          "name": "_challengePeriod",
          "type": "uint256"
        },
        {
          "internalType": "uint256",
          "name": "_inputLog2Size",
          "type": "uint256"
        },
        {
          "internalType": "uint256",
          "name": "_feePerClaim",
          "type": "uint256"
        },
        {
          "internalType": "address",
          "name": "_feeManagerBank",
          "type": "address"
        },
        {
          "internalType": "address",
          "name": "_feeManagerOwner",
          "type": "address"
        },
        {
          "internalType": "address payable[]",
          "name": "_validators",
          "type": "address[]"
        }
      ],
      "name": "init",
      "outputs": [],
      "stateMutability": "nonpayable",
      "type": "function"
    }
  ],
  "bytecode": "0x608060405234801561001057600080fd5b50610af0806100206000396000f3fe608060405234801561001057600080fd5b506004361061002b5760003560e01c8063bccb0daf14610030575b600080fd5b61004361003e3660046108ae565b610045565b005b6101267fc8fcad8db84d3cc18b4c41d551ea0ee66dd599cde068d998e57d5e09332c131f6020527f699d9daa71b280d05a152715774afa0a81a312594b2d731d6b0b2552b7d6f69f8054600160ff1991821681179092557ff97e938d8af42f52387bb74b8b526fda8f184cc2aa534340a8d75a88fbecc77580548216831790557f65d510a5d8f7ef134ec444f7f34ee808c8eeb5177cdfd16be0c40fe1ab43369580548216831790556307f5828d60e41b6000527f5622121b47b8cd0120c4efe45dd5483242f54a3d49bd7679be565d47694918c380549091169091179055565b61012f81610158565b61013a8888886101fa565b6101458484846102d3565b61014e856103a1565b5050505050505050565b80517f8ab37fef2b2e34c4b62ff9948ee661cdcf34e209d7c20f4d1f6e83085e93b1fc9060088111156101c75760405162461bcd60e51b8152602060048201526012602482015271757020746f20382076616c696461746f727360701b60448201526064015b60405180910390fd5b82516101dc90600184019060208601906107f6565b50600282018190556101ed81610448565b8260030181905550505050565b7fd32d7f90491bee81172a406b65f3270d810392fe53bb0379dde8bdd4e624189c8381557fd32d7f90491bee81172a406b65f3270d810392fe53bb0379dde8bdd4e624189d805463ffffffff8481166401000000000267ffffffffffffffff19909216868216179190911773ffffffff00000000ffffffff0000000000000000191642909116600160401b0263ffffffff60801b191617905560408051848152602081018490527fd6f5a5cd17f05cf9045751ee10f662f62e569c9371ffec8380510aabe63012d391015b60405180910390a150505050565b7f844e22529543d6e722c6477171dd50ffe5b412198b92cd9aeea62bbfabe4cc748390557f844e22529543d6e722c6477171dd50ffe5b412198b92cd9aeea62bbfabe4cc7580546001600160a01b038481166001600160a01b031992831681179093557f844e22529543d6e722c6477171dd50ffe5b412198b92cd9aeea62bbfabe4cc7380549185169190921681178255604080518781526020810194909452830152907f5b54873359173c3d639e39928ad34e113039ce7c799d500e57f8a2c703adb477906060016102c5565b7f943d5d24442f02461445e15c5d7d4a4ef0acb0d32c5d6f6af37a6882249912ff600382108015906103d4575060408211155b6104205760405162461bcd60e51b815260206004820152601960248201527f4c6f67206f6620696e7075742073697a653a205b332c36345d0000000000000060448201526064016101be565b6001821b60028201556040805160208101909152600081526104439082906104a9565b505050565b600060088211156104905760405162461bcd60e51b8152602060048201526012602482015271757020746f20382076616c696461746f727360701b60448201526064016101be565b600061049f600180851b6109f7565b60f01b9392505050565b60006104b68383306104bd565b9392505050565b600283015482516000917fd32d7f90491bee81172a406b65f3270d810392fe53bb0379dde8bdd4e624189c9111156105375760405162461bcd60e51b815260206004820152601860248201527f696e707574206c656e3a205b302c647269766553697a655d000000000000000060448201526064016101be565b61054081610662565b1561054e5761054e85610735565b600085600301546000146105655785600101610567565b855b9050600061057483610754565b8254604080516001600160a01b03891660208083019190915243828401524260608301526080820185905260a08083018590528351808403909101815260c0830184528051908201208b518c83012060e0840182905261010080850182905285518086039091018152610120909401909452825192820192909220600180860189556000898152929092209094018490558654949550909391929161061991906109f7565b847fa15a0da5519c084484141aaa73e525cee96062f5decc97e070f0c4da27738bc78a428d60405161064d93929190610a0e565b60405180910390a39998505050505050505050565b60018101546000908190600160801b900463ffffffff16600281111561068a5761068a6109cb565b600184015490915063ffffffff600160401b82048116911660008360028111156106b6576106b66109cb565b1480156106cb57506106c88183610a7a565b42115b1561072a576001858101805463ffffffff60801b1916600160801b1790556040517fed606d544c2202d032d2626c390923e6f260ca5d89625bba0cfe70d2bdda4e8f9161071791610a92565b60405180910390a1506001949350505050565b506000949350505050565b600381015415610746576000610749565b60015b60ff16600390910155565b7f0635ad75fae4d4e8d896461a635d23700076a1c3fd8da26276f18cb1c09ea5675460018201546000917f0635ad75fae4d4e8d896461a635d23700076a1c3fd8da26276f18cb1c09ea566918390600160801b900463ffffffff1660028111156107c0576107c06109cb565b905060008160028111156107d6576107d66109cb565b146107eb576107e6826001610a7a565b6107ed565b815b95945050505050565b82805482825590600052602060002090810192821561084b579160200282015b8281111561084b57825182546001600160a01b0319166001600160a01b03909116178255602090920191600190910190610816565b5061085792915061085b565b5090565b5b80821115610857576000815560010161085c565b6001600160a01b038116811461088557600080fd5b50565b634e487b7160e01b600052604160045260246000fd5b80356108a981610870565b919050565b600080600080600080600080610100898b0312156108cb57600080fd5b883597506020808a0135975060408a0135965060608a0135955060808a0135945060a08a01356108fa81610870565b935060c08a013561090a81610870565b925060e08a013567ffffffffffffffff8082111561092757600080fd5b818c0191508c601f83011261093b57600080fd5b81358181111561094d5761094d610888565b8060051b604051601f19603f8301168101818110858211171561097257610972610888565b60405291825284820192508381018501918f83111561099057600080fd5b938501935b828510156109b5576109a68561089e565b84529385019392850192610995565b8096505050505050509295985092959890939650565b634e487b7160e01b600052602160045260246000fd5b634e487b7160e01b600052601160045260246000fd5b600082821015610a0957610a096109e1565b500390565b60018060a01b038416815260006020848184015260606040840152835180606085015260005b81811015610a5057858101830151858201608001528201610a34565b81811115610a62576000608083870101525b50601f01601f19169290920160800195945050505050565b60008219821115610a8d57610a8d6109e1565b500190565b6020810160038310610ab457634e487b7160e01b600052602160045260246000fd5b9190529056fea2646970667358221220d295fe598a51a9a7d4558e9ef2647362090dd13a780b6201a93f6a29d35f52b564736f6c634300080d0033",
  "linkReferences": {},
  "deployedLinkReferences": {},
  "devdoc": {
    "events": {
      "FeeManagerInitialized(uint256,address,address)": {
        "params": {
          "feeManagerBank": "fee manager bank address",
          "feeManagerOwner": "fee manager owner address",
          "feePerClaim": "fee per claim to reward the validators"
        }
      },
      "RollupsInitialized(uint256,uint256)": {
        "params": {
          "challengePeriod": "duration of challenge period in seconds",
          "inputDuration": "duration of input accumulation phase in seconds"
        }
      }
    },
    "kind": "dev",
    "methods": {
      "init(bytes32,uint256,uint256,uint256,uint256,address,address,address[])": {
        "details": "validators have to be unique, if the same validator is added twice      consensus will never be reached",
        "params": {
          "_challengePeriod": "duration of challenge period in seconds",
          "_feeManagerBank": "fee manager bank address",
          "_feeManagerOwner": "fee manager owner address",
          "_feePerClaim": "fee per claim to reward the validators",
          "_inputDuration": "duration of input accumulation phase in seconds",
          "_inputLog2Size": "size of the input memory range in this machine",
          "_templateHash": "state hash of the cartesi machine at t0",
          "_validators": "initial validator set"
        }
      }
    },
    "version": 1
  },
  "evm": {
    "bytecode": {
      "linkReferences": {},
      "opcodes": "PUSH1 0x80 PUSH1 0x40 MSTORE CALLVALUE DUP1 ISZERO PUSH2 0x10 JUMPI PUSH1 0x0 DUP1 REVERT JUMPDEST POP PUSH2 0xAF0 DUP1 PUSH2 0x20 PUSH1 0x0 CODECOPY PUSH1 0x0 RETURN INVALID PUSH1 0x80 PUSH1 0x40 MSTORE CALLVALUE DUP1 ISZERO PUSH2 0x10 JUMPI PUSH1 0x0 DUP1 REVERT JUMPDEST POP PUSH1 0x4 CALLDATASIZE LT PUSH2 0x2B JUMPI PUSH1 0x0 CALLDATALOAD PUSH1 0xE0 SHR DUP1 PUSH4 0xBCCB0DAF EQ PUSH2 0x30 JUMPI JUMPDEST PUSH1 0x0 DUP1 REVERT JUMPDEST PUSH2 0x43 PUSH2 0x3E CALLDATASIZE PUSH1 0x4 PUSH2 0x8AE JUMP JUMPDEST PUSH2 0x45 JUMP JUMPDEST STOP JUMPDEST PUSH2 0x126 PUSH32 0xC8FCAD8DB84D3CC18B4C41D551EA0EE66DD599CDE068D998E57D5E09332C131F PUSH1 0x20 MSTORE PUSH32 0x699D9DAA71B280D05A152715774AFA0A81A312594B2D731D6B0B2552B7D6F69F DUP1 SLOAD PUSH1 0x1 PUSH1 0xFF NOT SWAP2 DUP3 AND DUP2 OR SWAP1 SWAP3 SSTORE PUSH32 0xF97E938D8AF42F52387BB74B8B526FDA8F184CC2AA534340A8D75A88FBECC775 DUP1 SLOAD DUP3 AND DUP4 OR SWAP1 SSTORE PUSH32 0x65D510A5D8F7EF134EC444F7F34EE808C8EEB5177CDFD16BE0C40FE1AB433695 DUP1 SLOAD DUP3 AND DUP4 OR SWAP1 SSTORE PUSH4 0x7F5828D PUSH1 0xE4 SHL PUSH1 0x0 MSTORE PUSH32 0x5622121B47B8CD0120C4EFE45DD5483242F54A3D49BD7679BE565D47694918C3 DUP1 SLOAD SWAP1 SWAP2 AND SWAP1 SWAP2 OR SWAP1 SSTORE JUMP JUMPDEST PUSH2 0x12F DUP2 PUSH2 0x158 JUMP JUMPDEST PUSH2 0x13A DUP9 DUP9 DUP9 PUSH2 0x1FA JUMP JUMPDEST PUSH2 0x145 DUP5 DUP5 DUP5 PUSH2 0x2D3 JUMP JUMPDEST PUSH2 0x14E DUP6 PUSH2 0x3A1 JUMP JUMPDEST POP POP POP POP POP POP POP POP JUMP JUMPDEST DUP1 MLOAD PUSH32 0x8AB37FEF2B2E34C4B62FF9948EE661CDCF34E209D7C20F4D1F6E83085E93B1FC SWAP1 PUSH1 0x8 DUP2 GT ISZERO PUSH2 0x1C7 JUMPI PUSH1 0x40 MLOAD PUSH3 0x461BCD PUSH1 0xE5 SHL DUP2 MSTORE PUSH1 0x20 PUSH1 0x4 DUP3 ADD MSTORE PUSH1 0x12 PUSH1 0x24 DUP3 ADD MSTORE PUSH18 0x757020746F20382076616C696461746F7273 PUSH1 0x70 SHL PUSH1 0x44 DUP3 ADD MSTORE PUSH1 0x64 ADD JUMPDEST PUSH1 0x40 MLOAD DUP1 SWAP2 SUB SWAP1 REVERT JUMPDEST DUP3 MLOAD PUSH2 0x1DC SWAP1 PUSH1 0x1 DUP5 ADD SWAP1 PUSH1 0x20 DUP7 ADD SWAP1 PUSH2 0x7F6 JUMP JUMPDEST POP PUSH1 0x2 DUP3 ADD DUP2 SWAP1 SSTORE PUSH2 0x1ED DUP2 PUSH2 0x448 JUMP JUMPDEST DUP3 PUSH1 0x3 ADD DUP2 SWAP1 SSTORE POP POP POP POP JUMP JUMPDEST PUSH32 0xD32D7F90491BEE81172A406B65F3270D810392FE53BB0379DDE8BDD4E624189C DUP4 DUP2 SSTORE PUSH32 0xD32D7F90491BEE81172A406B65F3270D810392FE53BB0379DDE8BDD4E624189D DUP1 SLOAD PUSH4 0xFFFFFFFF DUP5 DUP2 AND PUSH5 0x100000000 MUL PUSH8 0xFFFFFFFFFFFFFFFF NOT SWAP1 SWAP3 AND DUP7 DUP3 AND OR SWAP2 SWAP1 SWAP2 OR PUSH20 0xFFFFFFFF00000000FFFFFFFF0000000000000000 NOT AND TIMESTAMP SWAP1 SWAP2 AND PUSH1 0x1 PUSH1 0x40 SHL MUL PUSH4 0xFFFFFFFF PUSH1 0x80 SHL NOT AND OR SWAP1 SSTORE PUSH1 0x40 DUP1 MLOAD DUP5 DUP2 MSTORE PUSH1 0x20 DUP2 ADD DUP5 SWAP1 MSTORE PUSH32 0xD6F5A5CD17F05CF9045751EE10F662F62E569C9371FFEC8380510AABE63012D3 SWAP2 ADD JUMPDEST PUSH1 0x40 MLOAD DUP1 SWAP2 SUB SWAP1 LOG1 POP POP POP POP JUMP JUMPDEST PUSH32 0x844E22529543D6E722C6477171DD50FFE5B412198B92CD9AEEA62BBFABE4CC74 DUP4 SWAP1 SSTORE PUSH32 0x844E22529543D6E722C6477171DD50FFE5B412198B92CD9AEEA62BBFABE4CC75 DUP1 SLOAD PUSH1 0x1 PUSH1 0x1 PUSH1 0xA0 SHL SUB DUP5 DUP2 AND PUSH1 0x1 PUSH1 0x1 PUSH1 0xA0 SHL SUB NOT SWAP3 DUP4 AND DUP2 OR SWAP1 SWAP4 SSTORE PUSH32 0x844E22529543D6E722C6477171DD50FFE5B412198B92CD9AEEA62BBFABE4CC73 DUP1 SLOAD SWAP2 DUP6 AND SWAP2 SWAP1 SWAP3 AND DUP2 OR DUP3 SSTORE PUSH1 0x40 DUP1 MLOAD DUP8 DUP2 MSTORE PUSH1 0x20 DUP2 ADD SWAP5 SWAP1 SWAP5 MSTORE DUP4 ADD MSTORE SWAP1 PUSH32 0x5B54873359173C3D639E39928AD34E113039CE7C799D500E57F8A2C703ADB477 SWAP1 PUSH1 0x60 ADD PUSH2 0x2C5 JUMP JUMPDEST PUSH32 0x943D5D24442F02461445E15C5D7D4A4EF0ACB0D32C5D6F6AF37A6882249912FF PUSH1 0x3 DUP3 LT DUP1 ISZERO SWAP1 PUSH2 0x3D4 JUMPI POP PUSH1 0x40 DUP3 GT ISZERO JUMPDEST PUSH2 0x420 JUMPI PUSH1 0x40 MLOAD PUSH3 0x461BCD PUSH1 0xE5 SHL DUP2 MSTORE PUSH1 0x20 PUSH1 0x4 DUP3 ADD MSTORE PUSH1 0x19 PUSH1 0x24 DUP3 ADD MSTORE PUSH32 0x4C6F67206F6620696E7075742073697A653A205B332C36345D00000000000000 PUSH1 0x44 DUP3 ADD MSTORE PUSH1 0x64 ADD PUSH2 0x1BE JUMP JUMPDEST PUSH1 0x1 DUP3 SHL PUSH1 0x2 DUP3 ADD SSTORE PUSH1 0x40 DUP1 MLOAD PUSH1 0x20 DUP2 ADD SWAP1 SWAP2 MSTORE PUSH1 0x0 DUP2 MSTORE PUSH2 0x443 SWAP1 DUP3 SWAP1 PUSH2 0x4A9 JUMP JUMPDEST POP POP POP JUMP JUMPDEST PUSH1 0x0 PUSH1 0x8 DUP3 GT ISZERO PUSH2 0x490 JUMPI PUSH1 0x40 MLOAD PUSH3 0x461BCD PUSH1 0xE5 SHL DUP2 MSTORE PUSH1 0x20 PUSH1 0x4 DUP3 ADD MSTORE PUSH1 0x12 PUSH1 0x24 DUP3 ADD MSTORE PUSH18 0x757020746F20382076616C696461746F7273 PUSH1 0x70 SHL PUSH1 0x44 DUP3 ADD MSTORE PUSH1 0x64 ADD PUSH2 0x1BE JUMP JUMPDEST PUSH1 0x0 PUSH2 0x49F PUSH1 0x1 DUP1 DUP6 SHL PUSH2 0x9F7 JUMP JUMPDEST PUSH1 0xF0 SHL SWAP4 SWAP3 POP POP POP JUMP JUMPDEST PUSH1 0x0 PUSH2 0x4B6 DUP4 DUP4 ADDRESS PUSH2 0x4BD JUMP JUMPDEST SWAP4 SWAP3 POP POP POP JUMP JUMPDEST PUSH1 0x2 DUP4 ADD SLOAD DUP3 MLOAD PUSH1 0x0 SWAP2 PUSH32 0xD32D7F90491BEE81172A406B65F3270D810392FE53BB0379DDE8BDD4E624189C SWAP2 GT ISZERO PUSH2 0x537 JUMPI PUSH1 0x40 MLOAD PUSH3 0x461BCD PUSH1 0xE5 SHL DUP2 MSTORE PUSH1 0x20 PUSH1 0x4 DUP3 ADD MSTORE PUSH1 0x18 PUSH1 0x24 DUP3 ADD MSTORE PUSH32 0x696E707574206C656E3A205B302C647269766553697A655D0000000000000000 PUSH1 0x44 DUP3 ADD MSTORE PUSH1 0x64 ADD PUSH2 0x1BE JUMP JUMPDEST PUSH2 0x540 DUP2 PUSH2 0x662 JUMP JUMPDEST ISZERO PUSH2 0x54E JUMPI PUSH2 0x54E DUP6 PUSH2 0x735 JUMP JUMPDEST PUSH1 0x0 DUP6 PUSH1 0x3 ADD SLOAD PUSH1 0x0 EQ PUSH2 0x565 JUMPI DUP6 PUSH1 0x1 ADD PUSH2 0x567 JUMP JUMPDEST DUP6 JUMPDEST SWAP1 POP PUSH1 0x0 PUSH2 0x574 DUP4 PUSH2 0x754 JUMP JUMPDEST DUP3 SLOAD PUSH1 0x40 DUP1 MLOAD PUSH1 0x1 PUSH1 0x1 PUSH1 0xA0 SHL SUB DUP10 AND PUSH1 0x20 DUP1 DUP4 ADD SWAP2 SWAP1 SWAP2 MSTORE NUMBER DUP3 DUP5 ADD MSTORE TIMESTAMP PUSH1 0x60 DUP4 ADD MSTORE PUSH1 0x80 DUP3 ADD DUP6 SWAP1 MSTORE PUSH1 0xA0 DUP1 DUP4 ADD DUP6 SWAP1 MSTORE DUP4 MLOAD DUP1 DUP5 SUB SWAP1 SWAP2 ADD DUP2 MSTORE PUSH1 0xC0 DUP4 ADD DUP5 MSTORE DUP1 MLOAD SWAP1 DUP3 ADD KECCAK256 DUP12 MLOAD DUP13 DUP4 ADD KECCAK256 PUSH1 0xE0 DUP5 ADD DUP3 SWAP1 MSTORE PUSH2 0x100 DUP1 DUP6 ADD DUP3 SWAP1 MSTORE DUP6 MLOAD DUP1 DUP7 SUB SWAP1 SWAP2 ADD DUP2 MSTORE PUSH2 0x120 SWAP1 SWAP5 ADD SWAP1 SWAP5 MSTORE DUP3 MLOAD SWAP3 DUP3 ADD SWAP3 SWAP1 SWAP3 KECCAK256 PUSH1 0x1 DUP1 DUP7 ADD DUP10 SSTORE PUSH1 0x0 DUP10 DUP2 MSTORE SWAP3 SWAP1 SWAP3 KECCAK256 SWAP1 SWAP5 ADD DUP5 SWAP1 SSTORE DUP7 SLOAD SWAP5 SWAP6 POP SWAP1 SWAP4 SWAP2 SWAP3 SWAP2 PUSH2 0x619 SWAP2 SWAP1 PUSH2 0x9F7 JUMP JUMPDEST DUP5 PUSH32 0xA15A0DA5519C084484141AAA73E525CEE96062F5DECC97E070F0C4DA27738BC7 DUP11 TIMESTAMP DUP14 PUSH1 0x40 MLOAD PUSH2 0x64D SWAP4 SWAP3 SWAP2 SWAP1 PUSH2 0xA0E JUMP JUMPDEST PUSH1 0x40 MLOAD DUP1 SWAP2 SUB SWAP1 LOG3 SWAP10 SWAP9 POP POP POP POP POP POP POP POP POP JUMP JUMPDEST PUSH1 0x1 DUP2 ADD SLOAD PUSH1 0x0 SWAP1 DUP2 SWAP1 PUSH1 0x1 PUSH1 0x80 SHL SWAP1 DIV PUSH4 0xFFFFFFFF AND PUSH1 0x2 DUP2 GT ISZERO PUSH2 0x68A JUMPI PUSH2 0x68A PUSH2 0x9CB JUMP JUMPDEST PUSH1 0x1 DUP5 ADD SLOAD SWAP1 SWAP2 POP PUSH4 0xFFFFFFFF PUSH1 0x1 PUSH1 0x40 SHL DUP3 DIV DUP2 AND SWAP2 AND PUSH1 0x0 DUP4 PUSH1 0x2 DUP2 GT ISZERO PUSH2 0x6B6 JUMPI PUSH2 0x6B6 PUSH2 0x9CB JUMP JUMPDEST EQ DUP1 ISZERO PUSH2 0x6CB JUMPI POP PUSH2 0x6C8 DUP2 DUP4 PUSH2 0xA7A JUMP JUMPDEST TIMESTAMP GT JUMPDEST ISZERO PUSH2 0x72A JUMPI PUSH1 0x1 DUP6 DUP2 ADD DUP1 SLOAD PUSH4 0xFFFFFFFF PUSH1 0x80 SHL NOT AND PUSH1 0x1 PUSH1 0x80 SHL OR SWAP1 SSTORE PUSH1 0x40 MLOAD PUSH32 0xED606D544C2202D032D2626C390923E6F260CA5D89625BBA0CFE70D2BDDA4E8F SWAP2 PUSH2 0x717 SWAP2 PUSH2 0xA92 JUMP JUMPDEST PUSH1 0x40 MLOAD DUP1 SWAP2 SUB SWAP1 LOG1 POP PUSH1 0x1 SWAP5 SWAP4 POP POP POP POP JUMP JUMPDEST POP PUSH1 0x0 SWAP5 SWAP4 POP POP POP POP JUMP JUMPDEST PUSH1 0x3 DUP2 ADD SLOAD ISZERO PUSH2 0x746 JUMPI PUSH1 0x0 PUSH2 0x749 JUMP JUMPDEST PUSH1 0x1 JUMPDEST PUSH1 0xFF AND PUSH1 0x3 SWAP1 SWAP2 ADD SSTORE JUMP JUMPDEST PUSH32 0x635AD75FAE4D4E8D896461A635D23700076A1C3FD8DA26276F18CB1C09EA567 SLOAD PUSH1 0x1 DUP3 ADD SLOAD PUSH1 0x0 SWAP2 PUSH32 0x635AD75FAE4D4E8D896461A635D23700076A1C3FD8DA26276F18CB1C09EA566 SWAP2 DUP4 SWAP1 PUSH1 0x1 PUSH1 0x80 SHL SWAP1 DIV PUSH4 0xFFFFFFFF AND PUSH1 0x2 DUP2 GT ISZERO PUSH2 0x7C0 JUMPI PUSH2 0x7C0 PUSH2 0x9CB JUMP JUMPDEST SWAP1 POP PUSH1 0x0 DUP2 PUSH1 0x2 DUP2 GT ISZERO PUSH2 0x7D6 JUMPI PUSH2 0x7D6 PUSH2 0x9CB JUMP JUMPDEST EQ PUSH2 0x7EB JUMPI PUSH2 0x7E6 DUP3 PUSH1 0x1 PUSH2 0xA7A JUMP JUMPDEST PUSH2 0x7ED JUMP JUMPDEST DUP2 JUMPDEST SWAP6 SWAP5 POP POP POP POP POP JUMP JUMPDEST DUP3 DUP1 SLOAD DUP3 DUP3 SSTORE SWAP1 PUSH1 0x0 MSTORE PUSH1 0x20 PUSH1 0x0 KECCAK256 SWAP1 DUP2 ADD SWAP3 DUP3 ISZERO PUSH2 0x84B JUMPI SWAP2 PUSH1 0x20 MUL DUP3 ADD JUMPDEST DUP3 DUP2 GT ISZERO PUSH2 0x84B JUMPI DUP3 MLOAD DUP3 SLOAD PUSH1 0x1 PUSH1 0x1 PUSH1 0xA0 SHL SUB NOT AND PUSH1 0x1 PUSH1 0x1 PUSH1 0xA0 SHL SUB SWAP1 SWAP2 AND OR DUP3 SSTORE PUSH1 0x20 SWAP1 SWAP3 ADD SWAP2 PUSH1 0x1 SWAP1 SWAP2 ADD SWAP1 PUSH2 0x816 JUMP JUMPDEST POP PUSH2 0x857 SWAP3 SWAP2 POP PUSH2 0x85B JUMP JUMPDEST POP SWAP1 JUMP JUMPDEST JUMPDEST DUP1 DUP3 GT ISZERO PUSH2 0x857 JUMPI PUSH1 0x0 DUP2 SSTORE PUSH1 0x1 ADD PUSH2 0x85C JUMP JUMPDEST PUSH1 0x1 PUSH1 0x1 PUSH1 0xA0 SHL SUB DUP2 AND DUP2 EQ PUSH2 0x885 JUMPI PUSH1 0x0 DUP1 REVERT JUMPDEST POP JUMP JUMPDEST PUSH4 0x4E487B71 PUSH1 0xE0 SHL PUSH1 0x0 MSTORE PUSH1 0x41 PUSH1 0x4 MSTORE PUSH1 0x24 PUSH1 0x0 REVERT JUMPDEST DUP1 CALLDATALOAD PUSH2 0x8A9 DUP2 PUSH2 0x870 JUMP JUMPDEST SWAP2 SWAP1 POP JUMP JUMPDEST PUSH1 0x0 DUP1 PUSH1 0x0 DUP1 PUSH1 0x0 DUP1 PUSH1 0x0 DUP1 PUSH2 0x100 DUP10 DUP12 SUB SLT ISZERO PUSH2 0x8CB JUMPI PUSH1 0x0 DUP1 REVERT JUMPDEST DUP9 CALLDATALOAD SWAP8 POP PUSH1 0x20 DUP1 DUP11 ADD CALLDATALOAD SWAP8 POP PUSH1 0x40 DUP11 ADD CALLDATALOAD SWAP7 POP PUSH1 0x60 DUP11 ADD CALLDATALOAD SWAP6 POP PUSH1 0x80 DUP11 ADD CALLDATALOAD SWAP5 POP PUSH1 0xA0 DUP11 ADD CALLDATALOAD PUSH2 0x8FA DUP2 PUSH2 0x870 JUMP JUMPDEST SWAP4 POP PUSH1 0xC0 DUP11 ADD CALLDATALOAD PUSH2 0x90A DUP2 PUSH2 0x870 JUMP JUMPDEST SWAP3 POP PUSH1 0xE0 DUP11 ADD CALLDATALOAD PUSH8 0xFFFFFFFFFFFFFFFF DUP1 DUP3 GT ISZERO PUSH2 0x927 JUMPI PUSH1 0x0 DUP1 REVERT JUMPDEST DUP2 DUP13 ADD SWAP2 POP DUP13 PUSH1 0x1F DUP4 ADD SLT PUSH2 0x93B JUMPI PUSH1 0x0 DUP1 REVERT JUMPDEST DUP2 CALLDATALOAD DUP2 DUP2 GT ISZERO PUSH2 0x94D JUMPI PUSH2 0x94D PUSH2 0x888 JUMP JUMPDEST DUP1 PUSH1 0x5 SHL PUSH1 0x40 MLOAD PUSH1 0x1F NOT PUSH1 0x3F DUP4 ADD AND DUP2 ADD DUP2 DUP2 LT DUP6 DUP3 GT OR ISZERO PUSH2 0x972 JUMPI PUSH2 0x972 PUSH2 0x888 JUMP JUMPDEST PUSH1 0x40 MSTORE SWAP2 DUP3 MSTORE DUP5 DUP3 ADD SWAP3 POP DUP4 DUP2 ADD DUP6 ADD SWAP2 DUP16 DUP4 GT ISZERO PUSH2 0x990 JUMPI PUSH1 0x0 DUP1 REVERT JUMPDEST SWAP4 DUP6 ADD SWAP4 JUMPDEST DUP3 DUP6 LT ISZERO PUSH2 0x9B5 JUMPI PUSH2 0x9A6 DUP6 PUSH2 0x89E JUMP JUMPDEST DUP5 MSTORE SWAP4 DUP6 ADD SWAP4 SWAP3 DUP6 ADD SWAP3 PUSH2 0x995 JUMP JUMPDEST DUP1 SWAP7 POP POP POP POP POP POP POP SWAP3 SWAP6 SWAP9 POP SWAP3 SWAP6 SWAP9 SWAP1 SWAP4 SWAP7 POP JUMP JUMPDEST PUSH4 0x4E487B71 PUSH1 0xE0 SHL PUSH1 0x0 MSTORE PUSH1 0x21 PUSH1 0x4 MSTORE PUSH1 0x24 PUSH1 0x0 REVERT JUMPDEST PUSH4 0x4E487B71 PUSH1 0xE0 SHL PUSH1 0x0 MSTORE PUSH1 0x11 PUSH1 0x4 MSTORE PUSH1 0x24 PUSH1 0x0 REVERT JUMPDEST PUSH1 0x0 DUP3 DUP3 LT ISZERO PUSH2 0xA09 JUMPI PUSH2 0xA09 PUSH2 0x9E1 JUMP JUMPDEST POP SUB SWAP1 JUMP JUMPDEST PUSH1 0x1 DUP1 PUSH1 0xA0 SHL SUB DUP5 AND DUP2 MSTORE PUSH1 0x0 PUSH1 0x20 DUP5 DUP2 DUP5 ADD MSTORE PUSH1 0x60 PUSH1 0x40 DUP5 ADD MSTORE DUP4 MLOAD DUP1 PUSH1 0x60 DUP6 ADD MSTORE PUSH1 0x0 JUMPDEST DUP2 DUP2 LT ISZERO PUSH2 0xA50 JUMPI DUP6 DUP2 ADD DUP4 ADD MLOAD DUP6 DUP3 ADD PUSH1 0x80 ADD MSTORE DUP3 ADD PUSH2 0xA34 JUMP JUMPDEST DUP2 DUP2 GT ISZERO PUSH2 0xA62 JUMPI PUSH1 0x0 PUSH1 0x80 DUP4 DUP8 ADD ADD MSTORE JUMPDEST POP PUSH1 0x1F ADD PUSH1 0x1F NOT AND SWAP3 SWAP1 SWAP3 ADD PUSH1 0x80 ADD SWAP6 SWAP5 POP POP POP POP POP JUMP JUMPDEST PUSH1 0x0 DUP3 NOT DUP3 GT ISZERO PUSH2 0xA8D JUMPI PUSH2 0xA8D PUSH2 0x9E1 JUMP JUMPDEST POP ADD SWAP1 JUMP JUMPDEST PUSH1 0x20 DUP2 ADD PUSH1 0x3 DUP4 LT PUSH2 0xAB4 JUMPI PUSH4 0x4E487B71 PUSH1 0xE0 SHL PUSH1 0x0 MSTORE PUSH1 0x21 PUSH1 0x4 MSTORE PUSH1 0x24 PUSH1 0x0 REVERT JUMPDEST SWAP2 SWAP1 MSTORE SWAP1 JUMP INVALID LOG2 PUSH5 0x6970667358 0x22 SLT KECCAK256 0xD2 SWAP6 INVALID MSIZE DUP11 MLOAD 0xA9 0xA7 0xD4 SSTORE DUP15 SWAP15 CALLCODE PUSH5 0x7362090DD1 GASPRICE PUSH25 0xB6201A93F6A29D35F52B564736F6C634300080D0033000000 "
    },
    "gasEstimates": {
      "creation": {
        "codeDepositCost": "560000",
        "executionCost": "594",
        "totalCost": "560594"
      },
      "external": {
        "init(bytes32,uint256,uint256,uint256,uint256,address,address,address[])": "infinite"
      },
      "internal": {
        "initERC165()": "infinite",
        "initFeeManager(uint256,address,address)": "infinite",
        "initInput(uint256)": "infinite",
        "initRollups(bytes32,uint256,uint256)": "infinite",
        "initValidatorManager(address payable[] memory)": "infinite"
      }
    },
    "methodIdentifiers": {
      "init(bytes32,uint256,uint256,uint256,uint256,address,address,address[])": "bccb0daf"
    }
  },
  "storageLayout": {
    "storage": [],
    "types": null
  },
  "userdoc": {
    "events": {
      "FeeManagerInitialized(uint256,address,address)": {
        "notice": "FeeManagerImpl contract initialized"
      },
      "RollupsInitialized(uint256,uint256)": {
        "notice": "rollups contract initialized"
      }
    },
    "kind": "user",
    "methods": {
      "init(bytes32,uint256,uint256,uint256,uint256,address,address,address[])": {
        "notice": "initialize the Rollups contract"
      }
    },
    "version": 1
  }
}