{
  "contractName": "DiamondCutFacet",
  "sourceName": "contracts/facets/DiamondCutFacet.sol",
  "abi": [
    {
      "anonymous": false,
      "inputs": [
        {
          "components": [
            {
              "internalType": "address",
              "name": "facetAddress",
              "type": "address"
            },
            {
              "internalType": "enum IDiamondCut.FacetCutAction",
              "name": "action",
              "type": "uint8"
            },
            {
              "internalType": "bytes4[]",
              "name": "functionSelectors",
              "type": "bytes4[]"
            }
          ],
          "indexed": false,
          "internalType": "struct IDiamondCut.FacetCut[]",
          "name": "diamondCut",
          "type": "tuple[]"
        },
        {
          "indexed": false,
          "internalType": "address",
          "name": "init",
          "type": "address"
        },
        {
          "indexed": false,
          "internalType": "bytes",
          "name": "callData",
          "type": "bytes"
        }
      ],
      "name": "DiamondCut",
      "type": "event"
    },
    {
      "inputs": [
        {
          "components": [
            {
              "internalType": "address",
              "name": "facetAddress",
              "type": "address"
            },
            {
              "internalType": "enum IDiamondCut.FacetCutAction",
              "name": "action",
              "type": "uint8"
            },
            {
              "internalType": "bytes4[]",
              "name": "functionSelectors",
              "type": "bytes4[]"
            }
          ],
          "internalType": "struct IDiamondCut.FacetCut[]",
          "name": "_diamondCut",
          "type": "tuple[]"
        },
        {
          "internalType": "address",
          "name": "_init",
          "type": "address"
        },
        {
          "internalType": "bytes",
          "name": "_calldata",
          "type": "bytes"
        }
      ],
      "name": "diamondCut",
      "outputs": [],
      "stateMutability": "nonpayable",
      "type": "function"
    }
  ],
  "bytecode": "0x608060405234801561001057600080fd5b5061125e806100206000396000f3fe608060405234801561001057600080fd5b506004361061002b5760003560e01c80631f931c1c14610030575b600080fd5b61004361003e366004610d90565b610045565b005b61004d61027b565b7fc8fcad8db84d3cc18b4c41d551ea0ee66dd599cde068d998e57d5e09332c131e547fc8fcad8db84d3cc18b4c41d551ea0ee66dd599cde068d998e57d5e09332c131c9061ffff8116908190600090600716156100bc5750600381901c60009081526001840160205260409020545b60005b888110156101b35761019c83838c8c858181106100de576100de610e42565b90506020028101906100f09190610e58565b6100fe906020810190610e78565b8d8d8681811061011057610110610e42565b90506020028101906101229190610e58565b610133906040810190602001610ea9565b8e8e8781811061014557610145610e42565b90506020028101906101579190610e58565b610165906040810190610ec4565b8080602002602001604051908101604052809392919081815260200183836020028082843760009201919091525061030992505050565b9093509150806101ab81610f24565b9150506100bf565b508282146101cf5760028401805461ffff191661ffff84161790555b60078216156101f157600382901c600090815260018501602052604090208190555b7f8faa70878671ccd212d20771b795c50af8fd3ff6cf27f4bde57e5d4de0aeb6738989898989604051610228959493929190610fcc565b60405180910390a16102708787878080601f016020809104026020016040519081016040528093929190818152602001838380828437600092019190915250610af792505050565b505050505050505050565b7fc8fcad8db84d3cc18b4c41d551ea0ee66dd599cde068d998e57d5e09332c131c600401546001600160a01b031633146103075760405162461bcd60e51b815260206004820152602260248201527f4c69624469616d6f6e643a204d75737420626520636f6e7472616374206f776e60448201526132b960f11b60648201526084015b60405180910390fd5b565b600080807fc8fcad8db84d3cc18b4c41d551ea0ee66dd599cde068d998e57d5e09332c131c905060008451116103955760405162461bcd60e51b815260206004820152602b60248201527f4c69624469616d6f6e644375743a204e6f2073656c6563746f727320696e206660448201526a1858d95d081d1bc818dd5d60aa1b60648201526084016102fe565b60008560028111156103a9576103a9610f3d565b03610516576103d0866040518060600160405280602481526020016111b560249139610d0a565b60005b84518110156105105760008582815181106103f0576103f0610e42565b6020908102919091018101516001600160e01b03198116600090815291859052604090912054909150606081901c156104895760405162461bcd60e51b815260206004820152603560248201527f4c69624469616d6f6e644375743a2043616e2774206164642066756e6374696f6044820152746e207468617420616c72656164792065786973747360581b60648201526084016102fe565b6001600160e01b031980831660008181526020879052604090206001600160601b031960608d901b168e17905560e060058e901b811692831c199c909c1690821c179a8190036104ed5760038c901c600090815260018601602052604081209b909b555b8b6104f781610f24565b9c5050505050808061050890610f24565b9150506103d3565b50610aeb565b600185600281111561052a5761052a610f3d565b03610759576105518660405180606001604052806028815260200161120160289139610d0a565b60005b845181101561051057600085828151811061057157610571610e42565b6020908102919091018101516001600160e01b03198116600090815291859052604090912054909150606081901c3081036106065760405162461bcd60e51b815260206004820152602f60248201527f4c69624469616d6f6e644375743a2043616e2774207265706c61636520696d6d60448201526e3aba30b1363290333ab731ba34b7b760891b60648201526084016102fe565b896001600160a01b0316816001600160a01b03160361068d5760405162461bcd60e51b815260206004820152603860248201527f4c69624469616d6f6e644375743a2043616e2774207265706c6163652066756e60448201527f6374696f6e20776974682073616d652066756e6374696f6e000000000000000060648201526084016102fe565b6001600160a01b0381166107095760405162461bcd60e51b815260206004820152603860248201527f4c69624469616d6f6e644375743a2043616e2774207265706c6163652066756e60448201527f6374696f6e207468617420646f65736e2774206578697374000000000000000060648201526084016102fe565b506001600160e01b031990911660009081526020849052604090206bffffffffffffffffffffffff919091166001600160601b031960608a901b161790558061075181610f24565b915050610554565b600285600281111561076d5761076d610f3d565b03610a93576001600160a01b038616156107e85760405162461bcd60e51b815260206004820152603660248201527f4c69624469616d6f6e644375743a2052656d6f76652066616365742061646472604482015275657373206d757374206265206164647265737328302960501b60648201526084016102fe565b600388901c6007891660005b8651811015610a735760008a90036108305782610810816110f5565b60008181526001870160205260409020549b5093506007925061083e9050565b8161083a816110f5565b9250505b6000806000808a858151811061085657610856610e42565b6020908102919091018101516001600160e01b031981166000908152918a9052604090912054909150606081901c6108f65760405162461bcd60e51b815260206004820152603760248201527f4c69624469616d6f6e644375743a2043616e27742072656d6f76652066756e6360448201527f74696f6e207468617420646f65736e277420657869737400000000000000000060648201526084016102fe565b30606082901c036109605760405162461bcd60e51b815260206004820152602e60248201527f4c69624469616d6f6e644375743a2043616e27742072656d6f766520696d6d7560448201526d3a30b1363290333ab731ba34b7b760911b60648201526084016102fe565b600587901b8f901b94506001600160e01b0319808616908316146109b6576001600160e01b03198516600090815260208a90526040902080546001600160601b0319166bffffffffffffffffffffffff83161790555b6001600160e01b031991909116600090815260208990526040812055600381901c611fff16925060051b60e0169050858214610a1b576000828152600188016020526040902080546001600160e01b031980841c19909116908516831c179055610a3f565b80836001600160e01b031916901c816001600160e01b031960001b901c198e16179c505b84600003610a5d57600086815260018801602052604081208190559c505b5050508080610a6b90610f24565b9150506107f4565b5080610a8083600861110c565b610a8a919061112b565b99505050610aeb565b60405162461bcd60e51b815260206004820152602760248201527f4c69624469616d6f6e644375743a20496e636f727265637420466163657443756044820152663a20b1ba34b7b760c91b60648201526084016102fe565b50959694955050505050565b6001600160a01b038216610b7e57805115610b7a5760405162461bcd60e51b815260206004820152603c60248201527f4c69624469616d6f6e644375743a205f696e697420697320616464726573732860448201527f3029206275745f63616c6c64617461206973206e6f7420656d7074790000000060648201526084016102fe565b5050565b6000815111610bf55760405162461bcd60e51b815260206004820152603d60248201527f4c69624469616d6f6e644375743a205f63616c6c6461746120697320656d707460448201527f7920627574205f696e6974206973206e6f74206164647265737328302900000060648201526084016102fe565b6001600160a01b0382163014610c2757610c27826040518060600160405280602881526020016111d960289139610d0a565b600080836001600160a01b031683604051610c42919061116f565b600060405180830381855af49150503d8060008114610c7d576040519150601f19603f3d011682016040523d82523d6000602084013e610c82565b606091505b509150915081610d0457805115610cad578060405162461bcd60e51b81526004016102fe9190611181565b60405162461bcd60e51b815260206004820152602660248201527f4c69624469616d6f6e644375743a205f696e69742066756e6374696f6e2072656044820152651d995c9d195960d21b60648201526084016102fe565b50505050565b813b8181610d045760405162461bcd60e51b81526004016102fe9190611181565b80356001600160a01b0381168114610d4257600080fd5b919050565b60008083601f840112610d5957600080fd5b50813567ffffffffffffffff811115610d7157600080fd5b602083019150836020828501011115610d8957600080fd5b9250929050565b600080600080600060608688031215610da857600080fd5b853567ffffffffffffffff80821115610dc057600080fd5b818801915088601f830112610dd457600080fd5b813581811115610de357600080fd5b8960208260051b8501011115610df857600080fd5b60208301975080965050610e0e60208901610d2b565b94506040880135915080821115610e2457600080fd5b50610e3188828901610d47565b969995985093965092949392505050565b634e487b7160e01b600052603260045260246000fd5b60008235605e19833603018112610e6e57600080fd5b9190910192915050565b600060208284031215610e8a57600080fd5b610e9382610d2b565b9392505050565b803560038110610d4257600080fd5b600060208284031215610ebb57600080fd5b610e9382610e9a565b6000808335601e19843603018112610edb57600080fd5b83018035915067ffffffffffffffff821115610ef657600080fd5b6020019150600581901b3603821315610d8957600080fd5b634e487b7160e01b600052601160045260246000fd5b600060018201610f3657610f36610f0e565b5060010190565b634e487b7160e01b600052602160045260246000fd5b818352600060208085019450826000805b86811015610f975782356001600160e01b03198116808214610f84578384fd5b8952509683019691830191600101610f64565b50959695505050505050565b81835281816020850137506000828201602090810191909152601f909101601f19169091010190565b6060808252818101869052600090600560808085019089831b8601018a855b8b8110156110c257878303607f190184528135368e9003605e1901811261101157600080fd5b8d016001600160a01b0361102482610d2b565b1684526020611034818301610e9a565b6003811061105257634e487b7160e01b600052602160045260246000fd5b8582015260408281013536849003601e1901811261106f57600080fd5b8301803567ffffffffffffffff81111561108857600080fd5b808a1b360385131561109957600080fd5b8a838901526110ad8b890182868501610f53565b98840198975050509301925050600101610feb565b50506001600160a01b038916602087015285810360408701526110e681888a610fa3565b9b9a5050505050505050505050565b60008161110457611104610f0e565b506000190190565b600081600019048311821515161561112657611126610f0e565b500290565b6000821982111561113e5761113e610f0e565b500190565b60005b8381101561115e578181015183820152602001611146565b83811115610d045750506000910152565b60008251610e6e818460208701611143565b60208152600082518060208401526111a0816040850160208701611143565b601f01601f1916919091016040019291505056fe4c69624469616d6f6e644375743a2041646420666163657420686173206e6f20636f64654c69624469616d6f6e644375743a205f696e6974206164647265737320686173206e6f20636f64654c69624469616d6f6e644375743a205265706c61636520666163657420686173206e6f20636f6465a26469706673582212204b8b2c4cc9333af346d73b2e4a6dca4f76dd4c5bea51a13e8742c5f94ad18f9f64736f6c634300080d0033",
  "linkReferences": {},
  "deployedLinkReferences": {},
  "devdoc": {
    "kind": "dev",
    "methods": {
      "diamondCut((address,uint8,bytes4[])[],address,bytes)": {
        "params": {
          "_calldata": "A function call, including function selector and arguments                  _calldata is executed with delegatecall on _init",
          "_diamondCut": "Contains the facet addresses and function selectors",
          "_init": "The address of the contract or facet to execute _calldata"
        }
      }
    },
    "version": 1
  },
  "evm": {
    "bytecode": {
      "linkReferences": {},
      "opcodes": "PUSH1 0x80 PUSH1 0x40 MSTORE CALLVALUE DUP1 ISZERO PUSH2 0x10 JUMPI PUSH1 0x0 DUP1 REVERT JUMPDEST POP PUSH2 0x125E DUP1 PUSH2 0x20 PUSH1 0x0 CODECOPY PUSH1 0x0 RETURN INVALID PUSH1 0x80 PUSH1 0x40 MSTORE CALLVALUE DUP1 ISZERO PUSH2 0x10 JUMPI PUSH1 0x0 DUP1 REVERT JUMPDEST POP PUSH1 0x4 CALLDATASIZE LT PUSH2 0x2B JUMPI PUSH1 0x0 CALLDATALOAD PUSH1 0xE0 SHR DUP1 PUSH4 0x1F931C1C EQ PUSH2 0x30 JUMPI JUMPDEST PUSH1 0x0 DUP1 REVERT JUMPDEST PUSH2 0x43 PUSH2 0x3E CALLDATASIZE PUSH1 0x4 PUSH2 0xD90 JUMP JUMPDEST PUSH2 0x45 JUMP JUMPDEST STOP JUMPDEST PUSH2 0x4D PUSH2 0x27B JUMP JUMPDEST PUSH32 0xC8FCAD8DB84D3CC18B4C41D551EA0EE66DD599CDE068D998E57D5E09332C131E SLOAD PUSH32 0xC8FCAD8DB84D3CC18B4C41D551EA0EE66DD599CDE068D998E57D5E09332C131C SWAP1 PUSH2 0xFFFF DUP2 AND SWAP1 DUP2 SWAP1 PUSH1 0x0 SWAP1 PUSH1 0x7 AND ISZERO PUSH2 0xBC JUMPI POP PUSH1 0x3 DUP2 SWAP1 SHR PUSH1 0x0 SWAP1 DUP2 MSTORE PUSH1 0x1 DUP5 ADD PUSH1 0x20 MSTORE PUSH1 0x40 SWAP1 KECCAK256 SLOAD JUMPDEST PUSH1 0x0 JUMPDEST DUP9 DUP2 LT ISZERO PUSH2 0x1B3 JUMPI PUSH2 0x19C DUP4 DUP4 DUP13 DUP13 DUP6 DUP2 DUP2 LT PUSH2 0xDE JUMPI PUSH2 0xDE PUSH2 0xE42 JUMP JUMPDEST SWAP1 POP PUSH1 0x20 MUL DUP2 ADD SWAP1 PUSH2 0xF0 SWAP2 SWAP1 PUSH2 0xE58 JUMP JUMPDEST PUSH2 0xFE SWAP1 PUSH1 0x20 DUP2 ADD SWAP1 PUSH2 0xE78 JUMP JUMPDEST DUP14 DUP14 DUP7 DUP2 DUP2 LT PUSH2 0x110 JUMPI PUSH2 0x110 PUSH2 0xE42 JUMP JUMPDEST SWAP1 POP PUSH1 0x20 MUL DUP2 ADD SWAP1 PUSH2 0x122 SWAP2 SWAP1 PUSH2 0xE58 JUMP JUMPDEST PUSH2 0x133 SWAP1 PUSH1 0x40 DUP2 ADD SWAP1 PUSH1 0x20 ADD PUSH2 0xEA9 JUMP JUMPDEST DUP15 DUP15 DUP8 DUP2 DUP2 LT PUSH2 0x145 JUMPI PUSH2 0x145 PUSH2 0xE42 JUMP JUMPDEST SWAP1 POP PUSH1 0x20 MUL DUP2 ADD SWAP1 PUSH2 0x157 SWAP2 SWAP1 PUSH2 0xE58 JUMP JUMPDEST PUSH2 0x165 SWAP1 PUSH1 0x40 DUP2 ADD SWAP1 PUSH2 0xEC4 JUMP JUMPDEST DUP1 DUP1 PUSH1 0x20 MUL PUSH1 0x20 ADD PUSH1 0x40 MLOAD SWAP1 DUP2 ADD PUSH1 0x40 MSTORE DUP1 SWAP4 SWAP3 SWAP2 SWAP1 DUP2 DUP2 MSTORE PUSH1 0x20 ADD DUP4 DUP4 PUSH1 0x20 MUL DUP1 DUP3 DUP5 CALLDATACOPY PUSH1 0x0 SWAP3 ADD SWAP2 SWAP1 SWAP2 MSTORE POP PUSH2 0x309 SWAP3 POP POP POP JUMP JUMPDEST SWAP1 SWAP4 POP SWAP2 POP DUP1 PUSH2 0x1AB DUP2 PUSH2 0xF24 JUMP JUMPDEST SWAP2 POP POP PUSH2 0xBF JUMP JUMPDEST POP DUP3 DUP3 EQ PUSH2 0x1CF JUMPI PUSH1 0x2 DUP5 ADD DUP1 SLOAD PUSH2 0xFFFF NOT AND PUSH2 0xFFFF DUP5 AND OR SWAP1 SSTORE JUMPDEST PUSH1 0x7 DUP3 AND ISZERO PUSH2 0x1F1 JUMPI PUSH1 0x3 DUP3 SWAP1 SHR PUSH1 0x0 SWAP1 DUP2 MSTORE PUSH1 0x1 DUP6 ADD PUSH1 0x20 MSTORE PUSH1 0x40 SWAP1 KECCAK256 DUP2 SWAP1 SSTORE JUMPDEST PUSH32 0x8FAA70878671CCD212D20771B795C50AF8FD3FF6CF27F4BDE57E5D4DE0AEB673 DUP10 DUP10 DUP10 DUP10 DUP10 PUSH1 0x40 MLOAD PUSH2 0x228 SWAP6 SWAP5 SWAP4 SWAP3 SWAP2 SWAP1 PUSH2 0xFCC JUMP JUMPDEST PUSH1 0x40 MLOAD DUP1 SWAP2 SUB SWAP1 LOG1 PUSH2 0x270 DUP8 DUP8 DUP8 DUP1 DUP1 PUSH1 0x1F ADD PUSH1 0x20 DUP1 SWAP2 DIV MUL PUSH1 0x20 ADD PUSH1 0x40 MLOAD SWAP1 DUP2 ADD PUSH1 0x40 MSTORE DUP1 SWAP4 SWAP3 SWAP2 SWAP1 DUP2 DUP2 MSTORE PUSH1 0x20 ADD DUP4 DUP4 DUP1 DUP3 DUP5 CALLDATACOPY PUSH1 0x0 SWAP3 ADD SWAP2 SWAP1 SWAP2 MSTORE POP PUSH2 0xAF7 SWAP3 POP POP POP JUMP JUMPDEST POP POP POP POP POP POP POP POP POP JUMP JUMPDEST PUSH32 0xC8FCAD8DB84D3CC18B4C41D551EA0EE66DD599CDE068D998E57D5E09332C131C PUSH1 0x4 ADD SLOAD PUSH1 0x1 PUSH1 0x1 PUSH1 0xA0 SHL SUB AND CALLER EQ PUSH2 0x307 JUMPI PUSH1 0x40 MLOAD PUSH3 0x461BCD PUSH1 0xE5 SHL DUP2 MSTORE PUSH1 0x20 PUSH1 0x4 DUP3 ADD MSTORE PUSH1 0x22 PUSH1 0x24 DUP3 ADD MSTORE PUSH32 0x4C69624469616D6F6E643A204D75737420626520636F6E7472616374206F776E PUSH1 0x44 DUP3 ADD MSTORE PUSH2 0x32B9 PUSH1 0xF1 SHL PUSH1 0x64 DUP3 ADD MSTORE PUSH1 0x84 ADD JUMPDEST PUSH1 0x40 MLOAD DUP1 SWAP2 SUB SWAP1 REVERT JUMPDEST JUMP JUMPDEST PUSH1 0x0 DUP1 DUP1 PUSH32 0xC8FCAD8DB84D3CC18B4C41D551EA0EE66DD599CDE068D998E57D5E09332C131C SWAP1 POP PUSH1 0x0 DUP5 MLOAD GT PUSH2 0x395 JUMPI PUSH1 0x40 MLOAD PUSH3 0x461BCD PUSH1 0xE5 SHL DUP2 MSTORE PUSH1 0x20 PUSH1 0x4 DUP3 ADD MSTORE PUSH1 0x2B PUSH1 0x24 DUP3 ADD MSTORE PUSH32 0x4C69624469616D6F6E644375743A204E6F2073656C6563746F727320696E2066 PUSH1 0x44 DUP3 ADD MSTORE PUSH11 0x1858D95D081D1BC818DD5D PUSH1 0xAA SHL PUSH1 0x64 DUP3 ADD MSTORE PUSH1 0x84 ADD PUSH2 0x2FE JUMP JUMPDEST PUSH1 0x0 DUP6 PUSH1 0x2 DUP2 GT ISZERO PUSH2 0x3A9 JUMPI PUSH2 0x3A9 PUSH2 0xF3D JUMP JUMPDEST SUB PUSH2 0x516 JUMPI PUSH2 0x3D0 DUP7 PUSH1 0x40 MLOAD DUP1 PUSH1 0x60 ADD PUSH1 0x40 MSTORE DUP1 PUSH1 0x24 DUP2 MSTORE PUSH1 0x20 ADD PUSH2 0x11B5 PUSH1 0x24 SWAP2 CODECOPY PUSH2 0xD0A JUMP JUMPDEST PUSH1 0x0 JUMPDEST DUP5 MLOAD DUP2 LT ISZERO PUSH2 0x510 JUMPI PUSH1 0x0 DUP6 DUP3 DUP2 MLOAD DUP2 LT PUSH2 0x3F0 JUMPI PUSH2 0x3F0 PUSH2 0xE42 JUMP JUMPDEST PUSH1 0x20 SWAP1 DUP2 MUL SWAP2 SWAP1 SWAP2 ADD DUP2 ADD MLOAD PUSH1 0x1 PUSH1 0x1 PUSH1 0xE0 SHL SUB NOT DUP2 AND PUSH1 0x0 SWAP1 DUP2 MSTORE SWAP2 DUP6 SWAP1 MSTORE PUSH1 0x40 SWAP1 SWAP2 KECCAK256 SLOAD SWAP1 SWAP2 POP PUSH1 0x60 DUP2 SWAP1 SHR ISZERO PUSH2 0x489 JUMPI PUSH1 0x40 MLOAD PUSH3 0x461BCD PUSH1 0xE5 SHL DUP2 MSTORE PUSH1 0x20 PUSH1 0x4 DUP3 ADD MSTORE PUSH1 0x35 PUSH1 0x24 DUP3 ADD MSTORE PUSH32 0x4C69624469616D6F6E644375743A2043616E2774206164642066756E6374696F PUSH1 0x44 DUP3 ADD MSTORE PUSH21 0x6E207468617420616C726561647920657869737473 PUSH1 0x58 SHL PUSH1 0x64 DUP3 ADD MSTORE PUSH1 0x84 ADD PUSH2 0x2FE JUMP JUMPDEST PUSH1 0x1 PUSH1 0x1 PUSH1 0xE0 SHL SUB NOT DUP1 DUP4 AND PUSH1 0x0 DUP2 DUP2 MSTORE PUSH1 0x20 DUP8 SWAP1 MSTORE PUSH1 0x40 SWAP1 KECCAK256 PUSH1 0x1 PUSH1 0x1 PUSH1 0x60 SHL SUB NOT PUSH1 0x60 DUP14 SWAP1 SHL AND DUP15 OR SWAP1 SSTORE PUSH1 0xE0 PUSH1 0x5 DUP15 SWAP1 SHL DUP2 AND SWAP3 DUP4 SHR NOT SWAP13 SWAP1 SWAP13 AND SWAP1 DUP3 SHR OR SWAP11 DUP2 SWAP1 SUB PUSH2 0x4ED JUMPI PUSH1 0x3 DUP13 SWAP1 SHR PUSH1 0x0 SWAP1 DUP2 MSTORE PUSH1 0x1 DUP7 ADD PUSH1 0x20 MSTORE PUSH1 0x40 DUP2 KECCAK256 SWAP12 SWAP1 SWAP12 SSTORE JUMPDEST DUP12 PUSH2 0x4F7 DUP2 PUSH2 0xF24 JUMP JUMPDEST SWAP13 POP POP POP POP POP DUP1 DUP1 PUSH2 0x508 SWAP1 PUSH2 0xF24 JUMP JUMPDEST SWAP2 POP POP PUSH2 0x3D3 JUMP JUMPDEST POP PUSH2 0xAEB JUMP JUMPDEST PUSH1 0x1 DUP6 PUSH1 0x2 DUP2 GT ISZERO PUSH2 0x52A JUMPI PUSH2 0x52A PUSH2 0xF3D JUMP JUMPDEST SUB PUSH2 0x759 JUMPI PUSH2 0x551 DUP7 PUSH1 0x40 MLOAD DUP1 PUSH1 0x60 ADD PUSH1 0x40 MSTORE DUP1 PUSH1 0x28 DUP2 MSTORE PUSH1 0x20 ADD PUSH2 0x1201 PUSH1 0x28 SWAP2 CODECOPY PUSH2 0xD0A JUMP JUMPDEST PUSH1 0x0 JUMPDEST DUP5 MLOAD DUP2 LT ISZERO PUSH2 0x510 JUMPI PUSH1 0x0 DUP6 DUP3 DUP2 MLOAD DUP2 LT PUSH2 0x571 JUMPI PUSH2 0x571 PUSH2 0xE42 JUMP JUMPDEST PUSH1 0x20 SWAP1 DUP2 MUL SWAP2 SWAP1 SWAP2 ADD DUP2 ADD MLOAD PUSH1 0x1 PUSH1 0x1 PUSH1 0xE0 SHL SUB NOT DUP2 AND PUSH1 0x0 SWAP1 DUP2 MSTORE SWAP2 DUP6 SWAP1 MSTORE PUSH1 0x40 SWAP1 SWAP2 KECCAK256 SLOAD SWAP1 SWAP2 POP PUSH1 0x60 DUP2 SWAP1 SHR ADDRESS DUP2 SUB PUSH2 0x606 JUMPI PUSH1 0x40 MLOAD PUSH3 0x461BCD PUSH1 0xE5 SHL DUP2 MSTORE PUSH1 0x20 PUSH1 0x4 DUP3 ADD MSTORE PUSH1 0x2F PUSH1 0x24 DUP3 ADD MSTORE PUSH32 0x4C69624469616D6F6E644375743A2043616E2774207265706C61636520696D6D PUSH1 0x44 DUP3 ADD MSTORE PUSH15 0x3ABA30B1363290333AB731BA34B7B7 PUSH1 0x89 SHL PUSH1 0x64 DUP3 ADD MSTORE PUSH1 0x84 ADD PUSH2 0x2FE JUMP JUMPDEST DUP10 PUSH1 0x1 PUSH1 0x1 PUSH1 0xA0 SHL SUB AND DUP2 PUSH1 0x1 PUSH1 0x1 PUSH1 0xA0 SHL SUB AND SUB PUSH2 0x68D JUMPI PUSH1 0x40 MLOAD PUSH3 0x461BCD PUSH1 0xE5 SHL DUP2 MSTORE PUSH1 0x20 PUSH1 0x4 DUP3 ADD MSTORE PUSH1 0x38 PUSH1 0x24 DUP3 ADD MSTORE PUSH32 0x4C69624469616D6F6E644375743A2043616E2774207265706C6163652066756E PUSH1 0x44 DUP3 ADD MSTORE PUSH32 0x6374696F6E20776974682073616D652066756E6374696F6E0000000000000000 PUSH1 0x64 DUP3 ADD MSTORE PUSH1 0x84 ADD PUSH2 0x2FE JUMP JUMPDEST PUSH1 0x1 PUSH1 0x1 PUSH1 0xA0 SHL SUB DUP2 AND PUSH2 0x709 JUMPI PUSH1 0x40 MLOAD PUSH3 0x461BCD PUSH1 0xE5 SHL DUP2 MSTORE PUSH1 0x20 PUSH1 0x4 DUP3 ADD MSTORE PUSH1 0x38 PUSH1 0x24 DUP3 ADD MSTORE PUSH32 0x4C69624469616D6F6E644375743A2043616E2774207265706C6163652066756E PUSH1 0x44 DUP3 ADD MSTORE PUSH32 0x6374696F6E207468617420646F65736E27742065786973740000000000000000 PUSH1 0x64 DUP3 ADD MSTORE PUSH1 0x84 ADD PUSH2 0x2FE JUMP JUMPDEST POP PUSH1 0x1 PUSH1 0x1 PUSH1 0xE0 SHL SUB NOT SWAP1 SWAP2 AND PUSH1 0x0 SWAP1 DUP2 MSTORE PUSH1 0x20 DUP5 SWAP1 MSTORE PUSH1 0x40 SWAP1 KECCAK256 PUSH12 0xFFFFFFFFFFFFFFFFFFFFFFFF SWAP2 SWAP1 SWAP2 AND PUSH1 0x1 PUSH1 0x1 PUSH1 0x60 SHL SUB NOT PUSH1 0x60 DUP11 SWAP1 SHL AND OR SWAP1 SSTORE DUP1 PUSH2 0x751 DUP2 PUSH2 0xF24 JUMP JUMPDEST SWAP2 POP POP PUSH2 0x554 JUMP JUMPDEST PUSH1 0x2 DUP6 PUSH1 0x2 DUP2 GT ISZERO PUSH2 0x76D JUMPI PUSH2 0x76D PUSH2 0xF3D JUMP JUMPDEST SUB PUSH2 0xA93 JUMPI PUSH1 0x1 PUSH1 0x1 PUSH1 0xA0 SHL SUB DUP7 AND ISZERO PUSH2 0x7E8 JUMPI PUSH1 0x40 MLOAD PUSH3 0x461BCD PUSH1 0xE5 SHL DUP2 MSTORE PUSH1 0x20 PUSH1 0x4 DUP3 ADD MSTORE PUSH1 0x36 PUSH1 0x24 DUP3 ADD MSTORE PUSH32 0x4C69624469616D6F6E644375743A2052656D6F76652066616365742061646472 PUSH1 0x44 DUP3 ADD MSTORE PUSH22 0x657373206D7573742062652061646472657373283029 PUSH1 0x50 SHL PUSH1 0x64 DUP3 ADD MSTORE PUSH1 0x84 ADD PUSH2 0x2FE JUMP JUMPDEST PUSH1 0x3 DUP9 SWAP1 SHR PUSH1 0x7 DUP10 AND PUSH1 0x0 JUMPDEST DUP7 MLOAD DUP2 LT ISZERO PUSH2 0xA73 JUMPI PUSH1 0x0 DUP11 SWAP1 SUB PUSH2 0x830 JUMPI DUP3 PUSH2 0x810 DUP2 PUSH2 0x10F5 JUMP JUMPDEST PUSH1 0x0 DUP2 DUP2 MSTORE PUSH1 0x1 DUP8 ADD PUSH1 0x20 MSTORE PUSH1 0x40 SWAP1 KECCAK256 SLOAD SWAP12 POP SWAP4 POP PUSH1 0x7 SWAP3 POP PUSH2 0x83E SWAP1 POP JUMP JUMPDEST DUP2 PUSH2 0x83A DUP2 PUSH2 0x10F5 JUMP JUMPDEST SWAP3 POP POP JUMPDEST PUSH1 0x0 DUP1 PUSH1 0x0 DUP1 DUP11 DUP6 DUP2 MLOAD DUP2 LT PUSH2 0x856 JUMPI PUSH2 0x856 PUSH2 0xE42 JUMP JUMPDEST PUSH1 0x20 SWAP1 DUP2 MUL SWAP2 SWAP1 SWAP2 ADD DUP2 ADD MLOAD PUSH1 0x1 PUSH1 0x1 PUSH1 0xE0 SHL SUB NOT DUP2 AND PUSH1 0x0 SWAP1 DUP2 MSTORE SWAP2 DUP11 SWAP1 MSTORE PUSH1 0x40 SWAP1 SWAP2 KECCAK256 SLOAD SWAP1 SWAP2 POP PUSH1 0x60 DUP2 SWAP1 SHR PUSH2 0x8F6 JUMPI PUSH1 0x40 MLOAD PUSH3 0x461BCD PUSH1 0xE5 SHL DUP2 MSTORE PUSH1 0x20 PUSH1 0x4 DUP3 ADD MSTORE PUSH1 0x37 PUSH1 0x24 DUP3 ADD MSTORE PUSH32 0x4C69624469616D6F6E644375743A2043616E27742072656D6F76652066756E63 PUSH1 0x44 DUP3 ADD MSTORE PUSH32 0x74696F6E207468617420646F65736E2774206578697374000000000000000000 PUSH1 0x64 DUP3 ADD MSTORE PUSH1 0x84 ADD PUSH2 0x2FE JUMP JUMPDEST ADDRESS PUSH1 0x60 DUP3 SWAP1 SHR SUB PUSH2 0x960 JUMPI PUSH1 0x40 MLOAD PUSH3 0x461BCD PUSH1 0xE5 SHL DUP2 MSTORE PUSH1 0x20 PUSH1 0x4 DUP3 ADD MSTORE PUSH1 0x2E PUSH1 0x24 DUP3 ADD MSTORE PUSH32 0x4C69624469616D6F6E644375743A2043616E27742072656D6F766520696D6D75 PUSH1 0x44 DUP3 ADD MSTORE PUSH14 0x3A30B1363290333AB731BA34B7B7 PUSH1 0x91 SHL PUSH1 0x64 DUP3 ADD MSTORE PUSH1 0x84 ADD PUSH2 0x2FE JUMP JUMPDEST PUSH1 0x5 DUP8 SWAP1 SHL DUP16 SWAP1 SHL SWAP5 POP PUSH1 0x1 PUSH1 0x1 PUSH1 0xE0 SHL SUB NOT DUP1 DUP7 AND SWAP1 DUP4 AND EQ PUSH2 0x9B6 JUMPI PUSH1 0x1 PUSH1 0x1 PUSH1 0xE0 SHL SUB NOT DUP6 AND PUSH1 0x0 SWAP1 DUP2 MSTORE PUSH1 0x20 DUP11 SWAP1 MSTORE PUSH1 0x40 SWAP1 KECCAK256 DUP1 SLOAD PUSH1 0x1 PUSH1 0x1 PUSH1 0x60 SHL SUB NOT AND PUSH12 0xFFFFFFFFFFFFFFFFFFFFFFFF DUP4 AND OR SWAP1 SSTORE JUMPDEST PUSH1 0x1 PUSH1 0x1 PUSH1 0xE0 SHL SUB NOT SWAP2 SWAP1 SWAP2 AND PUSH1 0x0 SWAP1 DUP2 MSTORE PUSH1 0x20 DUP10 SWAP1 MSTORE PUSH1 0x40 DUP2 KECCAK256 SSTORE PUSH1 0x3 DUP2 SWAP1 SHR PUSH2 0x1FFF AND SWAP3 POP PUSH1 0x5 SHL PUSH1 0xE0 AND SWAP1 POP DUP6 DUP3 EQ PUSH2 0xA1B JUMPI PUSH1 0x0 DUP3 DUP2 MSTORE PUSH1 0x1 DUP9 ADD PUSH1 0x20 MSTORE PUSH1 0x40 SWAP1 KECCAK256 DUP1 SLOAD PUSH1 0x1 PUSH1 0x1 PUSH1 0xE0 SHL SUB NOT DUP1 DUP5 SHR NOT SWAP1 SWAP2 AND SWAP1 DUP6 AND DUP4 SHR OR SWAP1 SSTORE PUSH2 0xA3F JUMP JUMPDEST DUP1 DUP4 PUSH1 0x1 PUSH1 0x1 PUSH1 0xE0 SHL SUB NOT AND SWAP1 SHR DUP2 PUSH1 0x1 PUSH1 0x1 PUSH1 0xE0 SHL SUB NOT PUSH1 0x0 SHL SWAP1 SHR NOT DUP15 AND OR SWAP13 POP JUMPDEST DUP5 PUSH1 0x0 SUB PUSH2 0xA5D JUMPI PUSH1 0x0 DUP7 DUP2 MSTORE PUSH1 0x1 DUP9 ADD PUSH1 0x20 MSTORE PUSH1 0x40 DUP2 KECCAK256 DUP2 SWAP1 SSTORE SWAP13 POP JUMPDEST POP POP POP DUP1 DUP1 PUSH2 0xA6B SWAP1 PUSH2 0xF24 JUMP JUMPDEST SWAP2 POP POP PUSH2 0x7F4 JUMP JUMPDEST POP DUP1 PUSH2 0xA80 DUP4 PUSH1 0x8 PUSH2 0x110C JUMP JUMPDEST PUSH2 0xA8A SWAP2 SWAP1 PUSH2 0x112B JUMP JUMPDEST SWAP10 POP POP POP PUSH2 0xAEB JUMP JUMPDEST PUSH1 0x40 MLOAD PUSH3 0x461BCD PUSH1 0xE5 SHL DUP2 MSTORE PUSH1 0x20 PUSH1 0x4 DUP3 ADD MSTORE PUSH1 0x27 PUSH1 0x24 DUP3 ADD MSTORE PUSH32 0x4C69624469616D6F6E644375743A20496E636F72726563742046616365744375 PUSH1 0x44 DUP3 ADD MSTORE PUSH7 0x3A20B1BA34B7B7 PUSH1 0xC9 SHL PUSH1 0x64 DUP3 ADD MSTORE PUSH1 0x84 ADD PUSH2 0x2FE JUMP JUMPDEST POP SWAP6 SWAP7 SWAP5 SWAP6 POP POP POP POP POP JUMP JUMPDEST PUSH1 0x1 PUSH1 0x1 PUSH1 0xA0 SHL SUB DUP3 AND PUSH2 0xB7E JUMPI DUP1 MLOAD ISZERO PUSH2 0xB7A JUMPI PUSH1 0x40 MLOAD PUSH3 0x461BCD PUSH1 0xE5 SHL DUP2 MSTORE PUSH1 0x20 PUSH1 0x4 DUP3 ADD MSTORE PUSH1 0x3C PUSH1 0x24 DUP3 ADD MSTORE PUSH32 0x4C69624469616D6F6E644375743A205F696E6974206973206164647265737328 PUSH1 0x44 DUP3 ADD MSTORE PUSH32 0x3029206275745F63616C6C64617461206973206E6F7420656D70747900000000 PUSH1 0x64 DUP3 ADD MSTORE PUSH1 0x84 ADD PUSH2 0x2FE JUMP JUMPDEST POP POP JUMP JUMPDEST PUSH1 0x0 DUP2 MLOAD GT PUSH2 0xBF5 JUMPI PUSH1 0x40 MLOAD PUSH3 0x461BCD PUSH1 0xE5 SHL DUP2 MSTORE PUSH1 0x20 PUSH1 0x4 DUP3 ADD MSTORE PUSH1 0x3D PUSH1 0x24 DUP3 ADD MSTORE PUSH32 0x4C69624469616D6F6E644375743A205F63616C6C6461746120697320656D7074 PUSH1 0x44 DUP3 ADD MSTORE PUSH32 0x7920627574205F696E6974206973206E6F742061646472657373283029000000 PUSH1 0x64 DUP3 ADD MSTORE PUSH1 0x84 ADD PUSH2 0x2FE JUMP JUMPDEST PUSH1 0x1 PUSH1 0x1 PUSH1 0xA0 SHL SUB DUP3 AND ADDRESS EQ PUSH2 0xC27 JUMPI PUSH2 0xC27 DUP3 PUSH1 0x40 MLOAD DUP1 PUSH1 0x60 ADD PUSH1 0x40 MSTORE DUP1 PUSH1 0x28 DUP2 MSTORE PUSH1 0x20 ADD PUSH2 0x11D9 PUSH1 0x28 SWAP2 CODECOPY PUSH2 0xD0A JUMP JUMPDEST PUSH1 0x0 DUP1 DUP4 PUSH1 0x1 PUSH1 0x1 PUSH1 0xA0 SHL SUB AND DUP4 PUSH1 0x40 MLOAD PUSH2 0xC42 SWAP2 SWAP1 PUSH2 0x116F JUMP JUMPDEST PUSH1 0x0 PUSH1 0x40 MLOAD DUP1 DUP4 SUB DUP2 DUP6 GAS DELEGATECALL SWAP2 POP POP RETURNDATASIZE DUP1 PUSH1 0x0 DUP2 EQ PUSH2 0xC7D JUMPI PUSH1 0x40 MLOAD SWAP2 POP PUSH1 0x1F NOT PUSH1 0x3F RETURNDATASIZE ADD AND DUP3 ADD PUSH1 0x40 MSTORE RETURNDATASIZE DUP3 MSTORE RETURNDATASIZE PUSH1 0x0 PUSH1 0x20 DUP5 ADD RETURNDATACOPY PUSH2 0xC82 JUMP JUMPDEST PUSH1 0x60 SWAP2 POP JUMPDEST POP SWAP2 POP SWAP2 POP DUP2 PUSH2 0xD04 JUMPI DUP1 MLOAD ISZERO PUSH2 0xCAD JUMPI DUP1 PUSH1 0x40 MLOAD PUSH3 0x461BCD PUSH1 0xE5 SHL DUP2 MSTORE PUSH1 0x4 ADD PUSH2 0x2FE SWAP2 SWAP1 PUSH2 0x1181 JUMP JUMPDEST PUSH1 0x40 MLOAD PUSH3 0x461BCD PUSH1 0xE5 SHL DUP2 MSTORE PUSH1 0x20 PUSH1 0x4 DUP3 ADD MSTORE PUSH1 0x26 PUSH1 0x24 DUP3 ADD MSTORE PUSH32 0x4C69624469616D6F6E644375743A205F696E69742066756E6374696F6E207265 PUSH1 0x44 DUP3 ADD MSTORE PUSH6 0x1D995C9D1959 PUSH1 0xD2 SHL PUSH1 0x64 DUP3 ADD MSTORE PUSH1 0x84 ADD PUSH2 0x2FE JUMP JUMPDEST POP POP POP POP JUMP JUMPDEST DUP2 EXTCODESIZE DUP2 DUP2 PUSH2 0xD04 JUMPI PUSH1 0x40 MLOAD PUSH3 0x461BCD PUSH1 0xE5 SHL DUP2 MSTORE PUSH1 0x4 ADD PUSH2 0x2FE SWAP2 SWAP1 PUSH2 0x1181 JUMP JUMPDEST DUP1 CALLDATALOAD PUSH1 0x1 PUSH1 0x1 PUSH1 0xA0 SHL SUB DUP2 AND DUP2 EQ PUSH2 0xD42 JUMPI PUSH1 0x0 DUP1 REVERT JUMPDEST SWAP2 SWAP1 POP JUMP JUMPDEST PUSH1 0x0 DUP1 DUP4 PUSH1 0x1F DUP5 ADD SLT PUSH2 0xD59 JUMPI PUSH1 0x0 DUP1 REVERT JUMPDEST POP DUP2 CALLDATALOAD PUSH8 0xFFFFFFFFFFFFFFFF DUP2 GT ISZERO PUSH2 0xD71 JUMPI PUSH1 0x0 DUP1 REVERT JUMPDEST PUSH1 0x20 DUP4 ADD SWAP2 POP DUP4 PUSH1 0x20 DUP3 DUP6 ADD ADD GT ISZERO PUSH2 0xD89 JUMPI PUSH1 0x0 DUP1 REVERT JUMPDEST SWAP3 POP SWAP3 SWAP1 POP JUMP JUMPDEST PUSH1 0x0 DUP1 PUSH1 0x0 DUP1 PUSH1 0x0 PUSH1 0x60 DUP7 DUP9 SUB SLT ISZERO PUSH2 0xDA8 JUMPI PUSH1 0x0 DUP1 REVERT JUMPDEST DUP6 CALLDATALOAD PUSH8 0xFFFFFFFFFFFFFFFF DUP1 DUP3 GT ISZERO PUSH2 0xDC0 JUMPI PUSH1 0x0 DUP1 REVERT JUMPDEST DUP2 DUP9 ADD SWAP2 POP DUP9 PUSH1 0x1F DUP4 ADD SLT PUSH2 0xDD4 JUMPI PUSH1 0x0 DUP1 REVERT JUMPDEST DUP2 CALLDATALOAD DUP2 DUP2 GT ISZERO PUSH2 0xDE3 JUMPI PUSH1 0x0 DUP1 REVERT JUMPDEST DUP10 PUSH1 0x20 DUP3 PUSH1 0x5 SHL DUP6 ADD ADD GT ISZERO PUSH2 0xDF8 JUMPI PUSH1 0x0 DUP1 REVERT JUMPDEST PUSH1 0x20 DUP4 ADD SWAP8 POP DUP1 SWAP7 POP POP PUSH2 0xE0E PUSH1 0x20 DUP10 ADD PUSH2 0xD2B JUMP JUMPDEST SWAP5 POP PUSH1 0x40 DUP9 ADD CALLDATALOAD SWAP2 POP DUP1 DUP3 GT ISZERO PUSH2 0xE24 JUMPI PUSH1 0x0 DUP1 REVERT JUMPDEST POP PUSH2 0xE31 DUP9 DUP3 DUP10 ADD PUSH2 0xD47 JUMP JUMPDEST SWAP7 SWAP10 SWAP6 SWAP9 POP SWAP4 SWAP7 POP SWAP3 SWAP5 SWAP4 SWAP3 POP POP POP JUMP JUMPDEST PUSH4 0x4E487B71 PUSH1 0xE0 SHL PUSH1 0x0 MSTORE PUSH1 0x32 PUSH1 0x4 MSTORE PUSH1 0x24 PUSH1 0x0 REVERT JUMPDEST PUSH1 0x0 DUP3 CALLDATALOAD PUSH1 0x5E NOT DUP4 CALLDATASIZE SUB ADD DUP2 SLT PUSH2 0xE6E JUMPI PUSH1 0x0 DUP1 REVERT JUMPDEST SWAP2 SWAP1 SWAP2 ADD SWAP3 SWAP2 POP POP JUMP JUMPDEST PUSH1 0x0 PUSH1 0x20 DUP3 DUP5 SUB SLT ISZERO PUSH2 0xE8A JUMPI PUSH1 0x0 DUP1 REVERT JUMPDEST PUSH2 0xE93 DUP3 PUSH2 0xD2B JUMP JUMPDEST SWAP4 SWAP3 POP POP POP JUMP JUMPDEST DUP1 CALLDATALOAD PUSH1 0x3 DUP2 LT PUSH2 0xD42 JUMPI PUSH1 0x0 DUP1 REVERT JUMPDEST PUSH1 0x0 PUSH1 0x20 DUP3 DUP5 SUB SLT ISZERO PUSH2 0xEBB JUMPI PUSH1 0x0 DUP1 REVERT JUMPDEST PUSH2 0xE93 DUP3 PUSH2 0xE9A JUMP JUMPDEST PUSH1 0x0 DUP1 DUP4 CALLDATALOAD PUSH1 0x1E NOT DUP5 CALLDATASIZE SUB ADD DUP2 SLT PUSH2 0xEDB JUMPI PUSH1 0x0 DUP1 REVERT JUMPDEST DUP4 ADD DUP1 CALLDATALOAD SWAP2 POP PUSH8 0xFFFFFFFFFFFFFFFF DUP3 GT ISZERO PUSH2 0xEF6 JUMPI PUSH1 0x0 DUP1 REVERT JUMPDEST PUSH1 0x20 ADD SWAP2 POP PUSH1 0x5 DUP2 SWAP1 SHL CALLDATASIZE SUB DUP3 SGT ISZERO PUSH2 0xD89 JUMPI PUSH1 0x0 DUP1 REVERT JUMPDEST PUSH4 0x4E487B71 PUSH1 0xE0 SHL PUSH1 0x0 MSTORE PUSH1 0x11 PUSH1 0x4 MSTORE PUSH1 0x24 PUSH1 0x0 REVERT JUMPDEST PUSH1 0x0 PUSH1 0x1 DUP3 ADD PUSH2 0xF36 JUMPI PUSH2 0xF36 PUSH2 0xF0E JUMP JUMPDEST POP PUSH1 0x1 ADD SWAP1 JUMP JUMPDEST PUSH4 0x4E487B71 PUSH1 0xE0 SHL PUSH1 0x0 MSTORE PUSH1 0x21 PUSH1 0x4 MSTORE PUSH1 0x24 PUSH1 0x0 REVERT JUMPDEST DUP2 DUP4 MSTORE PUSH1 0x0 PUSH1 0x20 DUP1 DUP6 ADD SWAP5 POP DUP3 PUSH1 0x0 DUP1 JUMPDEST DUP7 DUP2 LT ISZERO PUSH2 0xF97 JUMPI DUP3 CALLDATALOAD PUSH1 0x1 PUSH1 0x1 PUSH1 0xE0 SHL SUB NOT DUP2 AND DUP1 DUP3 EQ PUSH2 0xF84 JUMPI DUP4 DUP5 REVERT JUMPDEST DUP10 MSTORE POP SWAP7 DUP4 ADD SWAP7 SWAP2 DUP4 ADD SWAP2 PUSH1 0x1 ADD PUSH2 0xF64 JUMP JUMPDEST POP SWAP6 SWAP7 SWAP6 POP POP POP POP POP POP JUMP JUMPDEST DUP2 DUP4 MSTORE DUP2 DUP2 PUSH1 0x20 DUP6 ADD CALLDATACOPY POP PUSH1 0x0 DUP3 DUP3 ADD PUSH1 0x20 SWAP1 DUP2 ADD SWAP2 SWAP1 SWAP2 MSTORE PUSH1 0x1F SWAP1 SWAP2 ADD PUSH1 0x1F NOT AND SWAP1 SWAP2 ADD ADD SWAP1 JUMP JUMPDEST PUSH1 0x60 DUP1 DUP3 MSTORE DUP2 DUP2 ADD DUP7 SWAP1 MSTORE PUSH1 0x0 SWAP1 PUSH1 0x5 PUSH1 0x80 DUP1 DUP6 ADD SWAP1 DUP10 DUP4 SHL DUP7 ADD ADD DUP11 DUP6 JUMPDEST DUP12 DUP2 LT ISZERO PUSH2 0x10C2 JUMPI DUP8 DUP4 SUB PUSH1 0x7F NOT ADD DUP5 MSTORE DUP2 CALLDATALOAD CALLDATASIZE DUP15 SWAP1 SUB PUSH1 0x5E NOT ADD DUP2 SLT PUSH2 0x1011 JUMPI PUSH1 0x0 DUP1 REVERT JUMPDEST DUP14 ADD PUSH1 0x1 PUSH1 0x1 PUSH1 0xA0 SHL SUB PUSH2 0x1024 DUP3 PUSH2 0xD2B JUMP JUMPDEST AND DUP5 MSTORE PUSH1 0x20 PUSH2 0x1034 DUP2 DUP4 ADD PUSH2 0xE9A JUMP JUMPDEST PUSH1 0x3 DUP2 LT PUSH2 0x1052 JUMPI PUSH4 0x4E487B71 PUSH1 0xE0 SHL PUSH1 0x0 MSTORE PUSH1 0x21 PUSH1 0x4 MSTORE PUSH1 0x24 PUSH1 0x0 REVERT JUMPDEST DUP6 DUP3 ADD MSTORE PUSH1 0x40 DUP3 DUP2 ADD CALLDATALOAD CALLDATASIZE DUP5 SWAP1 SUB PUSH1 0x1E NOT ADD DUP2 SLT PUSH2 0x106F JUMPI PUSH1 0x0 DUP1 REVERT JUMPDEST DUP4 ADD DUP1 CALLDATALOAD PUSH8 0xFFFFFFFFFFFFFFFF DUP2 GT ISZERO PUSH2 0x1088 JUMPI PUSH1 0x0 DUP1 REVERT JUMPDEST DUP1 DUP11 SHL CALLDATASIZE SUB DUP6 SGT ISZERO PUSH2 0x1099 JUMPI PUSH1 0x0 DUP1 REVERT JUMPDEST DUP11 DUP4 DUP10 ADD MSTORE PUSH2 0x10AD DUP12 DUP10 ADD DUP3 DUP7 DUP6 ADD PUSH2 0xF53 JUMP JUMPDEST SWAP9 DUP5 ADD SWAP9 SWAP8 POP POP POP SWAP4 ADD SWAP3 POP POP PUSH1 0x1 ADD PUSH2 0xFEB JUMP JUMPDEST POP POP PUSH1 0x1 PUSH1 0x1 PUSH1 0xA0 SHL SUB DUP10 AND PUSH1 0x20 DUP8 ADD MSTORE DUP6 DUP2 SUB PUSH1 0x40 DUP8 ADD MSTORE PUSH2 0x10E6 DUP2 DUP9 DUP11 PUSH2 0xFA3 JUMP JUMPDEST SWAP12 SWAP11 POP POP POP POP POP POP POP POP POP POP POP JUMP JUMPDEST PUSH1 0x0 DUP2 PUSH2 0x1104 JUMPI PUSH2 0x1104 PUSH2 0xF0E JUMP JUMPDEST POP PUSH1 0x0 NOT ADD SWAP1 JUMP JUMPDEST PUSH1 0x0 DUP2 PUSH1 0x0 NOT DIV DUP4 GT DUP3 ISZERO ISZERO AND ISZERO PUSH2 0x1126 JUMPI PUSH2 0x1126 PUSH2 0xF0E JUMP JUMPDEST POP MUL SWAP1 JUMP JUMPDEST PUSH1 0x0 DUP3 NOT DUP3 GT ISZERO PUSH2 0x113E JUMPI PUSH2 0x113E PUSH2 0xF0E JUMP JUMPDEST POP ADD SWAP1 JUMP JUMPDEST PUSH1 0x0 JUMPDEST DUP4 DUP2 LT ISZERO PUSH2 0x115E JUMPI DUP2 DUP2 ADD MLOAD DUP4 DUP3 ADD MSTORE PUSH1 0x20 ADD PUSH2 0x1146 JUMP JUMPDEST DUP4 DUP2 GT ISZERO PUSH2 0xD04 JUMPI POP POP PUSH1 0x0 SWAP2 ADD MSTORE JUMP JUMPDEST PUSH1 0x0 DUP3 MLOAD PUSH2 0xE6E DUP2 DUP5 PUSH1 0x20 DUP8 ADD PUSH2 0x1143 JUMP JUMPDEST PUSH1 0x20 DUP2 MSTORE PUSH1 0x0 DUP3 MLOAD DUP1 PUSH1 0x20 DUP5 ADD MSTORE PUSH2 0x11A0 DUP2 PUSH1 0x40 DUP6 ADD PUSH1 0x20 DUP8 ADD PUSH2 0x1143 JUMP JUMPDEST PUSH1 0x1F ADD PUSH1 0x1F NOT AND SWAP2 SWAP1 SWAP2 ADD PUSH1 0x40 ADD SWAP3 SWAP2 POP POP JUMP INVALID 0x4C PUSH10 0x624469616D6F6E644375 PUSH21 0x3A2041646420666163657420686173206E6F20636F PUSH5 0x654C696244 PUSH10 0x616D6F6E644375743A20 0x5F PUSH10 0x6E697420616464726573 PUSH20 0x20686173206E6F20636F64654C69624469616D6F PUSH15 0x644375743A205265706C6163652066 PUSH2 0x6365 PUSH21 0x20686173206E6F20636F6465A26469706673582212 KECCAK256 0x4B DUP12 0x2C 0x4C 0xC9 CALLER GASPRICE RETURN CHAINID 0xD7 EXTCODESIZE 0x2E 0x4A PUSH14 0xCA4F76DD4C5BEA51A13E8742C5F9 0x4A 0xD1 DUP16 SWAP16 PUSH5 0x736F6C6343 STOP ADDMOD 0xD STOP CALLER "
    },
    "gasEstimates": {
      "creation": {
        "codeDepositCost": "940400",
        "executionCost": "975",
        "totalCost": "941375"
      },
      "external": {
        "diamondCut((address,uint8,bytes4[])[],address,bytes)": "infinite"
      }
    },
    "methodIdentifiers": {
      "diamondCut((address,uint8,bytes4[])[],address,bytes)": "1f931c1c"
    }
  },
  "storageLayout": {
    "storage": [],
    "types": null
  },
  "userdoc": {
    "kind": "user",
    "methods": {
      "diamondCut((address,uint8,bytes4[])[],address,bytes)": {
        "notice": "Add/replace/remove any number of functions and optionally execute         a function with delegatecall"
      }
    },
    "version": 1
  }
}