{
  "contractName": "ERC20PortalFacet",
  "sourceName": "contracts/facets/ERC20PortalFacet.sol",
  "abi": [
    {
      "anonymous": false,
      "inputs": [
        {
          "indexed": false,
          "internalType": "address",
          "name": "ERC20",
          "type": "address"
        },
        {
          "indexed": false,
          "internalType": "address",
          "name": "sender",
          "type": "address"
        },
        {
          "indexed": false,
          "internalType": "uint256",
          "name": "amount",
          "type": "uint256"
        },
        {
          "indexed": false,
          "internalType": "bytes",
          "name": "data",
          "type": "bytes"
        }
      ],
      "name": "ERC20Deposited",
      "type": "event"
    },
    {
      "anonymous": false,
      "inputs": [
        {
          "indexed": false,
          "internalType": "address",
          "name": "ERC20",
          "type": "address"
        },
        {
          "indexed": false,
          "internalType": "address payable",
          "name": "receiver",
          "type": "address"
        },
        {
          "indexed": false,
          "internalType": "uint256",
          "name": "amount",
          "type": "uint256"
        }
      ],
      "name": "ERC20Withdrawn",
      "type": "event"
    },
    {
      "inputs": [
        {
          "internalType": "address",
          "name": "_ERC20",
          "type": "address"
        },
        {
          "internalType": "uint256",
          "name": "_amount",
          "type": "uint256"
        },
        {
          "internalType": "bytes",
          "name": "_data",
          "type": "bytes"
        }
      ],
      "name": "erc20Deposit",
      "outputs": [
        {
          "internalType": "bytes32",
          "name": "",
          "type": "bytes32"
        }
      ],
      "stateMutability": "nonpayable",
      "type": "function"
    },
    {
      "inputs": [
        {
          "internalType": "bytes",
          "name": "_data",
          "type": "bytes"
        }
      ],
      "name": "erc20Withdrawal",
      "outputs": [
        {
          "internalType": "bool",
          "name": "",
          "type": "bool"
        }
      ],
      "stateMutability": "nonpayable",
      "type": "function"
    }
  ],
  "bytecode": "0x608060405234801561001057600080fd5b506109fb806100206000396000f3fe608060405234801561001057600080fd5b50600436106100365760003560e01c8063a2b097ae1461003b578063cb1061a614610063575b600080fd5b61004e61004936600461071b565b610084565b60405190151581526020015b60405180910390f35b610076610071366004610775565b6101f1565b60405190815260200161005a565b60003330146100c85760405162461bcd60e51b815260206004820152600b60248201526a37b7363c9034ba39b2b63360a91b60448201526064015b60405180910390fd5b600080806100d8858701876107d1565b60405163a9059cbb60e01b81526001600160a01b038084166004830152602482018390529396509194509250849182169063a9059cbb906044016020604051808303816000875af1158015610131573d6000803e3d6000fd5b505050506040513d601f19601f820116820180604052508101906101559190610812565b6101995760405162461bcd60e51b8152602060048201526015602482015274115490cc8c081d1c985b9cd9995c8819985a5b1959605a1b60448201526064016100bf565b604080516001600160a01b038087168252851660208201529081018390527fbfed55bdcd242e3dd0f60ddd7d1e87c67f61c34cd9527b3e6455d841b10253629060600160405180910390a15060019695505050505050565b6000807f943d5d24442f02461445e15c5d7d4a4ef0acb0d32c5d6f6af37a6882249912ff6040516323b872dd60e01b81523360048201523060248201526044810187905290915086906001600160a01b038216906323b872dd906064016020604051808303816000875af115801561026d573d6000803e3d6000fd5b505050506040513d601f19601f820116820180604052508101906102919190610812565b6102dd5760405162461bcd60e51b815260206004820152601960248201527f4552433230207472616e7366657246726f6d206661696c65640000000000000060448201526064016100bf565b60007f59da2a984e165ae4487c99e5d1dca7e04c8a99301be6bc092932cb5d7f034378338989898960405160200161031a9695949392919061085d565b60405160208183030381529060405290507f29e6a9ed1b00933e0de5679ea9bc6ad323969a70b69b627425b46ac0431c7b018833898989604051610362959493929190610897565b60405180910390a16103748382610380565b98975050505050505050565b600061038d838330610394565b9392505050565b600283015482516000917fd32d7f90491bee81172a406b65f3270d810392fe53bb0379dde8bdd4e624189c91111561040e5760405162461bcd60e51b815260206004820152601860248201527f696e707574206c656e3a205b302c647269766553697a655d000000000000000060448201526064016100bf565b61041781610539565b156104255761042585610611565b6000856003015460001461043c578560010161043e565b855b9050600061044b83610630565b8254604080516001600160a01b03891660208083019190915243828401524260608301526080820185905260a08083018590528351808403909101815260c0830184528051908201208b518c83012060e084018290526101008085018290528551808603909101815261012090940190945282519282019290922060018086018955600089815292909220909401849055865494955090939192916104f091906108ec565b847fa15a0da5519c084484141aaa73e525cee96062f5decc97e070f0c4da27738bc78a428d60405161052493929190610903565b60405180910390a39998505050505050505050565b60018101546000908190600160801b900463ffffffff1660028111156105615761056161096f565b600184015490915063ffffffff6801000000000000000082048116911660008360028111156105925761059261096f565b1480156105a757506105a48183610985565b42115b15610606576001858101805463ffffffff60801b1916600160801b1790556040517fed606d544c2202d032d2626c390923e6f260ca5d89625bba0cfe70d2bdda4e8f916105f39161099d565b60405180910390a1506001949350505050565b506000949350505050565b600381015415610622576000610625565b60015b60ff16600390910155565b7f0635ad75fae4d4e8d896461a635d23700076a1c3fd8da26276f18cb1c09ea5675460018201546000917f0635ad75fae4d4e8d896461a635d23700076a1c3fd8da26276f18cb1c09ea566918390600160801b900463ffffffff16600281111561069c5761069c61096f565b905060008160028111156106b2576106b261096f565b146106c7576106c2826001610985565b6106c9565b815b95945050505050565b60008083601f8401126106e457600080fd5b50813567ffffffffffffffff8111156106fc57600080fd5b60208301915083602082850101111561071457600080fd5b9250929050565b6000806020838503121561072e57600080fd5b823567ffffffffffffffff81111561074557600080fd5b610751858286016106d2565b90969095509350505050565b6001600160a01b038116811461077257600080fd5b50565b6000806000806060858703121561078b57600080fd5b84356107968161075d565b935060208501359250604085013567ffffffffffffffff8111156107b957600080fd5b6107c5878288016106d2565b95989497509550505050565b6000806000606084860312156107e657600080fd5b83356107f18161075d565b925060208401356108018161075d565b929592945050506040919091013590565b60006020828403121561082457600080fd5b8151801515811461038d57600080fd5b81835281816020850137506000828201602090810191909152601f909101601f19169091010190565b8681526001600160a01b038681166020830152851660408201526060810184905260a0608082018190526000906103749083018486610834565b6001600160a01b03868116825285166020820152604081018490526080606082018190526000906108cb9083018486610834565b979650505050505050565b634e487b7160e01b600052601160045260246000fd5b6000828210156108fe576108fe6108d6565b500390565b60018060a01b038416815260006020848184015260606040840152835180606085015260005b8181101561094557858101830151858201608001528201610929565b81811115610957576000608083870101525b50601f01601f19169290920160800195945050505050565b634e487b7160e01b600052602160045260246000fd5b60008219821115610998576109986108d6565b500190565b60208101600383106109bf57634e487b7160e01b600052602160045260246000fd5b9190529056fea26469706673582212203cdc9bf3f2ade7fe232c0529777125f9b9d3cff2d14635a93ef05cf123aedd7864736f6c634300080d0033",
  "linkReferences": {},
  "deployedLinkReferences": {},
  "devdoc": {
    "kind": "dev",
    "methods": {
      "erc20Deposit(address,uint256,bytes)": {
        "params": {
          "_ERC20": "address of the ERC20 token contract",
          "_amount": "amount of the ERC20 token to be deposited",
          "_data": "information to be interpreted by L2"
        },
        "returns": {
          "_0": "hash of input generated by deposit"
        }
      },
      "erc20Withdrawal(bytes)": {
        "details": "can only be called by the Rollups contract",
        "params": {
          "_data": "data with withdrawal information"
        }
      }
    },
    "version": 1
  },
  "evm": {
    "bytecode": {
      "linkReferences": {},
      "opcodes": "PUSH1 0x80 PUSH1 0x40 MSTORE CALLVALUE DUP1 ISZERO PUSH2 0x10 JUMPI PUSH1 0x0 DUP1 REVERT JUMPDEST POP PUSH2 0x9FB DUP1 PUSH2 0x20 PUSH1 0x0 CODECOPY PUSH1 0x0 RETURN INVALID PUSH1 0x80 PUSH1 0x40 MSTORE CALLVALUE DUP1 ISZERO PUSH2 0x10 JUMPI PUSH1 0x0 DUP1 REVERT JUMPDEST POP PUSH1 0x4 CALLDATASIZE LT PUSH2 0x36 JUMPI PUSH1 0x0 CALLDATALOAD PUSH1 0xE0 SHR DUP1 PUSH4 0xA2B097AE EQ PUSH2 0x3B JUMPI DUP1 PUSH4 0xCB1061A6 EQ PUSH2 0x63 JUMPI JUMPDEST PUSH1 0x0 DUP1 REVERT JUMPDEST PUSH2 0x4E PUSH2 0x49 CALLDATASIZE PUSH1 0x4 PUSH2 0x71B JUMP JUMPDEST PUSH2 0x84 JUMP JUMPDEST PUSH1 0x40 MLOAD SWAP1 ISZERO ISZERO DUP2 MSTORE PUSH1 0x20 ADD JUMPDEST PUSH1 0x40 MLOAD DUP1 SWAP2 SUB SWAP1 RETURN JUMPDEST PUSH2 0x76 PUSH2 0x71 CALLDATASIZE PUSH1 0x4 PUSH2 0x775 JUMP JUMPDEST PUSH2 0x1F1 JUMP JUMPDEST PUSH1 0x40 MLOAD SWAP1 DUP2 MSTORE PUSH1 0x20 ADD PUSH2 0x5A JUMP JUMPDEST PUSH1 0x0 CALLER ADDRESS EQ PUSH2 0xC8 JUMPI PUSH1 0x40 MLOAD PUSH3 0x461BCD PUSH1 0xE5 SHL DUP2 MSTORE PUSH1 0x20 PUSH1 0x4 DUP3 ADD MSTORE PUSH1 0xB PUSH1 0x24 DUP3 ADD MSTORE PUSH11 0x37B7363C9034BA39B2B633 PUSH1 0xA9 SHL PUSH1 0x44 DUP3 ADD MSTORE PUSH1 0x64 ADD JUMPDEST PUSH1 0x40 MLOAD DUP1 SWAP2 SUB SWAP1 REVERT JUMPDEST PUSH1 0x0 DUP1 DUP1 PUSH2 0xD8 DUP6 DUP8 ADD DUP8 PUSH2 0x7D1 JUMP JUMPDEST PUSH1 0x40 MLOAD PUSH4 0xA9059CBB PUSH1 0xE0 SHL DUP2 MSTORE PUSH1 0x1 PUSH1 0x1 PUSH1 0xA0 SHL SUB DUP1 DUP5 AND PUSH1 0x4 DUP4 ADD MSTORE PUSH1 0x24 DUP3 ADD DUP4 SWAP1 MSTORE SWAP4 SWAP7 POP SWAP2 SWAP5 POP SWAP3 POP DUP5 SWAP2 DUP3 AND SWAP1 PUSH4 0xA9059CBB SWAP1 PUSH1 0x44 ADD PUSH1 0x20 PUSH1 0x40 MLOAD DUP1 DUP4 SUB DUP2 PUSH1 0x0 DUP8 GAS CALL ISZERO DUP1 ISZERO PUSH2 0x131 JUMPI RETURNDATASIZE PUSH1 0x0 DUP1 RETURNDATACOPY RETURNDATASIZE PUSH1 0x0 REVERT JUMPDEST POP POP POP POP PUSH1 0x40 MLOAD RETURNDATASIZE PUSH1 0x1F NOT PUSH1 0x1F DUP3 ADD AND DUP3 ADD DUP1 PUSH1 0x40 MSTORE POP DUP2 ADD SWAP1 PUSH2 0x155 SWAP2 SWAP1 PUSH2 0x812 JUMP JUMPDEST PUSH2 0x199 JUMPI PUSH1 0x40 MLOAD PUSH3 0x461BCD PUSH1 0xE5 SHL DUP2 MSTORE PUSH1 0x20 PUSH1 0x4 DUP3 ADD MSTORE PUSH1 0x15 PUSH1 0x24 DUP3 ADD MSTORE PUSH21 0x115490CC8C081D1C985B9CD9995C8819985A5B1959 PUSH1 0x5A SHL PUSH1 0x44 DUP3 ADD MSTORE PUSH1 0x64 ADD PUSH2 0xBF JUMP JUMPDEST PUSH1 0x40 DUP1 MLOAD PUSH1 0x1 PUSH1 0x1 PUSH1 0xA0 SHL SUB DUP1 DUP8 AND DUP3 MSTORE DUP6 AND PUSH1 0x20 DUP3 ADD MSTORE SWAP1 DUP2 ADD DUP4 SWAP1 MSTORE PUSH32 0xBFED55BDCD242E3DD0F60DDD7D1E87C67F61C34CD9527B3E6455D841B1025362 SWAP1 PUSH1 0x60 ADD PUSH1 0x40 MLOAD DUP1 SWAP2 SUB SWAP1 LOG1 POP PUSH1 0x1 SWAP7 SWAP6 POP POP POP POP POP POP JUMP JUMPDEST PUSH1 0x0 DUP1 PUSH32 0x943D5D24442F02461445E15C5D7D4A4EF0ACB0D32C5D6F6AF37A6882249912FF PUSH1 0x40 MLOAD PUSH4 0x23B872DD PUSH1 0xE0 SHL DUP2 MSTORE CALLER PUSH1 0x4 DUP3 ADD MSTORE ADDRESS PUSH1 0x24 DUP3 ADD MSTORE PUSH1 0x44 DUP2 ADD DUP8 SWAP1 MSTORE SWAP1 SWAP2 POP DUP7 SWAP1 PUSH1 0x1 PUSH1 0x1 PUSH1 0xA0 SHL SUB DUP3 AND SWAP1 PUSH4 0x23B872DD SWAP1 PUSH1 0x64 ADD PUSH1 0x20 PUSH1 0x40 MLOAD DUP1 DUP4 SUB DUP2 PUSH1 0x0 DUP8 GAS CALL ISZERO DUP1 ISZERO PUSH2 0x26D JUMPI RETURNDATASIZE PUSH1 0x0 DUP1 RETURNDATACOPY RETURNDATASIZE PUSH1 0x0 REVERT JUMPDEST POP POP POP POP PUSH1 0x40 MLOAD RETURNDATASIZE PUSH1 0x1F NOT PUSH1 0x1F DUP3 ADD AND DUP3 ADD DUP1 PUSH1 0x40 MSTORE POP DUP2 ADD SWAP1 PUSH2 0x291 SWAP2 SWAP1 PUSH2 0x812 JUMP JUMPDEST PUSH2 0x2DD JUMPI PUSH1 0x40 MLOAD PUSH3 0x461BCD PUSH1 0xE5 SHL DUP2 MSTORE PUSH1 0x20 PUSH1 0x4 DUP3 ADD MSTORE PUSH1 0x19 PUSH1 0x24 DUP3 ADD MSTORE PUSH32 0x4552433230207472616E7366657246726F6D206661696C656400000000000000 PUSH1 0x44 DUP3 ADD MSTORE PUSH1 0x64 ADD PUSH2 0xBF JUMP JUMPDEST PUSH1 0x0 PUSH32 0x59DA2A984E165AE4487C99E5D1DCA7E04C8A99301BE6BC092932CB5D7F034378 CALLER DUP10 DUP10 DUP10 DUP10 PUSH1 0x40 MLOAD PUSH1 0x20 ADD PUSH2 0x31A SWAP7 SWAP6 SWAP5 SWAP4 SWAP3 SWAP2 SWAP1 PUSH2 0x85D JUMP JUMPDEST PUSH1 0x40 MLOAD PUSH1 0x20 DUP2 DUP4 SUB SUB DUP2 MSTORE SWAP1 PUSH1 0x40 MSTORE SWAP1 POP PUSH32 0x29E6A9ED1B00933E0DE5679EA9BC6AD323969A70B69B627425B46AC0431C7B01 DUP9 CALLER DUP10 DUP10 DUP10 PUSH1 0x40 MLOAD PUSH2 0x362 SWAP6 SWAP5 SWAP4 SWAP3 SWAP2 SWAP1 PUSH2 0x897 JUMP JUMPDEST PUSH1 0x40 MLOAD DUP1 SWAP2 SUB SWAP1 LOG1 PUSH2 0x374 DUP4 DUP3 PUSH2 0x380 JUMP JUMPDEST SWAP9 SWAP8 POP POP POP POP POP POP POP POP JUMP JUMPDEST PUSH1 0x0 PUSH2 0x38D DUP4 DUP4 ADDRESS PUSH2 0x394 JUMP JUMPDEST SWAP4 SWAP3 POP POP POP JUMP JUMPDEST PUSH1 0x2 DUP4 ADD SLOAD DUP3 MLOAD PUSH1 0x0 SWAP2 PUSH32 0xD32D7F90491BEE81172A406B65F3270D810392FE53BB0379DDE8BDD4E624189C SWAP2 GT ISZERO PUSH2 0x40E JUMPI PUSH1 0x40 MLOAD PUSH3 0x461BCD PUSH1 0xE5 SHL DUP2 MSTORE PUSH1 0x20 PUSH1 0x4 DUP3 ADD MSTORE PUSH1 0x18 PUSH1 0x24 DUP3 ADD MSTORE PUSH32 0x696E707574206C656E3A205B302C647269766553697A655D0000000000000000 PUSH1 0x44 DUP3 ADD MSTORE PUSH1 0x64 ADD PUSH2 0xBF JUMP JUMPDEST PUSH2 0x417 DUP2 PUSH2 0x539 JUMP JUMPDEST ISZERO PUSH2 0x425 JUMPI PUSH2 0x425 DUP6 PUSH2 0x611 JUMP JUMPDEST PUSH1 0x0 DUP6 PUSH1 0x3 ADD SLOAD PUSH1 0x0 EQ PUSH2 0x43C JUMPI DUP6 PUSH1 0x1 ADD PUSH2 0x43E JUMP JUMPDEST DUP6 JUMPDEST SWAP1 POP PUSH1 0x0 PUSH2 0x44B DUP4 PUSH2 0x630 JUMP JUMPDEST DUP3 SLOAD PUSH1 0x40 DUP1 MLOAD PUSH1 0x1 PUSH1 0x1 PUSH1 0xA0 SHL SUB DUP10 AND PUSH1 0x20 DUP1 DUP4 ADD SWAP2 SWAP1 SWAP2 MSTORE NUMBER DUP3 DUP5 ADD MSTORE TIMESTAMP PUSH1 0x60 DUP4 ADD MSTORE PUSH1 0x80 DUP3 ADD DUP6 SWAP1 MSTORE PUSH1 0xA0 DUP1 DUP4 ADD DUP6 SWAP1 MSTORE DUP4 MLOAD DUP1 DUP5 SUB SWAP1 SWAP2 ADD DUP2 MSTORE PUSH1 0xC0 DUP4 ADD DUP5 MSTORE DUP1 MLOAD SWAP1 DUP3 ADD KECCAK256 DUP12 MLOAD DUP13 DUP4 ADD KECCAK256 PUSH1 0xE0 DUP5 ADD DUP3 SWAP1 MSTORE PUSH2 0x100 DUP1 DUP6 ADD DUP3 SWAP1 MSTORE DUP6 MLOAD DUP1 DUP7 SUB SWAP1 SWAP2 ADD DUP2 MSTORE PUSH2 0x120 SWAP1 SWAP5 ADD SWAP1 SWAP5 MSTORE DUP3 MLOAD SWAP3 DUP3 ADD SWAP3 SWAP1 SWAP3 KECCAK256 PUSH1 0x1 DUP1 DUP7 ADD DUP10 SSTORE PUSH1 0x0 DUP10 DUP2 MSTORE SWAP3 SWAP1 SWAP3 KECCAK256 SWAP1 SWAP5 ADD DUP5 SWAP1 SSTORE DUP7 SLOAD SWAP5 SWAP6 POP SWAP1 SWAP4 SWAP2 SWAP3 SWAP2 PUSH2 0x4F0 SWAP2 SWAP1 PUSH2 0x8EC JUMP JUMPDEST DUP5 PUSH32 0xA15A0DA5519C084484141AAA73E525CEE96062F5DECC97E070F0C4DA27738BC7 DUP11 TIMESTAMP DUP14 PUSH1 0x40 MLOAD PUSH2 0x524 SWAP4 SWAP3 SWAP2 SWAP1 PUSH2 0x903 JUMP JUMPDEST PUSH1 0x40 MLOAD DUP1 SWAP2 SUB SWAP1 LOG3 SWAP10 SWAP9 POP POP POP POP POP POP POP POP POP JUMP JUMPDEST PUSH1 0x1 DUP2 ADD SLOAD PUSH1 0x0 SWAP1 DUP2 SWAP1 PUSH1 0x1 PUSH1 0x80 SHL SWAP1 DIV PUSH4 0xFFFFFFFF AND PUSH1 0x2 DUP2 GT ISZERO PUSH2 0x561 JUMPI PUSH2 0x561 PUSH2 0x96F JUMP JUMPDEST PUSH1 0x1 DUP5 ADD SLOAD SWAP1 SWAP2 POP PUSH4 0xFFFFFFFF PUSH9 0x10000000000000000 DUP3 DIV DUP2 AND SWAP2 AND PUSH1 0x0 DUP4 PUSH1 0x2 DUP2 GT ISZERO PUSH2 0x592 JUMPI PUSH2 0x592 PUSH2 0x96F JUMP JUMPDEST EQ DUP1 ISZERO PUSH2 0x5A7 JUMPI POP PUSH2 0x5A4 DUP2 DUP4 PUSH2 0x985 JUMP JUMPDEST TIMESTAMP GT JUMPDEST ISZERO PUSH2 0x606 JUMPI PUSH1 0x1 DUP6 DUP2 ADD DUP1 SLOAD PUSH4 0xFFFFFFFF PUSH1 0x80 SHL NOT AND PUSH1 0x1 PUSH1 0x80 SHL OR SWAP1 SSTORE PUSH1 0x40 MLOAD PUSH32 0xED606D544C2202D032D2626C390923E6F260CA5D89625BBA0CFE70D2BDDA4E8F SWAP2 PUSH2 0x5F3 SWAP2 PUSH2 0x99D JUMP JUMPDEST PUSH1 0x40 MLOAD DUP1 SWAP2 SUB SWAP1 LOG1 POP PUSH1 0x1 SWAP5 SWAP4 POP POP POP POP JUMP JUMPDEST POP PUSH1 0x0 SWAP5 SWAP4 POP POP POP POP JUMP JUMPDEST PUSH1 0x3 DUP2 ADD SLOAD ISZERO PUSH2 0x622 JUMPI PUSH1 0x0 PUSH2 0x625 JUMP JUMPDEST PUSH1 0x1 JUMPDEST PUSH1 0xFF AND PUSH1 0x3 SWAP1 SWAP2 ADD SSTORE JUMP JUMPDEST PUSH32 0x635AD75FAE4D4E8D896461A635D23700076A1C3FD8DA26276F18CB1C09EA567 SLOAD PUSH1 0x1 DUP3 ADD SLOAD PUSH1 0x0 SWAP2 PUSH32 0x635AD75FAE4D4E8D896461A635D23700076A1C3FD8DA26276F18CB1C09EA566 SWAP2 DUP4 SWAP1 PUSH1 0x1 PUSH1 0x80 SHL SWAP1 DIV PUSH4 0xFFFFFFFF AND PUSH1 0x2 DUP2 GT ISZERO PUSH2 0x69C JUMPI PUSH2 0x69C PUSH2 0x96F JUMP JUMPDEST SWAP1 POP PUSH1 0x0 DUP2 PUSH1 0x2 DUP2 GT ISZERO PUSH2 0x6B2 JUMPI PUSH2 0x6B2 PUSH2 0x96F JUMP JUMPDEST EQ PUSH2 0x6C7 JUMPI PUSH2 0x6C2 DUP3 PUSH1 0x1 PUSH2 0x985 JUMP JUMPDEST PUSH2 0x6C9 JUMP JUMPDEST DUP2 JUMPDEST SWAP6 SWAP5 POP POP POP POP POP JUMP JUMPDEST PUSH1 0x0 DUP1 DUP4 PUSH1 0x1F DUP5 ADD SLT PUSH2 0x6E4 JUMPI PUSH1 0x0 DUP1 REVERT JUMPDEST POP DUP2 CALLDATALOAD PUSH8 0xFFFFFFFFFFFFFFFF DUP2 GT ISZERO PUSH2 0x6FC JUMPI PUSH1 0x0 DUP1 REVERT JUMPDEST PUSH1 0x20 DUP4 ADD SWAP2 POP DUP4 PUSH1 0x20 DUP3 DUP6 ADD ADD GT ISZERO PUSH2 0x714 JUMPI PUSH1 0x0 DUP1 REVERT JUMPDEST SWAP3 POP SWAP3 SWAP1 POP JUMP JUMPDEST PUSH1 0x0 DUP1 PUSH1 0x20 DUP4 DUP6 SUB SLT ISZERO PUSH2 0x72E JUMPI PUSH1 0x0 DUP1 REVERT JUMPDEST DUP3 CALLDATALOAD PUSH8 0xFFFFFFFFFFFFFFFF DUP2 GT ISZERO PUSH2 0x745 JUMPI PUSH1 0x0 DUP1 REVERT JUMPDEST PUSH2 0x751 DUP6 DUP3 DUP7 ADD PUSH2 0x6D2 JUMP JUMPDEST SWAP1 SWAP7 SWAP1 SWAP6 POP SWAP4 POP POP POP POP JUMP JUMPDEST PUSH1 0x1 PUSH1 0x1 PUSH1 0xA0 SHL SUB DUP2 AND DUP2 EQ PUSH2 0x772 JUMPI PUSH1 0x0 DUP1 REVERT JUMPDEST POP JUMP JUMPDEST PUSH1 0x0 DUP1 PUSH1 0x0 DUP1 PUSH1 0x60 DUP6 DUP8 SUB SLT ISZERO PUSH2 0x78B JUMPI PUSH1 0x0 DUP1 REVERT JUMPDEST DUP5 CALLDATALOAD PUSH2 0x796 DUP2 PUSH2 0x75D JUMP JUMPDEST SWAP4 POP PUSH1 0x20 DUP6 ADD CALLDATALOAD SWAP3 POP PUSH1 0x40 DUP6 ADD CALLDATALOAD PUSH8 0xFFFFFFFFFFFFFFFF DUP2 GT ISZERO PUSH2 0x7B9 JUMPI PUSH1 0x0 DUP1 REVERT JUMPDEST PUSH2 0x7C5 DUP8 DUP3 DUP9 ADD PUSH2 0x6D2 JUMP JUMPDEST SWAP6 SWAP9 SWAP5 SWAP8 POP SWAP6 POP POP POP POP JUMP JUMPDEST PUSH1 0x0 DUP1 PUSH1 0x0 PUSH1 0x60 DUP5 DUP7 SUB SLT ISZERO PUSH2 0x7E6 JUMPI PUSH1 0x0 DUP1 REVERT JUMPDEST DUP4 CALLDATALOAD PUSH2 0x7F1 DUP2 PUSH2 0x75D JUMP JUMPDEST SWAP3 POP PUSH1 0x20 DUP5 ADD CALLDATALOAD PUSH2 0x801 DUP2 PUSH2 0x75D JUMP JUMPDEST SWAP3 SWAP6 SWAP3 SWAP5 POP POP POP PUSH1 0x40 SWAP2 SWAP1 SWAP2 ADD CALLDATALOAD SWAP1 JUMP JUMPDEST PUSH1 0x0 PUSH1 0x20 DUP3 DUP5 SUB SLT ISZERO PUSH2 0x824 JUMPI PUSH1 0x0 DUP1 REVERT JUMPDEST DUP2 MLOAD DUP1 ISZERO ISZERO DUP2 EQ PUSH2 0x38D JUMPI PUSH1 0x0 DUP1 REVERT JUMPDEST DUP2 DUP4 MSTORE DUP2 DUP2 PUSH1 0x20 DUP6 ADD CALLDATACOPY POP PUSH1 0x0 DUP3 DUP3 ADD PUSH1 0x20 SWAP1 DUP2 ADD SWAP2 SWAP1 SWAP2 MSTORE PUSH1 0x1F SWAP1 SWAP2 ADD PUSH1 0x1F NOT AND SWAP1 SWAP2 ADD ADD SWAP1 JUMP JUMPDEST DUP7 DUP2 MSTORE PUSH1 0x1 PUSH1 0x1 PUSH1 0xA0 SHL SUB DUP7 DUP2 AND PUSH1 0x20 DUP4 ADD MSTORE DUP6 AND PUSH1 0x40 DUP3 ADD MSTORE PUSH1 0x60 DUP2 ADD DUP5 SWAP1 MSTORE PUSH1 0xA0 PUSH1 0x80 DUP3 ADD DUP2 SWAP1 MSTORE PUSH1 0x0 SWAP1 PUSH2 0x374 SWAP1 DUP4 ADD DUP5 DUP7 PUSH2 0x834 JUMP JUMPDEST PUSH1 0x1 PUSH1 0x1 PUSH1 0xA0 SHL SUB DUP7 DUP2 AND DUP3 MSTORE DUP6 AND PUSH1 0x20 DUP3 ADD MSTORE PUSH1 0x40 DUP2 ADD DUP5 SWAP1 MSTORE PUSH1 0x80 PUSH1 0x60 DUP3 ADD DUP2 SWAP1 MSTORE PUSH1 0x0 SWAP1 PUSH2 0x8CB SWAP1 DUP4 ADD DUP5 DUP7 PUSH2 0x834 JUMP JUMPDEST SWAP8 SWAP7 POP POP POP POP POP POP POP JUMP JUMPDEST PUSH4 0x4E487B71 PUSH1 0xE0 SHL PUSH1 0x0 MSTORE PUSH1 0x11 PUSH1 0x4 MSTORE PUSH1 0x24 PUSH1 0x0 REVERT JUMPDEST PUSH1 0x0 DUP3 DUP3 LT ISZERO PUSH2 0x8FE JUMPI PUSH2 0x8FE PUSH2 0x8D6 JUMP JUMPDEST POP SUB SWAP1 JUMP JUMPDEST PUSH1 0x1 DUP1 PUSH1 0xA0 SHL SUB DUP5 AND DUP2 MSTORE PUSH1 0x0 PUSH1 0x20 DUP5 DUP2 DUP5 ADD MSTORE PUSH1 0x60 PUSH1 0x40 DUP5 ADD MSTORE DUP4 MLOAD DUP1 PUSH1 0x60 DUP6 ADD MSTORE PUSH1 0x0 JUMPDEST DUP2 DUP2 LT ISZERO PUSH2 0x945 JUMPI DUP6 DUP2 ADD DUP4 ADD MLOAD DUP6 DUP3 ADD PUSH1 0x80 ADD MSTORE DUP3 ADD PUSH2 0x929 JUMP JUMPDEST DUP2 DUP2 GT ISZERO PUSH2 0x957 JUMPI PUSH1 0x0 PUSH1 0x80 DUP4 DUP8 ADD ADD MSTORE JUMPDEST POP PUSH1 0x1F ADD PUSH1 0x1F NOT AND SWAP3 SWAP1 SWAP3 ADD PUSH1 0x80 ADD SWAP6 SWAP5 POP POP POP POP POP JUMP JUMPDEST PUSH4 0x4E487B71 PUSH1 0xE0 SHL PUSH1 0x0 MSTORE PUSH1 0x21 PUSH1 0x4 MSTORE PUSH1 0x24 PUSH1 0x0 REVERT JUMPDEST PUSH1 0x0 DUP3 NOT DUP3 GT ISZERO PUSH2 0x998 JUMPI PUSH2 0x998 PUSH2 0x8D6 JUMP JUMPDEST POP ADD SWAP1 JUMP JUMPDEST PUSH1 0x20 DUP2 ADD PUSH1 0x3 DUP4 LT PUSH2 0x9BF JUMPI PUSH4 0x4E487B71 PUSH1 0xE0 SHL PUSH1 0x0 MSTORE PUSH1 0x21 PUSH1 0x4 MSTORE PUSH1 0x24 PUSH1 0x0 REVERT JUMPDEST SWAP2 SWAP1 MSTORE SWAP1 JUMP INVALID LOG2 PUSH5 0x6970667358 0x22 SLT KECCAK256 EXTCODECOPY 0xDC SWAP12 RETURN CALLCODE 0xAD 0xE7 INVALID 0x23 0x2C SDIV 0x29 PUSH24 0x7125F9B9D3CFF2D14635A93EF05CF123AEDD7864736F6C63 NUMBER STOP ADDMOD 0xD STOP CALLER "
    },
    "gasEstimates": {
      "creation": {
        "codeDepositCost": "511000",
        "executionCost": "543",
        "totalCost": "511543"
      },
      "external": {
        "erc20Deposit(address,uint256,bytes)": "infinite",
        "erc20Withdrawal(bytes)": "infinite"
      }
    },
    "methodIdentifiers": {
      "erc20Deposit(address,uint256,bytes)": "cb1061a6",
      "erc20Withdrawal(bytes)": "a2b097ae"
    }
  },
  "storageLayout": {
    "storage": [],
    "types": null
  },
  "userdoc": {
    "events": {
      "ERC20Deposited(address,address,uint256,bytes)": {
        "notice": "emitted on ERC20 deposited"
      },
      "ERC20Withdrawn(address,address,uint256)": {
        "notice": "emitted on ERC20 withdrawal"
      }
    },
    "kind": "user",
    "methods": {
      "erc20Deposit(address,uint256,bytes)": {
        "notice": "deposit an amount of a generic ERC20 in the portal and create tokens in L2"
      },
      "erc20Withdrawal(bytes)": {
        "notice": "withdraw an amount of a generic ERC20 from the portal"
      }
    },
    "version": 1
  }
}