{
  "contractName": "EtherPortalFacet",
  "sourceName": "contracts/facets/EtherPortalFacet.sol",
  "abi": [
    {
      "anonymous": false,
      "inputs": [
        {
          "indexed": false,
          "internalType": "address",
          "name": "sender",
          "type": "address"
        },
        {
          "indexed": false,
          "internalType": "uint256",
          "name": "amount",
          "type": "uint256"
        },
        {
          "indexed": false,
          "internalType": "bytes",
          "name": "data",
          "type": "bytes"
        }
      ],
      "name": "EtherDeposited",
      "type": "event"
    },
    {
      "anonymous": false,
      "inputs": [
        {
          "indexed": false,
          "internalType": "address payable",
          "name": "receiver",
          "type": "address"
        },
        {
          "indexed": false,
          "internalType": "uint256",
          "name": "amount",
          "type": "uint256"
        }
      ],
      "name": "EtherWithdrawn",
      "type": "event"
    },
    {
      "inputs": [
        {
          "internalType": "bytes",
          "name": "_data",
          "type": "bytes"
        }
      ],
      "name": "etherDeposit",
      "outputs": [
        {
          "internalType": "bytes32",
          "name": "",
          "type": "bytes32"
        }
      ],
      "stateMutability": "payable",
      "type": "function"
    },
    {
      "inputs": [
        {
          "internalType": "bytes",
          "name": "_data",
          "type": "bytes"
        }
      ],
      "name": "etherWithdrawal",
      "outputs": [
        {
          "internalType": "bool",
          "name": "",
          "type": "bool"
        }
      ],
      "stateMutability": "nonpayable",
      "type": "function"
    }
  ],
  "bytecode": "0x608060405234801561001057600080fd5b50610832806100206000396000f3fe6080604052600436106100295760003560e01c80632abfe7b31461002e57806374956b9414610054575b600080fd5b61004161003c3660046105cf565b610084565b6040519081526020015b60405180910390f35b34801561006057600080fd5b5061007461006f3660046105cf565b610146565b604051901515815260200161004b565b6000807f943d5d24442f02461445e15c5d7d4a4ef0acb0d32c5d6f6af37a6882249912ff905060007ff258e0fc39d35abd7d8393dcfe7e1cf8c745ddca38ae41d451d0c55ac5f2c4ce333487876040516020016100e595949392919061066a565b60405160208183030381529060405290507fa9888e32d8ea552aaeb3018b9c85c77c66ecc61cf8d1989f9e3271a88205ee633334878760405161012b94939291906106a3565b60405180910390a161013d8282610280565b95945050505050565b600033301461018a5760405162461bcd60e51b815260206004820152600b60248201526a37b7363c9034ba39b2b63360a91b60448201526064015b60405180910390fd5b600080610199848601866106d5565b915091506000826001600160a01b03168260405160006040518083038185875af1925050503d80600081146101ea576040519150601f19603f3d011682016040523d82523d6000602084013e6101ef565b606091505b50509050806102325760405162461bcd60e51b815260206004820152600f60248201526e1d1c985b9cd9995c8819985a5b1959608a1b6044820152606401610181565b604080516001600160a01b0385168152602081018490527f06097061aeda806b5e9cb4133d9899f332ff0913956567fc0f7ea15e3d19947c910160405180910390a150600195945050505050565b600061028d838330610294565b9392505050565b600283015482516000917fd32d7f90491bee81172a406b65f3270d810392fe53bb0379dde8bdd4e624189c91111561030e5760405162461bcd60e51b815260206004820152601860248201527f696e707574206c656e3a205b302c647269766553697a655d00000000000000006044820152606401610181565b61031781610439565b156103255761032585610511565b6000856003015460001461033c578560010161033e565b855b9050600061034b83610530565b8254604080516001600160a01b03891660208083019190915243828401524260608301526080820185905260a08083018590528351808403909101815260c0830184528051908201208b518c83012060e084018290526101008085018290528551808603909101815261012090940190945282519282019290922060018086018955600089815292909220909401849055865494955090939192916103f09190610723565b847fa15a0da5519c084484141aaa73e525cee96062f5decc97e070f0c4da27738bc78a428d6040516104249392919061073a565b60405180910390a39998505050505050505050565b60018101546000908190600160801b900463ffffffff166002811115610461576104616107a6565b600184015490915063ffffffff680100000000000000008204811691166000836002811115610492576104926107a6565b1480156104a757506104a481836107bc565b42115b15610506576001858101805463ffffffff60801b1916600160801b1790556040517fed606d544c2202d032d2626c390923e6f260ca5d89625bba0cfe70d2bdda4e8f916104f3916107d4565b60405180910390a1506001949350505050565b506000949350505050565b600381015415610522576000610525565b60015b60ff16600390910155565b7f0635ad75fae4d4e8d896461a635d23700076a1c3fd8da26276f18cb1c09ea5675460018201546000917f0635ad75fae4d4e8d896461a635d23700076a1c3fd8da26276f18cb1c09ea566918390600160801b900463ffffffff16600281111561059c5761059c6107a6565b905060008160028111156105b2576105b26107a6565b146105c7576105c28260016107bc565b61013d565b509392505050565b600080602083850312156105e257600080fd5b823567ffffffffffffffff808211156105fa57600080fd5b818501915085601f83011261060e57600080fd5b81358181111561061d57600080fd5b86602082850101111561062f57600080fd5b60209290920196919550909350505050565b81835281816020850137506000828201602090810191909152601f909101601f19169091010190565b85815260018060a01b0385166020820152836040820152608060608201526000610698608083018486610641565b979650505050505050565b60018060a01b03851681528360208201526060604082015260006106cb606083018486610641565b9695505050505050565b600080604083850312156106e857600080fd5b82356001600160a01b03811681146106ff57600080fd5b946020939093013593505050565b634e487b7160e01b600052601160045260246000fd5b6000828210156107355761073561070d565b500390565b60018060a01b038416815260006020848184015260606040840152835180606085015260005b8181101561077c57858101830151858201608001528201610760565b8181111561078e576000608083870101525b50601f01601f19169290920160800195945050505050565b634e487b7160e01b600052602160045260246000fd5b600082198211156107cf576107cf61070d565b500190565b60208101600383106107f657634e487b7160e01b600052602160045260246000fd5b9190529056fea2646970667358221220055cad7a815dba9a2d4914d89a1a7287409728ec21c5e8ba99fdbb55ba496f9364736f6c634300080d0033",
  "linkReferences": {},
  "deployedLinkReferences": {},
  "devdoc": {
    "kind": "dev",
    "methods": {
      "etherDeposit(bytes)": {
        "params": {
          "_data": "information to be interpreted by L2"
        },
        "returns": {
          "_0": "hash of input generated by deposit"
        }
      },
      "etherWithdrawal(bytes)": {
        "details": "can only be called by the Rollups contract",
        "params": {
          "_data": "data with withdrawal information"
        }
      }
    },
    "version": 1
  },
  "evm": {
    "bytecode": {
      "linkReferences": {},
      "opcodes": "PUSH1 0x80 PUSH1 0x40 MSTORE CALLVALUE DUP1 ISZERO PUSH2 0x10 JUMPI PUSH1 0x0 DUP1 REVERT JUMPDEST POP PUSH2 0x832 DUP1 PUSH2 0x20 PUSH1 0x0 CODECOPY PUSH1 0x0 RETURN INVALID PUSH1 0x80 PUSH1 0x40 MSTORE PUSH1 0x4 CALLDATASIZE LT PUSH2 0x29 JUMPI PUSH1 0x0 CALLDATALOAD PUSH1 0xE0 SHR DUP1 PUSH4 0x2ABFE7B3 EQ PUSH2 0x2E JUMPI DUP1 PUSH4 0x74956B94 EQ PUSH2 0x54 JUMPI JUMPDEST PUSH1 0x0 DUP1 REVERT JUMPDEST PUSH2 0x41 PUSH2 0x3C CALLDATASIZE PUSH1 0x4 PUSH2 0x5CF JUMP JUMPDEST PUSH2 0x84 JUMP JUMPDEST PUSH1 0x40 MLOAD SWAP1 DUP2 MSTORE PUSH1 0x20 ADD JUMPDEST PUSH1 0x40 MLOAD DUP1 SWAP2 SUB SWAP1 RETURN JUMPDEST CALLVALUE DUP1 ISZERO PUSH2 0x60 JUMPI PUSH1 0x0 DUP1 REVERT JUMPDEST POP PUSH2 0x74 PUSH2 0x6F CALLDATASIZE PUSH1 0x4 PUSH2 0x5CF JUMP JUMPDEST PUSH2 0x146 JUMP JUMPDEST PUSH1 0x40 MLOAD SWAP1 ISZERO ISZERO DUP2 MSTORE PUSH1 0x20 ADD PUSH2 0x4B JUMP JUMPDEST PUSH1 0x0 DUP1 PUSH32 0x943D5D24442F02461445E15C5D7D4A4EF0ACB0D32C5D6F6AF37A6882249912FF SWAP1 POP PUSH1 0x0 PUSH32 0xF258E0FC39D35ABD7D8393DCFE7E1CF8C745DDCA38AE41D451D0C55AC5F2C4CE CALLER CALLVALUE DUP8 DUP8 PUSH1 0x40 MLOAD PUSH1 0x20 ADD PUSH2 0xE5 SWAP6 SWAP5 SWAP4 SWAP3 SWAP2 SWAP1 PUSH2 0x66A JUMP JUMPDEST PUSH1 0x40 MLOAD PUSH1 0x20 DUP2 DUP4 SUB SUB DUP2 MSTORE SWAP1 PUSH1 0x40 MSTORE SWAP1 POP PUSH32 0xA9888E32D8EA552AAEB3018B9C85C77C66ECC61CF8D1989F9E3271A88205EE63 CALLER CALLVALUE DUP8 DUP8 PUSH1 0x40 MLOAD PUSH2 0x12B SWAP5 SWAP4 SWAP3 SWAP2 SWAP1 PUSH2 0x6A3 JUMP JUMPDEST PUSH1 0x40 MLOAD DUP1 SWAP2 SUB SWAP1 LOG1 PUSH2 0x13D DUP3 DUP3 PUSH2 0x280 JUMP JUMPDEST SWAP6 SWAP5 POP POP POP POP POP JUMP JUMPDEST PUSH1 0x0 CALLER ADDRESS EQ PUSH2 0x18A JUMPI PUSH1 0x40 MLOAD PUSH3 0x461BCD PUSH1 0xE5 SHL DUP2 MSTORE PUSH1 0x20 PUSH1 0x4 DUP3 ADD MSTORE PUSH1 0xB PUSH1 0x24 DUP3 ADD MSTORE PUSH11 0x37B7363C9034BA39B2B633 PUSH1 0xA9 SHL PUSH1 0x44 DUP3 ADD MSTORE PUSH1 0x64 ADD JUMPDEST PUSH1 0x40 MLOAD DUP1 SWAP2 SUB SWAP1 REVERT JUMPDEST PUSH1 0x0 DUP1 PUSH2 0x199 DUP5 DUP7 ADD DUP7 PUSH2 0x6D5 JUMP JUMPDEST SWAP2 POP SWAP2 POP PUSH1 0x0 DUP3 PUSH1 0x1 PUSH1 0x1 PUSH1 0xA0 SHL SUB AND DUP3 PUSH1 0x40 MLOAD PUSH1 0x0 PUSH1 0x40 MLOAD DUP1 DUP4 SUB DUP2 DUP6 DUP8 GAS CALL SWAP3 POP POP POP RETURNDATASIZE DUP1 PUSH1 0x0 DUP2 EQ PUSH2 0x1EA JUMPI PUSH1 0x40 MLOAD SWAP2 POP PUSH1 0x1F NOT PUSH1 0x3F RETURNDATASIZE ADD AND DUP3 ADD PUSH1 0x40 MSTORE RETURNDATASIZE DUP3 MSTORE RETURNDATASIZE PUSH1 0x0 PUSH1 0x20 DUP5 ADD RETURNDATACOPY PUSH2 0x1EF JUMP JUMPDEST PUSH1 0x60 SWAP2 POP JUMPDEST POP POP SWAP1 POP DUP1 PUSH2 0x232 JUMPI PUSH1 0x40 MLOAD PUSH3 0x461BCD PUSH1 0xE5 SHL DUP2 MSTORE PUSH1 0x20 PUSH1 0x4 DUP3 ADD MSTORE PUSH1 0xF PUSH1 0x24 DUP3 ADD MSTORE PUSH15 0x1D1C985B9CD9995C8819985A5B1959 PUSH1 0x8A SHL PUSH1 0x44 DUP3 ADD MSTORE PUSH1 0x64 ADD PUSH2 0x181 JUMP JUMPDEST PUSH1 0x40 DUP1 MLOAD PUSH1 0x1 PUSH1 0x1 PUSH1 0xA0 SHL SUB DUP6 AND DUP2 MSTORE PUSH1 0x20 DUP2 ADD DUP5 SWAP1 MSTORE PUSH32 0x6097061AEDA806B5E9CB4133D9899F332FF0913956567FC0F7EA15E3D19947C SWAP2 ADD PUSH1 0x40 MLOAD DUP1 SWAP2 SUB SWAP1 LOG1 POP PUSH1 0x1 SWAP6 SWAP5 POP POP POP POP POP JUMP JUMPDEST PUSH1 0x0 PUSH2 0x28D DUP4 DUP4 ADDRESS PUSH2 0x294 JUMP JUMPDEST SWAP4 SWAP3 POP POP POP JUMP JUMPDEST PUSH1 0x2 DUP4 ADD SLOAD DUP3 MLOAD PUSH1 0x0 SWAP2 PUSH32 0xD32D7F90491BEE81172A406B65F3270D810392FE53BB0379DDE8BDD4E624189C SWAP2 GT ISZERO PUSH2 0x30E JUMPI PUSH1 0x40 MLOAD PUSH3 0x461BCD PUSH1 0xE5 SHL DUP2 MSTORE PUSH1 0x20 PUSH1 0x4 DUP3 ADD MSTORE PUSH1 0x18 PUSH1 0x24 DUP3 ADD MSTORE PUSH32 0x696E707574206C656E3A205B302C647269766553697A655D0000000000000000 PUSH1 0x44 DUP3 ADD MSTORE PUSH1 0x64 ADD PUSH2 0x181 JUMP JUMPDEST PUSH2 0x317 DUP2 PUSH2 0x439 JUMP JUMPDEST ISZERO PUSH2 0x325 JUMPI PUSH2 0x325 DUP6 PUSH2 0x511 JUMP JUMPDEST PUSH1 0x0 DUP6 PUSH1 0x3 ADD SLOAD PUSH1 0x0 EQ PUSH2 0x33C JUMPI DUP6 PUSH1 0x1 ADD PUSH2 0x33E JUMP JUMPDEST DUP6 JUMPDEST SWAP1 POP PUSH1 0x0 PUSH2 0x34B DUP4 PUSH2 0x530 JUMP JUMPDEST DUP3 SLOAD PUSH1 0x40 DUP1 MLOAD PUSH1 0x1 PUSH1 0x1 PUSH1 0xA0 SHL SUB DUP10 AND PUSH1 0x20 DUP1 DUP4 ADD SWAP2 SWAP1 SWAP2 MSTORE NUMBER DUP3 DUP5 ADD MSTORE TIMESTAMP PUSH1 0x60 DUP4 ADD MSTORE PUSH1 0x80 DUP3 ADD DUP6 SWAP1 MSTORE PUSH1 0xA0 DUP1 DUP4 ADD DUP6 SWAP1 MSTORE DUP4 MLOAD DUP1 DUP5 SUB SWAP1 SWAP2 ADD DUP2 MSTORE PUSH1 0xC0 DUP4 ADD DUP5 MSTORE DUP1 MLOAD SWAP1 DUP3 ADD KECCAK256 DUP12 MLOAD DUP13 DUP4 ADD KECCAK256 PUSH1 0xE0 DUP5 ADD DUP3 SWAP1 MSTORE PUSH2 0x100 DUP1 DUP6 ADD DUP3 SWAP1 MSTORE DUP6 MLOAD DUP1 DUP7 SUB SWAP1 SWAP2 ADD DUP2 MSTORE PUSH2 0x120 SWAP1 SWAP5 ADD SWAP1 SWAP5 MSTORE DUP3 MLOAD SWAP3 DUP3 ADD SWAP3 SWAP1 SWAP3 KECCAK256 PUSH1 0x1 DUP1 DUP7 ADD DUP10 SSTORE PUSH1 0x0 DUP10 DUP2 MSTORE SWAP3 SWAP1 SWAP3 KECCAK256 SWAP1 SWAP5 ADD DUP5 SWAP1 SSTORE DUP7 SLOAD SWAP5 SWAP6 POP SWAP1 SWAP4 SWAP2 SWAP3 SWAP2 PUSH2 0x3F0 SWAP2 SWAP1 PUSH2 0x723 JUMP JUMPDEST DUP5 PUSH32 0xA15A0DA5519C084484141AAA73E525CEE96062F5DECC97E070F0C4DA27738BC7 DUP11 TIMESTAMP DUP14 PUSH1 0x40 MLOAD PUSH2 0x424 SWAP4 SWAP3 SWAP2 SWAP1 PUSH2 0x73A JUMP JUMPDEST PUSH1 0x40 MLOAD DUP1 SWAP2 SUB SWAP1 LOG3 SWAP10 SWAP9 POP POP POP POP POP POP POP POP POP JUMP JUMPDEST PUSH1 0x1 DUP2 ADD SLOAD PUSH1 0x0 SWAP1 DUP2 SWAP1 PUSH1 0x1 PUSH1 0x80 SHL SWAP1 DIV PUSH4 0xFFFFFFFF AND PUSH1 0x2 DUP2 GT ISZERO PUSH2 0x461 JUMPI PUSH2 0x461 PUSH2 0x7A6 JUMP JUMPDEST PUSH1 0x1 DUP5 ADD SLOAD SWAP1 SWAP2 POP PUSH4 0xFFFFFFFF PUSH9 0x10000000000000000 DUP3 DIV DUP2 AND SWAP2 AND PUSH1 0x0 DUP4 PUSH1 0x2 DUP2 GT ISZERO PUSH2 0x492 JUMPI PUSH2 0x492 PUSH2 0x7A6 JUMP JUMPDEST EQ DUP1 ISZERO PUSH2 0x4A7 JUMPI POP PUSH2 0x4A4 DUP2 DUP4 PUSH2 0x7BC JUMP JUMPDEST TIMESTAMP GT JUMPDEST ISZERO PUSH2 0x506 JUMPI PUSH1 0x1 DUP6 DUP2 ADD DUP1 SLOAD PUSH4 0xFFFFFFFF PUSH1 0x80 SHL NOT AND PUSH1 0x1 PUSH1 0x80 SHL OR SWAP1 SSTORE PUSH1 0x40 MLOAD PUSH32 0xED606D544C2202D032D2626C390923E6F260CA5D89625BBA0CFE70D2BDDA4E8F SWAP2 PUSH2 0x4F3 SWAP2 PUSH2 0x7D4 JUMP JUMPDEST PUSH1 0x40 MLOAD DUP1 SWAP2 SUB SWAP1 LOG1 POP PUSH1 0x1 SWAP5 SWAP4 POP POP POP POP JUMP JUMPDEST POP PUSH1 0x0 SWAP5 SWAP4 POP POP POP POP JUMP JUMPDEST PUSH1 0x3 DUP2 ADD SLOAD ISZERO PUSH2 0x522 JUMPI PUSH1 0x0 PUSH2 0x525 JUMP JUMPDEST PUSH1 0x1 JUMPDEST PUSH1 0xFF AND PUSH1 0x3 SWAP1 SWAP2 ADD SSTORE JUMP JUMPDEST PUSH32 0x635AD75FAE4D4E8D896461A635D23700076A1C3FD8DA26276F18CB1C09EA567 SLOAD PUSH1 0x1 DUP3 ADD SLOAD PUSH1 0x0 SWAP2 PUSH32 0x635AD75FAE4D4E8D896461A635D23700076A1C3FD8DA26276F18CB1C09EA566 SWAP2 DUP4 SWAP1 PUSH1 0x1 PUSH1 0x80 SHL SWAP1 DIV PUSH4 0xFFFFFFFF AND PUSH1 0x2 DUP2 GT ISZERO PUSH2 0x59C JUMPI PUSH2 0x59C PUSH2 0x7A6 JUMP JUMPDEST SWAP1 POP PUSH1 0x0 DUP2 PUSH1 0x2 DUP2 GT ISZERO PUSH2 0x5B2 JUMPI PUSH2 0x5B2 PUSH2 0x7A6 JUMP JUMPDEST EQ PUSH2 0x5C7 JUMPI PUSH2 0x5C2 DUP3 PUSH1 0x1 PUSH2 0x7BC JUMP JUMPDEST PUSH2 0x13D JUMP JUMPDEST POP SWAP4 SWAP3 POP POP POP JUMP JUMPDEST PUSH1 0x0 DUP1 PUSH1 0x20 DUP4 DUP6 SUB SLT ISZERO PUSH2 0x5E2 JUMPI PUSH1 0x0 DUP1 REVERT JUMPDEST DUP3 CALLDATALOAD PUSH8 0xFFFFFFFFFFFFFFFF DUP1 DUP3 GT ISZERO PUSH2 0x5FA JUMPI PUSH1 0x0 DUP1 REVERT JUMPDEST DUP2 DUP6 ADD SWAP2 POP DUP6 PUSH1 0x1F DUP4 ADD SLT PUSH2 0x60E JUMPI PUSH1 0x0 DUP1 REVERT JUMPDEST DUP2 CALLDATALOAD DUP2 DUP2 GT ISZERO PUSH2 0x61D JUMPI PUSH1 0x0 DUP1 REVERT JUMPDEST DUP7 PUSH1 0x20 DUP3 DUP6 ADD ADD GT ISZERO PUSH2 0x62F JUMPI PUSH1 0x0 DUP1 REVERT JUMPDEST PUSH1 0x20 SWAP3 SWAP1 SWAP3 ADD SWAP7 SWAP2 SWAP6 POP SWAP1 SWAP4 POP POP POP POP JUMP JUMPDEST DUP2 DUP4 MSTORE DUP2 DUP2 PUSH1 0x20 DUP6 ADD CALLDATACOPY POP PUSH1 0x0 DUP3 DUP3 ADD PUSH1 0x20 SWAP1 DUP2 ADD SWAP2 SWAP1 SWAP2 MSTORE PUSH1 0x1F SWAP1 SWAP2 ADD PUSH1 0x1F NOT AND SWAP1 SWAP2 ADD ADD SWAP1 JUMP JUMPDEST DUP6 DUP2 MSTORE PUSH1 0x1 DUP1 PUSH1 0xA0 SHL SUB DUP6 AND PUSH1 0x20 DUP3 ADD MSTORE DUP4 PUSH1 0x40 DUP3 ADD MSTORE PUSH1 0x80 PUSH1 0x60 DUP3 ADD MSTORE PUSH1 0x0 PUSH2 0x698 PUSH1 0x80 DUP4 ADD DUP5 DUP7 PUSH2 0x641 JUMP JUMPDEST SWAP8 SWAP7 POP POP POP POP POP POP POP JUMP JUMPDEST PUSH1 0x1 DUP1 PUSH1 0xA0 SHL SUB DUP6 AND DUP2 MSTORE DUP4 PUSH1 0x20 DUP3 ADD MSTORE PUSH1 0x60 PUSH1 0x40 DUP3 ADD MSTORE PUSH1 0x0 PUSH2 0x6CB PUSH1 0x60 DUP4 ADD DUP5 DUP7 PUSH2 0x641 JUMP JUMPDEST SWAP7 SWAP6 POP POP POP POP POP POP JUMP JUMPDEST PUSH1 0x0 DUP1 PUSH1 0x40 DUP4 DUP6 SUB SLT ISZERO PUSH2 0x6E8 JUMPI PUSH1 0x0 DUP1 REVERT JUMPDEST DUP3 CALLDATALOAD PUSH1 0x1 PUSH1 0x1 PUSH1 0xA0 SHL SUB DUP2 AND DUP2 EQ PUSH2 0x6FF JUMPI PUSH1 0x0 DUP1 REVERT JUMPDEST SWAP5 PUSH1 0x20 SWAP4 SWAP1 SWAP4 ADD CALLDATALOAD SWAP4 POP POP POP JUMP JUMPDEST PUSH4 0x4E487B71 PUSH1 0xE0 SHL PUSH1 0x0 MSTORE PUSH1 0x11 PUSH1 0x4 MSTORE PUSH1 0x24 PUSH1 0x0 REVERT JUMPDEST PUSH1 0x0 DUP3 DUP3 LT ISZERO PUSH2 0x735 JUMPI PUSH2 0x735 PUSH2 0x70D JUMP JUMPDEST POP SUB SWAP1 JUMP JUMPDEST PUSH1 0x1 DUP1 PUSH1 0xA0 SHL SUB DUP5 AND DUP2 MSTORE PUSH1 0x0 PUSH1 0x20 DUP5 DUP2 DUP5 ADD MSTORE PUSH1 0x60 PUSH1 0x40 DUP5 ADD MSTORE DUP4 MLOAD DUP1 PUSH1 0x60 DUP6 ADD MSTORE PUSH1 0x0 JUMPDEST DUP2 DUP2 LT ISZERO PUSH2 0x77C JUMPI DUP6 DUP2 ADD DUP4 ADD MLOAD DUP6 DUP3 ADD PUSH1 0x80 ADD MSTORE DUP3 ADD PUSH2 0x760 JUMP JUMPDEST DUP2 DUP2 GT ISZERO PUSH2 0x78E JUMPI PUSH1 0x0 PUSH1 0x80 DUP4 DUP8 ADD ADD MSTORE JUMPDEST POP PUSH1 0x1F ADD PUSH1 0x1F NOT AND SWAP3 SWAP1 SWAP3 ADD PUSH1 0x80 ADD SWAP6 SWAP5 POP POP POP POP POP JUMP JUMPDEST PUSH4 0x4E487B71 PUSH1 0xE0 SHL PUSH1 0x0 MSTORE PUSH1 0x21 PUSH1 0x4 MSTORE PUSH1 0x24 PUSH1 0x0 REVERT JUMPDEST PUSH1 0x0 DUP3 NOT DUP3 GT ISZERO PUSH2 0x7CF JUMPI PUSH2 0x7CF PUSH2 0x70D JUMP JUMPDEST POP ADD SWAP1 JUMP JUMPDEST PUSH1 0x20 DUP2 ADD PUSH1 0x3 DUP4 LT PUSH2 0x7F6 JUMPI PUSH4 0x4E487B71 PUSH1 0xE0 SHL PUSH1 0x0 MSTORE PUSH1 0x21 PUSH1 0x4 MSTORE PUSH1 0x24 PUSH1 0x0 REVERT JUMPDEST SWAP2 SWAP1 MSTORE SWAP1 JUMP INVALID LOG2 PUSH5 0x6970667358 0x22 SLT KECCAK256 SDIV 0x5C 0xAD PUSH27 0x815DBA9A2D4914D89A1A7287409728EC21C5E8BA99FDBB55BA496F SWAP4 PUSH5 0x736F6C6343 STOP ADDMOD 0xD STOP CALLER "
    },
    "gasEstimates": {
      "creation": {
        "codeDepositCost": "419600",
        "executionCost": "455",
        "totalCost": "420055"
      },
      "external": {
        "etherDeposit(bytes)": "infinite",
        "etherWithdrawal(bytes)": "infinite"
      }
    },
    "methodIdentifiers": {
      "etherDeposit(bytes)": "2abfe7b3",
      "etherWithdrawal(bytes)": "74956b94"
    }
  },
  "storageLayout": {
    "storage": [],
    "types": null
  },
  "userdoc": {
    "events": {
      "EtherDeposited(address,uint256,bytes)": {
        "notice": "emitted on Ether deposited"
      },
      "EtherWithdrawn(address,uint256)": {
        "notice": "emitted on Ether withdrawal"
      }
    },
    "kind": "user",
    "methods": {
      "etherDeposit(bytes)": {
        "notice": "deposit an amount of Ether in the portal and create Ether in L2"
      },
      "etherWithdrawal(bytes)": {
        "notice": "withdraw an amount of Ether from the portal"
      }
    },
    "version": 1
  }
}