{
  "contractName": "FeeManagerFacet",
  "sourceName": "contracts/facets/FeeManagerFacet.sol",
  "abi": [
    {
      "anonymous": false,
      "inputs": [
        {
          "indexed": false,
          "internalType": "uint256",
          "name": "value",
          "type": "uint256"
        }
      ],
      "name": "FeePerClaimReset",
      "type": "event"
    },
    {
      "anonymous": false,
      "inputs": [
        {
          "indexed": false,
          "internalType": "address",
          "name": "validator",
          "type": "address"
        },
        {
          "indexed": false,
          "internalType": "uint256",
          "name": "claims",
          "type": "uint256"
        }
      ],
      "name": "FeeRedeemed",
      "type": "event"
    },
    {
      "inputs": [],
      "name": "getFeeManagerBank",
      "outputs": [
        {
          "internalType": "contract IBank",
          "name": "",
          "type": "address"
        }
      ],
      "stateMutability": "view",
      "type": "function"
    },
    {
      "inputs": [
        {
          "internalType": "address",
          "name": "_validator",
          "type": "address"
        }
      ],
      "name": "getNumClaimsRedeemed",
      "outputs": [
        {
          "internalType": "uint256",
          "name": "",
          "type": "uint256"
        }
      ],
      "stateMutability": "view",
      "type": "function"
    },
    {
      "inputs": [
        {
          "internalType": "address",
          "name": "_validator",
          "type": "address"
        }
      ],
      "name": "numClaimsRedeemable",
      "outputs": [
        {
          "internalType": "uint256",
          "name": "",
          "type": "uint256"
        }
      ],
      "stateMutability": "view",
      "type": "function"
    },
    {
      "inputs": [
        {
          "internalType": "address",
          "name": "_validator",
          "type": "address"
        }
      ],
      "name": "redeemFee",
      "outputs": [],
      "stateMutability": "nonpayable",
      "type": "function"
    },
    {
      "inputs": [
        {
          "internalType": "uint256",
          "name": "_value",
          "type": "uint256"
        }
      ],
      "name": "resetFeePerClaim",
      "outputs": [],
      "stateMutability": "nonpayable",
      "type": "function"
    }
  ],
  "bytecode": "0x608060405234801561001057600080fd5b50610a61806100206000396000f3fe608060405234801561001057600080fd5b50600436106100575760003560e01c80636e964cea1461005c5780637a5bf67c1461009b578063a859b983146100b0578063de7a8d11146100d1578063e8f56171146100e4575b600080fd5b7f844e22529543d6e722c6477171dd50ffe5b412198b92cd9aeea62bbfabe4cc75546040516001600160a01b0390911681526020015b60405180910390f35b6100ae6100a93660046108ea565b6100f7565b005b6100c36100be366004610903565b61011d565b604051908152602001610092565b6100ae6100df366004610903565b61013f565b6100c36100f2366004610903565b610210565b600080516020610a0c83398151915261010f8161022b565b6101198183610287565b5050565b6000600080516020610a0c8339815191526101388184610418565b9392505050565b7f844e22529543d6e722c6477171dd50ffe5b412198b92cd9aeea62bbfabe4cc7554600080516020610a0c83398151915290600160a01b900460ff16156101c65760405162461bcd60e51b81526020600482015260166024820152751c99595b9d1c985b98de481b9bdd08185b1b1bddd95960521b60448201526064015b60405180910390fd5b60028101805460ff60a01b1916600160a01b17905560006101f2600080516020610a0c83398151915290565b90506101fe81846104ac565b50600201805460ff60a01b1916905550565b6000600080516020610a0c83398151915261013881846105fc565b80546001600160a01b031633146102845760405162461bcd60e51b815260206004820152601760248201527f63616c6c6572206973206e6f7420746865206f776e657200000000000000000060448201526064016101bd565b50565b6000805160206109ec83398151915260005b81600201548110156103d85760008260010182815481106102bc576102bc61092c565b6000918252602090912001546001600160a01b0316905080156103c55760006102e586836105fc565b905080156103c35760038601546102fd9084836106b6565b600387015560018601546000906103149083610958565b600288015460405163bec3fa1760e01b81526001600160a01b0386811660048301526024820184905292935091169063bec3fa1790604401600060405180830381600087803b15801561036657600080fd5b505af115801561037a573d6000803e3d6000fd5b5050604080516001600160a01b0387168152602081018690527f0544e8b0e3ef3679366e27df87030668812cb3284d1acccfb1eb8a0e7b26ead3935001905060405180910390a1505b505b50806103d081610977565b915050610299565b50600183018290556040518281527fd454bae44ce74e91cf62780bdb9278052c00cfd79c13003d5761b400475b12f69060200160405180910390a1505050565b60006001600160a01b03821661046a5760405162461bcd60e51b81526020600482015260176024820152760616464726573732073686f756c64206e6f74206265203604c1b60448201526064016101bd565b6000805160206109ec83398151915260006104858285610709565b905060006104a08287600301546107e890919063ffffffff16565b93505050505b92915050565b60006104b883836105fc565b9050600081116105025760405162461bcd60e51b81526020600482015260156024820152741b9bdd1a1a5b99c81d1bc81c995919595b481e595d605a1b60448201526064016101bd565b6000805160206109ec833981519152600061051d8285610709565b60038601549091506105309082856106b6565b600386015560018501546000906105479085610958565b600287015460405163bec3fa1760e01b81526001600160a01b0388811660048301526024820184905292935091169063bec3fa1790604401600060405180830381600087803b15801561059957600080fd5b505af11580156105ad573d6000803e3d6000fd5b5050604080516001600160a01b0389168152602081018890527f0544e8b0e3ef3679366e27df87030668812cb3284d1acccfb1eb8a0e7b26ead3935001905060405180910390a1505050505050565b60006001600160a01b03821661064e5760405162461bcd60e51b81526020600482015260176024820152760616464726573732073686f756c64206e6f74206265203604c1b60448201526064016101bd565b6000805160206109ec83398151915260006106698285610709565b905060006106848284600301546107e890919063ffffffff16565b9050600061069f8388600301546107e890919063ffffffff16565b90506106ab8183610990565b979650505050505050565b6000600883106106d85760405162461bcd60e51b81526004016101bd906109a7565b60006106e485856107e8565b905060006106f284836109d3565b90506106ff868683610836565b9695505050505050565b60006001600160a01b03821661074d5760405162461bcd60e51b815260206004820152600960248201526806164647265737320360bc1b60448201526064016101bd565b60005b60018401548110156107a9578360010181815481106107715761077161092c565b6000918252602090912001546001600160a01b03908116908416036107975790506104a6565b806107a181610977565b915050610750565b5060405162461bcd60e51b81526020600482015260136024820152721d985b1a59185d1bdc881b9bdd08199bdd5b99606a1b60448201526064016101bd565b60006008821061080a5760405162461bcd60e51b81526004016101bd906109a7565b600061081b60016340000000610990565b90508061082984601e610958565b85901c1691505092915050565b6000600883106108585760405162461bcd60e51b81526004016101bd906109a7565b61086760016340000000610990565b8211156108ac5760405162461bcd60e51b8152602060048201526013602482015272436c61696d734d61736b204f766572666c6f7760681b60448201526064016101bd565b60006108b984601e610958565b6108c860016340000000610990565b901b1990508481166108db85601e610958565b9390931b909217949350505050565b6000602082840312156108fc57600080fd5b5035919050565b60006020828403121561091557600080fd5b81356001600160a01b038116811461013857600080fd5b634e487b7160e01b600052603260045260246000fd5b634e487b7160e01b600052601160045260246000fd5b600081600019048311821515161561097257610972610942565b500290565b60006001820161098957610989610942565b5060010190565b6000828210156109a2576109a2610942565b500390565b602080825260129082015271696e646578206f7574206f662072616e676560701b604082015260600190565b600082198211156109e6576109e6610942565b50019056fe8ab37fef2b2e34c4b62ff9948ee661cdcf34e209d7c20f4d1f6e83085e93b1fc844e22529543d6e722c6477171dd50ffe5b412198b92cd9aeea62bbfabe4cc73a2646970667358221220e2dcf97f1655f0715e1cdb69d502939c318684487c80bac69053f33bbba1c0e464736f6c634300080d0033",
  "linkReferences": {},
  "deployedLinkReferences": {},
  "devdoc": {
    "kind": "dev",
    "methods": {
      "getNumClaimsRedeemed(address)": {
        "params": {
          "_validator": "address of the validator"
        }
      },
      "numClaimsRedeemable(address)": {
        "params": {
          "_validator": "address of the validator"
        }
      },
      "redeemFee(address)": {
        "params": {
          "_validator": "address of the validator that is redeeming"
        }
      },
      "resetFeePerClaim(uint256)": {
        "params": {
          "_value": "the new value of fee per claim"
        }
      }
    },
    "version": 1
  },
  "evm": {
    "bytecode": {
      "linkReferences": {},
      "opcodes": "PUSH1 0x80 PUSH1 0x40 MSTORE CALLVALUE DUP1 ISZERO PUSH2 0x10 JUMPI PUSH1 0x0 DUP1 REVERT JUMPDEST POP PUSH2 0xA61 DUP1 PUSH2 0x20 PUSH1 0x0 CODECOPY PUSH1 0x0 RETURN INVALID PUSH1 0x80 PUSH1 0x40 MSTORE CALLVALUE DUP1 ISZERO PUSH2 0x10 JUMPI PUSH1 0x0 DUP1 REVERT JUMPDEST POP PUSH1 0x4 CALLDATASIZE LT PUSH2 0x57 JUMPI PUSH1 0x0 CALLDATALOAD PUSH1 0xE0 SHR DUP1 PUSH4 0x6E964CEA EQ PUSH2 0x5C JUMPI DUP1 PUSH4 0x7A5BF67C EQ PUSH2 0x9B JUMPI DUP1 PUSH4 0xA859B983 EQ PUSH2 0xB0 JUMPI DUP1 PUSH4 0xDE7A8D11 EQ PUSH2 0xD1 JUMPI DUP1 PUSH4 0xE8F56171 EQ PUSH2 0xE4 JUMPI JUMPDEST PUSH1 0x0 DUP1 REVERT JUMPDEST PUSH32 0x844E22529543D6E722C6477171DD50FFE5B412198B92CD9AEEA62BBFABE4CC75 SLOAD PUSH1 0x40 MLOAD PUSH1 0x1 PUSH1 0x1 PUSH1 0xA0 SHL SUB SWAP1 SWAP2 AND DUP2 MSTORE PUSH1 0x20 ADD JUMPDEST PUSH1 0x40 MLOAD DUP1 SWAP2 SUB SWAP1 RETURN JUMPDEST PUSH2 0xAE PUSH2 0xA9 CALLDATASIZE PUSH1 0x4 PUSH2 0x8EA JUMP JUMPDEST PUSH2 0xF7 JUMP JUMPDEST STOP JUMPDEST PUSH2 0xC3 PUSH2 0xBE CALLDATASIZE PUSH1 0x4 PUSH2 0x903 JUMP JUMPDEST PUSH2 0x11D JUMP JUMPDEST PUSH1 0x40 MLOAD SWAP1 DUP2 MSTORE PUSH1 0x20 ADD PUSH2 0x92 JUMP JUMPDEST PUSH2 0xAE PUSH2 0xDF CALLDATASIZE PUSH1 0x4 PUSH2 0x903 JUMP JUMPDEST PUSH2 0x13F JUMP JUMPDEST PUSH2 0xC3 PUSH2 0xF2 CALLDATASIZE PUSH1 0x4 PUSH2 0x903 JUMP JUMPDEST PUSH2 0x210 JUMP JUMPDEST PUSH1 0x0 DUP1 MLOAD PUSH1 0x20 PUSH2 0xA0C DUP4 CODECOPY DUP2 MLOAD SWAP2 MSTORE PUSH2 0x10F DUP2 PUSH2 0x22B JUMP JUMPDEST PUSH2 0x119 DUP2 DUP4 PUSH2 0x287 JUMP JUMPDEST POP POP JUMP JUMPDEST PUSH1 0x0 PUSH1 0x0 DUP1 MLOAD PUSH1 0x20 PUSH2 0xA0C DUP4 CODECOPY DUP2 MLOAD SWAP2 MSTORE PUSH2 0x138 DUP2 DUP5 PUSH2 0x418 JUMP JUMPDEST SWAP4 SWAP3 POP POP POP JUMP JUMPDEST PUSH32 0x844E22529543D6E722C6477171DD50FFE5B412198B92CD9AEEA62BBFABE4CC75 SLOAD PUSH1 0x0 DUP1 MLOAD PUSH1 0x20 PUSH2 0xA0C DUP4 CODECOPY DUP2 MLOAD SWAP2 MSTORE SWAP1 PUSH1 0x1 PUSH1 0xA0 SHL SWAP1 DIV PUSH1 0xFF AND ISZERO PUSH2 0x1C6 JUMPI PUSH1 0x40 MLOAD PUSH3 0x461BCD PUSH1 0xE5 SHL DUP2 MSTORE PUSH1 0x20 PUSH1 0x4 DUP3 ADD MSTORE PUSH1 0x16 PUSH1 0x24 DUP3 ADD MSTORE PUSH22 0x1C99595B9D1C985B98DE481B9BDD08185B1B1BDDD959 PUSH1 0x52 SHL PUSH1 0x44 DUP3 ADD MSTORE PUSH1 0x64 ADD JUMPDEST PUSH1 0x40 MLOAD DUP1 SWAP2 SUB SWAP1 REVERT JUMPDEST PUSH1 0x2 DUP2 ADD DUP1 SLOAD PUSH1 0xFF PUSH1 0xA0 SHL NOT AND PUSH1 0x1 PUSH1 0xA0 SHL OR SWAP1 SSTORE PUSH1 0x0 PUSH2 0x1F2 PUSH1 0x0 DUP1 MLOAD PUSH1 0x20 PUSH2 0xA0C DUP4 CODECOPY DUP2 MLOAD SWAP2 MSTORE SWAP1 JUMP JUMPDEST SWAP1 POP PUSH2 0x1FE DUP2 DUP5 PUSH2 0x4AC JUMP JUMPDEST POP PUSH1 0x2 ADD DUP1 SLOAD PUSH1 0xFF PUSH1 0xA0 SHL NOT AND SWAP1 SSTORE POP JUMP JUMPDEST PUSH1 0x0 PUSH1 0x0 DUP1 MLOAD PUSH1 0x20 PUSH2 0xA0C DUP4 CODECOPY DUP2 MLOAD SWAP2 MSTORE PUSH2 0x138 DUP2 DUP5 PUSH2 0x5FC JUMP JUMPDEST DUP1 SLOAD PUSH1 0x1 PUSH1 0x1 PUSH1 0xA0 SHL SUB AND CALLER EQ PUSH2 0x284 JUMPI PUSH1 0x40 MLOAD PUSH3 0x461BCD PUSH1 0xE5 SHL DUP2 MSTORE PUSH1 0x20 PUSH1 0x4 DUP3 ADD MSTORE PUSH1 0x17 PUSH1 0x24 DUP3 ADD MSTORE PUSH32 0x63616C6C6572206973206E6F7420746865206F776E6572000000000000000000 PUSH1 0x44 DUP3 ADD MSTORE PUSH1 0x64 ADD PUSH2 0x1BD JUMP JUMPDEST POP JUMP JUMPDEST PUSH1 0x0 DUP1 MLOAD PUSH1 0x20 PUSH2 0x9EC DUP4 CODECOPY DUP2 MLOAD SWAP2 MSTORE PUSH1 0x0 JUMPDEST DUP2 PUSH1 0x2 ADD SLOAD DUP2 LT ISZERO PUSH2 0x3D8 JUMPI PUSH1 0x0 DUP3 PUSH1 0x1 ADD DUP3 DUP2 SLOAD DUP2 LT PUSH2 0x2BC JUMPI PUSH2 0x2BC PUSH2 0x92C JUMP JUMPDEST PUSH1 0x0 SWAP2 DUP3 MSTORE PUSH1 0x20 SWAP1 SWAP2 KECCAK256 ADD SLOAD PUSH1 0x1 PUSH1 0x1 PUSH1 0xA0 SHL SUB AND SWAP1 POP DUP1 ISZERO PUSH2 0x3C5 JUMPI PUSH1 0x0 PUSH2 0x2E5 DUP7 DUP4 PUSH2 0x5FC JUMP JUMPDEST SWAP1 POP DUP1 ISZERO PUSH2 0x3C3 JUMPI PUSH1 0x3 DUP7 ADD SLOAD PUSH2 0x2FD SWAP1 DUP5 DUP4 PUSH2 0x6B6 JUMP JUMPDEST PUSH1 0x3 DUP8 ADD SSTORE PUSH1 0x1 DUP7 ADD SLOAD PUSH1 0x0 SWAP1 PUSH2 0x314 SWAP1 DUP4 PUSH2 0x958 JUMP JUMPDEST PUSH1 0x2 DUP9 ADD SLOAD PUSH1 0x40 MLOAD PUSH4 0xBEC3FA17 PUSH1 0xE0 SHL DUP2 MSTORE PUSH1 0x1 PUSH1 0x1 PUSH1 0xA0 SHL SUB DUP7 DUP2 AND PUSH1 0x4 DUP4 ADD MSTORE PUSH1 0x24 DUP3 ADD DUP5 SWAP1 MSTORE SWAP3 SWAP4 POP SWAP2 AND SWAP1 PUSH4 0xBEC3FA17 SWAP1 PUSH1 0x44 ADD PUSH1 0x0 PUSH1 0x40 MLOAD DUP1 DUP4 SUB DUP2 PUSH1 0x0 DUP8 DUP1 EXTCODESIZE ISZERO DUP1 ISZERO PUSH2 0x366 JUMPI PUSH1 0x0 DUP1 REVERT JUMPDEST POP GAS CALL ISZERO DUP1 ISZERO PUSH2 0x37A JUMPI RETURNDATASIZE PUSH1 0x0 DUP1 RETURNDATACOPY RETURNDATASIZE PUSH1 0x0 REVERT JUMPDEST POP POP PUSH1 0x40 DUP1 MLOAD PUSH1 0x1 PUSH1 0x1 PUSH1 0xA0 SHL SUB DUP8 AND DUP2 MSTORE PUSH1 0x20 DUP2 ADD DUP7 SWAP1 MSTORE PUSH32 0x544E8B0E3EF3679366E27DF87030668812CB3284D1ACCCFB1EB8A0E7B26EAD3 SWAP4 POP ADD SWAP1 POP PUSH1 0x40 MLOAD DUP1 SWAP2 SUB SWAP1 LOG1 POP JUMPDEST POP JUMPDEST POP DUP1 PUSH2 0x3D0 DUP2 PUSH2 0x977 JUMP JUMPDEST SWAP2 POP POP PUSH2 0x299 JUMP JUMPDEST POP PUSH1 0x1 DUP4 ADD DUP3 SWAP1 SSTORE PUSH1 0x40 MLOAD DUP3 DUP2 MSTORE PUSH32 0xD454BAE44CE74E91CF62780BDB9278052C00CFD79C13003D5761B400475B12F6 SWAP1 PUSH1 0x20 ADD PUSH1 0x40 MLOAD DUP1 SWAP2 SUB SWAP1 LOG1 POP POP POP JUMP JUMPDEST PUSH1 0x0 PUSH1 0x1 PUSH1 0x1 PUSH1 0xA0 SHL SUB DUP3 AND PUSH2 0x46A JUMPI PUSH1 0x40 MLOAD PUSH3 0x461BCD PUSH1 0xE5 SHL DUP2 MSTORE PUSH1 0x20 PUSH1 0x4 DUP3 ADD MSTORE PUSH1 0x17 PUSH1 0x24 DUP3 ADD MSTORE PUSH23 0x616464726573732073686F756C64206E6F74206265203 PUSH1 0x4C SHL PUSH1 0x44 DUP3 ADD MSTORE PUSH1 0x64 ADD PUSH2 0x1BD JUMP JUMPDEST PUSH1 0x0 DUP1 MLOAD PUSH1 0x20 PUSH2 0x9EC DUP4 CODECOPY DUP2 MLOAD SWAP2 MSTORE PUSH1 0x0 PUSH2 0x485 DUP3 DUP6 PUSH2 0x709 JUMP JUMPDEST SWAP1 POP PUSH1 0x0 PUSH2 0x4A0 DUP3 DUP8 PUSH1 0x3 ADD SLOAD PUSH2 0x7E8 SWAP1 SWAP2 SWAP1 PUSH4 0xFFFFFFFF AND JUMP JUMPDEST SWAP4 POP POP POP POP JUMPDEST SWAP3 SWAP2 POP POP JUMP JUMPDEST PUSH1 0x0 PUSH2 0x4B8 DUP4 DUP4 PUSH2 0x5FC JUMP JUMPDEST SWAP1 POP PUSH1 0x0 DUP2 GT PUSH2 0x502 JUMPI PUSH1 0x40 MLOAD PUSH3 0x461BCD PUSH1 0xE5 SHL DUP2 MSTORE PUSH1 0x20 PUSH1 0x4 DUP3 ADD MSTORE PUSH1 0x15 PUSH1 0x24 DUP3 ADD MSTORE PUSH21 0x1B9BDD1A1A5B99C81D1BC81C995919595B481E595D PUSH1 0x5A SHL PUSH1 0x44 DUP3 ADD MSTORE PUSH1 0x64 ADD PUSH2 0x1BD JUMP JUMPDEST PUSH1 0x0 DUP1 MLOAD PUSH1 0x20 PUSH2 0x9EC DUP4 CODECOPY DUP2 MLOAD SWAP2 MSTORE PUSH1 0x0 PUSH2 0x51D DUP3 DUP6 PUSH2 0x709 JUMP JUMPDEST PUSH1 0x3 DUP7 ADD SLOAD SWAP1 SWAP2 POP PUSH2 0x530 SWAP1 DUP3 DUP6 PUSH2 0x6B6 JUMP JUMPDEST PUSH1 0x3 DUP7 ADD SSTORE PUSH1 0x1 DUP6 ADD SLOAD PUSH1 0x0 SWAP1 PUSH2 0x547 SWAP1 DUP6 PUSH2 0x958 JUMP JUMPDEST PUSH1 0x2 DUP8 ADD SLOAD PUSH1 0x40 MLOAD PUSH4 0xBEC3FA17 PUSH1 0xE0 SHL DUP2 MSTORE PUSH1 0x1 PUSH1 0x1 PUSH1 0xA0 SHL SUB DUP9 DUP2 AND PUSH1 0x4 DUP4 ADD MSTORE PUSH1 0x24 DUP3 ADD DUP5 SWAP1 MSTORE SWAP3 SWAP4 POP SWAP2 AND SWAP1 PUSH4 0xBEC3FA17 SWAP1 PUSH1 0x44 ADD PUSH1 0x0 PUSH1 0x40 MLOAD DUP1 DUP4 SUB DUP2 PUSH1 0x0 DUP8 DUP1 EXTCODESIZE ISZERO DUP1 ISZERO PUSH2 0x599 JUMPI PUSH1 0x0 DUP1 REVERT JUMPDEST POP GAS CALL ISZERO DUP1 ISZERO PUSH2 0x5AD JUMPI RETURNDATASIZE PUSH1 0x0 DUP1 RETURNDATACOPY RETURNDATASIZE PUSH1 0x0 REVERT JUMPDEST POP POP PUSH1 0x40 DUP1 MLOAD PUSH1 0x1 PUSH1 0x1 PUSH1 0xA0 SHL SUB DUP10 AND DUP2 MSTORE PUSH1 0x20 DUP2 ADD DUP9 SWAP1 MSTORE PUSH32 0x544E8B0E3EF3679366E27DF87030668812CB3284D1ACCCFB1EB8A0E7B26EAD3 SWAP4 POP ADD SWAP1 POP PUSH1 0x40 MLOAD DUP1 SWAP2 SUB SWAP1 LOG1 POP POP POP POP POP POP JUMP JUMPDEST PUSH1 0x0 PUSH1 0x1 PUSH1 0x1 PUSH1 0xA0 SHL SUB DUP3 AND PUSH2 0x64E JUMPI PUSH1 0x40 MLOAD PUSH3 0x461BCD PUSH1 0xE5 SHL DUP2 MSTORE PUSH1 0x20 PUSH1 0x4 DUP3 ADD MSTORE PUSH1 0x17 PUSH1 0x24 DUP3 ADD MSTORE PUSH23 0x616464726573732073686F756C64206E6F74206265203 PUSH1 0x4C SHL PUSH1 0x44 DUP3 ADD MSTORE PUSH1 0x64 ADD PUSH2 0x1BD JUMP JUMPDEST PUSH1 0x0 DUP1 MLOAD PUSH1 0x20 PUSH2 0x9EC DUP4 CODECOPY DUP2 MLOAD SWAP2 MSTORE PUSH1 0x0 PUSH2 0x669 DUP3 DUP6 PUSH2 0x709 JUMP JUMPDEST SWAP1 POP PUSH1 0x0 PUSH2 0x684 DUP3 DUP5 PUSH1 0x3 ADD SLOAD PUSH2 0x7E8 SWAP1 SWAP2 SWAP1 PUSH4 0xFFFFFFFF AND JUMP JUMPDEST SWAP1 POP PUSH1 0x0 PUSH2 0x69F DUP4 DUP9 PUSH1 0x3 ADD SLOAD PUSH2 0x7E8 SWAP1 SWAP2 SWAP1 PUSH4 0xFFFFFFFF AND JUMP JUMPDEST SWAP1 POP PUSH2 0x6AB DUP2 DUP4 PUSH2 0x990 JUMP JUMPDEST SWAP8 SWAP7 POP POP POP POP POP POP POP JUMP JUMPDEST PUSH1 0x0 PUSH1 0x8 DUP4 LT PUSH2 0x6D8 JUMPI PUSH1 0x40 MLOAD PUSH3 0x461BCD PUSH1 0xE5 SHL DUP2 MSTORE PUSH1 0x4 ADD PUSH2 0x1BD SWAP1 PUSH2 0x9A7 JUMP JUMPDEST PUSH1 0x0 PUSH2 0x6E4 DUP6 DUP6 PUSH2 0x7E8 JUMP JUMPDEST SWAP1 POP PUSH1 0x0 PUSH2 0x6F2 DUP5 DUP4 PUSH2 0x9D3 JUMP JUMPDEST SWAP1 POP PUSH2 0x6FF DUP7 DUP7 DUP4 PUSH2 0x836 JUMP JUMPDEST SWAP7 SWAP6 POP POP POP POP POP POP JUMP JUMPDEST PUSH1 0x0 PUSH1 0x1 PUSH1 0x1 PUSH1 0xA0 SHL SUB DUP3 AND PUSH2 0x74D JUMPI PUSH1 0x40 MLOAD PUSH3 0x461BCD PUSH1 0xE5 SHL DUP2 MSTORE PUSH1 0x20 PUSH1 0x4 DUP3 ADD MSTORE PUSH1 0x9 PUSH1 0x24 DUP3 ADD MSTORE PUSH9 0x61646472657373203 PUSH1 0xBC SHL PUSH1 0x44 DUP3 ADD MSTORE PUSH1 0x64 ADD PUSH2 0x1BD JUMP JUMPDEST PUSH1 0x0 JUMPDEST PUSH1 0x1 DUP5 ADD SLOAD DUP2 LT ISZERO PUSH2 0x7A9 JUMPI DUP4 PUSH1 0x1 ADD DUP2 DUP2 SLOAD DUP2 LT PUSH2 0x771 JUMPI PUSH2 0x771 PUSH2 0x92C JUMP JUMPDEST PUSH1 0x0 SWAP2 DUP3 MSTORE PUSH1 0x20 SWAP1 SWAP2 KECCAK256 ADD SLOAD PUSH1 0x1 PUSH1 0x1 PUSH1 0xA0 SHL SUB SWAP1 DUP2 AND SWAP1 DUP5 AND SUB PUSH2 0x797 JUMPI SWAP1 POP PUSH2 0x4A6 JUMP JUMPDEST DUP1 PUSH2 0x7A1 DUP2 PUSH2 0x977 JUMP JUMPDEST SWAP2 POP POP PUSH2 0x750 JUMP JUMPDEST POP PUSH1 0x40 MLOAD PUSH3 0x461BCD PUSH1 0xE5 SHL DUP2 MSTORE PUSH1 0x20 PUSH1 0x4 DUP3 ADD MSTORE PUSH1 0x13 PUSH1 0x24 DUP3 ADD MSTORE PUSH19 0x1D985B1A59185D1BDC881B9BDD08199BDD5B99 PUSH1 0x6A SHL PUSH1 0x44 DUP3 ADD MSTORE PUSH1 0x64 ADD PUSH2 0x1BD JUMP JUMPDEST PUSH1 0x0 PUSH1 0x8 DUP3 LT PUSH2 0x80A JUMPI PUSH1 0x40 MLOAD PUSH3 0x461BCD PUSH1 0xE5 SHL DUP2 MSTORE PUSH1 0x4 ADD PUSH2 0x1BD SWAP1 PUSH2 0x9A7 JUMP JUMPDEST PUSH1 0x0 PUSH2 0x81B PUSH1 0x1 PUSH4 0x40000000 PUSH2 0x990 JUMP JUMPDEST SWAP1 POP DUP1 PUSH2 0x829 DUP5 PUSH1 0x1E PUSH2 0x958 JUMP JUMPDEST DUP6 SWAP1 SHR AND SWAP2 POP POP SWAP3 SWAP2 POP POP JUMP JUMPDEST PUSH1 0x0 PUSH1 0x8 DUP4 LT PUSH2 0x858 JUMPI PUSH1 0x40 MLOAD PUSH3 0x461BCD PUSH1 0xE5 SHL DUP2 MSTORE PUSH1 0x4 ADD PUSH2 0x1BD SWAP1 PUSH2 0x9A7 JUMP JUMPDEST PUSH2 0x867 PUSH1 0x1 PUSH4 0x40000000 PUSH2 0x990 JUMP JUMPDEST DUP3 GT ISZERO PUSH2 0x8AC JUMPI PUSH1 0x40 MLOAD PUSH3 0x461BCD PUSH1 0xE5 SHL DUP2 MSTORE PUSH1 0x20 PUSH1 0x4 DUP3 ADD MSTORE PUSH1 0x13 PUSH1 0x24 DUP3 ADD MSTORE PUSH19 0x436C61696D734D61736B204F766572666C6F77 PUSH1 0x68 SHL PUSH1 0x44 DUP3 ADD MSTORE PUSH1 0x64 ADD PUSH2 0x1BD JUMP JUMPDEST PUSH1 0x0 PUSH2 0x8B9 DUP5 PUSH1 0x1E PUSH2 0x958 JUMP JUMPDEST PUSH2 0x8C8 PUSH1 0x1 PUSH4 0x40000000 PUSH2 0x990 JUMP JUMPDEST SWAP1 SHL NOT SWAP1 POP DUP5 DUP2 AND PUSH2 0x8DB DUP6 PUSH1 0x1E PUSH2 0x958 JUMP JUMPDEST SWAP4 SWAP1 SWAP4 SHL SWAP1 SWAP3 OR SWAP5 SWAP4 POP POP POP POP JUMP JUMPDEST PUSH1 0x0 PUSH1 0x20 DUP3 DUP5 SUB SLT ISZERO PUSH2 0x8FC JUMPI PUSH1 0x0 DUP1 REVERT JUMPDEST POP CALLDATALOAD SWAP2 SWAP1 POP JUMP JUMPDEST PUSH1 0x0 PUSH1 0x20 DUP3 DUP5 SUB SLT ISZERO PUSH2 0x915 JUMPI PUSH1 0x0 DUP1 REVERT JUMPDEST DUP2 CALLDATALOAD PUSH1 0x1 PUSH1 0x1 PUSH1 0xA0 SHL SUB DUP2 AND DUP2 EQ PUSH2 0x138 JUMPI PUSH1 0x0 DUP1 REVERT JUMPDEST PUSH4 0x4E487B71 PUSH1 0xE0 SHL PUSH1 0x0 MSTORE PUSH1 0x32 PUSH1 0x4 MSTORE PUSH1 0x24 PUSH1 0x0 REVERT JUMPDEST PUSH4 0x4E487B71 PUSH1 0xE0 SHL PUSH1 0x0 MSTORE PUSH1 0x11 PUSH1 0x4 MSTORE PUSH1 0x24 PUSH1 0x0 REVERT JUMPDEST PUSH1 0x0 DUP2 PUSH1 0x0 NOT DIV DUP4 GT DUP3 ISZERO ISZERO AND ISZERO PUSH2 0x972 JUMPI PUSH2 0x972 PUSH2 0x942 JUMP JUMPDEST POP MUL SWAP1 JUMP JUMPDEST PUSH1 0x0 PUSH1 0x1 DUP3 ADD PUSH2 0x989 JUMPI PUSH2 0x989 PUSH2 0x942 JUMP JUMPDEST POP PUSH1 0x1 ADD SWAP1 JUMP JUMPDEST PUSH1 0x0 DUP3 DUP3 LT ISZERO PUSH2 0x9A2 JUMPI PUSH2 0x9A2 PUSH2 0x942 JUMP JUMPDEST POP SUB SWAP1 JUMP JUMPDEST PUSH1 0x20 DUP1 DUP3 MSTORE PUSH1 0x12 SWAP1 DUP3 ADD MSTORE PUSH18 0x696E646578206F7574206F662072616E6765 PUSH1 0x70 SHL PUSH1 0x40 DUP3 ADD MSTORE PUSH1 0x60 ADD SWAP1 JUMP JUMPDEST PUSH1 0x0 DUP3 NOT DUP3 GT ISZERO PUSH2 0x9E6 JUMPI PUSH2 0x9E6 PUSH2 0x942 JUMP JUMPDEST POP ADD SWAP1 JUMP INVALID DUP11 0xB3 PUSH32 0xEF2B2E34C4B62FF9948EE661CDCF34E209D7C20F4D1F6E83085E93B1FC844E22 MSTORE SWAP6 NUMBER 0xD6 0xE7 0x22 0xC6 SELFBALANCE PUSH18 0x71DD50FFE5B412198B92CD9AEEA62BBFABE4 0xCC PUSH20 0xA2646970667358221220E2DCF97F1655F0715E1C 0xDB PUSH10 0xD502939C318684487C80 0xBA 0xC6 SWAP1 MSTORE8 RETURN EXTCODESIZE 0xBB LOG1 0xC0 0xE4 PUSH5 0x736F6C6343 STOP ADDMOD 0xD STOP CALLER "
    },
    "gasEstimates": {
      "creation": {
        "codeDepositCost": "531400",
        "executionCost": "568",
        "totalCost": "531968"
      },
      "external": {
        "getFeeManagerBank()": "2268",
        "getNumClaimsRedeemed(address)": "infinite",
        "numClaimsRedeemable(address)": "infinite",
        "redeemFee(address)": "infinite",
        "resetFeePerClaim(uint256)": "infinite"
      }
    },
    "methodIdentifiers": {
      "getFeeManagerBank()": "6e964cea",
      "getNumClaimsRedeemed(address)": "a859b983",
      "numClaimsRedeemable(address)": "e8f56171",
      "redeemFee(address)": "de7a8d11",
      "resetFeePerClaim(uint256)": "7a5bf67c"
    }
  },
  "storageLayout": {
    "storage": [],
    "types": null
  },
  "userdoc": {
    "events": {
      "FeePerClaimReset(uint256)": {
        "notice": "emitted on resetting feePerClaim"
      },
      "FeeRedeemed(address,uint256)": {
        "notice": "emitted on ERC20 funds redeemed by validator"
      }
    },
    "kind": "user",
    "methods": {
      "getFeeManagerBank()": {
        "notice": "returns the bank used to manage fees"
      },
      "getNumClaimsRedeemed(address)": {
        "notice": "this function can be called to check the number of claims that has been redeemed for the validator"
      },
      "numClaimsRedeemable(address)": {
        "notice": "this function can be called to check the number of claims that's redeemable for the validator"
      },
      "redeemFee(address)": {
        "notice": "this function can be called to redeem fees for validators"
      },
      "resetFeePerClaim(uint256)": {
        "notice": "contract owner can reset the value of fee per claim"
      }
    },
    "version": 1
  }
}