{
  "contractName": "FeeManagerFacet",
  "sourceName": "contracts/facets/FeeManagerFacet.sol",
  "abi": [
    {
      "anonymous": false,
      "inputs": [
        {
          "indexed": false,
          "internalType": "uint256",
          "name": "value",
          "type": "uint256"
        }
      ],
      "name": "FeePerClaimReset",
      "type": "event"
    },
    {
      "anonymous": false,
      "inputs": [
        {
          "indexed": false,
          "internalType": "address",
          "name": "validator",
          "type": "address"
        },
        {
          "indexed": false,
          "internalType": "uint256",
          "name": "claims",
          "type": "uint256"
        }
      ],
      "name": "FeeRedeemed",
      "type": "event"
    },
    {
      "inputs": [],
      "name": "getFeeManagerBank",
      "outputs": [
        {
          "internalType": "contract IBank",
          "name": "",
          "type": "address"
        }
      ],
      "stateMutability": "view",
      "type": "function"
    },
    {
      "inputs": [
        {
          "internalType": "address",
          "name": "_validator",
          "type": "address"
        }
      ],
      "name": "getNumClaimsRedeemed",
      "outputs": [
        {
          "internalType": "uint256",
          "name": "",
          "type": "uint256"
        }
      ],
      "stateMutability": "view",
      "type": "function"
    },
    {
      "inputs": [
        {
          "internalType": "address",
          "name": "_validator",
          "type": "address"
        }
      ],
      "name": "numClaimsRedeemable",
      "outputs": [
        {
          "internalType": "uint256",
          "name": "",
          "type": "uint256"
        }
      ],
      "stateMutability": "view",
      "type": "function"
    },
    {
      "inputs": [
        {
          "internalType": "address",
          "name": "_validator",
          "type": "address"
        }
      ],
      "name": "redeemFee",
      "outputs": [],
      "stateMutability": "nonpayable",
      "type": "function"
    },
    {
      "inputs": [
        {
          "internalType": "uint256",
          "name": "_value",
          "type": "uint256"
        }
      ],
      "name": "resetFeePerClaim",
      "outputs": [],
      "stateMutability": "nonpayable",
      "type": "function"
    }
  ],
  "bytecode": "0x608060405234801561001057600080fd5b50610996806100206000396000f3fe608060405234801561001057600080fd5b50600436106100575760003560e01c80636e964cea1461005c5780637a5bf67c1461009b578063a859b983146100b0578063de7a8d11146100d1578063e8f56171146100e4575b600080fd5b7f844e22529543d6e722c6477171dd50ffe5b412198b92cd9aeea62bbfabe4cc75546040516001600160a01b0390911681526020015b60405180910390f35b6100ae6100a936600461081f565b6100f7565b005b6100c36100be366004610838565b61011d565b604051908152602001610092565b6100ae6100df366004610838565b61013f565b6100c36100f2366004610838565b610210565b60008051602061094183398151915261010f8161022b565b6101198183610287565b5050565b6000600080516020610941833981519152610138818461034d565b9392505050565b7f844e22529543d6e722c6477171dd50ffe5b412198b92cd9aeea62bbfabe4cc755460008051602061094183398151915290600160a01b900460ff16156101c65760405162461bcd60e51b81526020600482015260166024820152751c99595b9d1c985b98de481b9bdd08185b1b1bddd95960521b60448201526064015b60405180910390fd5b60028101805460ff60a01b1916600160a01b17905560006101f260008051602061094183398151915290565b90506101fe81846103e1565b50600201805460ff60a01b1916905550565b60006000805160206109418339815191526101388184610531565b80546001600160a01b031633146102845760405162461bcd60e51b815260206004820152601760248201527f63616c6c6572206973206e6f7420746865206f776e657200000000000000000060448201526064016101bd565b50565b60008051602061092183398151915260005b816002015481101561030d5760008260010182815481106102bc576102bc610861565b6000918252602090912001546001600160a01b0316905080158015906102eb575060006102e98683610531565b115b156102fa576102fa85826103e1565b50806103058161088d565b915050610299565b50600183018290556040518281527fd454bae44ce74e91cf62780bdb9278052c00cfd79c13003d5761b400475b12f69060200160405180910390a1505050565b60006001600160a01b03821661039f5760405162461bcd60e51b81526020600482015260176024820152760616464726573732073686f756c64206e6f74206265203604c1b60448201526064016101bd565b60008051602061092183398151915260006103ba82856105eb565b905060006103d58287600301546106ca90919063ffffffff16565b93505050505b92915050565b60006103ed8383610531565b9050600081116104375760405162461bcd60e51b81526020600482015260156024820152741b9bdd1a1a5b99c81d1bc81c995919595b481e595d605a1b60448201526064016101bd565b600080516020610921833981519152600061045282856105eb565b6003860154909150610465908285610718565b6003860155600185015460009061047c90856108a6565b600287015460405163bec3fa1760e01b81526001600160a01b0388811660048301526024820184905292935091169063bec3fa1790604401600060405180830381600087803b1580156104ce57600080fd5b505af11580156104e2573d6000803e3d6000fd5b5050604080516001600160a01b0389168152602081018890527f0544e8b0e3ef3679366e27df87030668812cb3284d1acccfb1eb8a0e7b26ead3935001905060405180910390a1505050505050565b60006001600160a01b0382166105835760405162461bcd60e51b81526020600482015260176024820152760616464726573732073686f756c64206e6f74206265203604c1b60448201526064016101bd565b600080516020610921833981519152600061059e82856105eb565b905060006105b98284600301546106ca90919063ffffffff16565b905060006105d48388600301546106ca90919063ffffffff16565b90506105e081836108c5565b979650505050505050565b60006001600160a01b03821661062f5760405162461bcd60e51b815260206004820152600960248201526806164647265737320360bc1b60448201526064016101bd565b60005b600184015481101561068b5783600101818154811061065357610653610861565b6000918252602090912001546001600160a01b03908116908416036106795790506103db565b806106838161088d565b915050610632565b5060405162461bcd60e51b81526020600482015260136024820152721d985b1a59185d1bdc881b9bdd08199bdd5b99606a1b60448201526064016101bd565b6000600882106106ec5760405162461bcd60e51b81526004016101bd906108dc565b60006106fd600163400000006108c5565b90508061070b84601e6108a6565b85901c1691505092915050565b60006008831061073a5760405162461bcd60e51b81526004016101bd906108dc565b600061074685856106ca565b905060006107548483610908565b905061076186868361076b565b9695505050505050565b60006008831061078d5760405162461bcd60e51b81526004016101bd906108dc565b61079c600163400000006108c5565b8211156107e15760405162461bcd60e51b8152602060048201526013602482015272436c61696d734d61736b204f766572666c6f7760681b60448201526064016101bd565b60006107ee84601e6108a6565b6107fd600163400000006108c5565b901b19905084811661081085601e6108a6565b9390931b909217949350505050565b60006020828403121561083157600080fd5b5035919050565b60006020828403121561084a57600080fd5b81356001600160a01b038116811461013857600080fd5b634e487b7160e01b600052603260045260246000fd5b634e487b7160e01b600052601160045260246000fd5b60006001820161089f5761089f610877565b5060010190565b60008160001904831182151516156108c0576108c0610877565b500290565b6000828210156108d7576108d7610877565b500390565b602080825260129082015271696e646578206f7574206f662072616e676560701b604082015260600190565b6000821982111561091b5761091b610877565b50019056fe8ab37fef2b2e34c4b62ff9948ee661cdcf34e209d7c20f4d1f6e83085e93b1fc844e22529543d6e722c6477171dd50ffe5b412198b92cd9aeea62bbfabe4cc73a2646970667358221220a8ca7b0d6fcbe7124d78258f827acf5b7fe2f3b1b5a6fae4f3812b231b0f4f4664736f6c634300080d0033",
  "linkReferences": {},
  "deployedLinkReferences": {},
  "devdoc": {
    "kind": "dev",
    "methods": {
      "getNumClaimsRedeemed(address)": {
        "params": {
          "_validator": "address of the validator"
        }
      },
      "numClaimsRedeemable(address)": {
        "params": {
          "_validator": "address of the validator"
        }
      },
      "redeemFee(address)": {
        "params": {
          "_validator": "address of the validator that is redeeming"
        }
      },
      "resetFeePerClaim(uint256)": {
        "params": {
          "_value": "the new value of fee per claim"
        }
      }
    },
    "version": 1
  },
  "evm": {
    "bytecode": {
      "linkReferences": {},
      "opcodes": "PUSH1 0x80 PUSH1 0x40 MSTORE CALLVALUE DUP1 ISZERO PUSH2 0x10 JUMPI PUSH1 0x0 DUP1 REVERT JUMPDEST POP PUSH2 0x996 DUP1 PUSH2 0x20 PUSH1 0x0 CODECOPY PUSH1 0x0 RETURN INVALID PUSH1 0x80 PUSH1 0x40 MSTORE CALLVALUE DUP1 ISZERO PUSH2 0x10 JUMPI PUSH1 0x0 DUP1 REVERT JUMPDEST POP PUSH1 0x4 CALLDATASIZE LT PUSH2 0x57 JUMPI PUSH1 0x0 CALLDATALOAD PUSH1 0xE0 SHR DUP1 PUSH4 0x6E964CEA EQ PUSH2 0x5C JUMPI DUP1 PUSH4 0x7A5BF67C EQ PUSH2 0x9B JUMPI DUP1 PUSH4 0xA859B983 EQ PUSH2 0xB0 JUMPI DUP1 PUSH4 0xDE7A8D11 EQ PUSH2 0xD1 JUMPI DUP1 PUSH4 0xE8F56171 EQ PUSH2 0xE4 JUMPI JUMPDEST PUSH1 0x0 DUP1 REVERT JUMPDEST PUSH32 0x844E22529543D6E722C6477171DD50FFE5B412198B92CD9AEEA62BBFABE4CC75 SLOAD PUSH1 0x40 MLOAD PUSH1 0x1 PUSH1 0x1 PUSH1 0xA0 SHL SUB SWAP1 SWAP2 AND DUP2 MSTORE PUSH1 0x20 ADD JUMPDEST PUSH1 0x40 MLOAD DUP1 SWAP2 SUB SWAP1 RETURN JUMPDEST PUSH2 0xAE PUSH2 0xA9 CALLDATASIZE PUSH1 0x4 PUSH2 0x81F JUMP JUMPDEST PUSH2 0xF7 JUMP JUMPDEST STOP JUMPDEST PUSH2 0xC3 PUSH2 0xBE CALLDATASIZE PUSH1 0x4 PUSH2 0x838 JUMP JUMPDEST PUSH2 0x11D JUMP JUMPDEST PUSH1 0x40 MLOAD SWAP1 DUP2 MSTORE PUSH1 0x20 ADD PUSH2 0x92 JUMP JUMPDEST PUSH2 0xAE PUSH2 0xDF CALLDATASIZE PUSH1 0x4 PUSH2 0x838 JUMP JUMPDEST PUSH2 0x13F JUMP JUMPDEST PUSH2 0xC3 PUSH2 0xF2 CALLDATASIZE PUSH1 0x4 PUSH2 0x838 JUMP JUMPDEST PUSH2 0x210 JUMP JUMPDEST PUSH1 0x0 DUP1 MLOAD PUSH1 0x20 PUSH2 0x941 DUP4 CODECOPY DUP2 MLOAD SWAP2 MSTORE PUSH2 0x10F DUP2 PUSH2 0x22B JUMP JUMPDEST PUSH2 0x119 DUP2 DUP4 PUSH2 0x287 JUMP JUMPDEST POP POP JUMP JUMPDEST PUSH1 0x0 PUSH1 0x0 DUP1 MLOAD PUSH1 0x20 PUSH2 0x941 DUP4 CODECOPY DUP2 MLOAD SWAP2 MSTORE PUSH2 0x138 DUP2 DUP5 PUSH2 0x34D JUMP JUMPDEST SWAP4 SWAP3 POP POP POP JUMP JUMPDEST PUSH32 0x844E22529543D6E722C6477171DD50FFE5B412198B92CD9AEEA62BBFABE4CC75 SLOAD PUSH1 0x0 DUP1 MLOAD PUSH1 0x20 PUSH2 0x941 DUP4 CODECOPY DUP2 MLOAD SWAP2 MSTORE SWAP1 PUSH1 0x1 PUSH1 0xA0 SHL SWAP1 DIV PUSH1 0xFF AND ISZERO PUSH2 0x1C6 JUMPI PUSH1 0x40 MLOAD PUSH3 0x461BCD PUSH1 0xE5 SHL DUP2 MSTORE PUSH1 0x20 PUSH1 0x4 DUP3 ADD MSTORE PUSH1 0x16 PUSH1 0x24 DUP3 ADD MSTORE PUSH22 0x1C99595B9D1C985B98DE481B9BDD08185B1B1BDDD959 PUSH1 0x52 SHL PUSH1 0x44 DUP3 ADD MSTORE PUSH1 0x64 ADD JUMPDEST PUSH1 0x40 MLOAD DUP1 SWAP2 SUB SWAP1 REVERT JUMPDEST PUSH1 0x2 DUP2 ADD DUP1 SLOAD PUSH1 0xFF PUSH1 0xA0 SHL NOT AND PUSH1 0x1 PUSH1 0xA0 SHL OR SWAP1 SSTORE PUSH1 0x0 PUSH2 0x1F2 PUSH1 0x0 DUP1 MLOAD PUSH1 0x20 PUSH2 0x941 DUP4 CODECOPY DUP2 MLOAD SWAP2 MSTORE SWAP1 JUMP JUMPDEST SWAP1 POP PUSH2 0x1FE DUP2 DUP5 PUSH2 0x3E1 JUMP JUMPDEST POP PUSH1 0x2 ADD DUP1 SLOAD PUSH1 0xFF PUSH1 0xA0 SHL NOT AND SWAP1 SSTORE POP JUMP JUMPDEST PUSH1 0x0 PUSH1 0x0 DUP1 MLOAD PUSH1 0x20 PUSH2 0x941 DUP4 CODECOPY DUP2 MLOAD SWAP2 MSTORE PUSH2 0x138 DUP2 DUP5 PUSH2 0x531 JUMP JUMPDEST DUP1 SLOAD PUSH1 0x1 PUSH1 0x1 PUSH1 0xA0 SHL SUB AND CALLER EQ PUSH2 0x284 JUMPI PUSH1 0x40 MLOAD PUSH3 0x461BCD PUSH1 0xE5 SHL DUP2 MSTORE PUSH1 0x20 PUSH1 0x4 DUP3 ADD MSTORE PUSH1 0x17 PUSH1 0x24 DUP3 ADD MSTORE PUSH32 0x63616C6C6572206973206E6F7420746865206F776E6572000000000000000000 PUSH1 0x44 DUP3 ADD MSTORE PUSH1 0x64 ADD PUSH2 0x1BD JUMP JUMPDEST POP JUMP JUMPDEST PUSH1 0x0 DUP1 MLOAD PUSH1 0x20 PUSH2 0x921 DUP4 CODECOPY DUP2 MLOAD SWAP2 MSTORE PUSH1 0x0 JUMPDEST DUP2 PUSH1 0x2 ADD SLOAD DUP2 LT ISZERO PUSH2 0x30D JUMPI PUSH1 0x0 DUP3 PUSH1 0x1 ADD DUP3 DUP2 SLOAD DUP2 LT PUSH2 0x2BC JUMPI PUSH2 0x2BC PUSH2 0x861 JUMP JUMPDEST PUSH1 0x0 SWAP2 DUP3 MSTORE PUSH1 0x20 SWAP1 SWAP2 KECCAK256 ADD SLOAD PUSH1 0x1 PUSH1 0x1 PUSH1 0xA0 SHL SUB AND SWAP1 POP DUP1 ISZERO DUP1 ISZERO SWAP1 PUSH2 0x2EB JUMPI POP PUSH1 0x0 PUSH2 0x2E9 DUP7 DUP4 PUSH2 0x531 JUMP JUMPDEST GT JUMPDEST ISZERO PUSH2 0x2FA JUMPI PUSH2 0x2FA DUP6 DUP3 PUSH2 0x3E1 JUMP JUMPDEST POP DUP1 PUSH2 0x305 DUP2 PUSH2 0x88D JUMP JUMPDEST SWAP2 POP POP PUSH2 0x299 JUMP JUMPDEST POP PUSH1 0x1 DUP4 ADD DUP3 SWAP1 SSTORE PUSH1 0x40 MLOAD DUP3 DUP2 MSTORE PUSH32 0xD454BAE44CE74E91CF62780BDB9278052C00CFD79C13003D5761B400475B12F6 SWAP1 PUSH1 0x20 ADD PUSH1 0x40 MLOAD DUP1 SWAP2 SUB SWAP1 LOG1 POP POP POP JUMP JUMPDEST PUSH1 0x0 PUSH1 0x1 PUSH1 0x1 PUSH1 0xA0 SHL SUB DUP3 AND PUSH2 0x39F JUMPI PUSH1 0x40 MLOAD PUSH3 0x461BCD PUSH1 0xE5 SHL DUP2 MSTORE PUSH1 0x20 PUSH1 0x4 DUP3 ADD MSTORE PUSH1 0x17 PUSH1 0x24 DUP3 ADD MSTORE PUSH23 0x616464726573732073686F756C64206E6F74206265203 PUSH1 0x4C SHL PUSH1 0x44 DUP3 ADD MSTORE PUSH1 0x64 ADD PUSH2 0x1BD JUMP JUMPDEST PUSH1 0x0 DUP1 MLOAD PUSH1 0x20 PUSH2 0x921 DUP4 CODECOPY DUP2 MLOAD SWAP2 MSTORE PUSH1 0x0 PUSH2 0x3BA DUP3 DUP6 PUSH2 0x5EB JUMP JUMPDEST SWAP1 POP PUSH1 0x0 PUSH2 0x3D5 DUP3 DUP8 PUSH1 0x3 ADD SLOAD PUSH2 0x6CA SWAP1 SWAP2 SWAP1 PUSH4 0xFFFFFFFF AND JUMP JUMPDEST SWAP4 POP POP POP POP JUMPDEST SWAP3 SWAP2 POP POP JUMP JUMPDEST PUSH1 0x0 PUSH2 0x3ED DUP4 DUP4 PUSH2 0x531 JUMP JUMPDEST SWAP1 POP PUSH1 0x0 DUP2 GT PUSH2 0x437 JUMPI PUSH1 0x40 MLOAD PUSH3 0x461BCD PUSH1 0xE5 SHL DUP2 MSTORE PUSH1 0x20 PUSH1 0x4 DUP3 ADD MSTORE PUSH1 0x15 PUSH1 0x24 DUP3 ADD MSTORE PUSH21 0x1B9BDD1A1A5B99C81D1BC81C995919595B481E595D PUSH1 0x5A SHL PUSH1 0x44 DUP3 ADD MSTORE PUSH1 0x64 ADD PUSH2 0x1BD JUMP JUMPDEST PUSH1 0x0 DUP1 MLOAD PUSH1 0x20 PUSH2 0x921 DUP4 CODECOPY DUP2 MLOAD SWAP2 MSTORE PUSH1 0x0 PUSH2 0x452 DUP3 DUP6 PUSH2 0x5EB JUMP JUMPDEST PUSH1 0x3 DUP7 ADD SLOAD SWAP1 SWAP2 POP PUSH2 0x465 SWAP1 DUP3 DUP6 PUSH2 0x718 JUMP JUMPDEST PUSH1 0x3 DUP7 ADD SSTORE PUSH1 0x1 DUP6 ADD SLOAD PUSH1 0x0 SWAP1 PUSH2 0x47C SWAP1 DUP6 PUSH2 0x8A6 JUMP JUMPDEST PUSH1 0x2 DUP8 ADD SLOAD PUSH1 0x40 MLOAD PUSH4 0xBEC3FA17 PUSH1 0xE0 SHL DUP2 MSTORE PUSH1 0x1 PUSH1 0x1 PUSH1 0xA0 SHL SUB DUP9 DUP2 AND PUSH1 0x4 DUP4 ADD MSTORE PUSH1 0x24 DUP3 ADD DUP5 SWAP1 MSTORE SWAP3 SWAP4 POP SWAP2 AND SWAP1 PUSH4 0xBEC3FA17 SWAP1 PUSH1 0x44 ADD PUSH1 0x0 PUSH1 0x40 MLOAD DUP1 DUP4 SUB DUP2 PUSH1 0x0 DUP8 DUP1 EXTCODESIZE ISZERO DUP1 ISZERO PUSH2 0x4CE JUMPI PUSH1 0x0 DUP1 REVERT JUMPDEST POP GAS CALL ISZERO DUP1 ISZERO PUSH2 0x4E2 JUMPI RETURNDATASIZE PUSH1 0x0 DUP1 RETURNDATACOPY RETURNDATASIZE PUSH1 0x0 REVERT JUMPDEST POP POP PUSH1 0x40 DUP1 MLOAD PUSH1 0x1 PUSH1 0x1 PUSH1 0xA0 SHL SUB DUP10 AND DUP2 MSTORE PUSH1 0x20 DUP2 ADD DUP9 SWAP1 MSTORE PUSH32 0x544E8B0E3EF3679366E27DF87030668812CB3284D1ACCCFB1EB8A0E7B26EAD3 SWAP4 POP ADD SWAP1 POP PUSH1 0x40 MLOAD DUP1 SWAP2 SUB SWAP1 LOG1 POP POP POP POP POP POP JUMP JUMPDEST PUSH1 0x0 PUSH1 0x1 PUSH1 0x1 PUSH1 0xA0 SHL SUB DUP3 AND PUSH2 0x583 JUMPI PUSH1 0x40 MLOAD PUSH3 0x461BCD PUSH1 0xE5 SHL DUP2 MSTORE PUSH1 0x20 PUSH1 0x4 DUP3 ADD MSTORE PUSH1 0x17 PUSH1 0x24 DUP3 ADD MSTORE PUSH23 0x616464726573732073686F756C64206E6F74206265203 PUSH1 0x4C SHL PUSH1 0x44 DUP3 ADD MSTORE PUSH1 0x64 ADD PUSH2 0x1BD JUMP JUMPDEST PUSH1 0x0 DUP1 MLOAD PUSH1 0x20 PUSH2 0x921 DUP4 CODECOPY DUP2 MLOAD SWAP2 MSTORE PUSH1 0x0 PUSH2 0x59E DUP3 DUP6 PUSH2 0x5EB JUMP JUMPDEST SWAP1 POP PUSH1 0x0 PUSH2 0x5B9 DUP3 DUP5 PUSH1 0x3 ADD SLOAD PUSH2 0x6CA SWAP1 SWAP2 SWAP1 PUSH4 0xFFFFFFFF AND JUMP JUMPDEST SWAP1 POP PUSH1 0x0 PUSH2 0x5D4 DUP4 DUP9 PUSH1 0x3 ADD SLOAD PUSH2 0x6CA SWAP1 SWAP2 SWAP1 PUSH4 0xFFFFFFFF AND JUMP JUMPDEST SWAP1 POP PUSH2 0x5E0 DUP2 DUP4 PUSH2 0x8C5 JUMP JUMPDEST SWAP8 SWAP7 POP POP POP POP POP POP POP JUMP JUMPDEST PUSH1 0x0 PUSH1 0x1 PUSH1 0x1 PUSH1 0xA0 SHL SUB DUP3 AND PUSH2 0x62F JUMPI PUSH1 0x40 MLOAD PUSH3 0x461BCD PUSH1 0xE5 SHL DUP2 MSTORE PUSH1 0x20 PUSH1 0x4 DUP3 ADD MSTORE PUSH1 0x9 PUSH1 0x24 DUP3 ADD MSTORE PUSH9 0x61646472657373203 PUSH1 0xBC SHL PUSH1 0x44 DUP3 ADD MSTORE PUSH1 0x64 ADD PUSH2 0x1BD JUMP JUMPDEST PUSH1 0x0 JUMPDEST PUSH1 0x1 DUP5 ADD SLOAD DUP2 LT ISZERO PUSH2 0x68B JUMPI DUP4 PUSH1 0x1 ADD DUP2 DUP2 SLOAD DUP2 LT PUSH2 0x653 JUMPI PUSH2 0x653 PUSH2 0x861 JUMP JUMPDEST PUSH1 0x0 SWAP2 DUP3 MSTORE PUSH1 0x20 SWAP1 SWAP2 KECCAK256 ADD SLOAD PUSH1 0x1 PUSH1 0x1 PUSH1 0xA0 SHL SUB SWAP1 DUP2 AND SWAP1 DUP5 AND SUB PUSH2 0x679 JUMPI SWAP1 POP PUSH2 0x3DB JUMP JUMPDEST DUP1 PUSH2 0x683 DUP2 PUSH2 0x88D JUMP JUMPDEST SWAP2 POP POP PUSH2 0x632 JUMP JUMPDEST POP PUSH1 0x40 MLOAD PUSH3 0x461BCD PUSH1 0xE5 SHL DUP2 MSTORE PUSH1 0x20 PUSH1 0x4 DUP3 ADD MSTORE PUSH1 0x13 PUSH1 0x24 DUP3 ADD MSTORE PUSH19 0x1D985B1A59185D1BDC881B9BDD08199BDD5B99 PUSH1 0x6A SHL PUSH1 0x44 DUP3 ADD MSTORE PUSH1 0x64 ADD PUSH2 0x1BD JUMP JUMPDEST PUSH1 0x0 PUSH1 0x8 DUP3 LT PUSH2 0x6EC JUMPI PUSH1 0x40 MLOAD PUSH3 0x461BCD PUSH1 0xE5 SHL DUP2 MSTORE PUSH1 0x4 ADD PUSH2 0x1BD SWAP1 PUSH2 0x8DC JUMP JUMPDEST PUSH1 0x0 PUSH2 0x6FD PUSH1 0x1 PUSH4 0x40000000 PUSH2 0x8C5 JUMP JUMPDEST SWAP1 POP DUP1 PUSH2 0x70B DUP5 PUSH1 0x1E PUSH2 0x8A6 JUMP JUMPDEST DUP6 SWAP1 SHR AND SWAP2 POP POP SWAP3 SWAP2 POP POP JUMP JUMPDEST PUSH1 0x0 PUSH1 0x8 DUP4 LT PUSH2 0x73A JUMPI PUSH1 0x40 MLOAD PUSH3 0x461BCD PUSH1 0xE5 SHL DUP2 MSTORE PUSH1 0x4 ADD PUSH2 0x1BD SWAP1 PUSH2 0x8DC JUMP JUMPDEST PUSH1 0x0 PUSH2 0x746 DUP6 DUP6 PUSH2 0x6CA JUMP JUMPDEST SWAP1 POP PUSH1 0x0 PUSH2 0x754 DUP5 DUP4 PUSH2 0x908 JUMP JUMPDEST SWAP1 POP PUSH2 0x761 DUP7 DUP7 DUP4 PUSH2 0x76B JUMP JUMPDEST SWAP7 SWAP6 POP POP POP POP POP POP JUMP JUMPDEST PUSH1 0x0 PUSH1 0x8 DUP4 LT PUSH2 0x78D JUMPI PUSH1 0x40 MLOAD PUSH3 0x461BCD PUSH1 0xE5 SHL DUP2 MSTORE PUSH1 0x4 ADD PUSH2 0x1BD SWAP1 PUSH2 0x8DC JUMP JUMPDEST PUSH2 0x79C PUSH1 0x1 PUSH4 0x40000000 PUSH2 0x8C5 JUMP JUMPDEST DUP3 GT ISZERO PUSH2 0x7E1 JUMPI PUSH1 0x40 MLOAD PUSH3 0x461BCD PUSH1 0xE5 SHL DUP2 MSTORE PUSH1 0x20 PUSH1 0x4 DUP3 ADD MSTORE PUSH1 0x13 PUSH1 0x24 DUP3 ADD MSTORE PUSH19 0x436C61696D734D61736B204F766572666C6F77 PUSH1 0x68 SHL PUSH1 0x44 DUP3 ADD MSTORE PUSH1 0x64 ADD PUSH2 0x1BD JUMP JUMPDEST PUSH1 0x0 PUSH2 0x7EE DUP5 PUSH1 0x1E PUSH2 0x8A6 JUMP JUMPDEST PUSH2 0x7FD PUSH1 0x1 PUSH4 0x40000000 PUSH2 0x8C5 JUMP JUMPDEST SWAP1 SHL NOT SWAP1 POP DUP5 DUP2 AND PUSH2 0x810 DUP6 PUSH1 0x1E PUSH2 0x8A6 JUMP JUMPDEST SWAP4 SWAP1 SWAP4 SHL SWAP1 SWAP3 OR SWAP5 SWAP4 POP POP POP POP JUMP JUMPDEST PUSH1 0x0 PUSH1 0x20 DUP3 DUP5 SUB SLT ISZERO PUSH2 0x831 JUMPI PUSH1 0x0 DUP1 REVERT JUMPDEST POP CALLDATALOAD SWAP2 SWAP1 POP JUMP JUMPDEST PUSH1 0x0 PUSH1 0x20 DUP3 DUP5 SUB SLT ISZERO PUSH2 0x84A JUMPI PUSH1 0x0 DUP1 REVERT JUMPDEST DUP2 CALLDATALOAD PUSH1 0x1 PUSH1 0x1 PUSH1 0xA0 SHL SUB DUP2 AND DUP2 EQ PUSH2 0x138 JUMPI PUSH1 0x0 DUP1 REVERT JUMPDEST PUSH4 0x4E487B71 PUSH1 0xE0 SHL PUSH1 0x0 MSTORE PUSH1 0x32 PUSH1 0x4 MSTORE PUSH1 0x24 PUSH1 0x0 REVERT JUMPDEST PUSH4 0x4E487B71 PUSH1 0xE0 SHL PUSH1 0x0 MSTORE PUSH1 0x11 PUSH1 0x4 MSTORE PUSH1 0x24 PUSH1 0x0 REVERT JUMPDEST PUSH1 0x0 PUSH1 0x1 DUP3 ADD PUSH2 0x89F JUMPI PUSH2 0x89F PUSH2 0x877 JUMP JUMPDEST POP PUSH1 0x1 ADD SWAP1 JUMP JUMPDEST PUSH1 0x0 DUP2 PUSH1 0x0 NOT DIV DUP4 GT DUP3 ISZERO ISZERO AND ISZERO PUSH2 0x8C0 JUMPI PUSH2 0x8C0 PUSH2 0x877 JUMP JUMPDEST POP MUL SWAP1 JUMP JUMPDEST PUSH1 0x0 DUP3 DUP3 LT ISZERO PUSH2 0x8D7 JUMPI PUSH2 0x8D7 PUSH2 0x877 JUMP JUMPDEST POP SUB SWAP1 JUMP JUMPDEST PUSH1 0x20 DUP1 DUP3 MSTORE PUSH1 0x12 SWAP1 DUP3 ADD MSTORE PUSH18 0x696E646578206F7574206F662072616E6765 PUSH1 0x70 SHL PUSH1 0x40 DUP3 ADD MSTORE PUSH1 0x60 ADD SWAP1 JUMP JUMPDEST PUSH1 0x0 DUP3 NOT DUP3 GT ISZERO PUSH2 0x91B JUMPI PUSH2 0x91B PUSH2 0x877 JUMP JUMPDEST POP ADD SWAP1 JUMP INVALID DUP11 0xB3 PUSH32 0xEF2B2E34C4B62FF9948EE661CDCF34E209D7C20F4D1F6E83085E93B1FC844E22 MSTORE SWAP6 NUMBER 0xD6 0xE7 0x22 0xC6 SELFBALANCE PUSH18 0x71DD50FFE5B412198B92CD9AEEA62BBFABE4 0xCC PUSH20 0xA2646970667358221220A8CA7B0D6FCBE7124D78 0x25 DUP16 DUP3 PUSH27 0xCF5B7FE2F3B1B5A6FAE4F3812B231B0F4F4664736F6C634300080D STOP CALLER "
    },
    "gasEstimates": {
      "creation": {
        "codeDepositCost": "490800",
        "executionCost": "524",
        "totalCost": "491324"
      },
      "external": {
        "getFeeManagerBank()": "2268",
        "getNumClaimsRedeemed(address)": "infinite",
        "numClaimsRedeemable(address)": "infinite",
        "redeemFee(address)": "infinite",
        "resetFeePerClaim(uint256)": "infinite"
      }
    },
    "methodIdentifiers": {
      "getFeeManagerBank()": "6e964cea",
      "getNumClaimsRedeemed(address)": "a859b983",
      "numClaimsRedeemable(address)": "e8f56171",
      "redeemFee(address)": "de7a8d11",
      "resetFeePerClaim(uint256)": "7a5bf67c"
    }
  },
  "storageLayout": {
    "storage": [],
    "types": null
  },
  "userdoc": {
    "events": {
      "FeePerClaimReset(uint256)": {
        "notice": "emitted on resetting feePerClaim"
      },
      "FeeRedeemed(address,uint256)": {
        "notice": "emitted on ERC20 funds redeemed by validator"
      }
    },
    "kind": "user",
    "methods": {
      "getFeeManagerBank()": {
        "notice": "returns the bank used to manage fees"
      },
      "getNumClaimsRedeemed(address)": {
        "notice": "this function can be called to check the number of claims that has been redeemed for the validator"
      },
      "numClaimsRedeemable(address)": {
        "notice": "this function can be called to check the number of claims that's redeemable for the validator"
      },
      "redeemFee(address)": {
        "notice": "this function can be called to redeem fees for validators"
      },
      "resetFeePerClaim(uint256)": {
        "notice": "contract owner can reset the value of fee per claim"
      }
    },
    "version": 1
  }
}