{
  "contractName": "InputFacet",
  "sourceName": "contracts/facets/InputFacet.sol",
  "abi": [
    {
      "anonymous": false,
      "inputs": [
        {
          "indexed": true,
          "internalType": "uint256",
          "name": "epochNumber",
          "type": "uint256"
        },
        {
          "indexed": true,
          "internalType": "uint256",
          "name": "inputIndex",
          "type": "uint256"
        },
        {
          "indexed": false,
          "internalType": "address",
          "name": "sender",
          "type": "address"
        },
        {
          "indexed": false,
          "internalType": "uint256",
          "name": "timestamp",
          "type": "uint256"
        },
        {
          "indexed": false,
          "internalType": "bytes",
          "name": "input",
          "type": "bytes"
        }
      ],
      "name": "InputAdded",
      "type": "event"
    },
    {
      "inputs": [
        {
          "internalType": "bytes",
          "name": "_input",
          "type": "bytes"
        }
      ],
      "name": "addInput",
      "outputs": [
        {
          "internalType": "bytes32",
          "name": "",
          "type": "bytes32"
        }
      ],
      "stateMutability": "nonpayable",
      "type": "function"
    },
    {
      "inputs": [],
      "name": "getCurrentInbox",
      "outputs": [
        {
          "internalType": "uint256",
          "name": "",
          "type": "uint256"
        }
      ],
      "stateMutability": "view",
      "type": "function"
    },
    {
      "inputs": [
        {
          "internalType": "uint256",
          "name": "_index",
          "type": "uint256"
        }
      ],
      "name": "getInput",
      "outputs": [
        {
          "internalType": "bytes32",
          "name": "",
          "type": "bytes32"
        }
      ],
      "stateMutability": "view",
      "type": "function"
    },
    {
      "inputs": [],
      "name": "getNumberOfInputs",
      "outputs": [
        {
          "internalType": "uint256",
          "name": "",
          "type": "uint256"
        }
      ],
      "stateMutability": "view",
      "type": "function"
    }
  ],
  "bytecode": "0x608060405234801561001057600080fd5b50610716806100206000396000f3fe608060405234801561001057600080fd5b506004361061004c5760003560e01c80631ab6dcab14610051578063a459600e14610086578063e795524414610099578063f32078e8146100a1575b600080fd5b7f943d5d24442f02461445e15c5d7d4a4ef0acb0d32c5d6f6af37a688224991302545b60405190815260200160405180910390f35b610074610094366004610550565b6100b4565b6100746100e8565b6100746100af366004610569565b61011a565b60007f943d5d24442f02461445e15c5d7d4a4ef0acb0d32c5d6f6af37a6882249912ff6100e1818461018a565b9392505050565b60007f943d5d24442f02461445e15c5d7d4a4ef0acb0d32c5d6f6af37a6882249912ff610114816101e4565b91505090565b6000807f943d5d24442f02461445e15c5d7d4a4ef0acb0d32c5d6f6af37a6882249912ff905061018284848080601f01602080910402602001604051908101604052809392919081815260200183838082843760009201919091525085939250506102059050565b949350505050565b600082600301546000146101bd578260000182815481106101ad576101ad6105db565b90600052602060002001546100e1565b8260010182815481106101d2576101d26105db565b90600052602060002001549392505050565b600081600301546000146101f95781546101ff565b60018201545b92915050565b60006100e18383336000807fd32d7f90491bee81172a406b65f3270d810392fe53bb0379dde8bdd4e624189c905084600201548451111561028c5760405162461bcd60e51b815260206004820152601860248201527f696e707574206c656e3a205b302c647269766553697a655d0000000000000000604482015260640160405180910390fd5b610295816103b7565b156102a3576102a38561048f565b600085600301546000146102ba57856001016102bc565b855b905060006102c9836104ae565b8254604080516001600160a01b03891660208083019190915243828401524260608301526080820185905260a08083018590528351808403909101815260c0830184528051908201208b518c83012060e0840182905261010080850182905285518086039091018152610120909401909452825192820192909220600180860189556000898152929092209094018490558654949550909391929161036e9190610607565b847fa15a0da5519c084484141aaa73e525cee96062f5decc97e070f0c4da27738bc78a428d6040516103a29392919061061e565b60405180910390a39998505050505050505050565b60018101546000908190600160801b900463ffffffff1660028111156103df576103df61068a565b600184015490915063ffffffff6801000000000000000082048116911660008360028111156104105761041061068a565b148015610425575061042281836106a0565b42115b15610484576001858101805463ffffffff60801b1916600160801b1790556040517fed606d544c2202d032d2626c390923e6f260ca5d89625bba0cfe70d2bdda4e8f91610471916106b8565b60405180910390a1506001949350505050565b506000949350505050565b6003810154156104a05760006104a3565b60015b60ff16600390910155565b7f0635ad75fae4d4e8d896461a635d23700076a1c3fd8da26276f18cb1c09ea5675460018201546000917f0635ad75fae4d4e8d896461a635d23700076a1c3fd8da26276f18cb1c09ea566918390600160801b900463ffffffff16600281111561051a5761051a61068a565b905060008160028111156105305761053061068a565b14610545576105408260016106a0565b610547565b815b95945050505050565b60006020828403121561056257600080fd5b5035919050565b6000806020838503121561057c57600080fd5b823567ffffffffffffffff8082111561059457600080fd5b818501915085601f8301126105a857600080fd5b8135818111156105b757600080fd5b8660208285010111156105c957600080fd5b60209290920196919550909350505050565b634e487b7160e01b600052603260045260246000fd5b634e487b7160e01b600052601160045260246000fd5b600082821015610619576106196105f1565b500390565b60018060a01b038416815260006020848184015260606040840152835180606085015260005b8181101561066057858101830151858201608001528201610644565b81811115610672576000608083870101525b50601f01601f19169290920160800195945050505050565b634e487b7160e01b600052602160045260246000fd5b600082198211156106b3576106b36105f1565b500190565b60208101600383106106da57634e487b7160e01b600052602160045260246000fd5b9190529056fea2646970667358221220b7acf881afa8f649767310743913d63f642965c52c5a438c8007606ec8677ecb64736f6c634300080d0033",
  "linkReferences": {},
  "deployedLinkReferences": {},
  "devdoc": {
    "kind": "dev",
    "methods": {
      "addInput(bytes)": {
        "details": "offchain code is responsible for making sure      that input size is power of 2 and multiple of 8 since",
        "params": {
          "_input": "input to be understood by offchain machine"
        }
      },
      "getCurrentInbox()": {
        "returns": {
          "_0": "input inbox currently receiveing inputs"
        }
      },
      "getInput(uint256)": {
        "details": "currentInputBox being zero means that the inputs for      the claimed epoch are on input box one",
        "params": {
          "_index": "index of input inside that inbox"
        },
        "returns": {
          "_0": "hash of input at index _index"
        }
      },
      "getNumberOfInputs()": {
        "details": "currentInputBox being zero means that the inputs for      the claimed epoch are on input box one",
        "returns": {
          "_0": "number of inputs on that input box"
        }
      }
    },
    "version": 1
  },
  "evm": {
    "bytecode": {
      "linkReferences": {},
      "opcodes": "PUSH1 0x80 PUSH1 0x40 MSTORE CALLVALUE DUP1 ISZERO PUSH2 0x10 JUMPI PUSH1 0x0 DUP1 REVERT JUMPDEST POP PUSH2 0x716 DUP1 PUSH2 0x20 PUSH1 0x0 CODECOPY PUSH1 0x0 RETURN INVALID PUSH1 0x80 PUSH1 0x40 MSTORE CALLVALUE DUP1 ISZERO PUSH2 0x10 JUMPI PUSH1 0x0 DUP1 REVERT JUMPDEST POP PUSH1 0x4 CALLDATASIZE LT PUSH2 0x4C JUMPI PUSH1 0x0 CALLDATALOAD PUSH1 0xE0 SHR DUP1 PUSH4 0x1AB6DCAB EQ PUSH2 0x51 JUMPI DUP1 PUSH4 0xA459600E EQ PUSH2 0x86 JUMPI DUP1 PUSH4 0xE7955244 EQ PUSH2 0x99 JUMPI DUP1 PUSH4 0xF32078E8 EQ PUSH2 0xA1 JUMPI JUMPDEST PUSH1 0x0 DUP1 REVERT JUMPDEST PUSH32 0x943D5D24442F02461445E15C5D7D4A4EF0ACB0D32C5D6F6AF37A688224991302 SLOAD JUMPDEST PUSH1 0x40 MLOAD SWAP1 DUP2 MSTORE PUSH1 0x20 ADD PUSH1 0x40 MLOAD DUP1 SWAP2 SUB SWAP1 RETURN JUMPDEST PUSH2 0x74 PUSH2 0x94 CALLDATASIZE PUSH1 0x4 PUSH2 0x550 JUMP JUMPDEST PUSH2 0xB4 JUMP JUMPDEST PUSH2 0x74 PUSH2 0xE8 JUMP JUMPDEST PUSH2 0x74 PUSH2 0xAF CALLDATASIZE PUSH1 0x4 PUSH2 0x569 JUMP JUMPDEST PUSH2 0x11A JUMP JUMPDEST PUSH1 0x0 PUSH32 0x943D5D24442F02461445E15C5D7D4A4EF0ACB0D32C5D6F6AF37A6882249912FF PUSH2 0xE1 DUP2 DUP5 PUSH2 0x18A JUMP JUMPDEST SWAP4 SWAP3 POP POP POP JUMP JUMPDEST PUSH1 0x0 PUSH32 0x943D5D24442F02461445E15C5D7D4A4EF0ACB0D32C5D6F6AF37A6882249912FF PUSH2 0x114 DUP2 PUSH2 0x1E4 JUMP JUMPDEST SWAP2 POP POP SWAP1 JUMP JUMPDEST PUSH1 0x0 DUP1 PUSH32 0x943D5D24442F02461445E15C5D7D4A4EF0ACB0D32C5D6F6AF37A6882249912FF SWAP1 POP PUSH2 0x182 DUP5 DUP5 DUP1 DUP1 PUSH1 0x1F ADD PUSH1 0x20 DUP1 SWAP2 DIV MUL PUSH1 0x20 ADD PUSH1 0x40 MLOAD SWAP1 DUP2 ADD PUSH1 0x40 MSTORE DUP1 SWAP4 SWAP3 SWAP2 SWAP1 DUP2 DUP2 MSTORE PUSH1 0x20 ADD DUP4 DUP4 DUP1 DUP3 DUP5 CALLDATACOPY PUSH1 0x0 SWAP3 ADD SWAP2 SWAP1 SWAP2 MSTORE POP DUP6 SWAP4 SWAP3 POP POP PUSH2 0x205 SWAP1 POP JUMP JUMPDEST SWAP5 SWAP4 POP POP POP POP JUMP JUMPDEST PUSH1 0x0 DUP3 PUSH1 0x3 ADD SLOAD PUSH1 0x0 EQ PUSH2 0x1BD JUMPI DUP3 PUSH1 0x0 ADD DUP3 DUP2 SLOAD DUP2 LT PUSH2 0x1AD JUMPI PUSH2 0x1AD PUSH2 0x5DB JUMP JUMPDEST SWAP1 PUSH1 0x0 MSTORE PUSH1 0x20 PUSH1 0x0 KECCAK256 ADD SLOAD PUSH2 0xE1 JUMP JUMPDEST DUP3 PUSH1 0x1 ADD DUP3 DUP2 SLOAD DUP2 LT PUSH2 0x1D2 JUMPI PUSH2 0x1D2 PUSH2 0x5DB JUMP JUMPDEST SWAP1 PUSH1 0x0 MSTORE PUSH1 0x20 PUSH1 0x0 KECCAK256 ADD SLOAD SWAP4 SWAP3 POP POP POP JUMP JUMPDEST PUSH1 0x0 DUP2 PUSH1 0x3 ADD SLOAD PUSH1 0x0 EQ PUSH2 0x1F9 JUMPI DUP2 SLOAD PUSH2 0x1FF JUMP JUMPDEST PUSH1 0x1 DUP3 ADD SLOAD JUMPDEST SWAP3 SWAP2 POP POP JUMP JUMPDEST PUSH1 0x0 PUSH2 0xE1 DUP4 DUP4 CALLER PUSH1 0x0 DUP1 PUSH32 0xD32D7F90491BEE81172A406B65F3270D810392FE53BB0379DDE8BDD4E624189C SWAP1 POP DUP5 PUSH1 0x2 ADD SLOAD DUP5 MLOAD GT ISZERO PUSH2 0x28C JUMPI PUSH1 0x40 MLOAD PUSH3 0x461BCD PUSH1 0xE5 SHL DUP2 MSTORE PUSH1 0x20 PUSH1 0x4 DUP3 ADD MSTORE PUSH1 0x18 PUSH1 0x24 DUP3 ADD MSTORE PUSH32 0x696E707574206C656E3A205B302C647269766553697A655D0000000000000000 PUSH1 0x44 DUP3 ADD MSTORE PUSH1 0x64 ADD PUSH1 0x40 MLOAD DUP1 SWAP2 SUB SWAP1 REVERT JUMPDEST PUSH2 0x295 DUP2 PUSH2 0x3B7 JUMP JUMPDEST ISZERO PUSH2 0x2A3 JUMPI PUSH2 0x2A3 DUP6 PUSH2 0x48F JUMP JUMPDEST PUSH1 0x0 DUP6 PUSH1 0x3 ADD SLOAD PUSH1 0x0 EQ PUSH2 0x2BA JUMPI DUP6 PUSH1 0x1 ADD PUSH2 0x2BC JUMP JUMPDEST DUP6 JUMPDEST SWAP1 POP PUSH1 0x0 PUSH2 0x2C9 DUP4 PUSH2 0x4AE JUMP JUMPDEST DUP3 SLOAD PUSH1 0x40 DUP1 MLOAD PUSH1 0x1 PUSH1 0x1 PUSH1 0xA0 SHL SUB DUP10 AND PUSH1 0x20 DUP1 DUP4 ADD SWAP2 SWAP1 SWAP2 MSTORE NUMBER DUP3 DUP5 ADD MSTORE TIMESTAMP PUSH1 0x60 DUP4 ADD MSTORE PUSH1 0x80 DUP3 ADD DUP6 SWAP1 MSTORE PUSH1 0xA0 DUP1 DUP4 ADD DUP6 SWAP1 MSTORE DUP4 MLOAD DUP1 DUP5 SUB SWAP1 SWAP2 ADD DUP2 MSTORE PUSH1 0xC0 DUP4 ADD DUP5 MSTORE DUP1 MLOAD SWAP1 DUP3 ADD KECCAK256 DUP12 MLOAD DUP13 DUP4 ADD KECCAK256 PUSH1 0xE0 DUP5 ADD DUP3 SWAP1 MSTORE PUSH2 0x100 DUP1 DUP6 ADD DUP3 SWAP1 MSTORE DUP6 MLOAD DUP1 DUP7 SUB SWAP1 SWAP2 ADD DUP2 MSTORE PUSH2 0x120 SWAP1 SWAP5 ADD SWAP1 SWAP5 MSTORE DUP3 MLOAD SWAP3 DUP3 ADD SWAP3 SWAP1 SWAP3 KECCAK256 PUSH1 0x1 DUP1 DUP7 ADD DUP10 SSTORE PUSH1 0x0 DUP10 DUP2 MSTORE SWAP3 SWAP1 SWAP3 KECCAK256 SWAP1 SWAP5 ADD DUP5 SWAP1 SSTORE DUP7 SLOAD SWAP5 SWAP6 POP SWAP1 SWAP4 SWAP2 SWAP3 SWAP2 PUSH2 0x36E SWAP2 SWAP1 PUSH2 0x607 JUMP JUMPDEST DUP5 PUSH32 0xA15A0DA5519C084484141AAA73E525CEE96062F5DECC97E070F0C4DA27738BC7 DUP11 TIMESTAMP DUP14 PUSH1 0x40 MLOAD PUSH2 0x3A2 SWAP4 SWAP3 SWAP2 SWAP1 PUSH2 0x61E JUMP JUMPDEST PUSH1 0x40 MLOAD DUP1 SWAP2 SUB SWAP1 LOG3 SWAP10 SWAP9 POP POP POP POP POP POP POP POP POP JUMP JUMPDEST PUSH1 0x1 DUP2 ADD SLOAD PUSH1 0x0 SWAP1 DUP2 SWAP1 PUSH1 0x1 PUSH1 0x80 SHL SWAP1 DIV PUSH4 0xFFFFFFFF AND PUSH1 0x2 DUP2 GT ISZERO PUSH2 0x3DF JUMPI PUSH2 0x3DF PUSH2 0x68A JUMP JUMPDEST PUSH1 0x1 DUP5 ADD SLOAD SWAP1 SWAP2 POP PUSH4 0xFFFFFFFF PUSH9 0x10000000000000000 DUP3 DIV DUP2 AND SWAP2 AND PUSH1 0x0 DUP4 PUSH1 0x2 DUP2 GT ISZERO PUSH2 0x410 JUMPI PUSH2 0x410 PUSH2 0x68A JUMP JUMPDEST EQ DUP1 ISZERO PUSH2 0x425 JUMPI POP PUSH2 0x422 DUP2 DUP4 PUSH2 0x6A0 JUMP JUMPDEST TIMESTAMP GT JUMPDEST ISZERO PUSH2 0x484 JUMPI PUSH1 0x1 DUP6 DUP2 ADD DUP1 SLOAD PUSH4 0xFFFFFFFF PUSH1 0x80 SHL NOT AND PUSH1 0x1 PUSH1 0x80 SHL OR SWAP1 SSTORE PUSH1 0x40 MLOAD PUSH32 0xED606D544C2202D032D2626C390923E6F260CA5D89625BBA0CFE70D2BDDA4E8F SWAP2 PUSH2 0x471 SWAP2 PUSH2 0x6B8 JUMP JUMPDEST PUSH1 0x40 MLOAD DUP1 SWAP2 SUB SWAP1 LOG1 POP PUSH1 0x1 SWAP5 SWAP4 POP POP POP POP JUMP JUMPDEST POP PUSH1 0x0 SWAP5 SWAP4 POP POP POP POP JUMP JUMPDEST PUSH1 0x3 DUP2 ADD SLOAD ISZERO PUSH2 0x4A0 JUMPI PUSH1 0x0 PUSH2 0x4A3 JUMP JUMPDEST PUSH1 0x1 JUMPDEST PUSH1 0xFF AND PUSH1 0x3 SWAP1 SWAP2 ADD SSTORE JUMP JUMPDEST PUSH32 0x635AD75FAE4D4E8D896461A635D23700076A1C3FD8DA26276F18CB1C09EA567 SLOAD PUSH1 0x1 DUP3 ADD SLOAD PUSH1 0x0 SWAP2 PUSH32 0x635AD75FAE4D4E8D896461A635D23700076A1C3FD8DA26276F18CB1C09EA566 SWAP2 DUP4 SWAP1 PUSH1 0x1 PUSH1 0x80 SHL SWAP1 DIV PUSH4 0xFFFFFFFF AND PUSH1 0x2 DUP2 GT ISZERO PUSH2 0x51A JUMPI PUSH2 0x51A PUSH2 0x68A JUMP JUMPDEST SWAP1 POP PUSH1 0x0 DUP2 PUSH1 0x2 DUP2 GT ISZERO PUSH2 0x530 JUMPI PUSH2 0x530 PUSH2 0x68A JUMP JUMPDEST EQ PUSH2 0x545 JUMPI PUSH2 0x540 DUP3 PUSH1 0x1 PUSH2 0x6A0 JUMP JUMPDEST PUSH2 0x547 JUMP JUMPDEST DUP2 JUMPDEST SWAP6 SWAP5 POP POP POP POP POP JUMP JUMPDEST PUSH1 0x0 PUSH1 0x20 DUP3 DUP5 SUB SLT ISZERO PUSH2 0x562 JUMPI PUSH1 0x0 DUP1 REVERT JUMPDEST POP CALLDATALOAD SWAP2 SWAP1 POP JUMP JUMPDEST PUSH1 0x0 DUP1 PUSH1 0x20 DUP4 DUP6 SUB SLT ISZERO PUSH2 0x57C JUMPI PUSH1 0x0 DUP1 REVERT JUMPDEST DUP3 CALLDATALOAD PUSH8 0xFFFFFFFFFFFFFFFF DUP1 DUP3 GT ISZERO PUSH2 0x594 JUMPI PUSH1 0x0 DUP1 REVERT JUMPDEST DUP2 DUP6 ADD SWAP2 POP DUP6 PUSH1 0x1F DUP4 ADD SLT PUSH2 0x5A8 JUMPI PUSH1 0x0 DUP1 REVERT JUMPDEST DUP2 CALLDATALOAD DUP2 DUP2 GT ISZERO PUSH2 0x5B7 JUMPI PUSH1 0x0 DUP1 REVERT JUMPDEST DUP7 PUSH1 0x20 DUP3 DUP6 ADD ADD GT ISZERO PUSH2 0x5C9 JUMPI PUSH1 0x0 DUP1 REVERT JUMPDEST PUSH1 0x20 SWAP3 SWAP1 SWAP3 ADD SWAP7 SWAP2 SWAP6 POP SWAP1 SWAP4 POP POP POP POP JUMP JUMPDEST PUSH4 0x4E487B71 PUSH1 0xE0 SHL PUSH1 0x0 MSTORE PUSH1 0x32 PUSH1 0x4 MSTORE PUSH1 0x24 PUSH1 0x0 REVERT JUMPDEST PUSH4 0x4E487B71 PUSH1 0xE0 SHL PUSH1 0x0 MSTORE PUSH1 0x11 PUSH1 0x4 MSTORE PUSH1 0x24 PUSH1 0x0 REVERT JUMPDEST PUSH1 0x0 DUP3 DUP3 LT ISZERO PUSH2 0x619 JUMPI PUSH2 0x619 PUSH2 0x5F1 JUMP JUMPDEST POP SUB SWAP1 JUMP JUMPDEST PUSH1 0x1 DUP1 PUSH1 0xA0 SHL SUB DUP5 AND DUP2 MSTORE PUSH1 0x0 PUSH1 0x20 DUP5 DUP2 DUP5 ADD MSTORE PUSH1 0x60 PUSH1 0x40 DUP5 ADD MSTORE DUP4 MLOAD DUP1 PUSH1 0x60 DUP6 ADD MSTORE PUSH1 0x0 JUMPDEST DUP2 DUP2 LT ISZERO PUSH2 0x660 JUMPI DUP6 DUP2 ADD DUP4 ADD MLOAD DUP6 DUP3 ADD PUSH1 0x80 ADD MSTORE DUP3 ADD PUSH2 0x644 JUMP JUMPDEST DUP2 DUP2 GT ISZERO PUSH2 0x672 JUMPI PUSH1 0x0 PUSH1 0x80 DUP4 DUP8 ADD ADD MSTORE JUMPDEST POP PUSH1 0x1F ADD PUSH1 0x1F NOT AND SWAP3 SWAP1 SWAP3 ADD PUSH1 0x80 ADD SWAP6 SWAP5 POP POP POP POP POP JUMP JUMPDEST PUSH4 0x4E487B71 PUSH1 0xE0 SHL PUSH1 0x0 MSTORE PUSH1 0x21 PUSH1 0x4 MSTORE PUSH1 0x24 PUSH1 0x0 REVERT JUMPDEST PUSH1 0x0 DUP3 NOT DUP3 GT ISZERO PUSH2 0x6B3 JUMPI PUSH2 0x6B3 PUSH2 0x5F1 JUMP JUMPDEST POP ADD SWAP1 JUMP JUMPDEST PUSH1 0x20 DUP2 ADD PUSH1 0x3 DUP4 LT PUSH2 0x6DA JUMPI PUSH4 0x4E487B71 PUSH1 0xE0 SHL PUSH1 0x0 MSTORE PUSH1 0x21 PUSH1 0x4 MSTORE PUSH1 0x24 PUSH1 0x0 REVERT JUMPDEST SWAP2 SWAP1 MSTORE SWAP1 JUMP INVALID LOG2 PUSH5 0x6970667358 0x22 SLT KECCAK256 0xB7 0xAC 0xF8 DUP2 0xAF 0xA8 0xF6 0x49 PUSH23 0x7310743913D63F642965C52C5A438C8007606EC8677ECB PUSH5 0x736F6C6343 STOP ADDMOD 0xD STOP CALLER "
    },
    "gasEstimates": {
      "creation": {
        "codeDepositCost": "362800",
        "executionCost": "399",
        "totalCost": "363199"
      },
      "external": {
        "addInput(bytes)": "infinite",
        "getCurrentInbox()": "2247",
        "getInput(uint256)": "6747",
        "getNumberOfInputs()": "4510"
      }
    },
    "methodIdentifiers": {
      "addInput(bytes)": "f32078e8",
      "getCurrentInbox()": "1ab6dcab",
      "getInput(uint256)": "a459600e",
      "getNumberOfInputs()": "e7955244"
    }
  },
  "storageLayout": {
    "storage": [],
    "types": null
  },
  "userdoc": {
    "events": {
      "InputAdded(uint256,uint256,address,uint256,bytes)": {
        "notice": "input added"
      }
    },
    "kind": "user",
    "methods": {
      "addInput(bytes)": {
        "notice": "add input to processed by next epoch"
      },
      "getCurrentInbox()": {
        "notice": "get inbox currently receiveing inputs"
      },
      "getInput(uint256)": {
        "notice": "get input inside inbox of currently proposed claim"
      },
      "getNumberOfInputs()": {
        "notice": "get number of inputs inside inbox of currently proposed claim"
      }
    },
    "version": 1
  }
}