{
  "contractName": "LibClaimsMask",
  "sourceName": "contracts/libraries/LibClaimsMask.sol",
  "abi": [
    {
      "inputs": [
        {
          "internalType": "ClaimsMask",
          "name": "_claimsMask",
          "type": "uint256"
        },
        {
          "internalType": "uint256",
          "name": "_validatorIndex",
          "type": "uint256"
        }
      ],
      "name": "alreadyClaimed",
      "outputs": [
        {
          "internalType": "bool",
          "name": "",
          "type": "bool"
        }
      ],
      "stateMutability": "pure",
      "type": "function"
    },
    {
      "inputs": [
        {
          "internalType": "ClaimsMask",
          "name": "_claimsMask",
          "type": "uint256"
        }
      ],
      "name": "clearAgreementMask",
      "outputs": [
        {
          "internalType": "ClaimsMask",
          "name": "",
          "type": "uint256"
        }
      ],
      "stateMutability": "pure",
      "type": "function"
    },
    {
      "inputs": [
        {
          "internalType": "ClaimsMask",
          "name": "_claimsMask",
          "type": "uint256"
        }
      ],
      "name": "getAgreementMask",
      "outputs": [
        {
          "internalType": "uint256",
          "name": "",
          "type": "uint256"
        }
      ],
      "stateMutability": "pure",
      "type": "function"
    },
    {
      "inputs": [
        {
          "internalType": "ClaimsMask",
          "name": "_claimsMask",
          "type": "uint256"
        }
      ],
      "name": "getConsensusGoalMask",
      "outputs": [
        {
          "internalType": "uint256",
          "name": "",
          "type": "uint256"
        }
      ],
      "stateMutability": "pure",
      "type": "function"
    },
    {
      "inputs": [
        {
          "internalType": "ClaimsMask",
          "name": "_claimsMask",
          "type": "uint256"
        },
        {
          "internalType": "uint256",
          "name": "_validatorIndex",
          "type": "uint256"
        }
      ],
      "name": "getNumClaims",
      "outputs": [
        {
          "internalType": "uint256",
          "name": "",
          "type": "uint256"
        }
      ],
      "stateMutability": "pure",
      "type": "function"
    },
    {
      "inputs": [
        {
          "internalType": "ClaimsMask",
          "name": "_claimsMask",
          "type": "uint256"
        },
        {
          "internalType": "uint256",
          "name": "_validatorIndex",
          "type": "uint256"
        },
        {
          "internalType": "uint256",
          "name": "_value",
          "type": "uint256"
        }
      ],
      "name": "increaseNumClaims",
      "outputs": [
        {
          "internalType": "ClaimsMask",
          "name": "",
          "type": "uint256"
        }
      ],
      "stateMutability": "pure",
      "type": "function"
    },
    {
      "inputs": [
        {
          "internalType": "uint256",
          "name": "_value",
          "type": "uint256"
        }
      ],
      "name": "newClaimsMask",
      "outputs": [
        {
          "internalType": "ClaimsMask",
          "name": "",
          "type": "uint256"
        }
      ],
      "stateMutability": "pure",
      "type": "function"
    },
    {
      "inputs": [
        {
          "internalType": "uint256",
          "name": "_numValidators",
          "type": "uint256"
        }
      ],
      "name": "newClaimsMaskWithConsensusGoalSet",
      "outputs": [
        {
          "internalType": "ClaimsMask",
          "name": "",
          "type": "uint256"
        }
      ],
      "stateMutability": "pure",
      "type": "function"
    },
    {
      "inputs": [
        {
          "internalType": "ClaimsMask",
          "name": "_claimsMask",
          "type": "uint256"
        },
        {
          "internalType": "uint256",
          "name": "_validatorIndex",
          "type": "uint256"
        }
      ],
      "name": "removeValidator",
      "outputs": [
        {
          "internalType": "ClaimsMask",
          "name": "",
          "type": "uint256"
        }
      ],
      "stateMutability": "pure",
      "type": "function"
    },
    {
      "inputs": [
        {
          "internalType": "ClaimsMask",
          "name": "_claimsMask",
          "type": "uint256"
        },
        {
          "internalType": "uint256",
          "name": "_validatorIndex",
          "type": "uint256"
        }
      ],
      "name": "setAgreementMask",
      "outputs": [
        {
          "internalType": "ClaimsMask",
          "name": "",
          "type": "uint256"
        }
      ],
      "stateMutability": "pure",
      "type": "function"
    },
    {
      "inputs": [
        {
          "internalType": "ClaimsMask",
          "name": "_claimsMask",
          "type": "uint256"
        },
        {
          "internalType": "uint256",
          "name": "_validatorIndex",
          "type": "uint256"
        },
        {
          "internalType": "uint256",
          "name": "_value",
          "type": "uint256"
        }
      ],
      "name": "setNumClaims",
      "outputs": [
        {
          "internalType": "ClaimsMask",
          "name": "",
          "type": "uint256"
        }
      ],
      "stateMutability": "pure",
      "type": "function"
    }
  ],
  "bytecode": "0x61055161003a600b82828239805160001a60731461002d57634e487b7160e01b600052600060045260246000fd5b30600052607381538281f3fe73000000000000000000000000000000000000000030146080604052600436106100b35760003560e01c8063cb9f88131161007b578063cb9f881314610128578063cd70835c14610156578063cf7b90a614610169578063d4056ffe14610183578063de7fb2801461019a578063fa95f400146101ad57600080fd5b806352f1d2b4146100b8578063574125c2146100de5780638336d005146100f1578063a8c5d8f414610102578063ac266b8c14610115575b600080fd5b6100cb6100c6366004610424565b6101c1565b6040519081526020015b60405180910390f35b6100cb6100ec366004610450565b61021d565b6100cb6100ff366004610450565b90565b6100cb610110366004610469565b61027e565b6100cb610123366004610469565b6102cc565b610146610136366004610469565b60f89190911c901c600116151590565b60405190151581526020016100d5565b6100cb610164366004610469565b610332565b6100cb610177366004610450565b6001600160f81b031690565b6100cb610191366004610450565b60f01c60ff1690565b6100cb6101a8366004610424565b610370565b6100cb6101bb366004610450565b60f81c90565b6000600883106101ec5760405162461bcd60e51b81526004016101e39061048b565b60405180910390fd5b60006101f8858561027e565b9050600061020684836104cd565b9050610213868683610370565b9695505050505050565b600060088211156102655760405162461bcd60e51b8152602060048201526012602482015271757020746f20382076616c696461746f727360701b60448201526064016101e3565b6000610274600180851b6104e5565b60f01b9392505050565b6000600882106102a05760405162461bcd60e51b81526004016101e39061048b565b60006102b1600163400000006104e5565b9050806102bf84601e6104fc565b85901c1691505092915050565b6000600882106102ee5760405162461bcd60e51b81526004016101e39061048b565b8260006102fc8460f86104cd565b6001901b199182169190506103128460f06104cd565b6001901b1991821691905061032982856000610370565b95945050505050565b6000600882106103545760405162461bcd60e51b81526004016101e39061048b565b60006103618360f86104cd565b6001901b841791505092915050565b6000600883106103925760405162461bcd60e51b81526004016101e39061048b565b6103a1600163400000006104e5565b8211156103e65760405162461bcd60e51b8152602060048201526013602482015272436c61696d734d61736b204f766572666c6f7760681b60448201526064016101e3565b60006103f384601e6104fc565b610402600163400000006104e5565b901b19905084811661041585601e6104fc565b9390931b909217949350505050565b60008060006060848603121561043957600080fd5b505081359360208301359350604090920135919050565b60006020828403121561046257600080fd5b5035919050565b6000806040838503121561047c57600080fd5b50508035926020909101359150565b602080825260129082015271696e646578206f7574206f662072616e676560701b604082015260600190565b634e487b7160e01b600052601160045260246000fd5b600082198211156104e0576104e06104b7565b500190565b6000828210156104f7576104f76104b7565b500390565b6000816000190483118215151615610516576105166104b7565b50029056fea26469706673582212203b7b0bad37adb9cc5e0857b6fa086328302081fb7c5a8152c39eef0f6358c04c64736f6c634300080d0033",
  "linkReferences": {},
  "deployedLinkReferences": {},
  "devdoc": {
    "kind": "dev",
    "methods": {
      "alreadyClaimed(uint256,uint256)": {
        "params": {
          "_claimsMask": "the ClaimsMask value",
          "_validatorIndex": "index of the validator in the validator array, starting from 0"
        }
      },
      "clearAgreementMask(uint256)": {
        "params": {
          "_claimsMask": "the ClaimsMask value"
        }
      },
      "getAgreementMask(uint256)": {
        "params": {
          "_claimsMask": "the ClaimsMask value"
        }
      },
      "getConsensusGoalMask(uint256)": {
        "params": {
          "_claimsMask": "the ClaimsMask value"
        }
      },
      "getNumClaims(uint256,uint256)": {
        "params": {
          "_claimsMask": "the ClaimsMask value",
          "_validatorIndex": "index of the validator in the validator array, starting from 0     this index can be obtained though `getNumberOfClaimsByIndex` function in Validator Manager"
        }
      },
      "increaseNumClaims(uint256,uint256,uint256)": {
        "params": {
          "_claimsMask": "the ClaimsMask value",
          "_validatorIndex": "index of the validator in the validator array, starting from 0",
          "_value": "the increase amount"
        }
      },
      "newClaimsMask(uint256)": {
        "params": {
          "_value": "the value following the format of ClaimsMask"
        }
      },
      "newClaimsMaskWithConsensusGoalSet(uint256)": {
        "params": {
          "_numValidators": "the number of validators"
        }
      },
      "removeValidator(uint256,uint256)": {
        "params": {
          "_claimsMask": "the ClaimsMask value",
          "_validatorIndex": "index of the validator in the validator array, starting from 0"
        }
      },
      "setAgreementMask(uint256,uint256)": {
        "params": {
          "_claimsMask": "the ClaimsMask value",
          "_validatorIndex": "index of the validator in the validator array, starting from 0"
        }
      },
      "setNumClaims(uint256,uint256,uint256)": {
        "params": {
          "_claimsMask": "the ClaimsMask value",
          "_validatorIndex": "index of the validator in the validator array, starting from 0",
          "_value": "the set value"
        }
      }
    },
    "version": 1
  },
  "evm": {
    "bytecode": {
      "linkReferences": {},
      "opcodes": "PUSH2 0x551 PUSH2 0x3A PUSH1 0xB DUP3 DUP3 DUP3 CODECOPY DUP1 MLOAD PUSH1 0x0 BYTE PUSH1 0x73 EQ PUSH2 0x2D JUMPI PUSH4 0x4E487B71 PUSH1 0xE0 SHL PUSH1 0x0 MSTORE PUSH1 0x0 PUSH1 0x4 MSTORE PUSH1 0x24 PUSH1 0x0 REVERT JUMPDEST ADDRESS PUSH1 0x0 MSTORE PUSH1 0x73 DUP2 MSTORE8 DUP3 DUP2 RETURN INVALID PUSH20 0x0 ADDRESS EQ PUSH1 0x80 PUSH1 0x40 MSTORE PUSH1 0x4 CALLDATASIZE LT PUSH2 0xB3 JUMPI PUSH1 0x0 CALLDATALOAD PUSH1 0xE0 SHR DUP1 PUSH4 0xCB9F8813 GT PUSH2 0x7B JUMPI DUP1 PUSH4 0xCB9F8813 EQ PUSH2 0x128 JUMPI DUP1 PUSH4 0xCD70835C EQ PUSH2 0x156 JUMPI DUP1 PUSH4 0xCF7B90A6 EQ PUSH2 0x169 JUMPI DUP1 PUSH4 0xD4056FFE EQ PUSH2 0x183 JUMPI DUP1 PUSH4 0xDE7FB280 EQ PUSH2 0x19A JUMPI DUP1 PUSH4 0xFA95F400 EQ PUSH2 0x1AD JUMPI PUSH1 0x0 DUP1 REVERT JUMPDEST DUP1 PUSH4 0x52F1D2B4 EQ PUSH2 0xB8 JUMPI DUP1 PUSH4 0x574125C2 EQ PUSH2 0xDE JUMPI DUP1 PUSH4 0x8336D005 EQ PUSH2 0xF1 JUMPI DUP1 PUSH4 0xA8C5D8F4 EQ PUSH2 0x102 JUMPI DUP1 PUSH4 0xAC266B8C EQ PUSH2 0x115 JUMPI JUMPDEST PUSH1 0x0 DUP1 REVERT JUMPDEST PUSH2 0xCB PUSH2 0xC6 CALLDATASIZE PUSH1 0x4 PUSH2 0x424 JUMP JUMPDEST PUSH2 0x1C1 JUMP JUMPDEST PUSH1 0x40 MLOAD SWAP1 DUP2 MSTORE PUSH1 0x20 ADD JUMPDEST PUSH1 0x40 MLOAD DUP1 SWAP2 SUB SWAP1 RETURN JUMPDEST PUSH2 0xCB PUSH2 0xEC CALLDATASIZE PUSH1 0x4 PUSH2 0x450 JUMP JUMPDEST PUSH2 0x21D JUMP JUMPDEST PUSH2 0xCB PUSH2 0xFF CALLDATASIZE PUSH1 0x4 PUSH2 0x450 JUMP JUMPDEST SWAP1 JUMP JUMPDEST PUSH2 0xCB PUSH2 0x110 CALLDATASIZE PUSH1 0x4 PUSH2 0x469 JUMP JUMPDEST PUSH2 0x27E JUMP JUMPDEST PUSH2 0xCB PUSH2 0x123 CALLDATASIZE PUSH1 0x4 PUSH2 0x469 JUMP JUMPDEST PUSH2 0x2CC JUMP JUMPDEST PUSH2 0x146 PUSH2 0x136 CALLDATASIZE PUSH1 0x4 PUSH2 0x469 JUMP JUMPDEST PUSH1 0xF8 SWAP2 SWAP1 SWAP2 SHR SWAP1 SHR PUSH1 0x1 AND ISZERO ISZERO SWAP1 JUMP JUMPDEST PUSH1 0x40 MLOAD SWAP1 ISZERO ISZERO DUP2 MSTORE PUSH1 0x20 ADD PUSH2 0xD5 JUMP JUMPDEST PUSH2 0xCB PUSH2 0x164 CALLDATASIZE PUSH1 0x4 PUSH2 0x469 JUMP JUMPDEST PUSH2 0x332 JUMP JUMPDEST PUSH2 0xCB PUSH2 0x177 CALLDATASIZE PUSH1 0x4 PUSH2 0x450 JUMP JUMPDEST PUSH1 0x1 PUSH1 0x1 PUSH1 0xF8 SHL SUB AND SWAP1 JUMP JUMPDEST PUSH2 0xCB PUSH2 0x191 CALLDATASIZE PUSH1 0x4 PUSH2 0x450 JUMP JUMPDEST PUSH1 0xF0 SHR PUSH1 0xFF AND SWAP1 JUMP JUMPDEST PUSH2 0xCB PUSH2 0x1A8 CALLDATASIZE PUSH1 0x4 PUSH2 0x424 JUMP JUMPDEST PUSH2 0x370 JUMP JUMPDEST PUSH2 0xCB PUSH2 0x1BB CALLDATASIZE PUSH1 0x4 PUSH2 0x450 JUMP JUMPDEST PUSH1 0xF8 SHR SWAP1 JUMP JUMPDEST PUSH1 0x0 PUSH1 0x8 DUP4 LT PUSH2 0x1EC JUMPI PUSH1 0x40 MLOAD PUSH3 0x461BCD PUSH1 0xE5 SHL DUP2 MSTORE PUSH1 0x4 ADD PUSH2 0x1E3 SWAP1 PUSH2 0x48B JUMP JUMPDEST PUSH1 0x40 MLOAD DUP1 SWAP2 SUB SWAP1 REVERT JUMPDEST PUSH1 0x0 PUSH2 0x1F8 DUP6 DUP6 PUSH2 0x27E JUMP JUMPDEST SWAP1 POP PUSH1 0x0 PUSH2 0x206 DUP5 DUP4 PUSH2 0x4CD JUMP JUMPDEST SWAP1 POP PUSH2 0x213 DUP7 DUP7 DUP4 PUSH2 0x370 JUMP JUMPDEST SWAP7 SWAP6 POP POP POP POP POP POP JUMP JUMPDEST PUSH1 0x0 PUSH1 0x8 DUP3 GT ISZERO PUSH2 0x265 JUMPI PUSH1 0x40 MLOAD PUSH3 0x461BCD PUSH1 0xE5 SHL DUP2 MSTORE PUSH1 0x20 PUSH1 0x4 DUP3 ADD MSTORE PUSH1 0x12 PUSH1 0x24 DUP3 ADD MSTORE PUSH18 0x757020746F20382076616C696461746F7273 PUSH1 0x70 SHL PUSH1 0x44 DUP3 ADD MSTORE PUSH1 0x64 ADD PUSH2 0x1E3 JUMP JUMPDEST PUSH1 0x0 PUSH2 0x274 PUSH1 0x1 DUP1 DUP6 SHL PUSH2 0x4E5 JUMP JUMPDEST PUSH1 0xF0 SHL SWAP4 SWAP3 POP POP POP JUMP JUMPDEST PUSH1 0x0 PUSH1 0x8 DUP3 LT PUSH2 0x2A0 JUMPI PUSH1 0x40 MLOAD PUSH3 0x461BCD PUSH1 0xE5 SHL DUP2 MSTORE PUSH1 0x4 ADD PUSH2 0x1E3 SWAP1 PUSH2 0x48B JUMP JUMPDEST PUSH1 0x0 PUSH2 0x2B1 PUSH1 0x1 PUSH4 0x40000000 PUSH2 0x4E5 JUMP JUMPDEST SWAP1 POP DUP1 PUSH2 0x2BF DUP5 PUSH1 0x1E PUSH2 0x4FC JUMP JUMPDEST DUP6 SWAP1 SHR AND SWAP2 POP POP SWAP3 SWAP2 POP POP JUMP JUMPDEST PUSH1 0x0 PUSH1 0x8 DUP3 LT PUSH2 0x2EE JUMPI PUSH1 0x40 MLOAD PUSH3 0x461BCD PUSH1 0xE5 SHL DUP2 MSTORE PUSH1 0x4 ADD PUSH2 0x1E3 SWAP1 PUSH2 0x48B JUMP JUMPDEST DUP3 PUSH1 0x0 PUSH2 0x2FC DUP5 PUSH1 0xF8 PUSH2 0x4CD JUMP JUMPDEST PUSH1 0x1 SWAP1 SHL NOT SWAP2 DUP3 AND SWAP2 SWAP1 POP PUSH2 0x312 DUP5 PUSH1 0xF0 PUSH2 0x4CD JUMP JUMPDEST PUSH1 0x1 SWAP1 SHL NOT SWAP2 DUP3 AND SWAP2 SWAP1 POP PUSH2 0x329 DUP3 DUP6 PUSH1 0x0 PUSH2 0x370 JUMP JUMPDEST SWAP6 SWAP5 POP POP POP POP POP JUMP JUMPDEST PUSH1 0x0 PUSH1 0x8 DUP3 LT PUSH2 0x354 JUMPI PUSH1 0x40 MLOAD PUSH3 0x461BCD PUSH1 0xE5 SHL DUP2 MSTORE PUSH1 0x4 ADD PUSH2 0x1E3 SWAP1 PUSH2 0x48B JUMP JUMPDEST PUSH1 0x0 PUSH2 0x361 DUP4 PUSH1 0xF8 PUSH2 0x4CD JUMP JUMPDEST PUSH1 0x1 SWAP1 SHL DUP5 OR SWAP2 POP POP SWAP3 SWAP2 POP POP JUMP JUMPDEST PUSH1 0x0 PUSH1 0x8 DUP4 LT PUSH2 0x392 JUMPI PUSH1 0x40 MLOAD PUSH3 0x461BCD PUSH1 0xE5 SHL DUP2 MSTORE PUSH1 0x4 ADD PUSH2 0x1E3 SWAP1 PUSH2 0x48B JUMP JUMPDEST PUSH2 0x3A1 PUSH1 0x1 PUSH4 0x40000000 PUSH2 0x4E5 JUMP JUMPDEST DUP3 GT ISZERO PUSH2 0x3E6 JUMPI PUSH1 0x40 MLOAD PUSH3 0x461BCD PUSH1 0xE5 SHL DUP2 MSTORE PUSH1 0x20 PUSH1 0x4 DUP3 ADD MSTORE PUSH1 0x13 PUSH1 0x24 DUP3 ADD MSTORE PUSH19 0x436C61696D734D61736B204F766572666C6F77 PUSH1 0x68 SHL PUSH1 0x44 DUP3 ADD MSTORE PUSH1 0x64 ADD PUSH2 0x1E3 JUMP JUMPDEST PUSH1 0x0 PUSH2 0x3F3 DUP5 PUSH1 0x1E PUSH2 0x4FC JUMP JUMPDEST PUSH2 0x402 PUSH1 0x1 PUSH4 0x40000000 PUSH2 0x4E5 JUMP JUMPDEST SWAP1 SHL NOT SWAP1 POP DUP5 DUP2 AND PUSH2 0x415 DUP6 PUSH1 0x1E PUSH2 0x4FC JUMP JUMPDEST SWAP4 SWAP1 SWAP4 SHL SWAP1 SWAP3 OR SWAP5 SWAP4 POP POP POP POP JUMP JUMPDEST PUSH1 0x0 DUP1 PUSH1 0x0 PUSH1 0x60 DUP5 DUP7 SUB SLT ISZERO PUSH2 0x439 JUMPI PUSH1 0x0 DUP1 REVERT JUMPDEST POP POP DUP2 CALLDATALOAD SWAP4 PUSH1 0x20 DUP4 ADD CALLDATALOAD SWAP4 POP PUSH1 0x40 SWAP1 SWAP3 ADD CALLDATALOAD SWAP2 SWAP1 POP JUMP JUMPDEST PUSH1 0x0 PUSH1 0x20 DUP3 DUP5 SUB SLT ISZERO PUSH2 0x462 JUMPI PUSH1 0x0 DUP1 REVERT JUMPDEST POP CALLDATALOAD SWAP2 SWAP1 POP JUMP JUMPDEST PUSH1 0x0 DUP1 PUSH1 0x40 DUP4 DUP6 SUB SLT ISZERO PUSH2 0x47C JUMPI PUSH1 0x0 DUP1 REVERT JUMPDEST POP POP DUP1 CALLDATALOAD SWAP3 PUSH1 0x20 SWAP1 SWAP2 ADD CALLDATALOAD SWAP2 POP JUMP JUMPDEST PUSH1 0x20 DUP1 DUP3 MSTORE PUSH1 0x12 SWAP1 DUP3 ADD MSTORE PUSH18 0x696E646578206F7574206F662072616E6765 PUSH1 0x70 SHL PUSH1 0x40 DUP3 ADD MSTORE PUSH1 0x60 ADD SWAP1 JUMP JUMPDEST PUSH4 0x4E487B71 PUSH1 0xE0 SHL PUSH1 0x0 MSTORE PUSH1 0x11 PUSH1 0x4 MSTORE PUSH1 0x24 PUSH1 0x0 REVERT JUMPDEST PUSH1 0x0 DUP3 NOT DUP3 GT ISZERO PUSH2 0x4E0 JUMPI PUSH2 0x4E0 PUSH2 0x4B7 JUMP JUMPDEST POP ADD SWAP1 JUMP JUMPDEST PUSH1 0x0 DUP3 DUP3 LT ISZERO PUSH2 0x4F7 JUMPI PUSH2 0x4F7 PUSH2 0x4B7 JUMP JUMPDEST POP SUB SWAP1 JUMP JUMPDEST PUSH1 0x0 DUP2 PUSH1 0x0 NOT DIV DUP4 GT DUP3 ISZERO ISZERO AND ISZERO PUSH2 0x516 JUMPI PUSH2 0x516 PUSH2 0x4B7 JUMP JUMPDEST POP MUL SWAP1 JUMP INVALID LOG2 PUSH5 0x6970667358 0x22 SLT KECCAK256 EXTCODESIZE PUSH28 0xBAD37ADB9CC5E0857B6FA086328302081FB7C5A8152C39EEF0F6358 0xC0 0x4C PUSH5 0x736F6C6343 STOP ADDMOD 0xD STOP CALLER "
    },
    "gasEstimates": {
      "creation": {
        "codeDepositCost": "272200",
        "executionCost": "343",
        "totalCost": "272543"
      },
      "external": {
        "alreadyClaimed(uint256,uint256)": "315",
        "clearAgreementMask(uint256)": "304",
        "getAgreementMask(uint256)": "358",
        "getConsensusGoalMask(uint256)": "320",
        "getNumClaims(uint256,uint256)": "566",
        "increaseNumClaims(uint256,uint256,uint256)": "infinite",
        "newClaimsMask(uint256)": "287",
        "newClaimsMaskWithConsensusGoalSet(uint256)": "397",
        "removeValidator(uint256,uint256)": "infinite",
        "setAgreementMask(uint256,uint256)": "427",
        "setNumClaims(uint256,uint256,uint256)": "infinite"
      }
    },
    "methodIdentifiers": {
      "alreadyClaimed(uint256,uint256)": "cb9f8813",
      "clearAgreementMask(uint256)": "cf7b90a6",
      "getAgreementMask(uint256)": "fa95f400",
      "getConsensusGoalMask(uint256)": "d4056ffe",
      "getNumClaims(uint256,uint256)": "a8c5d8f4",
      "increaseNumClaims(uint256,uint256,uint256)": "52f1d2b4",
      "newClaimsMask(uint256)": "8336d005",
      "newClaimsMaskWithConsensusGoalSet(uint256)": "574125c2",
      "removeValidator(uint256,uint256)": "ac266b8c",
      "setAgreementMask(uint256,uint256)": "cd70835c",
      "setNumClaims(uint256,uint256,uint256)": "de7fb280"
    }
  },
  "storageLayout": {
    "storage": [],
    "types": null
  },
  "userdoc": {
    "kind": "user",
    "methods": {
      "alreadyClaimed(uint256,uint256)": {
        "notice": "check if a validator has already claimed"
      },
      "clearAgreementMask(uint256)": {
        "notice": "get consensus goal mask"
      },
      "getAgreementMask(uint256)": {
        "notice": "get the entire agreement mask"
      },
      "getConsensusGoalMask(uint256)": {
        "notice": "get the entire consensus goal mask"
      },
      "getNumClaims(uint256,uint256)": {
        "notice": "this function returns the #claims for the specified validator"
      },
      "increaseNumClaims(uint256,uint256,uint256)": {
        "notice": "this function increases the #claims for the specified validator"
      },
      "newClaimsMask(uint256)": {
        "notice": "this function creates a new ClaimsMask variable with value _value"
      },
      "newClaimsMaskWithConsensusGoalSet(uint256)": {
        "notice": "this function creates a new ClaimsMask variable with the consensus goal mask set,         according to the number of validators"
      },
      "removeValidator(uint256,uint256)": {
        "notice": "remove validator from the ClaimsMask"
      },
      "setAgreementMask(uint256,uint256)": {
        "notice": "set agreement mask for the specified validator"
      },
      "setNumClaims(uint256,uint256,uint256)": {
        "notice": "this function sets the #claims for the specified validator"
      }
    },
    "version": 1
  }
}