{
  "contractName": "Merkle",
  "sourceName": "@cartesi/util/contracts/Merkle.sol",
  "abi": [
    {
      "inputs": [
        {
          "internalType": "bytes32[]",
          "name": "hashes",
          "type": "bytes32[]"
        }
      ],
      "name": "calculateRootFromPowerOfTwo",
      "outputs": [
        {
          "internalType": "bytes32",
          "name": "",
          "type": "bytes32"
        }
      ],
      "stateMutability": "pure",
      "type": "function"
    },
    {
      "inputs": [
        {
          "internalType": "uint256",
          "name": "_index",
          "type": "uint256"
        }
      ],
      "name": "getEmptyTreeHashAtIndex",
      "outputs": [
        {
          "internalType": "bytes32",
          "name": "",
          "type": "bytes32"
        }
      ],
      "stateMutability": "pure",
      "type": "function"
    },
    {
      "inputs": [
        {
          "internalType": "bytes",
          "name": "_data",
          "type": "bytes"
        },
        {
          "internalType": "uint256",
          "name": "_wordIndex",
          "type": "uint256"
        }
      ],
      "name": "getHashOfWordAtIndex",
      "outputs": [
        {
          "internalType": "bytes32",
          "name": "",
          "type": "bytes32"
        }
      ],
      "stateMutability": "pure",
      "type": "function"
    },
    {
      "inputs": [
        {
          "internalType": "bytes",
          "name": "_data",
          "type": "bytes"
        },
        {
          "internalType": "uint256",
          "name": "_log2Size",
          "type": "uint256"
        }
      ],
      "name": "getMerkleRootFromBytes",
      "outputs": [
        {
          "internalType": "bytes32",
          "name": "",
          "type": "bytes32"
        }
      ],
      "stateMutability": "pure",
      "type": "function"
    },
    {
      "inputs": [
        {
          "internalType": "uint256",
          "name": "_position",
          "type": "uint256"
        },
        {
          "internalType": "uint256",
          "name": "_logSizeOfReplacement",
          "type": "uint256"
        },
        {
          "internalType": "uint256",
          "name": "_logSizeOfFullDrive",
          "type": "uint256"
        },
        {
          "internalType": "bytes32",
          "name": "_replacement",
          "type": "bytes32"
        },
        {
          "internalType": "bytes32[]",
          "name": "siblings",
          "type": "bytes32[]"
        }
      ],
      "name": "getRootAfterReplacementInDrive",
      "outputs": [
        {
          "internalType": "bytes32",
          "name": "",
          "type": "bytes32"
        }
      ],
      "stateMutability": "pure",
      "type": "function"
    }
  ],
  "bytecode": "0x6115ff61003a600b82828239805160001a60731461002d57634e487b7160e01b600052600060045260246000fd5b30600052607381538281f3fe73000000000000000000000000000000000000000030146080604052600436106100615760003560e01c806334bd712d14610066578063451a10551461008b57806379de46011461009e57806382b0eab8146100b1578063c84583a1146100c4575b600080fd5b610079610074366004610ad9565b6100d7565b60405190815260200160405180910390f35b610079610099366004610b51565b610229565b6100796100ac366004610b6a565b6102ba565b6100796100bf366004610c1b565b6104d0565b6100796100d2366004610ad9565b6106cb565b6000600382901b816100ea600883610cef565b9050848211156101365760405162461bcd60e51b8152602060048201526012602482015271776f7264206f7574206f6620626f756e647360701b60448201526064015b60405180910390fd5b8481116101795761014981838789610d07565b60405160200161015a929190610d31565b6040516020818303038152906040528051906020012092505050610222565b60408051600880825281830190925260009160208201818036833701905050905060006101a68488610d41565b905060005b818110156102135788886101bf8388610cef565b8181106101ce576101ce610d58565b9050013560f81c60f81b8382815181106101ea576101ea610d58565b60200101906001600160f81b031916908160001a9053508061020b81610d6e565b9150506101ab565b50508051602090910120925050505b9392505050565b600080610237836020610d87565b9050610244816020610cef565b6107a0101561028b5760405162461bcd60e51b8152602060048201526013602482015272696e646578206f7574206f6620626f756e647360681b604482015260640161012d565b600080604051806107c001604052806107a08152602001610e2a6107a091399290920160200151949350505050565b60008585101580156102cd575060038610155b80156102da575060408511155b6103445760405162461bcd60e51b815260206004820152603560248201527f33203c3d206c6f6753697a654f665265706c6163656d656e74203c3d206c6f6760448201527414da5e9953d9919d5b1b111c9a5d99480f0f480d8d605a1b606482015260840161012d565b600180871b9088906103569083610d41565b16156103a45760405162461bcd60e51b815260206004820152601760248201527f506f736974696f6e206973206e6f7420616c69676e6564000000000000000000604482015260640161012d565b6103ae8787610d41565b83146103fc5760405162461bcd60e51b815260206004820152601b60248201527f50726f6f66206c656e67746820646f6573206e6f74206d617463680000000000604482015260640161012d565b60005b838110156104c35781811b8916600003610464578585858381811061042657610426610d58565b90506020020135604051602001610447929190918252602082015260400190565b6040516020818303038152906040528051906020012095506104b1565b84848281811061047657610476610d58565b9050602002013586604051602001610498929190918252602082015260400190565b6040516020818303038152906040528051906020012095505b806104bb81610d6e565b9150506103ff565b5093979650505050505050565b805160405163d82ae4b160e01b815260009173__$114cc05e390485200171fdb6122b6fcd26$__9163d82ae4b19161050e9160040190815260200190565b602060405180830381865af415801561052b573d6000803e3d6000fd5b505050506040513d601f19601f8201168201806040525081019061054f9190610da6565b61059b5760405162461bcd60e51b815260206004820152601860248201527f6172726179206c656e206e6f7420706f776572206f6620320000000000000000604482015260640161012d565b81516001036105c657816000815181106105b7576105b7610d58565b60200260200101519050919050565b600060018351901c67ffffffffffffffff8111156105e6576105e6610c05565b60405190808252806020026020018201604052801561060f578160200160208202803683370190505b50905060005b83518110156106c15783818151811061063057610630610d58565b6020026020010151848260016106469190610cef565b8151811061065657610656610d58565b6020026020010151604051602001610678929190918252602082015260400190565b6040516020818303038152906040528051906020012082600183901c815181106106a4576106a4610d58565b60209081029190910101526106ba600282610cef565b9050610615565b50610222816104d0565b6000600382101580156106df575060408211155b61072b5760405162461bcd60e51b815260206004820152601960248201527f72616e6765206f66206c6f673253697a653a205b332c36345d00000000000000604482015260640161012d565b600083900361074957610742610099600384610d41565b9050610222565b6000610756600384610d41565b6001901b9050600381901b8411156107b05760405162461bcd60e51b815260206004820152601960248201527f6461746120697320626967676572207468616e20647269766500000000000000604482015260640161012d565b6040516306c8e54b60e01b8152600385901c600482015260009073__$114cc05e390485200171fdb6122b6fcd26$__906306c8e54b90602401602060405180830381865af4158015610806573d6000803e3d6000fd5b505050506040513d601f19601f8201168201806040525081019061082a9190610dc8565b610835906002610deb565b60ff16905060008167ffffffffffffffff81111561085557610855610c05565b60405190808252806020026020018201604052801561087e578160200160208202803683370190505b5090506000806000805b86841015610a7057600384901b8a11156108d9576108a78b8b866100d7565b8584815181106108b9576108b9610d58565b6020908102919091010152836108ce81610d6e565b94505083915061098a565b60405163052dcf5f60e31b81526004810185905273__$114cc05e390485200171fdb6122b6fcd26$__9063296e7af890602401602060405180830381865af4158015610929573d6000803e3d6000fd5b505050506040513d601f19601f8201168201806040525081019061094d9190610e10565b905061095881610229565b85848151811061096a5761096a610d58565b60209081029190910101526109826001821b85610cef565b935083811c91505b8261099481610d6e565b9350505b81600116600003610a6b576000856109b1600186610d41565b815181106109c1576109c1610d58565b602002602001015190506000866002866109db9190610d41565b815181106109eb576109eb610d58565b602002602001015190508082604051602001610a11929190918252602082015260400190565b6040516020818303038152906040528051906020012087600287610a359190610d41565b81518110610a4557610a45610d58565b6020908102919091010152610a5b600186610d41565b9450600184901c93505050610998565b610888565b82600114610aae5760405162461bcd60e51b815260206004820152600b60248201526a39ba30b1b59032b93937b960a91b604482015260640161012d565b84600081518110610ac157610ac1610d58565b60200260200101519750505050505050509392505050565b600080600060408486031215610aee57600080fd5b833567ffffffffffffffff80821115610b0657600080fd5b818601915086601f830112610b1a57600080fd5b813581811115610b2957600080fd5b876020828501011115610b3b57600080fd5b6020928301989097509590910135949350505050565b600060208284031215610b6357600080fd5b5035919050565b60008060008060008060a08789031215610b8357600080fd5b86359550602087013594506040870135935060608701359250608087013567ffffffffffffffff80821115610bb757600080fd5b818901915089601f830112610bcb57600080fd5b813581811115610bda57600080fd5b8a60208260051b8501011115610bef57600080fd5b6020830194508093505050509295509295509295565b634e487b7160e01b600052604160045260246000fd5b60006020808385031215610c2e57600080fd5b823567ffffffffffffffff80821115610c4657600080fd5b818501915085601f830112610c5a57600080fd5b813581811115610c6c57610c6c610c05565b8060051b604051601f19603f83011681018181108582111715610c9157610c91610c05565b604052918252848201925083810185019188831115610caf57600080fd5b938501935b82851015610ccd57843584529385019392850192610cb4565b98975050505050505050565b634e487b7160e01b600052601160045260246000fd5b60008219821115610d0257610d02610cd9565b500190565b60008085851115610d1757600080fd5b83861115610d2457600080fd5b5050820193919092039150565b8183823760009101908152919050565b600082821015610d5357610d53610cd9565b500390565b634e487b7160e01b600052603260045260246000fd5b600060018201610d8057610d80610cd9565b5060010190565b6000816000190483118215151615610da157610da1610cd9565b500290565b600060208284031215610db857600080fd5b8151801515811461022257600080fd5b600060208284031215610dda57600080fd5b815160ff8116811461022257600080fd5b600060ff821660ff84168060ff03821115610e0857610e08610cd9565b019392505050565b600060208284031215610e2257600080fd5b505191905056fe011b4d03dd8c01f1049143cf9c4c817e4b167f1d1b83e5c6f0f10d89ba1e7bce4d9470a821fbe90117ec357e30bad9305732fb19ddf54a07dd3e29f440619254ae39ce8537aca75e2eff3e38c98011dfe934e700a0967732fc07b430dd656a233fc9a15f5b4869c872f81087bb6104b7d63e6f9ab47f2c43f3535eae7172aa7f17d2dd614cddaa4d879276b11e0672c9560033d3e8453a1d045339d34ba601b9c37b8b13ca95166fb7af16988a70fcc90f38bf9126fd833da710a47fb37a55e68e7a427fa943d9966b389f4f257173676090c6e95f43e2cb6d65f8758111e30930b0b9deb73e155c59740bacf14a6ff04b64bb8e201a506409c3fe381ca4ea90cd5deac729d0fdaccc441d09d7325f41586ba13c801b7eccae0f95d8f3933efed8b96e5b7f6f459e9cb6a2f41bf276c7b85c10cd4662c04cbbb365434726c0a0c9695393027fb106a8153109ac516288a88b28a93817899460d6310b71cf1e6163e8806fa0d4b197a259e8c3ac28864268159d0ac85f8581ca28fa7d2c0c03eb91e3eee5ca7a3da2b3053c9770db73599fb149f620e3facef95e947c0ee860b72122e31e4bbd2b7c783d79cc30f60c6238651da7f0726f767d22747264fdb046f7549f26cc70ed5e18baeb6c81bb0625cb95bb4019aeecd40774ee87ae29ec517a71f6ee264c5d761379b3d7d617ca83677374b49d10aec50505ac087408ca892b573c267a712a52e1d06421fe276a03efb1889f337201110fdc32a81f8e152499af665835aabfdc6740c7e2c3791a31c3cdc9f5ab962f681b12fc092816a62f27d86025599a41233848702f0cfc0437b445682df51147a632a0a083d2d38b5e13e466a8935afff58bb533b3ef5d27fba63ee6b0fd9e67ff20af9d50deee3f8bf065ec220c1fd4ba57e341261d55997f85d66d32152526736872693d2b437a233e2337b715f6ac9a6a272622fdc2d67fcfe1da3459f8dab4ed7e40a657a54c36766c5e8ac9a88b35b05c34747e6507f6b044ab66180dc76ac1a696de03189593fedc0d0dbbd855c8ead673544899b0960e4a5a7ca43b4ef90afe607de7698caefdc242788f654b57a4fb32a71b335ef6ff9a4cc118b282b53bdd6d6192b7a82c3c5126b9c7e33c8e5a5ac9738b8bd31247fb7402054f97b573e8abb9faad219f4fd085aceaa7f542d787ee4196d365f3cc566e7bbcfbfd451230c48d804c017d21e2d8fa914e2559bb72bf0ab78c8ab92f00ef0d0d576eccdd486b64138a4172674857e543d1d5b639058dd908186597e366ad5f3d9c7ceaff44d04d1550b8d33abc751df07437834ba5acb32328a396994aebb3c40f759c2d6d7a3cb5377e55d5d218ef5a296dda8ddc355f3f50c3d0b660a51dfa4d98a6a5a33564556cf83c1373a814641d6a1dcef97b883fee61bb84fe60a3409340217e629cc7e4dcc93b85d8820921ff5826148b60e6939acd7838e1d7f20562bff8ee4b5ec4a05ad997a57b9796fdcb2eda87883c2640b072b140b946bfdf6575cacc066fdae04f6951e63624cbd316a677cad529bbe4e97b9144e4bc06c4afd1de55dd3e1175f90423847a230d34dfb71ed56f2965a7f6c72e6aa33c24c303fd67745d632656c5ef90bec80f4f5d1daa251988826cef375c81c36bf457e09687056f924677cb0bccf98dff81e014ce25f2d132497923e267363963cdf4302c5049d63131dc03fd95f65d8b6aa5934f817252c028c90f56d413b9d5d10d89790707dae2fabb249f649929927c21dd71e3f656826de5451c5da375aadecbd59d5ebf3a31fae65ac1b316a1611f1b276b26530f58d7247df459ce1f86db1d734f6f811932f042cee45d0e455306d01081bc3384f82c5fb2aacaa19d89cdfa46cc916eac61121475ba2e6191b4feecbe1789717021a158ace5d06744b40f551076b67cd63af60007f8c99876e1424883a45ec49d497ddaf808a5521ca74a999ab0b3c7aa9c80f85e93977ec61ce68b20307a1a81f71ca645b568fcd319ccbb5f651e87b707d37c39e15f945ea69e2f7c7d2ccc85b7e654c07e96f0636ae4044fe0e38590b431795ad0f8647bdd613713ada493cc17efd313206380e6a685b8198475bbd021c6e9d94daab2214947127506073e44d5408ba166c512a0b86805d07f5a44d3c41706be2bc15e712e55805248b92e8677d90f6d284d1d6ffaff2c430657042a0e82624fa3717b06cc0a6fd12230ea586dae83019fb9e06034ed2803c98d554b93c9a52348cafff75c40174a91f9ae6b8647854a156029f0b88b83316663ce574a4978277bb6bb27a31085634b6ec78864b6d8201c7e93903d75815067e378289a3d072ae172dafa6a452470f8d645bebfad9779594fc0784bb764a22e3a8181d93db7bf97893c414217a618ccb14caa9e92e8c61673afc9583662e812adba1f87a9c68202d60e909efab43c42c0cb00695fc7f1ffe67c75ca894c3c51e1e5e731360199e600f6ced9a87b2a6a87e70bf251bb5075ab222138288164b2eda727515ea7de12e2496d4fe42ea8d1a120c03cf9c50622c2afe4acb0dad98fd62d07ab4e828a94495f6d1ab973982c7ccbe6c1fae02788e4422ae22282fa49cbdb04ba54a7a238c6fc41187451383460762c06d1c8a72b9cd718866ad4b689e10c9a8c38fe5ef045bd785b01e980fc82c7e3532ce81876b778dd9f1ceeba4478e86411fb6fdd790683916ca832592485093644e8760cd7b4c01dba1ccc82b661bf13f0e3f34acd6b88a26469706673582212204a40224fd3591aa04fd04ce875d6c9c3db7f8c704fe0613b137a0e7eb4f957f764736f6c634300080d0033",
  "linkReferences": {
    "@cartesi/util/contracts/CartesiMath.sol": {
      "CartesiMath": [
        {
          "length": 20,
          "start": 1310
        },
        {
          "length": 20,
          "start": 2054
        },
        {
          "length": 20,
          "start": 2345
        }
      ]
    }
  },
  "deployedLinkReferences": {
    "@cartesi/util/contracts/CartesiMath.sol": {
      "CartesiMath": [
        {
          "length": 20,
          "start": 1252
        },
        {
          "length": 20,
          "start": 1996
        },
        {
          "length": 20,
          "start": 2287
        }
      ]
    }
  },
  "devdoc": {
    "kind": "dev",
    "methods": {
      "calculateRootFromPowerOfTwo(bytes32[])": {
        "params": {
          "hashes": "The array containing power of 2 elements"
        },
        "returns": {
          "_0": "byte32 the root hash being calculated"
        }
      },
      "getEmptyTreeHashAtIndex(uint256)": {
        "details": "first index is keccak(0), second index is keccak(keccak(0), keccak(0))",
        "params": {
          "_index": "of hash wanted"
        }
      },
      "getHashOfWordAtIndex(bytes,uint256)": {
        "details": "if word is incomplete (< 8 bytes) it gets padded with zeroes",
        "params": {
          "_data": "array of bytes",
          "_wordIndex": "index of word inside the bytes to get the hash of"
        }
      },
      "getMerkleRootFromBytes(bytes,uint256)": {
        "details": "_data is padded with zeroes until is multiple of 8root is completed with zero tree until log2size is completehashes are taken word by word (8 bytes by 8 bytes)",
        "params": {
          "_data": "array of bytes to be merklelized",
          "_log2Size": "log2 of total size of the drive"
        }
      },
      "getRootAfterReplacementInDrive(uint256,uint256,uint256,bytes32,bytes32[])": {
        "params": {
          "_logSizeOfFullDrive": "log2 of size the full drive, which can be the entire machine",
          "_logSizeOfReplacement": "log2 of size the replacement",
          "_position": "position of _drive",
          "_replacement": "hash of the replacement",
          "siblings": "of replacement that merkle root can be calculated"
        }
      }
    },
    "version": 1
  },
  "evm": {
    "bytecode": {
      "linkReferences": {
        "@cartesi/util/contracts/CartesiMath.sol": {
          "CartesiMath": [
            {
              "length": 20,
              "start": 1310
            },
            {
              "length": 20,
              "start": 2054
            },
            {
              "length": 20,
              "start": 2345
            }
          ]
        }
      },
      "opcodes": "PUSH2 0x15FF PUSH2 0x3A PUSH1 0xB DUP3 DUP3 DUP3 CODECOPY DUP1 MLOAD PUSH1 0x0 BYTE PUSH1 0x73 EQ PUSH2 0x2D JUMPI PUSH4 0x4E487B71 PUSH1 0xE0 SHL PUSH1 0x0 MSTORE PUSH1 0x0 PUSH1 0x4 MSTORE PUSH1 0x24 PUSH1 0x0 REVERT JUMPDEST ADDRESS PUSH1 0x0 MSTORE PUSH1 0x73 DUP2 MSTORE8 DUP3 DUP2 RETURN INVALID PUSH20 0x0 ADDRESS EQ PUSH1 0x80 PUSH1 0x40 MSTORE PUSH1 0x4 CALLDATASIZE LT PUSH2 0x61 JUMPI PUSH1 0x0 CALLDATALOAD PUSH1 0xE0 SHR DUP1 PUSH4 0x34BD712D EQ PUSH2 0x66 JUMPI DUP1 PUSH4 0x451A1055 EQ PUSH2 0x8B JUMPI DUP1 PUSH4 0x79DE4601 EQ PUSH2 0x9E JUMPI DUP1 PUSH4 0x82B0EAB8 EQ PUSH2 0xB1 JUMPI DUP1 PUSH4 0xC84583A1 EQ PUSH2 0xC4 JUMPI JUMPDEST PUSH1 0x0 DUP1 REVERT JUMPDEST PUSH2 0x79 PUSH2 0x74 CALLDATASIZE PUSH1 0x4 PUSH2 0xAD9 JUMP JUMPDEST PUSH2 0xD7 JUMP JUMPDEST PUSH1 0x40 MLOAD SWAP1 DUP2 MSTORE PUSH1 0x20 ADD PUSH1 0x40 MLOAD DUP1 SWAP2 SUB SWAP1 RETURN JUMPDEST PUSH2 0x79 PUSH2 0x99 CALLDATASIZE PUSH1 0x4 PUSH2 0xB51 JUMP JUMPDEST PUSH2 0x229 JUMP JUMPDEST PUSH2 0x79 PUSH2 0xAC CALLDATASIZE PUSH1 0x4 PUSH2 0xB6A JUMP JUMPDEST PUSH2 0x2BA JUMP JUMPDEST PUSH2 0x79 PUSH2 0xBF CALLDATASIZE PUSH1 0x4 PUSH2 0xC1B JUMP JUMPDEST PUSH2 0x4D0 JUMP JUMPDEST PUSH2 0x79 PUSH2 0xD2 CALLDATASIZE PUSH1 0x4 PUSH2 0xAD9 JUMP JUMPDEST PUSH2 0x6CB JUMP JUMPDEST PUSH1 0x0 PUSH1 0x3 DUP3 SWAP1 SHL DUP2 PUSH2 0xEA PUSH1 0x8 DUP4 PUSH2 0xCEF JUMP JUMPDEST SWAP1 POP DUP5 DUP3 GT ISZERO PUSH2 0x136 JUMPI PUSH1 0x40 MLOAD PUSH3 0x461BCD PUSH1 0xE5 SHL DUP2 MSTORE PUSH1 0x20 PUSH1 0x4 DUP3 ADD MSTORE PUSH1 0x12 PUSH1 0x24 DUP3 ADD MSTORE PUSH18 0x776F7264206F7574206F6620626F756E6473 PUSH1 0x70 SHL PUSH1 0x44 DUP3 ADD MSTORE PUSH1 0x64 ADD JUMPDEST PUSH1 0x40 MLOAD DUP1 SWAP2 SUB SWAP1 REVERT JUMPDEST DUP5 DUP2 GT PUSH2 0x179 JUMPI PUSH2 0x149 DUP2 DUP4 DUP8 DUP10 PUSH2 0xD07 JUMP JUMPDEST PUSH1 0x40 MLOAD PUSH1 0x20 ADD PUSH2 0x15A SWAP3 SWAP2 SWAP1 PUSH2 0xD31 JUMP JUMPDEST PUSH1 0x40 MLOAD PUSH1 0x20 DUP2 DUP4 SUB SUB DUP2 MSTORE SWAP1 PUSH1 0x40 MSTORE DUP1 MLOAD SWAP1 PUSH1 0x20 ADD KECCAK256 SWAP3 POP POP POP PUSH2 0x222 JUMP JUMPDEST PUSH1 0x40 DUP1 MLOAD PUSH1 0x8 DUP1 DUP3 MSTORE DUP2 DUP4 ADD SWAP1 SWAP3 MSTORE PUSH1 0x0 SWAP2 PUSH1 0x20 DUP3 ADD DUP2 DUP1 CALLDATASIZE DUP4 CALLDATACOPY ADD SWAP1 POP POP SWAP1 POP PUSH1 0x0 PUSH2 0x1A6 DUP5 DUP9 PUSH2 0xD41 JUMP JUMPDEST SWAP1 POP PUSH1 0x0 JUMPDEST DUP2 DUP2 LT ISZERO PUSH2 0x213 JUMPI DUP9 DUP9 PUSH2 0x1BF DUP4 DUP9 PUSH2 0xCEF JUMP JUMPDEST DUP2 DUP2 LT PUSH2 0x1CE JUMPI PUSH2 0x1CE PUSH2 0xD58 JUMP JUMPDEST SWAP1 POP ADD CALLDATALOAD PUSH1 0xF8 SHR PUSH1 0xF8 SHL DUP4 DUP3 DUP2 MLOAD DUP2 LT PUSH2 0x1EA JUMPI PUSH2 0x1EA PUSH2 0xD58 JUMP JUMPDEST PUSH1 0x20 ADD ADD SWAP1 PUSH1 0x1 PUSH1 0x1 PUSH1 0xF8 SHL SUB NOT AND SWAP1 DUP2 PUSH1 0x0 BYTE SWAP1 MSTORE8 POP DUP1 PUSH2 0x20B DUP2 PUSH2 0xD6E JUMP JUMPDEST SWAP2 POP POP PUSH2 0x1AB JUMP JUMPDEST POP POP DUP1 MLOAD PUSH1 0x20 SWAP1 SWAP2 ADD KECCAK256 SWAP3 POP POP POP JUMPDEST SWAP4 SWAP3 POP POP POP JUMP JUMPDEST PUSH1 0x0 DUP1 PUSH2 0x237 DUP4 PUSH1 0x20 PUSH2 0xD87 JUMP JUMPDEST SWAP1 POP PUSH2 0x244 DUP2 PUSH1 0x20 PUSH2 0xCEF JUMP JUMPDEST PUSH2 0x7A0 LT ISZERO PUSH2 0x28B JUMPI PUSH1 0x40 MLOAD PUSH3 0x461BCD PUSH1 0xE5 SHL DUP2 MSTORE PUSH1 0x20 PUSH1 0x4 DUP3 ADD MSTORE PUSH1 0x13 PUSH1 0x24 DUP3 ADD MSTORE PUSH19 0x696E646578206F7574206F6620626F756E6473 PUSH1 0x68 SHL PUSH1 0x44 DUP3 ADD MSTORE PUSH1 0x64 ADD PUSH2 0x12D JUMP JUMPDEST PUSH1 0x0 DUP1 PUSH1 0x40 MLOAD DUP1 PUSH2 0x7C0 ADD PUSH1 0x40 MSTORE DUP1 PUSH2 0x7A0 DUP2 MSTORE PUSH1 0x20 ADD PUSH2 0xE2A PUSH2 0x7A0 SWAP2 CODECOPY SWAP3 SWAP1 SWAP3 ADD PUSH1 0x20 ADD MLOAD SWAP5 SWAP4 POP POP POP POP JUMP JUMPDEST PUSH1 0x0 DUP6 DUP6 LT ISZERO DUP1 ISZERO PUSH2 0x2CD JUMPI POP PUSH1 0x3 DUP7 LT ISZERO JUMPDEST DUP1 ISZERO PUSH2 0x2DA JUMPI POP PUSH1 0x40 DUP6 GT ISZERO JUMPDEST PUSH2 0x344 JUMPI PUSH1 0x40 MLOAD PUSH3 0x461BCD PUSH1 0xE5 SHL DUP2 MSTORE PUSH1 0x20 PUSH1 0x4 DUP3 ADD MSTORE PUSH1 0x35 PUSH1 0x24 DUP3 ADD MSTORE PUSH32 0x33203C3D206C6F6753697A654F665265706C6163656D656E74203C3D206C6F67 PUSH1 0x44 DUP3 ADD MSTORE PUSH21 0x14DA5E9953D9919D5B1B111C9A5D99480F0F480D8D PUSH1 0x5A SHL PUSH1 0x64 DUP3 ADD MSTORE PUSH1 0x84 ADD PUSH2 0x12D JUMP JUMPDEST PUSH1 0x1 DUP1 DUP8 SHL SWAP1 DUP9 SWAP1 PUSH2 0x356 SWAP1 DUP4 PUSH2 0xD41 JUMP JUMPDEST AND ISZERO PUSH2 0x3A4 JUMPI PUSH1 0x40 MLOAD PUSH3 0x461BCD PUSH1 0xE5 SHL DUP2 MSTORE PUSH1 0x20 PUSH1 0x4 DUP3 ADD MSTORE PUSH1 0x17 PUSH1 0x24 DUP3 ADD MSTORE PUSH32 0x506F736974696F6E206973206E6F7420616C69676E6564000000000000000000 PUSH1 0x44 DUP3 ADD MSTORE PUSH1 0x64 ADD PUSH2 0x12D JUMP JUMPDEST PUSH2 0x3AE DUP8 DUP8 PUSH2 0xD41 JUMP JUMPDEST DUP4 EQ PUSH2 0x3FC JUMPI PUSH1 0x40 MLOAD PUSH3 0x461BCD PUSH1 0xE5 SHL DUP2 MSTORE PUSH1 0x20 PUSH1 0x4 DUP3 ADD MSTORE PUSH1 0x1B PUSH1 0x24 DUP3 ADD MSTORE PUSH32 0x50726F6F66206C656E67746820646F6573206E6F74206D617463680000000000 PUSH1 0x44 DUP3 ADD MSTORE PUSH1 0x64 ADD PUSH2 0x12D JUMP JUMPDEST PUSH1 0x0 JUMPDEST DUP4 DUP2 LT ISZERO PUSH2 0x4C3 JUMPI DUP2 DUP2 SHL DUP10 AND PUSH1 0x0 SUB PUSH2 0x464 JUMPI DUP6 DUP6 DUP6 DUP4 DUP2 DUP2 LT PUSH2 0x426 JUMPI PUSH2 0x426 PUSH2 0xD58 JUMP JUMPDEST SWAP1 POP PUSH1 0x20 MUL ADD CALLDATALOAD PUSH1 0x40 MLOAD PUSH1 0x20 ADD PUSH2 0x447 SWAP3 SWAP2 SWAP1 SWAP2 DUP3 MSTORE PUSH1 0x20 DUP3 ADD MSTORE PUSH1 0x40 ADD SWAP1 JUMP JUMPDEST PUSH1 0x40 MLOAD PUSH1 0x20 DUP2 DUP4 SUB SUB DUP2 MSTORE SWAP1 PUSH1 0x40 MSTORE DUP1 MLOAD SWAP1 PUSH1 0x20 ADD KECCAK256 SWAP6 POP PUSH2 0x4B1 JUMP JUMPDEST DUP5 DUP5 DUP3 DUP2 DUP2 LT PUSH2 0x476 JUMPI PUSH2 0x476 PUSH2 0xD58 JUMP JUMPDEST SWAP1 POP PUSH1 0x20 MUL ADD CALLDATALOAD DUP7 PUSH1 0x40 MLOAD PUSH1 0x20 ADD PUSH2 0x498 SWAP3 SWAP2 SWAP1 SWAP2 DUP3 MSTORE PUSH1 0x20 DUP3 ADD MSTORE PUSH1 0x40 ADD SWAP1 JUMP JUMPDEST PUSH1 0x40 MLOAD PUSH1 0x20 DUP2 DUP4 SUB SUB DUP2 MSTORE SWAP1 PUSH1 0x40 MSTORE DUP1 MLOAD SWAP1 PUSH1 0x20 ADD KECCAK256 SWAP6 POP JUMPDEST DUP1 PUSH2 0x4BB DUP2 PUSH2 0xD6E JUMP JUMPDEST SWAP2 POP POP PUSH2 0x3FF JUMP JUMPDEST POP SWAP4 SWAP8 SWAP7 POP POP POP POP POP POP POP JUMP JUMPDEST DUP1 MLOAD PUSH1 0x40 MLOAD PUSH4 0xD82AE4B1 PUSH1 0xE0 SHL DUP2 MSTORE PUSH1 0x0 SWAP2 PUSH20 0x0 SWAP2 PUSH4 0xD82AE4B1 SWAP2 PUSH2 0x50E SWAP2 PUSH1 0x4 ADD SWAP1 DUP2 MSTORE PUSH1 0x20 ADD SWAP1 JUMP JUMPDEST PUSH1 0x20 PUSH1 0x40 MLOAD DUP1 DUP4 SUB DUP2 DUP7 GAS DELEGATECALL ISZERO DUP1 ISZERO PUSH2 0x52B JUMPI RETURNDATASIZE PUSH1 0x0 DUP1 RETURNDATACOPY RETURNDATASIZE PUSH1 0x0 REVERT JUMPDEST POP POP POP POP PUSH1 0x40 MLOAD RETURNDATASIZE PUSH1 0x1F NOT PUSH1 0x1F DUP3 ADD AND DUP3 ADD DUP1 PUSH1 0x40 MSTORE POP DUP2 ADD SWAP1 PUSH2 0x54F SWAP2 SWAP1 PUSH2 0xDA6 JUMP JUMPDEST PUSH2 0x59B JUMPI PUSH1 0x40 MLOAD PUSH3 0x461BCD PUSH1 0xE5 SHL DUP2 MSTORE PUSH1 0x20 PUSH1 0x4 DUP3 ADD MSTORE PUSH1 0x18 PUSH1 0x24 DUP3 ADD MSTORE PUSH32 0x6172726179206C656E206E6F7420706F776572206F6620320000000000000000 PUSH1 0x44 DUP3 ADD MSTORE PUSH1 0x64 ADD PUSH2 0x12D JUMP JUMPDEST DUP2 MLOAD PUSH1 0x1 SUB PUSH2 0x5C6 JUMPI DUP2 PUSH1 0x0 DUP2 MLOAD DUP2 LT PUSH2 0x5B7 JUMPI PUSH2 0x5B7 PUSH2 0xD58 JUMP JUMPDEST PUSH1 0x20 MUL PUSH1 0x20 ADD ADD MLOAD SWAP1 POP SWAP2 SWAP1 POP JUMP JUMPDEST PUSH1 0x0 PUSH1 0x1 DUP4 MLOAD SWAP1 SHR PUSH8 0xFFFFFFFFFFFFFFFF DUP2 GT ISZERO PUSH2 0x5E6 JUMPI PUSH2 0x5E6 PUSH2 0xC05 JUMP JUMPDEST PUSH1 0x40 MLOAD SWAP1 DUP1 DUP3 MSTORE DUP1 PUSH1 0x20 MUL PUSH1 0x20 ADD DUP3 ADD PUSH1 0x40 MSTORE DUP1 ISZERO PUSH2 0x60F JUMPI DUP2 PUSH1 0x20 ADD PUSH1 0x20 DUP3 MUL DUP1 CALLDATASIZE DUP4 CALLDATACOPY ADD SWAP1 POP JUMPDEST POP SWAP1 POP PUSH1 0x0 JUMPDEST DUP4 MLOAD DUP2 LT ISZERO PUSH2 0x6C1 JUMPI DUP4 DUP2 DUP2 MLOAD DUP2 LT PUSH2 0x630 JUMPI PUSH2 0x630 PUSH2 0xD58 JUMP JUMPDEST PUSH1 0x20 MUL PUSH1 0x20 ADD ADD MLOAD DUP5 DUP3 PUSH1 0x1 PUSH2 0x646 SWAP2 SWAP1 PUSH2 0xCEF JUMP JUMPDEST DUP2 MLOAD DUP2 LT PUSH2 0x656 JUMPI PUSH2 0x656 PUSH2 0xD58 JUMP JUMPDEST PUSH1 0x20 MUL PUSH1 0x20 ADD ADD MLOAD PUSH1 0x40 MLOAD PUSH1 0x20 ADD PUSH2 0x678 SWAP3 SWAP2 SWAP1 SWAP2 DUP3 MSTORE PUSH1 0x20 DUP3 ADD MSTORE PUSH1 0x40 ADD SWAP1 JUMP JUMPDEST PUSH1 0x40 MLOAD PUSH1 0x20 DUP2 DUP4 SUB SUB DUP2 MSTORE SWAP1 PUSH1 0x40 MSTORE DUP1 MLOAD SWAP1 PUSH1 0x20 ADD KECCAK256 DUP3 PUSH1 0x1 DUP4 SWAP1 SHR DUP2 MLOAD DUP2 LT PUSH2 0x6A4 JUMPI PUSH2 0x6A4 PUSH2 0xD58 JUMP JUMPDEST PUSH1 0x20 SWAP1 DUP2 MUL SWAP2 SWAP1 SWAP2 ADD ADD MSTORE PUSH2 0x6BA PUSH1 0x2 DUP3 PUSH2 0xCEF JUMP JUMPDEST SWAP1 POP PUSH2 0x615 JUMP JUMPDEST POP PUSH2 0x222 DUP2 PUSH2 0x4D0 JUMP JUMPDEST PUSH1 0x0 PUSH1 0x3 DUP3 LT ISZERO DUP1 ISZERO PUSH2 0x6DF JUMPI POP PUSH1 0x40 DUP3 GT ISZERO JUMPDEST PUSH2 0x72B JUMPI PUSH1 0x40 MLOAD PUSH3 0x461BCD PUSH1 0xE5 SHL DUP2 MSTORE PUSH1 0x20 PUSH1 0x4 DUP3 ADD MSTORE PUSH1 0x19 PUSH1 0x24 DUP3 ADD MSTORE PUSH32 0x72616E6765206F66206C6F673253697A653A205B332C36345D00000000000000 PUSH1 0x44 DUP3 ADD MSTORE PUSH1 0x64 ADD PUSH2 0x12D JUMP JUMPDEST PUSH1 0x0 DUP4 SWAP1 SUB PUSH2 0x749 JUMPI PUSH2 0x742 PUSH2 0x99 PUSH1 0x3 DUP5 PUSH2 0xD41 JUMP JUMPDEST SWAP1 POP PUSH2 0x222 JUMP JUMPDEST PUSH1 0x0 PUSH2 0x756 PUSH1 0x3 DUP5 PUSH2 0xD41 JUMP JUMPDEST PUSH1 0x1 SWAP1 SHL SWAP1 POP PUSH1 0x3 DUP2 SWAP1 SHL DUP5 GT ISZERO PUSH2 0x7B0 JUMPI PUSH1 0x40 MLOAD PUSH3 0x461BCD PUSH1 0xE5 SHL DUP2 MSTORE PUSH1 0x20 PUSH1 0x4 DUP3 ADD MSTORE PUSH1 0x19 PUSH1 0x24 DUP3 ADD MSTORE PUSH32 0x6461746120697320626967676572207468616E20647269766500000000000000 PUSH1 0x44 DUP3 ADD MSTORE PUSH1 0x64 ADD PUSH2 0x12D JUMP JUMPDEST PUSH1 0x40 MLOAD PUSH4 0x6C8E54B PUSH1 0xE0 SHL DUP2 MSTORE PUSH1 0x3 DUP6 SWAP1 SHR PUSH1 0x4 DUP3 ADD MSTORE PUSH1 0x0 SWAP1 PUSH20 0x0 SWAP1 PUSH4 0x6C8E54B SWAP1 PUSH1 0x24 ADD PUSH1 0x20 PUSH1 0x40 MLOAD DUP1 DUP4 SUB DUP2 DUP7 GAS DELEGATECALL ISZERO DUP1 ISZERO PUSH2 0x806 JUMPI RETURNDATASIZE PUSH1 0x0 DUP1 RETURNDATACOPY RETURNDATASIZE PUSH1 0x0 REVERT JUMPDEST POP POP POP POP PUSH1 0x40 MLOAD RETURNDATASIZE PUSH1 0x1F NOT PUSH1 0x1F DUP3 ADD AND DUP3 ADD DUP1 PUSH1 0x40 MSTORE POP DUP2 ADD SWAP1 PUSH2 0x82A SWAP2 SWAP1 PUSH2 0xDC8 JUMP JUMPDEST PUSH2 0x835 SWAP1 PUSH1 0x2 PUSH2 0xDEB JUMP JUMPDEST PUSH1 0xFF AND SWAP1 POP PUSH1 0x0 DUP2 PUSH8 0xFFFFFFFFFFFFFFFF DUP2 GT ISZERO PUSH2 0x855 JUMPI PUSH2 0x855 PUSH2 0xC05 JUMP JUMPDEST PUSH1 0x40 MLOAD SWAP1 DUP1 DUP3 MSTORE DUP1 PUSH1 0x20 MUL PUSH1 0x20 ADD DUP3 ADD PUSH1 0x40 MSTORE DUP1 ISZERO PUSH2 0x87E JUMPI DUP2 PUSH1 0x20 ADD PUSH1 0x20 DUP3 MUL DUP1 CALLDATASIZE DUP4 CALLDATACOPY ADD SWAP1 POP JUMPDEST POP SWAP1 POP PUSH1 0x0 DUP1 PUSH1 0x0 DUP1 JUMPDEST DUP7 DUP5 LT ISZERO PUSH2 0xA70 JUMPI PUSH1 0x3 DUP5 SWAP1 SHL DUP11 GT ISZERO PUSH2 0x8D9 JUMPI PUSH2 0x8A7 DUP12 DUP12 DUP7 PUSH2 0xD7 JUMP JUMPDEST DUP6 DUP5 DUP2 MLOAD DUP2 LT PUSH2 0x8B9 JUMPI PUSH2 0x8B9 PUSH2 0xD58 JUMP JUMPDEST PUSH1 0x20 SWAP1 DUP2 MUL SWAP2 SWAP1 SWAP2 ADD ADD MSTORE DUP4 PUSH2 0x8CE DUP2 PUSH2 0xD6E JUMP JUMPDEST SWAP5 POP POP DUP4 SWAP2 POP PUSH2 0x98A JUMP JUMPDEST PUSH1 0x40 MLOAD PUSH4 0x52DCF5F PUSH1 0xE3 SHL DUP2 MSTORE PUSH1 0x4 DUP2 ADD DUP6 SWAP1 MSTORE PUSH20 0x0 SWAP1 PUSH4 0x296E7AF8 SWAP1 PUSH1 0x24 ADD PUSH1 0x20 PUSH1 0x40 MLOAD DUP1 DUP4 SUB DUP2 DUP7 GAS DELEGATECALL ISZERO DUP1 ISZERO PUSH2 0x929 JUMPI RETURNDATASIZE PUSH1 0x0 DUP1 RETURNDATACOPY RETURNDATASIZE PUSH1 0x0 REVERT JUMPDEST POP POP POP POP PUSH1 0x40 MLOAD RETURNDATASIZE PUSH1 0x1F NOT PUSH1 0x1F DUP3 ADD AND DUP3 ADD DUP1 PUSH1 0x40 MSTORE POP DUP2 ADD SWAP1 PUSH2 0x94D SWAP2 SWAP1 PUSH2 0xE10 JUMP JUMPDEST SWAP1 POP PUSH2 0x958 DUP2 PUSH2 0x229 JUMP JUMPDEST DUP6 DUP5 DUP2 MLOAD DUP2 LT PUSH2 0x96A JUMPI PUSH2 0x96A PUSH2 0xD58 JUMP JUMPDEST PUSH1 0x20 SWAP1 DUP2 MUL SWAP2 SWAP1 SWAP2 ADD ADD MSTORE PUSH2 0x982 PUSH1 0x1 DUP3 SHL DUP6 PUSH2 0xCEF JUMP JUMPDEST SWAP4 POP DUP4 DUP2 SHR SWAP2 POP JUMPDEST DUP3 PUSH2 0x994 DUP2 PUSH2 0xD6E JUMP JUMPDEST SWAP4 POP POP JUMPDEST DUP2 PUSH1 0x1 AND PUSH1 0x0 SUB PUSH2 0xA6B JUMPI PUSH1 0x0 DUP6 PUSH2 0x9B1 PUSH1 0x1 DUP7 PUSH2 0xD41 JUMP JUMPDEST DUP2 MLOAD DUP2 LT PUSH2 0x9C1 JUMPI PUSH2 0x9C1 PUSH2 0xD58 JUMP JUMPDEST PUSH1 0x20 MUL PUSH1 0x20 ADD ADD MLOAD SWAP1 POP PUSH1 0x0 DUP7 PUSH1 0x2 DUP7 PUSH2 0x9DB SWAP2 SWAP1 PUSH2 0xD41 JUMP JUMPDEST DUP2 MLOAD DUP2 LT PUSH2 0x9EB JUMPI PUSH2 0x9EB PUSH2 0xD58 JUMP JUMPDEST PUSH1 0x20 MUL PUSH1 0x20 ADD ADD MLOAD SWAP1 POP DUP1 DUP3 PUSH1 0x40 MLOAD PUSH1 0x20 ADD PUSH2 0xA11 SWAP3 SWAP2 SWAP1 SWAP2 DUP3 MSTORE PUSH1 0x20 DUP3 ADD MSTORE PUSH1 0x40 ADD SWAP1 JUMP JUMPDEST PUSH1 0x40 MLOAD PUSH1 0x20 DUP2 DUP4 SUB SUB DUP2 MSTORE SWAP1 PUSH1 0x40 MSTORE DUP1 MLOAD SWAP1 PUSH1 0x20 ADD KECCAK256 DUP8 PUSH1 0x2 DUP8 PUSH2 0xA35 SWAP2 SWAP1 PUSH2 0xD41 JUMP JUMPDEST DUP2 MLOAD DUP2 LT PUSH2 0xA45 JUMPI PUSH2 0xA45 PUSH2 0xD58 JUMP JUMPDEST PUSH1 0x20 SWAP1 DUP2 MUL SWAP2 SWAP1 SWAP2 ADD ADD MSTORE PUSH2 0xA5B PUSH1 0x1 DUP7 PUSH2 0xD41 JUMP JUMPDEST SWAP5 POP PUSH1 0x1 DUP5 SWAP1 SHR SWAP4 POP POP POP PUSH2 0x998 JUMP JUMPDEST PUSH2 0x888 JUMP JUMPDEST DUP3 PUSH1 0x1 EQ PUSH2 0xAAE JUMPI PUSH1 0x40 MLOAD PUSH3 0x461BCD PUSH1 0xE5 SHL DUP2 MSTORE PUSH1 0x20 PUSH1 0x4 DUP3 ADD MSTORE PUSH1 0xB PUSH1 0x24 DUP3 ADD MSTORE PUSH11 0x39BA30B1B59032B93937B9 PUSH1 0xA9 SHL PUSH1 0x44 DUP3 ADD MSTORE PUSH1 0x64 ADD PUSH2 0x12D JUMP JUMPDEST DUP5 PUSH1 0x0 DUP2 MLOAD DUP2 LT PUSH2 0xAC1 JUMPI PUSH2 0xAC1 PUSH2 0xD58 JUMP JUMPDEST PUSH1 0x20 MUL PUSH1 0x20 ADD ADD MLOAD SWAP8 POP POP POP POP POP POP POP POP SWAP4 SWAP3 POP POP POP JUMP JUMPDEST PUSH1 0x0 DUP1 PUSH1 0x0 PUSH1 0x40 DUP5 DUP7 SUB SLT ISZERO PUSH2 0xAEE JUMPI PUSH1 0x0 DUP1 REVERT JUMPDEST DUP4 CALLDATALOAD PUSH8 0xFFFFFFFFFFFFFFFF DUP1 DUP3 GT ISZERO PUSH2 0xB06 JUMPI PUSH1 0x0 DUP1 REVERT JUMPDEST DUP2 DUP7 ADD SWAP2 POP DUP7 PUSH1 0x1F DUP4 ADD SLT PUSH2 0xB1A JUMPI PUSH1 0x0 DUP1 REVERT JUMPDEST DUP2 CALLDATALOAD DUP2 DUP2 GT ISZERO PUSH2 0xB29 JUMPI PUSH1 0x0 DUP1 REVERT JUMPDEST DUP8 PUSH1 0x20 DUP3 DUP6 ADD ADD GT ISZERO PUSH2 0xB3B JUMPI PUSH1 0x0 DUP1 REVERT JUMPDEST PUSH1 0x20 SWAP3 DUP4 ADD SWAP9 SWAP1 SWAP8 POP SWAP6 SWAP1 SWAP2 ADD CALLDATALOAD SWAP5 SWAP4 POP POP POP POP JUMP JUMPDEST PUSH1 0x0 PUSH1 0x20 DUP3 DUP5 SUB SLT ISZERO PUSH2 0xB63 JUMPI PUSH1 0x0 DUP1 REVERT JUMPDEST POP CALLDATALOAD SWAP2 SWAP1 POP JUMP JUMPDEST PUSH1 0x0 DUP1 PUSH1 0x0 DUP1 PUSH1 0x0 DUP1 PUSH1 0xA0 DUP8 DUP10 SUB SLT ISZERO PUSH2 0xB83 JUMPI PUSH1 0x0 DUP1 REVERT JUMPDEST DUP7 CALLDATALOAD SWAP6 POP PUSH1 0x20 DUP8 ADD CALLDATALOAD SWAP5 POP PUSH1 0x40 DUP8 ADD CALLDATALOAD SWAP4 POP PUSH1 0x60 DUP8 ADD CALLDATALOAD SWAP3 POP PUSH1 0x80 DUP8 ADD CALLDATALOAD PUSH8 0xFFFFFFFFFFFFFFFF DUP1 DUP3 GT ISZERO PUSH2 0xBB7 JUMPI PUSH1 0x0 DUP1 REVERT JUMPDEST DUP2 DUP10 ADD SWAP2 POP DUP10 PUSH1 0x1F DUP4 ADD SLT PUSH2 0xBCB JUMPI PUSH1 0x0 DUP1 REVERT JUMPDEST DUP2 CALLDATALOAD DUP2 DUP2 GT ISZERO PUSH2 0xBDA JUMPI PUSH1 0x0 DUP1 REVERT JUMPDEST DUP11 PUSH1 0x20 DUP3 PUSH1 0x5 SHL DUP6 ADD ADD GT ISZERO PUSH2 0xBEF JUMPI PUSH1 0x0 DUP1 REVERT JUMPDEST PUSH1 0x20 DUP4 ADD SWAP5 POP DUP1 SWAP4 POP POP POP POP SWAP3 SWAP6 POP SWAP3 SWAP6 POP SWAP3 SWAP6 JUMP JUMPDEST PUSH4 0x4E487B71 PUSH1 0xE0 SHL PUSH1 0x0 MSTORE PUSH1 0x41 PUSH1 0x4 MSTORE PUSH1 0x24 PUSH1 0x0 REVERT JUMPDEST PUSH1 0x0 PUSH1 0x20 DUP1 DUP4 DUP6 SUB SLT ISZERO PUSH2 0xC2E JUMPI PUSH1 0x0 DUP1 REVERT JUMPDEST DUP3 CALLDATALOAD PUSH8 0xFFFFFFFFFFFFFFFF DUP1 DUP3 GT ISZERO PUSH2 0xC46 JUMPI PUSH1 0x0 DUP1 REVERT JUMPDEST DUP2 DUP6 ADD SWAP2 POP DUP6 PUSH1 0x1F DUP4 ADD SLT PUSH2 0xC5A JUMPI PUSH1 0x0 DUP1 REVERT JUMPDEST DUP2 CALLDATALOAD DUP2 DUP2 GT ISZERO PUSH2 0xC6C JUMPI PUSH2 0xC6C PUSH2 0xC05 JUMP JUMPDEST DUP1 PUSH1 0x5 SHL PUSH1 0x40 MLOAD PUSH1 0x1F NOT PUSH1 0x3F DUP4 ADD AND DUP2 ADD DUP2 DUP2 LT DUP6 DUP3 GT OR ISZERO PUSH2 0xC91 JUMPI PUSH2 0xC91 PUSH2 0xC05 JUMP JUMPDEST PUSH1 0x40 MSTORE SWAP2 DUP3 MSTORE DUP5 DUP3 ADD SWAP3 POP DUP4 DUP2 ADD DUP6 ADD SWAP2 DUP9 DUP4 GT ISZERO PUSH2 0xCAF JUMPI PUSH1 0x0 DUP1 REVERT JUMPDEST SWAP4 DUP6 ADD SWAP4 JUMPDEST DUP3 DUP6 LT ISZERO PUSH2 0xCCD JUMPI DUP5 CALLDATALOAD DUP5 MSTORE SWAP4 DUP6 ADD SWAP4 SWAP3 DUP6 ADD SWAP3 PUSH2 0xCB4 JUMP JUMPDEST SWAP9 SWAP8 POP POP POP POP POP POP POP POP JUMP JUMPDEST PUSH4 0x4E487B71 PUSH1 0xE0 SHL PUSH1 0x0 MSTORE PUSH1 0x11 PUSH1 0x4 MSTORE PUSH1 0x24 PUSH1 0x0 REVERT JUMPDEST PUSH1 0x0 DUP3 NOT DUP3 GT ISZERO PUSH2 0xD02 JUMPI PUSH2 0xD02 PUSH2 0xCD9 JUMP JUMPDEST POP ADD SWAP1 JUMP JUMPDEST PUSH1 0x0 DUP1 DUP6 DUP6 GT ISZERO PUSH2 0xD17 JUMPI PUSH1 0x0 DUP1 REVERT JUMPDEST DUP4 DUP7 GT ISZERO PUSH2 0xD24 JUMPI PUSH1 0x0 DUP1 REVERT JUMPDEST POP POP DUP3 ADD SWAP4 SWAP2 SWAP1 SWAP3 SUB SWAP2 POP JUMP JUMPDEST DUP2 DUP4 DUP3 CALLDATACOPY PUSH1 0x0 SWAP2 ADD SWAP1 DUP2 MSTORE SWAP2 SWAP1 POP JUMP JUMPDEST PUSH1 0x0 DUP3 DUP3 LT ISZERO PUSH2 0xD53 JUMPI PUSH2 0xD53 PUSH2 0xCD9 JUMP JUMPDEST POP SUB SWAP1 JUMP JUMPDEST PUSH4 0x4E487B71 PUSH1 0xE0 SHL PUSH1 0x0 MSTORE PUSH1 0x32 PUSH1 0x4 MSTORE PUSH1 0x24 PUSH1 0x0 REVERT JUMPDEST PUSH1 0x0 PUSH1 0x1 DUP3 ADD PUSH2 0xD80 JUMPI PUSH2 0xD80 PUSH2 0xCD9 JUMP JUMPDEST POP PUSH1 0x1 ADD SWAP1 JUMP JUMPDEST PUSH1 0x0 DUP2 PUSH1 0x0 NOT DIV DUP4 GT DUP3 ISZERO ISZERO AND ISZERO PUSH2 0xDA1 JUMPI PUSH2 0xDA1 PUSH2 0xCD9 JUMP JUMPDEST POP MUL SWAP1 JUMP JUMPDEST PUSH1 0x0 PUSH1 0x20 DUP3 DUP5 SUB SLT ISZERO PUSH2 0xDB8 JUMPI PUSH1 0x0 DUP1 REVERT JUMPDEST DUP2 MLOAD DUP1 ISZERO ISZERO DUP2 EQ PUSH2 0x222 JUMPI PUSH1 0x0 DUP1 REVERT JUMPDEST PUSH1 0x0 PUSH1 0x20 DUP3 DUP5 SUB SLT ISZERO PUSH2 0xDDA JUMPI PUSH1 0x0 DUP1 REVERT JUMPDEST DUP2 MLOAD PUSH1 0xFF DUP2 AND DUP2 EQ PUSH2 0x222 JUMPI PUSH1 0x0 DUP1 REVERT JUMPDEST PUSH1 0x0 PUSH1 0xFF DUP3 AND PUSH1 0xFF DUP5 AND DUP1 PUSH1 0xFF SUB DUP3 GT ISZERO PUSH2 0xE08 JUMPI PUSH2 0xE08 PUSH2 0xCD9 JUMP JUMPDEST ADD SWAP4 SWAP3 POP POP POP JUMP JUMPDEST PUSH1 0x0 PUSH1 0x20 DUP3 DUP5 SUB SLT ISZERO PUSH2 0xE22 JUMPI PUSH1 0x0 DUP1 REVERT JUMPDEST POP MLOAD SWAP2 SWAP1 POP JUMP INVALID ADD SHL 0x4D SUB 0xDD DUP13 ADD CALL DIV SWAP2 NUMBER 0xCF SWAP13 0x4C DUP2 PUSH31 0x4B167F1D1B83E5C6F0F10D89BA1E7BCE4D9470A821FBE90117EC357E30BAD9 ADDRESS JUMPI ORIGIN 0xFB NOT 0xDD CREATE2 0x4A SMOD 0xDD RETURNDATACOPY 0x29 DELEGATECALL BLOCKHASH PUSH2 0x9254 0xAE CODECOPY 0xCE DUP6 CALLDATACOPY 0xAC 0xA7 0x5E 0x2E SELFDESTRUCT RETURNDATACOPY CODESIZE 0xC9 DUP1 GT 0xDF 0xE9 CALLVALUE 0xE7 STOP LOG0 SWAP7 PUSH24 0x32FC07B430DD656A233FC9A15F5B4869C872F81087BB6104 0xB7 0xD6 RETURNDATACOPY PUSH16 0x9AB47F2C43F3535EAE7172AA7F17D2DD PUSH2 0x4CDD 0xAA 0x4D DUP8 SWAP3 PUSH23 0xB11E0672C9560033D3E8453A1D045339D34BA601B9C37B DUP12 SGT 0xCA SWAP6 AND PUSH16 0xB7AF16988A70FCC90F38BF9126FD833D 0xA7 LT LOG4 PUSH32 0xB37A55E68E7A427FA943D9966B389F4F257173676090C6E95F43E2CB6D65F875 DUP2 GT 0xE3 MULMOD ADDRESS 0xB0 0xB9 0xDE 0xB7 RETURNDATACOPY ISZERO 0x5C MSIZE PUSH21 0xBACF14A6FF04B64BB8E201A506409C3FE381CA4EA SWAP1 0xCD 0x5D 0xEA 0xC7 0x29 0xD0 REVERT 0xAC 0xCC DIFFICULTY SAR MULMOD 0xD7 ORIGIN 0x5F COINBASE PC PUSH12 0xA13C801B7ECCAE0F95D8F393 RETURNDATACOPY INVALID 0xD8 0xB9 PUSH15 0x5B7F6F459E9CB6A2F41BF276C7B85C LT 0xCD CHAINID PUSH3 0xC04CBB 0xB3 PUSH6 0x434726C0A0C9 PUSH10 0x5393027FB106A8153109 0xAC MLOAD PUSH3 0x88A88B 0x28 0xA9 CODESIZE OR DUP10 SWAP5 PUSH1 0xD6 BALANCE SIGNEXTEND PUSH18 0xCF1E6163E8806FA0D4B197A259E8C3AC2886 TIMESTAMP PUSH9 0x159D0AC85F8581CA28 STATICCALL PUSH30 0x2C0C03EB91E3EEE5CA7A3DA2B3053C9770DB73599FB149F620E3FACEF95E SWAP5 PUSH29 0xEE860B72122E31E4BBD2B7C783D79CC30F60C6238651DA7F0726F767D 0x22 PUSH21 0x7264FDB046F7549F26CC70ED5E18BAEB6C81BB0625 0xCB SWAP6 0xBB BLOCKHASH NOT 0xAE 0xEC 0xD4 SMOD PUSH21 0xEE87AE29EC517A71F6EE264C5D761379B3D7D617CA DUP4 PUSH8 0x7374B49D10AEC505 SDIV 0xAC ADDMOD PUSH21 0x8CA892B573C267A712A52E1D06421FE276A03EFB1 DUP9 SWAP16 CALLER PUSH19 0x1110FDC32A81F8E152499AF665835AABFDC67 BLOCKHASH 0xC7 0xE2 0xC3 PUSH26 0x1A31C3CDC9F5AB962F681B12FC092816A62F27D86025599A4123 CODESIZE BASEFEE PUSH17 0x2F0CFC0437B445682DF51147A632A0A083 0xD2 0xD3 DUP12 0x5E SGT 0xE4 PUSH7 0xA8935AFFF58BB5 CALLER 0xB3 0xEF 0x5D 0x27 0xFB 0xA6 RETURNDATACOPY 0xE6 0xB0 REVERT SWAP15 PUSH8 0xFF20AF9D50DEEE3F DUP12 CREATE PUSH6 0xEC220C1FD4BA JUMPI 0xE3 COINBASE 0x26 SAR SSTORE SWAP10 PUSH32 0x85D66D32152526736872693D2B437A233E2337B715F6AC9A6A272622FDC2D67F 0xCF 0xE1 0xDA CALLVALUE MSIZE 0xF8 0xDA 0xB4 0xED PUSH31 0x40A657A54C36766C5E8AC9A88B35B05C34747E6507F6B044AB66180DC76AC1 0xA6 SWAP7 0xDE SUB XOR SWAP6 SWAP4 INVALID 0xDC 0xD 0xD 0xBB 0xD8 SSTORE 0xC8 0xEA 0xD6 PUSH20 0x544899B0960E4A5A7CA43B4EF90AFE607DE7698C 0xAE REVERT 0xC2 TIMESTAMP PUSH25 0x8F654B57A4FB32A71B335EF6FF9A4CC118B282B53BDD6D6192 0xB7 0xA8 0x2C EXTCODECOPY MLOAD 0x26 0xB9 0xC7 0xE3 EXTCODECOPY DUP15 GAS GAS 0xC9 PUSH20 0x8B8BD31247FB7402054F97B573E8ABB9FAAD219F 0x4F 0xD0 DUP6 0xAC 0xEA 0xA7 CREATE2 TIMESTAMP 0xD7 DUP8 0xEE COINBASE SWAP7 0xD3 PUSH6 0xF3CC566E7BBC 0xFB REVERT GASLIMIT SLT ADDRESS 0xC4 DUP14 DUP1 0x4C ADD PUSH30 0x21E2D8FA914E2559BB72BF0AB78C8AB92F00EF0D0D576ECCDD486B64138A COINBASE PUSH19 0x674857E543D1D5B639058DD908186597E366AD 0x5F RETURNDATASIZE SWAP13 PUSH29 0xEAFF44D04D1550B8D33ABC751DF07437834BA5ACB32328A396994AEBB3 0xC4 0xF PUSH22 0x9C2D6D7A3CB5377E55D5D218EF5A296DDA8DDC355F3F POP 0xC3 0xD0 0xB6 PUSH1 0xA5 SAR STATICCALL 0x4D SWAP9 0xA6 0xA5 LOG3 CALLDATALOAD PUSH5 0x556CF83C13 PUSH20 0xA814641D6A1DCEF97B883FEE61BB84FE60A34093 BLOCKHASH 0x21 PUSH31 0x629CC7E4DCC93B85D8820921FF5826148B60E6939ACD7838E1D7F20562BFF8 0xEE 0x4B 0x5E 0xC4 LOG0 GAS 0xD9 SWAP8 0xA5 PUSH28 0x9796FDCB2EDA87883C2640B072B140B946BFDF6575CACC066FDAE04F PUSH10 0x51E63624CBD316A677CA 0xD5 0x29 0xBB 0xE4 0xE9 PUSH28 0x9144E4BC06C4AFD1DE55DD3E1175F90423847A230D34DFB71ED56F29 PUSH6 0xA7F6C72E6AA3 EXTCODECOPY 0x24 0xC3 SUB REVERT PUSH8 0x745D632656C5EF90 0xBE 0xC8 0xF 0x4F 0x5D SAR 0xAA 0x25 NOT DUP9 DUP3 PUSH13 0xEF375C81C36BF457E09687056F SWAP3 CHAINID PUSH24 0xCB0BCCF98DFF81E014CE25F2D132497923E267363963CDF4 ADDRESS 0x2C POP 0x49 0xD6 BALANCE BALANCE 0xDC SUB REVERT SWAP6 0xF6 0x5D DUP12 PUSH11 0xA5934F817252C028C90F56 0xD4 SGT 0xB9 0xD5 0xD1 0xD DUP10 PUSH26 0x707DAE2FABB249F649929927C21DD71E3F656826DE5451C5DA3 PUSH22 0xAADECBD59D5EBF3A31FAE65AC1B316A1611F1B276B26 MSTORE8 0xF PC 0xD7 0x24 PUSH30 0xF459CE1F86DB1D734F6F811932F042CEE45D0E455306D01081BC3384F82C 0x5F 0xB2 0xAA 0xCA LOG1 SWAP14 DUP10 0xCD STATICCALL CHAINID 0xCC SWAP2 PUSH15 0xAC61121475BA2E6191B4FEECBE1789 PUSH18 0x7021A158ACE5D06744B40F551076B67CD63A 0xF6 STOP SMOD 0xF8 0xC9 SWAP9 PUSH23 0xE1424883A45EC49D497DDAF808A5521CA74A999AB0B3C7 0xAA SWAP13 DUP1 0xF8 0x5E SWAP4 SWAP8 PUSH31 0xC61CE68B20307A1A81F71CA645B568FCD319CCBB5F651E87B707D37C39E15F SWAP5 0x5E 0xA6 SWAP15 0x2F PUSH29 0x7D2CCC85B7E654C07E96F0636AE4044FE0E38590B431795AD0F8647BDD PUSH2 0x3713 0xAD LOG4 SWAP4 0xCC OR 0xEF 0xD3 SGT KECCAK256 PUSH4 0x80E6A685 0xB8 NOT DUP5 PUSH22 0xBBD021C6E9D94DAAB2214947127506073E44D5408BA1 PUSH7 0xC512A0B86805D0 PUSH32 0x5A44D3C41706BE2BC15E712E55805248B92E8677D90F6D284D1D6FFAFF2C4306 JUMPI DIV 0x2A 0xE DUP3 PUSH3 0x4FA371 PUSH28 0x6CC0A6FD12230EA586DAE83019FB9E06034ED2803C98D554B93C9A5 0x23 BASEFEE 0xCA SELFDESTRUCT 0xF7 0x5C BLOCKHASH OR 0x4A SWAP2 0xF9 0xAE PUSH12 0x8647854A156029F0B88B8331 PUSH7 0x63CE574A497827 PUSH28 0xB6BB27A31085634B6EC78864B6D8201C7E93903D75815067E378289A RETURNDATASIZE SMOD 0x2A 0xE1 PUSH19 0xDAFA6A452470F8D645BEBFAD9779594FC0784B 0xB7 PUSH5 0xA22E3A8181 0xD9 RETURNDATASIZE 0xB7 0xBF SWAP8 DUP10 EXTCODECOPY COINBASE TIMESTAMP OR 0xA6 XOR 0xCC 0xB1 0x4C 0xAA SWAP15 SWAP3 0xE8 0xC6 AND PUSH20 0xAFC9583662E812ADBA1F87A9C68202D60E909EFA 0xB4 EXTCODECOPY TIMESTAMP 0xC0 0xCB STOP PUSH10 0x5FC7F1FFE67C75CA894C EXTCODECOPY MLOAD 0xE1 0xE5 0xE7 BALANCE CALLDATASIZE ADD SWAP10 0xE6 STOP 0xF6 0xCE 0xD9 0xA8 PUSH28 0x2A6A87E70BF251BB5075AB222138288164B2EDA727515EA7DE12E249 PUSH14 0x4FE42EA8D1A120C03CF9C50622C2 0xAF 0xE4 0xAC 0xB0 0xDA 0xD9 DUP16 0xD6 0x2D SMOD 0xAB 0x4E DUP3 DUP11 SWAP5 0x49 0x5F PUSH14 0x1AB973982C7CCBE6C1FAE02788E4 TIMESTAMP 0x2A 0xE2 0x22 DUP3 STATICCALL 0x49 0xCB 0xDB DIV 0xBA SLOAD 0xA7 LOG2 CODESIZE 0xC6 0xFC COINBASE XOR PUSH21 0x51383460762C06D1C8A72B9CD718866AD4B689E10C SWAP11 DUP13 CODESIZE INVALID 0x5E CREATE GASLIMIT 0xBD PUSH25 0x5B01E980FC82C7E3532CE81876B778DD9F1CEEBA4478E86411 0xFB PUSH16 0xDD790683916CA832592485093644E876 0xC 0xD7 0xB4 0xC0 SAR 0xBA SHR 0xCC DUP3 0xB6 PUSH2 0xBF13 CREATE 0xE3 RETURN 0x4A 0xCD PUSH12 0x88A26469706673582212204A BLOCKHASH 0x22 0x4F 0xD3 MSIZE BYTE LOG0 0x4F 0xD0 0x4C 0xE8 PUSH22 0xD6C9C3DB7F8C704FE0613B137A0E7EB4F957F764736F PUSH13 0x634300080D0033000000000000 "
    },
    "gasEstimates": {
      "creation": {
        "codeDepositCost": "1126200",
        "executionCost": "1202",
        "totalCost": "1127402"
      },
      "external": {
        "calculateRootFromPowerOfTwo(bytes32[])": "infinite",
        "getEmptyTreeHashAtIndex(uint256)": "infinite",
        "getHashOfWordAtIndex(bytes,uint256)": "infinite",
        "getMerkleRootFromBytes(bytes,uint256)": "infinite",
        "getRootAfterReplacementInDrive(uint256,uint256,uint256,bytes32,bytes32[])": "infinite"
      }
    },
    "methodIdentifiers": {
      "calculateRootFromPowerOfTwo(bytes32[])": "82b0eab8",
      "getEmptyTreeHashAtIndex(uint256)": "451a1055",
      "getHashOfWordAtIndex(bytes,uint256)": "34bd712d",
      "getMerkleRootFromBytes(bytes,uint256)": "c84583a1",
      "getRootAfterReplacementInDrive(uint256,uint256,uint256,bytes32,bytes32[])": "79de4601"
    }
  },
  "storageLayout": {
    "storage": [],
    "types": null
  },
  "userdoc": {
    "kind": "user",
    "methods": {
      "calculateRootFromPowerOfTwo(bytes32[])": {
        "notice": "Calculate the root of Merkle tree from an array of power of 2 elements"
      },
      "getEmptyTreeHashAtIndex(uint256)": {
        "notice": "Gets precomputed hash of zero in empty tree hashes"
      },
      "getHashOfWordAtIndex(bytes,uint256)": {
        "notice": "Get the hash of a word in an array of bytes"
      },
      "getMerkleRootFromBytes(bytes,uint256)": {
        "notice": "get merkle root of generic array of bytes"
      },
      "getRootAfterReplacementInDrive(uint256,uint256,uint256,bytes32,bytes32[])": {
        "notice": "Gets merkle root hash of drive with a replacement"
      }
    },
    "version": 1
  }
}