{
  "contractName": "OutputFacet",
  "sourceName": "contracts/facets/OutputFacet.sol",
  "abi": [
    {
      "anonymous": false,
      "inputs": [
        {
          "indexed": false,
          "internalType": "uint256",
          "name": "voucherPosition",
          "type": "uint256"
        }
      ],
      "name": "VoucherExecuted",
      "type": "event"
    },
    {
      "inputs": [
        {
          "internalType": "address",
          "name": "_destination",
          "type": "address"
        },
        {
          "internalType": "bytes",
          "name": "_payload",
          "type": "bytes"
        },
        {
          "components": [
            {
              "internalType": "uint256",
              "name": "epochIndex",
              "type": "uint256"
            },
            {
              "internalType": "uint256",
              "name": "inputIndex",
              "type": "uint256"
            },
            {
              "internalType": "uint256",
              "name": "outputIndex",
              "type": "uint256"
            },
            {
              "internalType": "bytes32",
              "name": "outputHashesRootHash",
              "type": "bytes32"
            },
            {
              "internalType": "bytes32",
              "name": "vouchersEpochRootHash",
              "type": "bytes32"
            },
            {
              "internalType": "bytes32",
              "name": "noticesEpochRootHash",
              "type": "bytes32"
            },
            {
              "internalType": "bytes32",
              "name": "machineStateHash",
              "type": "bytes32"
            },
            {
              "internalType": "bytes32[]",
              "name": "keccakInHashesSiblings",
              "type": "bytes32[]"
            },
            {
              "internalType": "bytes32[]",
              "name": "outputHashesInEpochSiblings",
              "type": "bytes32[]"
            }
          ],
          "internalType": "struct OutputValidityProof",
          "name": "_v",
          "type": "tuple"
        }
      ],
      "name": "executeVoucher",
      "outputs": [
        {
          "internalType": "bool",
          "name": "",
          "type": "bool"
        }
      ],
      "stateMutability": "nonpayable",
      "type": "function"
    },
    {
      "inputs": [
        {
          "internalType": "uint256",
          "name": "_voucher",
          "type": "uint256"
        },
        {
          "internalType": "uint256",
          "name": "_input",
          "type": "uint256"
        },
        {
          "internalType": "uint256",
          "name": "_epoch",
          "type": "uint256"
        }
      ],
      "name": "getBitMaskPosition",
      "outputs": [
        {
          "internalType": "uint256",
          "name": "",
          "type": "uint256"
        }
      ],
      "stateMutability": "pure",
      "type": "function"
    },
    {
      "inputs": [],
      "name": "getEpochNoticeLog2Size",
      "outputs": [
        {
          "internalType": "uint256",
          "name": "",
          "type": "uint256"
        }
      ],
      "stateMutability": "pure",
      "type": "function"
    },
    {
      "inputs": [],
      "name": "getEpochVoucherLog2Size",
      "outputs": [
        {
          "internalType": "uint256",
          "name": "",
          "type": "uint256"
        }
      ],
      "stateMutability": "pure",
      "type": "function"
    },
    {
      "inputs": [
        {
          "internalType": "uint256",
          "name": "_index",
          "type": "uint256"
        },
        {
          "internalType": "uint256",
          "name": "_log2Size",
          "type": "uint256"
        }
      ],
      "name": "getIntraDrivePosition",
      "outputs": [
        {
          "internalType": "uint256",
          "name": "",
          "type": "uint256"
        }
      ],
      "stateMutability": "pure",
      "type": "function"
    },
    {
      "inputs": [],
      "name": "getNoticeMetadataLog2Size",
      "outputs": [
        {
          "internalType": "uint256",
          "name": "",
          "type": "uint256"
        }
      ],
      "stateMutability": "pure",
      "type": "function"
    },
    {
      "inputs": [],
      "name": "getNumberOfFinalizedEpochs",
      "outputs": [
        {
          "internalType": "uint256",
          "name": "",
          "type": "uint256"
        }
      ],
      "stateMutability": "view",
      "type": "function"
    },
    {
      "inputs": [],
      "name": "getVoucherMetadataLog2Size",
      "outputs": [
        {
          "internalType": "uint256",
          "name": "",
          "type": "uint256"
        }
      ],
      "stateMutability": "pure",
      "type": "function"
    },
    {
      "inputs": [
        {
          "internalType": "bytes",
          "name": "_encodedNotice",
          "type": "bytes"
        },
        {
          "internalType": "bytes32",
          "name": "_epochHash",
          "type": "bytes32"
        },
        {
          "components": [
            {
              "internalType": "uint256",
              "name": "epochIndex",
              "type": "uint256"
            },
            {
              "internalType": "uint256",
              "name": "inputIndex",
              "type": "uint256"
            },
            {
              "internalType": "uint256",
              "name": "outputIndex",
              "type": "uint256"
            },
            {
              "internalType": "bytes32",
              "name": "outputHashesRootHash",
              "type": "bytes32"
            },
            {
              "internalType": "bytes32",
              "name": "vouchersEpochRootHash",
              "type": "bytes32"
            },
            {
              "internalType": "bytes32",
              "name": "noticesEpochRootHash",
              "type": "bytes32"
            },
            {
              "internalType": "bytes32",
              "name": "machineStateHash",
              "type": "bytes32"
            },
            {
              "internalType": "bytes32[]",
              "name": "keccakInHashesSiblings",
              "type": "bytes32[]"
            },
            {
              "internalType": "bytes32[]",
              "name": "outputHashesInEpochSiblings",
              "type": "bytes32[]"
            }
          ],
          "internalType": "struct OutputValidityProof",
          "name": "_v",
          "type": "tuple"
        }
      ],
      "name": "isValidNoticeProof",
      "outputs": [],
      "stateMutability": "pure",
      "type": "function"
    },
    {
      "inputs": [
        {
          "internalType": "bytes",
          "name": "_encodedVoucher",
          "type": "bytes"
        },
        {
          "internalType": "bytes32",
          "name": "_epochHash",
          "type": "bytes32"
        },
        {
          "components": [
            {
              "internalType": "uint256",
              "name": "epochIndex",
              "type": "uint256"
            },
            {
              "internalType": "uint256",
              "name": "inputIndex",
              "type": "uint256"
            },
            {
              "internalType": "uint256",
              "name": "outputIndex",
              "type": "uint256"
            },
            {
              "internalType": "bytes32",
              "name": "outputHashesRootHash",
              "type": "bytes32"
            },
            {
              "internalType": "bytes32",
              "name": "vouchersEpochRootHash",
              "type": "bytes32"
            },
            {
              "internalType": "bytes32",
              "name": "noticesEpochRootHash",
              "type": "bytes32"
            },
            {
              "internalType": "bytes32",
              "name": "machineStateHash",
              "type": "bytes32"
            },
            {
              "internalType": "bytes32[]",
              "name": "keccakInHashesSiblings",
              "type": "bytes32[]"
            },
            {
              "internalType": "bytes32[]",
              "name": "outputHashesInEpochSiblings",
              "type": "bytes32[]"
            }
          ],
          "internalType": "struct OutputValidityProof",
          "name": "_v",
          "type": "tuple"
        }
      ],
      "name": "isValidVoucherProof",
      "outputs": [],
      "stateMutability": "pure",
      "type": "function"
    }
  ],
  "bytecode": "0x608060405234801561001057600080fd5b50610c7b806100206000396000f3fe608060405234801561001057600080fd5b506004361061009e5760003560e01c80638021be81116100665780638021be811461013557806383552b4d1461013c578063a238203614610163578063a981588a14610135578063f3af7efd1461016357600080fd5b806310517cfc146100a35780633ad58a27146100c85780633c0d9958146100dd5780635e439a0c146100ff5780636190d81e14610112575b600080fd5b6100b56100b1366004610886565b1b90565b6040519081526020015b60405180910390f35b6100db6100d63660046108d7565b61016a565b005b6100b56100eb3660046109b6565b608083901b604083901b1781179392505050565b6100db61010d3660046108d7565b610183565b6101256101203660046109e2565b610197565b60405190151581526020016100bf565b60156100b5565b7f0635ad75fae4d4e8d896461a635d23700076a1c3fd8da26276f18cb1c09ea567546100b5565b60256100b5565b61017e83838360a00135602560158661055c565b505050565b61017e83838360800135602560158661055c565b7f0635ad75fae4d4e8d896461a635d23700076a1c3fd8da26276f18cb1c09ea568546000907f0635ad75fae4d4e8d896461a635d23700076a1c3fd8da26276f18cb1c09ea5669060ff161561022c5760405162461bcd60e51b81526020600482015260166024820152751c99595b9d1c985b98de481b9bdd08185b1b1bddd95960521b60448201526064015b60405180910390fd5b60028101805460ff1916600117905560006102647f0635ad75fae4d4e8d896461a635d23700076a1c3fd8da26276f18cb1c09ea56690565b7f844e22529543d6e722c6477171dd50ffe5b412198b92cd9aeea62bbfabe4cc75549091507f844e22529543d6e722c6477171dd50ffe5b412198b92cd9aeea62bbfabe4cc73906001600160a01b03908116908916036102f85760405162461bcd60e51b815260206004820152600f60248201526e3130b2103232b9ba34b730ba34b7b760891b6044820152606401610223565b600088888860405160200161030f93929190610a98565b604051602081830303815290604052905061034e818460010188600001358154811061033d5761033d610ad8565b906000526020600020015488610183565b60006020870135604090811b9088013560801b178735176040516303fbaf7360e01b8152600481018690526024810182905290915073__$f57eb21c11c6dae369da3ca36f4f48eb77$__906303fbaf7390604401602060405180830381865af41580156103bf573d6000803e3d6000fd5b505050506040513d601f19601f820116820180604052508101906103e39190610aee565b156104305760405162461bcd60e51b815260206004820152601860248201527f72652d657865637574696f6e206e6f7420616c6c6f77656400000000000000006044820152606401610223565b60008a6001600160a01b03168a8a60405161044c929190610b17565b6000604051808303816000865af19150503d8060008114610489576040519150601f19603f3d011682016040523d82523d6000602084013e61048e565b606091505b505090508015610543576040516306449da160e41b815260048101869052602481018390526001604482015273__$f57eb21c11c6dae369da3ca36f4f48eb77$__90636449da109060640160006040518083038186803b1580156104f157600080fd5b505af4158015610505573d6000803e3d6000fd5b505050507f0eb7ee080f865f1cadc4f54daf58cc3b8879e888832867d13351edcec0fbdc548260405161053a91815260200190565b60405180910390a15b955050505050600201805460ff19169055949350505050565b60408051608080840135602083015260a08401359282019290925260c0830135606082015286910160405160208183030381529060405280519060200120146105dd5760405162461bcd60e51b8152602060048201526013602482015272195c1bd8da12185cda081a5b98dbdc9c9958dd606a1b6044820152606401610223565b8373__$c7dbd794b8c7b5c2028db781007df1176e$__6379de4601602084013560051b600587866060013560405160200161061a91815260200190565b60408051601f198184030181529190528051602090910120610640610100890189610b27565b6040518763ffffffff1660e01b815260040161066196959493929190610b78565b602060405180830381865af415801561067e573d6000803e3d6000fd5b505050506040513d601f19601f820116820180604052508101906106a29190610bcf565b146106ef5760405162461bcd60e51b815260206004820152601e60248201527f6f75747075747345706f6368526f6f744861736820696e636f727265637400006044820152606401610223565b600073__$c7dbd794b8c7b5c2028db781007df1176e$__63c84583a1888051906020012060405160200161072591815260200190565b60405160208183030381529060405260056040518363ffffffff1660e01b8152600401610753929190610be8565b602060405180830381865af4158015610770573d6000803e3d6000fd5b505050506040513d601f19601f820116820180604052508101906107949190610bcf565b9050606082013573__$c7dbd794b8c7b5c2028db781007df1176e$__6379de4601604085013560051b600587866107ce60e08a018a610b27565b6040518763ffffffff1660e01b81526004016107ef96959493929190610b78565b602060405180830381865af415801561080c573d6000803e3d6000fd5b505050506040513d601f19601f820116820180604052508101906108309190610bcf565b1461087d5760405162461bcd60e51b815260206004820152601e60248201527f6f7574707574486173686573526f6f744861736820696e636f727265637400006044820152606401610223565b50505050505050565b6000806040838503121561089957600080fd5b50508035926020909101359150565b634e487b7160e01b600052604160045260246000fd5b600061012082840312156108d157600080fd5b50919050565b6000806000606084860312156108ec57600080fd5b833567ffffffffffffffff8082111561090457600080fd5b818601915086601f83011261091857600080fd5b81358181111561092a5761092a6108a8565b604051601f8201601f19908116603f01168101908382118183101715610952576109526108a8565b8160405282815289602084870101111561096b57600080fd5b8260208601602083013760006020848301015280975050505060208601359350604086013591508082111561099f57600080fd5b506109ac868287016108be565b9150509250925092565b6000806000606084860312156109cb57600080fd5b505081359360208301359350604090920135919050565b600080600080606085870312156109f857600080fd5b84356001600160a01b0381168114610a0f57600080fd5b9350602085013567ffffffffffffffff80821115610a2c57600080fd5b818701915087601f830112610a4057600080fd5b813581811115610a4f57600080fd5b886020828501011115610a6157600080fd5b602083019550809450506040870135915080821115610a7f57600080fd5b50610a8c878288016108be565b91505092959194509250565b6001600160a01b03841681526040602082018190528101829052818360608301376000818301606090810191909152601f909201601f1916010192915050565b634e487b7160e01b600052603260045260246000fd5b600060208284031215610b0057600080fd5b81518015158114610b1057600080fd5b9392505050565b8183823760009101908152919050565b6000808335601e19843603018112610b3e57600080fd5b83018035915067ffffffffffffffff821115610b5957600080fd5b6020019150600581901b3603821315610b7157600080fd5b9250929050565b86815285602082015284604082015283606082015260a060808201528160a0820152600060018060fb1b03831115610baf57600080fd5b8260051b808560c08501376000920160c001918252509695505050505050565b600060208284031215610be157600080fd5b5051919050565b604081526000835180604084015260005b81811015610c165760208187018101516060868401015201610bf9565b81811115610c28576000606083860101525b50602083019390935250601f91909101601f19160160600191905056fea2646970667358221220ab5dd554a337df535e6f08f0a561e17bd5256019c878fa8227bf7fa69e0b065664736f6c634300080d0033",
  "linkReferences": {
    "@cartesi/util/contracts/Bitmask.sol": {
      "Bitmask": [
        {
          "length": 20,
          "start": 933
        },
        {
          "length": 20,
          "start": 1244
        }
      ]
    },
    "@cartesi/util/contracts/Merkle.sol": {
      "Merkle": [
        {
          "length": 20,
          "start": 1536
        },
        {
          "length": 20,
          "start": 1811
        },
        {
          "length": 20,
          "start": 1981
        }
      ]
    }
  },
  "deployedLinkReferences": {
    "@cartesi/util/contracts/Bitmask.sol": {
      "Bitmask": [
        {
          "length": 20,
          "start": 901
        },
        {
          "length": 20,
          "start": 1212
        }
      ]
    },
    "@cartesi/util/contracts/Merkle.sol": {
      "Merkle": [
        {
          "length": 20,
          "start": 1504
        },
        {
          "length": 20,
          "start": 1779
        },
        {
          "length": 20,
          "start": 1949
        }
      ]
    }
  },
  "devdoc": {
    "kind": "dev",
    "methods": {
      "executeVoucher(address,bytes,(uint256,uint256,uint256,bytes32,bytes32,bytes32,bytes32,bytes32[],bytes32[]))": {
        "details": "vouchers can only be executed once",
        "params": {
          "_destination": "address that will execute the payload",
          "_payload": "payload to be executed by destination",
          "_v": "validity proof for this encoded voucher"
        },
        "returns": {
          "_0": "true if voucher was executed successfully"
        }
      },
      "getBitMaskPosition(uint256,uint256,uint256)": {
        "params": {
          "_epoch": "which epoch the voucher belongs to",
          "_input": "which input, inside the epoch, the voucher belongs to",
          "_voucher": "of voucher inside the input"
        },
        "returns": {
          "_0": "position of that voucher on bitmask"
        }
      },
      "getIntraDrivePosition(uint256,uint256)": {
        "params": {
          "_index": "index of intra memory range",
          "_log2Size": "of intra memory range"
        }
      }
    },
    "version": 1
  },
  "evm": {
    "bytecode": {
      "linkReferences": {
        "@cartesi/util/contracts/Bitmask.sol": {
          "Bitmask": [
            {
              "length": 20,
              "start": 933
            },
            {
              "length": 20,
              "start": 1244
            }
          ]
        },
        "@cartesi/util/contracts/Merkle.sol": {
          "Merkle": [
            {
              "length": 20,
              "start": 1536
            },
            {
              "length": 20,
              "start": 1811
            },
            {
              "length": 20,
              "start": 1981
            }
          ]
        }
      },
      "opcodes": "PUSH1 0x80 PUSH1 0x40 MSTORE CALLVALUE DUP1 ISZERO PUSH2 0x10 JUMPI PUSH1 0x0 DUP1 REVERT JUMPDEST POP PUSH2 0xC7B DUP1 PUSH2 0x20 PUSH1 0x0 CODECOPY PUSH1 0x0 RETURN INVALID PUSH1 0x80 PUSH1 0x40 MSTORE CALLVALUE DUP1 ISZERO PUSH2 0x10 JUMPI PUSH1 0x0 DUP1 REVERT JUMPDEST POP PUSH1 0x4 CALLDATASIZE LT PUSH2 0x9E JUMPI PUSH1 0x0 CALLDATALOAD PUSH1 0xE0 SHR DUP1 PUSH4 0x8021BE81 GT PUSH2 0x66 JUMPI DUP1 PUSH4 0x8021BE81 EQ PUSH2 0x135 JUMPI DUP1 PUSH4 0x83552B4D EQ PUSH2 0x13C JUMPI DUP1 PUSH4 0xA2382036 EQ PUSH2 0x163 JUMPI DUP1 PUSH4 0xA981588A EQ PUSH2 0x135 JUMPI DUP1 PUSH4 0xF3AF7EFD EQ PUSH2 0x163 JUMPI PUSH1 0x0 DUP1 REVERT JUMPDEST DUP1 PUSH4 0x10517CFC EQ PUSH2 0xA3 JUMPI DUP1 PUSH4 0x3AD58A27 EQ PUSH2 0xC8 JUMPI DUP1 PUSH4 0x3C0D9958 EQ PUSH2 0xDD JUMPI DUP1 PUSH4 0x5E439A0C EQ PUSH2 0xFF JUMPI DUP1 PUSH4 0x6190D81E EQ PUSH2 0x112 JUMPI JUMPDEST PUSH1 0x0 DUP1 REVERT JUMPDEST PUSH2 0xB5 PUSH2 0xB1 CALLDATASIZE PUSH1 0x4 PUSH2 0x886 JUMP JUMPDEST SHL SWAP1 JUMP JUMPDEST PUSH1 0x40 MLOAD SWAP1 DUP2 MSTORE PUSH1 0x20 ADD JUMPDEST PUSH1 0x40 MLOAD DUP1 SWAP2 SUB SWAP1 RETURN JUMPDEST PUSH2 0xDB PUSH2 0xD6 CALLDATASIZE PUSH1 0x4 PUSH2 0x8D7 JUMP JUMPDEST PUSH2 0x16A JUMP JUMPDEST STOP JUMPDEST PUSH2 0xB5 PUSH2 0xEB CALLDATASIZE PUSH1 0x4 PUSH2 0x9B6 JUMP JUMPDEST PUSH1 0x80 DUP4 SWAP1 SHL PUSH1 0x40 DUP4 SWAP1 SHL OR DUP2 OR SWAP4 SWAP3 POP POP POP JUMP JUMPDEST PUSH2 0xDB PUSH2 0x10D CALLDATASIZE PUSH1 0x4 PUSH2 0x8D7 JUMP JUMPDEST PUSH2 0x183 JUMP JUMPDEST PUSH2 0x125 PUSH2 0x120 CALLDATASIZE PUSH1 0x4 PUSH2 0x9E2 JUMP JUMPDEST PUSH2 0x197 JUMP JUMPDEST PUSH1 0x40 MLOAD SWAP1 ISZERO ISZERO DUP2 MSTORE PUSH1 0x20 ADD PUSH2 0xBF JUMP JUMPDEST PUSH1 0x15 PUSH2 0xB5 JUMP JUMPDEST PUSH32 0x635AD75FAE4D4E8D896461A635D23700076A1C3FD8DA26276F18CB1C09EA567 SLOAD PUSH2 0xB5 JUMP JUMPDEST PUSH1 0x25 PUSH2 0xB5 JUMP JUMPDEST PUSH2 0x17E DUP4 DUP4 DUP4 PUSH1 0xA0 ADD CALLDATALOAD PUSH1 0x25 PUSH1 0x15 DUP7 PUSH2 0x55C JUMP JUMPDEST POP POP POP JUMP JUMPDEST PUSH2 0x17E DUP4 DUP4 DUP4 PUSH1 0x80 ADD CALLDATALOAD PUSH1 0x25 PUSH1 0x15 DUP7 PUSH2 0x55C JUMP JUMPDEST PUSH32 0x635AD75FAE4D4E8D896461A635D23700076A1C3FD8DA26276F18CB1C09EA568 SLOAD PUSH1 0x0 SWAP1 PUSH32 0x635AD75FAE4D4E8D896461A635D23700076A1C3FD8DA26276F18CB1C09EA566 SWAP1 PUSH1 0xFF AND ISZERO PUSH2 0x22C JUMPI PUSH1 0x40 MLOAD PUSH3 0x461BCD PUSH1 0xE5 SHL DUP2 MSTORE PUSH1 0x20 PUSH1 0x4 DUP3 ADD MSTORE PUSH1 0x16 PUSH1 0x24 DUP3 ADD MSTORE PUSH22 0x1C99595B9D1C985B98DE481B9BDD08185B1B1BDDD959 PUSH1 0x52 SHL PUSH1 0x44 DUP3 ADD MSTORE PUSH1 0x64 ADD JUMPDEST PUSH1 0x40 MLOAD DUP1 SWAP2 SUB SWAP1 REVERT JUMPDEST PUSH1 0x2 DUP2 ADD DUP1 SLOAD PUSH1 0xFF NOT AND PUSH1 0x1 OR SWAP1 SSTORE PUSH1 0x0 PUSH2 0x264 PUSH32 0x635AD75FAE4D4E8D896461A635D23700076A1C3FD8DA26276F18CB1C09EA566 SWAP1 JUMP JUMPDEST PUSH32 0x844E22529543D6E722C6477171DD50FFE5B412198B92CD9AEEA62BBFABE4CC75 SLOAD SWAP1 SWAP2 POP PUSH32 0x844E22529543D6E722C6477171DD50FFE5B412198B92CD9AEEA62BBFABE4CC73 SWAP1 PUSH1 0x1 PUSH1 0x1 PUSH1 0xA0 SHL SUB SWAP1 DUP2 AND SWAP1 DUP10 AND SUB PUSH2 0x2F8 JUMPI PUSH1 0x40 MLOAD PUSH3 0x461BCD PUSH1 0xE5 SHL DUP2 MSTORE PUSH1 0x20 PUSH1 0x4 DUP3 ADD MSTORE PUSH1 0xF PUSH1 0x24 DUP3 ADD MSTORE PUSH15 0x3130B2103232B9BA34B730BA34B7B7 PUSH1 0x89 SHL PUSH1 0x44 DUP3 ADD MSTORE PUSH1 0x64 ADD PUSH2 0x223 JUMP JUMPDEST PUSH1 0x0 DUP9 DUP9 DUP9 PUSH1 0x40 MLOAD PUSH1 0x20 ADD PUSH2 0x30F SWAP4 SWAP3 SWAP2 SWAP1 PUSH2 0xA98 JUMP JUMPDEST PUSH1 0x40 MLOAD PUSH1 0x20 DUP2 DUP4 SUB SUB DUP2 MSTORE SWAP1 PUSH1 0x40 MSTORE SWAP1 POP PUSH2 0x34E DUP2 DUP5 PUSH1 0x1 ADD DUP9 PUSH1 0x0 ADD CALLDATALOAD DUP2 SLOAD DUP2 LT PUSH2 0x33D JUMPI PUSH2 0x33D PUSH2 0xAD8 JUMP JUMPDEST SWAP1 PUSH1 0x0 MSTORE PUSH1 0x20 PUSH1 0x0 KECCAK256 ADD SLOAD DUP9 PUSH2 0x183 JUMP JUMPDEST PUSH1 0x0 PUSH1 0x20 DUP8 ADD CALLDATALOAD PUSH1 0x40 SWAP1 DUP2 SHL SWAP1 DUP9 ADD CALLDATALOAD PUSH1 0x80 SHL OR DUP8 CALLDATALOAD OR PUSH1 0x40 MLOAD PUSH4 0x3FBAF73 PUSH1 0xE0 SHL DUP2 MSTORE PUSH1 0x4 DUP2 ADD DUP7 SWAP1 MSTORE PUSH1 0x24 DUP2 ADD DUP3 SWAP1 MSTORE SWAP1 SWAP2 POP PUSH20 0x0 SWAP1 PUSH4 0x3FBAF73 SWAP1 PUSH1 0x44 ADD PUSH1 0x20 PUSH1 0x40 MLOAD DUP1 DUP4 SUB DUP2 DUP7 GAS DELEGATECALL ISZERO DUP1 ISZERO PUSH2 0x3BF JUMPI RETURNDATASIZE PUSH1 0x0 DUP1 RETURNDATACOPY RETURNDATASIZE PUSH1 0x0 REVERT JUMPDEST POP POP POP POP PUSH1 0x40 MLOAD RETURNDATASIZE PUSH1 0x1F NOT PUSH1 0x1F DUP3 ADD AND DUP3 ADD DUP1 PUSH1 0x40 MSTORE POP DUP2 ADD SWAP1 PUSH2 0x3E3 SWAP2 SWAP1 PUSH2 0xAEE JUMP JUMPDEST ISZERO PUSH2 0x430 JUMPI PUSH1 0x40 MLOAD PUSH3 0x461BCD PUSH1 0xE5 SHL DUP2 MSTORE PUSH1 0x20 PUSH1 0x4 DUP3 ADD MSTORE PUSH1 0x18 PUSH1 0x24 DUP3 ADD MSTORE PUSH32 0x72652D657865637574696F6E206E6F7420616C6C6F7765640000000000000000 PUSH1 0x44 DUP3 ADD MSTORE PUSH1 0x64 ADD PUSH2 0x223 JUMP JUMPDEST PUSH1 0x0 DUP11 PUSH1 0x1 PUSH1 0x1 PUSH1 0xA0 SHL SUB AND DUP11 DUP11 PUSH1 0x40 MLOAD PUSH2 0x44C SWAP3 SWAP2 SWAP1 PUSH2 0xB17 JUMP JUMPDEST PUSH1 0x0 PUSH1 0x40 MLOAD DUP1 DUP4 SUB DUP2 PUSH1 0x0 DUP7 GAS CALL SWAP2 POP POP RETURNDATASIZE DUP1 PUSH1 0x0 DUP2 EQ PUSH2 0x489 JUMPI PUSH1 0x40 MLOAD SWAP2 POP PUSH1 0x1F NOT PUSH1 0x3F RETURNDATASIZE ADD AND DUP3 ADD PUSH1 0x40 MSTORE RETURNDATASIZE DUP3 MSTORE RETURNDATASIZE PUSH1 0x0 PUSH1 0x20 DUP5 ADD RETURNDATACOPY PUSH2 0x48E JUMP JUMPDEST PUSH1 0x60 SWAP2 POP JUMPDEST POP POP SWAP1 POP DUP1 ISZERO PUSH2 0x543 JUMPI PUSH1 0x40 MLOAD PUSH4 0x6449DA1 PUSH1 0xE4 SHL DUP2 MSTORE PUSH1 0x4 DUP2 ADD DUP7 SWAP1 MSTORE PUSH1 0x24 DUP2 ADD DUP4 SWAP1 MSTORE PUSH1 0x1 PUSH1 0x44 DUP3 ADD MSTORE PUSH20 0x0 SWAP1 PUSH4 0x6449DA10 SWAP1 PUSH1 0x64 ADD PUSH1 0x0 PUSH1 0x40 MLOAD DUP1 DUP4 SUB DUP2 DUP7 DUP1 EXTCODESIZE ISZERO DUP1 ISZERO PUSH2 0x4F1 JUMPI PUSH1 0x0 DUP1 REVERT JUMPDEST POP GAS DELEGATECALL ISZERO DUP1 ISZERO PUSH2 0x505 JUMPI RETURNDATASIZE PUSH1 0x0 DUP1 RETURNDATACOPY RETURNDATASIZE PUSH1 0x0 REVERT JUMPDEST POP POP POP POP PUSH32 0xEB7EE080F865F1CADC4F54DAF58CC3B8879E888832867D13351EDCEC0FBDC54 DUP3 PUSH1 0x40 MLOAD PUSH2 0x53A SWAP2 DUP2 MSTORE PUSH1 0x20 ADD SWAP1 JUMP JUMPDEST PUSH1 0x40 MLOAD DUP1 SWAP2 SUB SWAP1 LOG1 JUMPDEST SWAP6 POP POP POP POP POP PUSH1 0x2 ADD DUP1 SLOAD PUSH1 0xFF NOT AND SWAP1 SSTORE SWAP5 SWAP4 POP POP POP POP JUMP JUMPDEST PUSH1 0x40 DUP1 MLOAD PUSH1 0x80 DUP1 DUP5 ADD CALLDATALOAD PUSH1 0x20 DUP4 ADD MSTORE PUSH1 0xA0 DUP5 ADD CALLDATALOAD SWAP3 DUP3 ADD SWAP3 SWAP1 SWAP3 MSTORE PUSH1 0xC0 DUP4 ADD CALLDATALOAD PUSH1 0x60 DUP3 ADD MSTORE DUP7 SWAP2 ADD PUSH1 0x40 MLOAD PUSH1 0x20 DUP2 DUP4 SUB SUB DUP2 MSTORE SWAP1 PUSH1 0x40 MSTORE DUP1 MLOAD SWAP1 PUSH1 0x20 ADD KECCAK256 EQ PUSH2 0x5DD JUMPI PUSH1 0x40 MLOAD PUSH3 0x461BCD PUSH1 0xE5 SHL DUP2 MSTORE PUSH1 0x20 PUSH1 0x4 DUP3 ADD MSTORE PUSH1 0x13 PUSH1 0x24 DUP3 ADD MSTORE PUSH19 0x195C1BD8DA12185CDA081A5B98DBDC9C9958DD PUSH1 0x6A SHL PUSH1 0x44 DUP3 ADD MSTORE PUSH1 0x64 ADD PUSH2 0x223 JUMP JUMPDEST DUP4 PUSH20 0x0 PUSH4 0x79DE4601 PUSH1 0x20 DUP5 ADD CALLDATALOAD PUSH1 0x5 SHL PUSH1 0x5 DUP8 DUP7 PUSH1 0x60 ADD CALLDATALOAD PUSH1 0x40 MLOAD PUSH1 0x20 ADD PUSH2 0x61A SWAP2 DUP2 MSTORE PUSH1 0x20 ADD SWAP1 JUMP JUMPDEST PUSH1 0x40 DUP1 MLOAD PUSH1 0x1F NOT DUP2 DUP5 SUB ADD DUP2 MSTORE SWAP2 SWAP1 MSTORE DUP1 MLOAD PUSH1 0x20 SWAP1 SWAP2 ADD KECCAK256 PUSH2 0x640 PUSH2 0x100 DUP10 ADD DUP10 PUSH2 0xB27 JUMP JUMPDEST PUSH1 0x40 MLOAD DUP8 PUSH4 0xFFFFFFFF AND PUSH1 0xE0 SHL DUP2 MSTORE PUSH1 0x4 ADD PUSH2 0x661 SWAP7 SWAP6 SWAP5 SWAP4 SWAP3 SWAP2 SWAP1 PUSH2 0xB78 JUMP JUMPDEST PUSH1 0x20 PUSH1 0x40 MLOAD DUP1 DUP4 SUB DUP2 DUP7 GAS DELEGATECALL ISZERO DUP1 ISZERO PUSH2 0x67E JUMPI RETURNDATASIZE PUSH1 0x0 DUP1 RETURNDATACOPY RETURNDATASIZE PUSH1 0x0 REVERT JUMPDEST POP POP POP POP PUSH1 0x40 MLOAD RETURNDATASIZE PUSH1 0x1F NOT PUSH1 0x1F DUP3 ADD AND DUP3 ADD DUP1 PUSH1 0x40 MSTORE POP DUP2 ADD SWAP1 PUSH2 0x6A2 SWAP2 SWAP1 PUSH2 0xBCF JUMP JUMPDEST EQ PUSH2 0x6EF JUMPI PUSH1 0x40 MLOAD PUSH3 0x461BCD PUSH1 0xE5 SHL DUP2 MSTORE PUSH1 0x20 PUSH1 0x4 DUP3 ADD MSTORE PUSH1 0x1E PUSH1 0x24 DUP3 ADD MSTORE PUSH32 0x6F75747075747345706F6368526F6F744861736820696E636F72726563740000 PUSH1 0x44 DUP3 ADD MSTORE PUSH1 0x64 ADD PUSH2 0x223 JUMP JUMPDEST PUSH1 0x0 PUSH20 0x0 PUSH4 0xC84583A1 DUP9 DUP1 MLOAD SWAP1 PUSH1 0x20 ADD KECCAK256 PUSH1 0x40 MLOAD PUSH1 0x20 ADD PUSH2 0x725 SWAP2 DUP2 MSTORE PUSH1 0x20 ADD SWAP1 JUMP JUMPDEST PUSH1 0x40 MLOAD PUSH1 0x20 DUP2 DUP4 SUB SUB DUP2 MSTORE SWAP1 PUSH1 0x40 MSTORE PUSH1 0x5 PUSH1 0x40 MLOAD DUP4 PUSH4 0xFFFFFFFF AND PUSH1 0xE0 SHL DUP2 MSTORE PUSH1 0x4 ADD PUSH2 0x753 SWAP3 SWAP2 SWAP1 PUSH2 0xBE8 JUMP JUMPDEST PUSH1 0x20 PUSH1 0x40 MLOAD DUP1 DUP4 SUB DUP2 DUP7 GAS DELEGATECALL ISZERO DUP1 ISZERO PUSH2 0x770 JUMPI RETURNDATASIZE PUSH1 0x0 DUP1 RETURNDATACOPY RETURNDATASIZE PUSH1 0x0 REVERT JUMPDEST POP POP POP POP PUSH1 0x40 MLOAD RETURNDATASIZE PUSH1 0x1F NOT PUSH1 0x1F DUP3 ADD AND DUP3 ADD DUP1 PUSH1 0x40 MSTORE POP DUP2 ADD SWAP1 PUSH2 0x794 SWAP2 SWAP1 PUSH2 0xBCF JUMP JUMPDEST SWAP1 POP PUSH1 0x60 DUP3 ADD CALLDATALOAD PUSH20 0x0 PUSH4 0x79DE4601 PUSH1 0x40 DUP6 ADD CALLDATALOAD PUSH1 0x5 SHL PUSH1 0x5 DUP8 DUP7 PUSH2 0x7CE PUSH1 0xE0 DUP11 ADD DUP11 PUSH2 0xB27 JUMP JUMPDEST PUSH1 0x40 MLOAD DUP8 PUSH4 0xFFFFFFFF AND PUSH1 0xE0 SHL DUP2 MSTORE PUSH1 0x4 ADD PUSH2 0x7EF SWAP7 SWAP6 SWAP5 SWAP4 SWAP3 SWAP2 SWAP1 PUSH2 0xB78 JUMP JUMPDEST PUSH1 0x20 PUSH1 0x40 MLOAD DUP1 DUP4 SUB DUP2 DUP7 GAS DELEGATECALL ISZERO DUP1 ISZERO PUSH2 0x80C JUMPI RETURNDATASIZE PUSH1 0x0 DUP1 RETURNDATACOPY RETURNDATASIZE PUSH1 0x0 REVERT JUMPDEST POP POP POP POP PUSH1 0x40 MLOAD RETURNDATASIZE PUSH1 0x1F NOT PUSH1 0x1F DUP3 ADD AND DUP3 ADD DUP1 PUSH1 0x40 MSTORE POP DUP2 ADD SWAP1 PUSH2 0x830 SWAP2 SWAP1 PUSH2 0xBCF JUMP JUMPDEST EQ PUSH2 0x87D JUMPI PUSH1 0x40 MLOAD PUSH3 0x461BCD PUSH1 0xE5 SHL DUP2 MSTORE PUSH1 0x20 PUSH1 0x4 DUP3 ADD MSTORE PUSH1 0x1E PUSH1 0x24 DUP3 ADD MSTORE PUSH32 0x6F7574707574486173686573526F6F744861736820696E636F72726563740000 PUSH1 0x44 DUP3 ADD MSTORE PUSH1 0x64 ADD PUSH2 0x223 JUMP JUMPDEST POP POP POP POP POP POP POP JUMP JUMPDEST PUSH1 0x0 DUP1 PUSH1 0x40 DUP4 DUP6 SUB SLT ISZERO PUSH2 0x899 JUMPI PUSH1 0x0 DUP1 REVERT JUMPDEST POP POP DUP1 CALLDATALOAD SWAP3 PUSH1 0x20 SWAP1 SWAP2 ADD CALLDATALOAD SWAP2 POP JUMP JUMPDEST PUSH4 0x4E487B71 PUSH1 0xE0 SHL PUSH1 0x0 MSTORE PUSH1 0x41 PUSH1 0x4 MSTORE PUSH1 0x24 PUSH1 0x0 REVERT JUMPDEST PUSH1 0x0 PUSH2 0x120 DUP3 DUP5 SUB SLT ISZERO PUSH2 0x8D1 JUMPI PUSH1 0x0 DUP1 REVERT JUMPDEST POP SWAP2 SWAP1 POP JUMP JUMPDEST PUSH1 0x0 DUP1 PUSH1 0x0 PUSH1 0x60 DUP5 DUP7 SUB SLT ISZERO PUSH2 0x8EC JUMPI PUSH1 0x0 DUP1 REVERT JUMPDEST DUP4 CALLDATALOAD PUSH8 0xFFFFFFFFFFFFFFFF DUP1 DUP3 GT ISZERO PUSH2 0x904 JUMPI PUSH1 0x0 DUP1 REVERT JUMPDEST DUP2 DUP7 ADD SWAP2 POP DUP7 PUSH1 0x1F DUP4 ADD SLT PUSH2 0x918 JUMPI PUSH1 0x0 DUP1 REVERT JUMPDEST DUP2 CALLDATALOAD DUP2 DUP2 GT ISZERO PUSH2 0x92A JUMPI PUSH2 0x92A PUSH2 0x8A8 JUMP JUMPDEST PUSH1 0x40 MLOAD PUSH1 0x1F DUP3 ADD PUSH1 0x1F NOT SWAP1 DUP2 AND PUSH1 0x3F ADD AND DUP2 ADD SWAP1 DUP4 DUP3 GT DUP2 DUP4 LT OR ISZERO PUSH2 0x952 JUMPI PUSH2 0x952 PUSH2 0x8A8 JUMP JUMPDEST DUP2 PUSH1 0x40 MSTORE DUP3 DUP2 MSTORE DUP10 PUSH1 0x20 DUP5 DUP8 ADD ADD GT ISZERO PUSH2 0x96B JUMPI PUSH1 0x0 DUP1 REVERT JUMPDEST DUP3 PUSH1 0x20 DUP7 ADD PUSH1 0x20 DUP4 ADD CALLDATACOPY PUSH1 0x0 PUSH1 0x20 DUP5 DUP4 ADD ADD MSTORE DUP1 SWAP8 POP POP POP POP PUSH1 0x20 DUP7 ADD CALLDATALOAD SWAP4 POP PUSH1 0x40 DUP7 ADD CALLDATALOAD SWAP2 POP DUP1 DUP3 GT ISZERO PUSH2 0x99F JUMPI PUSH1 0x0 DUP1 REVERT JUMPDEST POP PUSH2 0x9AC DUP7 DUP3 DUP8 ADD PUSH2 0x8BE JUMP JUMPDEST SWAP2 POP POP SWAP3 POP SWAP3 POP SWAP3 JUMP JUMPDEST PUSH1 0x0 DUP1 PUSH1 0x0 PUSH1 0x60 DUP5 DUP7 SUB SLT ISZERO PUSH2 0x9CB JUMPI PUSH1 0x0 DUP1 REVERT JUMPDEST POP POP DUP2 CALLDATALOAD SWAP4 PUSH1 0x20 DUP4 ADD CALLDATALOAD SWAP4 POP PUSH1 0x40 SWAP1 SWAP3 ADD CALLDATALOAD SWAP2 SWAP1 POP JUMP JUMPDEST PUSH1 0x0 DUP1 PUSH1 0x0 DUP1 PUSH1 0x60 DUP6 DUP8 SUB SLT ISZERO PUSH2 0x9F8 JUMPI PUSH1 0x0 DUP1 REVERT JUMPDEST DUP5 CALLDATALOAD PUSH1 0x1 PUSH1 0x1 PUSH1 0xA0 SHL SUB DUP2 AND DUP2 EQ PUSH2 0xA0F JUMPI PUSH1 0x0 DUP1 REVERT JUMPDEST SWAP4 POP PUSH1 0x20 DUP6 ADD CALLDATALOAD PUSH8 0xFFFFFFFFFFFFFFFF DUP1 DUP3 GT ISZERO PUSH2 0xA2C JUMPI PUSH1 0x0 DUP1 REVERT JUMPDEST DUP2 DUP8 ADD SWAP2 POP DUP8 PUSH1 0x1F DUP4 ADD SLT PUSH2 0xA40 JUMPI PUSH1 0x0 DUP1 REVERT JUMPDEST DUP2 CALLDATALOAD DUP2 DUP2 GT ISZERO PUSH2 0xA4F JUMPI PUSH1 0x0 DUP1 REVERT JUMPDEST DUP9 PUSH1 0x20 DUP3 DUP6 ADD ADD GT ISZERO PUSH2 0xA61 JUMPI PUSH1 0x0 DUP1 REVERT JUMPDEST PUSH1 0x20 DUP4 ADD SWAP6 POP DUP1 SWAP5 POP POP PUSH1 0x40 DUP8 ADD CALLDATALOAD SWAP2 POP DUP1 DUP3 GT ISZERO PUSH2 0xA7F JUMPI PUSH1 0x0 DUP1 REVERT JUMPDEST POP PUSH2 0xA8C DUP8 DUP3 DUP9 ADD PUSH2 0x8BE JUMP JUMPDEST SWAP2 POP POP SWAP3 SWAP6 SWAP2 SWAP5 POP SWAP3 POP JUMP JUMPDEST PUSH1 0x1 PUSH1 0x1 PUSH1 0xA0 SHL SUB DUP5 AND DUP2 MSTORE PUSH1 0x40 PUSH1 0x20 DUP3 ADD DUP2 SWAP1 MSTORE DUP2 ADD DUP3 SWAP1 MSTORE DUP2 DUP4 PUSH1 0x60 DUP4 ADD CALLDATACOPY PUSH1 0x0 DUP2 DUP4 ADD PUSH1 0x60 SWAP1 DUP2 ADD SWAP2 SWAP1 SWAP2 MSTORE PUSH1 0x1F SWAP1 SWAP3 ADD PUSH1 0x1F NOT AND ADD ADD SWAP3 SWAP2 POP POP JUMP JUMPDEST PUSH4 0x4E487B71 PUSH1 0xE0 SHL PUSH1 0x0 MSTORE PUSH1 0x32 PUSH1 0x4 MSTORE PUSH1 0x24 PUSH1 0x0 REVERT JUMPDEST PUSH1 0x0 PUSH1 0x20 DUP3 DUP5 SUB SLT ISZERO PUSH2 0xB00 JUMPI PUSH1 0x0 DUP1 REVERT JUMPDEST DUP2 MLOAD DUP1 ISZERO ISZERO DUP2 EQ PUSH2 0xB10 JUMPI PUSH1 0x0 DUP1 REVERT JUMPDEST SWAP4 SWAP3 POP POP POP JUMP JUMPDEST DUP2 DUP4 DUP3 CALLDATACOPY PUSH1 0x0 SWAP2 ADD SWAP1 DUP2 MSTORE SWAP2 SWAP1 POP JUMP JUMPDEST PUSH1 0x0 DUP1 DUP4 CALLDATALOAD PUSH1 0x1E NOT DUP5 CALLDATASIZE SUB ADD DUP2 SLT PUSH2 0xB3E JUMPI PUSH1 0x0 DUP1 REVERT JUMPDEST DUP4 ADD DUP1 CALLDATALOAD SWAP2 POP PUSH8 0xFFFFFFFFFFFFFFFF DUP3 GT ISZERO PUSH2 0xB59 JUMPI PUSH1 0x0 DUP1 REVERT JUMPDEST PUSH1 0x20 ADD SWAP2 POP PUSH1 0x5 DUP2 SWAP1 SHL CALLDATASIZE SUB DUP3 SGT ISZERO PUSH2 0xB71 JUMPI PUSH1 0x0 DUP1 REVERT JUMPDEST SWAP3 POP SWAP3 SWAP1 POP JUMP JUMPDEST DUP7 DUP2 MSTORE DUP6 PUSH1 0x20 DUP3 ADD MSTORE DUP5 PUSH1 0x40 DUP3 ADD MSTORE DUP4 PUSH1 0x60 DUP3 ADD MSTORE PUSH1 0xA0 PUSH1 0x80 DUP3 ADD MSTORE DUP2 PUSH1 0xA0 DUP3 ADD MSTORE PUSH1 0x0 PUSH1 0x1 DUP1 PUSH1 0xFB SHL SUB DUP4 GT ISZERO PUSH2 0xBAF JUMPI PUSH1 0x0 DUP1 REVERT JUMPDEST DUP3 PUSH1 0x5 SHL DUP1 DUP6 PUSH1 0xC0 DUP6 ADD CALLDATACOPY PUSH1 0x0 SWAP3 ADD PUSH1 0xC0 ADD SWAP2 DUP3 MSTORE POP SWAP7 SWAP6 POP POP POP POP POP POP JUMP JUMPDEST PUSH1 0x0 PUSH1 0x20 DUP3 DUP5 SUB SLT ISZERO PUSH2 0xBE1 JUMPI PUSH1 0x0 DUP1 REVERT JUMPDEST POP MLOAD SWAP2 SWAP1 POP JUMP JUMPDEST PUSH1 0x40 DUP2 MSTORE PUSH1 0x0 DUP4 MLOAD DUP1 PUSH1 0x40 DUP5 ADD MSTORE PUSH1 0x0 JUMPDEST DUP2 DUP2 LT ISZERO PUSH2 0xC16 JUMPI PUSH1 0x20 DUP2 DUP8 ADD DUP2 ADD MLOAD PUSH1 0x60 DUP7 DUP5 ADD ADD MSTORE ADD PUSH2 0xBF9 JUMP JUMPDEST DUP2 DUP2 GT ISZERO PUSH2 0xC28 JUMPI PUSH1 0x0 PUSH1 0x60 DUP4 DUP7 ADD ADD MSTORE JUMPDEST POP PUSH1 0x20 DUP4 ADD SWAP4 SWAP1 SWAP4 MSTORE POP PUSH1 0x1F SWAP2 SWAP1 SWAP2 ADD PUSH1 0x1F NOT AND ADD PUSH1 0x60 ADD SWAP2 SWAP1 POP JUMP INVALID LOG2 PUSH5 0x6970667358 0x22 SLT KECCAK256 0xAB 0x5D 0xD5 SLOAD LOG3 CALLDATACOPY 0xDF MSTORE8 0x5E PUSH16 0x8F0A561E17BD5256019C878FA8227BF PUSH32 0xA69E0B065664736F6C634300080D003300000000000000000000000000000000 "
    },
    "gasEstimates": {
      "creation": {
        "codeDepositCost": "639000",
        "executionCost": "670",
        "totalCost": "639670"
      },
      "external": {
        "executeVoucher(address,bytes,(uint256,uint256,uint256,bytes32,bytes32,bytes32,bytes32,bytes32[],bytes32[]))": "infinite",
        "getBitMaskPosition(uint256,uint256,uint256)": "391",
        "getEpochNoticeLog2Size()": "225",
        "getEpochVoucherLog2Size()": "269",
        "getIntraDrivePosition(uint256,uint256)": "285",
        "getNoticeMetadataLog2Size()": "181",
        "getNumberOfFinalizedEpochs()": "2303",
        "getVoucherMetadataLog2Size()": "247",
        "isValidNoticeProof(bytes,bytes32,(uint256,uint256,uint256,bytes32,bytes32,bytes32,bytes32,bytes32[],bytes32[]))": "infinite",
        "isValidVoucherProof(bytes,bytes32,(uint256,uint256,uint256,bytes32,bytes32,bytes32,bytes32,bytes32[],bytes32[]))": "infinite"
      },
      "internal": {
        "isValidProof(bytes memory,bytes32,bytes32,uint256,uint256,struct OutputValidityProof calldata)": "infinite"
      }
    },
    "methodIdentifiers": {
      "executeVoucher(address,bytes,(uint256,uint256,uint256,bytes32,bytes32,bytes32,bytes32,bytes32[],bytes32[]))": "6190d81e",
      "getBitMaskPosition(uint256,uint256,uint256)": "3c0d9958",
      "getEpochNoticeLog2Size()": "a2382036",
      "getEpochVoucherLog2Size()": "f3af7efd",
      "getIntraDrivePosition(uint256,uint256)": "10517cfc",
      "getNoticeMetadataLog2Size()": "8021be81",
      "getNumberOfFinalizedEpochs()": "83552b4d",
      "getVoucherMetadataLog2Size()": "a981588a",
      "isValidNoticeProof(bytes,bytes32,(uint256,uint256,uint256,bytes32,bytes32,bytes32,bytes32,bytes32[],bytes32[]))": "3ad58a27",
      "isValidVoucherProof(bytes,bytes32,(uint256,uint256,uint256,bytes32,bytes32,bytes32,bytes32,bytes32[],bytes32[]))": "5e439a0c"
    }
  },
  "storageLayout": {
    "storage": [],
    "types": null
  },
  "userdoc": {
    "kind": "user",
    "methods": {
      "executeVoucher(address,bytes,(uint256,uint256,uint256,bytes32,bytes32,bytes32,bytes32,bytes32[],bytes32[]))": {
        "notice": "executes voucher"
      },
      "getBitMaskPosition(uint256,uint256,uint256)": {
        "notice": "get voucher position on bitmask"
      },
      "getEpochNoticeLog2Size()": {
        "notice": "get log2 size of epoch notice memory range"
      },
      "getEpochVoucherLog2Size()": {
        "notice": "get log2 size of epoch voucher memory range"
      },
      "getNoticeMetadataLog2Size()": {
        "notice": "get log2 size of notice metadata memory range"
      },
      "getNumberOfFinalizedEpochs()": {
        "notice": "get number of finalized epochs"
      },
      "getVoucherMetadataLog2Size()": {
        "notice": "get log2 size of voucher metadata memory range"
      },
      "isValidNoticeProof(bytes,bytes32,(uint256,uint256,uint256,bytes32,bytes32,bytes32,bytes32,bytes32[],bytes32[]))": {
        "notice": "isValidNoticeProof reverts if the proof is invalid"
      },
      "isValidVoucherProof(bytes,bytes32,(uint256,uint256,uint256,bytes32,bytes32,bytes32,bytes32,bytes32[],bytes32[]))": {
        "notice": "isValidVoucherProof reverts if the proof is invalid"
      }
    },
    "version": 1
  }
}