{
  "contractName": "RollupsFacet",
  "sourceName": "contracts/facets/RollupsFacet.sol",
  "abi": [
    {
      "anonymous": false,
      "inputs": [
        {
          "indexed": true,
          "internalType": "uint256",
          "name": "epochNumber",
          "type": "uint256"
        },
        {
          "indexed": false,
          "internalType": "address",
          "name": "claimer",
          "type": "address"
        },
        {
          "indexed": false,
          "internalType": "bytes32",
          "name": "epochHash",
          "type": "bytes32"
        }
      ],
      "name": "Claim",
      "type": "event"
    },
    {
      "anonymous": false,
      "inputs": [
        {
          "indexed": true,
          "internalType": "uint256",
          "name": "epochNumber",
          "type": "uint256"
        },
        {
          "indexed": false,
          "internalType": "bytes32",
          "name": "epochHash",
          "type": "bytes32"
        }
      ],
      "name": "FinalizeEpoch",
      "type": "event"
    },
    {
      "anonymous": false,
      "inputs": [
        {
          "indexed": false,
          "internalType": "enum Phase",
          "name": "newPhase",
          "type": "uint8"
        }
      ],
      "name": "PhaseChange",
      "type": "event"
    },
    {
      "anonymous": false,
      "inputs": [
        {
          "indexed": false,
          "internalType": "address",
          "name": "winner",
          "type": "address"
        },
        {
          "indexed": false,
          "internalType": "address",
          "name": "loser",
          "type": "address"
        },
        {
          "indexed": false,
          "internalType": "bytes32",
          "name": "winningClaim",
          "type": "bytes32"
        }
      ],
      "name": "ResolveDispute",
      "type": "event"
    },
    {
      "inputs": [
        {
          "internalType": "bytes32",
          "name": "_epochHash",
          "type": "bytes32"
        }
      ],
      "name": "claim",
      "outputs": [],
      "stateMutability": "nonpayable",
      "type": "function"
    },
    {
      "inputs": [],
      "name": "finalizeEpoch",
      "outputs": [],
      "stateMutability": "nonpayable",
      "type": "function"
    },
    {
      "inputs": [],
      "name": "getChallengePeriod",
      "outputs": [
        {
          "internalType": "uint256",
          "name": "",
          "type": "uint256"
        }
      ],
      "stateMutability": "view",
      "type": "function"
    },
    {
      "inputs": [],
      "name": "getCurrentEpoch",
      "outputs": [
        {
          "internalType": "uint256",
          "name": "",
          "type": "uint256"
        }
      ],
      "stateMutability": "view",
      "type": "function"
    },
    {
      "inputs": [],
      "name": "getCurrentPhase",
      "outputs": [
        {
          "internalType": "enum Phase",
          "name": "",
          "type": "uint8"
        }
      ],
      "stateMutability": "view",
      "type": "function"
    },
    {
      "inputs": [],
      "name": "getInputAccumulationStart",
      "outputs": [
        {
          "internalType": "uint256",
          "name": "",
          "type": "uint256"
        }
      ],
      "stateMutability": "view",
      "type": "function"
    },
    {
      "inputs": [],
      "name": "getInputDuration",
      "outputs": [
        {
          "internalType": "uint256",
          "name": "",
          "type": "uint256"
        }
      ],
      "stateMutability": "view",
      "type": "function"
    },
    {
      "inputs": [],
      "name": "getSealingEpochTimestamp",
      "outputs": [
        {
          "internalType": "uint256",
          "name": "",
          "type": "uint256"
        }
      ],
      "stateMutability": "view",
      "type": "function"
    },
    {
      "inputs": [],
      "name": "getTemplateHash",
      "outputs": [
        {
          "internalType": "bytes32",
          "name": "",
          "type": "bytes32"
        }
      ],
      "stateMutability": "view",
      "type": "function"
    }
  ],
  "bytecode": "0x608060405234801561001057600080fd5b506116c8806100206000396000f3fe608060405234801561001057600080fd5b50600436106100935760003560e01c8063a3a40ea511610066578063a3a40ea51461010b578063b97dd9e214610120578063bd66528a14610128578063ddf7bcf01461013b578063e17ba0121461015d57600080fd5b806354ee1da51461009857806361b12c66146100c95780637864b77d146100de57806382ae9ef714610101575b600080fd5b60008051602061161383398151915254600160601b900463ffffffff165b6040519081526020015b60405180910390f35b600080516020611673833981519152546100b6565b60008051602061161383398151915254640100000000900463ffffffff166100b6565b610109610178565b005b610113610304565b6040516100c091906114b4565b6100b661034b565b6101096101363660046114c7565b610365565b60008051602061161383398151915254600160401b900463ffffffff166100b6565b6000805160206116138339815191525463ffffffff166100b6565b600080516020611613833981519152546000805160206116738339815191529060008051602061165383398151915290600090600160801b900463ffffffff1660028111156101c9576101c9611480565b905060018160028111156101df576101df611480565b146102315760405162461bcd60e51b815260206004820152601b60248201527f506861736520213d204177616974696e6720436f6e73656e737573000000000060448201526064015b60405180910390fd5b600183015463ffffffff600160601b820481169164010000000090041661025881836114f6565b42116102a65760405162461bcd60e51b815260206004820152601960248201527f4368616c6c656e676520706572696f64206e6f74206f766572000000000000006044820152606401610228565b83546102f45760405162461bcd60e51b815260206004820152601860248201527f4e6f20436c61696d20746f2062652066696e616c697a656400000000000000006044820152606401610228565b6102fd8561057f565b5050505050565b6000805160206116138339815191525460009060008051602061167383398151915290600160801b900463ffffffff16600281111561034557610345611480565b91505090565b6000600080516020611673833981519152610345816106b7565b6000805160206116738339815191527f943d5d24442f02461445e15c5d7d4a4ef0acb0d32c5d6f6af37a6882249912ff7f0635ad75fae4d4e8d896461a635d23700076a1c3fd8da26276f18cb1c09ea56660008051602061165383398151915260006103cf611430565b6103d7611430565b6001870154600090600160801b900463ffffffff1660028111156103fd576103fd611480565b600189015490915063ffffffff600160401b820481169116600083600281111561042957610429611480565b14801561043e575061043b81836114f6565b42115b156104af5760018a8101805463ffffffff60801b1916600160801b1790556040519093506000805160206116338339815191529061047d9085906114b4565b60405180910390a161048e89610759565b60018a01805463ffffffff60601b1916600160601b4263ffffffff16021790555b60018360028111156104c3576104c3611480565b146105105760405162461bcd60e51b815260206004820152601a60248201527f506861736520213d204177616974696e67436f6e73656e7375730000000000006044820152606401610228565b61051b87338d610765565b9197509550935061052d886001015490565b60408051338152602081018e90527fd31325e5dc55b03edf08c70299d3b1bc8d4c2ca8512c90138ddd03e3f54fce6c910160405180910390a26105728a878787610982565b5050505050505050505050565b60018101805463ffffffff60801b191690556040517f943d5d24442f02461445e15c5d7d4a4ef0acb0d32c5d6f6af37a6882249912ff907f0635ad75fae4d4e8d896461a635d23700076a1c3fd8da26276f18cb1c09ea566906000805160206116538339815191529060008051602061163383398151915290610604906000906114b4565b60405180910390a160018401805463ffffffff60601b1963ffffffff4216600160401b02166fffffffffffffffff0000000000000000199091161763ffffffff60601b179055600061065582610ad8565b9050610662836001015490565b6040518281527f6e3d05bc77b9307d9ba574c7c3196a746edd51104ded1c823edc63be4b8a63c39060200160405180910390a2600180840180549182018155600090815260209020018190556102fd84610b35565b7f0635ad75fae4d4e8d896461a635d23700076a1c3fd8da26276f18cb1c09ea5675460018201546000917f0635ad75fae4d4e8d896461a635d23700076a1c3fd8da26276f18cb1c09ea566918390600160801b900463ffffffff16600281111561072357610723611480565b9050600081600281111561073957610739611480565b1461074e576107498260016114f6565b610750565b815b95945050505050565b61076281610b58565b50565b600061076f611430565b610777611430565b836107b25760405162461bcd60e51b815260206004820152600b60248201526a656d70747920636c61696d60a81b6044820152606401610228565b6107bc8686610b77565b6107fd5760405162461bcd60e51b81526020600482015260126024820152711cd95b99195c881b9bdd08185b1b1bddd95960721b6044820152606401610228565b60006108098787610c26565b600388015490915060f81c811c600116156108765760405162461bcd60e51b815260206004820152602760248201527f73656e6465722068616420636c61696d656420696e20746869732065706f6368604482015266206265666f726560c81b6064820152608401610228565b8654610880578487555b865485146108e0576108d4600260405180604001604052808a6000015481526020018881525060405180604001604052806108ba8c610d05565b6001600160a01b0390811682528b16602090910152610dbf565b93509350935050610979565b6108ea8787610e18565b6108f387610e43565b610937576040805180820182528681526000602080830182905283518085019094526001600160a01b038a168452830181905261093292909190610dbf565b610971565b6040805180820182528681526000602080830182905283518085019094526001600160a01b038a1684528301526109719160019190610dbf565b935093509350505b93509350939050565b600083600281111561099657610996611480565b03610a20576001840154600090600160801b900463ffffffff1660028111156109c1576109c1611480565b905060018160028111156109d7576109d7611480565b14610a1a576001858101805463ffffffff60801b1916600160801b17905560405160008051602061163383398151915291610a11916114b4565b60405180910390a15b50610ad2565b6001836002811115610a3457610a34611480565b03610a4757610a428461057f565b610ad2565b6001840154600090600160801b900463ffffffff166002811115610a6d57610a6d611480565b90506002816002811115610a8357610a83611480565b14610ac85760018501805463ffffffff60801b1916600160811b17905560405160008051602061163383398151915290610abf906002906114b4565b60405180910390a15b6102fd8383610e65565b50505050565b6000610ae382610e8e565b81546000835560038301546001600160f81b031660038401556040518181527fddc860800a99149017c480ec51523bf4143b7215e78956ae5c31e5c568f5383a9060200160405180910390a192915050565b600381015415610b4a5761076281600061144e565b61076260018201600061144e565b600381015415610b69576000610b6c565b60015b60ff16600390910155565b60006001600160a01b038216610bbb5760405162461bcd60e51b815260206004820152600960248201526806164647265737320360bc1b6044820152606401610228565b60005b6001840154811015610c1a57836001018181548110610bdf57610bdf61150e565b6000918252602090912001546001600160a01b0390811690841603610c08576001915050610c20565b80610c1281611524565b915050610bbe565b50600090505b92915050565b60006001600160a01b038216610c6a5760405162461bcd60e51b815260206004820152600960248201526806164647265737320360bc1b6044820152606401610228565b60005b6001840154811015610cc657836001018181548110610c8e57610c8e61150e565b6000918252602090912001546001600160a01b0390811690841603610cb4579050610c20565b80610cbe81611524565b915050610c6d565b5060405162461bcd60e51b81526020600482015260136024820152721d985b1a59185d1bdc881b9bdd08199bdd5b99606a1b6044820152606401610228565b600080610d16836003015460f81c90565b905060005b6001840154811015610d76576001811b821615610d6457836001018181548110610d4757610d4761150e565b6000918252602090912001546001600160a01b0316949350505050565b80610d6e81611524565b915050610d1b565b5060405162461bcd60e51b815260206004820152601c60248201527f4167726565696e672076616c696461746f72206e6f7420666f756e64000000006044820152606401610228565b6000610dc9611430565b610dd1611430565b7f495383aed97965c56495cdbadedfe9667a1b028c54d3fc4b5335895146e02b70868686604051610e049392919061153d565b60405180910390a150939492935090919050565b6000610e248383610c26565b6003840154909150610e369082610ee3565b8360030181905550505050565b600381015460009060f081901c60ff16610e5d8260f81c90565b149392505050565b80516020820151835160008051602061167383398151915292610e89928492610f21565b505050565b6000610e9e826003015460f81c90565b905060005b6001830154811015610e89576001811b821615610ed1576003830154610ecb90826001610fd7565b60038401555b80610edb81611524565b915050610ea3565b600060088210610f055760405162461bcd60e51b8152600401610228906115b0565b6000610f128360f86114f6565b6001901b841791505092915050565b6000610f2b611430565b610f33611430565b600080516020611653833981519152610f4e8188888861102a565b60018b01805463ffffffff60601b1916600160601b4263ffffffff1602179055604080516001600160a01b03808d1682528b16602082015290810189905292965090945092507f2afbde4d47160a9c5de25b0df88d5b83e705286f2a447cac162db5e99ad6f5d29060600160405180910390a1610fcd88858585610982565b5050505050505050565b600060088310610ff95760405162461bcd60e51b8152600401610228906115b0565b600061100585856111de565b9050600061101384836114f6565b905061102086868361122c565b9695505050505050565b6000611034611430565b61103c611430565b61104687866112e0565b865484036110e05761105787610e43565b61109b576040805180820182528581526000602080830182905283518085019094526001600160a01b038a16845283018190526110969290919061138e565b6110d5565b6040805180820182528581526000602080830182905283518085019094526001600160a01b038a1684528301526110d5916001919061138e565b9250925092506111d4565b600387015460f81c15611139576110d5600260405180604001604052808a60000154815260200187815250604051806040016040528061111f8c610d05565b6001600160a01b0390811682528b1660209091015261138e565b8387556111468787610e18565b61114f87610e43565b611193576040805180820182528581526000602080830182905283518085019094526001600160a01b038a168452830181905261118e9290919061138e565b6111cd565b6040805180820182528581526000602080830182905283518085019094526001600160a01b038a1684528301526111cd916001919061138e565b9250925092505b9450945094915050565b6000600882106112005760405162461bcd60e51b8152600401610228906115b0565b6000611211600163400000006115dc565b90508061121f84601e6115f3565b85901c1691505092915050565b60006008831061124e5760405162461bcd60e51b8152600401610228906115b0565b61125d600163400000006115dc565b8211156112a25760405162461bcd60e51b8152602060048201526013602482015272436c61696d734d61736b204f766572666c6f7760681b6044820152606401610228565b60006112af84601e6115f3565b6112be600163400000006115dc565b901b1990508481166112d185601e6115f3565b9390931b909217949350505050565b60005b6001830154811015610e89578260010181815481106113045761130461150e565b6000918252602090912001546001600160a01b039081169083160361137c57600083600101828154811061133a5761133a61150e565b600091825260209091200180546001600160a01b0319166001600160a01b0392909216919091179055600383015461137290826113d3565b6003840155505050565b8061138681611524565b9150506112e3565b6000611398611430565b6113a0611430565b7f09201c193a07cae1df95ae692cc698685574c942a04514c48a4c3249f38594ff868686604051610e049392919061153d565b6000600882106113f55760405162461bcd60e51b8152600401610228906115b0565b8260006114038460f86114f6565b6001901b199182169190506114198460f06114f6565b6001901b199182169190506107508285600061122c565b60405180604001604052806002906020820280368337509192915050565b508054600082559060005260206000209081019061076291905b8082111561147c5760008155600101611468565b5090565b634e487b7160e01b600052602160045260246000fd5b6003811061076257634e487b7160e01b600052602160045260246000fd5b602081016114c183611496565b91905290565b6000602082840312156114d957600080fd5b5035919050565b634e487b7160e01b600052601160045260246000fd5b60008219821115611509576115096114e0565b500190565b634e487b7160e01b600052603260045260246000fd5b600060018201611536576115366114e0565b5060010190565b60a0810161154a85611496565b84825260208083018560005b600281101561157357815183529183019190830190600101611556565b505050606083018460005b60028110156115a45781516001600160a01b03168352918301919083019060010161157e565b50505050949350505050565b602080825260129082015271696e646578206f7574206f662072616e676560701b604082015260600190565b6000828210156115ee576115ee6114e0565b500390565b600081600019048311821515161561160d5761160d6114e0565b50029056fed32d7f90491bee81172a406b65f3270d810392fe53bb0379dde8bdd4e624189ded606d544c2202d032d2626c390923e6f260ca5d89625bba0cfe70d2bdda4e8f8ab37fef2b2e34c4b62ff9948ee661cdcf34e209d7c20f4d1f6e83085e93b1fcd32d7f90491bee81172a406b65f3270d810392fe53bb0379dde8bdd4e624189ca2646970667358221220e81f8fc3f6ca218053a29f8f06ea47c5ad871e137eec4dec64d79934e89d8c3a64736f6c634300080d0033",
  "linkReferences": {},
  "deployedLinkReferences": {},
  "devdoc": {
    "kind": "dev",
    "methods": {
      "claim(bytes32)": {
        "details": "ValidatorManager makes sure that msg.sender is allowed      and that claim != bytes32(0) TODO: add signatures for aggregated claims",
        "params": {
          "_epochHash": "hash of epoch"
        }
      },
      "finalizeEpoch()": {
        "details": "can only be called if challenge period is over"
      },
      "getCurrentEpoch()": {
        "details": "if phase is input accumulation, then the epoch number is length      of finalized epochs array, else there are two non finalized epochs,      one awaiting consensus/dispute and another accumulating input",
        "returns": {
          "_0": "index of current epoch"
        }
      }
    },
    "version": 1
  },
  "evm": {
    "bytecode": {
      "linkReferences": {},
      "opcodes": "PUSH1 0x80 PUSH1 0x40 MSTORE CALLVALUE DUP1 ISZERO PUSH2 0x10 JUMPI PUSH1 0x0 DUP1 REVERT JUMPDEST POP PUSH2 0x16C8 DUP1 PUSH2 0x20 PUSH1 0x0 CODECOPY PUSH1 0x0 RETURN INVALID PUSH1 0x80 PUSH1 0x40 MSTORE CALLVALUE DUP1 ISZERO PUSH2 0x10 JUMPI PUSH1 0x0 DUP1 REVERT JUMPDEST POP PUSH1 0x4 CALLDATASIZE LT PUSH2 0x93 JUMPI PUSH1 0x0 CALLDATALOAD PUSH1 0xE0 SHR DUP1 PUSH4 0xA3A40EA5 GT PUSH2 0x66 JUMPI DUP1 PUSH4 0xA3A40EA5 EQ PUSH2 0x10B JUMPI DUP1 PUSH4 0xB97DD9E2 EQ PUSH2 0x120 JUMPI DUP1 PUSH4 0xBD66528A EQ PUSH2 0x128 JUMPI DUP1 PUSH4 0xDDF7BCF0 EQ PUSH2 0x13B JUMPI DUP1 PUSH4 0xE17BA012 EQ PUSH2 0x15D JUMPI PUSH1 0x0 DUP1 REVERT JUMPDEST DUP1 PUSH4 0x54EE1DA5 EQ PUSH2 0x98 JUMPI DUP1 PUSH4 0x61B12C66 EQ PUSH2 0xC9 JUMPI DUP1 PUSH4 0x7864B77D EQ PUSH2 0xDE JUMPI DUP1 PUSH4 0x82AE9EF7 EQ PUSH2 0x101 JUMPI JUMPDEST PUSH1 0x0 DUP1 REVERT JUMPDEST PUSH1 0x0 DUP1 MLOAD PUSH1 0x20 PUSH2 0x1613 DUP4 CODECOPY DUP2 MLOAD SWAP2 MSTORE SLOAD PUSH1 0x1 PUSH1 0x60 SHL SWAP1 DIV PUSH4 0xFFFFFFFF AND JUMPDEST PUSH1 0x40 MLOAD SWAP1 DUP2 MSTORE PUSH1 0x20 ADD JUMPDEST PUSH1 0x40 MLOAD DUP1 SWAP2 SUB SWAP1 RETURN JUMPDEST PUSH1 0x0 DUP1 MLOAD PUSH1 0x20 PUSH2 0x1673 DUP4 CODECOPY DUP2 MLOAD SWAP2 MSTORE SLOAD PUSH2 0xB6 JUMP JUMPDEST PUSH1 0x0 DUP1 MLOAD PUSH1 0x20 PUSH2 0x1613 DUP4 CODECOPY DUP2 MLOAD SWAP2 MSTORE SLOAD PUSH5 0x100000000 SWAP1 DIV PUSH4 0xFFFFFFFF AND PUSH2 0xB6 JUMP JUMPDEST PUSH2 0x109 PUSH2 0x178 JUMP JUMPDEST STOP JUMPDEST PUSH2 0x113 PUSH2 0x304 JUMP JUMPDEST PUSH1 0x40 MLOAD PUSH2 0xC0 SWAP2 SWAP1 PUSH2 0x14B4 JUMP JUMPDEST PUSH2 0xB6 PUSH2 0x34B JUMP JUMPDEST PUSH2 0x109 PUSH2 0x136 CALLDATASIZE PUSH1 0x4 PUSH2 0x14C7 JUMP JUMPDEST PUSH2 0x365 JUMP JUMPDEST PUSH1 0x0 DUP1 MLOAD PUSH1 0x20 PUSH2 0x1613 DUP4 CODECOPY DUP2 MLOAD SWAP2 MSTORE SLOAD PUSH1 0x1 PUSH1 0x40 SHL SWAP1 DIV PUSH4 0xFFFFFFFF AND PUSH2 0xB6 JUMP JUMPDEST PUSH1 0x0 DUP1 MLOAD PUSH1 0x20 PUSH2 0x1613 DUP4 CODECOPY DUP2 MLOAD SWAP2 MSTORE SLOAD PUSH4 0xFFFFFFFF AND PUSH2 0xB6 JUMP JUMPDEST PUSH1 0x0 DUP1 MLOAD PUSH1 0x20 PUSH2 0x1613 DUP4 CODECOPY DUP2 MLOAD SWAP2 MSTORE SLOAD PUSH1 0x0 DUP1 MLOAD PUSH1 0x20 PUSH2 0x1673 DUP4 CODECOPY DUP2 MLOAD SWAP2 MSTORE SWAP1 PUSH1 0x0 DUP1 MLOAD PUSH1 0x20 PUSH2 0x1653 DUP4 CODECOPY DUP2 MLOAD SWAP2 MSTORE SWAP1 PUSH1 0x0 SWAP1 PUSH1 0x1 PUSH1 0x80 SHL SWAP1 DIV PUSH4 0xFFFFFFFF AND PUSH1 0x2 DUP2 GT ISZERO PUSH2 0x1C9 JUMPI PUSH2 0x1C9 PUSH2 0x1480 JUMP JUMPDEST SWAP1 POP PUSH1 0x1 DUP2 PUSH1 0x2 DUP2 GT ISZERO PUSH2 0x1DF JUMPI PUSH2 0x1DF PUSH2 0x1480 JUMP JUMPDEST EQ PUSH2 0x231 JUMPI PUSH1 0x40 MLOAD PUSH3 0x461BCD PUSH1 0xE5 SHL DUP2 MSTORE PUSH1 0x20 PUSH1 0x4 DUP3 ADD MSTORE PUSH1 0x1B PUSH1 0x24 DUP3 ADD MSTORE PUSH32 0x506861736520213D204177616974696E6720436F6E73656E7375730000000000 PUSH1 0x44 DUP3 ADD MSTORE PUSH1 0x64 ADD JUMPDEST PUSH1 0x40 MLOAD DUP1 SWAP2 SUB SWAP1 REVERT JUMPDEST PUSH1 0x1 DUP4 ADD SLOAD PUSH4 0xFFFFFFFF PUSH1 0x1 PUSH1 0x60 SHL DUP3 DIV DUP2 AND SWAP2 PUSH5 0x100000000 SWAP1 DIV AND PUSH2 0x258 DUP2 DUP4 PUSH2 0x14F6 JUMP JUMPDEST TIMESTAMP GT PUSH2 0x2A6 JUMPI PUSH1 0x40 MLOAD PUSH3 0x461BCD PUSH1 0xE5 SHL DUP2 MSTORE PUSH1 0x20 PUSH1 0x4 DUP3 ADD MSTORE PUSH1 0x19 PUSH1 0x24 DUP3 ADD MSTORE PUSH32 0x4368616C6C656E676520706572696F64206E6F74206F76657200000000000000 PUSH1 0x44 DUP3 ADD MSTORE PUSH1 0x64 ADD PUSH2 0x228 JUMP JUMPDEST DUP4 SLOAD PUSH2 0x2F4 JUMPI PUSH1 0x40 MLOAD PUSH3 0x461BCD PUSH1 0xE5 SHL DUP2 MSTORE PUSH1 0x20 PUSH1 0x4 DUP3 ADD MSTORE PUSH1 0x18 PUSH1 0x24 DUP3 ADD MSTORE PUSH32 0x4E6F20436C61696D20746F2062652066696E616C697A65640000000000000000 PUSH1 0x44 DUP3 ADD MSTORE PUSH1 0x64 ADD PUSH2 0x228 JUMP JUMPDEST PUSH2 0x2FD DUP6 PUSH2 0x57F JUMP JUMPDEST POP POP POP POP POP JUMP JUMPDEST PUSH1 0x0 DUP1 MLOAD PUSH1 0x20 PUSH2 0x1613 DUP4 CODECOPY DUP2 MLOAD SWAP2 MSTORE SLOAD PUSH1 0x0 SWAP1 PUSH1 0x0 DUP1 MLOAD PUSH1 0x20 PUSH2 0x1673 DUP4 CODECOPY DUP2 MLOAD SWAP2 MSTORE SWAP1 PUSH1 0x1 PUSH1 0x80 SHL SWAP1 DIV PUSH4 0xFFFFFFFF AND PUSH1 0x2 DUP2 GT ISZERO PUSH2 0x345 JUMPI PUSH2 0x345 PUSH2 0x1480 JUMP JUMPDEST SWAP2 POP POP SWAP1 JUMP JUMPDEST PUSH1 0x0 PUSH1 0x0 DUP1 MLOAD PUSH1 0x20 PUSH2 0x1673 DUP4 CODECOPY DUP2 MLOAD SWAP2 MSTORE PUSH2 0x345 DUP2 PUSH2 0x6B7 JUMP JUMPDEST PUSH1 0x0 DUP1 MLOAD PUSH1 0x20 PUSH2 0x1673 DUP4 CODECOPY DUP2 MLOAD SWAP2 MSTORE PUSH32 0x943D5D24442F02461445E15C5D7D4A4EF0ACB0D32C5D6F6AF37A6882249912FF PUSH32 0x635AD75FAE4D4E8D896461A635D23700076A1C3FD8DA26276F18CB1C09EA566 PUSH1 0x0 DUP1 MLOAD PUSH1 0x20 PUSH2 0x1653 DUP4 CODECOPY DUP2 MLOAD SWAP2 MSTORE PUSH1 0x0 PUSH2 0x3CF PUSH2 0x1430 JUMP JUMPDEST PUSH2 0x3D7 PUSH2 0x1430 JUMP JUMPDEST PUSH1 0x1 DUP8 ADD SLOAD PUSH1 0x0 SWAP1 PUSH1 0x1 PUSH1 0x80 SHL SWAP1 DIV PUSH4 0xFFFFFFFF AND PUSH1 0x2 DUP2 GT ISZERO PUSH2 0x3FD JUMPI PUSH2 0x3FD PUSH2 0x1480 JUMP JUMPDEST PUSH1 0x1 DUP10 ADD SLOAD SWAP1 SWAP2 POP PUSH4 0xFFFFFFFF PUSH1 0x1 PUSH1 0x40 SHL DUP3 DIV DUP2 AND SWAP2 AND PUSH1 0x0 DUP4 PUSH1 0x2 DUP2 GT ISZERO PUSH2 0x429 JUMPI PUSH2 0x429 PUSH2 0x1480 JUMP JUMPDEST EQ DUP1 ISZERO PUSH2 0x43E JUMPI POP PUSH2 0x43B DUP2 DUP4 PUSH2 0x14F6 JUMP JUMPDEST TIMESTAMP GT JUMPDEST ISZERO PUSH2 0x4AF JUMPI PUSH1 0x1 DUP11 DUP2 ADD DUP1 SLOAD PUSH4 0xFFFFFFFF PUSH1 0x80 SHL NOT AND PUSH1 0x1 PUSH1 0x80 SHL OR SWAP1 SSTORE PUSH1 0x40 MLOAD SWAP1 SWAP4 POP PUSH1 0x0 DUP1 MLOAD PUSH1 0x20 PUSH2 0x1633 DUP4 CODECOPY DUP2 MLOAD SWAP2 MSTORE SWAP1 PUSH2 0x47D SWAP1 DUP6 SWAP1 PUSH2 0x14B4 JUMP JUMPDEST PUSH1 0x40 MLOAD DUP1 SWAP2 SUB SWAP1 LOG1 PUSH2 0x48E DUP10 PUSH2 0x759 JUMP JUMPDEST PUSH1 0x1 DUP11 ADD DUP1 SLOAD PUSH4 0xFFFFFFFF PUSH1 0x60 SHL NOT AND PUSH1 0x1 PUSH1 0x60 SHL TIMESTAMP PUSH4 0xFFFFFFFF AND MUL OR SWAP1 SSTORE JUMPDEST PUSH1 0x1 DUP4 PUSH1 0x2 DUP2 GT ISZERO PUSH2 0x4C3 JUMPI PUSH2 0x4C3 PUSH2 0x1480 JUMP JUMPDEST EQ PUSH2 0x510 JUMPI PUSH1 0x40 MLOAD PUSH3 0x461BCD PUSH1 0xE5 SHL DUP2 MSTORE PUSH1 0x20 PUSH1 0x4 DUP3 ADD MSTORE PUSH1 0x1A PUSH1 0x24 DUP3 ADD MSTORE PUSH32 0x506861736520213D204177616974696E67436F6E73656E737573000000000000 PUSH1 0x44 DUP3 ADD MSTORE PUSH1 0x64 ADD PUSH2 0x228 JUMP JUMPDEST PUSH2 0x51B DUP8 CALLER DUP14 PUSH2 0x765 JUMP JUMPDEST SWAP2 SWAP8 POP SWAP6 POP SWAP4 POP PUSH2 0x52D DUP9 PUSH1 0x1 ADD SLOAD SWAP1 JUMP JUMPDEST PUSH1 0x40 DUP1 MLOAD CALLER DUP2 MSTORE PUSH1 0x20 DUP2 ADD DUP15 SWAP1 MSTORE PUSH32 0xD31325E5DC55B03EDF08C70299D3B1BC8D4C2CA8512C90138DDD03E3F54FCE6C SWAP2 ADD PUSH1 0x40 MLOAD DUP1 SWAP2 SUB SWAP1 LOG2 PUSH2 0x572 DUP11 DUP8 DUP8 DUP8 PUSH2 0x982 JUMP JUMPDEST POP POP POP POP POP POP POP POP POP POP POP JUMP JUMPDEST PUSH1 0x1 DUP2 ADD DUP1 SLOAD PUSH4 0xFFFFFFFF PUSH1 0x80 SHL NOT AND SWAP1 SSTORE PUSH1 0x40 MLOAD PUSH32 0x943D5D24442F02461445E15C5D7D4A4EF0ACB0D32C5D6F6AF37A6882249912FF SWAP1 PUSH32 0x635AD75FAE4D4E8D896461A635D23700076A1C3FD8DA26276F18CB1C09EA566 SWAP1 PUSH1 0x0 DUP1 MLOAD PUSH1 0x20 PUSH2 0x1653 DUP4 CODECOPY DUP2 MLOAD SWAP2 MSTORE SWAP1 PUSH1 0x0 DUP1 MLOAD PUSH1 0x20 PUSH2 0x1633 DUP4 CODECOPY DUP2 MLOAD SWAP2 MSTORE SWAP1 PUSH2 0x604 SWAP1 PUSH1 0x0 SWAP1 PUSH2 0x14B4 JUMP JUMPDEST PUSH1 0x40 MLOAD DUP1 SWAP2 SUB SWAP1 LOG1 PUSH1 0x1 DUP5 ADD DUP1 SLOAD PUSH4 0xFFFFFFFF PUSH1 0x60 SHL NOT PUSH4 0xFFFFFFFF TIMESTAMP AND PUSH1 0x1 PUSH1 0x40 SHL MUL AND PUSH16 0xFFFFFFFFFFFFFFFF0000000000000000 NOT SWAP1 SWAP2 AND OR PUSH4 0xFFFFFFFF PUSH1 0x60 SHL OR SWAP1 SSTORE PUSH1 0x0 PUSH2 0x655 DUP3 PUSH2 0xAD8 JUMP JUMPDEST SWAP1 POP PUSH2 0x662 DUP4 PUSH1 0x1 ADD SLOAD SWAP1 JUMP JUMPDEST PUSH1 0x40 MLOAD DUP3 DUP2 MSTORE PUSH32 0x6E3D05BC77B9307D9BA574C7C3196A746EDD51104DED1C823EDC63BE4B8A63C3 SWAP1 PUSH1 0x20 ADD PUSH1 0x40 MLOAD DUP1 SWAP2 SUB SWAP1 LOG2 PUSH1 0x1 DUP1 DUP5 ADD DUP1 SLOAD SWAP2 DUP3 ADD DUP2 SSTORE PUSH1 0x0 SWAP1 DUP2 MSTORE PUSH1 0x20 SWAP1 KECCAK256 ADD DUP2 SWAP1 SSTORE PUSH2 0x2FD DUP5 PUSH2 0xB35 JUMP JUMPDEST PUSH32 0x635AD75FAE4D4E8D896461A635D23700076A1C3FD8DA26276F18CB1C09EA567 SLOAD PUSH1 0x1 DUP3 ADD SLOAD PUSH1 0x0 SWAP2 PUSH32 0x635AD75FAE4D4E8D896461A635D23700076A1C3FD8DA26276F18CB1C09EA566 SWAP2 DUP4 SWAP1 PUSH1 0x1 PUSH1 0x80 SHL SWAP1 DIV PUSH4 0xFFFFFFFF AND PUSH1 0x2 DUP2 GT ISZERO PUSH2 0x723 JUMPI PUSH2 0x723 PUSH2 0x1480 JUMP JUMPDEST SWAP1 POP PUSH1 0x0 DUP2 PUSH1 0x2 DUP2 GT ISZERO PUSH2 0x739 JUMPI PUSH2 0x739 PUSH2 0x1480 JUMP JUMPDEST EQ PUSH2 0x74E JUMPI PUSH2 0x749 DUP3 PUSH1 0x1 PUSH2 0x14F6 JUMP JUMPDEST PUSH2 0x750 JUMP JUMPDEST DUP2 JUMPDEST SWAP6 SWAP5 POP POP POP POP POP JUMP JUMPDEST PUSH2 0x762 DUP2 PUSH2 0xB58 JUMP JUMPDEST POP JUMP JUMPDEST PUSH1 0x0 PUSH2 0x76F PUSH2 0x1430 JUMP JUMPDEST PUSH2 0x777 PUSH2 0x1430 JUMP JUMPDEST DUP4 PUSH2 0x7B2 JUMPI PUSH1 0x40 MLOAD PUSH3 0x461BCD PUSH1 0xE5 SHL DUP2 MSTORE PUSH1 0x20 PUSH1 0x4 DUP3 ADD MSTORE PUSH1 0xB PUSH1 0x24 DUP3 ADD MSTORE PUSH11 0x656D70747920636C61696D PUSH1 0xA8 SHL PUSH1 0x44 DUP3 ADD MSTORE PUSH1 0x64 ADD PUSH2 0x228 JUMP JUMPDEST PUSH2 0x7BC DUP7 DUP7 PUSH2 0xB77 JUMP JUMPDEST PUSH2 0x7FD JUMPI PUSH1 0x40 MLOAD PUSH3 0x461BCD PUSH1 0xE5 SHL DUP2 MSTORE PUSH1 0x20 PUSH1 0x4 DUP3 ADD MSTORE PUSH1 0x12 PUSH1 0x24 DUP3 ADD MSTORE PUSH18 0x1CD95B99195C881B9BDD08185B1B1BDDD959 PUSH1 0x72 SHL PUSH1 0x44 DUP3 ADD MSTORE PUSH1 0x64 ADD PUSH2 0x228 JUMP JUMPDEST PUSH1 0x0 PUSH2 0x809 DUP8 DUP8 PUSH2 0xC26 JUMP JUMPDEST PUSH1 0x3 DUP9 ADD SLOAD SWAP1 SWAP2 POP PUSH1 0xF8 SHR DUP2 SHR PUSH1 0x1 AND ISZERO PUSH2 0x876 JUMPI PUSH1 0x40 MLOAD PUSH3 0x461BCD PUSH1 0xE5 SHL DUP2 MSTORE PUSH1 0x20 PUSH1 0x4 DUP3 ADD MSTORE PUSH1 0x27 PUSH1 0x24 DUP3 ADD MSTORE PUSH32 0x73656E6465722068616420636C61696D656420696E20746869732065706F6368 PUSH1 0x44 DUP3 ADD MSTORE PUSH7 0x206265666F7265 PUSH1 0xC8 SHL PUSH1 0x64 DUP3 ADD MSTORE PUSH1 0x84 ADD PUSH2 0x228 JUMP JUMPDEST DUP7 SLOAD PUSH2 0x880 JUMPI DUP5 DUP8 SSTORE JUMPDEST DUP7 SLOAD DUP6 EQ PUSH2 0x8E0 JUMPI PUSH2 0x8D4 PUSH1 0x2 PUSH1 0x40 MLOAD DUP1 PUSH1 0x40 ADD PUSH1 0x40 MSTORE DUP1 DUP11 PUSH1 0x0 ADD SLOAD DUP2 MSTORE PUSH1 0x20 ADD DUP9 DUP2 MSTORE POP PUSH1 0x40 MLOAD DUP1 PUSH1 0x40 ADD PUSH1 0x40 MSTORE DUP1 PUSH2 0x8BA DUP13 PUSH2 0xD05 JUMP JUMPDEST PUSH1 0x1 PUSH1 0x1 PUSH1 0xA0 SHL SUB SWAP1 DUP2 AND DUP3 MSTORE DUP12 AND PUSH1 0x20 SWAP1 SWAP2 ADD MSTORE PUSH2 0xDBF JUMP JUMPDEST SWAP4 POP SWAP4 POP SWAP4 POP POP PUSH2 0x979 JUMP JUMPDEST PUSH2 0x8EA DUP8 DUP8 PUSH2 0xE18 JUMP JUMPDEST PUSH2 0x8F3 DUP8 PUSH2 0xE43 JUMP JUMPDEST PUSH2 0x937 JUMPI PUSH1 0x40 DUP1 MLOAD DUP1 DUP3 ADD DUP3 MSTORE DUP7 DUP2 MSTORE PUSH1 0x0 PUSH1 0x20 DUP1 DUP4 ADD DUP3 SWAP1 MSTORE DUP4 MLOAD DUP1 DUP6 ADD SWAP1 SWAP5 MSTORE PUSH1 0x1 PUSH1 0x1 PUSH1 0xA0 SHL SUB DUP11 AND DUP5 MSTORE DUP4 ADD DUP2 SWAP1 MSTORE PUSH2 0x932 SWAP3 SWAP1 SWAP2 SWAP1 PUSH2 0xDBF JUMP JUMPDEST PUSH2 0x971 JUMP JUMPDEST PUSH1 0x40 DUP1 MLOAD DUP1 DUP3 ADD DUP3 MSTORE DUP7 DUP2 MSTORE PUSH1 0x0 PUSH1 0x20 DUP1 DUP4 ADD DUP3 SWAP1 MSTORE DUP4 MLOAD DUP1 DUP6 ADD SWAP1 SWAP5 MSTORE PUSH1 0x1 PUSH1 0x1 PUSH1 0xA0 SHL SUB DUP11 AND DUP5 MSTORE DUP4 ADD MSTORE PUSH2 0x971 SWAP2 PUSH1 0x1 SWAP2 SWAP1 PUSH2 0xDBF JUMP JUMPDEST SWAP4 POP SWAP4 POP SWAP4 POP POP JUMPDEST SWAP4 POP SWAP4 POP SWAP4 SWAP1 POP JUMP JUMPDEST PUSH1 0x0 DUP4 PUSH1 0x2 DUP2 GT ISZERO PUSH2 0x996 JUMPI PUSH2 0x996 PUSH2 0x1480 JUMP JUMPDEST SUB PUSH2 0xA20 JUMPI PUSH1 0x1 DUP5 ADD SLOAD PUSH1 0x0 SWAP1 PUSH1 0x1 PUSH1 0x80 SHL SWAP1 DIV PUSH4 0xFFFFFFFF AND PUSH1 0x2 DUP2 GT ISZERO PUSH2 0x9C1 JUMPI PUSH2 0x9C1 PUSH2 0x1480 JUMP JUMPDEST SWAP1 POP PUSH1 0x1 DUP2 PUSH1 0x2 DUP2 GT ISZERO PUSH2 0x9D7 JUMPI PUSH2 0x9D7 PUSH2 0x1480 JUMP JUMPDEST EQ PUSH2 0xA1A JUMPI PUSH1 0x1 DUP6 DUP2 ADD DUP1 SLOAD PUSH4 0xFFFFFFFF PUSH1 0x80 SHL NOT AND PUSH1 0x1 PUSH1 0x80 SHL OR SWAP1 SSTORE PUSH1 0x40 MLOAD PUSH1 0x0 DUP1 MLOAD PUSH1 0x20 PUSH2 0x1633 DUP4 CODECOPY DUP2 MLOAD SWAP2 MSTORE SWAP2 PUSH2 0xA11 SWAP2 PUSH2 0x14B4 JUMP JUMPDEST PUSH1 0x40 MLOAD DUP1 SWAP2 SUB SWAP1 LOG1 JUMPDEST POP PUSH2 0xAD2 JUMP JUMPDEST PUSH1 0x1 DUP4 PUSH1 0x2 DUP2 GT ISZERO PUSH2 0xA34 JUMPI PUSH2 0xA34 PUSH2 0x1480 JUMP JUMPDEST SUB PUSH2 0xA47 JUMPI PUSH2 0xA42 DUP5 PUSH2 0x57F JUMP JUMPDEST PUSH2 0xAD2 JUMP JUMPDEST PUSH1 0x1 DUP5 ADD SLOAD PUSH1 0x0 SWAP1 PUSH1 0x1 PUSH1 0x80 SHL SWAP1 DIV PUSH4 0xFFFFFFFF AND PUSH1 0x2 DUP2 GT ISZERO PUSH2 0xA6D JUMPI PUSH2 0xA6D PUSH2 0x1480 JUMP JUMPDEST SWAP1 POP PUSH1 0x2 DUP2 PUSH1 0x2 DUP2 GT ISZERO PUSH2 0xA83 JUMPI PUSH2 0xA83 PUSH2 0x1480 JUMP JUMPDEST EQ PUSH2 0xAC8 JUMPI PUSH1 0x1 DUP6 ADD DUP1 SLOAD PUSH4 0xFFFFFFFF PUSH1 0x80 SHL NOT AND PUSH1 0x1 PUSH1 0x81 SHL OR SWAP1 SSTORE PUSH1 0x40 MLOAD PUSH1 0x0 DUP1 MLOAD PUSH1 0x20 PUSH2 0x1633 DUP4 CODECOPY DUP2 MLOAD SWAP2 MSTORE SWAP1 PUSH2 0xABF SWAP1 PUSH1 0x2 SWAP1 PUSH2 0x14B4 JUMP JUMPDEST PUSH1 0x40 MLOAD DUP1 SWAP2 SUB SWAP1 LOG1 JUMPDEST PUSH2 0x2FD DUP4 DUP4 PUSH2 0xE65 JUMP JUMPDEST POP POP POP POP JUMP JUMPDEST PUSH1 0x0 PUSH2 0xAE3 DUP3 PUSH2 0xE8E JUMP JUMPDEST DUP2 SLOAD PUSH1 0x0 DUP4 SSTORE PUSH1 0x3 DUP4 ADD SLOAD PUSH1 0x1 PUSH1 0x1 PUSH1 0xF8 SHL SUB AND PUSH1 0x3 DUP5 ADD SSTORE PUSH1 0x40 MLOAD DUP2 DUP2 MSTORE PUSH32 0xDDC860800A99149017C480EC51523BF4143B7215E78956AE5C31E5C568F5383A SWAP1 PUSH1 0x20 ADD PUSH1 0x40 MLOAD DUP1 SWAP2 SUB SWAP1 LOG1 SWAP3 SWAP2 POP POP JUMP JUMPDEST PUSH1 0x3 DUP2 ADD SLOAD ISZERO PUSH2 0xB4A JUMPI PUSH2 0x762 DUP2 PUSH1 0x0 PUSH2 0x144E JUMP JUMPDEST PUSH2 0x762 PUSH1 0x1 DUP3 ADD PUSH1 0x0 PUSH2 0x144E JUMP JUMPDEST PUSH1 0x3 DUP2 ADD SLOAD ISZERO PUSH2 0xB69 JUMPI PUSH1 0x0 PUSH2 0xB6C JUMP JUMPDEST PUSH1 0x1 JUMPDEST PUSH1 0xFF AND PUSH1 0x3 SWAP1 SWAP2 ADD SSTORE JUMP JUMPDEST PUSH1 0x0 PUSH1 0x1 PUSH1 0x1 PUSH1 0xA0 SHL SUB DUP3 AND PUSH2 0xBBB JUMPI PUSH1 0x40 MLOAD PUSH3 0x461BCD PUSH1 0xE5 SHL DUP2 MSTORE PUSH1 0x20 PUSH1 0x4 DUP3 ADD MSTORE PUSH1 0x9 PUSH1 0x24 DUP3 ADD MSTORE PUSH9 0x61646472657373203 PUSH1 0xBC SHL PUSH1 0x44 DUP3 ADD MSTORE PUSH1 0x64 ADD PUSH2 0x228 JUMP JUMPDEST PUSH1 0x0 JUMPDEST PUSH1 0x1 DUP5 ADD SLOAD DUP2 LT ISZERO PUSH2 0xC1A JUMPI DUP4 PUSH1 0x1 ADD DUP2 DUP2 SLOAD DUP2 LT PUSH2 0xBDF JUMPI PUSH2 0xBDF PUSH2 0x150E JUMP JUMPDEST PUSH1 0x0 SWAP2 DUP3 MSTORE PUSH1 0x20 SWAP1 SWAP2 KECCAK256 ADD SLOAD PUSH1 0x1 PUSH1 0x1 PUSH1 0xA0 SHL SUB SWAP1 DUP2 AND SWAP1 DUP5 AND SUB PUSH2 0xC08 JUMPI PUSH1 0x1 SWAP2 POP POP PUSH2 0xC20 JUMP JUMPDEST DUP1 PUSH2 0xC12 DUP2 PUSH2 0x1524 JUMP JUMPDEST SWAP2 POP POP PUSH2 0xBBE JUMP JUMPDEST POP PUSH1 0x0 SWAP1 POP JUMPDEST SWAP3 SWAP2 POP POP JUMP JUMPDEST PUSH1 0x0 PUSH1 0x1 PUSH1 0x1 PUSH1 0xA0 SHL SUB DUP3 AND PUSH2 0xC6A JUMPI PUSH1 0x40 MLOAD PUSH3 0x461BCD PUSH1 0xE5 SHL DUP2 MSTORE PUSH1 0x20 PUSH1 0x4 DUP3 ADD MSTORE PUSH1 0x9 PUSH1 0x24 DUP3 ADD MSTORE PUSH9 0x61646472657373203 PUSH1 0xBC SHL PUSH1 0x44 DUP3 ADD MSTORE PUSH1 0x64 ADD PUSH2 0x228 JUMP JUMPDEST PUSH1 0x0 JUMPDEST PUSH1 0x1 DUP5 ADD SLOAD DUP2 LT ISZERO PUSH2 0xCC6 JUMPI DUP4 PUSH1 0x1 ADD DUP2 DUP2 SLOAD DUP2 LT PUSH2 0xC8E JUMPI PUSH2 0xC8E PUSH2 0x150E JUMP JUMPDEST PUSH1 0x0 SWAP2 DUP3 MSTORE PUSH1 0x20 SWAP1 SWAP2 KECCAK256 ADD SLOAD PUSH1 0x1 PUSH1 0x1 PUSH1 0xA0 SHL SUB SWAP1 DUP2 AND SWAP1 DUP5 AND SUB PUSH2 0xCB4 JUMPI SWAP1 POP PUSH2 0xC20 JUMP JUMPDEST DUP1 PUSH2 0xCBE DUP2 PUSH2 0x1524 JUMP JUMPDEST SWAP2 POP POP PUSH2 0xC6D JUMP JUMPDEST POP PUSH1 0x40 MLOAD PUSH3 0x461BCD PUSH1 0xE5 SHL DUP2 MSTORE PUSH1 0x20 PUSH1 0x4 DUP3 ADD MSTORE PUSH1 0x13 PUSH1 0x24 DUP3 ADD MSTORE PUSH19 0x1D985B1A59185D1BDC881B9BDD08199BDD5B99 PUSH1 0x6A SHL PUSH1 0x44 DUP3 ADD MSTORE PUSH1 0x64 ADD PUSH2 0x228 JUMP JUMPDEST PUSH1 0x0 DUP1 PUSH2 0xD16 DUP4 PUSH1 0x3 ADD SLOAD PUSH1 0xF8 SHR SWAP1 JUMP JUMPDEST SWAP1 POP PUSH1 0x0 JUMPDEST PUSH1 0x1 DUP5 ADD SLOAD DUP2 LT ISZERO PUSH2 0xD76 JUMPI PUSH1 0x1 DUP2 SHL DUP3 AND ISZERO PUSH2 0xD64 JUMPI DUP4 PUSH1 0x1 ADD DUP2 DUP2 SLOAD DUP2 LT PUSH2 0xD47 JUMPI PUSH2 0xD47 PUSH2 0x150E JUMP JUMPDEST PUSH1 0x0 SWAP2 DUP3 MSTORE PUSH1 0x20 SWAP1 SWAP2 KECCAK256 ADD SLOAD PUSH1 0x1 PUSH1 0x1 PUSH1 0xA0 SHL SUB AND SWAP5 SWAP4 POP POP POP POP JUMP JUMPDEST DUP1 PUSH2 0xD6E DUP2 PUSH2 0x1524 JUMP JUMPDEST SWAP2 POP POP PUSH2 0xD1B JUMP JUMPDEST POP PUSH1 0x40 MLOAD PUSH3 0x461BCD PUSH1 0xE5 SHL DUP2 MSTORE PUSH1 0x20 PUSH1 0x4 DUP3 ADD MSTORE PUSH1 0x1C PUSH1 0x24 DUP3 ADD MSTORE PUSH32 0x4167726565696E672076616C696461746F72206E6F7420666F756E6400000000 PUSH1 0x44 DUP3 ADD MSTORE PUSH1 0x64 ADD PUSH2 0x228 JUMP JUMPDEST PUSH1 0x0 PUSH2 0xDC9 PUSH2 0x1430 JUMP JUMPDEST PUSH2 0xDD1 PUSH2 0x1430 JUMP JUMPDEST PUSH32 0x495383AED97965C56495CDBADEDFE9667A1B028C54D3FC4B5335895146E02B70 DUP7 DUP7 DUP7 PUSH1 0x40 MLOAD PUSH2 0xE04 SWAP4 SWAP3 SWAP2 SWAP1 PUSH2 0x153D JUMP JUMPDEST PUSH1 0x40 MLOAD DUP1 SWAP2 SUB SWAP1 LOG1 POP SWAP4 SWAP5 SWAP3 SWAP4 POP SWAP1 SWAP2 SWAP1 POP JUMP JUMPDEST PUSH1 0x0 PUSH2 0xE24 DUP4 DUP4 PUSH2 0xC26 JUMP JUMPDEST PUSH1 0x3 DUP5 ADD SLOAD SWAP1 SWAP2 POP PUSH2 0xE36 SWAP1 DUP3 PUSH2 0xEE3 JUMP JUMPDEST DUP4 PUSH1 0x3 ADD DUP2 SWAP1 SSTORE POP POP POP POP JUMP JUMPDEST PUSH1 0x3 DUP2 ADD SLOAD PUSH1 0x0 SWAP1 PUSH1 0xF0 DUP2 SWAP1 SHR PUSH1 0xFF AND PUSH2 0xE5D DUP3 PUSH1 0xF8 SHR SWAP1 JUMP JUMPDEST EQ SWAP4 SWAP3 POP POP POP JUMP JUMPDEST DUP1 MLOAD PUSH1 0x20 DUP3 ADD MLOAD DUP4 MLOAD PUSH1 0x0 DUP1 MLOAD PUSH1 0x20 PUSH2 0x1673 DUP4 CODECOPY DUP2 MLOAD SWAP2 MSTORE SWAP3 PUSH2 0xE89 SWAP3 DUP5 SWAP3 PUSH2 0xF21 JUMP JUMPDEST POP POP POP JUMP JUMPDEST PUSH1 0x0 PUSH2 0xE9E DUP3 PUSH1 0x3 ADD SLOAD PUSH1 0xF8 SHR SWAP1 JUMP JUMPDEST SWAP1 POP PUSH1 0x0 JUMPDEST PUSH1 0x1 DUP4 ADD SLOAD DUP2 LT ISZERO PUSH2 0xE89 JUMPI PUSH1 0x1 DUP2 SHL DUP3 AND ISZERO PUSH2 0xED1 JUMPI PUSH1 0x3 DUP4 ADD SLOAD PUSH2 0xECB SWAP1 DUP3 PUSH1 0x1 PUSH2 0xFD7 JUMP JUMPDEST PUSH1 0x3 DUP5 ADD SSTORE JUMPDEST DUP1 PUSH2 0xEDB DUP2 PUSH2 0x1524 JUMP JUMPDEST SWAP2 POP POP PUSH2 0xEA3 JUMP JUMPDEST PUSH1 0x0 PUSH1 0x8 DUP3 LT PUSH2 0xF05 JUMPI PUSH1 0x40 MLOAD PUSH3 0x461BCD PUSH1 0xE5 SHL DUP2 MSTORE PUSH1 0x4 ADD PUSH2 0x228 SWAP1 PUSH2 0x15B0 JUMP JUMPDEST PUSH1 0x0 PUSH2 0xF12 DUP4 PUSH1 0xF8 PUSH2 0x14F6 JUMP JUMPDEST PUSH1 0x1 SWAP1 SHL DUP5 OR SWAP2 POP POP SWAP3 SWAP2 POP POP JUMP JUMPDEST PUSH1 0x0 PUSH2 0xF2B PUSH2 0x1430 JUMP JUMPDEST PUSH2 0xF33 PUSH2 0x1430 JUMP JUMPDEST PUSH1 0x0 DUP1 MLOAD PUSH1 0x20 PUSH2 0x1653 DUP4 CODECOPY DUP2 MLOAD SWAP2 MSTORE PUSH2 0xF4E DUP2 DUP9 DUP9 DUP9 PUSH2 0x102A JUMP JUMPDEST PUSH1 0x1 DUP12 ADD DUP1 SLOAD PUSH4 0xFFFFFFFF PUSH1 0x60 SHL NOT AND PUSH1 0x1 PUSH1 0x60 SHL TIMESTAMP PUSH4 0xFFFFFFFF AND MUL OR SWAP1 SSTORE PUSH1 0x40 DUP1 MLOAD PUSH1 0x1 PUSH1 0x1 PUSH1 0xA0 SHL SUB DUP1 DUP14 AND DUP3 MSTORE DUP12 AND PUSH1 0x20 DUP3 ADD MSTORE SWAP1 DUP2 ADD DUP10 SWAP1 MSTORE SWAP3 SWAP7 POP SWAP1 SWAP5 POP SWAP3 POP PUSH32 0x2AFBDE4D47160A9C5DE25B0DF88D5B83E705286F2A447CAC162DB5E99AD6F5D2 SWAP1 PUSH1 0x60 ADD PUSH1 0x40 MLOAD DUP1 SWAP2 SUB SWAP1 LOG1 PUSH2 0xFCD DUP9 DUP6 DUP6 DUP6 PUSH2 0x982 JUMP JUMPDEST POP POP POP POP POP POP POP POP JUMP JUMPDEST PUSH1 0x0 PUSH1 0x8 DUP4 LT PUSH2 0xFF9 JUMPI PUSH1 0x40 MLOAD PUSH3 0x461BCD PUSH1 0xE5 SHL DUP2 MSTORE PUSH1 0x4 ADD PUSH2 0x228 SWAP1 PUSH2 0x15B0 JUMP JUMPDEST PUSH1 0x0 PUSH2 0x1005 DUP6 DUP6 PUSH2 0x11DE JUMP JUMPDEST SWAP1 POP PUSH1 0x0 PUSH2 0x1013 DUP5 DUP4 PUSH2 0x14F6 JUMP JUMPDEST SWAP1 POP PUSH2 0x1020 DUP7 DUP7 DUP4 PUSH2 0x122C JUMP JUMPDEST SWAP7 SWAP6 POP POP POP POP POP POP JUMP JUMPDEST PUSH1 0x0 PUSH2 0x1034 PUSH2 0x1430 JUMP JUMPDEST PUSH2 0x103C PUSH2 0x1430 JUMP JUMPDEST PUSH2 0x1046 DUP8 DUP7 PUSH2 0x12E0 JUMP JUMPDEST DUP7 SLOAD DUP5 SUB PUSH2 0x10E0 JUMPI PUSH2 0x1057 DUP8 PUSH2 0xE43 JUMP JUMPDEST PUSH2 0x109B JUMPI PUSH1 0x40 DUP1 MLOAD DUP1 DUP3 ADD DUP3 MSTORE DUP6 DUP2 MSTORE PUSH1 0x0 PUSH1 0x20 DUP1 DUP4 ADD DUP3 SWAP1 MSTORE DUP4 MLOAD DUP1 DUP6 ADD SWAP1 SWAP5 MSTORE PUSH1 0x1 PUSH1 0x1 PUSH1 0xA0 SHL SUB DUP11 AND DUP5 MSTORE DUP4 ADD DUP2 SWAP1 MSTORE PUSH2 0x1096 SWAP3 SWAP1 SWAP2 SWAP1 PUSH2 0x138E JUMP JUMPDEST PUSH2 0x10D5 JUMP JUMPDEST PUSH1 0x40 DUP1 MLOAD DUP1 DUP3 ADD DUP3 MSTORE DUP6 DUP2 MSTORE PUSH1 0x0 PUSH1 0x20 DUP1 DUP4 ADD DUP3 SWAP1 MSTORE DUP4 MLOAD DUP1 DUP6 ADD SWAP1 SWAP5 MSTORE PUSH1 0x1 PUSH1 0x1 PUSH1 0xA0 SHL SUB DUP11 AND DUP5 MSTORE DUP4 ADD MSTORE PUSH2 0x10D5 SWAP2 PUSH1 0x1 SWAP2 SWAP1 PUSH2 0x138E JUMP JUMPDEST SWAP3 POP SWAP3 POP SWAP3 POP PUSH2 0x11D4 JUMP JUMPDEST PUSH1 0x3 DUP8 ADD SLOAD PUSH1 0xF8 SHR ISZERO PUSH2 0x1139 JUMPI PUSH2 0x10D5 PUSH1 0x2 PUSH1 0x40 MLOAD DUP1 PUSH1 0x40 ADD PUSH1 0x40 MSTORE DUP1 DUP11 PUSH1 0x0 ADD SLOAD DUP2 MSTORE PUSH1 0x20 ADD DUP8 DUP2 MSTORE POP PUSH1 0x40 MLOAD DUP1 PUSH1 0x40 ADD PUSH1 0x40 MSTORE DUP1 PUSH2 0x111F DUP13 PUSH2 0xD05 JUMP JUMPDEST PUSH1 0x1 PUSH1 0x1 PUSH1 0xA0 SHL SUB SWAP1 DUP2 AND DUP3 MSTORE DUP12 AND PUSH1 0x20 SWAP1 SWAP2 ADD MSTORE PUSH2 0x138E JUMP JUMPDEST DUP4 DUP8 SSTORE PUSH2 0x1146 DUP8 DUP8 PUSH2 0xE18 JUMP JUMPDEST PUSH2 0x114F DUP8 PUSH2 0xE43 JUMP JUMPDEST PUSH2 0x1193 JUMPI PUSH1 0x40 DUP1 MLOAD DUP1 DUP3 ADD DUP3 MSTORE DUP6 DUP2 MSTORE PUSH1 0x0 PUSH1 0x20 DUP1 DUP4 ADD DUP3 SWAP1 MSTORE DUP4 MLOAD DUP1 DUP6 ADD SWAP1 SWAP5 MSTORE PUSH1 0x1 PUSH1 0x1 PUSH1 0xA0 SHL SUB DUP11 AND DUP5 MSTORE DUP4 ADD DUP2 SWAP1 MSTORE PUSH2 0x118E SWAP3 SWAP1 SWAP2 SWAP1 PUSH2 0x138E JUMP JUMPDEST PUSH2 0x11CD JUMP JUMPDEST PUSH1 0x40 DUP1 MLOAD DUP1 DUP3 ADD DUP3 MSTORE DUP6 DUP2 MSTORE PUSH1 0x0 PUSH1 0x20 DUP1 DUP4 ADD DUP3 SWAP1 MSTORE DUP4 MLOAD DUP1 DUP6 ADD SWAP1 SWAP5 MSTORE PUSH1 0x1 PUSH1 0x1 PUSH1 0xA0 SHL SUB DUP11 AND DUP5 MSTORE DUP4 ADD MSTORE PUSH2 0x11CD SWAP2 PUSH1 0x1 SWAP2 SWAP1 PUSH2 0x138E JUMP JUMPDEST SWAP3 POP SWAP3 POP SWAP3 POP JUMPDEST SWAP5 POP SWAP5 POP SWAP5 SWAP2 POP POP JUMP JUMPDEST PUSH1 0x0 PUSH1 0x8 DUP3 LT PUSH2 0x1200 JUMPI PUSH1 0x40 MLOAD PUSH3 0x461BCD PUSH1 0xE5 SHL DUP2 MSTORE PUSH1 0x4 ADD PUSH2 0x228 SWAP1 PUSH2 0x15B0 JUMP JUMPDEST PUSH1 0x0 PUSH2 0x1211 PUSH1 0x1 PUSH4 0x40000000 PUSH2 0x15DC JUMP JUMPDEST SWAP1 POP DUP1 PUSH2 0x121F DUP5 PUSH1 0x1E PUSH2 0x15F3 JUMP JUMPDEST DUP6 SWAP1 SHR AND SWAP2 POP POP SWAP3 SWAP2 POP POP JUMP JUMPDEST PUSH1 0x0 PUSH1 0x8 DUP4 LT PUSH2 0x124E JUMPI PUSH1 0x40 MLOAD PUSH3 0x461BCD PUSH1 0xE5 SHL DUP2 MSTORE PUSH1 0x4 ADD PUSH2 0x228 SWAP1 PUSH2 0x15B0 JUMP JUMPDEST PUSH2 0x125D PUSH1 0x1 PUSH4 0x40000000 PUSH2 0x15DC JUMP JUMPDEST DUP3 GT ISZERO PUSH2 0x12A2 JUMPI PUSH1 0x40 MLOAD PUSH3 0x461BCD PUSH1 0xE5 SHL DUP2 MSTORE PUSH1 0x20 PUSH1 0x4 DUP3 ADD MSTORE PUSH1 0x13 PUSH1 0x24 DUP3 ADD MSTORE PUSH19 0x436C61696D734D61736B204F766572666C6F77 PUSH1 0x68 SHL PUSH1 0x44 DUP3 ADD MSTORE PUSH1 0x64 ADD PUSH2 0x228 JUMP JUMPDEST PUSH1 0x0 PUSH2 0x12AF DUP5 PUSH1 0x1E PUSH2 0x15F3 JUMP JUMPDEST PUSH2 0x12BE PUSH1 0x1 PUSH4 0x40000000 PUSH2 0x15DC JUMP JUMPDEST SWAP1 SHL NOT SWAP1 POP DUP5 DUP2 AND PUSH2 0x12D1 DUP6 PUSH1 0x1E PUSH2 0x15F3 JUMP JUMPDEST SWAP4 SWAP1 SWAP4 SHL SWAP1 SWAP3 OR SWAP5 SWAP4 POP POP POP POP JUMP JUMPDEST PUSH1 0x0 JUMPDEST PUSH1 0x1 DUP4 ADD SLOAD DUP2 LT ISZERO PUSH2 0xE89 JUMPI DUP3 PUSH1 0x1 ADD DUP2 DUP2 SLOAD DUP2 LT PUSH2 0x1304 JUMPI PUSH2 0x1304 PUSH2 0x150E JUMP JUMPDEST PUSH1 0x0 SWAP2 DUP3 MSTORE PUSH1 0x20 SWAP1 SWAP2 KECCAK256 ADD SLOAD PUSH1 0x1 PUSH1 0x1 PUSH1 0xA0 SHL SUB SWAP1 DUP2 AND SWAP1 DUP4 AND SUB PUSH2 0x137C JUMPI PUSH1 0x0 DUP4 PUSH1 0x1 ADD DUP3 DUP2 SLOAD DUP2 LT PUSH2 0x133A JUMPI PUSH2 0x133A PUSH2 0x150E JUMP JUMPDEST PUSH1 0x0 SWAP2 DUP3 MSTORE PUSH1 0x20 SWAP1 SWAP2 KECCAK256 ADD DUP1 SLOAD PUSH1 0x1 PUSH1 0x1 PUSH1 0xA0 SHL SUB NOT AND PUSH1 0x1 PUSH1 0x1 PUSH1 0xA0 SHL SUB SWAP3 SWAP1 SWAP3 AND SWAP2 SWAP1 SWAP2 OR SWAP1 SSTORE PUSH1 0x3 DUP4 ADD SLOAD PUSH2 0x1372 SWAP1 DUP3 PUSH2 0x13D3 JUMP JUMPDEST PUSH1 0x3 DUP5 ADD SSTORE POP POP POP JUMP JUMPDEST DUP1 PUSH2 0x1386 DUP2 PUSH2 0x1524 JUMP JUMPDEST SWAP2 POP POP PUSH2 0x12E3 JUMP JUMPDEST PUSH1 0x0 PUSH2 0x1398 PUSH2 0x1430 JUMP JUMPDEST PUSH2 0x13A0 PUSH2 0x1430 JUMP JUMPDEST PUSH32 0x9201C193A07CAE1DF95AE692CC698685574C942A04514C48A4C3249F38594FF DUP7 DUP7 DUP7 PUSH1 0x40 MLOAD PUSH2 0xE04 SWAP4 SWAP3 SWAP2 SWAP1 PUSH2 0x153D JUMP JUMPDEST PUSH1 0x0 PUSH1 0x8 DUP3 LT PUSH2 0x13F5 JUMPI PUSH1 0x40 MLOAD PUSH3 0x461BCD PUSH1 0xE5 SHL DUP2 MSTORE PUSH1 0x4 ADD PUSH2 0x228 SWAP1 PUSH2 0x15B0 JUMP JUMPDEST DUP3 PUSH1 0x0 PUSH2 0x1403 DUP5 PUSH1 0xF8 PUSH2 0x14F6 JUMP JUMPDEST PUSH1 0x1 SWAP1 SHL NOT SWAP2 DUP3 AND SWAP2 SWAP1 POP PUSH2 0x1419 DUP5 PUSH1 0xF0 PUSH2 0x14F6 JUMP JUMPDEST PUSH1 0x1 SWAP1 SHL NOT SWAP2 DUP3 AND SWAP2 SWAP1 POP PUSH2 0x750 DUP3 DUP6 PUSH1 0x0 PUSH2 0x122C JUMP JUMPDEST PUSH1 0x40 MLOAD DUP1 PUSH1 0x40 ADD PUSH1 0x40 MSTORE DUP1 PUSH1 0x2 SWAP1 PUSH1 0x20 DUP3 MUL DUP1 CALLDATASIZE DUP4 CALLDATACOPY POP SWAP2 SWAP3 SWAP2 POP POP JUMP JUMPDEST POP DUP1 SLOAD PUSH1 0x0 DUP3 SSTORE SWAP1 PUSH1 0x0 MSTORE PUSH1 0x20 PUSH1 0x0 KECCAK256 SWAP1 DUP2 ADD SWAP1 PUSH2 0x762 SWAP2 SWAP1 JUMPDEST DUP1 DUP3 GT ISZERO PUSH2 0x147C JUMPI PUSH1 0x0 DUP2 SSTORE PUSH1 0x1 ADD PUSH2 0x1468 JUMP JUMPDEST POP SWAP1 JUMP JUMPDEST PUSH4 0x4E487B71 PUSH1 0xE0 SHL PUSH1 0x0 MSTORE PUSH1 0x21 PUSH1 0x4 MSTORE PUSH1 0x24 PUSH1 0x0 REVERT JUMPDEST PUSH1 0x3 DUP2 LT PUSH2 0x762 JUMPI PUSH4 0x4E487B71 PUSH1 0xE0 SHL PUSH1 0x0 MSTORE PUSH1 0x21 PUSH1 0x4 MSTORE PUSH1 0x24 PUSH1 0x0 REVERT JUMPDEST PUSH1 0x20 DUP2 ADD PUSH2 0x14C1 DUP4 PUSH2 0x1496 JUMP JUMPDEST SWAP2 SWAP1 MSTORE SWAP1 JUMP JUMPDEST PUSH1 0x0 PUSH1 0x20 DUP3 DUP5 SUB SLT ISZERO PUSH2 0x14D9 JUMPI PUSH1 0x0 DUP1 REVERT JUMPDEST POP CALLDATALOAD SWAP2 SWAP1 POP JUMP JUMPDEST PUSH4 0x4E487B71 PUSH1 0xE0 SHL PUSH1 0x0 MSTORE PUSH1 0x11 PUSH1 0x4 MSTORE PUSH1 0x24 PUSH1 0x0 REVERT JUMPDEST PUSH1 0x0 DUP3 NOT DUP3 GT ISZERO PUSH2 0x1509 JUMPI PUSH2 0x1509 PUSH2 0x14E0 JUMP JUMPDEST POP ADD SWAP1 JUMP JUMPDEST PUSH4 0x4E487B71 PUSH1 0xE0 SHL PUSH1 0x0 MSTORE PUSH1 0x32 PUSH1 0x4 MSTORE PUSH1 0x24 PUSH1 0x0 REVERT JUMPDEST PUSH1 0x0 PUSH1 0x1 DUP3 ADD PUSH2 0x1536 JUMPI PUSH2 0x1536 PUSH2 0x14E0 JUMP JUMPDEST POP PUSH1 0x1 ADD SWAP1 JUMP JUMPDEST PUSH1 0xA0 DUP2 ADD PUSH2 0x154A DUP6 PUSH2 0x1496 JUMP JUMPDEST DUP5 DUP3 MSTORE PUSH1 0x20 DUP1 DUP4 ADD DUP6 PUSH1 0x0 JUMPDEST PUSH1 0x2 DUP2 LT ISZERO PUSH2 0x1573 JUMPI DUP2 MLOAD DUP4 MSTORE SWAP2 DUP4 ADD SWAP2 SWAP1 DUP4 ADD SWAP1 PUSH1 0x1 ADD PUSH2 0x1556 JUMP JUMPDEST POP POP POP PUSH1 0x60 DUP4 ADD DUP5 PUSH1 0x0 JUMPDEST PUSH1 0x2 DUP2 LT ISZERO PUSH2 0x15A4 JUMPI DUP2 MLOAD PUSH1 0x1 PUSH1 0x1 PUSH1 0xA0 SHL SUB AND DUP4 MSTORE SWAP2 DUP4 ADD SWAP2 SWAP1 DUP4 ADD SWAP1 PUSH1 0x1 ADD PUSH2 0x157E JUMP JUMPDEST POP POP POP POP SWAP5 SWAP4 POP POP POP POP JUMP JUMPDEST PUSH1 0x20 DUP1 DUP3 MSTORE PUSH1 0x12 SWAP1 DUP3 ADD MSTORE PUSH18 0x696E646578206F7574206F662072616E6765 PUSH1 0x70 SHL PUSH1 0x40 DUP3 ADD MSTORE PUSH1 0x60 ADD SWAP1 JUMP JUMPDEST PUSH1 0x0 DUP3 DUP3 LT ISZERO PUSH2 0x15EE JUMPI PUSH2 0x15EE PUSH2 0x14E0 JUMP JUMPDEST POP SUB SWAP1 JUMP JUMPDEST PUSH1 0x0 DUP2 PUSH1 0x0 NOT DIV DUP4 GT DUP3 ISZERO ISZERO AND ISZERO PUSH2 0x160D JUMPI PUSH2 0x160D PUSH2 0x14E0 JUMP JUMPDEST POP MUL SWAP1 JUMP INVALID 0xD3 0x2D PUSH32 0x90491BEE81172A406B65F3270D810392FE53BB0379DDE8BDD4E624189DED606D SLOAD 0x4C 0x22 MUL 0xD0 ORIGIN 0xD2 PUSH3 0x6C3909 0x23 0xE6 CALLCODE PUSH1 0xCA 0x5D DUP10 PUSH3 0x5BBA0C INVALID PUSH17 0xD2BDDA4E8F8AB37FEF2B2E34C4B62FF994 DUP15 0xE6 PUSH2 0xCDCF CALLVALUE 0xE2 MULMOD 0xD7 0xC2 0xF 0x4D 0x1F PUSH15 0x83085E93B1FCD32D7F90491BEE8117 0x2A BLOCKHASH PUSH12 0x65F3270D810392FE53BB0379 0xDD 0xE8 0xBD 0xD4 0xE6 0x24 XOR SWAP13 LOG2 PUSH5 0x6970667358 0x22 SLT KECCAK256 0xE8 0x1F DUP16 0xC3 0xF6 0xCA 0x21 DUP1 MSTORE8 LOG2 SWAP16 DUP16 MOD 0xEA SELFBALANCE 0xC5 0xAD DUP8 0x1E SGT PUSH31 0xEC4DEC64D79934E89D8C3A64736F6C634300080D0033000000000000000000 "
    },
    "gasEstimates": {
      "creation": {
        "codeDepositCost": "1166400",
        "executionCost": "1214",
        "totalCost": "1167614"
      },
      "external": {
        "claim(bytes32)": "infinite",
        "finalizeEpoch()": "infinite",
        "getChallengePeriod()": "infinite",
        "getCurrentEpoch()": "infinite",
        "getCurrentPhase()": "infinite",
        "getInputAccumulationStart()": "infinite",
        "getInputDuration()": "infinite",
        "getSealingEpochTimestamp()": "infinite",
        "getTemplateHash()": "infinite"
      }
    },
    "methodIdentifiers": {
      "claim(bytes32)": "bd66528a",
      "finalizeEpoch()": "82ae9ef7",
      "getChallengePeriod()": "7864b77d",
      "getCurrentEpoch()": "b97dd9e2",
      "getCurrentPhase()": "a3a40ea5",
      "getInputAccumulationStart()": "ddf7bcf0",
      "getInputDuration()": "e17ba012",
      "getSealingEpochTimestamp()": "54ee1da5",
      "getTemplateHash()": "61b12c66"
    }
  },
  "storageLayout": {
    "storage": [],
    "types": null
  },
  "userdoc": {
    "events": {
      "Claim(uint256,address,bytes32)": {
        "notice": "claim submitted"
      },
      "FinalizeEpoch(uint256,bytes32)": {
        "notice": "epoch finalized"
      },
      "PhaseChange(uint8)": {
        "notice": "phase change"
      },
      "ResolveDispute(address,address,bytes32)": {
        "notice": "dispute resolved"
      }
    },
    "kind": "user",
    "methods": {
      "claim(bytes32)": {
        "notice": "claim the result of current epoch"
      },
      "finalizeEpoch()": {
        "notice": "finalize epoch after timeout"
      },
      "getChallengePeriod()": {
        "notice": "returns the challenge period in seconds"
      },
      "getCurrentEpoch()": {
        "notice": "returns index of current (accumulating) epoch"
      },
      "getCurrentPhase()": {
        "notice": "returns the current phase"
      },
      "getInputAccumulationStart()": {
        "notice": "returns the input accumulation start timestamp"
      },
      "getInputDuration()": {
        "notice": "returns the input duration in seconds"
      },
      "getSealingEpochTimestamp()": {
        "notice": "returns the sealing epoch timestamp"
      },
      "getTemplateHash()": {
        "notice": "returns the machine's template hash"
      }
    },
    "version": 1
  }
}