{
  "contractName": "SimpleContract",
  "sourceName": "contracts/test_helper/SimpleContract.sol",
  "abi": [
    {
      "inputs": [],
      "name": "simple_function",
      "outputs": [
        {
          "internalType": "string",
          "name": "",
          "type": "string"
        }
      ],
      "stateMutability": "pure",
      "type": "function"
    },
    {
      "inputs": [
        {
          "internalType": "bytes32",
          "name": "",
          "type": "bytes32"
        }
      ],
      "name": "simple_function",
      "outputs": [
        {
          "internalType": "string",
          "name": "",
          "type": "string"
        }
      ],
      "stateMutability": "pure",
      "type": "function"
    }
  ],
  "bytecode": "0x608060405234801561001057600080fd5b50610173806100206000396000f3fe608060405234801561001057600080fd5b50600436106100365760003560e01c80638dc21a771461003b578063ae312c8b1461007d575b600080fd5b604080518082019091526014815273333937b69039b4b6b8363290333ab731ba34b7b760611b60208201525b60405161007491906100ac565b60405180910390f35b61006761008b366004610101565b606060405180606001604052806023815260200161011b6023913992915050565b600060208083528351808285015260005b818110156100d9578581018301518582016040015282016100bd565b818111156100eb576000604083870101525b50601f01601f1916929092016040019392505050565b60006020828403121561011357600080fd5b503591905056fe66726f6d2073696d706c652066756e6374696f6e207769746820706172616d65746572a26469706673582212209cf46c1c680259a3901fdc8df6cfbd973a52d3ae2c78266965f403f158e77b0464736f6c634300080d0033",
  "linkReferences": {},
  "deployedLinkReferences": {},
  "devdoc": {
    "kind": "dev",
    "methods": {},
    "version": 1
  },
  "evm": {
    "bytecode": {
      "linkReferences": {},
      "opcodes": "PUSH1 0x80 PUSH1 0x40 MSTORE CALLVALUE DUP1 ISZERO PUSH2 0x10 JUMPI PUSH1 0x0 DUP1 REVERT JUMPDEST POP PUSH2 0x173 DUP1 PUSH2 0x20 PUSH1 0x0 CODECOPY PUSH1 0x0 RETURN INVALID PUSH1 0x80 PUSH1 0x40 MSTORE CALLVALUE DUP1 ISZERO PUSH2 0x10 JUMPI PUSH1 0x0 DUP1 REVERT JUMPDEST POP PUSH1 0x4 CALLDATASIZE LT PUSH2 0x36 JUMPI PUSH1 0x0 CALLDATALOAD PUSH1 0xE0 SHR DUP1 PUSH4 0x8DC21A77 EQ PUSH2 0x3B JUMPI DUP1 PUSH4 0xAE312C8B EQ PUSH2 0x7D JUMPI JUMPDEST PUSH1 0x0 DUP1 REVERT JUMPDEST PUSH1 0x40 DUP1 MLOAD DUP1 DUP3 ADD SWAP1 SWAP2 MSTORE PUSH1 0x14 DUP2 MSTORE PUSH20 0x333937B69039B4B6B8363290333AB731BA34B7B7 PUSH1 0x61 SHL PUSH1 0x20 DUP3 ADD MSTORE JUMPDEST PUSH1 0x40 MLOAD PUSH2 0x74 SWAP2 SWAP1 PUSH2 0xAC JUMP JUMPDEST PUSH1 0x40 MLOAD DUP1 SWAP2 SUB SWAP1 RETURN JUMPDEST PUSH2 0x67 PUSH2 0x8B CALLDATASIZE PUSH1 0x4 PUSH2 0x101 JUMP JUMPDEST PUSH1 0x60 PUSH1 0x40 MLOAD DUP1 PUSH1 0x60 ADD PUSH1 0x40 MSTORE DUP1 PUSH1 0x23 DUP2 MSTORE PUSH1 0x20 ADD PUSH2 0x11B PUSH1 0x23 SWAP2 CODECOPY SWAP3 SWAP2 POP POP JUMP JUMPDEST PUSH1 0x0 PUSH1 0x20 DUP1 DUP4 MSTORE DUP4 MLOAD DUP1 DUP3 DUP6 ADD MSTORE PUSH1 0x0 JUMPDEST DUP2 DUP2 LT ISZERO PUSH2 0xD9 JUMPI DUP6 DUP2 ADD DUP4 ADD MLOAD DUP6 DUP3 ADD PUSH1 0x40 ADD MSTORE DUP3 ADD PUSH2 0xBD JUMP JUMPDEST DUP2 DUP2 GT ISZERO PUSH2 0xEB JUMPI PUSH1 0x0 PUSH1 0x40 DUP4 DUP8 ADD ADD MSTORE JUMPDEST POP PUSH1 0x1F ADD PUSH1 0x1F NOT AND SWAP3 SWAP1 SWAP3 ADD PUSH1 0x40 ADD SWAP4 SWAP3 POP POP POP JUMP JUMPDEST PUSH1 0x0 PUSH1 0x20 DUP3 DUP5 SUB SLT ISZERO PUSH2 0x113 JUMPI PUSH1 0x0 DUP1 REVERT JUMPDEST POP CALLDATALOAD SWAP2 SWAP1 POP JUMP INVALID PUSH7 0x726F6D2073696D PUSH17 0x6C652066756E6374696F6E207769746820 PUSH17 0x6172616D65746572A26469706673582212 KECCAK256 SWAP13 DELEGATECALL PUSH13 0x1C680259A3901FDC8DF6CFBD97 GASPRICE MSTORE 0xD3 0xAE 0x2C PUSH25 0x266965F403F158E77B0464736F6C634300080D003300000000 "
    },
    "gasEstimates": {
      "creation": {
        "codeDepositCost": "74200",
        "executionCost": "123",
        "totalCost": "74323"
      },
      "external": {
        "simple_function()": "infinite",
        "simple_function(bytes32)": "infinite"
      }
    },
    "methodIdentifiers": {
      "simple_function()": "8dc21a77",
      "simple_function(bytes32)": "ae312c8b"
    }
  },
  "storageLayout": {
    "storage": [],
    "types": null
  },
  "userdoc": {
    "kind": "user",
    "methods": {},
    "version": 1
  }
}