{
  "contractName": "TestLibClaimsMask",
  "sourceName": "contracts/test_helper/TestLibClaimsMask.sol",
  "abi": [
    {
      "inputs": [
        {
          "internalType": "ClaimsMask",
          "name": "_claimsMask",
          "type": "uint256"
        },
        {
          "internalType": "uint256",
          "name": "_validatorIndex",
          "type": "uint256"
        }
      ],
      "name": "alreadyClaimed",
      "outputs": [
        {
          "internalType": "bool",
          "name": "",
          "type": "bool"
        }
      ],
      "stateMutability": "pure",
      "type": "function"
    },
    {
      "inputs": [
        {
          "internalType": "ClaimsMask",
          "name": "_claimsMask",
          "type": "uint256"
        }
      ],
      "name": "clearAgreementMask",
      "outputs": [
        {
          "internalType": "ClaimsMask",
          "name": "",
          "type": "uint256"
        }
      ],
      "stateMutability": "pure",
      "type": "function"
    },
    {
      "inputs": [
        {
          "internalType": "ClaimsMask",
          "name": "_claimsMask",
          "type": "uint256"
        }
      ],
      "name": "getAgreementMask",
      "outputs": [
        {
          "internalType": "uint256",
          "name": "",
          "type": "uint256"
        }
      ],
      "stateMutability": "pure",
      "type": "function"
    },
    {
      "inputs": [
        {
          "internalType": "ClaimsMask",
          "name": "_claimsMask",
          "type": "uint256"
        }
      ],
      "name": "getConsensusGoalMask",
      "outputs": [
        {
          "internalType": "uint256",
          "name": "",
          "type": "uint256"
        }
      ],
      "stateMutability": "pure",
      "type": "function"
    },
    {
      "inputs": [
        {
          "internalType": "ClaimsMask",
          "name": "_claimsMask",
          "type": "uint256"
        },
        {
          "internalType": "uint256",
          "name": "_validatorIndex",
          "type": "uint256"
        }
      ],
      "name": "getNumClaims",
      "outputs": [
        {
          "internalType": "uint256",
          "name": "",
          "type": "uint256"
        }
      ],
      "stateMutability": "pure",
      "type": "function"
    },
    {
      "inputs": [
        {
          "internalType": "ClaimsMask",
          "name": "_claimsMask",
          "type": "uint256"
        },
        {
          "internalType": "uint256",
          "name": "_validatorIndex",
          "type": "uint256"
        },
        {
          "internalType": "uint256",
          "name": "_value",
          "type": "uint256"
        }
      ],
      "name": "increaseNumClaims",
      "outputs": [
        {
          "internalType": "ClaimsMask",
          "name": "",
          "type": "uint256"
        }
      ],
      "stateMutability": "pure",
      "type": "function"
    },
    {
      "inputs": [
        {
          "internalType": "uint256",
          "name": "_value",
          "type": "uint256"
        }
      ],
      "name": "newClaimsMask",
      "outputs": [
        {
          "internalType": "ClaimsMask",
          "name": "",
          "type": "uint256"
        }
      ],
      "stateMutability": "pure",
      "type": "function"
    },
    {
      "inputs": [
        {
          "internalType": "uint256",
          "name": "_numValidators",
          "type": "uint256"
        }
      ],
      "name": "newClaimsMaskWithConsensusGoalSet",
      "outputs": [
        {
          "internalType": "ClaimsMask",
          "name": "",
          "type": "uint256"
        }
      ],
      "stateMutability": "pure",
      "type": "function"
    },
    {
      "inputs": [
        {
          "internalType": "ClaimsMask",
          "name": "_claimsMask",
          "type": "uint256"
        },
        {
          "internalType": "uint256",
          "name": "_validatorIndex",
          "type": "uint256"
        }
      ],
      "name": "removeValidator",
      "outputs": [
        {
          "internalType": "ClaimsMask",
          "name": "",
          "type": "uint256"
        }
      ],
      "stateMutability": "pure",
      "type": "function"
    },
    {
      "inputs": [
        {
          "internalType": "ClaimsMask",
          "name": "_claimsMask",
          "type": "uint256"
        },
        {
          "internalType": "uint256",
          "name": "_validatorIndex",
          "type": "uint256"
        }
      ],
      "name": "setAgreementMask",
      "outputs": [
        {
          "internalType": "ClaimsMask",
          "name": "",
          "type": "uint256"
        }
      ],
      "stateMutability": "pure",
      "type": "function"
    },
    {
      "inputs": [
        {
          "internalType": "ClaimsMask",
          "name": "_claimsMask",
          "type": "uint256"
        },
        {
          "internalType": "uint256",
          "name": "_validatorIndex",
          "type": "uint256"
        },
        {
          "internalType": "uint256",
          "name": "_value",
          "type": "uint256"
        }
      ],
      "name": "setNumClaims",
      "outputs": [
        {
          "internalType": "ClaimsMask",
          "name": "",
          "type": "uint256"
        }
      ],
      "stateMutability": "pure",
      "type": "function"
    }
  ],
  "bytecode": "0x608060405234801561001057600080fd5b50610642806100206000396000f3fe608060405234801561001057600080fd5b50600436106100a95760003560e01c8063cb9f881311610071578063cb9f881314610120578063cd70835c14610143578063cf7b90a614610156578063d4056ffe14610169578063de7fb2801461017c578063fa95f4001461018f57600080fd5b806352f1d2b4146100ae578063574125c2146100d45780638336d005146100e7578063a8c5d8f4146100fa578063ac266b8c1461010d575b600080fd5b6100c16100bc36600461056a565b6101a2565b6040519081526020015b60405180910390f35b6100c16100e2366004610596565b610230565b6100c16100f5366004610596565b6102ae565b6100c16101083660046105af565b6102e9565b6100c161011b3660046105af565b61036f565b61013361012e3660046105af565b6103b1565b60405190151581526020016100cb565b6100c16101513660046105af565b61042f565b6100c1610164366004610596565b610471565b6100c1610177366004610596565b6104ac565b6100c161018a36600461056a565b6104e7565b6100c161019d366004610596565b610530565b6040516314bc74ad60e21b815260048101849052602481018390526044810182905260009073__$cf2fb72623b6ba225c3cfc459aec70b905$__906352f1d2b4906064015b602060405180830381865af4158015610204573d6000803e3d6000fd5b505050506040513d601f19601f8201168201806040525081019061022891906105d1565b949350505050565b604051632ba092e160e11b81526004810182905260009073__$cf2fb72623b6ba225c3cfc459aec70b905$__9063574125c2906024015b602060405180830381865af4158015610284573d6000803e3d6000fd5b505050506040513d601f19601f820116820180604052508101906102a891906105d1565b92915050565b604051638336d00560e01b81526004810182905260009073__$cf2fb72623b6ba225c3cfc459aec70b905$__90638336d00590602401610267565b604051632a31763d60e21b8152600481018390526024810182905260009073__$cf2fb72623b6ba225c3cfc459aec70b905$__9063a8c5d8f4906044015b602060405180830381865af4158015610344573d6000803e3d6000fd5b505050506040513d601f19601f8201168201806040525081019061036891906105d1565b9392505050565b604051632b099ae360e21b8152600481018390526024810182905260009073__$cf2fb72623b6ba225c3cfc459aec70b905$__9063ac266b8c90604401610327565b60405163cb9f881360e01b8152600481018390526024810182905260009073__$cf2fb72623b6ba225c3cfc459aec70b905$__9063cb9f881390604401602060405180830381865af415801561040b573d6000803e3d6000fd5b505050506040513d601f19601f8201168201806040525081019061036891906105ea565b60405163335c20d760e21b8152600481018390526024810182905260009073__$cf2fb72623b6ba225c3cfc459aec70b905$__9063cd70835c90604401610327565b6040516367bdc85360e11b81526004810182905260009073__$cf2fb72623b6ba225c3cfc459aec70b905$__9063cf7b90a690602401610267565b604051636a02b7ff60e11b81526004810182905260009073__$cf2fb72623b6ba225c3cfc459aec70b905$__9063d4056ffe90602401610267565b6040516301bcff6560e71b815260048101849052602481018390526044810182905260009073__$cf2fb72623b6ba225c3cfc459aec70b905$__9063de7fb280906064016101e7565b604051623ea57d60ea1b81526004810182905260009073__$cf2fb72623b6ba225c3cfc459aec70b905$__9063fa95f40090602401610267565b60008060006060848603121561057f57600080fd5b505081359360208301359350604090920135919050565b6000602082840312156105a857600080fd5b5035919050565b600080604083850312156105c257600080fd5b50508035926020909101359150565b6000602082840312156105e357600080fd5b5051919050565b6000602082840312156105fc57600080fd5b8151801515811461036857600080fdfea26469706673582212203d34c549a167ccebc800ffaeb40772994164164a84d5ace3014f6caf91e38c5c64736f6c634300080d0033",
  "linkReferences": {
    "contracts/libraries/LibClaimsMask.sol": {
      "LibClaimsMask": [
        {
          "length": 20,
          "start": 489
        },
        {
          "length": 20,
          "start": 617
        },
        {
          "length": 20,
          "start": 743
        },
        {
          "length": 20,
          "start": 809
        },
        {
          "length": 20,
          "start": 943
        },
        {
          "length": 20,
          "start": 1009
        },
        {
          "length": 20,
          "start": 1135
        },
        {
          "length": 20,
          "start": 1194
        },
        {
          "length": 20,
          "start": 1253
        },
        {
          "length": 20,
          "start": 1326
        },
        {
          "length": 20,
          "start": 1384
        }
      ]
    }
  },
  "deployedLinkReferences": {
    "contracts/libraries/LibClaimsMask.sol": {
      "LibClaimsMask": [
        {
          "length": 20,
          "start": 457
        },
        {
          "length": 20,
          "start": 585
        },
        {
          "length": 20,
          "start": 711
        },
        {
          "length": 20,
          "start": 777
        },
        {
          "length": 20,
          "start": 911
        },
        {
          "length": 20,
          "start": 977
        },
        {
          "length": 20,
          "start": 1103
        },
        {
          "length": 20,
          "start": 1162
        },
        {
          "length": 20,
          "start": 1221
        },
        {
          "length": 20,
          "start": 1294
        },
        {
          "length": 20,
          "start": 1352
        }
      ]
    }
  },
  "devdoc": {
    "kind": "dev",
    "methods": {},
    "version": 1
  },
  "evm": {
    "bytecode": {
      "linkReferences": {
        "contracts/libraries/LibClaimsMask.sol": {
          "LibClaimsMask": [
            {
              "length": 20,
              "start": 489
            },
            {
              "length": 20,
              "start": 617
            },
            {
              "length": 20,
              "start": 743
            },
            {
              "length": 20,
              "start": 809
            },
            {
              "length": 20,
              "start": 943
            },
            {
              "length": 20,
              "start": 1009
            },
            {
              "length": 20,
              "start": 1135
            },
            {
              "length": 20,
              "start": 1194
            },
            {
              "length": 20,
              "start": 1253
            },
            {
              "length": 20,
              "start": 1326
            },
            {
              "length": 20,
              "start": 1384
            }
          ]
        }
      },
      "opcodes": "PUSH1 0x80 PUSH1 0x40 MSTORE CALLVALUE DUP1 ISZERO PUSH2 0x10 JUMPI PUSH1 0x0 DUP1 REVERT JUMPDEST POP PUSH2 0x642 DUP1 PUSH2 0x20 PUSH1 0x0 CODECOPY PUSH1 0x0 RETURN INVALID PUSH1 0x80 PUSH1 0x40 MSTORE CALLVALUE DUP1 ISZERO PUSH2 0x10 JUMPI PUSH1 0x0 DUP1 REVERT JUMPDEST POP PUSH1 0x4 CALLDATASIZE LT PUSH2 0xA9 JUMPI PUSH1 0x0 CALLDATALOAD PUSH1 0xE0 SHR DUP1 PUSH4 0xCB9F8813 GT PUSH2 0x71 JUMPI DUP1 PUSH4 0xCB9F8813 EQ PUSH2 0x120 JUMPI DUP1 PUSH4 0xCD70835C EQ PUSH2 0x143 JUMPI DUP1 PUSH4 0xCF7B90A6 EQ PUSH2 0x156 JUMPI DUP1 PUSH4 0xD4056FFE EQ PUSH2 0x169 JUMPI DUP1 PUSH4 0xDE7FB280 EQ PUSH2 0x17C JUMPI DUP1 PUSH4 0xFA95F400 EQ PUSH2 0x18F JUMPI PUSH1 0x0 DUP1 REVERT JUMPDEST DUP1 PUSH4 0x52F1D2B4 EQ PUSH2 0xAE JUMPI DUP1 PUSH4 0x574125C2 EQ PUSH2 0xD4 JUMPI DUP1 PUSH4 0x8336D005 EQ PUSH2 0xE7 JUMPI DUP1 PUSH4 0xA8C5D8F4 EQ PUSH2 0xFA JUMPI DUP1 PUSH4 0xAC266B8C EQ PUSH2 0x10D JUMPI JUMPDEST PUSH1 0x0 DUP1 REVERT JUMPDEST PUSH2 0xC1 PUSH2 0xBC CALLDATASIZE PUSH1 0x4 PUSH2 0x56A JUMP JUMPDEST PUSH2 0x1A2 JUMP JUMPDEST PUSH1 0x40 MLOAD SWAP1 DUP2 MSTORE PUSH1 0x20 ADD JUMPDEST PUSH1 0x40 MLOAD DUP1 SWAP2 SUB SWAP1 RETURN JUMPDEST PUSH2 0xC1 PUSH2 0xE2 CALLDATASIZE PUSH1 0x4 PUSH2 0x596 JUMP JUMPDEST PUSH2 0x230 JUMP JUMPDEST PUSH2 0xC1 PUSH2 0xF5 CALLDATASIZE PUSH1 0x4 PUSH2 0x596 JUMP JUMPDEST PUSH2 0x2AE JUMP JUMPDEST PUSH2 0xC1 PUSH2 0x108 CALLDATASIZE PUSH1 0x4 PUSH2 0x5AF JUMP JUMPDEST PUSH2 0x2E9 JUMP JUMPDEST PUSH2 0xC1 PUSH2 0x11B CALLDATASIZE PUSH1 0x4 PUSH2 0x5AF JUMP JUMPDEST PUSH2 0x36F JUMP JUMPDEST PUSH2 0x133 PUSH2 0x12E CALLDATASIZE PUSH1 0x4 PUSH2 0x5AF JUMP JUMPDEST PUSH2 0x3B1 JUMP JUMPDEST PUSH1 0x40 MLOAD SWAP1 ISZERO ISZERO DUP2 MSTORE PUSH1 0x20 ADD PUSH2 0xCB JUMP JUMPDEST PUSH2 0xC1 PUSH2 0x151 CALLDATASIZE PUSH1 0x4 PUSH2 0x5AF JUMP JUMPDEST PUSH2 0x42F JUMP JUMPDEST PUSH2 0xC1 PUSH2 0x164 CALLDATASIZE PUSH1 0x4 PUSH2 0x596 JUMP JUMPDEST PUSH2 0x471 JUMP JUMPDEST PUSH2 0xC1 PUSH2 0x177 CALLDATASIZE PUSH1 0x4 PUSH2 0x596 JUMP JUMPDEST PUSH2 0x4AC JUMP JUMPDEST PUSH2 0xC1 PUSH2 0x18A CALLDATASIZE PUSH1 0x4 PUSH2 0x56A JUMP JUMPDEST PUSH2 0x4E7 JUMP JUMPDEST PUSH2 0xC1 PUSH2 0x19D CALLDATASIZE PUSH1 0x4 PUSH2 0x596 JUMP JUMPDEST PUSH2 0x530 JUMP JUMPDEST PUSH1 0x40 MLOAD PUSH4 0x14BC74AD PUSH1 0xE2 SHL DUP2 MSTORE PUSH1 0x4 DUP2 ADD DUP5 SWAP1 MSTORE PUSH1 0x24 DUP2 ADD DUP4 SWAP1 MSTORE PUSH1 0x44 DUP2 ADD DUP3 SWAP1 MSTORE PUSH1 0x0 SWAP1 PUSH20 0x0 SWAP1 PUSH4 0x52F1D2B4 SWAP1 PUSH1 0x64 ADD JUMPDEST PUSH1 0x20 PUSH1 0x40 MLOAD DUP1 DUP4 SUB DUP2 DUP7 GAS DELEGATECALL ISZERO DUP1 ISZERO PUSH2 0x204 JUMPI RETURNDATASIZE PUSH1 0x0 DUP1 RETURNDATACOPY RETURNDATASIZE PUSH1 0x0 REVERT JUMPDEST POP POP POP POP PUSH1 0x40 MLOAD RETURNDATASIZE PUSH1 0x1F NOT PUSH1 0x1F DUP3 ADD AND DUP3 ADD DUP1 PUSH1 0x40 MSTORE POP DUP2 ADD SWAP1 PUSH2 0x228 SWAP2 SWAP1 PUSH2 0x5D1 JUMP JUMPDEST SWAP5 SWAP4 POP POP POP POP JUMP JUMPDEST PUSH1 0x40 MLOAD PUSH4 0x2BA092E1 PUSH1 0xE1 SHL DUP2 MSTORE PUSH1 0x4 DUP2 ADD DUP3 SWAP1 MSTORE PUSH1 0x0 SWAP1 PUSH20 0x0 SWAP1 PUSH4 0x574125C2 SWAP1 PUSH1 0x24 ADD JUMPDEST PUSH1 0x20 PUSH1 0x40 MLOAD DUP1 DUP4 SUB DUP2 DUP7 GAS DELEGATECALL ISZERO DUP1 ISZERO PUSH2 0x284 JUMPI RETURNDATASIZE PUSH1 0x0 DUP1 RETURNDATACOPY RETURNDATASIZE PUSH1 0x0 REVERT JUMPDEST POP POP POP POP PUSH1 0x40 MLOAD RETURNDATASIZE PUSH1 0x1F NOT PUSH1 0x1F DUP3 ADD AND DUP3 ADD DUP1 PUSH1 0x40 MSTORE POP DUP2 ADD SWAP1 PUSH2 0x2A8 SWAP2 SWAP1 PUSH2 0x5D1 JUMP JUMPDEST SWAP3 SWAP2 POP POP JUMP JUMPDEST PUSH1 0x40 MLOAD PUSH4 0x8336D005 PUSH1 0xE0 SHL DUP2 MSTORE PUSH1 0x4 DUP2 ADD DUP3 SWAP1 MSTORE PUSH1 0x0 SWAP1 PUSH20 0x0 SWAP1 PUSH4 0x8336D005 SWAP1 PUSH1 0x24 ADD PUSH2 0x267 JUMP JUMPDEST PUSH1 0x40 MLOAD PUSH4 0x2A31763D PUSH1 0xE2 SHL DUP2 MSTORE PUSH1 0x4 DUP2 ADD DUP4 SWAP1 MSTORE PUSH1 0x24 DUP2 ADD DUP3 SWAP1 MSTORE PUSH1 0x0 SWAP1 PUSH20 0x0 SWAP1 PUSH4 0xA8C5D8F4 SWAP1 PUSH1 0x44 ADD JUMPDEST PUSH1 0x20 PUSH1 0x40 MLOAD DUP1 DUP4 SUB DUP2 DUP7 GAS DELEGATECALL ISZERO DUP1 ISZERO PUSH2 0x344 JUMPI RETURNDATASIZE PUSH1 0x0 DUP1 RETURNDATACOPY RETURNDATASIZE PUSH1 0x0 REVERT JUMPDEST POP POP POP POP PUSH1 0x40 MLOAD RETURNDATASIZE PUSH1 0x1F NOT PUSH1 0x1F DUP3 ADD AND DUP3 ADD DUP1 PUSH1 0x40 MSTORE POP DUP2 ADD SWAP1 PUSH2 0x368 SWAP2 SWAP1 PUSH2 0x5D1 JUMP JUMPDEST SWAP4 SWAP3 POP POP POP JUMP JUMPDEST PUSH1 0x40 MLOAD PUSH4 0x2B099AE3 PUSH1 0xE2 SHL DUP2 MSTORE PUSH1 0x4 DUP2 ADD DUP4 SWAP1 MSTORE PUSH1 0x24 DUP2 ADD DUP3 SWAP1 MSTORE PUSH1 0x0 SWAP1 PUSH20 0x0 SWAP1 PUSH4 0xAC266B8C SWAP1 PUSH1 0x44 ADD PUSH2 0x327 JUMP JUMPDEST PUSH1 0x40 MLOAD PUSH4 0xCB9F8813 PUSH1 0xE0 SHL DUP2 MSTORE PUSH1 0x4 DUP2 ADD DUP4 SWAP1 MSTORE PUSH1 0x24 DUP2 ADD DUP3 SWAP1 MSTORE PUSH1 0x0 SWAP1 PUSH20 0x0 SWAP1 PUSH4 0xCB9F8813 SWAP1 PUSH1 0x44 ADD PUSH1 0x20 PUSH1 0x40 MLOAD DUP1 DUP4 SUB DUP2 DUP7 GAS DELEGATECALL ISZERO DUP1 ISZERO PUSH2 0x40B JUMPI RETURNDATASIZE PUSH1 0x0 DUP1 RETURNDATACOPY RETURNDATASIZE PUSH1 0x0 REVERT JUMPDEST POP POP POP POP PUSH1 0x40 MLOAD RETURNDATASIZE PUSH1 0x1F NOT PUSH1 0x1F DUP3 ADD AND DUP3 ADD DUP1 PUSH1 0x40 MSTORE POP DUP2 ADD SWAP1 PUSH2 0x368 SWAP2 SWAP1 PUSH2 0x5EA JUMP JUMPDEST PUSH1 0x40 MLOAD PUSH4 0x335C20D7 PUSH1 0xE2 SHL DUP2 MSTORE PUSH1 0x4 DUP2 ADD DUP4 SWAP1 MSTORE PUSH1 0x24 DUP2 ADD DUP3 SWAP1 MSTORE PUSH1 0x0 SWAP1 PUSH20 0x0 SWAP1 PUSH4 0xCD70835C SWAP1 PUSH1 0x44 ADD PUSH2 0x327 JUMP JUMPDEST PUSH1 0x40 MLOAD PUSH4 0x67BDC853 PUSH1 0xE1 SHL DUP2 MSTORE PUSH1 0x4 DUP2 ADD DUP3 SWAP1 MSTORE PUSH1 0x0 SWAP1 PUSH20 0x0 SWAP1 PUSH4 0xCF7B90A6 SWAP1 PUSH1 0x24 ADD PUSH2 0x267 JUMP JUMPDEST PUSH1 0x40 MLOAD PUSH4 0x6A02B7FF PUSH1 0xE1 SHL DUP2 MSTORE PUSH1 0x4 DUP2 ADD DUP3 SWAP1 MSTORE PUSH1 0x0 SWAP1 PUSH20 0x0 SWAP1 PUSH4 0xD4056FFE SWAP1 PUSH1 0x24 ADD PUSH2 0x267 JUMP JUMPDEST PUSH1 0x40 MLOAD PUSH4 0x1BCFF65 PUSH1 0xE7 SHL DUP2 MSTORE PUSH1 0x4 DUP2 ADD DUP5 SWAP1 MSTORE PUSH1 0x24 DUP2 ADD DUP4 SWAP1 MSTORE PUSH1 0x44 DUP2 ADD DUP3 SWAP1 MSTORE PUSH1 0x0 SWAP1 PUSH20 0x0 SWAP1 PUSH4 0xDE7FB280 SWAP1 PUSH1 0x64 ADD PUSH2 0x1E7 JUMP JUMPDEST PUSH1 0x40 MLOAD PUSH3 0x3EA57D PUSH1 0xEA SHL DUP2 MSTORE PUSH1 0x4 DUP2 ADD DUP3 SWAP1 MSTORE PUSH1 0x0 SWAP1 PUSH20 0x0 SWAP1 PUSH4 0xFA95F400 SWAP1 PUSH1 0x24 ADD PUSH2 0x267 JUMP JUMPDEST PUSH1 0x0 DUP1 PUSH1 0x0 PUSH1 0x60 DUP5 DUP7 SUB SLT ISZERO PUSH2 0x57F JUMPI PUSH1 0x0 DUP1 REVERT JUMPDEST POP POP DUP2 CALLDATALOAD SWAP4 PUSH1 0x20 DUP4 ADD CALLDATALOAD SWAP4 POP PUSH1 0x40 SWAP1 SWAP3 ADD CALLDATALOAD SWAP2 SWAP1 POP JUMP JUMPDEST PUSH1 0x0 PUSH1 0x20 DUP3 DUP5 SUB SLT ISZERO PUSH2 0x5A8 JUMPI PUSH1 0x0 DUP1 REVERT JUMPDEST POP CALLDATALOAD SWAP2 SWAP1 POP JUMP JUMPDEST PUSH1 0x0 DUP1 PUSH1 0x40 DUP4 DUP6 SUB SLT ISZERO PUSH2 0x5C2 JUMPI PUSH1 0x0 DUP1 REVERT JUMPDEST POP POP DUP1 CALLDATALOAD SWAP3 PUSH1 0x20 SWAP1 SWAP2 ADD CALLDATALOAD SWAP2 POP JUMP JUMPDEST PUSH1 0x0 PUSH1 0x20 DUP3 DUP5 SUB SLT ISZERO PUSH2 0x5E3 JUMPI PUSH1 0x0 DUP1 REVERT JUMPDEST POP MLOAD SWAP2 SWAP1 POP JUMP JUMPDEST PUSH1 0x0 PUSH1 0x20 DUP3 DUP5 SUB SLT ISZERO PUSH2 0x5FC JUMPI PUSH1 0x0 DUP1 REVERT JUMPDEST DUP2 MLOAD DUP1 ISZERO ISZERO DUP2 EQ PUSH2 0x368 JUMPI PUSH1 0x0 DUP1 REVERT INVALID LOG2 PUSH5 0x6970667358 0x22 SLT KECCAK256 RETURNDATASIZE CALLVALUE 0xC5 0x49 LOG1 PUSH8 0xCCEBC800FFAEB407 PUSH19 0x994164164A84D5ACE3014F6CAF91E38C5C6473 PUSH16 0x6C634300080D00330000000000000000 "
    },
    "gasEstimates": {
      "creation": {
        "codeDepositCost": "320400",
        "executionCost": "362",
        "totalCost": "320762"
      },
      "external": {
        "alreadyClaimed(uint256,uint256)": "infinite",
        "clearAgreementMask(uint256)": "infinite",
        "getAgreementMask(uint256)": "infinite",
        "getConsensusGoalMask(uint256)": "infinite",
        "getNumClaims(uint256,uint256)": "infinite",
        "increaseNumClaims(uint256,uint256,uint256)": "infinite",
        "newClaimsMask(uint256)": "infinite",
        "newClaimsMaskWithConsensusGoalSet(uint256)": "infinite",
        "removeValidator(uint256,uint256)": "infinite",
        "setAgreementMask(uint256,uint256)": "infinite",
        "setNumClaims(uint256,uint256,uint256)": "infinite"
      }
    },
    "methodIdentifiers": {
      "alreadyClaimed(uint256,uint256)": "cb9f8813",
      "clearAgreementMask(uint256)": "cf7b90a6",
      "getAgreementMask(uint256)": "fa95f400",
      "getConsensusGoalMask(uint256)": "d4056ffe",
      "getNumClaims(uint256,uint256)": "a8c5d8f4",
      "increaseNumClaims(uint256,uint256,uint256)": "52f1d2b4",
      "newClaimsMask(uint256)": "8336d005",
      "newClaimsMaskWithConsensusGoalSet(uint256)": "574125c2",
      "removeValidator(uint256,uint256)": "ac266b8c",
      "setAgreementMask(uint256,uint256)": "cd70835c",
      "setNumClaims(uint256,uint256,uint256)": "de7fb280"
    }
  },
  "storageLayout": {
    "storage": [],
    "types": null
  },
  "userdoc": {
    "kind": "user",
    "methods": {},
    "version": 1
  }
}