{
  "contractName": "ValidatorManagerFacet",
  "sourceName": "contracts/facets/ValidatorManagerFacet.sol",
  "abi": [
    {
      "anonymous": false,
      "inputs": [
        {
          "indexed": false,
          "internalType": "enum Result",
          "name": "result",
          "type": "uint8"
        },
        {
          "indexed": false,
          "internalType": "bytes32[2]",
          "name": "claims",
          "type": "bytes32[2]"
        },
        {
          "indexed": false,
          "internalType": "address payable[2]",
          "name": "validators",
          "type": "address[2]"
        }
      ],
      "name": "ClaimReceived",
      "type": "event"
    },
    {
      "anonymous": false,
      "inputs": [
        {
          "indexed": false,
          "internalType": "enum Result",
          "name": "result",
          "type": "uint8"
        },
        {
          "indexed": false,
          "internalType": "bytes32[2]",
          "name": "claims",
          "type": "bytes32[2]"
        },
        {
          "indexed": false,
          "internalType": "address payable[2]",
          "name": "validators",
          "type": "address[2]"
        }
      ],
      "name": "DisputeEnded",
      "type": "event"
    },
    {
      "anonymous": false,
      "inputs": [
        {
          "indexed": false,
          "internalType": "bytes32",
          "name": "claim",
          "type": "bytes32"
        }
      ],
      "name": "NewEpoch",
      "type": "event"
    },
    {
      "inputs": [],
      "name": "getAgreementMask",
      "outputs": [
        {
          "internalType": "uint256",
          "name": "",
          "type": "uint256"
        }
      ],
      "stateMutability": "view",
      "type": "function"
    },
    {
      "inputs": [],
      "name": "getConsensusGoalMask",
      "outputs": [
        {
          "internalType": "uint256",
          "name": "",
          "type": "uint256"
        }
      ],
      "stateMutability": "view",
      "type": "function"
    },
    {
      "inputs": [],
      "name": "getCurrentClaim",
      "outputs": [
        {
          "internalType": "bytes32",
          "name": "",
          "type": "bytes32"
        }
      ],
      "stateMutability": "view",
      "type": "function"
    },
    {
      "inputs": [],
      "name": "getMaxNumValidators",
      "outputs": [
        {
          "internalType": "uint256",
          "name": "",
          "type": "uint256"
        }
      ],
      "stateMutability": "view",
      "type": "function"
    },
    {
      "inputs": [
        {
          "internalType": "address payable",
          "name": "_sender",
          "type": "address"
        }
      ],
      "name": "getNumberOfClaimsByAddress",
      "outputs": [
        {
          "internalType": "uint256",
          "name": "",
          "type": "uint256"
        }
      ],
      "stateMutability": "view",
      "type": "function"
    },
    {
      "inputs": [
        {
          "internalType": "uint256",
          "name": "_index",
          "type": "uint256"
        }
      ],
      "name": "getNumberOfClaimsByIndex",
      "outputs": [
        {
          "internalType": "uint256",
          "name": "",
          "type": "uint256"
        }
      ],
      "stateMutability": "view",
      "type": "function"
    },
    {
      "inputs": [
        {
          "internalType": "address",
          "name": "_sender",
          "type": "address"
        }
      ],
      "name": "getValidatorIndex",
      "outputs": [
        {
          "internalType": "uint256",
          "name": "",
          "type": "uint256"
        }
      ],
      "stateMutability": "view",
      "type": "function"
    }
  ],
  "bytecode": "0x608060405234801561001057600080fd5b50610589806100206000396000f3fe608060405234801561001057600080fd5b506004361061007d5760003560e01c80638219fda41161005b5780638219fda4146100c2578063cc8a2451146100d7578063d2992f54146100ea578063f6023815146100f257600080fd5b8063101494ce146100825780631fcc449e1461009c57806355564a70146100af575b600080fd5b61008a6100fa565b60405190815260200160405180910390f35b61008a6100aa3660046104a7565b6101aa565b61008a6100bd3660046104a7565b6101cc565b6000805160206105348339815191525461008a565b61008a6100e53660046104c4565b6101e7565b61008a610202565b61008a61023c565b7f8ab37fef2b2e34c4b62ff9948ee661cdcf34e209d7c20f4d1f6e83085e93b1ff54604051623ea57d60ea1b815260048101919091526000906000805160206105348339815191529073__$cf2fb72623b6ba225c3cfc459aec70b905$__9063fa95f400906024015b602060405180830381865af4158015610180573d6000803e3d6000fd5b505050506040513d601f19601f820116820180604052508101906101a491906104dd565b91505090565b60006000805160206105348339815191526101c581846102aa565b9392505050565b60006000805160206105348339815191526101c58184610394565b60006000805160206105348339815191526101c58184610406565b7f8ab37fef2b2e34c4b62ff9948ee661cdcf34e209d7c20f4d1f6e83085e93b1fe54600090600080516020610534833981519152906101a4565b7f8ab37fef2b2e34c4b62ff9948ee661cdcf34e209d7c20f4d1f6e83085e93b1ff54604051636a02b7ff60e11b815260048101919091526000906000805160206105348339815191529073__$cf2fb72623b6ba225c3cfc459aec70b905$__9063d4056ffe90602401610163565b60006001600160a01b0382166102f35760405162461bcd60e51b815260206004820152600960248201526806164647265737320360bc1b60448201526064015b60405180910390fd5b60005b600184015481101561034f57836001018181548110610317576103176104f6565b6000918252602090912001546001600160a01b039081169084160361033d57905061038e565b806103478161050c565b9150506102f6565b5060405162461bcd60e51b81526020600482015260136024820152721d985b1a59185d1bdc881b9bdd08199bdd5b99606a1b60448201526064016102ea565b92915050565b6000805b60018401548110156103fc578360010181815481106103b9576103b96104f6565b6000918252602090912001546001600160a01b03908116908416036103ea576103e28482610406565b91505061038e565b806103f48161050c565b915050610398565b5060009392505050565b6003820154604051632a31763d60e21b815260009173__$cf2fb72623b6ba225c3cfc459aec70b905$__9163a8c5d8f49161044e918690600401918252602082015260400190565b602060405180830381865af415801561046b573d6000803e3d6000fd5b505050506040513d601f19601f820116820180604052508101906101c591906104dd565b6001600160a01b03811681146104a457600080fd5b50565b6000602082840312156104b957600080fd5b81356101c58161048f565b6000602082840312156104d657600080fd5b5035919050565b6000602082840312156104ef57600080fd5b5051919050565b634e487b7160e01b600052603260045260246000fd5b60006001820161052c57634e487b7160e01b600052601160045260246000fd5b506001019056fe8ab37fef2b2e34c4b62ff9948ee661cdcf34e209d7c20f4d1f6e83085e93b1fca26469706673582212200426aa1327b37778789d0d6bd333785119170f268c687c2ccf32475fc971bea064736f6c634300080d0033",
  "linkReferences": {
    "contracts/libraries/LibClaimsMask.sol": {
      "LibClaimsMask": [
        {
          "length": 20,
          "start": 357
        },
        {
          "length": 20,
          "start": 680
        },
        {
          "length": 20,
          "start": 1085
        }
      ]
    }
  },
  "deployedLinkReferences": {
    "contracts/libraries/LibClaimsMask.sol": {
      "LibClaimsMask": [
        {
          "length": 20,
          "start": 325
        },
        {
          "length": 20,
          "start": 648
        },
        {
          "length": 20,
          "start": 1053
        }
      ]
    }
  },
  "devdoc": {
    "kind": "dev",
    "methods": {
      "getAgreementMask()": {
        "returns": {
          "_0": "current state of agreement mask"
        }
      },
      "getConsensusGoalMask()": {
        "returns": {
          "_0": "current consensus goal mask"
        }
      },
      "getCurrentClaim()": {
        "returns": {
          "_0": "current claim"
        }
      },
      "getMaxNumValidators()": {
        "returns": {
          "_0": "the maximum number of validators"
        }
      },
      "getNumberOfClaimsByAddress(address)": {
        "params": {
          "_sender": "validator address"
        },
        "returns": {
          "_0": "#claims"
        }
      },
      "getNumberOfClaimsByIndex(uint256)": {
        "params": {
          "_index": "the index in validator set"
        },
        "returns": {
          "_0": "#claims"
        }
      },
      "getValidatorIndex(address)": {
        "params": {
          "_sender": "validator address"
        },
        "returns": {
          "_0": "validator index or revert"
        }
      }
    },
    "version": 1
  },
  "evm": {
    "bytecode": {
      "linkReferences": {
        "contracts/libraries/LibClaimsMask.sol": {
          "LibClaimsMask": [
            {
              "length": 20,
              "start": 357
            },
            {
              "length": 20,
              "start": 680
            },
            {
              "length": 20,
              "start": 1085
            }
          ]
        }
      },
      "opcodes": "PUSH1 0x80 PUSH1 0x40 MSTORE CALLVALUE DUP1 ISZERO PUSH2 0x10 JUMPI PUSH1 0x0 DUP1 REVERT JUMPDEST POP PUSH2 0x589 DUP1 PUSH2 0x20 PUSH1 0x0 CODECOPY PUSH1 0x0 RETURN INVALID PUSH1 0x80 PUSH1 0x40 MSTORE CALLVALUE DUP1 ISZERO PUSH2 0x10 JUMPI PUSH1 0x0 DUP1 REVERT JUMPDEST POP PUSH1 0x4 CALLDATASIZE LT PUSH2 0x7D JUMPI PUSH1 0x0 CALLDATALOAD PUSH1 0xE0 SHR DUP1 PUSH4 0x8219FDA4 GT PUSH2 0x5B JUMPI DUP1 PUSH4 0x8219FDA4 EQ PUSH2 0xC2 JUMPI DUP1 PUSH4 0xCC8A2451 EQ PUSH2 0xD7 JUMPI DUP1 PUSH4 0xD2992F54 EQ PUSH2 0xEA JUMPI DUP1 PUSH4 0xF6023815 EQ PUSH2 0xF2 JUMPI PUSH1 0x0 DUP1 REVERT JUMPDEST DUP1 PUSH4 0x101494CE EQ PUSH2 0x82 JUMPI DUP1 PUSH4 0x1FCC449E EQ PUSH2 0x9C JUMPI DUP1 PUSH4 0x55564A70 EQ PUSH2 0xAF JUMPI JUMPDEST PUSH1 0x0 DUP1 REVERT JUMPDEST PUSH2 0x8A PUSH2 0xFA JUMP JUMPDEST PUSH1 0x40 MLOAD SWAP1 DUP2 MSTORE PUSH1 0x20 ADD PUSH1 0x40 MLOAD DUP1 SWAP2 SUB SWAP1 RETURN JUMPDEST PUSH2 0x8A PUSH2 0xAA CALLDATASIZE PUSH1 0x4 PUSH2 0x4A7 JUMP JUMPDEST PUSH2 0x1AA JUMP JUMPDEST PUSH2 0x8A PUSH2 0xBD CALLDATASIZE PUSH1 0x4 PUSH2 0x4A7 JUMP JUMPDEST PUSH2 0x1CC JUMP JUMPDEST PUSH1 0x0 DUP1 MLOAD PUSH1 0x20 PUSH2 0x534 DUP4 CODECOPY DUP2 MLOAD SWAP2 MSTORE SLOAD PUSH2 0x8A JUMP JUMPDEST PUSH2 0x8A PUSH2 0xE5 CALLDATASIZE PUSH1 0x4 PUSH2 0x4C4 JUMP JUMPDEST PUSH2 0x1E7 JUMP JUMPDEST PUSH2 0x8A PUSH2 0x202 JUMP JUMPDEST PUSH2 0x8A PUSH2 0x23C JUMP JUMPDEST PUSH32 0x8AB37FEF2B2E34C4B62FF9948EE661CDCF34E209D7C20F4D1F6E83085E93B1FF SLOAD PUSH1 0x40 MLOAD PUSH3 0x3EA57D PUSH1 0xEA SHL DUP2 MSTORE PUSH1 0x4 DUP2 ADD SWAP2 SWAP1 SWAP2 MSTORE PUSH1 0x0 SWAP1 PUSH1 0x0 DUP1 MLOAD PUSH1 0x20 PUSH2 0x534 DUP4 CODECOPY DUP2 MLOAD SWAP2 MSTORE SWAP1 PUSH20 0x0 SWAP1 PUSH4 0xFA95F400 SWAP1 PUSH1 0x24 ADD JUMPDEST PUSH1 0x20 PUSH1 0x40 MLOAD DUP1 DUP4 SUB DUP2 DUP7 GAS DELEGATECALL ISZERO DUP1 ISZERO PUSH2 0x180 JUMPI RETURNDATASIZE PUSH1 0x0 DUP1 RETURNDATACOPY RETURNDATASIZE PUSH1 0x0 REVERT JUMPDEST POP POP POP POP PUSH1 0x40 MLOAD RETURNDATASIZE PUSH1 0x1F NOT PUSH1 0x1F DUP3 ADD AND DUP3 ADD DUP1 PUSH1 0x40 MSTORE POP DUP2 ADD SWAP1 PUSH2 0x1A4 SWAP2 SWAP1 PUSH2 0x4DD JUMP JUMPDEST SWAP2 POP POP SWAP1 JUMP JUMPDEST PUSH1 0x0 PUSH1 0x0 DUP1 MLOAD PUSH1 0x20 PUSH2 0x534 DUP4 CODECOPY DUP2 MLOAD SWAP2 MSTORE PUSH2 0x1C5 DUP2 DUP5 PUSH2 0x2AA JUMP JUMPDEST SWAP4 SWAP3 POP POP POP JUMP JUMPDEST PUSH1 0x0 PUSH1 0x0 DUP1 MLOAD PUSH1 0x20 PUSH2 0x534 DUP4 CODECOPY DUP2 MLOAD SWAP2 MSTORE PUSH2 0x1C5 DUP2 DUP5 PUSH2 0x394 JUMP JUMPDEST PUSH1 0x0 PUSH1 0x0 DUP1 MLOAD PUSH1 0x20 PUSH2 0x534 DUP4 CODECOPY DUP2 MLOAD SWAP2 MSTORE PUSH2 0x1C5 DUP2 DUP5 PUSH2 0x406 JUMP JUMPDEST PUSH32 0x8AB37FEF2B2E34C4B62FF9948EE661CDCF34E209D7C20F4D1F6E83085E93B1FE SLOAD PUSH1 0x0 SWAP1 PUSH1 0x0 DUP1 MLOAD PUSH1 0x20 PUSH2 0x534 DUP4 CODECOPY DUP2 MLOAD SWAP2 MSTORE SWAP1 PUSH2 0x1A4 JUMP JUMPDEST PUSH32 0x8AB37FEF2B2E34C4B62FF9948EE661CDCF34E209D7C20F4D1F6E83085E93B1FF SLOAD PUSH1 0x40 MLOAD PUSH4 0x6A02B7FF PUSH1 0xE1 SHL DUP2 MSTORE PUSH1 0x4 DUP2 ADD SWAP2 SWAP1 SWAP2 MSTORE PUSH1 0x0 SWAP1 PUSH1 0x0 DUP1 MLOAD PUSH1 0x20 PUSH2 0x534 DUP4 CODECOPY DUP2 MLOAD SWAP2 MSTORE SWAP1 PUSH20 0x0 SWAP1 PUSH4 0xD4056FFE SWAP1 PUSH1 0x24 ADD PUSH2 0x163 JUMP JUMPDEST PUSH1 0x0 PUSH1 0x1 PUSH1 0x1 PUSH1 0xA0 SHL SUB DUP3 AND PUSH2 0x2F3 JUMPI PUSH1 0x40 MLOAD PUSH3 0x461BCD PUSH1 0xE5 SHL DUP2 MSTORE PUSH1 0x20 PUSH1 0x4 DUP3 ADD MSTORE PUSH1 0x9 PUSH1 0x24 DUP3 ADD MSTORE PUSH9 0x61646472657373203 PUSH1 0xBC SHL PUSH1 0x44 DUP3 ADD MSTORE PUSH1 0x64 ADD JUMPDEST PUSH1 0x40 MLOAD DUP1 SWAP2 SUB SWAP1 REVERT JUMPDEST PUSH1 0x0 JUMPDEST PUSH1 0x1 DUP5 ADD SLOAD DUP2 LT ISZERO PUSH2 0x34F JUMPI DUP4 PUSH1 0x1 ADD DUP2 DUP2 SLOAD DUP2 LT PUSH2 0x317 JUMPI PUSH2 0x317 PUSH2 0x4F6 JUMP JUMPDEST PUSH1 0x0 SWAP2 DUP3 MSTORE PUSH1 0x20 SWAP1 SWAP2 KECCAK256 ADD SLOAD PUSH1 0x1 PUSH1 0x1 PUSH1 0xA0 SHL SUB SWAP1 DUP2 AND SWAP1 DUP5 AND SUB PUSH2 0x33D JUMPI SWAP1 POP PUSH2 0x38E JUMP JUMPDEST DUP1 PUSH2 0x347 DUP2 PUSH2 0x50C JUMP JUMPDEST SWAP2 POP POP PUSH2 0x2F6 JUMP JUMPDEST POP PUSH1 0x40 MLOAD PUSH3 0x461BCD PUSH1 0xE5 SHL DUP2 MSTORE PUSH1 0x20 PUSH1 0x4 DUP3 ADD MSTORE PUSH1 0x13 PUSH1 0x24 DUP3 ADD MSTORE PUSH19 0x1D985B1A59185D1BDC881B9BDD08199BDD5B99 PUSH1 0x6A SHL PUSH1 0x44 DUP3 ADD MSTORE PUSH1 0x64 ADD PUSH2 0x2EA JUMP JUMPDEST SWAP3 SWAP2 POP POP JUMP JUMPDEST PUSH1 0x0 DUP1 JUMPDEST PUSH1 0x1 DUP5 ADD SLOAD DUP2 LT ISZERO PUSH2 0x3FC JUMPI DUP4 PUSH1 0x1 ADD DUP2 DUP2 SLOAD DUP2 LT PUSH2 0x3B9 JUMPI PUSH2 0x3B9 PUSH2 0x4F6 JUMP JUMPDEST PUSH1 0x0 SWAP2 DUP3 MSTORE PUSH1 0x20 SWAP1 SWAP2 KECCAK256 ADD SLOAD PUSH1 0x1 PUSH1 0x1 PUSH1 0xA0 SHL SUB SWAP1 DUP2 AND SWAP1 DUP5 AND SUB PUSH2 0x3EA JUMPI PUSH2 0x3E2 DUP5 DUP3 PUSH2 0x406 JUMP JUMPDEST SWAP2 POP POP PUSH2 0x38E JUMP JUMPDEST DUP1 PUSH2 0x3F4 DUP2 PUSH2 0x50C JUMP JUMPDEST SWAP2 POP POP PUSH2 0x398 JUMP JUMPDEST POP PUSH1 0x0 SWAP4 SWAP3 POP POP POP JUMP JUMPDEST PUSH1 0x3 DUP3 ADD SLOAD PUSH1 0x40 MLOAD PUSH4 0x2A31763D PUSH1 0xE2 SHL DUP2 MSTORE PUSH1 0x0 SWAP2 PUSH20 0x0 SWAP2 PUSH4 0xA8C5D8F4 SWAP2 PUSH2 0x44E SWAP2 DUP7 SWAP1 PUSH1 0x4 ADD SWAP2 DUP3 MSTORE PUSH1 0x20 DUP3 ADD MSTORE PUSH1 0x40 ADD SWAP1 JUMP JUMPDEST PUSH1 0x20 PUSH1 0x40 MLOAD DUP1 DUP4 SUB DUP2 DUP7 GAS DELEGATECALL ISZERO DUP1 ISZERO PUSH2 0x46B JUMPI RETURNDATASIZE PUSH1 0x0 DUP1 RETURNDATACOPY RETURNDATASIZE PUSH1 0x0 REVERT JUMPDEST POP POP POP POP PUSH1 0x40 MLOAD RETURNDATASIZE PUSH1 0x1F NOT PUSH1 0x1F DUP3 ADD AND DUP3 ADD DUP1 PUSH1 0x40 MSTORE POP DUP2 ADD SWAP1 PUSH2 0x1C5 SWAP2 SWAP1 PUSH2 0x4DD JUMP JUMPDEST PUSH1 0x1 PUSH1 0x1 PUSH1 0xA0 SHL SUB DUP2 AND DUP2 EQ PUSH2 0x4A4 JUMPI PUSH1 0x0 DUP1 REVERT JUMPDEST POP JUMP JUMPDEST PUSH1 0x0 PUSH1 0x20 DUP3 DUP5 SUB SLT ISZERO PUSH2 0x4B9 JUMPI PUSH1 0x0 DUP1 REVERT JUMPDEST DUP2 CALLDATALOAD PUSH2 0x1C5 DUP2 PUSH2 0x48F JUMP JUMPDEST PUSH1 0x0 PUSH1 0x20 DUP3 DUP5 SUB SLT ISZERO PUSH2 0x4D6 JUMPI PUSH1 0x0 DUP1 REVERT JUMPDEST POP CALLDATALOAD SWAP2 SWAP1 POP JUMP JUMPDEST PUSH1 0x0 PUSH1 0x20 DUP3 DUP5 SUB SLT ISZERO PUSH2 0x4EF JUMPI PUSH1 0x0 DUP1 REVERT JUMPDEST POP MLOAD SWAP2 SWAP1 POP JUMP JUMPDEST PUSH4 0x4E487B71 PUSH1 0xE0 SHL PUSH1 0x0 MSTORE PUSH1 0x32 PUSH1 0x4 MSTORE PUSH1 0x24 PUSH1 0x0 REVERT JUMPDEST PUSH1 0x0 PUSH1 0x1 DUP3 ADD PUSH2 0x52C JUMPI PUSH4 0x4E487B71 PUSH1 0xE0 SHL PUSH1 0x0 MSTORE PUSH1 0x11 PUSH1 0x4 MSTORE PUSH1 0x24 PUSH1 0x0 REVERT JUMPDEST POP PUSH1 0x1 ADD SWAP1 JUMP INVALID DUP11 0xB3 PUSH32 0xEF2B2E34C4B62FF9948EE661CDCF34E209D7C20F4D1F6E83085E93B1FCA26469 PUSH17 0x6673582212200426AA1327B37778789D0D PUSH12 0xD333785119170F268C687C2C 0xCF ORIGIN SELFBALANCE 0x5F 0xC9 PUSH18 0xBEA064736F6C634300080D00330000000000 "
    },
    "gasEstimates": {
      "creation": {
        "codeDepositCost": "283400",
        "executionCost": "324",
        "totalCost": "283724"
      },
      "external": {
        "getAgreementMask()": "infinite",
        "getConsensusGoalMask()": "infinite",
        "getCurrentClaim()": "infinite",
        "getMaxNumValidators()": "infinite",
        "getNumberOfClaimsByAddress(address)": "infinite",
        "getNumberOfClaimsByIndex(uint256)": "infinite",
        "getValidatorIndex(address)": "infinite"
      }
    },
    "methodIdentifiers": {
      "getAgreementMask()": "101494ce",
      "getConsensusGoalMask()": "f6023815",
      "getCurrentClaim()": "8219fda4",
      "getMaxNumValidators()": "d2992f54",
      "getNumberOfClaimsByAddress(address)": "55564a70",
      "getNumberOfClaimsByIndex(uint256)": "cc8a2451",
      "getValidatorIndex(address)": "1fcc449e"
    }
  },
  "storageLayout": {
    "storage": [],
    "types": null
  },
  "userdoc": {
    "events": {
      "ClaimReceived(uint8,bytes32[2],address[2])": {
        "notice": "emitted on Claim received"
      },
      "DisputeEnded(uint8,bytes32[2],address[2])": {
        "notice": "emitted on Dispute end"
      },
      "NewEpoch(bytes32)": {
        "notice": "emitted on new Epoch"
      }
    },
    "kind": "user",
    "methods": {
      "getAgreementMask()": {
        "notice": "get agreement mask"
      },
      "getConsensusGoalMask()": {
        "notice": "get consensus goal mask"
      },
      "getCurrentClaim()": {
        "notice": "get current claim"
      },
      "getMaxNumValidators()": {
        "notice": "get the maximum number of validators defined in validator manager"
      },
      "getNumberOfClaimsByAddress(address)": {
        "notice": "get number of claims the sender has made"
      },
      "getNumberOfClaimsByIndex(uint256)": {
        "notice": "get number of claims by the index in the validator set"
      },
      "getValidatorIndex(address)": {
        "notice": "find the validator and return the index or revert"
      }
    },
    "version": 1
  }
}