{
  "address": "0x259f3439da38996C6cB7E2Bf06ddcbD1AA2fdd73",
  "abi": [
    {
      "anonymous": false,
      "inputs": [
        {
          "indexed": true,
          "internalType": "contract IConsensus",
          "name": "consensus",
          "type": "address"
        },
        {
          "indexed": false,
          "internalType": "address",
          "name": "dappOwner",
          "type": "address"
        },
        {
          "indexed": false,
          "internalType": "bytes32",
          "name": "templateHash",
          "type": "bytes32"
        },
        {
          "indexed": false,
          "internalType": "contract CartesiDApp",
          "name": "application",
          "type": "address"
        }
      ],
      "name": "ApplicationCreated",
      "type": "event"
    },
    {
      "inputs": [
        {
          "internalType": "contract IConsensus",
          "name": "_consensus",
          "type": "address"
        },
        {
          "internalType": "address",
          "name": "_dappOwner",
          "type": "address"
        },
        {
          "internalType": "bytes32",
          "name": "_templateHash",
          "type": "bytes32"
        }
      ],
      "name": "newApplication",
      "outputs": [
        {
          "internalType": "contract CartesiDApp",
          "name": "",
          "type": "address"
        }
      ],
      "stateMutability": "nonpayable",
      "type": "function"
    }
  ],
  "transactionHash": "0x1037f27f1ba0f96f53dd3fc3ef98111437e33341907917c18a57f48879d632e1",
  "args": [],
  "numDeployments": 3,
  "solcInputHash": "0567aa60413bcde67383b46cd3cc8c88",
  "bytecode": "0x608060405234801561001057600080fd5b50611603806100206000396000f3fe608060405234801561001057600080fd5b506004361061002b5760003560e01c80633648bfb514610030575b600080fd5b61004361003e36600461012b565b61005f565b6040516001600160a01b03909116815260200160405180910390f35b60008084848460405161007190610106565b6001600160a01b0393841681529290911660208301526040820152606001604051809103906000f0801580156100ab573d6000803e3d6000fd5b50604080516001600160a01b03878116825260208201879052838116828401529151929350908716917fe73165c2d277daf8713fd08b40845cb6bb7a20b2b543f3d35324a475660fcebd9181900360600190a2949350505050565b6114618061016d83390190565b6001600160a01b038116811461012857600080fd5b50565b60008060006060848603121561014057600080fd5b833561014b81610113565b9250602084013561015b81610113565b92959294505050604091909101359056fe60a06040523480156200001157600080fd5b5060405162001461380380620014618339810160408190526200003491620001c2565b6001600055620000443362000079565b6200004f82620000cb565b60805250600380546001600160a01b0319166001600160a01b03929092169190911790556200020a565b600180546001600160a01b038381166001600160a01b0319831681179093556040519116919082907f8be0079c531659141344cd1fd0a4f28419497f9722a3daafe3b4186f6b6457e090600090a35050565b620000d56200014e565b6001600160a01b038116620001405760405162461bcd60e51b815260206004820152602660248201527f4f776e61626c653a206e6577206f776e657220697320746865207a65726f206160448201526564647265737360d01b60648201526084015b60405180910390fd5b6200014b8162000079565b50565b6001546001600160a01b03163314620001aa5760405162461bcd60e51b815260206004820181905260248201527f4f776e61626c653a2063616c6c6572206973206e6f7420746865206f776e6572604482015260640162000137565b565b6001600160a01b03811681146200014b57600080fd5b600080600060608486031215620001d857600080fd5b8351620001e581620001ac565b6020850151909350620001f881620001ac565b80925050604084015190509250925092565b60805161123b62000226600039600061018c015261123b6000f3fe6080604052600436106100a05760003560e01c8063715018a611610064578063715018a6146101b55780638da5cb5b146101ca57806396487d46146101e85780639d9b114514610208578063f2fde38b14610228578063fc4116831461024857600080fd5b80631250482f146100ac578063150b7a02146100e1578063179e740b14610126578063522f68151461015857806361b12c661461017a57600080fd5b366100a757005b600080fd5b3480156100b857600080fd5b506100cc6100c7366004610d88565b610268565b60405190151581526020015b60405180910390f35b3480156100ed57600080fd5b5061010d6100fc366004610e04565b630a85bd0160e11b95945050505050565b6040516001600160e01b031990911681526020016100d8565b34801561013257600080fd5b506003546001600160a01b03165b6040516001600160a01b0390911681526020016100d8565b34801561016457600080fd5b50610178610173366004610e77565b610483565b005b34801561018657600080fd5b506040517f000000000000000000000000000000000000000000000000000000000000000081526020016100d8565b3480156101c157600080fd5b5061017861055f565b3480156101d657600080fd5b506001546001600160a01b0316610140565b3480156101f457600080fd5b506100cc610203366004610ea3565b610573565b34801561021457600080fd5b506100cc610223366004610f0c565b6105c4565b34801561023457600080fd5b50610178610243366004610f2e565b6105d6565b34801561025457600080fd5b50610178610263366004610f2e565b61064f565b60006102726106ab565b600080808061028c6102876020880188610f52565b610704565b919550935091506102a983836102a28980610f99565b919061078b565b90506102c5898989876102bc8b80610f99565b93929190610801565b60006102fa6102d48880610f99565b6102e5906040810190602001610fb9565b67ffffffffffffffff168360809190911b1790565b905061030581610837565b156103575760405162461bcd60e51b815260206004820152601860248201527f72652d657865637574696f6e206e6f7420616c6c6f776564000000000000000060448201526064015b60405180910390fd5b60008a6001600160a01b03168a8a604051610373929190610fe3565b6000604051808303816000865af19150503d80600081146103b0576040519150601f19603f3d011682016040523d82523d6000602084013e6103b5565b606091505b50509050801561046a576040516306449da160e41b815260026004820152602481018390526001604482015273dB96468910d81BA6085eb9FE258f0DEF3cA8aA9A90636449da109060640160006040518083038186803b15801561041857600080fd5b505af415801561042c573d6000803e3d6000fd5b505050507f0eb7ee080f865f1cadc4f54daf58cc3b8879e888832867d13351edcec0fbdc548260405161046191815260200190565b60405180910390a15b9550505050505061047b6001600055565b949350505050565b3330146104c05760405162461bcd60e51b815260206004820152600b60248201526a37b7363c9034ba39b2b63360a91b604482015260640161034e565b6000826001600160a01b03168260405160006040518083038185875af1925050503d806000811461050d576040519150601f19603f3d011682016040523d82523d6000602084013e610512565b606091505b505090508061055a5760405162461bcd60e51b81526020600482015260146024820152731dda5d1a191c985dd15d1a195c8819985a5b195960621b604482015260640161034e565b505050565b6105676108bb565b6105716000610915565b565b60008080806105886102876020870187610f52565b9194509250905061059e82826102a28880610f99565b506105b78787856105af8980610f99565b929190610967565b5060019695505050505050565b6000608082901b831761047b81610837565b6105de6108bb565b6001600160a01b0381166106435760405162461bcd60e51b815260206004820152602660248201527f4f776e61626c653a206e6577206f776e657220697320746865207a65726f206160448201526564647265737360d01b606482015260840161034e565b61064c81610915565b50565b6106576108bb565b600380546001600160a01b0319166001600160a01b0383169081179091556040519081527f4991c6f37185659e276ff918a96f3e20e6c5abcd8c9aab450dc19c2f7ad35cb59060200160405180910390a150565b6002600054036106fd5760405162461bcd60e51b815260206004820152601f60248201527f5265656e7472616e637947756172643a207265656e7472616e742063616c6c00604482015260640161034e565b6002600055565b60035460405163035e6a0960e61b8152600091829182916001600160a01b03169063d79a82409061073d9030908990899060040161101c565b606060405180830381865afa15801561075a573d6000803e3d6000fd5b505050506040513d601f19601f8201168201806040525081019061077e919061104a565b9250925092509250925092565b60008061079b6020860186610fb9565b6107af9067ffffffffffffffff1685611078565b90508281111561047b5760405162461bcd60e51b815260206004820152601f60248201527f696e626f7820696e70757420696e646578206f7574206f6620626f756e647300604482015260640161034e565b600061080e85858561098e565b905061082f868284606083013560255b67ffffffffffffffff1660156109bd565b505050505050565b6040516303fbaf7360e01b8152600260048201526024810182905260009073dB96468910d81BA6085eb9FE258f0DEF3cA8aA9A906303fbaf7390604401602060405180830381865af4158015610891573d6000803e3d6000fd5b505050506040513d601f19601f820116820180604052508101906108b5919061109e565b92915050565b6001546001600160a01b031633146105715760405162461bcd60e51b815260206004820181905260248201527f4f776e61626c653a2063616c6c6572206973206e6f7420746865206f776e6572604482015260640161034e565b600180546001600160a01b038381166001600160a01b0319831681179093556040519116919082907f8be0079c531659141344cd1fd0a4f28419497f9722a3daafe3b4186f6b6457e090600090a35050565b60006109738484610ce6565b90506109878582846080830135602561081e565b5050505050565b60608383836040516020016109a59392919061101c565b60405160208183030381529060405290509392505050565b6040805160608089013560208301526080808a01359383019390935260a0890135908201528591016040516020818303038152906040528051906020012014610a3e5760405162461bcd60e51b81526020600482015260136024820152720d2dcc6dee4e4cac6e840cae0dec6d090c2e6d606b1b604482015260640161034e565b82735eacED599B1cDfc5D7b119Fc52cA1B13396861f96379de4601610a7a610a6960208b018b610fb9565b60051b681fffffffffffffffe01690565b60058660408c0135610a8f60e08e018e6110c0565b6040518763ffffffff1660e01b8152600401610ab09695949392919061110a565b602060405180830381865af4158015610acd573d6000803e3d6000fd5b505050506040513d601f19601f82011682018060405250810190610af19190611171565b14610b3e5760405162461bcd60e51b815260206004820152601e60248201527f696e636f7272656374206f75747075747345706f6368526f6f74486173680000604482015260640161034e565b6000735eacED599B1cDfc5D7b119Fc52cA1B13396861f963c84583a18780519060200120604051602001610b7491815260200190565b60408051601f19818403018152908290526001600160e01b031960e084901b168252610ba59160059060040161118a565b602060405180830381865af4158015610bc2573d6000803e3d6000fd5b505050506040513d601f19601f82011682018060405250810190610be69190611171565b90508660400135735eacED599B1cDfc5D7b119Fc52cA1B13396861f96379de4601610c1d8a6020016020810190610a699190610fb9565b60058686610c2e60c08f018f6110c0565b6040518763ffffffff1660e01b8152600401610c4f9695949392919061110a565b602060405180830381865af4158015610c6c573d6000803e3d6000fd5b505050506040513d601f19601f82011682018060405250810190610c909190611171565b14610cdd5760405162461bcd60e51b815260206004820152601e60248201527f696e636f7272656374206f7574707574486173686573526f6f74486173680000604482015260640161034e565b50505050505050565b60608282604051602001610cfb9291906111f1565b604051602081830303815290604052905092915050565b6001600160a01b038116811461064c57600080fd5b60008083601f840112610d3957600080fd5b50813567ffffffffffffffff811115610d5157600080fd5b602083019150836020828501011115610d6957600080fd5b9250929050565b600060408284031215610d8257600080fd5b50919050565b60008060008060608587031215610d9e57600080fd5b8435610da981610d12565b9350602085013567ffffffffffffffff80821115610dc657600080fd5b610dd288838901610d27565b90955093506040870135915080821115610deb57600080fd5b50610df887828801610d70565b91505092959194509250565b600080600080600060808688031215610e1c57600080fd5b8535610e2781610d12565b94506020860135610e3781610d12565b935060408601359250606086013567ffffffffffffffff811115610e5a57600080fd5b610e6688828901610d27565b969995985093965092949392505050565b60008060408385031215610e8a57600080fd5b8235610e9581610d12565b946020939093013593505050565b600080600060408486031215610eb857600080fd5b833567ffffffffffffffff80821115610ed057600080fd5b610edc87838801610d27565b90955093506020860135915080821115610ef557600080fd5b50610f0286828701610d70565b9150509250925092565b60008060408385031215610f1f57600080fd5b50508035926020909101359150565b600060208284031215610f4057600080fd5b8135610f4b81610d12565b9392505050565b6000808335601e19843603018112610f6957600080fd5b83018035915067ffffffffffffffff821115610f8457600080fd5b602001915036819003821315610d6957600080fd5b6000823560fe19833603018112610faf57600080fd5b9190910192915050565b600060208284031215610fcb57600080fd5b813567ffffffffffffffff81168114610f4b57600080fd5b8183823760009101908152919050565b81835281816020850137506000828201602090810191909152601f909101601f19169091010190565b6001600160a01b03841681526040602082018190526000906110419083018486610ff3565b95945050505050565b60008060006060848603121561105f57600080fd5b8351925060208401519150604084015190509250925092565b6000821982111561109957634e487b7160e01b600052601160045260246000fd5b500190565b6000602082840312156110b057600080fd5b81518015158114610f4b57600080fd5b6000808335601e198436030181126110d757600080fd5b83018035915067ffffffffffffffff8211156110f257600080fd5b6020019150600581901b3603821315610d6957600080fd5b67ffffffffffffffff878116825286166020820152604081018590526060810184905260a060808201819052810182905260006001600160fb1b0383111561115157600080fd5b8260051b808560c08501376000920160c001918252509695505050505050565b60006020828403121561118357600080fd5b5051919050565b604081526000835180604084015260005b818110156111b8576020818701810151606086840101520161119b565b818111156111ca576000606083860101525b5067ffffffffffffffff93909316602083015250601f91909101601f191601606001919050565b60208152600061047b602083018486610ff356fea2646970667358221220db3498df6e8b539b5a8f657321f2fa8d0534a251a6719a46f061a6083979db8664736f6c634300080d0033a264697066735822122025a40c090b1f20d195276b54d971011af3667da122c5dd527e6a93964f2dcf7b64736f6c634300080d0033",
  "deployedBytecode": "0x608060405234801561001057600080fd5b506004361061002b5760003560e01c80633648bfb514610030575b600080fd5b61004361003e36600461012b565b61005f565b6040516001600160a01b03909116815260200160405180910390f35b60008084848460405161007190610106565b6001600160a01b0393841681529290911660208301526040820152606001604051809103906000f0801580156100ab573d6000803e3d6000fd5b50604080516001600160a01b03878116825260208201879052838116828401529151929350908716917fe73165c2d277daf8713fd08b40845cb6bb7a20b2b543f3d35324a475660fcebd9181900360600190a2949350505050565b6114618061016d83390190565b6001600160a01b038116811461012857600080fd5b50565b60008060006060848603121561014057600080fd5b833561014b81610113565b9250602084013561015b81610113565b92959294505050604091909101359056fe60a06040523480156200001157600080fd5b5060405162001461380380620014618339810160408190526200003491620001c2565b6001600055620000443362000079565b6200004f82620000cb565b60805250600380546001600160a01b0319166001600160a01b03929092169190911790556200020a565b600180546001600160a01b038381166001600160a01b0319831681179093556040519116919082907f8be0079c531659141344cd1fd0a4f28419497f9722a3daafe3b4186f6b6457e090600090a35050565b620000d56200014e565b6001600160a01b038116620001405760405162461bcd60e51b815260206004820152602660248201527f4f776e61626c653a206e6577206f776e657220697320746865207a65726f206160448201526564647265737360d01b60648201526084015b60405180910390fd5b6200014b8162000079565b50565b6001546001600160a01b03163314620001aa5760405162461bcd60e51b815260206004820181905260248201527f4f776e61626c653a2063616c6c6572206973206e6f7420746865206f776e6572604482015260640162000137565b565b6001600160a01b03811681146200014b57600080fd5b600080600060608486031215620001d857600080fd5b8351620001e581620001ac565b6020850151909350620001f881620001ac565b80925050604084015190509250925092565b60805161123b62000226600039600061018c015261123b6000f3fe6080604052600436106100a05760003560e01c8063715018a611610064578063715018a6146101b55780638da5cb5b146101ca57806396487d46146101e85780639d9b114514610208578063f2fde38b14610228578063fc4116831461024857600080fd5b80631250482f146100ac578063150b7a02146100e1578063179e740b14610126578063522f68151461015857806361b12c661461017a57600080fd5b366100a757005b600080fd5b3480156100b857600080fd5b506100cc6100c7366004610d88565b610268565b60405190151581526020015b60405180910390f35b3480156100ed57600080fd5b5061010d6100fc366004610e04565b630a85bd0160e11b95945050505050565b6040516001600160e01b031990911681526020016100d8565b34801561013257600080fd5b506003546001600160a01b03165b6040516001600160a01b0390911681526020016100d8565b34801561016457600080fd5b50610178610173366004610e77565b610483565b005b34801561018657600080fd5b506040517f000000000000000000000000000000000000000000000000000000000000000081526020016100d8565b3480156101c157600080fd5b5061017861055f565b3480156101d657600080fd5b506001546001600160a01b0316610140565b3480156101f457600080fd5b506100cc610203366004610ea3565b610573565b34801561021457600080fd5b506100cc610223366004610f0c565b6105c4565b34801561023457600080fd5b50610178610243366004610f2e565b6105d6565b34801561025457600080fd5b50610178610263366004610f2e565b61064f565b60006102726106ab565b600080808061028c6102876020880188610f52565b610704565b919550935091506102a983836102a28980610f99565b919061078b565b90506102c5898989876102bc8b80610f99565b93929190610801565b60006102fa6102d48880610f99565b6102e5906040810190602001610fb9565b67ffffffffffffffff168360809190911b1790565b905061030581610837565b156103575760405162461bcd60e51b815260206004820152601860248201527f72652d657865637574696f6e206e6f7420616c6c6f776564000000000000000060448201526064015b60405180910390fd5b60008a6001600160a01b03168a8a604051610373929190610fe3565b6000604051808303816000865af19150503d80600081146103b0576040519150601f19603f3d011682016040523d82523d6000602084013e6103b5565b606091505b50509050801561046a576040516306449da160e41b815260026004820152602481018390526001604482015273__$f57eb21c11c6dae369da3ca36f4f48eb77$__90636449da109060640160006040518083038186803b15801561041857600080fd5b505af415801561042c573d6000803e3d6000fd5b505050507f0eb7ee080f865f1cadc4f54daf58cc3b8879e888832867d13351edcec0fbdc548260405161046191815260200190565b60405180910390a15b9550505050505061047b6001600055565b949350505050565b3330146104c05760405162461bcd60e51b815260206004820152600b60248201526a37b7363c9034ba39b2b63360a91b604482015260640161034e565b6000826001600160a01b03168260405160006040518083038185875af1925050503d806000811461050d576040519150601f19603f3d011682016040523d82523d6000602084013e610512565b606091505b505090508061055a5760405162461bcd60e51b81526020600482015260146024820152731dda5d1a191c985dd15d1a195c8819985a5b195960621b604482015260640161034e565b505050565b6105676108bb565b6105716000610915565b565b60008080806105886102876020870187610f52565b9194509250905061059e82826102a28880610f99565b506105b78787856105af8980610f99565b929190610967565b5060019695505050505050565b6000608082901b831761047b81610837565b6105de6108bb565b6001600160a01b0381166106435760405162461bcd60e51b815260206004820152602660248201527f4f776e61626c653a206e6577206f776e657220697320746865207a65726f206160448201526564647265737360d01b606482015260840161034e565b61064c81610915565b50565b6106576108bb565b600380546001600160a01b0319166001600160a01b0383169081179091556040519081527f4991c6f37185659e276ff918a96f3e20e6c5abcd8c9aab450dc19c2f7ad35cb59060200160405180910390a150565b6002600054036106fd5760405162461bcd60e51b815260206004820152601f60248201527f5265656e7472616e637947756172643a207265656e7472616e742063616c6c00604482015260640161034e565b6002600055565b60035460405163035e6a0960e61b8152600091829182916001600160a01b03169063d79a82409061073d9030908990899060040161101c565b606060405180830381865afa15801561075a573d6000803e3d6000fd5b505050506040513d601f19601f8201168201806040525081019061077e919061104a565b9250925092509250925092565b60008061079b6020860186610fb9565b6107af9067ffffffffffffffff1685611078565b90508281111561047b5760405162461bcd60e51b815260206004820152601f60248201527f696e626f7820696e70757420696e646578206f7574206f6620626f756e647300604482015260640161034e565b600061080e85858561098e565b905061082f868284606083013560255b67ffffffffffffffff1660156109bd565b505050505050565b6040516303fbaf7360e01b8152600260048201526024810182905260009073__$f57eb21c11c6dae369da3ca36f4f48eb77$__906303fbaf7390604401602060405180830381865af4158015610891573d6000803e3d6000fd5b505050506040513d601f19601f820116820180604052508101906108b5919061109e565b92915050565b6001546001600160a01b031633146105715760405162461bcd60e51b815260206004820181905260248201527f4f776e61626c653a2063616c6c6572206973206e6f7420746865206f776e6572604482015260640161034e565b600180546001600160a01b038381166001600160a01b0319831681179093556040519116919082907f8be0079c531659141344cd1fd0a4f28419497f9722a3daafe3b4186f6b6457e090600090a35050565b60006109738484610ce6565b90506109878582846080830135602561081e565b5050505050565b60608383836040516020016109a59392919061101c565b60405160208183030381529060405290509392505050565b6040805160608089013560208301526080808a01359383019390935260a0890135908201528591016040516020818303038152906040528051906020012014610a3e5760405162461bcd60e51b81526020600482015260136024820152720d2dcc6dee4e4cac6e840cae0dec6d090c2e6d606b1b604482015260640161034e565b8273__$2a7ef22e717e9afc55afc95d018bf1a85b$__6379de4601610a7a610a6960208b018b610fb9565b60051b681fffffffffffffffe01690565b60058660408c0135610a8f60e08e018e6110c0565b6040518763ffffffff1660e01b8152600401610ab09695949392919061110a565b602060405180830381865af4158015610acd573d6000803e3d6000fd5b505050506040513d601f19601f82011682018060405250810190610af19190611171565b14610b3e5760405162461bcd60e51b815260206004820152601e60248201527f696e636f7272656374206f75747075747345706f6368526f6f74486173680000604482015260640161034e565b600073__$2a7ef22e717e9afc55afc95d018bf1a85b$__63c84583a18780519060200120604051602001610b7491815260200190565b60408051601f19818403018152908290526001600160e01b031960e084901b168252610ba59160059060040161118a565b602060405180830381865af4158015610bc2573d6000803e3d6000fd5b505050506040513d601f19601f82011682018060405250810190610be69190611171565b9050866040013573__$2a7ef22e717e9afc55afc95d018bf1a85b$__6379de4601610c1d8a6020016020810190610a699190610fb9565b60058686610c2e60c08f018f6110c0565b6040518763ffffffff1660e01b8152600401610c4f9695949392919061110a565b602060405180830381865af4158015610c6c573d6000803e3d6000fd5b505050506040513d601f19601f82011682018060405250810190610c909190611171565b14610cdd5760405162461bcd60e51b815260206004820152601e60248201527f696e636f7272656374206f7574707574486173686573526f6f74486173680000604482015260640161034e565b50505050505050565b60608282604051602001610cfb9291906111f1565b604051602081830303815290604052905092915050565b6001600160a01b038116811461064c57600080fd5b60008083601f840112610d3957600080fd5b50813567ffffffffffffffff811115610d5157600080fd5b602083019150836020828501011115610d6957600080fd5b9250929050565b600060408284031215610d8257600080fd5b50919050565b60008060008060608587031215610d9e57600080fd5b8435610da981610d12565b9350602085013567ffffffffffffffff80821115610dc657600080fd5b610dd288838901610d27565b90955093506040870135915080821115610deb57600080fd5b50610df887828801610d70565b91505092959194509250565b600080600080600060808688031215610e1c57600080fd5b8535610e2781610d12565b94506020860135610e3781610d12565b935060408601359250606086013567ffffffffffffffff811115610e5a57600080fd5b610e6688828901610d27565b969995985093965092949392505050565b60008060408385031215610e8a57600080fd5b8235610e9581610d12565b946020939093013593505050565b600080600060408486031215610eb857600080fd5b833567ffffffffffffffff80821115610ed057600080fd5b610edc87838801610d27565b90955093506020860135915080821115610ef557600080fd5b50610f0286828701610d70565b9150509250925092565b60008060408385031215610f1f57600080fd5b50508035926020909101359150565b600060208284031215610f4057600080fd5b8135610f4b81610d12565b9392505050565b6000808335601e19843603018112610f6957600080fd5b83018035915067ffffffffffffffff821115610f8457600080fd5b602001915036819003821315610d6957600080fd5b6000823560fe19833603018112610faf57600080fd5b9190910192915050565b600060208284031215610fcb57600080fd5b813567ffffffffffffffff81168114610f4b57600080fd5b8183823760009101908152919050565b81835281816020850137506000828201602090810191909152601f909101601f19169091010190565b6001600160a01b03841681526040602082018190526000906110419083018486610ff3565b95945050505050565b60008060006060848603121561105f57600080fd5b8351925060208401519150604084015190509250925092565b6000821982111561109957634e487b7160e01b600052601160045260246000fd5b500190565b6000602082840312156110b057600080fd5b81518015158114610f4b57600080fd5b6000808335601e198436030181126110d757600080fd5b83018035915067ffffffffffffffff8211156110f257600080fd5b6020019150600581901b3603821315610d6957600080fd5b67ffffffffffffffff878116825286166020820152604081018590526060810184905260a060808201819052810182905260006001600160fb1b0383111561115157600080fd5b8260051b808560c08501376000920160c001918252509695505050505050565b60006020828403121561118357600080fd5b5051919050565b604081526000835180604084015260005b818110156111b8576020818701810151606086840101520161119b565b818111156111ca576000606083860101525b5067ffffffffffffffff93909316602083015250601f91909101601f191601606001919050565b60208152600061047b602083018486610ff356fea2646970667358221220db3498df6e8b539b5a8f657321f2fa8d0534a251a6719a46f061a6083979db8664736f6c634300080d0033a264697066735822122025a40c090b1f20d195276b54d971011af3667da122c5dd527e6a93964f2dcf7b64736f6c634300080d0033",
  "libraries": {
    "Bitmask": "0xdB96468910d81BA6085eb9FE258f0DEF3cA8aA9A",
    "MerkleV2": "0x5eacED599B1cDfc5D7b119Fc52cA1B13396861f9"
  },
  "devdoc": {
    "kind": "dev",
    "methods": {
      "newApplication(address,address,bytes32)": {
        "params": {
          "_consensus": "The consensus to which the DApp should be subscribed",
          "_dappOwner": "The address that should own the DApp",
          "_templateHash": "The hash of the initial state of the Cartesi Machine"
        },
        "returns": {
          "_0": "The application"
        }
      }
    },
    "version": 1
  },
  "userdoc": {
    "events": {
      "ApplicationCreated(address,address,bytes32,address)": {
        "notice": "A new application was deployed"
      }
    },
    "kind": "user",
    "methods": {
      "newApplication(address,address,bytes32)": {
        "notice": "Deploy a new application"
      }
    },
    "version": 1
  },
  "storageLayout": {
    "storage": [],
    "types": null
  }
}