{
  "address": "0x7CFB0193Ca87eB6e48056885E026552c3A941FC4",
  "abi": [
    {
      "inputs": [
        {
          "internalType": "contract IInputBox",
          "name": "_inputBox",
          "type": "address"
        }
      ],
      "stateMutability": "nonpayable",
      "type": "constructor"
    },
    {
      "inputs": [
        {
          "internalType": "contract IERC1155",
          "name": "_token",
          "type": "address"
        },
        {
          "internalType": "address",
          "name": "_dapp",
          "type": "address"
        },
        {
          "internalType": "uint256",
          "name": "_tokenId",
          "type": "uint256"
        },
        {
          "internalType": "uint256",
          "name": "_value",
          "type": "uint256"
        },
        {
          "internalType": "bytes",
          "name": "_baseLayerData",
          "type": "bytes"
        },
        {
          "internalType": "bytes",
          "name": "_execLayerData",
          "type": "bytes"
        }
      ],
      "name": "depositSingleERC1155Token",
      "outputs": [],
      "stateMutability": "nonpayable",
      "type": "function"
    },
    {
      "inputs": [],
      "name": "getInputBox",
      "outputs": [
        {
          "internalType": "contract IInputBox",
          "name": "",
          "type": "address"
        }
      ],
      "stateMutability": "view",
      "type": "function"
    }
  ],
  "transactionHash": "0xa597ab709865908a1e493432b924513fdbc65e127a58c8a1dbf605ee1751e931",
  "args": [
    "0x59b22D57D4f067708AB0c00552767405926dc768"
  ],
  "numDeployments": 3,
  "solcInputHash": "d2696284402b6703b2d41170c93ef3b7",
  "bytecode": "0x60a060405234801561001057600080fd5b5060405161054e38038061054e83398101604081905261002f91610040565b6001600160a01b0316608052610070565b60006020828403121561005257600080fd5b81516001600160a01b038116811461006957600080fd5b9392505050565b6080516104bd61009160003960008181603c015261012001526104bd6000f3fe608060405234801561001057600080fd5b50600436106100355760003560e01c8062aace9a1461003a578063dec07dca14610077575b600080fd5b7f00000000000000000000000000000000000000000000000000000000000000006040516001600160a01b03909116815260200160405180910390f35b61008a61008536600461026a565b61008c565b005b604051637921219560e11b81526001600160a01b0389169063f242432a906100c29033908b908b908b908b908b9060040161033b565b600060405180830381600087803b1580156100dc57600080fd5b505af11580156100f0573d6000803e3d6000fd5b50505050600061010689338989898989896101a6565b604051631789cd6360e01b81529091506001600160a01b037f00000000000000000000000000000000000000000000000000000000000000001690631789cd6390610157908b9085906004016103a6565b6020604051808303816000875af1158015610176573d6000803e3d6000fd5b505050506040513d601f19601f8201168201806040525081019061019a91906103e8565b50505050505050505050565b60606000858585856040516020016101c19493929190610401565b604051602081830303815290604052905089898989846040516020016101eb959493929190610433565b60405160208183030381529060405291505098975050505050505050565b6001600160a01b038116811461021e57600080fd5b50565b60008083601f84011261023357600080fd5b50813567ffffffffffffffff81111561024b57600080fd5b60208301915083602082850101111561026357600080fd5b9250929050565b60008060008060008060008060c0898b03121561028657600080fd5b883561029181610209565b975060208901356102a181610209565b96506040890135955060608901359450608089013567ffffffffffffffff808211156102cc57600080fd5b6102d88c838d01610221565b909650945060a08b01359150808211156102f157600080fd5b506102fe8b828c01610221565b999c989b5096995094979396929594505050565b81835281816020850137506000828201602090810191909152601f909101601f19169091010190565b6001600160a01b03878116825286166020820152604081018590526060810184905260a0608082018190526000906103769083018486610312565b98975050505050505050565b60005b8381101561039d578181015183820152602001610385565b50506000910152565b60018060a01b038316815260406020820152600082518060408401526103d3816060850160208701610382565b601f01601f1916919091016060019392505050565b6000602082840312156103fa57600080fd5b5051919050565b604081526000610415604083018688610312565b8281036020840152610428818587610312565b979650505050505050565b60006bffffffffffffffffffffffff19808860601b168352808760601b166014840152508460288301528360488301528251610476816068850160208701610382565b91909101606801969550505050505056fea26469706673582212208a2be17b506fdeea2c29cef703e184884f695e71e9147dce06da5055620ed53364736f6c63430008130033",
  "devdoc": {
    "kind": "dev",
    "methods": {
      "constructor": {
        "params": {
          "_inputBox": "The input box used by the portal"
        }
      },
      "depositSingleERC1155Token(address,address,uint256,uint256,bytes,bytes)": {
        "params": {
          "_baseLayerData": "Additional data to be interpreted by the base layer",
          "_dapp": "The address of the DApp",
          "_execLayerData": "Additional data to be interpreted by the execution layer",
          "_token": "The ERC-1155 token contract",
          "_tokenId": "The identifier of the token being transferred",
          "_value": "Transfer amount"
        }
      },
      "getInputBox()": {
        "returns": {
          "_0": "The input box"
        }
      }
    },
    "title": "ERC-1155 Single Transfer Portal",
    "version": 1
  },
  "userdoc": {
    "kind": "user",
    "methods": {
      "constructor": {
        "notice": "Constructs the portal."
      },
      "depositSingleERC1155Token(address,address,uint256,uint256,bytes,bytes)": {
        "notice": "Transfer an ERC-1155 token to a DApp and add an input to the DApp's input box to signal such operation. The caller must enable approval for the portal to manage all of their tokens beforehand, by calling the `setApprovalForAll` function in the token contract."
      },
      "getInputBox()": {
        "notice": "Get the input box used by this input relay."
      }
    },
    "notice": "This contract allows anyone to perform single transfers of ERC-1155 tokens to a DApp while informing the off-chain machine.",
    "version": 1
  },
  "storageLayout": {
    "storage": [],
    "types": null
  }
}