{
  "address": "0xFfdbe43d4c855BF7e0f105c400A50857f53AB044",
  "abi": [
    {
      "inputs": [
        {
          "internalType": "contract IInputBox",
          "name": "_inputBox",
          "type": "address"
        }
      ],
      "stateMutability": "nonpayable",
      "type": "constructor"
    },
    {
      "inputs": [],
      "name": "EtherTransferFailed",
      "type": "error"
    },
    {
      "inputs": [
        {
          "internalType": "address",
          "name": "_dapp",
          "type": "address"
        },
        {
          "internalType": "bytes",
          "name": "_execLayerData",
          "type": "bytes"
        }
      ],
      "name": "depositEther",
      "outputs": [],
      "stateMutability": "payable",
      "type": "function"
    },
    {
      "inputs": [],
      "name": "getInputBox",
      "outputs": [
        {
          "internalType": "contract IInputBox",
          "name": "",
          "type": "address"
        }
      ],
      "stateMutability": "view",
      "type": "function"
    }
  ],
  "transactionHash": "0x5a7e8565340b0eae344ffdab13b1771111dab26c939f7eb70cde43cbbeb7a166",
  "args": [
    "0x59b22D57D4f067708AB0c00552767405926dc768"
  ],
  "numDeployments": 9,
  "solcInputHash": "d2696284402b6703b2d41170c93ef3b7",
  "bytecode": "0x60a060405234801561001057600080fd5b506040516103de3803806103de83398101604081905261002f91610040565b6001600160a01b0316608052610070565b60006020828403121561005257600080fd5b81516001600160a01b038116811461006957600080fd5b9392505050565b60805161034d61009160003960008181603c0152610128015261034d6000f3fe6080604052600436106100285760003560e01c8062aace9a1461002d578063938c054f14610077575b600080fd5b34801561003957600080fd5b507f00000000000000000000000000000000000000000000000000000000000000006040516001600160a01b03909116815260200160405180910390f35b61008a6100853660046101dc565b61008c565b005b6000836001600160a01b03163460405160006040518083038185875af1925050503d80600081146100d9576040519150601f19603f3d011682016040523d82523d6000602084013e6100de565b606091505b505090508061010057604051630ce8f45160e31b815260040160405180910390fd5b600061010e333486866101aa565b604051631789cd6360e01b81529091506001600160a01b037f00000000000000000000000000000000000000000000000000000000000000001690631789cd639061015f908890859060040161026d565b6020604051808303816000875af115801561017e573d6000803e3d6000fd5b505050506040513d601f19601f820116820180604052508101906101a291906102cb565b505050505050565b6060848484846040516020016101c394939291906102e4565b6040516020818303038152906040529050949350505050565b6000806000604084860312156101f157600080fd5b83356001600160a01b038116811461020857600080fd5b9250602084013567ffffffffffffffff8082111561022557600080fd5b818601915086601f83011261023957600080fd5b81358181111561024857600080fd5b87602082850101111561025a57600080fd5b6020830194508093505050509250925092565b60018060a01b038316815260006020604081840152835180604085015260005b818110156102a95785810183015185820160600152820161028d565b506000606082860101526060601f19601f830116850101925050509392505050565b6000602082840312156102dd57600080fd5b5051919050565b6bffffffffffffffffffffffff198560601b1681528360148201528183603483013760009101603401908152939250505056fea26469706673582212203555bb6cf9b2020729bb19c561673a225f367cd3219906075930d8b9f3fb219864736f6c63430008130033",
  "devdoc": {
    "kind": "dev",
    "methods": {
      "constructor": {
        "params": {
          "_inputBox": "The input box used by the portal"
        }
      },
      "depositEther(address,bytes)": {
        "details": "All the value sent through this function is forwarded to the DApp.      If the transfer fails, `EtherTransferFailed` error is raised.",
        "params": {
          "_dapp": "The address of the DApp",
          "_execLayerData": "Additional data to be interpreted by the execution layer"
        }
      },
      "getInputBox()": {
        "returns": {
          "_0": "The input box"
        }
      }
    },
    "title": "Ether Portal",
    "version": 1
  },
  "userdoc": {
    "errors": {
      "EtherTransferFailed()": [
        {
          "notice": "Raised when the Ether transfer fails."
        }
      ]
    },
    "kind": "user",
    "methods": {
      "constructor": {
        "notice": "Constructs the portal."
      },
      "depositEther(address,bytes)": {
        "notice": "Transfer Ether to a DApp and add an input to the DApp's input box to signal such operation. All the value sent through this function is forwarded to the DApp."
      },
      "getInputBox()": {
        "notice": "Get the input box used by this input relay."
      }
    },
    "notice": "This contract allows anyone to perform transfers of Ether to a DApp while informing the off-chain machine.",
    "version": 1
  },
  "storageLayout": {
    "storage": [],
    "types": null
  }
}